{
	"data": {
		"bytecode": {
			"linkReferences": {},
			"object": "608034620001f057601f6200308938819003918201601f1916830191906001600160401b03831184841017620001f4578160609285926040958652833981010312620001f057620000508262000208565b6200006b82620000636020860162000208565b940162000208565b60015f819055805460ff1916905560fa6004556001600160a01b03918216939091908415620001ac57811690811562000168578216156200012457620000cc929360018060a01b03199081600354161760035560055416176005556200021d565b505f8051602062003069833981519152805f5260026020526001825f20019181835493555191817fbd79b86ffe0ab8e8776151514217cd7cacd52c909f66475c3af44e129f0b00ff5f80a4612daa9081620002bf8239f35b825162461bcd60e51b815260206004820152601560248201527f496e76616c6964206f776e6572206164647265737300000000000000000000006044820152606490fd5b835162461bcd60e51b815260206004820152601560248201527f496e76616c69642066656520726563697069656e7400000000000000000000006044820152606490fd5b835162461bcd60e51b815260206004820152601a60248201527f496e76616c6964204944525820746f6b656e20616464726573730000000000006044820152606490fd5b5f80fd5b634e487b7160e01b5f52604160045260245ffd5b51906001600160a01b0382168203620001f057565b6001600160a01b03165f8181527fef73bf2ac44f84561b5498839ab1c8c5a4dd99305d838aea0d76c5961778535c60205260408120549091905f80516020620030698339815191529060ff16620002b95780835260026020526040832082845260205260408320600160ff198254161790557f2f8788117e7eff1d82e926ec794901d17c78024a50270940304540a733656f0d339380a4600190565b50509056fe6080806040526004361015610012575f80fd5b5f90813560e01c90816301ffc9a7146122f25750806303f502ae14611ddb57806303f715da14611caf5780630e59a39514611ad057806318cf283414611aa85780631a1aaeed1461193057806322dcd13e14611912578063248a9ca3146118e557806324d956c8146117bf5780632f2ff15d1461178157806336568abe1461173957806338a13287146115fc5780633f4ba83a1461154057806342bcf75c1461152257806346904840146114f95780634971716f1461128c57806353a140ac146112405780635c975abb1461121d5780635f22e90014610df957806376492d3f14610d3e5780638456cb5914610cbd57806391d1485414610c7357806395ccea6714610bc65780639fad59b414610b38578063a0a57dac146109fb578063a217fddf146109df578063aa0b59881461091a578063d46597e3146108b0578063d547741f1461086e578063d6bc7c6314610845578063e1a4521814610828578063e39fff3814610689578063e707918014610543578063ef03c10e146102815763f160d3691461019f575f80fd5b3461027e57602036600319011261027e576101b86123e7565b5f80516020612d558339815191528252600260205260408220335f526020526101e760ff60405f205416612755565b6001600160a01b039081168015610247577faaebcf1bfa00580e41d966056b48521fa9f202645c86d4ddf28113e617c1b1d39160409160055491816bffffffffffffffffffffffff60a01b8416176005558351921682526020820152a180f35b60405162461bcd60e51b815260206004820152600f60248201526e496e76616c6964206164647265737360881b6044820152606490fd5b80fd5b503461027e57606036600319011261027e576004356001600160401b03811161053f576102b290369060040161237c565b6102ba6123d1565b604435908115159081830361053b576102d16129fe565b5f80516020612d558339815191528552602080936002825260408720335f52825261030260ff60405f205416612755565b61030a6128ea565b60405186519061033d60ff600b868b01946103268186886125bb565b84019387816006968781520301902001541661292e565b61037960405189516103508183876125bb565b8101838152819003909501909420600201546001600160a01b0395861695949085168614612ab7565b60ff8160405189818c5161038e81838a6125bb565b810184815203019020015416918183101561052757876103c6916103b560038096146129bc565b604051809381928d519283916125bb565b810184815203019020908101600460ff1982541617905588878984840154955f1461050357505050611f40948584029584870414841517156104ef578491899189612710809904968761041891612b29565b986004546104269089612b02565b04968761043291612b29565b9786818a985416888360028801541661044a92612bf9565b818154168b8360018801541661045f92612bf9565b541687866005541661047092612bf9565b7f4626adb85b7c97ab5f8491dda1ebffb1904773cc2fdcd7e5ddbadd473843fd1660607fa4b9aff2e7bd4815fd0c77044b1652a3cdc9d61c082a9a75510dd9d30d1c10099b60409b6104de996104c76002996128ca565b958e519384528301528c820152a3015416966128ca565b948351928352820152a36001815580f35b634e487b7160e01b8a52601160045260248afd5b9196879693919695949596858589979a985416908660018601541661047092612bf9565b634e487b7160e01b8a52602160045260248afd5b5f80fd5b5080fd5b503461027e57602036600319011261027e57600435906001600160401b03821161027e575061057690369060040161237c565b604051818180935160208193019161058d926125bb565b810160068152036020019020600b81015460ff16906105ab8261292e565b600160a01b60019003908160018201541691600282015416926003820154600483015493600684015460ff16916009850154946007810154926008820154946105f3836124f9565b98610600600585016124f9565b93600a0161060d906124f9565b946040519b8c9b8c6101808091528d01610626916125dc565b9460208d015260408c015260608b015260808a015260a0890161064891612601565b87810360c0890152610659916125dc565b86810360e088015261066a916125dc565b9361010086015261012085015261014084015215156101608301520390f35b503461027e5760208060031936011261053f576004356001600160401b038111610824576106bb90369060040161237c565b906106c46129fe565b6106cc6128ea565b6040519180516106ff60ff600b858501936106e88189876125bb565b87019686816006998a81520301902001541661292e565b60ff84604051858186516107148183896125bb565b810184815203019020015416848110156108105761074a9161073960018693146129bc565b6040518093819286519283916125bb565b8101868152030190209260048401544211156107cb577f19a500c76afe03a03914754f26a2766147bdcb90320371467b02ae014c0f10cb916107ba916003860154956107a98760018060a01b0380600354169060018501541690612bf9565b01805460ff191660051790556128ca565b916040519384523393a36001815580f35b60405162461bcd60e51b815260048101849052601c60248201527f446561646c696e6520686173206e6f7420796574207061737365642e000000006044820152606490fd5b634e487b7160e01b86526021600452602486fd5b8280fd5b503461027e578060031936011261027e5760206040516127108152f35b503461027e578060031936011261027e576003546040516001600160a01b039091168152602090f35b503461027e57604036600319011261027e576108ac60043561088e6123d1565b9080845260026020526108a76001604086200154612622565b6126e0565b5080f35b503461027e57604036600319011261027e576108ca6123e7565b6001600160a01b031681526007602052604081208054602435929083101561027e576109166109026108fc8585612498565b9061259a565b6040519182916020835260208301906125dc565b0390f35b503461027e57602036600319011261027e576004355f80516020612d558339815191528252600260205260408220335f5260205261095e60ff60405f205416612755565b6103e881116109a15760407fd347e206f25a89b917fc9482f1a2d294d749baa4dc9bde7fb495ee11fe49164391600454908060045582519182526020820152a180f35b60405162461bcd60e51b815260206004820152601660248201527546656520746f6f206869676820286d6178203130252960501b6044820152606490fd5b503461027e578060031936011261027e57602090604051908152f35b503461027e57602036600319011261027e57600435906001600160401b03821161027e5750610a2e90369060040161237c565b6040518181809351602081930191610a45926125bb565b810160068152036020019020610a5a816124f9565b600160a01b60019003806001840154169060028401541692600381015491600482015460058301610a8a906124f9565b91600684015460ff1692600785015490600886015492600987015494600a8801610ab3906124f9565b97600b015460ff16986040519b8c9b8c6101808091528d01610ad4916125dc565b9360208d015260408c015260608b015260808a015288810360a08a0152610afa916125dc565b9360c08801610b0891612601565b60e0870152610100860152610120850152838103610140850152610b2b916125dc565b9015156101608301520390f35b503461027e57604036600319011261027e57610b526123e7565b602435801515810361053b57610b6791612c48565b60405190602092838301848452825180915260408401948060408360051b870101940192955b828710610b9a5785850386f35b909192938280610bb6600193603f198a820301865288516125dc565b9601920196019592919092610b8d565b503461027e57604036600319011261027e57610be06123e7565b5f80516020612d558339815191528252600260205260408220335f52602052610c0f60ff60405f205416612755565b6003546001600160a01b0391821691168114610c3757610c3490602435903390612bf9565b80f35b60405162461bcd60e51b8152602060048201526014602482015273086c2dcdcdee840eed2e8d0c8e4c2ee409288a4b60631b6044820152606490fd5b503461027e57604036600319011261027e576040610c8f6123d1565b9160043581526002602052209060018060a01b03165f52602052602060ff60405f2054166040519015158152f35b503461027e578060031936011261027e575f80516020612d558339815191528152600260205260408120335f52602052610cfd60ff60405f205416612755565b610d056128ea565b600160ff19815416176001557f62e78cea01bee320cd4e420270b5ea74000d11b0c9f74754ebdbfc544b05a2586020604051338152a180f35b503461027e57602036600319011261027e576004356001600160401b03811161053f576020610d74610d8792369060040161237c565b81604051938285809451938492016125bb565b8101600681520301902060ff600b820154169081610dc4575b6020925081610db5575b506040519015158152f35b6009915001544210155f610daa565b905060ff600682015416916006831015610de5575060026020921490610da0565b634e487b7160e01b81526021600452602490fd5b503461027e5760e036600319011261027e576001600160401b0360043581811161082457610e2b90369060040161237c565b610e336123d1565b916044918235926bffffffffffffffffffffffff841680940361121957606492833591818316809303611215576084359460ff861680960361121157610e776129fe565b5f80516020612d5583398151915289526020956002875260408a20338b528752610ea760ff60408c205416612755565b610eaf6128ea565b86604051875190610ee360ff600b858c0194610ecc8186886125bb565b84019386816006968781520301902001541661292e565b610f1f6040518a51610ef68183876125bb565b8101838152819003909401909320600101546001600160a01b039c8d169c939084168d14612970565b60ff816040518c818d51610f3481838a6125bb565b810184815203019020015416818110156111fd57610f5290156129bc565b8851156111c8578a1561119457610f76918a91604051809481938d519283916125bb565b820190815203019020958160035416604051936370a0823160e01b85528c60048601528d6024958c818881875afa908115611189578e9291611154575b501061111257908d91813b15610824578d838e9360e493604051978896879563d505accf60e01b87526004870152308c8701528d8601528b850152608484015260a43560a484015260c43560c48401525af190816110eb575b506110e4578a5b156110b3576003541691604051936323b872dd60e01b898601528a8386015230908501528881850152835260a0830190838210858311176110a057509261108761109195936007937feddc0be5f09ce2d9286942052f4d5a1bb2dbe8a87bf038bf0c59c60fa9cc6acc999896604052612a52565b42169101556128ca565b92604051908152a36001815580f35b634e487b7160e01b5f9081526041600452fd5b506c14195c9b5a5d0819985a5b1959609a1b83600d89936040519462461bcd60e51b86526004860152840152820152fd5b6001611013565b86819d929d116110ff576040529a5f61100c565b634e487b7160e01b825260416004528382fd5b60405162461bcd60e51b8152600481018c9052601a818701527f496e73756666696369656e7420746f6b656e2062616c616e6365000000000000818901528690fd5b8092508d8092503d8311611182575b61116d8183612347565b8101031261117e578c90515f610fb3565b8e80fd5b503d611163565b6040513d84823e3d90fd5b60405162461bcd60e51b8152600481018b9052600e60248201526d125b9d985b1a5908185b5bdd5b9d60921b818801528590fd5b60405162461bcd60e51b8152600481018b9052600f60248201526e125b9d985b1a59081919585b081251608a1b818801528590fd5b634e487b7160e01b8e52602160045260248efd5b8880fd5b8780fd5b8580fd5b503461027e578060031936011261027e57602060ff600154166040519015158152f35b503461027e57604036600319011261027e5761125a6123e7565b6001600160a01b031681526008602052604081208054602435929083101561027e576109166109026108fc8585612498565b503461027e5761129b3661243e565b5f80516020612d5583398151915284939293526020600281526040852033865281526112cd60ff604087205416612755565b6112d56128ea565b604051835161130760ff600b858801936112f08187876125bb565b85019486816006978881520301902001541661292e565b61133e604051865161131a8183866125bb565b810184815281900385019020600201546001600160a01b0397881697168714612ab7565b60ff82604051858189516113538183896125bb565b810184815203019020015416828110156114e5576113899161137860018693146129bc565b6040518093819289519283916125bb565b810184815203019020906004820154421161147a5783511561143e578101600260ff198254161790554260088201556203f48042019081421161142a579161140b84926114047fe08cb3bd9d9b1de1d57bafa49f6b0db920edea2d41724c78255b2c4ca2c9123f96600a876009611420990194855501612790565b54956128ca565b946040519384936040855260408501906125dc565b918301520390a380f35b634e487b7160e01b87526011600452602487fd5b60405162461bcd60e51b815260048101849052601460248201527310dbdb9d195b9d08155493081c995c5d5a5c995960621b6044820152606490fd5b60405162461bcd60e51b815260048101849052603760248201527f5375626d697373696f6e20646561646c696e6520686173207061737365642e2060448201527f4465616c206973206175746f2d63616e63656c6c65642e0000000000000000006064820152608490fd5b634e487b7160e01b88526021600452602488fd5b503461027e578060031936011261027e576005546040516001600160a01b039091168152602090f35b503461027e578060031936011261027e5760206040516203f4808152f35b503461027e578060031936011261027e575f80516020612d55833981519152815260026020526040812033825260205261158060ff604083205416612755565b60015460ff8116156115c05760ff19166001557f5db9ee0a495bf2e6ff9c91a7834c1ba4fdd244a5e8aa4e537bd38aeae4b073aa6020604051338152a180f35b60405162461bcd60e51b815260206004820152601460248201527314185d5cd8589b194e881b9bdd081c185d5cd95960621b6044820152606490fd5b503461027e5760208060031936011261053f576004356001600160401b0381116108245761162e90369060040161237c565b906116376129fe565b61163f6128ea565b60405161166f60ff600b85519385818189019661165d81838a6125bb565b8101600681520301902001541661292e565b60ff6006604051848187516116858183896125bb565b810184815203019020015416600681101561172557826009926116ad60026116be94146129bc565b6040518093819288519283916125bb565b81016006815203019020015442106116e157506116da90612b36565b6001815580f35b6064906040519062461bcd60e51b82526004820152601760248201527f52657669657720706572696f64206e6f7420656e6465640000000000000000006044820152fd5b634e487b7160e01b85526021600452602485fd5b503461027e57604036600319011261027e576117536123d1565b336001600160a01b0382160361176f576108ac906004356126e0565b60405163334bd91960e11b8152600490fd5b503461027e57604036600319011261027e576108ac6004356117a16123d1565b9080845260026020526117ba6001604086200154612622565b612662565b503461027e576117ce366123fd565b91906117d86129fe565b5f80516020612d55833981519152825260ff600661187a60206002815260408620338752815261180d84604088205416612755565b6118156128ea565b60405161184385600b8851938581818c019661183281838a6125bb565b81018a81520301902001541661292e565b6116ad60405187516118568183866125bb565b810186815281900384019020600101546001600160a01b03998a1699168914612970565b8101848152030190200154169260068410156118d1576118a060026116da9495146129bc565b6118a9826128ca565b7ecaec7345d2eb04a42197ac2a2cd7cd74a00b2991b69bb53e23465d4092fdfb8580a3612b36565b634e487b7160e01b83526021600452602483fd5b503461027e57602036600319011261027e5760016040602092600435815260028452200154604051908152f35b503461027e578060031936011261027e576020600454604051908152f35b503461027e5760208060031936011261053f576004356001600160401b0381116108245761196290369060040161237c565b61196a6129fe565b5f80516020612d5583398151915283526002825260408320338452825261199760ff604085205416612755565b6119b98260405161073960ff600b8651938581818a019661165d81838a6125bb565b81016006815203019020600681019081549160ff83166006811015611a945760018114908115611a89575b5015611a445792611a3f7f19a500c76afe03a03914754f26a2766147bdcb90320371467b02ae014c0f10cb93836005979660036107ba96015498899360ff191617905560018060a01b03600181600354169201541690612bf9565b6128ca565b60405162461bcd60e51b815260048101869052601760248201527f43616e6e6f742063616e63656c2074686973206465616c0000000000000000006044820152606490fd5b60029150145f6119e4565b634e487b7160e01b87526021600452602487fd5b503461027e578060031936011261027e5760206040515f80516020612d558339815191528152f35b503461027e57611adf3661243e565b5f80516020612d55833981519152849392935260209160028352604085203386528352611b1260ff604087205416612755565b611b1a6128ea565b6040518151611b4c60ff600b87860193611b358187876125bb565b85019488816006978881520301902001541661292e565b611b836040518451611b5f8183866125bb565b810184815281900387019020600101546001600160a01b0397881697168714612970565b60ff8260405187818751611b988183896125bb565b810184815203019020015416828110156114e557611bce91611bbd60028893146129bc565b6040518093819287519283916125bb565b8101848152030190206009810154421015611c7457835115611c3d5701805460ff191660031790557fde7b01bef0884582ce204f7f920e57f99dd569f93867450872f436be5a03c7559190611c22906128ca565b92611c376040519282849384528301906125dc565b0390a380f35b60405162461bcd60e51b815260048101869052600f60248201526e1499585cdbdb881c995c5d5a5c9959608a1b6044820152606490fd5b60405162461bcd60e51b815260048101869052601360248201527214995d9a595dc81c195c9a5bd908195b991959606a1b6044820152606490fd5b503461027e57611cbe366123fd565b905f80516020612d55833981519152835260209060028252604084203385528252611cef60ff604086205416612755565b6040518151611d2160ff600b86860193611d0a8187876125bb565b85019487816006978881520301902001541661292e565b611d586040518451611d348183866125bb565b810184815281900386019020600101546001600160a01b0396871696168614612970565b60ff8260405186818751611d6d8183896125bb565b81018481520301902001541682811015611a945791611db6857f19a500c76afe03a03914754f26a2766147bdcb90320371467b02ae014c0f10cb9593611bbd611dd096156129bc565b81018481520301902001805460ff191660051790556128ca565b91604051858152a380f35b503461027e5760c036600319011261027e576001600160401b0360043581811161082457611e0d90369060040161237c565b90611e166123d1565b9160448035926001600160a01b03841684036112195760a4358181116122ee57611e4490369060040161237c565b915f80516020612d558339815191528752600260205260408720338852602052611e7460ff604089205416612755565b611e7c6128ea565b60ff600b6040516020818851611e958183858d016125bb565b810160068152030190200154166122b1576001600160a01b0385161561226d576001600160a01b03861615612231576001600160a01b03868116908616146121ed57606435156121a9574260843511156121655782511561212b5750604051916101808301838110838211176121175760405283835260018060a01b038616602084015260018060a01b03851660408401526064356060840152608435608084015260a08301528560c08301528560e083015285610100830152856101208301526040519081602081011090602083011117612103576020810160405285815261014082015260016101608201526040516020818451611f9881838589016125bb565b81016006815203019020611fad825182612790565b60208201516001820180546001600160a01b039283166001600160a01b0319918216179091556040840151600284018054919093169116179055606082015160038201556080820151600482015560a082015161200d9060058301612790565b600681019060c08301519160068310156114e557610160600b6120bb9695949360ff938419958587835416911617905560e086015160078201556101008601516008820155610120860151600982015561206f610140870151600a8301612790565b01930151151591835416911617905560018060a01b0384168552600760205261209b8160408720612898565b6001600160a01b0383168552600860205260408520611a3f908290612898565b60408051606435815260843560208201526001600160a01b0393841694909316927f4dfa2d4e433a4e1fe0aa3a98eef56517737c0ef61b1476caa443106551d802ee9190a480f35b634e487b7160e01b86526041600452602486fd5b634e487b7160e01b88526041600452602488fd5b60649072109c9a5959881a185cda081c995c5d5a5c9959606a1b6040519162461bcd60e51b83526020600484015260136024840152820152fd5b6064907f446561646c696e65206d75737420626520696e206675747572650000000000006040519162461bcd60e51b835260206004840152601a6024840152820152fd5b6064907f416d6f756e74206d7573742062652067726561746572207468616e20300000006040519162461bcd60e51b835260206004840152601d6024840152820152fd5b6064907f43726561746f722063616e6e6f74206265206272616e640000000000000000006040519162461bcd60e51b83526020600484015260176024840152820152fd5b60649074496e76616c6964206272616e64206164647265737360581b6040519162461bcd60e51b83526020600484015260156024840152820152fd5b6064907f496e76616c69642063726561746f7220616464726573730000000000000000006040519162461bcd60e51b83526020600484015260176024840152820152fd5b606490754465616c20494420616c72656164792065786973747360501b6040519162461bcd60e51b83526020600484015260166024840152820152fd5b8680fd5b90503461053f57602036600319011261053f5760043563ffffffff60e01b81168091036108245760209250637965db0b60e01b8114908115612336575b5015158152f35b6301ffc9a760e01b1490505f61232f565b90601f801991011681019081106001600160401b0382111761236857604052565b634e487b7160e01b5f52604160045260245ffd5b81601f8201121561053b578035906001600160401b03821161236857604051926123b0601f8401601f191660200185612347565b8284526020838301011161053b57815f926020809301838601378301015290565b602435906001600160a01b038216820361053b57565b600435906001600160a01b038216820361053b57565b604060031982011261053b57600435906001600160401b03821161053b576124279160040161237c565b906024356001600160a01b038116810361053b5790565b606060031982011261053b576001600160401b039160043583811161053b578261246a9160040161237c565b926024356001600160a01b038116810361053b579260443591821161053b576124959160040161237c565b90565b80548210156124ad575f5260205f2001905f90565b634e487b7160e01b5f52603260045260245ffd5b90600182811c921680156124ef575b60208310146124db57565b634e487b7160e01b5f52602260045260245ffd5b91607f16916124d0565b9060405191825f82549261250c846124c1565b9081845260019485811690815f146125775750600114612537575b505061253592500383612347565b565b909391505f52602090815f20935f915b81831061255f57505061253593508201015f80612527565b85548884018501529485019487945091830191612547565b91505061253594506020925060ff191682840152151560051b8201015f80612527565b906125a857612495906124f9565b634e487b7160e01b5f525f60045260245ffd5b5f5b8381106125cc5750505f910152565b81810151838201526020016125bd565b906020916125f5815180928185528580860191016125bb565b601f01601f1916010190565b90600682101561260e5752565b634e487b7160e01b5f52602160045260245ffd5b805f52600260205260405f20335f5260205260ff60405f205416156126445750565b6044906040519063e2517d3f60e01b82523360048301526024820152fd5b905f918083526002602052604083209160018060a01b03169182845260205260ff604084205416155f146126db5780835260026020526040832082845260205260408320600160ff198254161790557f2f8788117e7eff1d82e926ec794901d17c78024a50270940304540a733656f0d339380a4600190565b505090565b905f918083526002602052604083209160018060a01b03169182845260205260ff6040842054165f146126db578083526002602052604083208284526020526040832060ff1981541690557ff6391f5c32d9c69d2a47ea670b442974b53935d1edc7fd64eb21e047a839171b339380a4600190565b1561275c57565b60405162461bcd60e51b815260206004820152600c60248201526b2737ba10309039b2b93b32b960a11b6044820152606490fd5b91909182516001600160401b038111612368576127ad82546124c1565b601f8111612851575b50602080601f83116001146127f15750819293945f926127e6575b50508160011b915f199060031b1c1916179055565b015190505f806127d1565b90601f19831695845f52825f20925f905b88821061283957505083600195969710612821575b505050811b019055565b01515f1960f88460031b161c191690555f8080612817565b80600185968294968601518155019501930190612802565b5f83815260208120601f840160051c8101926020851061288e575b601f0160051c01915b8281106128835750506127b6565b818155600101612875565b909250829061286c565b805468010000000000000000811015612368576128ba91600182018155612498565b9190916125a85761253591612790565b6128e2906020604051928284809451938492016125bb565b810103902090565b60ff600154166128f657565b60405162461bcd60e51b815260206004820152601060248201526f14185d5cd8589b194e881c185d5cd95960821b6044820152606490fd5b1561293557565b60405162461bcd60e51b81526020600482015260136024820152721119585b08191bd95cc81b9bdd08195e1a5cdd606a1b6044820152606490fd5b1561297757565b60405162461bcd60e51b815260206004820152601e60248201527f496e76616c6964206272616e64206164647265737320666f72206465616c00006044820152606490fd5b156129c357565b60405162461bcd60e51b8152602060048201526013602482015272496e76616c6964206465616c2073746174757360681b6044820152606490fd5b60025f5414612a0d5760025f55565b60405162461bcd60e51b815260206004820152601f60248201527f5265656e7472616e637947756172643a207265656e7472616e742063616c6c006044820152606490fd5b905f602091828151910182855af115612aac575f513d612aa357506001600160a01b0381163b155b612a815750565b604051635274afe760e01b81526001600160a01b039091166004820152602490fd5b60011415612a7a565b6040513d5f823e3d90fd5b15612abe57565b606460405162461bcd60e51b815260206004820152602060248201527f496e76616c69642063726561746f72206164647265737320666f72206465616c6044820152fd5b81810292918115918404141715612b1557565b634e487b7160e01b5f52601160045260245ffd5b91908203918211612b1557565b6040516020818351612b4b81838588016125bb565b810160068152030190207fa4b9aff2e7bd4815fd0c77044b1652a3cdc9d61c082a9a75510dd9d30d1c10096040600383015492612beb612b9b612710612b9360045488612b02565b048096612b29565b60068301805460ff191660041790556003546002909301805491936001600160a01b0392612bcf9186918516908516612bf9565b612be3878360035416846005541690612bf9565b5416956128ca565b9382519182526020820152a3565b60405163a9059cbb60e01b60208201526001600160a01b03909216602483015260448083019390935291815260808101916001600160401b038311828410176123685761253592604052612a52565b9015612cdb576001600160a01b03165f90815260076020908152604082208054909290916001600160401b038311612cc7576040519391612c8f600585901b830186612347565b8385529182528082208185015b848410612cab57505050505090565b6001838192612cb9856124f9565b815201920193019290612c9c565b634e487b7160e01b82526041600452602482fd5b6001600160a01b03165f90815260086020908152604082208054909290916001600160401b038311612cc7576040519391612d1c600585901b830186612347565b8385529182528082208185015b848410612d3857505050505090565b6001838192612d46856124f9565b815201920193019290612d2956fea8a7bc421f721cb936ea99efdad79237e6ee0b871a2a08cf648691f9584cdc77a2646970667358221220eb9de1de6c361c533e99672403ec0f3a5b2f72c7cdb8159fac818ad79f0d7a9c64736f6c63430008140033a8a7bc421f721cb936ea99efdad79237e6ee0b871a2a08cf648691f9584cdc77",
			"opcodes": "PUSH1 0x80 CALLVALUE PUSH3 0x1F0 JUMPI PUSH1 0x1F PUSH3 0x3089 CODESIZE DUP2 SWAP1 SUB SWAP2 DUP3 ADD PUSH1 0x1F NOT AND DUP4 ADD SWAP2 SWAP1 PUSH1 0x1 PUSH1 0x1 PUSH1 0x40 SHL SUB DUP4 GT DUP5 DUP5 LT OR PUSH3 0x1F4 JUMPI DUP2 PUSH1 0x60 SWAP3 DUP6 SWAP3 PUSH1 0x40 SWAP6 DUP7 MSTORE DUP4 CODECOPY DUP2 ADD SUB SLT PUSH3 0x1F0 JUMPI PUSH3 0x50 DUP3 PUSH3 0x208 JUMP JUMPDEST PUSH3 0x6B DUP3 PUSH3 0x63 PUSH1 0x20 DUP7 ADD PUSH3 0x208 JUMP JUMPDEST SWAP5 ADD PUSH3 0x208 JUMP JUMPDEST PUSH1 0x1 PUSH0 DUP2 SWAP1 SSTORE DUP1 SLOAD PUSH1 0xFF NOT AND SWAP1 SSTORE PUSH1 0xFA PUSH1 0x4 SSTORE PUSH1 0x1 PUSH1 0x1 PUSH1 0xA0 SHL SUB SWAP2 DUP3 AND SWAP4 SWAP1 SWAP2 SWAP1 DUP5 ISZERO PUSH3 0x1AC JUMPI DUP2 AND SWAP1 DUP2 ISZERO PUSH3 0x168 JUMPI DUP3 AND ISZERO PUSH3 0x124 JUMPI PUSH3 0xCC SWAP3 SWAP4 PUSH1 0x1 DUP1 PUSH1 0xA0 SHL SUB NOT SWAP1 DUP2 PUSH1 0x3 SLOAD AND OR PUSH1 0x3 SSTORE PUSH1 0x5 SLOAD AND OR PUSH1 0x5 SSTORE PUSH3 0x21D JUMP JUMPDEST POP PUSH0 DUP1 MLOAD PUSH1 0x20 PUSH3 0x3069 DUP4 CODECOPY DUP2 MLOAD SWAP2 MSTORE DUP1 PUSH0 MSTORE PUSH1 0x2 PUSH1 0x20 MSTORE PUSH1 0x1 DUP3 PUSH0 KECCAK256 ADD SWAP2 DUP2 DUP4 SLOAD SWAP4 SSTORE MLOAD SWAP2 DUP2 PUSH32 0xBD79B86FFE0AB8E8776151514217CD7CACD52C909F66475C3AF44E129F0B00FF PUSH0 DUP1 LOG4 PUSH2 0x2DAA SWAP1 DUP2 PUSH3 0x2BF DUP3 CODECOPY RETURN JUMPDEST DUP3 MLOAD PUSH3 0x461BCD PUSH1 0xE5 SHL DUP2 MSTORE PUSH1 0x20 PUSH1 0x4 DUP3 ADD MSTORE PUSH1 0x15 PUSH1 0x24 DUP3 ADD MSTORE PUSH32 0x496E76616C6964206F776E657220616464726573730000000000000000000000 PUSH1 0x44 DUP3 ADD MSTORE PUSH1 0x64 SWAP1 REVERT JUMPDEST DUP4 MLOAD PUSH3 0x461BCD PUSH1 0xE5 SHL DUP2 MSTORE PUSH1 0x20 PUSH1 0x4 DUP3 ADD MSTORE PUSH1 0x15 PUSH1 0x24 DUP3 ADD MSTORE PUSH32 0x496E76616C69642066656520726563697069656E740000000000000000000000 PUSH1 0x44 DUP3 ADD MSTORE PUSH1 0x64 SWAP1 REVERT JUMPDEST DUP4 MLOAD PUSH3 0x461BCD PUSH1 0xE5 SHL DUP2 MSTORE PUSH1 0x20 PUSH1 0x4 DUP3 ADD MSTORE PUSH1 0x1A PUSH1 0x24 DUP3 ADD MSTORE PUSH32 0x496E76616C6964204944525820746F6B656E2061646472657373000000000000 PUSH1 0x44 DUP3 ADD MSTORE PUSH1 0x64 SWAP1 REVERT JUMPDEST PUSH0 DUP1 REVERT JUMPDEST PUSH4 0x4E487B71 PUSH1 0xE0 SHL PUSH0 MSTORE PUSH1 0x41 PUSH1 0x4 MSTORE PUSH1 0x24 PUSH0 REVERT JUMPDEST MLOAD SWAP1 PUSH1 0x1 PUSH1 0x1 PUSH1 0xA0 SHL SUB DUP3 AND DUP3 SUB PUSH3 0x1F0 JUMPI JUMP JUMPDEST PUSH1 0x1 PUSH1 0x1 PUSH1 0xA0 SHL SUB AND PUSH0 DUP2 DUP2 MSTORE PUSH32 0xEF73BF2AC44F84561B5498839AB1C8C5A4DD99305D838AEA0D76C5961778535C PUSH1 0x20 MSTORE PUSH1 0x40 DUP2 KECCAK256 SLOAD SWAP1 SWAP2 SWAP1 PUSH0 DUP1 MLOAD PUSH1 0x20 PUSH3 0x3069 DUP4 CODECOPY DUP2 MLOAD SWAP2 MSTORE SWAP1 PUSH1 0xFF AND PUSH3 0x2B9 JUMPI DUP1 DUP4 MSTORE PUSH1 0x2 PUSH1 0x20 MSTORE PUSH1 0x40 DUP4 KECCAK256 DUP3 DUP5 MSTORE PUSH1 0x20 MSTORE PUSH1 0x40 DUP4 KECCAK256 PUSH1 0x1 PUSH1 0xFF NOT DUP3 SLOAD AND OR SWAP1 SSTORE PUSH32 0x2F8788117E7EFF1D82E926EC794901D17C78024A50270940304540A733656F0D CALLER SWAP4 DUP1 LOG4 PUSH1 0x1 SWAP1 JUMP JUMPDEST POP POP SWAP1 JUMP INVALID PUSH1 0x80 DUP1 PUSH1 0x40 MSTORE PUSH1 0x4 CALLDATASIZE LT ISZERO PUSH2 0x12 JUMPI PUSH0 DUP1 REVERT JUMPDEST PUSH0 SWAP1 DUP2 CALLDATALOAD PUSH1 0xE0 SHR SWAP1 DUP2 PUSH4 0x1FFC9A7 EQ PUSH2 0x22F2 JUMPI POP DUP1 PUSH4 0x3F502AE EQ PUSH2 0x1DDB JUMPI DUP1 PUSH4 0x3F715DA EQ PUSH2 0x1CAF JUMPI DUP1 PUSH4 0xE59A395 EQ PUSH2 0x1AD0 JUMPI DUP1 PUSH4 0x18CF2834 EQ PUSH2 0x1AA8 JUMPI DUP1 PUSH4 0x1A1AAEED EQ PUSH2 0x1930 JUMPI DUP1 PUSH4 0x22DCD13E EQ PUSH2 0x1912 JUMPI DUP1 PUSH4 0x248A9CA3 EQ PUSH2 0x18E5 JUMPI DUP1 PUSH4 0x24D956C8 EQ PUSH2 0x17BF JUMPI DUP1 PUSH4 0x2F2FF15D EQ PUSH2 0x1781 JUMPI DUP1 PUSH4 0x36568ABE EQ PUSH2 0x1739 JUMPI DUP1 PUSH4 0x38A13287 EQ PUSH2 0x15FC JUMPI DUP1 PUSH4 0x3F4BA83A EQ PUSH2 0x1540 JUMPI DUP1 PUSH4 0x42BCF75C EQ PUSH2 0x1522 JUMPI DUP1 PUSH4 0x46904840 EQ PUSH2 0x14F9 JUMPI DUP1 PUSH4 0x4971716F EQ PUSH2 0x128C JUMPI DUP1 PUSH4 0x53A140AC EQ PUSH2 0x1240 JUMPI DUP1 PUSH4 0x5C975ABB EQ PUSH2 0x121D JUMPI DUP1 PUSH4 0x5F22E900 EQ PUSH2 0xDF9 JUMPI DUP1 PUSH4 0x76492D3F EQ PUSH2 0xD3E JUMPI DUP1 PUSH4 0x8456CB59 EQ PUSH2 0xCBD JUMPI DUP1 PUSH4 0x91D14854 EQ PUSH2 0xC73 JUMPI DUP1 PUSH4 0x95CCEA67 EQ PUSH2 0xBC6 JUMPI DUP1 PUSH4 0x9FAD59B4 EQ PUSH2 0xB38 JUMPI DUP1 PUSH4 0xA0A57DAC EQ PUSH2 0x9FB JUMPI DUP1 PUSH4 0xA217FDDF EQ PUSH2 0x9DF JUMPI DUP1 PUSH4 0xAA0B5988 EQ PUSH2 0x91A JUMPI DUP1 PUSH4 0xD46597E3 EQ PUSH2 0x8B0 JUMPI DUP1 PUSH4 0xD547741F EQ PUSH2 0x86E JUMPI DUP1 PUSH4 0xD6BC7C63 EQ PUSH2 0x845 JUMPI DUP1 PUSH4 0xE1A45218 EQ PUSH2 0x828 JUMPI DUP1 PUSH4 0xE39FFF38 EQ PUSH2 0x689 JUMPI DUP1 PUSH4 0xE7079180 EQ PUSH2 0x543 JUMPI DUP1 PUSH4 0xEF03C10E EQ PUSH2 0x281 JUMPI PUSH4 0xF160D369 EQ PUSH2 0x19F JUMPI PUSH0 DUP1 REVERT JUMPDEST CALLVALUE PUSH2 0x27E JUMPI PUSH1 0x20 CALLDATASIZE PUSH1 0x3 NOT ADD SLT PUSH2 0x27E JUMPI PUSH2 0x1B8 PUSH2 0x23E7 JUMP JUMPDEST PUSH0 DUP1 MLOAD PUSH1 0x20 PUSH2 0x2D55 DUP4 CODECOPY DUP2 MLOAD SWAP2 MSTORE DUP3 MSTORE PUSH1 0x2 PUSH1 0x20 MSTORE PUSH1 0x40 DUP3 KECCAK256 CALLER PUSH0 MSTORE PUSH1 0x20 MSTORE PUSH2 0x1E7 PUSH1 0xFF PUSH1 0x40 PUSH0 KECCAK256 SLOAD AND PUSH2 0x2755 JUMP JUMPDEST PUSH1 0x1 PUSH1 0x1 PUSH1 0xA0 SHL SUB SWAP1 DUP2 AND DUP1 ISZERO PUSH2 0x247 JUMPI PUSH32 0xAAEBCF1BFA00580E41D966056B48521FA9F202645C86D4DDF28113E617C1B1D3 SWAP2 PUSH1 0x40 SWAP2 PUSH1 0x5 SLOAD SWAP2 DUP2 PUSH12 0xFFFFFFFFFFFFFFFFFFFFFFFF PUSH1 0xA0 SHL DUP5 AND OR PUSH1 0x5 SSTORE DUP4 MLOAD SWAP3 AND DUP3 MSTORE PUSH1 0x20 DUP3 ADD MSTORE LOG1 DUP1 RETURN JUMPDEST PUSH1 0x40 MLOAD PUSH3 0x461BCD PUSH1 0xE5 SHL DUP2 MSTORE PUSH1 0x20 PUSH1 0x4 DUP3 ADD MSTORE PUSH1 0xF PUSH1 0x24 DUP3 ADD MSTORE PUSH15 0x496E76616C69642061646472657373 PUSH1 0x88 SHL PUSH1 0x44 DUP3 ADD MSTORE PUSH1 0x64 SWAP1 REVERT JUMPDEST DUP1 REVERT JUMPDEST POP CALLVALUE PUSH2 0x27E JUMPI PUSH1 0x60 CALLDATASIZE PUSH1 0x3 NOT ADD SLT PUSH2 0x27E JUMPI PUSH1 0x4 CALLDATALOAD PUSH1 0x1 PUSH1 0x1 PUSH1 0x40 SHL SUB DUP2 GT PUSH2 0x53F JUMPI PUSH2 0x2B2 SWAP1 CALLDATASIZE SWAP1 PUSH1 0x4 ADD PUSH2 0x237C JUMP JUMPDEST PUSH2 0x2BA PUSH2 0x23D1 JUMP JUMPDEST PUSH1 0x44 CALLDATALOAD SWAP1 DUP2 ISZERO ISZERO SWAP1 DUP2 DUP4 SUB PUSH2 0x53B JUMPI PUSH2 0x2D1 PUSH2 0x29FE JUMP JUMPDEST PUSH0 DUP1 MLOAD PUSH1 0x20 PUSH2 0x2D55 DUP4 CODECOPY DUP2 MLOAD SWAP2 MSTORE DUP6 MSTORE PUSH1 0x20 DUP1 SWAP4 PUSH1 0x2 DUP3 MSTORE PUSH1 0x40 DUP8 KECCAK256 CALLER PUSH0 MSTORE DUP3 MSTORE PUSH2 0x302 PUSH1 0xFF PUSH1 0x40 PUSH0 KECCAK256 SLOAD AND PUSH2 0x2755 JUMP JUMPDEST PUSH2 0x30A PUSH2 0x28EA JUMP JUMPDEST PUSH1 0x40 MLOAD DUP7 MLOAD SWAP1 PUSH2 0x33D PUSH1 0xFF PUSH1 0xB DUP7 DUP12 ADD SWAP5 PUSH2 0x326 DUP2 DUP7 DUP9 PUSH2 0x25BB JUMP JUMPDEST DUP5 ADD SWAP4 DUP8 DUP2 PUSH1 0x6 SWAP7 DUP8 DUP2 MSTORE SUB ADD SWAP1 KECCAK256 ADD SLOAD AND PUSH2 0x292E JUMP JUMPDEST PUSH2 0x379 PUSH1 0x40 MLOAD DUP10 MLOAD PUSH2 0x350 DUP2 DUP4 DUP8 PUSH2 0x25BB JUMP JUMPDEST DUP2 ADD DUP4 DUP2 MSTORE DUP2 SWAP1 SUB SWAP1 SWAP6 ADD SWAP1 SWAP5 KECCAK256 PUSH1 0x2 ADD SLOAD PUSH1 0x1 PUSH1 0x1 PUSH1 0xA0 SHL SUB SWAP6 DUP7 AND SWAP6 SWAP5 SWAP1 DUP6 AND DUP7 EQ PUSH2 0x2AB7 JUMP JUMPDEST PUSH1 0xFF DUP2 PUSH1 0x40 MLOAD DUP10 DUP2 DUP13 MLOAD PUSH2 0x38E DUP2 DUP4 DUP11 PUSH2 0x25BB JUMP JUMPDEST DUP2 ADD DUP5 DUP2 MSTORE SUB ADD SWAP1 KECCAK256 ADD SLOAD AND SWAP2 DUP2 DUP4 LT ISZERO PUSH2 0x527 JUMPI DUP8 PUSH2 0x3C6 SWAP2 PUSH2 0x3B5 PUSH1 0x3 DUP1 SWAP7 EQ PUSH2 0x29BC JUMP JUMPDEST PUSH1 0x40 MLOAD DUP1 SWAP4 DUP2 SWAP3 DUP14 MLOAD SWAP3 DUP4 SWAP2 PUSH2 0x25BB JUMP JUMPDEST DUP2 ADD DUP5 DUP2 MSTORE SUB ADD SWAP1 KECCAK256 SWAP1 DUP2 ADD PUSH1 0x4 PUSH1 0xFF NOT DUP3 SLOAD AND OR SWAP1 SSTORE DUP9 DUP8 DUP10 DUP5 DUP5 ADD SLOAD SWAP6 PUSH0 EQ PUSH2 0x503 JUMPI POP POP POP PUSH2 0x1F40 SWAP5 DUP6 DUP5 MUL SWAP6 DUP5 DUP8 DIV EQ DUP5 ISZERO OR ISZERO PUSH2 0x4EF JUMPI DUP5 SWAP2 DUP10 SWAP2 DUP10 PUSH2 0x2710 DUP1 SWAP10 DIV SWAP7 DUP8 PUSH2 0x418 SWAP2 PUSH2 0x2B29 JUMP JUMPDEST SWAP9 PUSH1 0x4 SLOAD PUSH2 0x426 SWAP1 DUP10 PUSH2 0x2B02 JUMP JUMPDEST DIV SWAP7 DUP8 PUSH2 0x432 SWAP2 PUSH2 0x2B29 JUMP JUMPDEST SWAP8 DUP7 DUP2 DUP11 SWAP9 SLOAD AND DUP9 DUP4 PUSH1 0x2 DUP9 ADD SLOAD AND PUSH2 0x44A SWAP3 PUSH2 0x2BF9 JUMP JUMPDEST DUP2 DUP2 SLOAD AND DUP12 DUP4 PUSH1 0x1 DUP9 ADD SLOAD AND PUSH2 0x45F SWAP3 PUSH2 0x2BF9 JUMP JUMPDEST SLOAD AND DUP8 DUP7 PUSH1 0x5 SLOAD AND PUSH2 0x470 SWAP3 PUSH2 0x2BF9 JUMP JUMPDEST PUSH32 0x4626ADB85B7C97AB5F8491DDA1EBFFB1904773CC2FDCD7E5DDBADD473843FD16 PUSH1 0x60 PUSH32 0xA4B9AFF2E7BD4815FD0C77044B1652A3CDC9D61C082A9A75510DD9D30D1C1009 SWAP12 PUSH1 0x40 SWAP12 PUSH2 0x4DE SWAP10 PUSH2 0x4C7 PUSH1 0x2 SWAP10 PUSH2 0x28CA JUMP JUMPDEST SWAP6 DUP15 MLOAD SWAP4 DUP5 MSTORE DUP4 ADD MSTORE DUP13 DUP3 ADD MSTORE LOG3 ADD SLOAD AND SWAP7 PUSH2 0x28CA JUMP JUMPDEST SWAP5 DUP4 MLOAD SWAP3 DUP4 MSTORE DUP3 ADD MSTORE LOG3 PUSH1 0x1 DUP2 SSTORE DUP1 RETURN JUMPDEST PUSH4 0x4E487B71 PUSH1 0xE0 SHL DUP11 MSTORE PUSH1 0x11 PUSH1 0x4 MSTORE PUSH1 0x24 DUP11 REVERT JUMPDEST SWAP2 SWAP7 DUP8 SWAP7 SWAP4 SWAP2 SWAP7 SWAP6 SWAP5 SWAP6 SWAP7 DUP6 DUP6 DUP10 SWAP8 SWAP11 SWAP9 SLOAD AND SWAP1 DUP7 PUSH1 0x1 DUP7 ADD SLOAD AND PUSH2 0x470 SWAP3 PUSH2 0x2BF9 JUMP JUMPDEST PUSH4 0x4E487B71 PUSH1 0xE0 SHL DUP11 MSTORE PUSH1 0x21 PUSH1 0x4 MSTORE PUSH1 0x24 DUP11 REVERT JUMPDEST PUSH0 DUP1 REVERT JUMPDEST POP DUP1 REVERT JUMPDEST POP CALLVALUE PUSH2 0x27E JUMPI PUSH1 0x20 CALLDATASIZE PUSH1 0x3 NOT ADD SLT PUSH2 0x27E JUMPI PUSH1 0x4 CALLDATALOAD SWAP1 PUSH1 0x1 PUSH1 0x1 PUSH1 0x40 SHL SUB DUP3 GT PUSH2 0x27E JUMPI POP PUSH2 0x576 SWAP1 CALLDATASIZE SWAP1 PUSH1 0x4 ADD PUSH2 0x237C JUMP JUMPDEST PUSH1 0x40 MLOAD DUP2 DUP2 DUP1 SWAP4 MLOAD PUSH1 0x20 DUP2 SWAP4 ADD SWAP2 PUSH2 0x58D SWAP3 PUSH2 0x25BB JUMP JUMPDEST DUP2 ADD PUSH1 0x6 DUP2 MSTORE SUB PUSH1 0x20 ADD SWAP1 KECCAK256 PUSH1 0xB DUP2 ADD SLOAD PUSH1 0xFF AND SWAP1 PUSH2 0x5AB DUP3 PUSH2 0x292E JUMP JUMPDEST PUSH1 0x1 PUSH1 0xA0 SHL PUSH1 0x1 SWAP1 SUB SWAP1 DUP2 PUSH1 0x1 DUP3 ADD SLOAD AND SWAP2 PUSH1 0x2 DUP3 ADD SLOAD AND SWAP3 PUSH1 0x3 DUP3 ADD SLOAD PUSH1 0x4 DUP4 ADD SLOAD SWAP4 PUSH1 0x6 DUP5 ADD SLOAD PUSH1 0xFF AND SWAP2 PUSH1 0x9 DUP6 ADD SLOAD SWAP5 PUSH1 0x7 DUP2 ADD SLOAD SWAP3 PUSH1 0x8 DUP3 ADD SLOAD SWAP5 PUSH2 0x5F3 DUP4 PUSH2 0x24F9 JUMP JUMPDEST SWAP9 PUSH2 0x600 PUSH1 0x5 DUP6 ADD PUSH2 0x24F9 JUMP JUMPDEST SWAP4 PUSH1 0xA ADD PUSH2 0x60D SWAP1 PUSH2 0x24F9 JUMP JUMPDEST SWAP5 PUSH1 0x40 MLOAD SWAP12 DUP13 SWAP12 DUP13 PUSH2 0x180 DUP1 SWAP2 MSTORE DUP14 ADD PUSH2 0x626 SWAP2 PUSH2 0x25DC JUMP JUMPDEST SWAP5 PUSH1 0x20 DUP14 ADD MSTORE PUSH1 0x40 DUP13 ADD MSTORE PUSH1 0x60 DUP12 ADD MSTORE PUSH1 0x80 DUP11 ADD MSTORE PUSH1 0xA0 DUP10 ADD PUSH2 0x648 SWAP2 PUSH2 0x2601 JUMP JUMPDEST DUP8 DUP2 SUB PUSH1 0xC0 DUP10 ADD MSTORE PUSH2 0x659 SWAP2 PUSH2 0x25DC JUMP JUMPDEST DUP7 DUP2 SUB PUSH1 0xE0 DUP9 ADD MSTORE PUSH2 0x66A SWAP2 PUSH2 0x25DC JUMP JUMPDEST SWAP4 PUSH2 0x100 DUP7 ADD MSTORE PUSH2 0x120 DUP6 ADD MSTORE PUSH2 0x140 DUP5 ADD MSTORE ISZERO ISZERO PUSH2 0x160 DUP4 ADD MSTORE SUB SWAP1 RETURN JUMPDEST POP CALLVALUE PUSH2 0x27E JUMPI PUSH1 0x20 DUP1 PUSH1 0x3 NOT CALLDATASIZE ADD SLT PUSH2 0x53F JUMPI PUSH1 0x4 CALLDATALOAD PUSH1 0x1 PUSH1 0x1 PUSH1 0x40 SHL SUB DUP2 GT PUSH2 0x824 JUMPI PUSH2 0x6BB SWAP1 CALLDATASIZE SWAP1 PUSH1 0x4 ADD PUSH2 0x237C JUMP JUMPDEST SWAP1 PUSH2 0x6C4 PUSH2 0x29FE JUMP JUMPDEST PUSH2 0x6CC PUSH2 0x28EA JUMP JUMPDEST PUSH1 0x40 MLOAD SWAP2 DUP1 MLOAD PUSH2 0x6FF PUSH1 0xFF PUSH1 0xB DUP6 DUP6 ADD SWAP4 PUSH2 0x6E8 DUP2 DUP10 DUP8 PUSH2 0x25BB JUMP JUMPDEST DUP8 ADD SWAP7 DUP7 DUP2 PUSH1 0x6 SWAP10 DUP11 DUP2 MSTORE SUB ADD SWAP1 KECCAK256 ADD SLOAD AND PUSH2 0x292E JUMP JUMPDEST PUSH1 0xFF DUP5 PUSH1 0x40 MLOAD DUP6 DUP2 DUP7 MLOAD PUSH2 0x714 DUP2 DUP4 DUP10 PUSH2 0x25BB JUMP JUMPDEST DUP2 ADD DUP5 DUP2 MSTORE SUB ADD SWAP1 KECCAK256 ADD SLOAD AND DUP5 DUP2 LT ISZERO PUSH2 0x810 JUMPI PUSH2 0x74A SWAP2 PUSH2 0x739 PUSH1 0x1 DUP7 SWAP4 EQ PUSH2 0x29BC JUMP JUMPDEST PUSH1 0x40 MLOAD DUP1 SWAP4 DUP2 SWAP3 DUP7 MLOAD SWAP3 DUP4 SWAP2 PUSH2 0x25BB JUMP JUMPDEST DUP2 ADD DUP7 DUP2 MSTORE SUB ADD SWAP1 KECCAK256 SWAP3 PUSH1 0x4 DUP5 ADD SLOAD TIMESTAMP GT ISZERO PUSH2 0x7CB JUMPI PUSH32 0x19A500C76AFE03A03914754F26A2766147BDCB90320371467B02AE014C0F10CB SWAP2 PUSH2 0x7BA SWAP2 PUSH1 0x3 DUP7 ADD SLOAD SWAP6 PUSH2 0x7A9 DUP8 PUSH1 0x1 DUP1 PUSH1 0xA0 SHL SUB DUP1 PUSH1 0x3 SLOAD AND SWAP1 PUSH1 0x1 DUP6 ADD SLOAD AND SWAP1 PUSH2 0x2BF9 JUMP JUMPDEST ADD DUP1 SLOAD PUSH1 0xFF NOT AND PUSH1 0x5 OR SWAP1 SSTORE PUSH2 0x28CA JUMP JUMPDEST SWAP2 PUSH1 0x40 MLOAD SWAP4 DUP5 MSTORE CALLER SWAP4 LOG3 PUSH1 0x1 DUP2 SSTORE DUP1 RETURN JUMPDEST PUSH1 0x40 MLOAD PUSH3 0x461BCD PUSH1 0xE5 SHL DUP2 MSTORE PUSH1 0x4 DUP2 ADD DUP5 SWAP1 MSTORE PUSH1 0x1C PUSH1 0x24 DUP3 ADD MSTORE PUSH32 0x446561646C696E6520686173206E6F7420796574207061737365642E00000000 PUSH1 0x44 DUP3 ADD MSTORE PUSH1 0x64 SWAP1 REVERT JUMPDEST PUSH4 0x4E487B71 PUSH1 0xE0 SHL DUP7 MSTORE PUSH1 0x21 PUSH1 0x4 MSTORE PUSH1 0x24 DUP7 REVERT JUMPDEST DUP3 DUP1 REVERT JUMPDEST POP CALLVALUE PUSH2 0x27E JUMPI DUP1 PUSH1 0x3 NOT CALLDATASIZE ADD SLT PUSH2 0x27E JUMPI PUSH1 0x20 PUSH1 0x40 MLOAD PUSH2 0x2710 DUP2 MSTORE RETURN JUMPDEST POP CALLVALUE PUSH2 0x27E JUMPI DUP1 PUSH1 0x3 NOT CALLDATASIZE ADD SLT PUSH2 0x27E JUMPI PUSH1 0x3 SLOAD PUSH1 0x40 MLOAD PUSH1 0x1 PUSH1 0x1 PUSH1 0xA0 SHL SUB SWAP1 SWAP2 AND DUP2 MSTORE PUSH1 0x20 SWAP1 RETURN JUMPDEST POP CALLVALUE PUSH2 0x27E JUMPI PUSH1 0x40 CALLDATASIZE PUSH1 0x3 NOT ADD SLT PUSH2 0x27E JUMPI PUSH2 0x8AC PUSH1 0x4 CALLDATALOAD PUSH2 0x88E PUSH2 0x23D1 JUMP JUMPDEST SWAP1 DUP1 DUP5 MSTORE PUSH1 0x2 PUSH1 0x20 MSTORE PUSH2 0x8A7 PUSH1 0x1 PUSH1 0x40 DUP7 KECCAK256 ADD SLOAD PUSH2 0x2622 JUMP JUMPDEST PUSH2 0x26E0 JUMP JUMPDEST POP DUP1 RETURN JUMPDEST POP CALLVALUE PUSH2 0x27E JUMPI PUSH1 0x40 CALLDATASIZE PUSH1 0x3 NOT ADD SLT PUSH2 0x27E JUMPI PUSH2 0x8CA PUSH2 0x23E7 JUMP JUMPDEST PUSH1 0x1 PUSH1 0x1 PUSH1 0xA0 SHL SUB AND DUP2 MSTORE PUSH1 0x7 PUSH1 0x20 MSTORE PUSH1 0x40 DUP2 KECCAK256 DUP1 SLOAD PUSH1 0x24 CALLDATALOAD SWAP3 SWAP1 DUP4 LT ISZERO PUSH2 0x27E JUMPI PUSH2 0x916 PUSH2 0x902 PUSH2 0x8FC DUP6 DUP6 PUSH2 0x2498 JUMP JUMPDEST SWAP1 PUSH2 0x259A JUMP JUMPDEST PUSH1 0x40 MLOAD SWAP2 DUP3 SWAP2 PUSH1 0x20 DUP4 MSTORE PUSH1 0x20 DUP4 ADD SWAP1 PUSH2 0x25DC JUMP JUMPDEST SUB SWAP1 RETURN JUMPDEST POP CALLVALUE PUSH2 0x27E JUMPI PUSH1 0x20 CALLDATASIZE PUSH1 0x3 NOT ADD SLT PUSH2 0x27E JUMPI PUSH1 0x4 CALLDATALOAD PUSH0 DUP1 MLOAD PUSH1 0x20 PUSH2 0x2D55 DUP4 CODECOPY DUP2 MLOAD SWAP2 MSTORE DUP3 MSTORE PUSH1 0x2 PUSH1 0x20 MSTORE PUSH1 0x40 DUP3 KECCAK256 CALLER PUSH0 MSTORE PUSH1 0x20 MSTORE PUSH2 0x95E PUSH1 0xFF PUSH1 0x40 PUSH0 KECCAK256 SLOAD AND PUSH2 0x2755 JUMP JUMPDEST PUSH2 0x3E8 DUP2 GT PUSH2 0x9A1 JUMPI PUSH1 0x40 PUSH32 0xD347E206F25A89B917FC9482F1A2D294D749BAA4DC9BDE7FB495EE11FE491643 SWAP2 PUSH1 0x4 SLOAD SWAP1 DUP1 PUSH1 0x4 SSTORE DUP3 MLOAD SWAP2 DUP3 MSTORE PUSH1 0x20 DUP3 ADD MSTORE LOG1 DUP1 RETURN JUMPDEST PUSH1 0x40 MLOAD PUSH3 0x461BCD PUSH1 0xE5 SHL DUP2 MSTORE PUSH1 0x20 PUSH1 0x4 DUP3 ADD MSTORE PUSH1 0x16 PUSH1 0x24 DUP3 ADD MSTORE PUSH22 0x46656520746F6F206869676820286D61782031302529 PUSH1 0x50 SHL PUSH1 0x44 DUP3 ADD MSTORE PUSH1 0x64 SWAP1 REVERT JUMPDEST POP CALLVALUE PUSH2 0x27E JUMPI DUP1 PUSH1 0x3 NOT CALLDATASIZE ADD SLT PUSH2 0x27E JUMPI PUSH1 0x20 SWAP1 PUSH1 0x40 MLOAD SWAP1 DUP2 MSTORE RETURN JUMPDEST POP CALLVALUE PUSH2 0x27E JUMPI PUSH1 0x20 CALLDATASIZE PUSH1 0x3 NOT ADD SLT PUSH2 0x27E JUMPI PUSH1 0x4 CALLDATALOAD SWAP1 PUSH1 0x1 PUSH1 0x1 PUSH1 0x40 SHL SUB DUP3 GT PUSH2 0x27E JUMPI POP PUSH2 0xA2E SWAP1 CALLDATASIZE SWAP1 PUSH1 0x4 ADD PUSH2 0x237C JUMP JUMPDEST PUSH1 0x40 MLOAD DUP2 DUP2 DUP1 SWAP4 MLOAD PUSH1 0x20 DUP2 SWAP4 ADD SWAP2 PUSH2 0xA45 SWAP3 PUSH2 0x25BB JUMP JUMPDEST DUP2 ADD PUSH1 0x6 DUP2 MSTORE SUB PUSH1 0x20 ADD SWAP1 KECCAK256 PUSH2 0xA5A DUP2 PUSH2 0x24F9 JUMP JUMPDEST PUSH1 0x1 PUSH1 0xA0 SHL PUSH1 0x1 SWAP1 SUB DUP1 PUSH1 0x1 DUP5 ADD SLOAD AND SWAP1 PUSH1 0x2 DUP5 ADD SLOAD AND SWAP3 PUSH1 0x3 DUP2 ADD SLOAD SWAP2 PUSH1 0x4 DUP3 ADD SLOAD PUSH1 0x5 DUP4 ADD PUSH2 0xA8A SWAP1 PUSH2 0x24F9 JUMP JUMPDEST SWAP2 PUSH1 0x6 DUP5 ADD SLOAD PUSH1 0xFF AND SWAP3 PUSH1 0x7 DUP6 ADD SLOAD SWAP1 PUSH1 0x8 DUP7 ADD SLOAD SWAP3 PUSH1 0x9 DUP8 ADD SLOAD SWAP5 PUSH1 0xA DUP9 ADD PUSH2 0xAB3 SWAP1 PUSH2 0x24F9 JUMP JUMPDEST SWAP8 PUSH1 0xB ADD SLOAD PUSH1 0xFF AND SWAP9 PUSH1 0x40 MLOAD SWAP12 DUP13 SWAP12 DUP13 PUSH2 0x180 DUP1 SWAP2 MSTORE DUP14 ADD PUSH2 0xAD4 SWAP2 PUSH2 0x25DC JUMP JUMPDEST SWAP4 PUSH1 0x20 DUP14 ADD MSTORE PUSH1 0x40 DUP13 ADD MSTORE PUSH1 0x60 DUP12 ADD MSTORE PUSH1 0x80 DUP11 ADD MSTORE DUP9 DUP2 SUB PUSH1 0xA0 DUP11 ADD MSTORE PUSH2 0xAFA SWAP2 PUSH2 0x25DC JUMP JUMPDEST SWAP4 PUSH1 0xC0 DUP9 ADD PUSH2 0xB08 SWAP2 PUSH2 0x2601 JUMP JUMPDEST PUSH1 0xE0 DUP8 ADD MSTORE PUSH2 0x100 DUP7 ADD MSTORE PUSH2 0x120 DUP6 ADD MSTORE DUP4 DUP2 SUB PUSH2 0x140 DUP6 ADD MSTORE PUSH2 0xB2B SWAP2 PUSH2 0x25DC JUMP JUMPDEST SWAP1 ISZERO ISZERO PUSH2 0x160 DUP4 ADD MSTORE SUB SWAP1 RETURN JUMPDEST POP CALLVALUE PUSH2 0x27E JUMPI PUSH1 0x40 CALLDATASIZE PUSH1 0x3 NOT ADD SLT PUSH2 0x27E JUMPI PUSH2 0xB52 PUSH2 0x23E7 JUMP JUMPDEST PUSH1 0x24 CALLDATALOAD DUP1 ISZERO ISZERO DUP2 SUB PUSH2 0x53B JUMPI PUSH2 0xB67 SWAP2 PUSH2 0x2C48 JUMP JUMPDEST PUSH1 0x40 MLOAD SWAP1 PUSH1 0x20 SWAP3 DUP4 DUP4 ADD DUP5 DUP5 MSTORE DUP3 MLOAD DUP1 SWAP2 MSTORE PUSH1 0x40 DUP5 ADD SWAP5 DUP1 PUSH1 0x40 DUP4 PUSH1 0x5 SHL DUP8 ADD ADD SWAP5 ADD SWAP3 SWAP6 JUMPDEST DUP3 DUP8 LT PUSH2 0xB9A JUMPI DUP6 DUP6 SUB DUP7 RETURN JUMPDEST SWAP1 SWAP2 SWAP3 SWAP4 DUP3 DUP1 PUSH2 0xBB6 PUSH1 0x1 SWAP4 PUSH1 0x3F NOT DUP11 DUP3 SUB ADD DUP7 MSTORE DUP9 MLOAD PUSH2 0x25DC JUMP JUMPDEST SWAP7 ADD SWAP3 ADD SWAP7 ADD SWAP6 SWAP3 SWAP2 SWAP1 SWAP3 PUSH2 0xB8D JUMP JUMPDEST POP CALLVALUE PUSH2 0x27E JUMPI PUSH1 0x40 CALLDATASIZE PUSH1 0x3 NOT ADD SLT PUSH2 0x27E JUMPI PUSH2 0xBE0 PUSH2 0x23E7 JUMP JUMPDEST PUSH0 DUP1 MLOAD PUSH1 0x20 PUSH2 0x2D55 DUP4 CODECOPY DUP2 MLOAD SWAP2 MSTORE DUP3 MSTORE PUSH1 0x2 PUSH1 0x20 MSTORE PUSH1 0x40 DUP3 KECCAK256 CALLER PUSH0 MSTORE PUSH1 0x20 MSTORE PUSH2 0xC0F PUSH1 0xFF PUSH1 0x40 PUSH0 KECCAK256 SLOAD AND PUSH2 0x2755 JUMP JUMPDEST PUSH1 0x3 SLOAD PUSH1 0x1 PUSH1 0x1 PUSH1 0xA0 SHL SUB SWAP2 DUP3 AND SWAP2 AND DUP2 EQ PUSH2 0xC37 JUMPI PUSH2 0xC34 SWAP1 PUSH1 0x24 CALLDATALOAD SWAP1 CALLER SWAP1 PUSH2 0x2BF9 JUMP JUMPDEST DUP1 RETURN JUMPDEST PUSH1 0x40 MLOAD PUSH3 0x461BCD PUSH1 0xE5 SHL DUP2 MSTORE PUSH1 0x20 PUSH1 0x4 DUP3 ADD MSTORE PUSH1 0x14 PUSH1 0x24 DUP3 ADD MSTORE PUSH20 0x86C2DCDCDEE840EED2E8D0C8E4C2EE409288A4B PUSH1 0x63 SHL PUSH1 0x44 DUP3 ADD MSTORE PUSH1 0x64 SWAP1 REVERT JUMPDEST POP CALLVALUE PUSH2 0x27E JUMPI PUSH1 0x40 CALLDATASIZE PUSH1 0x3 NOT ADD SLT PUSH2 0x27E JUMPI PUSH1 0x40 PUSH2 0xC8F PUSH2 0x23D1 JUMP JUMPDEST SWAP2 PUSH1 0x4 CALLDATALOAD DUP2 MSTORE PUSH1 0x2 PUSH1 0x20 MSTORE KECCAK256 SWAP1 PUSH1 0x1 DUP1 PUSH1 0xA0 SHL SUB AND PUSH0 MSTORE PUSH1 0x20 MSTORE PUSH1 0x20 PUSH1 0xFF PUSH1 0x40 PUSH0 KECCAK256 SLOAD AND PUSH1 0x40 MLOAD SWAP1 ISZERO ISZERO DUP2 MSTORE RETURN JUMPDEST POP CALLVALUE PUSH2 0x27E JUMPI DUP1 PUSH1 0x3 NOT CALLDATASIZE ADD SLT PUSH2 0x27E JUMPI PUSH0 DUP1 MLOAD PUSH1 0x20 PUSH2 0x2D55 DUP4 CODECOPY DUP2 MLOAD SWAP2 MSTORE DUP2 MSTORE PUSH1 0x2 PUSH1 0x20 MSTORE PUSH1 0x40 DUP2 KECCAK256 CALLER PUSH0 MSTORE PUSH1 0x20 MSTORE PUSH2 0xCFD PUSH1 0xFF PUSH1 0x40 PUSH0 KECCAK256 SLOAD AND PUSH2 0x2755 JUMP JUMPDEST PUSH2 0xD05 PUSH2 0x28EA JUMP JUMPDEST PUSH1 0x1 PUSH1 0xFF NOT DUP2 SLOAD AND OR PUSH1 0x1 SSTORE PUSH32 0x62E78CEA01BEE320CD4E420270B5EA74000D11B0C9F74754EBDBFC544B05A258 PUSH1 0x20 PUSH1 0x40 MLOAD CALLER DUP2 MSTORE LOG1 DUP1 RETURN JUMPDEST POP CALLVALUE PUSH2 0x27E JUMPI PUSH1 0x20 CALLDATASIZE PUSH1 0x3 NOT ADD SLT PUSH2 0x27E JUMPI PUSH1 0x4 CALLDATALOAD PUSH1 0x1 PUSH1 0x1 PUSH1 0x40 SHL SUB DUP2 GT PUSH2 0x53F JUMPI PUSH1 0x20 PUSH2 0xD74 PUSH2 0xD87 SWAP3 CALLDATASIZE SWAP1 PUSH1 0x4 ADD PUSH2 0x237C JUMP JUMPDEST DUP2 PUSH1 0x40 MLOAD SWAP4 DUP3 DUP6 DUP1 SWAP5 MLOAD SWAP4 DUP5 SWAP3 ADD PUSH2 0x25BB JUMP JUMPDEST DUP2 ADD PUSH1 0x6 DUP2 MSTORE SUB ADD SWAP1 KECCAK256 PUSH1 0xFF PUSH1 0xB DUP3 ADD SLOAD AND SWAP1 DUP2 PUSH2 0xDC4 JUMPI JUMPDEST PUSH1 0x20 SWAP3 POP DUP2 PUSH2 0xDB5 JUMPI JUMPDEST POP PUSH1 0x40 MLOAD SWAP1 ISZERO ISZERO DUP2 MSTORE RETURN JUMPDEST PUSH1 0x9 SWAP2 POP ADD SLOAD TIMESTAMP LT ISZERO PUSH0 PUSH2 0xDAA JUMP JUMPDEST SWAP1 POP PUSH1 0xFF PUSH1 0x6 DUP3 ADD SLOAD AND SWAP2 PUSH1 0x6 DUP4 LT ISZERO PUSH2 0xDE5 JUMPI POP PUSH1 0x2 PUSH1 0x20 SWAP3 EQ SWAP1 PUSH2 0xDA0 JUMP JUMPDEST PUSH4 0x4E487B71 PUSH1 0xE0 SHL DUP2 MSTORE PUSH1 0x21 PUSH1 0x4 MSTORE PUSH1 0x24 SWAP1 REVERT JUMPDEST POP CALLVALUE PUSH2 0x27E JUMPI PUSH1 0xE0 CALLDATASIZE PUSH1 0x3 NOT ADD SLT PUSH2 0x27E JUMPI PUSH1 0x1 PUSH1 0x1 PUSH1 0x40 SHL SUB PUSH1 0x4 CALLDATALOAD DUP2 DUP2 GT PUSH2 0x824 JUMPI PUSH2 0xE2B SWAP1 CALLDATASIZE SWAP1 PUSH1 0x4 ADD PUSH2 0x237C JUMP JUMPDEST PUSH2 0xE33 PUSH2 0x23D1 JUMP JUMPDEST SWAP2 PUSH1 0x44 SWAP2 DUP3 CALLDATALOAD SWAP3 PUSH12 0xFFFFFFFFFFFFFFFFFFFFFFFF DUP5 AND DUP1 SWAP5 SUB PUSH2 0x1219 JUMPI PUSH1 0x64 SWAP3 DUP4 CALLDATALOAD SWAP2 DUP2 DUP4 AND DUP1 SWAP4 SUB PUSH2 0x1215 JUMPI PUSH1 0x84 CALLDATALOAD SWAP5 PUSH1 0xFF DUP7 AND DUP1 SWAP7 SUB PUSH2 0x1211 JUMPI PUSH2 0xE77 PUSH2 0x29FE JUMP JUMPDEST PUSH0 DUP1 MLOAD PUSH1 0x20 PUSH2 0x2D55 DUP4 CODECOPY DUP2 MLOAD SWAP2 MSTORE DUP10 MSTORE PUSH1 0x20 SWAP6 PUSH1 0x2 DUP8 MSTORE PUSH1 0x40 DUP11 KECCAK256 CALLER DUP12 MSTORE DUP8 MSTORE PUSH2 0xEA7 PUSH1 0xFF PUSH1 0x40 DUP13 KECCAK256 SLOAD AND PUSH2 0x2755 JUMP JUMPDEST PUSH2 0xEAF PUSH2 0x28EA JUMP JUMPDEST DUP7 PUSH1 0x40 MLOAD DUP8 MLOAD SWAP1 PUSH2 0xEE3 PUSH1 0xFF PUSH1 0xB DUP6 DUP13 ADD SWAP5 PUSH2 0xECC DUP2 DUP7 DUP9 PUSH2 0x25BB JUMP JUMPDEST DUP5 ADD SWAP4 DUP7 DUP2 PUSH1 0x6 SWAP7 DUP8 DUP2 MSTORE SUB ADD SWAP1 KECCAK256 ADD SLOAD AND PUSH2 0x292E JUMP JUMPDEST PUSH2 0xF1F PUSH1 0x40 MLOAD DUP11 MLOAD PUSH2 0xEF6 DUP2 DUP4 DUP8 PUSH2 0x25BB JUMP JUMPDEST DUP2 ADD DUP4 DUP2 MSTORE DUP2 SWAP1 SUB SWAP1 SWAP5 ADD SWAP1 SWAP4 KECCAK256 PUSH1 0x1 ADD SLOAD PUSH1 0x1 PUSH1 0x1 PUSH1 0xA0 SHL SUB SWAP13 DUP14 AND SWAP13 SWAP4 SWAP1 DUP5 AND DUP14 EQ PUSH2 0x2970 JUMP JUMPDEST PUSH1 0xFF DUP2 PUSH1 0x40 MLOAD DUP13 DUP2 DUP14 MLOAD PUSH2 0xF34 DUP2 DUP4 DUP11 PUSH2 0x25BB JUMP JUMPDEST DUP2 ADD DUP5 DUP2 MSTORE SUB ADD SWAP1 KECCAK256 ADD SLOAD AND DUP2 DUP2 LT ISZERO PUSH2 0x11FD JUMPI PUSH2 0xF52 SWAP1 ISZERO PUSH2 0x29BC JUMP JUMPDEST DUP9 MLOAD ISZERO PUSH2 0x11C8 JUMPI DUP11 ISZERO PUSH2 0x1194 JUMPI PUSH2 0xF76 SWAP2 DUP11 SWAP2 PUSH1 0x40 MLOAD DUP1 SWAP5 DUP2 SWAP4 DUP14 MLOAD SWAP3 DUP4 SWAP2 PUSH2 0x25BB JUMP JUMPDEST DUP3 ADD SWAP1 DUP2 MSTORE SUB ADD SWAP1 KECCAK256 SWAP6 DUP2 PUSH1 0x3 SLOAD AND PUSH1 0x40 MLOAD SWAP4 PUSH4 0x70A08231 PUSH1 0xE0 SHL DUP6 MSTORE DUP13 PUSH1 0x4 DUP7 ADD MSTORE DUP14 PUSH1 0x24 SWAP6 DUP13 DUP2 DUP9 DUP2 DUP8 GAS STATICCALL SWAP1 DUP2 ISZERO PUSH2 0x1189 JUMPI DUP15 SWAP3 SWAP2 PUSH2 0x1154 JUMPI JUMPDEST POP LT PUSH2 0x1112 JUMPI SWAP1 DUP14 SWAP2 DUP2 EXTCODESIZE ISZERO PUSH2 0x824 JUMPI DUP14 DUP4 DUP15 SWAP4 PUSH1 0xE4 SWAP4 PUSH1 0x40 MLOAD SWAP8 DUP9 SWAP7 DUP8 SWAP6 PUSH4 0xD505ACCF PUSH1 0xE0 SHL DUP8 MSTORE PUSH1 0x4 DUP8 ADD MSTORE ADDRESS DUP13 DUP8 ADD MSTORE DUP14 DUP7 ADD MSTORE DUP12 DUP6 ADD MSTORE PUSH1 0x84 DUP5 ADD MSTORE PUSH1 0xA4 CALLDATALOAD PUSH1 0xA4 DUP5 ADD MSTORE PUSH1 0xC4 CALLDATALOAD PUSH1 0xC4 DUP5 ADD MSTORE GAS CALL SWAP1 DUP2 PUSH2 0x10EB JUMPI JUMPDEST POP PUSH2 0x10E4 JUMPI DUP11 JUMPDEST ISZERO PUSH2 0x10B3 JUMPI PUSH1 0x3 SLOAD AND SWAP2 PUSH1 0x40 MLOAD SWAP4 PUSH4 0x23B872DD PUSH1 0xE0 SHL DUP10 DUP7 ADD MSTORE DUP11 DUP4 DUP7 ADD MSTORE ADDRESS SWAP1 DUP6 ADD MSTORE DUP9 DUP2 DUP6 ADD MSTORE DUP4 MSTORE PUSH1 0xA0 DUP4 ADD SWAP1 DUP4 DUP3 LT DUP6 DUP4 GT OR PUSH2 0x10A0 JUMPI POP SWAP3 PUSH2 0x1087 PUSH2 0x1091 SWAP6 SWAP4 PUSH1 0x7 SWAP4 PUSH32 0xEDDC0BE5F09CE2D9286942052F4D5A1BB2DBE8A87BF038BF0C59C60FA9CC6ACC SWAP10 SWAP9 SWAP7 PUSH1 0x40 MSTORE PUSH2 0x2A52 JUMP JUMPDEST TIMESTAMP AND SWAP2 ADD SSTORE PUSH2 0x28CA JUMP JUMPDEST SWAP3 PUSH1 0x40 MLOAD SWAP1 DUP2 MSTORE LOG3 PUSH1 0x1 DUP2 SSTORE DUP1 RETURN JUMPDEST PUSH4 0x4E487B71 PUSH1 0xE0 SHL PUSH0 SWAP1 DUP2 MSTORE PUSH1 0x41 PUSH1 0x4 MSTORE REVERT JUMPDEST POP PUSH13 0x14195C9B5A5D0819985A5B1959 PUSH1 0x9A SHL DUP4 PUSH1 0xD DUP10 SWAP4 PUSH1 0x40 MLOAD SWAP5 PUSH3 0x461BCD PUSH1 0xE5 SHL DUP7 MSTORE PUSH1 0x4 DUP7 ADD MSTORE DUP5 ADD MSTORE DUP3 ADD MSTORE REVERT JUMPDEST PUSH1 0x1 PUSH2 0x1013 JUMP JUMPDEST DUP7 DUP2 SWAP14 SWAP3 SWAP14 GT PUSH2 0x10FF JUMPI PUSH1 0x40 MSTORE SWAP11 PUSH0 PUSH2 0x100C JUMP JUMPDEST PUSH4 0x4E487B71 PUSH1 0xE0 SHL DUP3 MSTORE PUSH1 0x41 PUSH1 0x4 MSTORE DUP4 DUP3 REVERT JUMPDEST PUSH1 0x40 MLOAD PUSH3 0x461BCD PUSH1 0xE5 SHL DUP2 MSTORE PUSH1 0x4 DUP2 ADD DUP13 SWAP1 MSTORE PUSH1 0x1A DUP2 DUP8 ADD MSTORE PUSH32 0x496E73756666696369656E7420746F6B656E2062616C616E6365000000000000 DUP2 DUP10 ADD MSTORE DUP7 SWAP1 REVERT JUMPDEST DUP1 SWAP3 POP DUP14 DUP1 SWAP3 POP RETURNDATASIZE DUP4 GT PUSH2 0x1182 JUMPI JUMPDEST PUSH2 0x116D DUP2 DUP4 PUSH2 0x2347 JUMP JUMPDEST DUP2 ADD SUB SLT PUSH2 0x117E JUMPI DUP13 SWAP1 MLOAD PUSH0 PUSH2 0xFB3 JUMP JUMPDEST DUP15 DUP1 REVERT JUMPDEST POP RETURNDATASIZE PUSH2 0x1163 JUMP JUMPDEST PUSH1 0x40 MLOAD RETURNDATASIZE DUP5 DUP3 RETURNDATACOPY RETURNDATASIZE SWAP1 REVERT JUMPDEST PUSH1 0x40 MLOAD PUSH3 0x461BCD PUSH1 0xE5 SHL DUP2 MSTORE PUSH1 0x4 DUP2 ADD DUP12 SWAP1 MSTORE PUSH1 0xE PUSH1 0x24 DUP3 ADD MSTORE PUSH14 0x125B9D985B1A5908185B5BDD5B9D PUSH1 0x92 SHL DUP2 DUP9 ADD MSTORE DUP6 SWAP1 REVERT JUMPDEST PUSH1 0x40 MLOAD PUSH3 0x461BCD PUSH1 0xE5 SHL DUP2 MSTORE PUSH1 0x4 DUP2 ADD DUP12 SWAP1 MSTORE PUSH1 0xF PUSH1 0x24 DUP3 ADD MSTORE PUSH15 0x125B9D985B1A59081919585B081251 PUSH1 0x8A SHL DUP2 DUP9 ADD MSTORE DUP6 SWAP1 REVERT JUMPDEST PUSH4 0x4E487B71 PUSH1 0xE0 SHL DUP15 MSTORE PUSH1 0x21 PUSH1 0x4 MSTORE PUSH1 0x24 DUP15 REVERT JUMPDEST DUP9 DUP1 REVERT JUMPDEST DUP8 DUP1 REVERT JUMPDEST DUP6 DUP1 REVERT JUMPDEST POP CALLVALUE PUSH2 0x27E JUMPI DUP1 PUSH1 0x3 NOT CALLDATASIZE ADD SLT PUSH2 0x27E JUMPI PUSH1 0x20 PUSH1 0xFF PUSH1 0x1 SLOAD AND PUSH1 0x40 MLOAD SWAP1 ISZERO ISZERO DUP2 MSTORE RETURN JUMPDEST POP CALLVALUE PUSH2 0x27E JUMPI PUSH1 0x40 CALLDATASIZE PUSH1 0x3 NOT ADD SLT PUSH2 0x27E JUMPI PUSH2 0x125A PUSH2 0x23E7 JUMP JUMPDEST PUSH1 0x1 PUSH1 0x1 PUSH1 0xA0 SHL SUB AND DUP2 MSTORE PUSH1 0x8 PUSH1 0x20 MSTORE PUSH1 0x40 DUP2 KECCAK256 DUP1 SLOAD PUSH1 0x24 CALLDATALOAD SWAP3 SWAP1 DUP4 LT ISZERO PUSH2 0x27E JUMPI PUSH2 0x916 PUSH2 0x902 PUSH2 0x8FC DUP6 DUP6 PUSH2 0x2498 JUMP JUMPDEST POP CALLVALUE PUSH2 0x27E JUMPI PUSH2 0x129B CALLDATASIZE PUSH2 0x243E JUMP JUMPDEST PUSH0 DUP1 MLOAD PUSH1 0x20 PUSH2 0x2D55 DUP4 CODECOPY DUP2 MLOAD SWAP2 MSTORE DUP5 SWAP4 SWAP3 SWAP4 MSTORE PUSH1 0x20 PUSH1 0x2 DUP2 MSTORE PUSH1 0x40 DUP6 KECCAK256 CALLER DUP7 MSTORE DUP2 MSTORE PUSH2 0x12CD PUSH1 0xFF PUSH1 0x40 DUP8 KECCAK256 SLOAD AND PUSH2 0x2755 JUMP JUMPDEST PUSH2 0x12D5 PUSH2 0x28EA JUMP JUMPDEST PUSH1 0x40 MLOAD DUP4 MLOAD PUSH2 0x1307 PUSH1 0xFF PUSH1 0xB DUP6 DUP9 ADD SWAP4 PUSH2 0x12F0 DUP2 DUP8 DUP8 PUSH2 0x25BB JUMP JUMPDEST DUP6 ADD SWAP5 DUP7 DUP2 PUSH1 0x6 SWAP8 DUP9 DUP2 MSTORE SUB ADD SWAP1 KECCAK256 ADD SLOAD AND PUSH2 0x292E JUMP JUMPDEST PUSH2 0x133E PUSH1 0x40 MLOAD DUP7 MLOAD PUSH2 0x131A DUP2 DUP4 DUP7 PUSH2 0x25BB JUMP JUMPDEST DUP2 ADD DUP5 DUP2 MSTORE DUP2 SWAP1 SUB DUP6 ADD SWAP1 KECCAK256 PUSH1 0x2 ADD SLOAD PUSH1 0x1 PUSH1 0x1 PUSH1 0xA0 SHL SUB SWAP8 DUP9 AND SWAP8 AND DUP8 EQ PUSH2 0x2AB7 JUMP JUMPDEST PUSH1 0xFF DUP3 PUSH1 0x40 MLOAD DUP6 DUP2 DUP10 MLOAD PUSH2 0x1353 DUP2 DUP4 DUP10 PUSH2 0x25BB JUMP JUMPDEST DUP2 ADD DUP5 DUP2 MSTORE SUB ADD SWAP1 KECCAK256 ADD SLOAD AND DUP3 DUP2 LT ISZERO PUSH2 0x14E5 JUMPI PUSH2 0x1389 SWAP2 PUSH2 0x1378 PUSH1 0x1 DUP7 SWAP4 EQ PUSH2 0x29BC JUMP JUMPDEST PUSH1 0x40 MLOAD DUP1 SWAP4 DUP2 SWAP3 DUP10 MLOAD SWAP3 DUP4 SWAP2 PUSH2 0x25BB JUMP JUMPDEST DUP2 ADD DUP5 DUP2 MSTORE SUB ADD SWAP1 KECCAK256 SWAP1 PUSH1 0x4 DUP3 ADD SLOAD TIMESTAMP GT PUSH2 0x147A JUMPI DUP4 MLOAD ISZERO PUSH2 0x143E JUMPI DUP2 ADD PUSH1 0x2 PUSH1 0xFF NOT DUP3 SLOAD AND OR SWAP1 SSTORE TIMESTAMP PUSH1 0x8 DUP3 ADD SSTORE PUSH3 0x3F480 TIMESTAMP ADD SWAP1 DUP2 TIMESTAMP GT PUSH2 0x142A JUMPI SWAP2 PUSH2 0x140B DUP5 SWAP3 PUSH2 0x1404 PUSH32 0xE08CB3BD9D9B1DE1D57BAFA49F6B0DB920EDEA2D41724C78255B2C4CA2C9123F SWAP7 PUSH1 0xA DUP8 PUSH1 0x9 PUSH2 0x1420 SWAP10 ADD SWAP5 DUP6 SSTORE ADD PUSH2 0x2790 JUMP JUMPDEST SLOAD SWAP6 PUSH2 0x28CA JUMP JUMPDEST SWAP5 PUSH1 0x40 MLOAD SWAP4 DUP5 SWAP4 PUSH1 0x40 DUP6 MSTORE PUSH1 0x40 DUP6 ADD SWAP1 PUSH2 0x25DC JUMP JUMPDEST SWAP2 DUP4 ADD MSTORE SUB SWAP1 LOG3 DUP1 RETURN JUMPDEST PUSH4 0x4E487B71 PUSH1 0xE0 SHL DUP8 MSTORE PUSH1 0x11 PUSH1 0x4 MSTORE PUSH1 0x24 DUP8 REVERT JUMPDEST PUSH1 0x40 MLOAD PUSH3 0x461BCD PUSH1 0xE5 SHL DUP2 MSTORE PUSH1 0x4 DUP2 ADD DUP5 SWAP1 MSTORE PUSH1 0x14 PUSH1 0x24 DUP3 ADD MSTORE PUSH20 0x10DBDB9D195B9D08155493081C995C5D5A5C9959 PUSH1 0x62 SHL PUSH1 0x44 DUP3 ADD MSTORE PUSH1 0x64 SWAP1 REVERT JUMPDEST PUSH1 0x40 MLOAD PUSH3 0x461BCD PUSH1 0xE5 SHL DUP2 MSTORE PUSH1 0x4 DUP2 ADD DUP5 SWAP1 MSTORE PUSH1 0x37 PUSH1 0x24 DUP3 ADD MSTORE PUSH32 0x5375626D697373696F6E20646561646C696E6520686173207061737365642E20 PUSH1 0x44 DUP3 ADD MSTORE PUSH32 0x4465616C206973206175746F2D63616E63656C6C65642E000000000000000000 PUSH1 0x64 DUP3 ADD MSTORE PUSH1 0x84 SWAP1 REVERT JUMPDEST PUSH4 0x4E487B71 PUSH1 0xE0 SHL DUP9 MSTORE PUSH1 0x21 PUSH1 0x4 MSTORE PUSH1 0x24 DUP9 REVERT JUMPDEST POP CALLVALUE PUSH2 0x27E JUMPI DUP1 PUSH1 0x3 NOT CALLDATASIZE ADD SLT PUSH2 0x27E JUMPI PUSH1 0x5 SLOAD PUSH1 0x40 MLOAD PUSH1 0x1 PUSH1 0x1 PUSH1 0xA0 SHL SUB SWAP1 SWAP2 AND DUP2 MSTORE PUSH1 0x20 SWAP1 RETURN JUMPDEST POP CALLVALUE PUSH2 0x27E JUMPI DUP1 PUSH1 0x3 NOT CALLDATASIZE ADD SLT PUSH2 0x27E JUMPI PUSH1 0x20 PUSH1 0x40 MLOAD PUSH3 0x3F480 DUP2 MSTORE RETURN JUMPDEST POP CALLVALUE PUSH2 0x27E JUMPI DUP1 PUSH1 0x3 NOT CALLDATASIZE ADD SLT PUSH2 0x27E JUMPI PUSH0 DUP1 MLOAD PUSH1 0x20 PUSH2 0x2D55 DUP4 CODECOPY DUP2 MLOAD SWAP2 MSTORE DUP2 MSTORE PUSH1 0x2 PUSH1 0x20 MSTORE PUSH1 0x40 DUP2 KECCAK256 CALLER DUP3 MSTORE PUSH1 0x20 MSTORE PUSH2 0x1580 PUSH1 0xFF PUSH1 0x40 DUP4 KECCAK256 SLOAD AND PUSH2 0x2755 JUMP JUMPDEST PUSH1 0x1 SLOAD PUSH1 0xFF DUP2 AND ISZERO PUSH2 0x15C0 JUMPI PUSH1 0xFF NOT AND PUSH1 0x1 SSTORE PUSH32 0x5DB9EE0A495BF2E6FF9C91A7834C1BA4FDD244A5E8AA4E537BD38AEAE4B073AA PUSH1 0x20 PUSH1 0x40 MLOAD CALLER DUP2 MSTORE LOG1 DUP1 RETURN JUMPDEST PUSH1 0x40 MLOAD PUSH3 0x461BCD PUSH1 0xE5 SHL DUP2 MSTORE PUSH1 0x20 PUSH1 0x4 DUP3 ADD MSTORE PUSH1 0x14 PUSH1 0x24 DUP3 ADD MSTORE PUSH20 0x14185D5CD8589B194E881B9BDD081C185D5CD959 PUSH1 0x62 SHL PUSH1 0x44 DUP3 ADD MSTORE PUSH1 0x64 SWAP1 REVERT JUMPDEST POP CALLVALUE PUSH2 0x27E JUMPI PUSH1 0x20 DUP1 PUSH1 0x3 NOT CALLDATASIZE ADD SLT PUSH2 0x53F JUMPI PUSH1 0x4 CALLDATALOAD PUSH1 0x1 PUSH1 0x1 PUSH1 0x40 SHL SUB DUP2 GT PUSH2 0x824 JUMPI PUSH2 0x162E SWAP1 CALLDATASIZE SWAP1 PUSH1 0x4 ADD PUSH2 0x237C JUMP JUMPDEST SWAP1 PUSH2 0x1637 PUSH2 0x29FE JUMP JUMPDEST PUSH2 0x163F PUSH2 0x28EA JUMP JUMPDEST PUSH1 0x40 MLOAD PUSH2 0x166F PUSH1 0xFF PUSH1 0xB DUP6 MLOAD SWAP4 DUP6 DUP2 DUP2 DUP10 ADD SWAP7 PUSH2 0x165D DUP2 DUP4 DUP11 PUSH2 0x25BB JUMP JUMPDEST DUP2 ADD PUSH1 0x6 DUP2 MSTORE SUB ADD SWAP1 KECCAK256 ADD SLOAD AND PUSH2 0x292E JUMP JUMPDEST PUSH1 0xFF PUSH1 0x6 PUSH1 0x40 MLOAD DUP5 DUP2 DUP8 MLOAD PUSH2 0x1685 DUP2 DUP4 DUP10 PUSH2 0x25BB JUMP JUMPDEST DUP2 ADD DUP5 DUP2 MSTORE SUB ADD SWAP1 KECCAK256 ADD SLOAD AND PUSH1 0x6 DUP2 LT ISZERO PUSH2 0x1725 JUMPI DUP3 PUSH1 0x9 SWAP3 PUSH2 0x16AD PUSH1 0x2 PUSH2 0x16BE SWAP5 EQ PUSH2 0x29BC JUMP JUMPDEST PUSH1 0x40 MLOAD DUP1 SWAP4 DUP2 SWAP3 DUP9 MLOAD SWAP3 DUP4 SWAP2 PUSH2 0x25BB JUMP JUMPDEST DUP2 ADD PUSH1 0x6 DUP2 MSTORE SUB ADD SWAP1 KECCAK256 ADD SLOAD TIMESTAMP LT PUSH2 0x16E1 JUMPI POP PUSH2 0x16DA SWAP1 PUSH2 0x2B36 JUMP JUMPDEST PUSH1 0x1 DUP2 SSTORE DUP1 RETURN JUMPDEST PUSH1 0x64 SWAP1 PUSH1 0x40 MLOAD SWAP1 PUSH3 0x461BCD PUSH1 0xE5 SHL DUP3 MSTORE PUSH1 0x4 DUP3 ADD MSTORE PUSH1 0x17 PUSH1 0x24 DUP3 ADD MSTORE PUSH32 0x52657669657720706572696F64206E6F7420656E646564000000000000000000 PUSH1 0x44 DUP3 ADD MSTORE REVERT JUMPDEST PUSH4 0x4E487B71 PUSH1 0xE0 SHL DUP6 MSTORE PUSH1 0x21 PUSH1 0x4 MSTORE PUSH1 0x24 DUP6 REVERT JUMPDEST POP CALLVALUE PUSH2 0x27E JUMPI PUSH1 0x40 CALLDATASIZE PUSH1 0x3 NOT ADD SLT PUSH2 0x27E JUMPI PUSH2 0x1753 PUSH2 0x23D1 JUMP JUMPDEST CALLER PUSH1 0x1 PUSH1 0x1 PUSH1 0xA0 SHL SUB DUP3 AND SUB PUSH2 0x176F JUMPI PUSH2 0x8AC SWAP1 PUSH1 0x4 CALLDATALOAD PUSH2 0x26E0 JUMP JUMPDEST PUSH1 0x40 MLOAD PUSH4 0x334BD919 PUSH1 0xE1 SHL DUP2 MSTORE PUSH1 0x4 SWAP1 REVERT JUMPDEST POP CALLVALUE PUSH2 0x27E JUMPI PUSH1 0x40 CALLDATASIZE PUSH1 0x3 NOT ADD SLT PUSH2 0x27E JUMPI PUSH2 0x8AC PUSH1 0x4 CALLDATALOAD PUSH2 0x17A1 PUSH2 0x23D1 JUMP JUMPDEST SWAP1 DUP1 DUP5 MSTORE PUSH1 0x2 PUSH1 0x20 MSTORE PUSH2 0x17BA PUSH1 0x1 PUSH1 0x40 DUP7 KECCAK256 ADD SLOAD PUSH2 0x2622 JUMP JUMPDEST PUSH2 0x2662 JUMP JUMPDEST POP CALLVALUE PUSH2 0x27E JUMPI PUSH2 0x17CE CALLDATASIZE PUSH2 0x23FD JUMP JUMPDEST SWAP2 SWAP1 PUSH2 0x17D8 PUSH2 0x29FE JUMP JUMPDEST PUSH0 DUP1 MLOAD PUSH1 0x20 PUSH2 0x2D55 DUP4 CODECOPY DUP2 MLOAD SWAP2 MSTORE DUP3 MSTORE PUSH1 0xFF PUSH1 0x6 PUSH2 0x187A PUSH1 0x20 PUSH1 0x2 DUP2 MSTORE PUSH1 0x40 DUP7 KECCAK256 CALLER DUP8 MSTORE DUP2 MSTORE PUSH2 0x180D DUP5 PUSH1 0x40 DUP9 KECCAK256 SLOAD AND PUSH2 0x2755 JUMP JUMPDEST PUSH2 0x1815 PUSH2 0x28EA JUMP JUMPDEST PUSH1 0x40 MLOAD PUSH2 0x1843 DUP6 PUSH1 0xB DUP9 MLOAD SWAP4 DUP6 DUP2 DUP2 DUP13 ADD SWAP7 PUSH2 0x1832 DUP2 DUP4 DUP11 PUSH2 0x25BB JUMP JUMPDEST DUP2 ADD DUP11 DUP2 MSTORE SUB ADD SWAP1 KECCAK256 ADD SLOAD AND PUSH2 0x292E JUMP JUMPDEST PUSH2 0x16AD PUSH1 0x40 MLOAD DUP8 MLOAD PUSH2 0x1856 DUP2 DUP4 DUP7 PUSH2 0x25BB JUMP JUMPDEST DUP2 ADD DUP7 DUP2 MSTORE DUP2 SWAP1 SUB DUP5 ADD SWAP1 KECCAK256 PUSH1 0x1 ADD SLOAD PUSH1 0x1 PUSH1 0x1 PUSH1 0xA0 SHL SUB SWAP10 DUP11 AND SWAP10 AND DUP10 EQ PUSH2 0x2970 JUMP JUMPDEST DUP2 ADD DUP5 DUP2 MSTORE SUB ADD SWAP1 KECCAK256 ADD SLOAD AND SWAP3 PUSH1 0x6 DUP5 LT ISZERO PUSH2 0x18D1 JUMPI PUSH2 0x18A0 PUSH1 0x2 PUSH2 0x16DA SWAP5 SWAP6 EQ PUSH2 0x29BC JUMP JUMPDEST PUSH2 0x18A9 DUP3 PUSH2 0x28CA JUMP JUMPDEST PUSH31 0xCAEC7345D2EB04A42197AC2A2CD7CD74A00B2991B69BB53E23465D4092FDFB DUP6 DUP1 LOG3 PUSH2 0x2B36 JUMP JUMPDEST PUSH4 0x4E487B71 PUSH1 0xE0 SHL DUP4 MSTORE PUSH1 0x21 PUSH1 0x4 MSTORE PUSH1 0x24 DUP4 REVERT JUMPDEST POP CALLVALUE PUSH2 0x27E JUMPI PUSH1 0x20 CALLDATASIZE PUSH1 0x3 NOT ADD SLT PUSH2 0x27E JUMPI PUSH1 0x1 PUSH1 0x40 PUSH1 0x20 SWAP3 PUSH1 0x4 CALLDATALOAD DUP2 MSTORE PUSH1 0x2 DUP5 MSTORE KECCAK256 ADD SLOAD PUSH1 0x40 MLOAD SWAP1 DUP2 MSTORE RETURN JUMPDEST POP CALLVALUE PUSH2 0x27E JUMPI DUP1 PUSH1 0x3 NOT CALLDATASIZE ADD SLT PUSH2 0x27E JUMPI PUSH1 0x20 PUSH1 0x4 SLOAD PUSH1 0x40 MLOAD SWAP1 DUP2 MSTORE RETURN JUMPDEST POP CALLVALUE PUSH2 0x27E JUMPI PUSH1 0x20 DUP1 PUSH1 0x3 NOT CALLDATASIZE ADD SLT PUSH2 0x53F JUMPI PUSH1 0x4 CALLDATALOAD PUSH1 0x1 PUSH1 0x1 PUSH1 0x40 SHL SUB DUP2 GT PUSH2 0x824 JUMPI PUSH2 0x1962 SWAP1 CALLDATASIZE SWAP1 PUSH1 0x4 ADD PUSH2 0x237C JUMP JUMPDEST PUSH2 0x196A PUSH2 0x29FE JUMP JUMPDEST PUSH0 DUP1 MLOAD PUSH1 0x20 PUSH2 0x2D55 DUP4 CODECOPY DUP2 MLOAD SWAP2 MSTORE DUP4 MSTORE PUSH1 0x2 DUP3 MSTORE PUSH1 0x40 DUP4 KECCAK256 CALLER DUP5 MSTORE DUP3 MSTORE PUSH2 0x1997 PUSH1 0xFF PUSH1 0x40 DUP6 KECCAK256 SLOAD AND PUSH2 0x2755 JUMP JUMPDEST PUSH2 0x19B9 DUP3 PUSH1 0x40 MLOAD PUSH2 0x739 PUSH1 0xFF PUSH1 0xB DUP7 MLOAD SWAP4 DUP6 DUP2 DUP2 DUP11 ADD SWAP7 PUSH2 0x165D DUP2 DUP4 DUP11 PUSH2 0x25BB JUMP JUMPDEST DUP2 ADD PUSH1 0x6 DUP2 MSTORE SUB ADD SWAP1 KECCAK256 PUSH1 0x6 DUP2 ADD SWAP1 DUP2 SLOAD SWAP2 PUSH1 0xFF DUP4 AND PUSH1 0x6 DUP2 LT ISZERO PUSH2 0x1A94 JUMPI PUSH1 0x1 DUP2 EQ SWAP1 DUP2 ISZERO PUSH2 0x1A89 JUMPI JUMPDEST POP ISZERO PUSH2 0x1A44 JUMPI SWAP3 PUSH2 0x1A3F PUSH32 0x19A500C76AFE03A03914754F26A2766147BDCB90320371467B02AE014C0F10CB SWAP4 DUP4 PUSH1 0x5 SWAP8 SWAP7 PUSH1 0x3 PUSH2 0x7BA SWAP7 ADD SLOAD SWAP9 DUP10 SWAP4 PUSH1 0xFF NOT AND OR SWAP1 SSTORE PUSH1 0x1 DUP1 PUSH1 0xA0 SHL SUB PUSH1 0x1 DUP2 PUSH1 0x3 SLOAD AND SWAP3 ADD SLOAD AND SWAP1 PUSH2 0x2BF9 JUMP JUMPDEST PUSH2 0x28CA JUMP JUMPDEST PUSH1 0x40 MLOAD PUSH3 0x461BCD PUSH1 0xE5 SHL DUP2 MSTORE PUSH1 0x4 DUP2 ADD DUP7 SWAP1 MSTORE PUSH1 0x17 PUSH1 0x24 DUP3 ADD MSTORE PUSH32 0x43616E6E6F742063616E63656C2074686973206465616C000000000000000000 PUSH1 0x44 DUP3 ADD MSTORE PUSH1 0x64 SWAP1 REVERT JUMPDEST PUSH1 0x2 SWAP2 POP EQ PUSH0 PUSH2 0x19E4 JUMP JUMPDEST PUSH4 0x4E487B71 PUSH1 0xE0 SHL DUP8 MSTORE PUSH1 0x21 PUSH1 0x4 MSTORE PUSH1 0x24 DUP8 REVERT JUMPDEST POP CALLVALUE PUSH2 0x27E JUMPI DUP1 PUSH1 0x3 NOT CALLDATASIZE ADD SLT PUSH2 0x27E JUMPI PUSH1 0x20 PUSH1 0x40 MLOAD PUSH0 DUP1 MLOAD PUSH1 0x20 PUSH2 0x2D55 DUP4 CODECOPY DUP2 MLOAD SWAP2 MSTORE DUP2 MSTORE RETURN JUMPDEST POP CALLVALUE PUSH2 0x27E JUMPI PUSH2 0x1ADF CALLDATASIZE PUSH2 0x243E JUMP JUMPDEST PUSH0 DUP1 MLOAD PUSH1 0x20 PUSH2 0x2D55 DUP4 CODECOPY DUP2 MLOAD SWAP2 MSTORE DUP5 SWAP4 SWAP3 SWAP4 MSTORE PUSH1 0x20 SWAP2 PUSH1 0x2 DUP4 MSTORE PUSH1 0x40 DUP6 KECCAK256 CALLER DUP7 MSTORE DUP4 MSTORE PUSH2 0x1B12 PUSH1 0xFF PUSH1 0x40 DUP8 KECCAK256 SLOAD AND PUSH2 0x2755 JUMP JUMPDEST PUSH2 0x1B1A PUSH2 0x28EA JUMP JUMPDEST PUSH1 0x40 MLOAD DUP2 MLOAD PUSH2 0x1B4C PUSH1 0xFF PUSH1 0xB DUP8 DUP7 ADD SWAP4 PUSH2 0x1B35 DUP2 DUP8 DUP8 PUSH2 0x25BB JUMP JUMPDEST DUP6 ADD SWAP5 DUP9 DUP2 PUSH1 0x6 SWAP8 DUP9 DUP2 MSTORE SUB ADD SWAP1 KECCAK256 ADD SLOAD AND PUSH2 0x292E JUMP JUMPDEST PUSH2 0x1B83 PUSH1 0x40 MLOAD DUP5 MLOAD PUSH2 0x1B5F DUP2 DUP4 DUP7 PUSH2 0x25BB JUMP JUMPDEST DUP2 ADD DUP5 DUP2 MSTORE DUP2 SWAP1 SUB DUP8 ADD SWAP1 KECCAK256 PUSH1 0x1 ADD SLOAD PUSH1 0x1 PUSH1 0x1 PUSH1 0xA0 SHL SUB SWAP8 DUP9 AND SWAP8 AND DUP8 EQ PUSH2 0x2970 JUMP JUMPDEST PUSH1 0xFF DUP3 PUSH1 0x40 MLOAD DUP8 DUP2 DUP8 MLOAD PUSH2 0x1B98 DUP2 DUP4 DUP10 PUSH2 0x25BB JUMP JUMPDEST DUP2 ADD DUP5 DUP2 MSTORE SUB ADD SWAP1 KECCAK256 ADD SLOAD AND DUP3 DUP2 LT ISZERO PUSH2 0x14E5 JUMPI PUSH2 0x1BCE SWAP2 PUSH2 0x1BBD PUSH1 0x2 DUP9 SWAP4 EQ PUSH2 0x29BC JUMP JUMPDEST PUSH1 0x40 MLOAD DUP1 SWAP4 DUP2 SWAP3 DUP8 MLOAD SWAP3 DUP4 SWAP2 PUSH2 0x25BB JUMP JUMPDEST DUP2 ADD DUP5 DUP2 MSTORE SUB ADD SWAP1 KECCAK256 PUSH1 0x9 DUP2 ADD SLOAD TIMESTAMP LT ISZERO PUSH2 0x1C74 JUMPI DUP4 MLOAD ISZERO PUSH2 0x1C3D JUMPI ADD DUP1 SLOAD PUSH1 0xFF NOT AND PUSH1 0x3 OR SWAP1 SSTORE PUSH32 0xDE7B01BEF0884582CE204F7F920E57F99DD569F93867450872F436BE5A03C755 SWAP2 SWAP1 PUSH2 0x1C22 SWAP1 PUSH2 0x28CA JUMP JUMPDEST SWAP3 PUSH2 0x1C37 PUSH1 0x40 MLOAD SWAP3 DUP3 DUP5 SWAP4 DUP5 MSTORE DUP4 ADD SWAP1 PUSH2 0x25DC JUMP JUMPDEST SUB SWAP1 LOG3 DUP1 RETURN JUMPDEST PUSH1 0x40 MLOAD PUSH3 0x461BCD PUSH1 0xE5 SHL DUP2 MSTORE PUSH1 0x4 DUP2 ADD DUP7 SWAP1 MSTORE PUSH1 0xF PUSH1 0x24 DUP3 ADD MSTORE PUSH15 0x1499585CDBDB881C995C5D5A5C9959 PUSH1 0x8A SHL PUSH1 0x44 DUP3 ADD MSTORE PUSH1 0x64 SWAP1 REVERT JUMPDEST PUSH1 0x40 MLOAD PUSH3 0x461BCD PUSH1 0xE5 SHL DUP2 MSTORE PUSH1 0x4 DUP2 ADD DUP7 SWAP1 MSTORE PUSH1 0x13 PUSH1 0x24 DUP3 ADD MSTORE PUSH19 0x14995D9A595DC81C195C9A5BD908195B991959 PUSH1 0x6A SHL PUSH1 0x44 DUP3 ADD MSTORE PUSH1 0x64 SWAP1 REVERT JUMPDEST POP CALLVALUE PUSH2 0x27E JUMPI PUSH2 0x1CBE CALLDATASIZE PUSH2 0x23FD JUMP JUMPDEST SWAP1 PUSH0 DUP1 MLOAD PUSH1 0x20 PUSH2 0x2D55 DUP4 CODECOPY DUP2 MLOAD SWAP2 MSTORE DUP4 MSTORE PUSH1 0x20 SWAP1 PUSH1 0x2 DUP3 MSTORE PUSH1 0x40 DUP5 KECCAK256 CALLER DUP6 MSTORE DUP3 MSTORE PUSH2 0x1CEF PUSH1 0xFF PUSH1 0x40 DUP7 KECCAK256 SLOAD AND PUSH2 0x2755 JUMP JUMPDEST PUSH1 0x40 MLOAD DUP2 MLOAD PUSH2 0x1D21 PUSH1 0xFF PUSH1 0xB DUP7 DUP7 ADD SWAP4 PUSH2 0x1D0A DUP2 DUP8 DUP8 PUSH2 0x25BB JUMP JUMPDEST DUP6 ADD SWAP5 DUP8 DUP2 PUSH1 0x6 SWAP8 DUP9 DUP2 MSTORE SUB ADD SWAP1 KECCAK256 ADD SLOAD AND PUSH2 0x292E JUMP JUMPDEST PUSH2 0x1D58 PUSH1 0x40 MLOAD DUP5 MLOAD PUSH2 0x1D34 DUP2 DUP4 DUP7 PUSH2 0x25BB JUMP JUMPDEST DUP2 ADD DUP5 DUP2 MSTORE DUP2 SWAP1 SUB DUP7 ADD SWAP1 KECCAK256 PUSH1 0x1 ADD SLOAD PUSH1 0x1 PUSH1 0x1 PUSH1 0xA0 SHL SUB SWAP7 DUP8 AND SWAP7 AND DUP7 EQ PUSH2 0x2970 JUMP JUMPDEST PUSH1 0xFF DUP3 PUSH1 0x40 MLOAD DUP7 DUP2 DUP8 MLOAD PUSH2 0x1D6D DUP2 DUP4 DUP10 PUSH2 0x25BB JUMP JUMPDEST DUP2 ADD DUP5 DUP2 MSTORE SUB ADD SWAP1 KECCAK256 ADD SLOAD AND DUP3 DUP2 LT ISZERO PUSH2 0x1A94 JUMPI SWAP2 PUSH2 0x1DB6 DUP6 PUSH32 0x19A500C76AFE03A03914754F26A2766147BDCB90320371467B02AE014C0F10CB SWAP6 SWAP4 PUSH2 0x1BBD PUSH2 0x1DD0 SWAP7 ISZERO PUSH2 0x29BC JUMP JUMPDEST DUP2 ADD DUP5 DUP2 MSTORE SUB ADD SWAP1 KECCAK256 ADD DUP1 SLOAD PUSH1 0xFF NOT AND PUSH1 0x5 OR SWAP1 SSTORE PUSH2 0x28CA JUMP JUMPDEST SWAP2 PUSH1 0x40 MLOAD DUP6 DUP2 MSTORE LOG3 DUP1 RETURN JUMPDEST POP CALLVALUE PUSH2 0x27E JUMPI PUSH1 0xC0 CALLDATASIZE PUSH1 0x3 NOT ADD SLT PUSH2 0x27E JUMPI PUSH1 0x1 PUSH1 0x1 PUSH1 0x40 SHL SUB PUSH1 0x4 CALLDATALOAD DUP2 DUP2 GT PUSH2 0x824 JUMPI PUSH2 0x1E0D SWAP1 CALLDATASIZE SWAP1 PUSH1 0x4 ADD PUSH2 0x237C JUMP JUMPDEST SWAP1 PUSH2 0x1E16 PUSH2 0x23D1 JUMP JUMPDEST SWAP2 PUSH1 0x44 DUP1 CALLDATALOAD SWAP3 PUSH1 0x1 PUSH1 0x1 PUSH1 0xA0 SHL SUB DUP5 AND DUP5 SUB PUSH2 0x1219 JUMPI PUSH1 0xA4 CALLDATALOAD DUP2 DUP2 GT PUSH2 0x22EE JUMPI PUSH2 0x1E44 SWAP1 CALLDATASIZE SWAP1 PUSH1 0x4 ADD PUSH2 0x237C JUMP JUMPDEST SWAP2 PUSH0 DUP1 MLOAD PUSH1 0x20 PUSH2 0x2D55 DUP4 CODECOPY DUP2 MLOAD SWAP2 MSTORE DUP8 MSTORE PUSH1 0x2 PUSH1 0x20 MSTORE PUSH1 0x40 DUP8 KECCAK256 CALLER DUP9 MSTORE PUSH1 0x20 MSTORE PUSH2 0x1E74 PUSH1 0xFF PUSH1 0x40 DUP10 KECCAK256 SLOAD AND PUSH2 0x2755 JUMP JUMPDEST PUSH2 0x1E7C PUSH2 0x28EA JUMP JUMPDEST PUSH1 0xFF PUSH1 0xB PUSH1 0x40 MLOAD PUSH1 0x20 DUP2 DUP9 MLOAD PUSH2 0x1E95 DUP2 DUP4 DUP6 DUP14 ADD PUSH2 0x25BB JUMP JUMPDEST DUP2 ADD PUSH1 0x6 DUP2 MSTORE SUB ADD SWAP1 KECCAK256 ADD SLOAD AND PUSH2 0x22B1 JUMPI PUSH1 0x1 PUSH1 0x1 PUSH1 0xA0 SHL SUB DUP6 AND ISZERO PUSH2 0x226D JUMPI PUSH1 0x1 PUSH1 0x1 PUSH1 0xA0 SHL SUB DUP7 AND ISZERO PUSH2 0x2231 JUMPI PUSH1 0x1 PUSH1 0x1 PUSH1 0xA0 SHL SUB DUP7 DUP2 AND SWAP1 DUP7 AND EQ PUSH2 0x21ED JUMPI PUSH1 0x64 CALLDATALOAD ISZERO PUSH2 0x21A9 JUMPI TIMESTAMP PUSH1 0x84 CALLDATALOAD GT ISZERO PUSH2 0x2165 JUMPI DUP3 MLOAD ISZERO PUSH2 0x212B JUMPI POP PUSH1 0x40 MLOAD SWAP2 PUSH2 0x180 DUP4 ADD DUP4 DUP2 LT DUP4 DUP3 GT OR PUSH2 0x2117 JUMPI PUSH1 0x40 MSTORE DUP4 DUP4 MSTORE PUSH1 0x1 DUP1 PUSH1 0xA0 SHL SUB DUP7 AND PUSH1 0x20 DUP5 ADD MSTORE PUSH1 0x1 DUP1 PUSH1 0xA0 SHL SUB DUP6 AND PUSH1 0x40 DUP5 ADD MSTORE PUSH1 0x64 CALLDATALOAD PUSH1 0x60 DUP5 ADD MSTORE PUSH1 0x84 CALLDATALOAD PUSH1 0x80 DUP5 ADD MSTORE PUSH1 0xA0 DUP4 ADD MSTORE DUP6 PUSH1 0xC0 DUP4 ADD MSTORE DUP6 PUSH1 0xE0 DUP4 ADD MSTORE DUP6 PUSH2 0x100 DUP4 ADD MSTORE DUP6 PUSH2 0x120 DUP4 ADD MSTORE PUSH1 0x40 MLOAD SWAP1 DUP2 PUSH1 0x20 DUP2 ADD LT SWAP1 PUSH1 0x20 DUP4 ADD GT OR PUSH2 0x2103 JUMPI PUSH1 0x20 DUP2 ADD PUSH1 0x40 MSTORE DUP6 DUP2 MSTORE PUSH2 0x140 DUP3 ADD MSTORE PUSH1 0x1 PUSH2 0x160 DUP3 ADD MSTORE PUSH1 0x40 MLOAD PUSH1 0x20 DUP2 DUP5 MLOAD PUSH2 0x1F98 DUP2 DUP4 DUP6 DUP10 ADD PUSH2 0x25BB JUMP JUMPDEST DUP2 ADD PUSH1 0x6 DUP2 MSTORE SUB ADD SWAP1 KECCAK256 PUSH2 0x1FAD DUP3 MLOAD DUP3 PUSH2 0x2790 JUMP JUMPDEST PUSH1 0x20 DUP3 ADD MLOAD PUSH1 0x1 DUP3 ADD DUP1 SLOAD PUSH1 0x1 PUSH1 0x1 PUSH1 0xA0 SHL SUB SWAP3 DUP4 AND PUSH1 0x1 PUSH1 0x1 PUSH1 0xA0 SHL SUB NOT SWAP2 DUP3 AND OR SWAP1 SWAP2 SSTORE PUSH1 0x40 DUP5 ADD MLOAD PUSH1 0x2 DUP5 ADD DUP1 SLOAD SWAP2 SWAP1 SWAP4 AND SWAP2 AND OR SWAP1 SSTORE PUSH1 0x60 DUP3 ADD MLOAD PUSH1 0x3 DUP3 ADD SSTORE PUSH1 0x80 DUP3 ADD MLOAD PUSH1 0x4 DUP3 ADD SSTORE PUSH1 0xA0 DUP3 ADD MLOAD PUSH2 0x200D SWAP1 PUSH1 0x5 DUP4 ADD PUSH2 0x2790 JUMP JUMPDEST PUSH1 0x6 DUP2 ADD SWAP1 PUSH1 0xC0 DUP4 ADD MLOAD SWAP2 PUSH1 0x6 DUP4 LT ISZERO PUSH2 0x14E5 JUMPI PUSH2 0x160 PUSH1 0xB PUSH2 0x20BB SWAP7 SWAP6 SWAP5 SWAP4 PUSH1 0xFF SWAP4 DUP5 NOT SWAP6 DUP6 DUP8 DUP4 SLOAD AND SWAP2 AND OR SWAP1 SSTORE PUSH1 0xE0 DUP7 ADD MLOAD PUSH1 0x7 DUP3 ADD SSTORE PUSH2 0x100 DUP7 ADD MLOAD PUSH1 0x8 DUP3 ADD SSTORE PUSH2 0x120 DUP7 ADD MLOAD PUSH1 0x9 DUP3 ADD SSTORE PUSH2 0x206F PUSH2 0x140 DUP8 ADD MLOAD PUSH1 0xA DUP4 ADD PUSH2 0x2790 JUMP JUMPDEST ADD SWAP4 ADD MLOAD ISZERO ISZERO SWAP2 DUP4 SLOAD AND SWAP2 AND OR SWAP1 SSTORE PUSH1 0x1 DUP1 PUSH1 0xA0 SHL SUB DUP5 AND DUP6 MSTORE PUSH1 0x7 PUSH1 0x20 MSTORE PUSH2 0x209B DUP2 PUSH1 0x40 DUP8 KECCAK256 PUSH2 0x2898 JUMP JUMPDEST PUSH1 0x1 PUSH1 0x1 PUSH1 0xA0 SHL SUB DUP4 AND DUP6 MSTORE PUSH1 0x8 PUSH1 0x20 MSTORE PUSH1 0x40 DUP6 KECCAK256 PUSH2 0x1A3F SWAP1 DUP3 SWAP1 PUSH2 0x2898 JUMP JUMPDEST PUSH1 0x40 DUP1 MLOAD PUSH1 0x64 CALLDATALOAD DUP2 MSTORE PUSH1 0x84 CALLDATALOAD PUSH1 0x20 DUP3 ADD MSTORE PUSH1 0x1 PUSH1 0x1 PUSH1 0xA0 SHL SUB SWAP4 DUP5 AND SWAP5 SWAP1 SWAP4 AND SWAP3 PUSH32 0x4DFA2D4E433A4E1FE0AA3A98EEF56517737C0EF61B1476CAA443106551D802EE SWAP2 SWAP1 LOG4 DUP1 RETURN JUMPDEST PUSH4 0x4E487B71 PUSH1 0xE0 SHL DUP7 MSTORE PUSH1 0x41 PUSH1 0x4 MSTORE PUSH1 0x24 DUP7 REVERT JUMPDEST PUSH4 0x4E487B71 PUSH1 0xE0 SHL DUP9 MSTORE PUSH1 0x41 PUSH1 0x4 MSTORE PUSH1 0x24 DUP9 REVERT JUMPDEST PUSH1 0x64 SWAP1 PUSH19 0x109C9A5959881A185CDA081C995C5D5A5C9959 PUSH1 0x6A SHL PUSH1 0x40 MLOAD SWAP2 PUSH3 0x461BCD PUSH1 0xE5 SHL DUP4 MSTORE PUSH1 0x20 PUSH1 0x4 DUP5 ADD MSTORE PUSH1 0x13 PUSH1 0x24 DUP5 ADD MSTORE DUP3 ADD MSTORE REVERT JUMPDEST PUSH1 0x64 SWAP1 PUSH32 0x446561646C696E65206D75737420626520696E20667574757265000000000000 PUSH1 0x40 MLOAD SWAP2 PUSH3 0x461BCD PUSH1 0xE5 SHL DUP4 MSTORE PUSH1 0x20 PUSH1 0x4 DUP5 ADD MSTORE PUSH1 0x1A PUSH1 0x24 DUP5 ADD MSTORE DUP3 ADD MSTORE REVERT JUMPDEST PUSH1 0x64 SWAP1 PUSH32 0x416D6F756E74206D7573742062652067726561746572207468616E2030000000 PUSH1 0x40 MLOAD SWAP2 PUSH3 0x461BCD PUSH1 0xE5 SHL DUP4 MSTORE PUSH1 0x20 PUSH1 0x4 DUP5 ADD MSTORE PUSH1 0x1D PUSH1 0x24 DUP5 ADD MSTORE DUP3 ADD MSTORE REVERT JUMPDEST PUSH1 0x64 SWAP1 PUSH32 0x43726561746F722063616E6E6F74206265206272616E64000000000000000000 PUSH1 0x40 MLOAD SWAP2 PUSH3 0x461BCD PUSH1 0xE5 SHL DUP4 MSTORE PUSH1 0x20 PUSH1 0x4 DUP5 ADD MSTORE PUSH1 0x17 PUSH1 0x24 DUP5 ADD MSTORE DUP3 ADD MSTORE REVERT JUMPDEST PUSH1 0x64 SWAP1 PUSH21 0x496E76616C6964206272616E642061646472657373 PUSH1 0x58 SHL PUSH1 0x40 MLOAD SWAP2 PUSH3 0x461BCD PUSH1 0xE5 SHL DUP4 MSTORE PUSH1 0x20 PUSH1 0x4 DUP5 ADD MSTORE PUSH1 0x15 PUSH1 0x24 DUP5 ADD MSTORE DUP3 ADD MSTORE REVERT JUMPDEST PUSH1 0x64 SWAP1 PUSH32 0x496E76616C69642063726561746F722061646472657373000000000000000000 PUSH1 0x40 MLOAD SWAP2 PUSH3 0x461BCD PUSH1 0xE5 SHL DUP4 MSTORE PUSH1 0x20 PUSH1 0x4 DUP5 ADD MSTORE PUSH1 0x17 PUSH1 0x24 DUP5 ADD MSTORE DUP3 ADD MSTORE REVERT JUMPDEST PUSH1 0x64 SWAP1 PUSH22 0x4465616C20494420616C726561647920657869737473 PUSH1 0x50 SHL PUSH1 0x40 MLOAD SWAP2 PUSH3 0x461BCD PUSH1 0xE5 SHL DUP4 MSTORE PUSH1 0x20 PUSH1 0x4 DUP5 ADD MSTORE PUSH1 0x16 PUSH1 0x24 DUP5 ADD MSTORE DUP3 ADD MSTORE REVERT JUMPDEST DUP7 DUP1 REVERT JUMPDEST SWAP1 POP CALLVALUE PUSH2 0x53F JUMPI PUSH1 0x20 CALLDATASIZE PUSH1 0x3 NOT ADD SLT PUSH2 0x53F JUMPI PUSH1 0x4 CALLDATALOAD PUSH4 0xFFFFFFFF PUSH1 0xE0 SHL DUP2 AND DUP1 SWAP2 SUB PUSH2 0x824 JUMPI PUSH1 0x20 SWAP3 POP PUSH4 0x7965DB0B PUSH1 0xE0 SHL DUP2 EQ SWAP1 DUP2 ISZERO PUSH2 0x2336 JUMPI JUMPDEST POP ISZERO ISZERO DUP2 MSTORE RETURN JUMPDEST PUSH4 0x1FFC9A7 PUSH1 0xE0 SHL EQ SWAP1 POP PUSH0 PUSH2 0x232F JUMP JUMPDEST SWAP1 PUSH1 0x1F DUP1 NOT SWAP2 ADD AND DUP2 ADD SWAP1 DUP2 LT PUSH1 0x1 PUSH1 0x1 PUSH1 0x40 SHL SUB DUP3 GT OR PUSH2 0x2368 JUMPI PUSH1 0x40 MSTORE JUMP JUMPDEST PUSH4 0x4E487B71 PUSH1 0xE0 SHL PUSH0 MSTORE PUSH1 0x41 PUSH1 0x4 MSTORE PUSH1 0x24 PUSH0 REVERT JUMPDEST DUP2 PUSH1 0x1F DUP3 ADD SLT ISZERO PUSH2 0x53B JUMPI DUP1 CALLDATALOAD SWAP1 PUSH1 0x1 PUSH1 0x1 PUSH1 0x40 SHL SUB DUP3 GT PUSH2 0x2368 JUMPI PUSH1 0x40 MLOAD SWAP3 PUSH2 0x23B0 PUSH1 0x1F DUP5 ADD PUSH1 0x1F NOT AND PUSH1 0x20 ADD DUP6 PUSH2 0x2347 JUMP JUMPDEST DUP3 DUP5 MSTORE PUSH1 0x20 DUP4 DUP4 ADD ADD GT PUSH2 0x53B JUMPI DUP2 PUSH0 SWAP3 PUSH1 0x20 DUP1 SWAP4 ADD DUP4 DUP7 ADD CALLDATACOPY DUP4 ADD ADD MSTORE SWAP1 JUMP JUMPDEST PUSH1 0x24 CALLDATALOAD SWAP1 PUSH1 0x1 PUSH1 0x1 PUSH1 0xA0 SHL SUB DUP3 AND DUP3 SUB PUSH2 0x53B JUMPI JUMP JUMPDEST PUSH1 0x4 CALLDATALOAD SWAP1 PUSH1 0x1 PUSH1 0x1 PUSH1 0xA0 SHL SUB DUP3 AND DUP3 SUB PUSH2 0x53B JUMPI JUMP JUMPDEST PUSH1 0x40 PUSH1 0x3 NOT DUP3 ADD SLT PUSH2 0x53B JUMPI PUSH1 0x4 CALLDATALOAD SWAP1 PUSH1 0x1 PUSH1 0x1 PUSH1 0x40 SHL SUB DUP3 GT PUSH2 0x53B JUMPI PUSH2 0x2427 SWAP2 PUSH1 0x4 ADD PUSH2 0x237C JUMP JUMPDEST SWAP1 PUSH1 0x24 CALLDATALOAD PUSH1 0x1 PUSH1 0x1 PUSH1 0xA0 SHL SUB DUP2 AND DUP2 SUB PUSH2 0x53B JUMPI SWAP1 JUMP JUMPDEST PUSH1 0x60 PUSH1 0x3 NOT DUP3 ADD SLT PUSH2 0x53B JUMPI PUSH1 0x1 PUSH1 0x1 PUSH1 0x40 SHL SUB SWAP2 PUSH1 0x4 CALLDATALOAD DUP4 DUP2 GT PUSH2 0x53B JUMPI DUP3 PUSH2 0x246A SWAP2 PUSH1 0x4 ADD PUSH2 0x237C JUMP JUMPDEST SWAP3 PUSH1 0x24 CALLDATALOAD PUSH1 0x1 PUSH1 0x1 PUSH1 0xA0 SHL SUB DUP2 AND DUP2 SUB PUSH2 0x53B JUMPI SWAP3 PUSH1 0x44 CALLDATALOAD SWAP2 DUP3 GT PUSH2 0x53B JUMPI PUSH2 0x2495 SWAP2 PUSH1 0x4 ADD PUSH2 0x237C JUMP JUMPDEST SWAP1 JUMP JUMPDEST DUP1 SLOAD DUP3 LT ISZERO PUSH2 0x24AD JUMPI PUSH0 MSTORE PUSH1 0x20 PUSH0 KECCAK256 ADD SWAP1 PUSH0 SWAP1 JUMP JUMPDEST PUSH4 0x4E487B71 PUSH1 0xE0 SHL PUSH0 MSTORE PUSH1 0x32 PUSH1 0x4 MSTORE PUSH1 0x24 PUSH0 REVERT JUMPDEST SWAP1 PUSH1 0x1 DUP3 DUP2 SHR SWAP3 AND DUP1 ISZERO PUSH2 0x24EF JUMPI JUMPDEST PUSH1 0x20 DUP4 LT EQ PUSH2 0x24DB JUMPI JUMP JUMPDEST PUSH4 0x4E487B71 PUSH1 0xE0 SHL PUSH0 MSTORE PUSH1 0x22 PUSH1 0x4 MSTORE PUSH1 0x24 PUSH0 REVERT JUMPDEST SWAP2 PUSH1 0x7F AND SWAP2 PUSH2 0x24D0 JUMP JUMPDEST SWAP1 PUSH1 0x40 MLOAD SWAP2 DUP3 PUSH0 DUP3 SLOAD SWAP3 PUSH2 0x250C DUP5 PUSH2 0x24C1 JUMP JUMPDEST SWAP1 DUP2 DUP5 MSTORE PUSH1 0x1 SWAP5 DUP6 DUP2 AND SWAP1 DUP2 PUSH0 EQ PUSH2 0x2577 JUMPI POP PUSH1 0x1 EQ PUSH2 0x2537 JUMPI JUMPDEST POP POP PUSH2 0x2535 SWAP3 POP SUB DUP4 PUSH2 0x2347 JUMP JUMPDEST JUMP JUMPDEST SWAP1 SWAP4 SWAP2 POP PUSH0 MSTORE PUSH1 0x20 SWAP1 DUP2 PUSH0 KECCAK256 SWAP4 PUSH0 SWAP2 JUMPDEST DUP2 DUP4 LT PUSH2 0x255F JUMPI POP POP PUSH2 0x2535 SWAP4 POP DUP3 ADD ADD PUSH0 DUP1 PUSH2 0x2527 JUMP JUMPDEST DUP6 SLOAD DUP9 DUP5 ADD DUP6 ADD MSTORE SWAP5 DUP6 ADD SWAP5 DUP8 SWAP5 POP SWAP2 DUP4 ADD SWAP2 PUSH2 0x2547 JUMP JUMPDEST SWAP2 POP POP PUSH2 0x2535 SWAP5 POP PUSH1 0x20 SWAP3 POP PUSH1 0xFF NOT AND DUP3 DUP5 ADD MSTORE ISZERO ISZERO PUSH1 0x5 SHL DUP3 ADD ADD PUSH0 DUP1 PUSH2 0x2527 JUMP JUMPDEST SWAP1 PUSH2 0x25A8 JUMPI PUSH2 0x2495 SWAP1 PUSH2 0x24F9 JUMP JUMPDEST PUSH4 0x4E487B71 PUSH1 0xE0 SHL PUSH0 MSTORE PUSH0 PUSH1 0x4 MSTORE PUSH1 0x24 PUSH0 REVERT JUMPDEST PUSH0 JUMPDEST DUP4 DUP2 LT PUSH2 0x25CC JUMPI POP POP PUSH0 SWAP2 ADD MSTORE JUMP JUMPDEST DUP2 DUP2 ADD MLOAD DUP4 DUP3 ADD MSTORE PUSH1 0x20 ADD PUSH2 0x25BD JUMP JUMPDEST SWAP1 PUSH1 0x20 SWAP2 PUSH2 0x25F5 DUP2 MLOAD DUP1 SWAP3 DUP2 DUP6 MSTORE DUP6 DUP1 DUP7 ADD SWAP2 ADD PUSH2 0x25BB JUMP JUMPDEST PUSH1 0x1F ADD PUSH1 0x1F NOT AND ADD ADD SWAP1 JUMP JUMPDEST SWAP1 PUSH1 0x6 DUP3 LT ISZERO PUSH2 0x260E JUMPI MSTORE JUMP JUMPDEST PUSH4 0x4E487B71 PUSH1 0xE0 SHL PUSH0 MSTORE PUSH1 0x21 PUSH1 0x4 MSTORE PUSH1 0x24 PUSH0 REVERT JUMPDEST DUP1 PUSH0 MSTORE PUSH1 0x2 PUSH1 0x20 MSTORE PUSH1 0x40 PUSH0 KECCAK256 CALLER PUSH0 MSTORE PUSH1 0x20 MSTORE PUSH1 0xFF PUSH1 0x40 PUSH0 KECCAK256 SLOAD AND ISZERO PUSH2 0x2644 JUMPI POP JUMP JUMPDEST PUSH1 0x44 SWAP1 PUSH1 0x40 MLOAD SWAP1 PUSH4 0xE2517D3F PUSH1 0xE0 SHL DUP3 MSTORE CALLER PUSH1 0x4 DUP4 ADD MSTORE PUSH1 0x24 DUP3 ADD MSTORE REVERT JUMPDEST SWAP1 PUSH0 SWAP2 DUP1 DUP4 MSTORE PUSH1 0x2 PUSH1 0x20 MSTORE PUSH1 0x40 DUP4 KECCAK256 SWAP2 PUSH1 0x1 DUP1 PUSH1 0xA0 SHL SUB AND SWAP2 DUP3 DUP5 MSTORE PUSH1 0x20 MSTORE PUSH1 0xFF PUSH1 0x40 DUP5 KECCAK256 SLOAD AND ISZERO PUSH0 EQ PUSH2 0x26DB JUMPI DUP1 DUP4 MSTORE PUSH1 0x2 PUSH1 0x20 MSTORE PUSH1 0x40 DUP4 KECCAK256 DUP3 DUP5 MSTORE PUSH1 0x20 MSTORE PUSH1 0x40 DUP4 KECCAK256 PUSH1 0x1 PUSH1 0xFF NOT DUP3 SLOAD AND OR SWAP1 SSTORE PUSH32 0x2F8788117E7EFF1D82E926EC794901D17C78024A50270940304540A733656F0D CALLER SWAP4 DUP1 LOG4 PUSH1 0x1 SWAP1 JUMP JUMPDEST POP POP SWAP1 JUMP JUMPDEST SWAP1 PUSH0 SWAP2 DUP1 DUP4 MSTORE PUSH1 0x2 PUSH1 0x20 MSTORE PUSH1 0x40 DUP4 KECCAK256 SWAP2 PUSH1 0x1 DUP1 PUSH1 0xA0 SHL SUB AND SWAP2 DUP3 DUP5 MSTORE PUSH1 0x20 MSTORE PUSH1 0xFF PUSH1 0x40 DUP5 KECCAK256 SLOAD AND PUSH0 EQ PUSH2 0x26DB JUMPI DUP1 DUP4 MSTORE PUSH1 0x2 PUSH1 0x20 MSTORE PUSH1 0x40 DUP4 KECCAK256 DUP3 DUP5 MSTORE PUSH1 0x20 MSTORE PUSH1 0x40 DUP4 KECCAK256 PUSH1 0xFF NOT DUP2 SLOAD AND SWAP1 SSTORE PUSH32 0xF6391F5C32D9C69D2A47EA670B442974B53935D1EDC7FD64EB21E047A839171B CALLER SWAP4 DUP1 LOG4 PUSH1 0x1 SWAP1 JUMP JUMPDEST ISZERO PUSH2 0x275C JUMPI JUMP JUMPDEST PUSH1 0x40 MLOAD PUSH3 0x461BCD PUSH1 0xE5 SHL DUP2 MSTORE PUSH1 0x20 PUSH1 0x4 DUP3 ADD MSTORE PUSH1 0xC PUSH1 0x24 DUP3 ADD MSTORE PUSH12 0x2737BA10309039B2B93B32B9 PUSH1 0xA1 SHL PUSH1 0x44 DUP3 ADD MSTORE PUSH1 0x64 SWAP1 REVERT JUMPDEST SWAP2 SWAP1 SWAP2 DUP3 MLOAD PUSH1 0x1 PUSH1 0x1 PUSH1 0x40 SHL SUB DUP2 GT PUSH2 0x2368 JUMPI PUSH2 0x27AD DUP3 SLOAD PUSH2 0x24C1 JUMP JUMPDEST PUSH1 0x1F DUP2 GT PUSH2 0x2851 JUMPI JUMPDEST POP PUSH1 0x20 DUP1 PUSH1 0x1F DUP4 GT PUSH1 0x1 EQ PUSH2 0x27F1 JUMPI POP DUP2 SWAP3 SWAP4 SWAP5 PUSH0 SWAP3 PUSH2 0x27E6 JUMPI JUMPDEST POP POP DUP2 PUSH1 0x1 SHL SWAP2 PUSH0 NOT SWAP1 PUSH1 0x3 SHL SHR NOT AND OR SWAP1 SSTORE JUMP JUMPDEST ADD MLOAD SWAP1 POP PUSH0 DUP1 PUSH2 0x27D1 JUMP JUMPDEST SWAP1 PUSH1 0x1F NOT DUP4 AND SWAP6 DUP5 PUSH0 MSTORE DUP3 PUSH0 KECCAK256 SWAP3 PUSH0 SWAP1 JUMPDEST DUP9 DUP3 LT PUSH2 0x2839 JUMPI POP POP DUP4 PUSH1 0x1 SWAP6 SWAP7 SWAP8 LT PUSH2 0x2821 JUMPI JUMPDEST POP POP POP DUP2 SHL ADD SWAP1 SSTORE JUMP JUMPDEST ADD MLOAD PUSH0 NOT PUSH1 0xF8 DUP5 PUSH1 0x3 SHL AND SHR NOT AND SWAP1 SSTORE PUSH0 DUP1 DUP1 PUSH2 0x2817 JUMP JUMPDEST DUP1 PUSH1 0x1 DUP6 SWAP7 DUP3 SWAP5 SWAP7 DUP7 ADD MLOAD DUP2 SSTORE ADD SWAP6 ADD SWAP4 ADD SWAP1 PUSH2 0x2802 JUMP JUMPDEST PUSH0 DUP4 DUP2 MSTORE PUSH1 0x20 DUP2 KECCAK256 PUSH1 0x1F DUP5 ADD PUSH1 0x5 SHR DUP2 ADD SWAP3 PUSH1 0x20 DUP6 LT PUSH2 0x288E JUMPI JUMPDEST PUSH1 0x1F ADD PUSH1 0x5 SHR ADD SWAP2 JUMPDEST DUP3 DUP2 LT PUSH2 0x2883 JUMPI POP POP PUSH2 0x27B6 JUMP JUMPDEST DUP2 DUP2 SSTORE PUSH1 0x1 ADD PUSH2 0x2875 JUMP JUMPDEST SWAP1 SWAP3 POP DUP3 SWAP1 PUSH2 0x286C JUMP JUMPDEST DUP1 SLOAD PUSH9 0x10000000000000000 DUP2 LT ISZERO PUSH2 0x2368 JUMPI PUSH2 0x28BA SWAP2 PUSH1 0x1 DUP3 ADD DUP2 SSTORE PUSH2 0x2498 JUMP JUMPDEST SWAP2 SWAP1 SWAP2 PUSH2 0x25A8 JUMPI PUSH2 0x2535 SWAP2 PUSH2 0x2790 JUMP JUMPDEST PUSH2 0x28E2 SWAP1 PUSH1 0x20 PUSH1 0x40 MLOAD SWAP3 DUP3 DUP5 DUP1 SWAP5 MLOAD SWAP4 DUP5 SWAP3 ADD PUSH2 0x25BB JUMP JUMPDEST DUP2 ADD SUB SWAP1 KECCAK256 SWAP1 JUMP JUMPDEST PUSH1 0xFF PUSH1 0x1 SLOAD AND PUSH2 0x28F6 JUMPI JUMP JUMPDEST PUSH1 0x40 MLOAD PUSH3 0x461BCD PUSH1 0xE5 SHL DUP2 MSTORE PUSH1 0x20 PUSH1 0x4 DUP3 ADD MSTORE PUSH1 0x10 PUSH1 0x24 DUP3 ADD MSTORE PUSH16 0x14185D5CD8589B194E881C185D5CD959 PUSH1 0x82 SHL PUSH1 0x44 DUP3 ADD MSTORE PUSH1 0x64 SWAP1 REVERT JUMPDEST ISZERO PUSH2 0x2935 JUMPI JUMP JUMPDEST PUSH1 0x40 MLOAD PUSH3 0x461BCD PUSH1 0xE5 SHL DUP2 MSTORE PUSH1 0x20 PUSH1 0x4 DUP3 ADD MSTORE PUSH1 0x13 PUSH1 0x24 DUP3 ADD MSTORE PUSH19 0x1119585B08191BD95CC81B9BDD08195E1A5CDD PUSH1 0x6A SHL PUSH1 0x44 DUP3 ADD MSTORE PUSH1 0x64 SWAP1 REVERT JUMPDEST ISZERO PUSH2 0x2977 JUMPI JUMP JUMPDEST PUSH1 0x40 MLOAD PUSH3 0x461BCD PUSH1 0xE5 SHL DUP2 MSTORE PUSH1 0x20 PUSH1 0x4 DUP3 ADD MSTORE PUSH1 0x1E PUSH1 0x24 DUP3 ADD MSTORE PUSH32 0x496E76616C6964206272616E64206164647265737320666F72206465616C0000 PUSH1 0x44 DUP3 ADD MSTORE PUSH1 0x64 SWAP1 REVERT JUMPDEST ISZERO PUSH2 0x29C3 JUMPI JUMP JUMPDEST PUSH1 0x40 MLOAD PUSH3 0x461BCD PUSH1 0xE5 SHL DUP2 MSTORE PUSH1 0x20 PUSH1 0x4 DUP3 ADD MSTORE PUSH1 0x13 PUSH1 0x24 DUP3 ADD MSTORE PUSH19 0x496E76616C6964206465616C20737461747573 PUSH1 0x68 SHL PUSH1 0x44 DUP3 ADD MSTORE PUSH1 0x64 SWAP1 REVERT JUMPDEST PUSH1 0x2 PUSH0 SLOAD EQ PUSH2 0x2A0D JUMPI PUSH1 0x2 PUSH0 SSTORE JUMP JUMPDEST PUSH1 0x40 MLOAD PUSH3 0x461BCD PUSH1 0xE5 SHL DUP2 MSTORE PUSH1 0x20 PUSH1 0x4 DUP3 ADD MSTORE PUSH1 0x1F PUSH1 0x24 DUP3 ADD MSTORE PUSH32 0x5265656E7472616E637947756172643A207265656E7472616E742063616C6C00 PUSH1 0x44 DUP3 ADD MSTORE PUSH1 0x64 SWAP1 REVERT JUMPDEST SWAP1 PUSH0 PUSH1 0x20 SWAP2 DUP3 DUP2 MLOAD SWAP2 ADD DUP3 DUP6 GAS CALL ISZERO PUSH2 0x2AAC JUMPI PUSH0 MLOAD RETURNDATASIZE PUSH2 0x2AA3 JUMPI POP PUSH1 0x1 PUSH1 0x1 PUSH1 0xA0 SHL SUB DUP2 AND EXTCODESIZE ISZERO JUMPDEST PUSH2 0x2A81 JUMPI POP JUMP JUMPDEST PUSH1 0x40 MLOAD PUSH4 0x5274AFE7 PUSH1 0xE0 SHL DUP2 MSTORE PUSH1 0x1 PUSH1 0x1 PUSH1 0xA0 SHL SUB SWAP1 SWAP2 AND PUSH1 0x4 DUP3 ADD MSTORE PUSH1 0x24 SWAP1 REVERT JUMPDEST PUSH1 0x1 EQ ISZERO PUSH2 0x2A7A JUMP JUMPDEST PUSH1 0x40 MLOAD RETURNDATASIZE PUSH0 DUP3 RETURNDATACOPY RETURNDATASIZE SWAP1 REVERT JUMPDEST ISZERO PUSH2 0x2ABE JUMPI JUMP JUMPDEST PUSH1 0x64 PUSH1 0x40 MLOAD PUSH3 0x461BCD PUSH1 0xE5 SHL DUP2 MSTORE PUSH1 0x20 PUSH1 0x4 DUP3 ADD MSTORE PUSH1 0x20 PUSH1 0x24 DUP3 ADD MSTORE PUSH32 0x496E76616C69642063726561746F72206164647265737320666F72206465616C PUSH1 0x44 DUP3 ADD MSTORE REVERT JUMPDEST DUP2 DUP2 MUL SWAP3 SWAP2 DUP2 ISZERO SWAP2 DUP5 DIV EQ OR ISZERO PUSH2 0x2B15 JUMPI JUMP JUMPDEST PUSH4 0x4E487B71 PUSH1 0xE0 SHL PUSH0 MSTORE PUSH1 0x11 PUSH1 0x4 MSTORE PUSH1 0x24 PUSH0 REVERT JUMPDEST SWAP2 SWAP1 DUP3 SUB SWAP2 DUP3 GT PUSH2 0x2B15 JUMPI JUMP JUMPDEST PUSH1 0x40 MLOAD PUSH1 0x20 DUP2 DUP4 MLOAD PUSH2 0x2B4B DUP2 DUP4 DUP6 DUP9 ADD PUSH2 0x25BB JUMP JUMPDEST DUP2 ADD PUSH1 0x6 DUP2 MSTORE SUB ADD SWAP1 KECCAK256 PUSH32 0xA4B9AFF2E7BD4815FD0C77044B1652A3CDC9D61C082A9A75510DD9D30D1C1009 PUSH1 0x40 PUSH1 0x3 DUP4 ADD SLOAD SWAP3 PUSH2 0x2BEB PUSH2 0x2B9B PUSH2 0x2710 PUSH2 0x2B93 PUSH1 0x4 SLOAD DUP9 PUSH2 0x2B02 JUMP JUMPDEST DIV DUP1 SWAP7 PUSH2 0x2B29 JUMP JUMPDEST PUSH1 0x6 DUP4 ADD DUP1 SLOAD PUSH1 0xFF NOT AND PUSH1 0x4 OR SWAP1 SSTORE PUSH1 0x3 SLOAD PUSH1 0x2 SWAP1 SWAP4 ADD DUP1 SLOAD SWAP2 SWAP4 PUSH1 0x1 PUSH1 0x1 PUSH1 0xA0 SHL SUB SWAP3 PUSH2 0x2BCF SWAP2 DUP7 SWAP2 DUP6 AND SWAP1 DUP6 AND PUSH2 0x2BF9 JUMP JUMPDEST PUSH2 0x2BE3 DUP8 DUP4 PUSH1 0x3 SLOAD AND DUP5 PUSH1 0x5 SLOAD AND SWAP1 PUSH2 0x2BF9 JUMP JUMPDEST SLOAD AND SWAP6 PUSH2 0x28CA JUMP JUMPDEST SWAP4 DUP3 MLOAD SWAP2 DUP3 MSTORE PUSH1 0x20 DUP3 ADD MSTORE LOG3 JUMP JUMPDEST PUSH1 0x40 MLOAD PUSH4 0xA9059CBB PUSH1 0xE0 SHL PUSH1 0x20 DUP3 ADD MSTORE PUSH1 0x1 PUSH1 0x1 PUSH1 0xA0 SHL SUB SWAP1 SWAP3 AND PUSH1 0x24 DUP4 ADD MSTORE PUSH1 0x44 DUP1 DUP4 ADD SWAP4 SWAP1 SWAP4 MSTORE SWAP2 DUP2 MSTORE PUSH1 0x80 DUP2 ADD SWAP2 PUSH1 0x1 PUSH1 0x1 PUSH1 0x40 SHL SUB DUP4 GT DUP3 DUP5 LT OR PUSH2 0x2368 JUMPI PUSH2 0x2535 SWAP3 PUSH1 0x40 MSTORE PUSH2 0x2A52 JUMP JUMPDEST SWAP1 ISZERO PUSH2 0x2CDB JUMPI PUSH1 0x1 PUSH1 0x1 PUSH1 0xA0 SHL SUB AND PUSH0 SWAP1 DUP2 MSTORE PUSH1 0x7 PUSH1 0x20 SWAP1 DUP2 MSTORE PUSH1 0x40 DUP3 KECCAK256 DUP1 SLOAD SWAP1 SWAP3 SWAP1 SWAP2 PUSH1 0x1 PUSH1 0x1 PUSH1 0x40 SHL SUB DUP4 GT PUSH2 0x2CC7 JUMPI PUSH1 0x40 MLOAD SWAP4 SWAP2 PUSH2 0x2C8F PUSH1 0x5 DUP6 SWAP1 SHL DUP4 ADD DUP7 PUSH2 0x2347 JUMP JUMPDEST DUP4 DUP6 MSTORE SWAP2 DUP3 MSTORE DUP1 DUP3 KECCAK256 DUP2 DUP6 ADD JUMPDEST DUP5 DUP5 LT PUSH2 0x2CAB JUMPI POP POP POP POP POP SWAP1 JUMP JUMPDEST PUSH1 0x1 DUP4 DUP2 SWAP3 PUSH2 0x2CB9 DUP6 PUSH2 0x24F9 JUMP JUMPDEST DUP2 MSTORE ADD SWAP3 ADD SWAP4 ADD SWAP3 SWAP1 PUSH2 0x2C9C JUMP JUMPDEST PUSH4 0x4E487B71 PUSH1 0xE0 SHL DUP3 MSTORE PUSH1 0x41 PUSH1 0x4 MSTORE PUSH1 0x24 DUP3 REVERT JUMPDEST PUSH1 0x1 PUSH1 0x1 PUSH1 0xA0 SHL SUB AND PUSH0 SWAP1 DUP2 MSTORE PUSH1 0x8 PUSH1 0x20 SWAP1 DUP2 MSTORE PUSH1 0x40 DUP3 KECCAK256 DUP1 SLOAD SWAP1 SWAP3 SWAP1 SWAP2 PUSH1 0x1 PUSH1 0x1 PUSH1 0x40 SHL SUB DUP4 GT PUSH2 0x2CC7 JUMPI PUSH1 0x40 MLOAD SWAP4 SWAP2 PUSH2 0x2D1C PUSH1 0x5 DUP6 SWAP1 SHL DUP4 ADD DUP7 PUSH2 0x2347 JUMP JUMPDEST DUP4 DUP6 MSTORE SWAP2 DUP3 MSTORE DUP1 DUP3 KECCAK256 DUP2 DUP6 ADD JUMPDEST DUP5 DUP5 LT PUSH2 0x2D38 JUMPI POP POP POP POP POP SWAP1 JUMP JUMPDEST PUSH1 0x1 DUP4 DUP2 SWAP3 PUSH2 0x2D46 DUP6 PUSH2 0x24F9 JUMP JUMPDEST DUP2 MSTORE ADD SWAP3 ADD SWAP4 ADD SWAP3 SWAP1 PUSH2 0x2D29 JUMP INVALID 0xA8 0xA7 0xBC TIMESTAMP 0x1F PUSH19 0x1CB936EA99EFDAD79237E6EE0B871A2A08CF64 DUP7 SWAP2 0xF9 PC 0x4C 0xDC PUSH24 0xA2646970667358221220EB9DE1DE6C361C533E99672403EC 0xF GASPRICE JUMPDEST 0x2F PUSH19 0xC7CDB8159FAC818AD79F0D7A9C64736F6C6343 STOP ADDMOD EQ STOP CALLER 0xA8 0xA7 0xBC TIMESTAMP 0x1F PUSH19 0x1CB936EA99EFDAD79237E6EE0B871A2A08CF64 DUP7 SWAP2 0xF9 PC 0x4C 0xDC PUSH24 0x0 "
		},
		"gasEstimates": {
			"creation": {
				"codeDepositCost": "2338000",
				"executionCost": "infinite",
				"totalCost": "infinite"
			},
			"external": {
				"BPS_DENOMINATOR()": "822",
				"DEFAULT_ADMIN_ROLE()": "715",
				"REVIEW_PERIOD()": "448",
				"SERVER_ROLE()": "282",
				"approveDeal(string,address)": "infinite",
				"autoRefundAfterDeadline(string)": "infinite",
				"autoReleasePayment(string)": "infinite",
				"brandDeals(address,uint256)": "infinite",
				"canAutoRelease(string)": "infinite",
				"cancelDeal(string,address)": "infinite",
				"createDeal(string,address,address,uint256,uint256,string)": "infinite",
				"creatorDeals(address,uint256)": "infinite",
				"deals(string)": "infinite",
				"emergencyCancelDeal(string)": "infinite",
				"emergencyWithdraw(address,uint256)": "infinite",
				"feeRecipient()": "2597",
				"fundDeal(string,address,uint96,uint64,uint8,bytes32,bytes32)": "infinite",
				"getDeal(string)": "infinite",
				"getDeals(address,bool)": "infinite",
				"getRoleAdmin(bytes32)": "2491",
				"grantRole(bytes32,address)": "33421",
				"hasRole(bytes32,address)": "2957",
				"idrxToken()": "2927",
				"initiateDispute(string,address,string)": "infinite",
				"pause()": "infinite",
				"paused()": "2651",
				"platformFeeBps()": "2397",
				"renounceRole(bytes32,address)": "29029",
				"resolveDispute(string,address,bool)": "infinite",
				"revokeRole(bytes32,address)": "33830",
				"submitContent(string,address,string)": "infinite",
				"supportsInterface(bytes4)": "279",
				"unpause()": "infinite",
				"updateFeeRecipient(address)": "infinite",
				"updatePlatformFee(uint256)": "infinite"
			},
			"internal": {
				"_releasePayment(string memory)": "infinite"
			}
		},
		"methodIdentifiers": {
			"BPS_DENOMINATOR()": "e1a45218",
			"DEFAULT_ADMIN_ROLE()": "a217fddf",
			"REVIEW_PERIOD()": "42bcf75c",
			"SERVER_ROLE()": "18cf2834",
			"approveDeal(string,address)": "24d956c8",
			"autoRefundAfterDeadline(string)": "e39fff38",
			"autoReleasePayment(string)": "38a13287",
			"brandDeals(address,uint256)": "d46597e3",
			"canAutoRelease(string)": "76492d3f",
			"cancelDeal(string,address)": "03f715da",
			"createDeal(string,address,address,uint256,uint256,string)": "03f502ae",
			"creatorDeals(address,uint256)": "53a140ac",
			"deals(string)": "a0a57dac",
			"emergencyCancelDeal(string)": "1a1aaeed",
			"emergencyWithdraw(address,uint256)": "95ccea67",
			"feeRecipient()": "46904840",
			"fundDeal(string,address,uint96,uint64,uint8,bytes32,bytes32)": "5f22e900",
			"getDeal(string)": "e7079180",
			"getDeals(address,bool)": "9fad59b4",
			"getRoleAdmin(bytes32)": "248a9ca3",
			"grantRole(bytes32,address)": "2f2ff15d",
			"hasRole(bytes32,address)": "91d14854",
			"idrxToken()": "d6bc7c63",
			"initiateDispute(string,address,string)": "0e59a395",
			"pause()": "8456cb59",
			"paused()": "5c975abb",
			"platformFeeBps()": "22dcd13e",
			"renounceRole(bytes32,address)": "36568abe",
			"resolveDispute(string,address,bool)": "ef03c10e",
			"revokeRole(bytes32,address)": "d547741f",
			"submitContent(string,address,string)": "4971716f",
			"supportsInterface(bytes4)": "01ffc9a7",
			"unpause()": "3f4ba83a",
			"updateFeeRecipient(address)": "f160d369",
			"updatePlatformFee(uint256)": "aa0b5988"
		}
	},
	"abi": [
		{
			"inputs": [
				{
					"internalType": "address",
					"name": "_idrxToken",
					"type": "address"
				},
				{
					"internalType": "address",
					"name": "_feeRecipient",
					"type": "address"
				},
				{
					"internalType": "address",
					"name": "_initialOwner",
					"type": "address"
				}
			],
			"stateMutability": "nonpayable",
			"type": "constructor"
		},
		{
			"inputs": [],
			"name": "AccessControlBadConfirmation",
			"type": "error"
		},
		{
			"inputs": [
				{
					"internalType": "address",
					"name": "account",
					"type": "address"
				},
				{
					"internalType": "bytes32",
					"name": "neededRole",
					"type": "bytes32"
				}
			],
			"name": "AccessControlUnauthorizedAccount",
			"type": "error"
		},
		{
			"inputs": [
				{
					"internalType": "address",
					"name": "token",
					"type": "address"
				}
			],
			"name": "SafeERC20FailedOperation",
			"type": "error"
		},
		{
			"anonymous": false,
			"inputs": [
				{
					"indexed": true,
					"internalType": "string",
					"name": "dealId",
					"type": "string"
				},
				{
					"indexed": true,
					"internalType": "address",
					"name": "creator",
					"type": "address"
				},
				{
					"indexed": false,
					"internalType": "string",
					"name": "contentUrl",
					"type": "string"
				},
				{
					"indexed": false,
					"internalType": "uint256",
					"name": "reviewDeadline",
					"type": "uint256"
				}
			],
			"name": "ContentSubmitted",
			"type": "event"
		},
		{
			"anonymous": false,
			"inputs": [
				{
					"indexed": true,
					"internalType": "string",
					"name": "dealId",
					"type": "string"
				},
				{
					"indexed": true,
					"internalType": "address",
					"name": "brand",
					"type": "address"
				}
			],
			"name": "DealApproved",
			"type": "event"
		},
		{
			"anonymous": false,
			"inputs": [
				{
					"indexed": true,
					"internalType": "string",
					"name": "dealId",
					"type": "string"
				},
				{
					"indexed": true,
					"internalType": "address",
					"name": "initiator",
					"type": "address"
				},
				{
					"indexed": false,
					"internalType": "uint256",
					"name": "refundAmount",
					"type": "uint256"
				}
			],
			"name": "DealCancelled",
			"type": "event"
		},
		{
			"anonymous": false,
			"inputs": [
				{
					"indexed": true,
					"internalType": "string",
					"name": "dealId",
					"type": "string"
				},
				{
					"indexed": true,
					"internalType": "address",
					"name": "brand",
					"type": "address"
				},
				{
					"indexed": true,
					"internalType": "address",
					"name": "creator",
					"type": "address"
				},
				{
					"indexed": false,
					"internalType": "uint256",
					"name": "amount",
					"type": "uint256"
				},
				{
					"indexed": false,
					"internalType": "uint256",
					"name": "deadline",
					"type": "uint256"
				}
			],
			"name": "DealCreated",
			"type": "event"
		},
		{
			"anonymous": false,
			"inputs": [
				{
					"indexed": true,
					"internalType": "string",
					"name": "dealId",
					"type": "string"
				},
				{
					"indexed": true,
					"internalType": "address",
					"name": "brand",
					"type": "address"
				},
				{
					"indexed": false,
					"internalType": "uint256",
					"name": "amount",
					"type": "uint256"
				}
			],
			"name": "DealFunded",
			"type": "event"
		},
		{
			"anonymous": false,
			"inputs": [
				{
					"indexed": true,
					"internalType": "string",
					"name": "dealId",
					"type": "string"
				},
				{
					"indexed": true,
					"internalType": "address",
					"name": "brand",
					"type": "address"
				},
				{
					"indexed": false,
					"internalType": "string",
					"name": "reason",
					"type": "string"
				}
			],
			"name": "DisputeInitiated",
			"type": "event"
		},
		{
			"anonymous": false,
			"inputs": [
				{
					"indexed": true,
					"internalType": "string",
					"name": "dealId",
					"type": "string"
				},
				{
					"indexed": true,
					"internalType": "address",
					"name": "creator",
					"type": "address"
				},
				{
					"indexed": false,
					"internalType": "bool",
					"name": "accepted8020",
					"type": "bool"
				},
				{
					"indexed": false,
					"internalType": "uint256",
					"name": "creatorAmount",
					"type": "uint256"
				},
				{
					"indexed": false,
					"internalType": "uint256",
					"name": "brandRefund",
					"type": "uint256"
				}
			],
			"name": "DisputeResolved",
			"type": "event"
		},
		{
			"anonymous": false,
			"inputs": [
				{
					"indexed": false,
					"internalType": "address",
					"name": "oldRecipient",
					"type": "address"
				},
				{
					"indexed": false,
					"internalType": "address",
					"name": "newRecipient",
					"type": "address"
				}
			],
			"name": "FeeRecipientUpdated",
			"type": "event"
		},
		{
			"anonymous": false,
			"inputs": [
				{
					"indexed": false,
					"internalType": "address",
					"name": "account",
					"type": "address"
				}
			],
			"name": "Paused",
			"type": "event"
		},
		{
			"anonymous": false,
			"inputs": [
				{
					"indexed": true,
					"internalType": "string",
					"name": "dealId",
					"type": "string"
				},
				{
					"indexed": true,
					"internalType": "address",
					"name": "creator",
					"type": "address"
				},
				{
					"indexed": false,
					"internalType": "uint256",
					"name": "amount",
					"type": "uint256"
				},
				{
					"indexed": false,
					"internalType": "uint256",
					"name": "platformFee",
					"type": "uint256"
				}
			],
			"name": "PaymentReleased",
			"type": "event"
		},
		{
			"anonymous": false,
			"inputs": [
				{
					"indexed": false,
					"internalType": "uint256",
					"name": "oldFee",
					"type": "uint256"
				},
				{
					"indexed": false,
					"internalType": "uint256",
					"name": "newFee",
					"type": "uint256"
				}
			],
			"name": "PlatformFeeUpdated",
			"type": "event"
		},
		{
			"anonymous": false,
			"inputs": [
				{
					"indexed": true,
					"internalType": "bytes32",
					"name": "role",
					"type": "bytes32"
				},
				{
					"indexed": true,
					"internalType": "bytes32",
					"name": "previousAdminRole",
					"type": "bytes32"
				},
				{
					"indexed": true,
					"internalType": "bytes32",
					"name": "newAdminRole",
					"type": "bytes32"
				}
			],
			"name": "RoleAdminChanged",
			"type": "event"
		},
		{
			"anonymous": false,
			"inputs": [
				{
					"indexed": true,
					"internalType": "bytes32",
					"name": "role",
					"type": "bytes32"
				},
				{
					"indexed": true,
					"internalType": "address",
					"name": "account",
					"type": "address"
				},
				{
					"indexed": true,
					"internalType": "address",
					"name": "sender",
					"type": "address"
				}
			],
			"name": "RoleGranted",
			"type": "event"
		},
		{
			"anonymous": false,
			"inputs": [
				{
					"indexed": true,
					"internalType": "bytes32",
					"name": "role",
					"type": "bytes32"
				},
				{
					"indexed": true,
					"internalType": "address",
					"name": "account",
					"type": "address"
				},
				{
					"indexed": true,
					"internalType": "address",
					"name": "sender",
					"type": "address"
				}
			],
			"name": "RoleRevoked",
			"type": "event"
		},
		{
			"anonymous": false,
			"inputs": [
				{
					"indexed": false,
					"internalType": "address",
					"name": "account",
					"type": "address"
				}
			],
			"name": "Unpaused",
			"type": "event"
		},
		{
			"inputs": [],
			"name": "BPS_DENOMINATOR",
			"outputs": [
				{
					"internalType": "uint256",
					"name": "",
					"type": "uint256"
				}
			],
			"stateMutability": "view",
			"type": "function"
		},
		{
			"inputs": [],
			"name": "DEFAULT_ADMIN_ROLE",
			"outputs": [
				{
					"internalType": "bytes32",
					"name": "",
					"type": "bytes32"
				}
			],
			"stateMutability": "view",
			"type": "function"
		},
		{
			"inputs": [],
			"name": "REVIEW_PERIOD",
			"outputs": [
				{
					"internalType": "uint256",
					"name": "",
					"type": "uint256"
				}
			],
			"stateMutability": "view",
			"type": "function"
		},
		{
			"inputs": [],
			"name": "SERVER_ROLE",
			"outputs": [
				{
					"internalType": "bytes32",
					"name": "",
					"type": "bytes32"
				}
			],
			"stateMutability": "view",
			"type": "function"
		},
		{
			"inputs": [
				{
					"internalType": "string",
					"name": "_dealId",
					"type": "string"
				},
				{
					"internalType": "address",
					"name": "_brandAddress",
					"type": "address"
				}
			],
			"name": "approveDeal",
			"outputs": [],
			"stateMutability": "nonpayable",
			"type": "function"
		},
		{
			"inputs": [
				{
					"internalType": "string",
					"name": "_dealId",
					"type": "string"
				}
			],
			"name": "autoRefundAfterDeadline",
			"outputs": [],
			"stateMutability": "nonpayable",
			"type": "function"
		},
		{
			"inputs": [
				{
					"internalType": "string",
					"name": "_dealId",
					"type": "string"
				}
			],
			"name": "autoReleasePayment",
			"outputs": [],
			"stateMutability": "nonpayable",
			"type": "function"
		},
		{
			"inputs": [
				{
					"internalType": "address",
					"name": "",
					"type": "address"
				},
				{
					"internalType": "uint256",
					"name": "",
					"type": "uint256"
				}
			],
			"name": "brandDeals",
			"outputs": [
				{
					"internalType": "string",
					"name": "",
					"type": "string"
				}
			],
			"stateMutability": "view",
			"type": "function"
		},
		{
			"inputs": [
				{
					"internalType": "string",
					"name": "_dealId",
					"type": "string"
				}
			],
			"name": "canAutoRelease",
			"outputs": [
				{
					"internalType": "bool",
					"name": "",
					"type": "bool"
				}
			],
			"stateMutability": "view",
			"type": "function"
		},
		{
			"inputs": [
				{
					"internalType": "string",
					"name": "_dealId",
					"type": "string"
				},
				{
					"internalType": "address",
					"name": "_brandAddress",
					"type": "address"
				}
			],
			"name": "cancelDeal",
			"outputs": [],
			"stateMutability": "nonpayable",
			"type": "function"
		},
		{
			"inputs": [
				{
					"internalType": "string",
					"name": "_dealId",
					"type": "string"
				},
				{
					"internalType": "address",
					"name": "_brandAddress",
					"type": "address"
				},
				{
					"internalType": "address",
					"name": "_creatorAddress",
					"type": "address"
				},
				{
					"internalType": "uint256",
					"name": "_amount",
					"type": "uint256"
				},
				{
					"internalType": "uint256",
					"name": "_deadline",
					"type": "uint256"
				},
				{
					"internalType": "string",
					"name": "_briefHash",
					"type": "string"
				}
			],
			"name": "createDeal",
			"outputs": [],
			"stateMutability": "nonpayable",
			"type": "function"
		},
		{
			"inputs": [
				{
					"internalType": "address",
					"name": "",
					"type": "address"
				},
				{
					"internalType": "uint256",
					"name": "",
					"type": "uint256"
				}
			],
			"name": "creatorDeals",
			"outputs": [
				{
					"internalType": "string",
					"name": "",
					"type": "string"
				}
			],
			"stateMutability": "view",
			"type": "function"
		},
		{
			"inputs": [
				{
					"internalType": "string",
					"name": "",
					"type": "string"
				}
			],
			"name": "deals",
			"outputs": [
				{
					"internalType": "string",
					"name": "dealId",
					"type": "string"
				},
				{
					"internalType": "address",
					"name": "brand",
					"type": "address"
				},
				{
					"internalType": "address",
					"name": "creator",
					"type": "address"
				},
				{
					"internalType": "uint256",
					"name": "amount",
					"type": "uint256"
				},
				{
					"internalType": "uint256",
					"name": "deadline",
					"type": "uint256"
				},
				{
					"internalType": "string",
					"name": "briefHash",
					"type": "string"
				},
				{
					"internalType": "enum EtharisEscrow.ContractStatus",
					"name": "status",
					"type": "uint8"
				},
				{
					"internalType": "uint256",
					"name": "fundedAt",
					"type": "uint256"
				},
				{
					"internalType": "uint256",
					"name": "submittedAt",
					"type": "uint256"
				},
				{
					"internalType": "uint256",
					"name": "reviewDeadline",
					"type": "uint256"
				},
				{
					"internalType": "string",
					"name": "contentUrl",
					"type": "string"
				},
				{
					"internalType": "bool",
					"name": "exists",
					"type": "bool"
				}
			],
			"stateMutability": "view",
			"type": "function"
		},
		{
			"inputs": [
				{
					"internalType": "string",
					"name": "_dealId",
					"type": "string"
				}
			],
			"name": "emergencyCancelDeal",
			"outputs": [],
			"stateMutability": "nonpayable",
			"type": "function"
		},
		{
			"inputs": [
				{
					"internalType": "address",
					"name": "_token",
					"type": "address"
				},
				{
					"internalType": "uint256",
					"name": "_amount",
					"type": "uint256"
				}
			],
			"name": "emergencyWithdraw",
			"outputs": [],
			"stateMutability": "nonpayable",
			"type": "function"
		},
		{
			"inputs": [],
			"name": "feeRecipient",
			"outputs": [
				{
					"internalType": "address",
					"name": "",
					"type": "address"
				}
			],
			"stateMutability": "view",
			"type": "function"
		},
		{
			"inputs": [
				{
					"internalType": "string",
					"name": "dealId",
					"type": "string"
				},
				{
					"internalType": "address",
					"name": "brandAddress",
					"type": "address"
				},
				{
					"internalType": "uint96",
					"name": "amount",
					"type": "uint96"
				},
				{
					"internalType": "uint64",
					"name": "deadline",
					"type": "uint64"
				},
				{
					"internalType": "uint8",
					"name": "v",
					"type": "uint8"
				},
				{
					"internalType": "bytes32",
					"name": "r",
					"type": "bytes32"
				},
				{
					"internalType": "bytes32",
					"name": "s",
					"type": "bytes32"
				}
			],
			"name": "fundDeal",
			"outputs": [],
			"stateMutability": "nonpayable",
			"type": "function"
		},
		{
			"inputs": [
				{
					"internalType": "string",
					"name": "_dealId",
					"type": "string"
				}
			],
			"name": "getDeal",
			"outputs": [
				{
					"internalType": "string",
					"name": "dealId",
					"type": "string"
				},
				{
					"internalType": "address",
					"name": "brand",
					"type": "address"
				},
				{
					"internalType": "address",
					"name": "creator",
					"type": "address"
				},
				{
					"internalType": "uint256",
					"name": "amount",
					"type": "uint256"
				},
				{
					"internalType": "uint256",
					"name": "deadline",
					"type": "uint256"
				},
				{
					"internalType": "enum EtharisEscrow.ContractStatus",
					"name": "status",
					"type": "uint8"
				},
				{
					"internalType": "string",
					"name": "briefHash",
					"type": "string"
				},
				{
					"internalType": "string",
					"name": "contentUrl",
					"type": "string"
				},
				{
					"internalType": "uint256",
					"name": "reviewDeadline",
					"type": "uint256"
				},
				{
					"internalType": "uint256",
					"name": "fundedAt",
					"type": "uint256"
				},
				{
					"internalType": "uint256",
					"name": "submittedAt",
					"type": "uint256"
				},
				{
					"internalType": "bool",
					"name": "exists",
					"type": "bool"
				}
			],
			"stateMutability": "view",
			"type": "function"
		},
		{
			"inputs": [
				{
					"internalType": "address",
					"name": "_userAddress",
					"type": "address"
				},
				{
					"internalType": "bool",
					"name": "_isBrand",
					"type": "bool"
				}
			],
			"name": "getDeals",
			"outputs": [
				{
					"internalType": "string[]",
					"name": "",
					"type": "string[]"
				}
			],
			"stateMutability": "view",
			"type": "function"
		},
		{
			"inputs": [
				{
					"internalType": "bytes32",
					"name": "role",
					"type": "bytes32"
				}
			],
			"name": "getRoleAdmin",
			"outputs": [
				{
					"internalType": "bytes32",
					"name": "",
					"type": "bytes32"
				}
			],
			"stateMutability": "view",
			"type": "function"
		},
		{
			"inputs": [
				{
					"internalType": "bytes32",
					"name": "role",
					"type": "bytes32"
				},
				{
					"internalType": "address",
					"name": "account",
					"type": "address"
				}
			],
			"name": "grantRole",
			"outputs": [],
			"stateMutability": "nonpayable",
			"type": "function"
		},
		{
			"inputs": [
				{
					"internalType": "bytes32",
					"name": "role",
					"type": "bytes32"
				},
				{
					"internalType": "address",
					"name": "account",
					"type": "address"
				}
			],
			"name": "hasRole",
			"outputs": [
				{
					"internalType": "bool",
					"name": "",
					"type": "bool"
				}
			],
			"stateMutability": "view",
			"type": "function"
		},
		{
			"inputs": [],
			"name": "idrxToken",
			"outputs": [
				{
					"internalType": "contract IERC20",
					"name": "",
					"type": "address"
				}
			],
			"stateMutability": "view",
			"type": "function"
		},
		{
			"inputs": [
				{
					"internalType": "string",
					"name": "_dealId",
					"type": "string"
				},
				{
					"internalType": "address",
					"name": "_brandAddress",
					"type": "address"
				},
				{
					"internalType": "string",
					"name": "_reason",
					"type": "string"
				}
			],
			"name": "initiateDispute",
			"outputs": [],
			"stateMutability": "nonpayable",
			"type": "function"
		},
		{
			"inputs": [],
			"name": "pause",
			"outputs": [],
			"stateMutability": "nonpayable",
			"type": "function"
		},
		{
			"inputs": [],
			"name": "paused",
			"outputs": [
				{
					"internalType": "bool",
					"name": "",
					"type": "bool"
				}
			],
			"stateMutability": "view",
			"type": "function"
		},
		{
			"inputs": [],
			"name": "platformFeeBps",
			"outputs": [
				{
					"internalType": "uint256",
					"name": "",
					"type": "uint256"
				}
			],
			"stateMutability": "view",
			"type": "function"
		},
		{
			"inputs": [
				{
					"internalType": "bytes32",
					"name": "role",
					"type": "bytes32"
				},
				{
					"internalType": "address",
					"name": "callerConfirmation",
					"type": "address"
				}
			],
			"name": "renounceRole",
			"outputs": [],
			"stateMutability": "nonpayable",
			"type": "function"
		},
		{
			"inputs": [
				{
					"internalType": "string",
					"name": "_dealId",
					"type": "string"
				},
				{
					"internalType": "address",
					"name": "_creatorAddress",
					"type": "address"
				},
				{
					"internalType": "bool",
					"name": "_accept8020",
					"type": "bool"
				}
			],
			"name": "resolveDispute",
			"outputs": [],
			"stateMutability": "nonpayable",
			"type": "function"
		},
		{
			"inputs": [
				{
					"internalType": "bytes32",
					"name": "role",
					"type": "bytes32"
				},
				{
					"internalType": "address",
					"name": "account",
					"type": "address"
				}
			],
			"name": "revokeRole",
			"outputs": [],
			"stateMutability": "nonpayable",
			"type": "function"
		},
		{
			"inputs": [
				{
					"internalType": "string",
					"name": "_dealId",
					"type": "string"
				},
				{
					"internalType": "address",
					"name": "_creatorAddress",
					"type": "address"
				},
				{
					"internalType": "string",
					"name": "_contentUrl",
					"type": "string"
				}
			],
			"name": "submitContent",
			"outputs": [],
			"stateMutability": "nonpayable",
			"type": "function"
		},
		{
			"inputs": [
				{
					"internalType": "bytes4",
					"name": "interfaceId",
					"type": "bytes4"
				}
			],
			"name": "supportsInterface",
			"outputs": [
				{
					"internalType": "bool",
					"name": "",
					"type": "bool"
				}
			],
			"stateMutability": "view",
			"type": "function"
		},
		{
			"inputs": [],
			"name": "unpause",
			"outputs": [],
			"stateMutability": "nonpayable",
			"type": "function"
		},
		{
			"inputs": [
				{
					"internalType": "address",
					"name": "_newRecipient",
					"type": "address"
				}
			],
			"name": "updateFeeRecipient",
			"outputs": [],
			"stateMutability": "nonpayable",
			"type": "function"
		},
		{
			"inputs": [
				{
					"internalType": "uint256",
					"name": "_newFeeBps",
					"type": "uint256"
				}
			],
			"name": "updatePlatformFee",
			"outputs": [],
			"stateMutability": "nonpayable",
			"type": "function"
		}
	]
}