{
	"data": {
		"bytecode": {
			"linkReferences": {},
			"object": "60a0601f620030a638819003918201601f1916830191906001600160401b038311848410176200017557816060928592604095865283398101031262000171576200004a8262000189565b9162000066826200005e6020840162000189565b920162000189565b60015f819055805460ff191690556001600160a01b0393841693909190841562000160578082161562000160578216156200014f57620000bd929360805260018060601b03199060601b1660fa176003556200019e565b505f8051602062003086833981519152805f5260026020526001825f20019181835493555191817fbd79b86ffe0ab8e8776151514217cd7cacd52c909f66475c3af44e129f0b00ff5f80a4612e46908162000240823960805181818161039901528181610bc301528181610c2e015281816112680152818161177d01528181611d0201528181611faf015261218e0152f35b825163e6c4247b60e01b8152600490fd5b835163e6c4247b60e01b8152600490fd5b5f80fd5b634e487b7160e01b5f52604160045260245ffd5b51906001600160a01b03821682036200017157565b6001600160a01b03165f8181527fef73bf2ac44f84561b5498839ab1c8c5a4dd99305d838aea0d76c5961778535c60205260408120549091905f80516020620030868339815191529060ff166200023a5780835260026020526040832082845260205260408320600160ff198254161790557f2f8788117e7eff1d82e926ec794901d17c78024a50270940304540a733656f0d339380a4600190565b50509056fe6080806040526004361015610012575f80fd5b5f90813560e01c90816301ffc9a7146124ca5750806303f715da146123b85780630e59a3951461221357806318cf2834146121d85780631a1aaeed1461206d57806322dcd13e14612046578063248a9ca31461201957806324d956c814611e4d5780632f2ff15d14611e0f578063317b8c5b14611dd957806336568abe14611d9157806338a1328714611bcf5780633f4ba83a14611b3a5780634690484014611b195780634971716f1461192b5780635c975abb1461190857806376492d3f146118695780638456cb591461180f57806391d14854146117c657806395ccea671461174a5780639b1221ab146115f55780639f1cf42d1461111a5780639fad59b414611077578063a0a57dac14610d33578063a217fddf14610d17578063aed1505d14610c9f578063d547741f14610c5d578063d6bc7c6314610c18578063e39fff3814610a71578063e4abd4cb14610788578063e7079180146105d6578063ef03c10e14610243578063f0c3cd20146101c35763f160d36914610194575f80fd5b346101c05760203660031901126101c0576101bd6101b06125c7565b6101b8612740565b612d62565b80f35b80fd5b50346101c05760208060031936011261023f576001600160a01b036101e66125c7565b16825260058152604082208054906101fd82612ca2565b9280840191855280852094915b838310610223576040518061021f87826126be565b0390f35b600182819261023189612c03565b81520196019201919461020a565b5080fd5b50346101c05760603660031901126101c0576004356001600160401b03811161023f5761027490369060040161255c565b61027c6125b1565b6044359182151583036105d257610291612ac4565b610299612740565b6102a1612a80565b6040519060ff6008825193602081818601966102be81838a612678565b81016004815203019020015460101c16156105c0576040519181516102e4818584612678565b8301600481526001846020828060a01b0396879403019020015416838516036105ae5760ff6008604051602081865161031e818389612678565b81016004815203019020015416600681101561059a5760030361058857602061035291604051809381928651928391612678565b810160048152030190206001600160601b036006820154169183600183015416958483541692600860035491016004815461ff0085151560081b169061ffff1916171790557f00000000000000000000000000000000000000000000000000000000000000009589835f1461052957506113888602916001600160601b03831692830361051557899161271080940497886103ec91612b9b565b936104006001600160601b0384168a612b7d565b6001600160601b031604978861041591612b9b565b996001600160601b038b16928315159a6104bb997fea4ea4b4229888eeba3eb2772df89c52af23c7fe3d530b0c1f2ca146f32c12ba966060965f80516020612df18339815191529e610504575b50506001600160601b038816806104f3575b50506001600160601b038b1690816104df575b5050505b6001600160601b0361049c88612a60565b956040519715158852818d1660208901521660408701521693a3612a60565b604080516001600160601b0395861681529290941660208301529290a36001815580f35b6104eb92861c90612bb4565b5f8080610487565b6104fd9183612bb4565b5f80610474565b61050e9184612bb4565b8e5f610462565b634e487b7160e01b5f52601160045260245ffd5b915060607fea4ea4b4229888eeba3eb2772df89c52af23c7fe3d530b0c1f2ca146f32c12ba916104bb9697995f80516020612df183398151915299859b80969a81610577575b50505061048b565b61058092612bb4565b5f808061056f565b604051635e40b94f60e01b8152600490fd5b634e487b7160e01b87526021600452602487fd5b60405163ea8e4eb560e01b8152600490fd5b60405163223da47360e21b8152600490fd5b5f80fd5b50346101c05760203660031901126101c057600435906001600160401b0382116101c05761061f602061060c366004860161255c565b8160405193828580945193849201612678565b8101600481520301902060088101549060ff8260101c16156105c05780546001820154600683015460078401546001600160a01b03928316959193919290911661066b60028601612c03565b9461067860038201612c03565b61068460048301612c03565b9160050161069190612c03565b92604051988998610200808b528a016106a991612699565b9160208a015260408901526001600160601b03871660608901528660601c6001600160401b0316608089015260a0880160ff8716906106e79161271f565b87810360c08901526106f891612699565b86810360e088015261070991612699565b85810361010087015261071b91612699565b928160401c6001600160401b031661012086015260a01c6001600160401b03166101408501526001600160401b0381166101608501528060801c6001600160401b031661018085015260c01c6101a084015260081c60ff1615156101c08301526101e08201600190520390f35b50346101c05760c03660031901126101c0576001600160401b03600435818111610a6d576107ba90369060040161255c565b6107c26125b1565b6044356001600160a01b0381169391908490036105d257606435926001600160601b03841684036105d257826084351660843503610a695760a435838111610a655761081290369060040161255c565b9161081b612740565b610823612a80565b60ff6008604051602081865161083c8183858b01612678565b81016004815203019020015460101c16610a53578515610a41576001600160a01b0316938415610a4157858514610a2f576001600160601b03811615610a1d574284608435161115610a0b578251156109f9576109be6040927fceb1a488be98b2739817f21e7d3b0a343434519cd0fe4db3ef5fc27a96e8d29594610937855160208185516108ce8183858a01612678565b81016004815203019020916108e6846002850161291c565b82546001600160a01b03199081168b17845560018401805482168d1790556006840180549091166001600160601b0388161760843560601b67ffffffffffffffff60601b161790556003830161291c565b60088101805460ff191681556007820180546001600160c01b03164260c01b6001600160c01b03191617905560049190910180545f9190610977906128ce565b601f81116109da575b50556201000062ff00001982541617905586895260056020526109a581858b20612a18565b87895260066020526109b981858b20612a18565b612a60565b936001600160601b03835192168252608435166020820152a480f35b818352602083206109f391601f0160051c810190612906565b5f610980565b6040516307e4dd0160e31b8152600490fd5b604051630642ce7760e01b8152600490fd5b604051635e85ae7360e01b8152600490fd5b6040516324da034560e21b8152600490fd5b60405163e6c4247b60e01b8152600490fd5b6040516338a6a80760e11b8152600490fd5b8680fd5b8580fd5b8280fd5b50346101c05760208060031936011261023f576001600160401b0390600435828111610c1457610aa590369060040161255c565b610aad612ac4565b610ab5612740565b610abd612a80565b60405160ff6008835192858181870195610ad8818389612678565b81016004815203019020015460101c16156105c05760ff600860405185818651610b03818389612678565b810160048152030190200154166006811015610c00576001036105885782610b3691604051809381928651928391612678565b81016004815203019020926006840154908160601c16421115610bee5760088401805460ff191660051790556001600160601b0316927fb559d285c87e4fa0f561388264310703ff0c6c454a39ae52d0ae94032ff0db7091610ba0918580610bb1575b5050612a60565b916040519384523393a36001815580f35b9054610be791906001600160a01b03167f0000000000000000000000000000000000000000000000000000000000000000612bb4565b5f85610b99565b6040516302eb354360e41b8152600490fd5b634e487b7160e01b86526021600452602486fd5b8380fd5b50346101c057806003193601126101c0576040517f00000000000000000000000000000000000000000000000000000000000000006001600160a01b03168152602090f35b50346101c05760403660031901126101c057610c9b600435610c7d6125b1565b908084526002602052610c9660016040862001546127b9565b612859565b5080f35b50346101c05760208060031936011261023f576001600160a01b03610cc26125c7565b1682526006815260408220805490610cd982612ca2565b9280840191855280852094915b838310610cfb576040518061021f87826126be565b6001828192610d0989612c03565b815201960192019194610ce6565b50346101c057806003193601126101c057602090604051908152f35b50346101c05760203660031901126101c0576004356001600160401b03811161023f576020610d69610dee92369060040161255c565b836101e0604051610d798161251f565b82815282858201526060604082015260608082015260606080820152606060a08201528260c08201528260e08201528261010082015282610120820152826101408201528261016082015282610180820152826101a0820152826101c082015201528160405193828580945193849201612678565b8101600481520301902090600860405192610e088461251f565b80546001600160a01b0390811685526001820154166020850152610e2e60028201612c03565b6040850152610e3f60038201612c03565b6060850152610e5060048201612c03565b6080850152610e6160058201612c03565b60a08501526001600160401b0360068201546001600160601b03811660c0870152818160601c1660e087015260a01c1661010085015260078101546001600160401b0381166101208601526001600160401b038160401c166101408601526001600160401b038160801c1661016086015260c01c610180850152015490600660ff8316101561106357508060ff8092166101a0840152818160081c1615156101c084015260101c1615156101e082015260405180916020825260018060a01b03815116602083015260018060a01b0360208201511660408301526101e0610fa4610f5c60408401516102006060870152610220860190612699565b610f8f610f7b606086015192601f1993848983030160808a0152612699565b6080860151838883030160a0890152612699565b9060a0850151908683030160c0870152612699565b916001600160601b0360c08201511660e08501526001600160401b0360e0820151166101008501526001600160401b03610100820151166101208501526001600160401b03610120820151166101408501526001600160401b03610140820151166101608501526001600160401b03610160820151166101808501526001600160401b03610180820151166101a08501526110496101a08201516101c086019061271f565b6101c0810151151582850152015115156102008301520390f35b634e487b7160e01b81526021600452602490fd5b50346101c05760403660031901126101c0576110916125c7565b60243580151581036105d25715611101576001600160a01b031681526005602052604081205b80546110c281612ca2565b918352602080842093908084015b8383106110e5576040518061021f87826126be565b60018281926110f389612c03565b8152019601920191946110d0565b6001600160a01b031681526006602052604081206110b7565b50346101c05760e03660031901126101c0576001600160401b03600435818111610a6d5761114c90369060040161255c565b906111556125b1565b90604435916001600160601b0383168093036115f15760843560ff8116809103610a6957611181612ac4565b611189612740565b611191612a80565b60405194859260ff6008858451602097816111b18a93848a019e8f612678565b81016004815203019020015460101c16156105c0576040519282516111d781868b612678565b840160048152848660018060a01b03968793030190205416978483168099036105ae5760ff600860405188818851611210818389612678565b8101600481520301902001541660068110156115dd57610588578351156115cb5787156115b95761124f86600692604051809381928951928391612678565b81016004815203019020019186835460a01c166115a7577f0000000000000000000000000000000000000000000000000000000000000000948516906040516370a0823160e01b81528a60048201528781602481865afa801561159c578a918d91611567575b5010611555578691831580159061154a575b801561153f575b61141d575b604051636eb1769f60e11b81526001600160a01b03909216600483015230602483015290925082908180604481015b03915afa80156114125787918a916113e1575b50106113cf576040516323b872dd60e01b8582015260248101889052306044820152606480820188905281529460a08601908111868210176113bb577f2c138f65913cd3b9ca6f36e4b59e26830a033a978ca69f935781972e6df1f61d956113ac9461138392604052612b18565b805467ffffffffffffffff60a01b19164260a01b67ffffffffffffffff60a01b16179055612a60565b92604051908152a36001815580f35b634e487b7160e01b5f52604160045260245ffd5b6040516313be252b60e01b8152600490fd5b809250868092503d831161140b575b6113fa818361253b565b810103126105d2578690515f611315565b503d6113f0565b6040513d8b823e3d90fd5b8092509290923b1561153b576040519063d505accf60e01b82528a60048301523060248301528960448301526064356064830152608482015260a43560a482015260c43560c48201528a8160e48183865af19081611513575b5061148d5760405163b78cb0dd60e01b8152600490fd5b604051636eb1769f60e11b81526001600160a01b03831660048201523060248201528681604481855afa80156115085789918c916114d7575b50106113cf576113029186916112d3565b809250888092503d8311611501575b6114f0818361253b565b810103126105d2578890515f6114c6565b503d6114e6565b6040513d8d823e3d90fd5b88819c929c1161152757604052995f611476565b634e487b7160e01b82526041600452602482fd5b8a80fd5b5060c43515156112ce565b5060a43515156112c7565b604051631e9acf1760e31b8152600490fd5b809250898092503d8311611595575b611580818361253b565b81010312611591578990515f6112b5565b8b80fd5b503d611576565b6040513d8e823e3d90fd5b604051631924fceb60e31b8152600490fd5b60405163162908e360e11b8152600490fd5b604051635f0be7af60e01b8152600490fd5b634e487b7160e01b8b52602160045260248bfd5b8480fd5b50346101c057611604366125dd565b9061160d612740565b611615612a80565b60405160ff600883519260208181870195611631818389612678565b81016004815203019020015460101c16156105c0576040518251611656818385612678565b60049082019081528190036020019020600101546001600160a01b0393841693168390036105ae5760ff60086040516020818651611695818389612678565b810160048152030190200154166006811015611736576105885760206116c691604051809381928651928391612678565b81016004815203019020906001600160401b03600683015460a01c16156117245760086116fe9201600160ff19825416179055612a60565b7ecaec7345d2eb04a42197ac2a2cd7cd74a00b2991b69bb53e23465d4092fdfb8380a380f35b6040516347510bbd60e11b8152600490fd5b634e487b7160e01b85526021600452602485fd5b50346101c05760403660031901126101c0576117646125c7565b60243561176f612740565b6001600160a01b03918216917f00000000000000000000000000000000000000000000000000000000000000001682146117b45780156115b9576101bd913390612bb4565b6040516318ba2fc160e31b8152600490fd5b50346101c05760403660031901126101c05760ff60406020926117e76125b1565b6004358252600285528282206001600160a01b03909116825284522054604051911615158152f35b50346101c057806003193601126101c057611828612740565b611830612a80565b600160ff19815416176001557f62e78cea01bee320cd4e420270b5ea74000d11b0c9f74754ebdbfc544b05a2586020604051338152a180f35b50346101c05760203660031901126101c0576001600160401b03600435818111610a6d57602061060c6118a092369060040161255c565b810160048152030190209060088201549160ff8360101c1692836118ea575b5060209350826118d6575b50506040519015158152f35b6007015460401c1642101590505f806118ca565b60ff919350169260068410156110635750600260209314915f6118bf565b50346101c057806003193601126101c057602060ff600154166040519015158152f35b50346101c05761193a3661261e565b611945929192612740565b61194d612a80565b604051825160ff600860209384818189019561196a818389612678565b81016004815203019020015460101c16156105c057604051845161198f818385612678565b600490820190815281900383019020600101546001600160a01b0395861695168590036105ae5760ff6008604051848188516119cc818389612678565b81016004815203019020015416600681101561059a5760010361058857816119ff91604051809381928851928391612678565b810160048152030190206001600160401b039081600682015460601c164211611b0757835115611af55760088101600260ff19825416179055600781019081546203f4804201804211611ae15792611ab7876004611ac2957f934109f661b65dbccffcae4f7ee04261eb7b36e5136e1ca86dde1b00598cb0319a98956fffffffffffffffff0000000000000000611ad79b9960401b1690874216906fffffffffffffffffffffffffffffffff1916171785550161291c565b5460401c1695612a60565b94604051938493604085526040850190612699565b918301520390a380f35b634e487b7160e01b8a52601160045260248afd5b60405163361178c760e01b8152600490fd5b60405163764b8e3360e11b8152600490fd5b50346101c057806003193601126101c057602060035460601c604051908152f35b50346101c057806003193601126101c057611b53612740565b60015460ff811615611b935760ff19166001557f5db9ee0a495bf2e6ff9c91a7834c1ba4fdd244a5e8aa4e537bd38aeae4b073aa6020604051338152a180f35b60405162461bcd60e51b815260206004820152601460248201527314185d5cd8589b194e881b9bdd081c185d5cd95960621b6044820152606490fd5b50346101c05760203660031901126101c0576001600160401b03600435818111610a6d57611c0190369060040161255c565b90611c0a612ac4565b611c12612740565b611c1a612a80565b60405160ff600884519260208181880195611c36818389612678565b81016004815203019020015460101c16156105c05760ff60086040516020818751611c62818389612678565b81016004815203019020015416600681101561173657600203610588576020611c9691604051809381928751928391612678565b8101600481520301902090600782015460401c164210611d7f575f80516020612df18339815191526001600160601b03916104bb8360068301541691611cf061271086611ce7816003541687612b7d565b16048094612b9b565b60088201805460ff19166004179055947f00000000000000000000000000000000000000000000000000000000000000009080871680611d60575b50841680611d49575b5050600101546001600160a01b031694612a60565b611d599160035460601c90612bb4565b5f80611d34565b6001840154611d7991906001600160a01b031684612bb4565b5f611d2b565b604051632d6bf64560e01b8152600490fd5b50346101c05760403660031901126101c057611dab6125b1565b336001600160a01b03821603611dc757610c9b90600435612859565b60405163334bd91960e11b8152600490fd5b50346101c05760203660031901126101c0576004356001600160601b038116810361023f576101bd90611e0a612740565b612cc9565b50346101c05760403660031901126101c057610c9b600435611e2f6125b1565b908084526002602052611e4860016040862001546127b9565b6127db565b50346101c057611e5c366125dd565b611e64612ac4565b611e6c612740565b611e74612a80565b60405160ff600884519260208181880195611e90818389612678565b81016004815203019020015460101c16156105c05760206040518451611eb7818386612678565b8101600481528160018060a01b03938493849303019020541693168093036105ae5760ff60086040516020818851611ef081838a612678565b810160048152030190200154166006811015610c0057600203610588576104bb611f3560205f80516020612df183398151915294604051809381928a51928391612678565b810160048152030190209160016001600160601b03938460068201541694611f7161271082611f6881600354168a612b7d565b16048097612b9b565b60088301805460ff1916600417905597611f8a8a612a60565b7ecaec7345d2eb04a42197ac2a2cd7cd74a00b2991b69bb53e23465d4092fdfb8c80a37f00000000000000000000000000000000000000000000000000000000000000009080891680612003575b50861680611fec575b505001541694612a60565b611ffc9160035460601c90612bb4565b5f80611fe1565b6120139086868601541684612bb4565b5f611fd8565b50346101c05760203660031901126101c05760016040602092600435815260028452200154604051908152f35b50346101c057806003193601126101c05760206001600160601b0360035416604051908152f35b50346101c05760203660031901126101c0576004356001600160401b03811161023f5761209e90369060040161255c565b6120a6612ac4565b6120ae612740565b60405160ff6008835192602081818701956120ca818389612678565b81016004815203019020015460101c16156105c05760206120f691604051809381928651928391612678565b8101600481520301902090600882019081549260ff84166006811015610c0057600181036121b9575b506121499260056001600160601b036006840154169560ff1916179055838061217c575050612a60565b6040519182527fb559d285c87e4fa0f561388264310703ff0c6c454a39ae52d0ae94032ff0db7060203393a36001815580f35b90546121b291906001600160a01b03167f0000000000000000000000000000000000000000000000000000000000000000612bb4565b5f83610b99565b6002036121c6575f61211f565b6040516304df0cad60e31b8152600490fd5b50346101c057806003193601126101c05760206040517fa8a7bc421f721cb936ea99efdad79237e6ee0b871a2a08cf648691f9584cdc778152f35b50346101c0576122223661261e565b909161222c612740565b612234612a80565b60405191815160ff6008602095868181880195612252818389612678565b81016004815203019020015460101c16156105c0576040518351612277818385612678565b600490820190815281900385019020546001600160a01b0395861695168590036105ae5760ff6008604051868187516122b1818389612678565b81016004815203019020015416600681101561059a5760020361058857836122e491604051809381928751928391612678565b8101600481520301902060078101926001600160401b03845460401c164210156123a657825115612394577fde7b01bef0884582ce204f7f920e57f99dd569f93867450872f436be5a03c755936123508460058560086123799701600360ff198254161790550161291c565b805467ffffffffffffffff60801b19164260801b67ffffffffffffffff60801b16179055612a60565b9261238e604051928284938452830190612699565b0390a380f35b60405163bc7fd33160e01b8152600490fd5b604051632d0f572d60e11b8152600490fd5b50346101c0576123c7366125dd565b906123d0612740565b60405190805160ff60086020948581818701956123ee818389612678565b81016004815203019020015460101c16156105c0576040518251612413818385612678565b600490820190815281900384019020546001600160a01b0394851694168490036105ae5760ff60086040518581865161244d818389612678565b810160048152030190200154166006811015610c0057610588577fb559d285c87e4fa0f561388264310703ff0c6c454a39ae52d0ae94032ff0db709160086124a4856124bf94604051809381928751928391612678565b8101600481520301902001600560ff19825416179055612a60565b91604051858152a380f35b90503461023f57602036600319011261023f5760043563ffffffff60e01b8116809103610a6d5760209250637965db0b60e01b811490811561250e575b5015158152f35b6301ffc9a760e01b1490505f612507565b61020081019081106001600160401b038211176113bb57604052565b90601f801991011681019081106001600160401b038211176113bb57604052565b81601f820112156105d2578035906001600160401b0382116113bb5760405192612590601f8401601f19166020018561253b565b828452602083830101116105d257815f926020809301838601378301015290565b602435906001600160a01b03821682036105d257565b600435906001600160a01b03821682036105d257565b60406003198201126105d257600435906001600160401b0382116105d2576126079160040161255c565b906024356001600160a01b03811681036105d25790565b60606003198201126105d2576001600160401b03916004358381116105d2578261264a9160040161255c565b926024356001600160a01b03811681036105d257926044359182116105d2576126759160040161255c565b90565b5f5b8381106126895750505f910152565b818101518382015260200161267a565b906020916126b281518092818552858086019101612678565b601f01601f1916010190565b602080820190808352835180925260408301928160408460051b8301019501935f915b8483106126f15750505050505090565b909192939495848061270f600193603f198682030187528a51612699565b98019301930191949392906126e1565b90600682101561272c5752565b634e487b7160e01b5f52602160045260245ffd5b335f9081527fef73bf2ac44f84561b5498839ab1c8c5a4dd99305d838aea0d76c5961778535c60205260409020547fa8a7bc421f721cb936ea99efdad79237e6ee0b871a2a08cf648691f9584cdc779060ff161561279b5750565b6044906040519063e2517d3f60e01b82523360048301526024820152fd5b805f52600260205260405f20335f5260205260ff60405f2054161561279b5750565b905f918083526002602052604083209160018060a01b03169182845260205260ff604084205416155f146128545780835260026020526040832082845260205260408320600160ff198254161790557f2f8788117e7eff1d82e926ec794901d17c78024a50270940304540a733656f0d339380a4600190565b505090565b905f918083526002602052604083209160018060a01b03169182845260205260ff6040842054165f14612854578083526002602052604083208284526020526040832060ff1981541690557ff6391f5c32d9c69d2a47ea670b442974b53935d1edc7fd64eb21e047a839171b339380a4600190565b90600182811c921680156128fc575b60208310146128e857565b634e487b7160e01b5f52602260045260245ffd5b91607f16916128dd565b818110612911575050565b5f8155600101612906565b91909182516001600160401b0381116113bb5761293982546128ce565b601f81116129dd575b50602080601f831160011461297d5750819293945f92612972575b50508160011b915f199060031b1c1916179055565b015190505f8061295d565b90601f19831695845f52825f20925f905b8882106129c5575050836001959697106129ad575b505050811b019055565b01515f1960f88460031b161c191690555f80806129a3565b8060018596829496860151815501950193019061298e565b612a0890835f5260205f20601f840160051c81019160208510612a0e575b601f0160051c0190612906565b5f612942565b90915081906129fb565b908154680100000000000000008110156113bb5760018101808455811015612a4c57612a4a925f5260205f200161291c565b565b634e487b7160e01b5f52603260045260245ffd5b612a7890602060405192828480945193849201612678565b810103902090565b60ff60015416612a8c57565b60405162461bcd60e51b815260206004820152601060248201526f14185d5cd8589b194e881c185d5cd95960821b6044820152606490fd5b60025f5414612ad35760025f55565b60405162461bcd60e51b815260206004820152601f60248201527f5265656e7472616e637947756172643a207265656e7472616e742063616c6c006044820152606490fd5b905f602091828151910182855af115612b72575f513d612b6957506001600160a01b0381163b155b612b475750565b604051635274afe760e01b81526001600160a01b039091166004820152602490fd5b60011415612b40565b6040513d5f823e3d90fd5b9190916001600160601b038080941691160291821691820361051557565b6001600160601b03918216908216039190821161051557565b60405163a9059cbb60e01b60208201526001600160a01b03909216602483015260448083019390935291815260808101916001600160401b038311828410176113bb57612a4a92604052612b18565b9060405191825f825492612c16846128ce565b9081845260019485811690815f14612c7f5750600114612c3f575b5050612a4a9250038361253b565b909391505f52602090815f20935f915b818310612c67575050612a4a93508201015f80612c31565b85548884018501529485019487945091830191612c4f565b915050612a4a94506020925060ff191682840152151560051b8201015f80612c31565b906001600160401b0382116113bb5760405191612cc560208260051b018461253b565b8252565b6001600160601b03908181166103e88111612d505760035492831690808214612d4a576bffffffffffffffffffffffff1990931692909217600355604080516001600160601b0393841681529190921660208201527ffeeddf72b7ee4210b769104cb8b071e5706232ac7f671fb292af429ffd58b58791819081015b0390a1565b50505050565b60405163cd4e616760e01b8152600490fd5b6001600160a01b038116908115610a4157600354918260601c908114612deb576001600160601b03909216606082901b6bffffffffffffffffffffffff191617600355604080516001600160a01b0393841681529290911660208301527faaebcf1bfa00580e41d966056b48521fa9f202645c86d4ddf28113e617c1b1d3919081908101612d45565b50505056fe8531198e5d946af9a770d2eeba00258645e163142d835fe1b04e45f4db720f8ba26469706673582212207996f3802a99837b66f96bca2c1bf39d08d41087916e0a6643891459fc86e06264736f6c63430008140033a8a7bc421f721cb936ea99efdad79237e6ee0b871a2a08cf648691f9584cdc77",
			"opcodes": "PUSH1 0xA0 PUSH1 0x1F PUSH3 0x30A6 CODESIZE DUP2 SWAP1 SUB SWAP2 DUP3 ADD PUSH1 0x1F NOT AND DUP4 ADD SWAP2 SWAP1 PUSH1 0x1 PUSH1 0x1 PUSH1 0x40 SHL SUB DUP4 GT DUP5 DUP5 LT OR PUSH3 0x175 JUMPI DUP2 PUSH1 0x60 SWAP3 DUP6 SWAP3 PUSH1 0x40 SWAP6 DUP7 MSTORE DUP4 CODECOPY DUP2 ADD SUB SLT PUSH3 0x171 JUMPI PUSH3 0x4A DUP3 PUSH3 0x189 JUMP JUMPDEST SWAP2 PUSH3 0x66 DUP3 PUSH3 0x5E PUSH1 0x20 DUP5 ADD PUSH3 0x189 JUMP JUMPDEST SWAP3 ADD PUSH3 0x189 JUMP JUMPDEST PUSH1 0x1 PUSH0 DUP2 SWAP1 SSTORE DUP1 SLOAD PUSH1 0xFF NOT AND SWAP1 SSTORE PUSH1 0x1 PUSH1 0x1 PUSH1 0xA0 SHL SUB SWAP4 DUP5 AND SWAP4 SWAP1 SWAP2 SWAP1 DUP5 ISZERO PUSH3 0x160 JUMPI DUP1 DUP3 AND ISZERO PUSH3 0x160 JUMPI DUP3 AND ISZERO PUSH3 0x14F JUMPI PUSH3 0xBD SWAP3 SWAP4 PUSH1 0x80 MSTORE PUSH1 0x1 DUP1 PUSH1 0x60 SHL SUB NOT SWAP1 PUSH1 0x60 SHL AND PUSH1 0xFA OR PUSH1 0x3 SSTORE PUSH3 0x19E JUMP JUMPDEST POP PUSH0 DUP1 MLOAD PUSH1 0x20 PUSH3 0x3086 DUP4 CODECOPY DUP2 MLOAD SWAP2 MSTORE DUP1 PUSH0 MSTORE PUSH1 0x2 PUSH1 0x20 MSTORE PUSH1 0x1 DUP3 PUSH0 KECCAK256 ADD SWAP2 DUP2 DUP4 SLOAD SWAP4 SSTORE MLOAD SWAP2 DUP2 PUSH32 0xBD79B86FFE0AB8E8776151514217CD7CACD52C909F66475C3AF44E129F0B00FF PUSH0 DUP1 LOG4 PUSH2 0x2E46 SWAP1 DUP2 PUSH3 0x240 DUP3 CODECOPY PUSH1 0x80 MLOAD DUP2 DUP2 DUP2 PUSH2 0x399 ADD MSTORE DUP2 DUP2 PUSH2 0xBC3 ADD MSTORE DUP2 DUP2 PUSH2 0xC2E ADD MSTORE DUP2 DUP2 PUSH2 0x1268 ADD MSTORE DUP2 DUP2 PUSH2 0x177D ADD MSTORE DUP2 DUP2 PUSH2 0x1D02 ADD MSTORE DUP2 DUP2 PUSH2 0x1FAF ADD MSTORE PUSH2 0x218E ADD MSTORE RETURN JUMPDEST DUP3 MLOAD PUSH4 0xE6C4247B PUSH1 0xE0 SHL DUP2 MSTORE PUSH1 0x4 SWAP1 REVERT JUMPDEST DUP4 MLOAD PUSH4 0xE6C4247B PUSH1 0xE0 SHL DUP2 MSTORE PUSH1 0x4 SWAP1 REVERT JUMPDEST PUSH0 DUP1 REVERT JUMPDEST PUSH4 0x4E487B71 PUSH1 0xE0 SHL PUSH0 MSTORE PUSH1 0x41 PUSH1 0x4 MSTORE PUSH1 0x24 PUSH0 REVERT JUMPDEST MLOAD SWAP1 PUSH1 0x1 PUSH1 0x1 PUSH1 0xA0 SHL SUB DUP3 AND DUP3 SUB PUSH3 0x171 JUMPI JUMP JUMPDEST PUSH1 0x1 PUSH1 0x1 PUSH1 0xA0 SHL SUB AND PUSH0 DUP2 DUP2 MSTORE PUSH32 0xEF73BF2AC44F84561B5498839AB1C8C5A4DD99305D838AEA0D76C5961778535C PUSH1 0x20 MSTORE PUSH1 0x40 DUP2 KECCAK256 SLOAD SWAP1 SWAP2 SWAP1 PUSH0 DUP1 MLOAD PUSH1 0x20 PUSH3 0x3086 DUP4 CODECOPY DUP2 MLOAD SWAP2 MSTORE SWAP1 PUSH1 0xFF AND PUSH3 0x23A JUMPI DUP1 DUP4 MSTORE PUSH1 0x2 PUSH1 0x20 MSTORE PUSH1 0x40 DUP4 KECCAK256 DUP3 DUP5 MSTORE PUSH1 0x20 MSTORE PUSH1 0x40 DUP4 KECCAK256 PUSH1 0x1 PUSH1 0xFF NOT DUP3 SLOAD AND OR SWAP1 SSTORE PUSH32 0x2F8788117E7EFF1D82E926EC794901D17C78024A50270940304540A733656F0D CALLER SWAP4 DUP1 LOG4 PUSH1 0x1 SWAP1 JUMP JUMPDEST POP POP SWAP1 JUMP INVALID PUSH1 0x80 DUP1 PUSH1 0x40 MSTORE PUSH1 0x4 CALLDATASIZE LT ISZERO PUSH2 0x12 JUMPI PUSH0 DUP1 REVERT JUMPDEST PUSH0 SWAP1 DUP2 CALLDATALOAD PUSH1 0xE0 SHR SWAP1 DUP2 PUSH4 0x1FFC9A7 EQ PUSH2 0x24CA JUMPI POP DUP1 PUSH4 0x3F715DA EQ PUSH2 0x23B8 JUMPI DUP1 PUSH4 0xE59A395 EQ PUSH2 0x2213 JUMPI DUP1 PUSH4 0x18CF2834 EQ PUSH2 0x21D8 JUMPI DUP1 PUSH4 0x1A1AAEED EQ PUSH2 0x206D JUMPI DUP1 PUSH4 0x22DCD13E EQ PUSH2 0x2046 JUMPI DUP1 PUSH4 0x248A9CA3 EQ PUSH2 0x2019 JUMPI DUP1 PUSH4 0x24D956C8 EQ PUSH2 0x1E4D JUMPI DUP1 PUSH4 0x2F2FF15D EQ PUSH2 0x1E0F JUMPI DUP1 PUSH4 0x317B8C5B EQ PUSH2 0x1DD9 JUMPI DUP1 PUSH4 0x36568ABE EQ PUSH2 0x1D91 JUMPI DUP1 PUSH4 0x38A13287 EQ PUSH2 0x1BCF JUMPI DUP1 PUSH4 0x3F4BA83A EQ PUSH2 0x1B3A JUMPI DUP1 PUSH4 0x46904840 EQ PUSH2 0x1B19 JUMPI DUP1 PUSH4 0x4971716F EQ PUSH2 0x192B JUMPI DUP1 PUSH4 0x5C975ABB EQ PUSH2 0x1908 JUMPI DUP1 PUSH4 0x76492D3F EQ PUSH2 0x1869 JUMPI DUP1 PUSH4 0x8456CB59 EQ PUSH2 0x180F JUMPI DUP1 PUSH4 0x91D14854 EQ PUSH2 0x17C6 JUMPI DUP1 PUSH4 0x95CCEA67 EQ PUSH2 0x174A JUMPI DUP1 PUSH4 0x9B1221AB EQ PUSH2 0x15F5 JUMPI DUP1 PUSH4 0x9F1CF42D EQ PUSH2 0x111A JUMPI DUP1 PUSH4 0x9FAD59B4 EQ PUSH2 0x1077 JUMPI DUP1 PUSH4 0xA0A57DAC EQ PUSH2 0xD33 JUMPI DUP1 PUSH4 0xA217FDDF EQ PUSH2 0xD17 JUMPI DUP1 PUSH4 0xAED1505D EQ PUSH2 0xC9F JUMPI DUP1 PUSH4 0xD547741F EQ PUSH2 0xC5D JUMPI DUP1 PUSH4 0xD6BC7C63 EQ PUSH2 0xC18 JUMPI DUP1 PUSH4 0xE39FFF38 EQ PUSH2 0xA71 JUMPI DUP1 PUSH4 0xE4ABD4CB EQ PUSH2 0x788 JUMPI DUP1 PUSH4 0xE7079180 EQ PUSH2 0x5D6 JUMPI DUP1 PUSH4 0xEF03C10E EQ PUSH2 0x243 JUMPI DUP1 PUSH4 0xF0C3CD20 EQ PUSH2 0x1C3 JUMPI PUSH4 0xF160D369 EQ PUSH2 0x194 JUMPI PUSH0 DUP1 REVERT JUMPDEST CALLVALUE PUSH2 0x1C0 JUMPI PUSH1 0x20 CALLDATASIZE PUSH1 0x3 NOT ADD SLT PUSH2 0x1C0 JUMPI PUSH2 0x1BD PUSH2 0x1B0 PUSH2 0x25C7 JUMP JUMPDEST PUSH2 0x1B8 PUSH2 0x2740 JUMP JUMPDEST PUSH2 0x2D62 JUMP JUMPDEST DUP1 RETURN JUMPDEST DUP1 REVERT JUMPDEST POP CALLVALUE PUSH2 0x1C0 JUMPI PUSH1 0x20 DUP1 PUSH1 0x3 NOT CALLDATASIZE ADD SLT PUSH2 0x23F JUMPI PUSH1 0x1 PUSH1 0x1 PUSH1 0xA0 SHL SUB PUSH2 0x1E6 PUSH2 0x25C7 JUMP JUMPDEST AND DUP3 MSTORE PUSH1 0x5 DUP2 MSTORE PUSH1 0x40 DUP3 KECCAK256 DUP1 SLOAD SWAP1 PUSH2 0x1FD DUP3 PUSH2 0x2CA2 JUMP JUMPDEST SWAP3 DUP1 DUP5 ADD SWAP2 DUP6 MSTORE DUP1 DUP6 KECCAK256 SWAP5 SWAP2 JUMPDEST DUP4 DUP4 LT PUSH2 0x223 JUMPI PUSH1 0x40 MLOAD DUP1 PUSH2 0x21F DUP8 DUP3 PUSH2 0x26BE JUMP JUMPDEST SUB SWAP1 RETURN JUMPDEST PUSH1 0x1 DUP3 DUP2 SWAP3 PUSH2 0x231 DUP10 PUSH2 0x2C03 JUMP JUMPDEST DUP2 MSTORE ADD SWAP7 ADD SWAP3 ADD SWAP2 SWAP5 PUSH2 0x20A JUMP JUMPDEST POP DUP1 REVERT JUMPDEST POP CALLVALUE PUSH2 0x1C0 JUMPI PUSH1 0x60 CALLDATASIZE PUSH1 0x3 NOT ADD SLT PUSH2 0x1C0 JUMPI PUSH1 0x4 CALLDATALOAD PUSH1 0x1 PUSH1 0x1 PUSH1 0x40 SHL SUB DUP2 GT PUSH2 0x23F JUMPI PUSH2 0x274 SWAP1 CALLDATASIZE SWAP1 PUSH1 0x4 ADD PUSH2 0x255C JUMP JUMPDEST PUSH2 0x27C PUSH2 0x25B1 JUMP JUMPDEST PUSH1 0x44 CALLDATALOAD SWAP2 DUP3 ISZERO ISZERO DUP4 SUB PUSH2 0x5D2 JUMPI PUSH2 0x291 PUSH2 0x2AC4 JUMP JUMPDEST PUSH2 0x299 PUSH2 0x2740 JUMP JUMPDEST PUSH2 0x2A1 PUSH2 0x2A80 JUMP JUMPDEST PUSH1 0x40 MLOAD SWAP1 PUSH1 0xFF PUSH1 0x8 DUP3 MLOAD SWAP4 PUSH1 0x20 DUP2 DUP2 DUP7 ADD SWAP7 PUSH2 0x2BE DUP2 DUP4 DUP11 PUSH2 0x2678 JUMP JUMPDEST DUP2 ADD PUSH1 0x4 DUP2 MSTORE SUB ADD SWAP1 KECCAK256 ADD SLOAD PUSH1 0x10 SHR AND ISZERO PUSH2 0x5C0 JUMPI PUSH1 0x40 MLOAD SWAP2 DUP2 MLOAD PUSH2 0x2E4 DUP2 DUP6 DUP5 PUSH2 0x2678 JUMP JUMPDEST DUP4 ADD PUSH1 0x4 DUP2 MSTORE PUSH1 0x1 DUP5 PUSH1 0x20 DUP3 DUP1 PUSH1 0xA0 SHL SUB SWAP7 DUP8 SWAP5 SUB ADD SWAP1 KECCAK256 ADD SLOAD AND DUP4 DUP6 AND SUB PUSH2 0x5AE JUMPI PUSH1 0xFF PUSH1 0x8 PUSH1 0x40 MLOAD PUSH1 0x20 DUP2 DUP7 MLOAD PUSH2 0x31E DUP2 DUP4 DUP10 PUSH2 0x2678 JUMP JUMPDEST DUP2 ADD PUSH1 0x4 DUP2 MSTORE SUB ADD SWAP1 KECCAK256 ADD SLOAD AND PUSH1 0x6 DUP2 LT ISZERO PUSH2 0x59A JUMPI PUSH1 0x3 SUB PUSH2 0x588 JUMPI PUSH1 0x20 PUSH2 0x352 SWAP2 PUSH1 0x40 MLOAD DUP1 SWAP4 DUP2 SWAP3 DUP7 MLOAD SWAP3 DUP4 SWAP2 PUSH2 0x2678 JUMP JUMPDEST DUP2 ADD PUSH1 0x4 DUP2 MSTORE SUB ADD SWAP1 KECCAK256 PUSH1 0x1 PUSH1 0x1 PUSH1 0x60 SHL SUB PUSH1 0x6 DUP3 ADD SLOAD AND SWAP2 DUP4 PUSH1 0x1 DUP4 ADD SLOAD AND SWAP6 DUP5 DUP4 SLOAD AND SWAP3 PUSH1 0x8 PUSH1 0x3 SLOAD SWAP2 ADD PUSH1 0x4 DUP2 SLOAD PUSH2 0xFF00 DUP6 ISZERO ISZERO PUSH1 0x8 SHL AND SWAP1 PUSH2 0xFFFF NOT AND OR OR SWAP1 SSTORE PUSH32 0x0 SWAP6 DUP10 DUP4 PUSH0 EQ PUSH2 0x529 JUMPI POP PUSH2 0x1388 DUP7 MUL SWAP2 PUSH1 0x1 PUSH1 0x1 PUSH1 0x60 SHL SUB DUP4 AND SWAP3 DUP4 SUB PUSH2 0x515 JUMPI DUP10 SWAP2 PUSH2 0x2710 DUP1 SWAP5 DIV SWAP8 DUP9 PUSH2 0x3EC SWAP2 PUSH2 0x2B9B JUMP JUMPDEST SWAP4 PUSH2 0x400 PUSH1 0x1 PUSH1 0x1 PUSH1 0x60 SHL SUB DUP5 AND DUP11 PUSH2 0x2B7D JUMP JUMPDEST PUSH1 0x1 PUSH1 0x1 PUSH1 0x60 SHL SUB AND DIV SWAP8 DUP9 PUSH2 0x415 SWAP2 PUSH2 0x2B9B JUMP JUMPDEST SWAP10 PUSH1 0x1 PUSH1 0x1 PUSH1 0x60 SHL SUB DUP12 AND SWAP3 DUP4 ISZERO ISZERO SWAP11 PUSH2 0x4BB SWAP10 PUSH32 0xEA4EA4B4229888EEBA3EB2772DF89C52AF23C7FE3D530B0C1F2CA146F32C12BA SWAP7 PUSH1 0x60 SWAP7 PUSH0 DUP1 MLOAD PUSH1 0x20 PUSH2 0x2DF1 DUP4 CODECOPY DUP2 MLOAD SWAP2 MSTORE SWAP15 PUSH2 0x504 JUMPI JUMPDEST POP POP PUSH1 0x1 PUSH1 0x1 PUSH1 0x60 SHL SUB DUP9 AND DUP1 PUSH2 0x4F3 JUMPI JUMPDEST POP POP PUSH1 0x1 PUSH1 0x1 PUSH1 0x60 SHL SUB DUP12 AND SWAP1 DUP2 PUSH2 0x4DF JUMPI JUMPDEST POP POP POP JUMPDEST PUSH1 0x1 PUSH1 0x1 PUSH1 0x60 SHL SUB PUSH2 0x49C DUP9 PUSH2 0x2A60 JUMP JUMPDEST SWAP6 PUSH1 0x40 MLOAD SWAP8 ISZERO ISZERO DUP9 MSTORE DUP2 DUP14 AND PUSH1 0x20 DUP10 ADD MSTORE AND PUSH1 0x40 DUP8 ADD MSTORE AND SWAP4 LOG3 PUSH2 0x2A60 JUMP JUMPDEST PUSH1 0x40 DUP1 MLOAD PUSH1 0x1 PUSH1 0x1 PUSH1 0x60 SHL SUB SWAP6 DUP7 AND DUP2 MSTORE SWAP3 SWAP1 SWAP5 AND PUSH1 0x20 DUP4 ADD MSTORE SWAP3 SWAP1 LOG3 PUSH1 0x1 DUP2 SSTORE DUP1 RETURN JUMPDEST PUSH2 0x4EB SWAP3 DUP7 SHR SWAP1 PUSH2 0x2BB4 JUMP JUMPDEST PUSH0 DUP1 DUP1 PUSH2 0x487 JUMP JUMPDEST PUSH2 0x4FD SWAP2 DUP4 PUSH2 0x2BB4 JUMP JUMPDEST PUSH0 DUP1 PUSH2 0x474 JUMP JUMPDEST PUSH2 0x50E SWAP2 DUP5 PUSH2 0x2BB4 JUMP JUMPDEST DUP15 PUSH0 PUSH2 0x462 JUMP JUMPDEST PUSH4 0x4E487B71 PUSH1 0xE0 SHL PUSH0 MSTORE PUSH1 0x11 PUSH1 0x4 MSTORE PUSH1 0x24 PUSH0 REVERT JUMPDEST SWAP2 POP PUSH1 0x60 PUSH32 0xEA4EA4B4229888EEBA3EB2772DF89C52AF23C7FE3D530B0C1F2CA146F32C12BA SWAP2 PUSH2 0x4BB SWAP7 SWAP8 SWAP10 PUSH0 DUP1 MLOAD PUSH1 0x20 PUSH2 0x2DF1 DUP4 CODECOPY DUP2 MLOAD SWAP2 MSTORE SWAP10 DUP6 SWAP12 DUP1 SWAP7 SWAP11 DUP2 PUSH2 0x577 JUMPI JUMPDEST POP POP POP PUSH2 0x48B JUMP JUMPDEST PUSH2 0x580 SWAP3 PUSH2 0x2BB4 JUMP JUMPDEST PUSH0 DUP1 DUP1 PUSH2 0x56F JUMP JUMPDEST PUSH1 0x40 MLOAD PUSH4 0x5E40B94F PUSH1 0xE0 SHL DUP2 MSTORE PUSH1 0x4 SWAP1 REVERT JUMPDEST PUSH4 0x4E487B71 PUSH1 0xE0 SHL DUP8 MSTORE PUSH1 0x21 PUSH1 0x4 MSTORE PUSH1 0x24 DUP8 REVERT JUMPDEST PUSH1 0x40 MLOAD PUSH4 0xEA8E4EB5 PUSH1 0xE0 SHL DUP2 MSTORE PUSH1 0x4 SWAP1 REVERT JUMPDEST PUSH1 0x40 MLOAD PUSH4 0x223DA473 PUSH1 0xE2 SHL DUP2 MSTORE PUSH1 0x4 SWAP1 REVERT JUMPDEST PUSH0 DUP1 REVERT JUMPDEST POP CALLVALUE PUSH2 0x1C0 JUMPI PUSH1 0x20 CALLDATASIZE PUSH1 0x3 NOT ADD SLT PUSH2 0x1C0 JUMPI PUSH1 0x4 CALLDATALOAD SWAP1 PUSH1 0x1 PUSH1 0x1 PUSH1 0x40 SHL SUB DUP3 GT PUSH2 0x1C0 JUMPI PUSH2 0x61F PUSH1 0x20 PUSH2 0x60C CALLDATASIZE PUSH1 0x4 DUP7 ADD PUSH2 0x255C JUMP JUMPDEST DUP2 PUSH1 0x40 MLOAD SWAP4 DUP3 DUP6 DUP1 SWAP5 MLOAD SWAP4 DUP5 SWAP3 ADD PUSH2 0x2678 JUMP JUMPDEST DUP2 ADD PUSH1 0x4 DUP2 MSTORE SUB ADD SWAP1 KECCAK256 PUSH1 0x8 DUP2 ADD SLOAD SWAP1 PUSH1 0xFF DUP3 PUSH1 0x10 SHR AND ISZERO PUSH2 0x5C0 JUMPI DUP1 SLOAD PUSH1 0x1 DUP3 ADD SLOAD PUSH1 0x6 DUP4 ADD SLOAD PUSH1 0x7 DUP5 ADD SLOAD PUSH1 0x1 PUSH1 0x1 PUSH1 0xA0 SHL SUB SWAP3 DUP4 AND SWAP6 SWAP2 SWAP4 SWAP2 SWAP3 SWAP1 SWAP2 AND PUSH2 0x66B PUSH1 0x2 DUP7 ADD PUSH2 0x2C03 JUMP JUMPDEST SWAP5 PUSH2 0x678 PUSH1 0x3 DUP3 ADD PUSH2 0x2C03 JUMP JUMPDEST PUSH2 0x684 PUSH1 0x4 DUP4 ADD PUSH2 0x2C03 JUMP JUMPDEST SWAP2 PUSH1 0x5 ADD PUSH2 0x691 SWAP1 PUSH2 0x2C03 JUMP JUMPDEST SWAP3 PUSH1 0x40 MLOAD SWAP9 DUP10 SWAP9 PUSH2 0x200 DUP1 DUP12 MSTORE DUP11 ADD PUSH2 0x6A9 SWAP2 PUSH2 0x2699 JUMP JUMPDEST SWAP2 PUSH1 0x20 DUP11 ADD MSTORE PUSH1 0x40 DUP10 ADD MSTORE PUSH1 0x1 PUSH1 0x1 PUSH1 0x60 SHL SUB DUP8 AND PUSH1 0x60 DUP10 ADD MSTORE DUP7 PUSH1 0x60 SHR PUSH1 0x1 PUSH1 0x1 PUSH1 0x40 SHL SUB AND PUSH1 0x80 DUP10 ADD MSTORE PUSH1 0xA0 DUP9 ADD PUSH1 0xFF DUP8 AND SWAP1 PUSH2 0x6E7 SWAP2 PUSH2 0x271F JUMP JUMPDEST DUP8 DUP2 SUB PUSH1 0xC0 DUP10 ADD MSTORE PUSH2 0x6F8 SWAP2 PUSH2 0x2699 JUMP JUMPDEST DUP7 DUP2 SUB PUSH1 0xE0 DUP9 ADD MSTORE PUSH2 0x709 SWAP2 PUSH2 0x2699 JUMP JUMPDEST DUP6 DUP2 SUB PUSH2 0x100 DUP8 ADD MSTORE PUSH2 0x71B SWAP2 PUSH2 0x2699 JUMP JUMPDEST SWAP3 DUP2 PUSH1 0x40 SHR PUSH1 0x1 PUSH1 0x1 PUSH1 0x40 SHL SUB AND PUSH2 0x120 DUP7 ADD MSTORE PUSH1 0xA0 SHR PUSH1 0x1 PUSH1 0x1 PUSH1 0x40 SHL SUB AND PUSH2 0x140 DUP6 ADD MSTORE PUSH1 0x1 PUSH1 0x1 PUSH1 0x40 SHL SUB DUP2 AND PUSH2 0x160 DUP6 ADD MSTORE DUP1 PUSH1 0x80 SHR PUSH1 0x1 PUSH1 0x1 PUSH1 0x40 SHL SUB AND PUSH2 0x180 DUP6 ADD MSTORE PUSH1 0xC0 SHR PUSH2 0x1A0 DUP5 ADD MSTORE PUSH1 0x8 SHR PUSH1 0xFF AND ISZERO ISZERO PUSH2 0x1C0 DUP4 ADD MSTORE PUSH2 0x1E0 DUP3 ADD PUSH1 0x1 SWAP1 MSTORE SUB SWAP1 RETURN JUMPDEST POP CALLVALUE PUSH2 0x1C0 JUMPI PUSH1 0xC0 CALLDATASIZE PUSH1 0x3 NOT ADD SLT PUSH2 0x1C0 JUMPI PUSH1 0x1 PUSH1 0x1 PUSH1 0x40 SHL SUB PUSH1 0x4 CALLDATALOAD DUP2 DUP2 GT PUSH2 0xA6D JUMPI PUSH2 0x7BA SWAP1 CALLDATASIZE SWAP1 PUSH1 0x4 ADD PUSH2 0x255C JUMP JUMPDEST PUSH2 0x7C2 PUSH2 0x25B1 JUMP JUMPDEST PUSH1 0x44 CALLDATALOAD PUSH1 0x1 PUSH1 0x1 PUSH1 0xA0 SHL SUB DUP2 AND SWAP4 SWAP2 SWAP1 DUP5 SWAP1 SUB PUSH2 0x5D2 JUMPI PUSH1 0x64 CALLDATALOAD SWAP3 PUSH1 0x1 PUSH1 0x1 PUSH1 0x60 SHL SUB DUP5 AND DUP5 SUB PUSH2 0x5D2 JUMPI DUP3 PUSH1 0x84 CALLDATALOAD AND PUSH1 0x84 CALLDATALOAD SUB PUSH2 0xA69 JUMPI PUSH1 0xA4 CALLDATALOAD DUP4 DUP2 GT PUSH2 0xA65 JUMPI PUSH2 0x812 SWAP1 CALLDATASIZE SWAP1 PUSH1 0x4 ADD PUSH2 0x255C JUMP JUMPDEST SWAP2 PUSH2 0x81B PUSH2 0x2740 JUMP JUMPDEST PUSH2 0x823 PUSH2 0x2A80 JUMP JUMPDEST PUSH1 0xFF PUSH1 0x8 PUSH1 0x40 MLOAD PUSH1 0x20 DUP2 DUP7 MLOAD PUSH2 0x83C DUP2 DUP4 DUP6 DUP12 ADD PUSH2 0x2678 JUMP JUMPDEST DUP2 ADD PUSH1 0x4 DUP2 MSTORE SUB ADD SWAP1 KECCAK256 ADD SLOAD PUSH1 0x10 SHR AND PUSH2 0xA53 JUMPI DUP6 ISZERO PUSH2 0xA41 JUMPI PUSH1 0x1 PUSH1 0x1 PUSH1 0xA0 SHL SUB AND SWAP4 DUP5 ISZERO PUSH2 0xA41 JUMPI DUP6 DUP6 EQ PUSH2 0xA2F JUMPI PUSH1 0x1 PUSH1 0x1 PUSH1 0x60 SHL SUB DUP2 AND ISZERO PUSH2 0xA1D JUMPI TIMESTAMP DUP5 PUSH1 0x84 CALLDATALOAD AND GT ISZERO PUSH2 0xA0B JUMPI DUP3 MLOAD ISZERO PUSH2 0x9F9 JUMPI PUSH2 0x9BE PUSH1 0x40 SWAP3 PUSH32 0xCEB1A488BE98B2739817F21E7D3B0A343434519CD0FE4DB3EF5FC27A96E8D295 SWAP5 PUSH2 0x937 DUP6 MLOAD PUSH1 0x20 DUP2 DUP6 MLOAD PUSH2 0x8CE DUP2 DUP4 DUP6 DUP11 ADD PUSH2 0x2678 JUMP JUMPDEST DUP2 ADD PUSH1 0x4 DUP2 MSTORE SUB ADD SWAP1 KECCAK256 SWAP2 PUSH2 0x8E6 DUP5 PUSH1 0x2 DUP6 ADD PUSH2 0x291C JUMP JUMPDEST DUP3 SLOAD PUSH1 0x1 PUSH1 0x1 PUSH1 0xA0 SHL SUB NOT SWAP1 DUP2 AND DUP12 OR DUP5 SSTORE PUSH1 0x1 DUP5 ADD DUP1 SLOAD DUP3 AND DUP14 OR SWAP1 SSTORE PUSH1 0x6 DUP5 ADD DUP1 SLOAD SWAP1 SWAP2 AND PUSH1 0x1 PUSH1 0x1 PUSH1 0x60 SHL SUB DUP9 AND OR PUSH1 0x84 CALLDATALOAD PUSH1 0x60 SHL PUSH8 0xFFFFFFFFFFFFFFFF PUSH1 0x60 SHL AND OR SWAP1 SSTORE PUSH1 0x3 DUP4 ADD PUSH2 0x291C JUMP JUMPDEST PUSH1 0x8 DUP2 ADD DUP1 SLOAD PUSH1 0xFF NOT AND DUP2 SSTORE PUSH1 0x7 DUP3 ADD DUP1 SLOAD PUSH1 0x1 PUSH1 0x1 PUSH1 0xC0 SHL SUB AND TIMESTAMP PUSH1 0xC0 SHL PUSH1 0x1 PUSH1 0x1 PUSH1 0xC0 SHL SUB NOT AND OR SWAP1 SSTORE PUSH1 0x4 SWAP2 SWAP1 SWAP2 ADD DUP1 SLOAD PUSH0 SWAP2 SWAP1 PUSH2 0x977 SWAP1 PUSH2 0x28CE JUMP JUMPDEST PUSH1 0x1F DUP2 GT PUSH2 0x9DA JUMPI JUMPDEST POP SSTORE PUSH3 0x10000 PUSH3 0xFF0000 NOT DUP3 SLOAD AND OR SWAP1 SSTORE DUP7 DUP10 MSTORE PUSH1 0x5 PUSH1 0x20 MSTORE PUSH2 0x9A5 DUP2 DUP6 DUP12 KECCAK256 PUSH2 0x2A18 JUMP JUMPDEST DUP8 DUP10 MSTORE PUSH1 0x6 PUSH1 0x20 MSTORE PUSH2 0x9B9 DUP2 DUP6 DUP12 KECCAK256 PUSH2 0x2A18 JUMP JUMPDEST PUSH2 0x2A60 JUMP JUMPDEST SWAP4 PUSH1 0x1 PUSH1 0x1 PUSH1 0x60 SHL SUB DUP4 MLOAD SWAP3 AND DUP3 MSTORE PUSH1 0x84 CALLDATALOAD AND PUSH1 0x20 DUP3 ADD MSTORE LOG4 DUP1 RETURN JUMPDEST DUP2 DUP4 MSTORE PUSH1 0x20 DUP4 KECCAK256 PUSH2 0x9F3 SWAP2 PUSH1 0x1F ADD PUSH1 0x5 SHR DUP2 ADD SWAP1 PUSH2 0x2906 JUMP JUMPDEST PUSH0 PUSH2 0x980 JUMP JUMPDEST PUSH1 0x40 MLOAD PUSH4 0x7E4DD01 PUSH1 0xE3 SHL DUP2 MSTORE PUSH1 0x4 SWAP1 REVERT JUMPDEST PUSH1 0x40 MLOAD PUSH4 0x642CE77 PUSH1 0xE0 SHL DUP2 MSTORE PUSH1 0x4 SWAP1 REVERT JUMPDEST PUSH1 0x40 MLOAD PUSH4 0x5E85AE73 PUSH1 0xE0 SHL DUP2 MSTORE PUSH1 0x4 SWAP1 REVERT JUMPDEST PUSH1 0x40 MLOAD PUSH4 0x24DA0345 PUSH1 0xE2 SHL DUP2 MSTORE PUSH1 0x4 SWAP1 REVERT JUMPDEST PUSH1 0x40 MLOAD PUSH4 0xE6C4247B PUSH1 0xE0 SHL DUP2 MSTORE PUSH1 0x4 SWAP1 REVERT JUMPDEST PUSH1 0x40 MLOAD PUSH4 0x38A6A807 PUSH1 0xE1 SHL DUP2 MSTORE PUSH1 0x4 SWAP1 REVERT JUMPDEST DUP7 DUP1 REVERT JUMPDEST DUP6 DUP1 REVERT JUMPDEST DUP3 DUP1 REVERT JUMPDEST POP CALLVALUE PUSH2 0x1C0 JUMPI PUSH1 0x20 DUP1 PUSH1 0x3 NOT CALLDATASIZE ADD SLT PUSH2 0x23F JUMPI PUSH1 0x1 PUSH1 0x1 PUSH1 0x40 SHL SUB SWAP1 PUSH1 0x4 CALLDATALOAD DUP3 DUP2 GT PUSH2 0xC14 JUMPI PUSH2 0xAA5 SWAP1 CALLDATASIZE SWAP1 PUSH1 0x4 ADD PUSH2 0x255C JUMP JUMPDEST PUSH2 0xAAD PUSH2 0x2AC4 JUMP JUMPDEST PUSH2 0xAB5 PUSH2 0x2740 JUMP JUMPDEST PUSH2 0xABD PUSH2 0x2A80 JUMP JUMPDEST PUSH1 0x40 MLOAD PUSH1 0xFF PUSH1 0x8 DUP4 MLOAD SWAP3 DUP6 DUP2 DUP2 DUP8 ADD SWAP6 PUSH2 0xAD8 DUP2 DUP4 DUP10 PUSH2 0x2678 JUMP JUMPDEST DUP2 ADD PUSH1 0x4 DUP2 MSTORE SUB ADD SWAP1 KECCAK256 ADD SLOAD PUSH1 0x10 SHR AND ISZERO PUSH2 0x5C0 JUMPI PUSH1 0xFF PUSH1 0x8 PUSH1 0x40 MLOAD DUP6 DUP2 DUP7 MLOAD PUSH2 0xB03 DUP2 DUP4 DUP10 PUSH2 0x2678 JUMP JUMPDEST DUP2 ADD PUSH1 0x4 DUP2 MSTORE SUB ADD SWAP1 KECCAK256 ADD SLOAD AND PUSH1 0x6 DUP2 LT ISZERO PUSH2 0xC00 JUMPI PUSH1 0x1 SUB PUSH2 0x588 JUMPI DUP3 PUSH2 0xB36 SWAP2 PUSH1 0x40 MLOAD DUP1 SWAP4 DUP2 SWAP3 DUP7 MLOAD SWAP3 DUP4 SWAP2 PUSH2 0x2678 JUMP JUMPDEST DUP2 ADD PUSH1 0x4 DUP2 MSTORE SUB ADD SWAP1 KECCAK256 SWAP3 PUSH1 0x6 DUP5 ADD SLOAD SWAP1 DUP2 PUSH1 0x60 SHR AND TIMESTAMP GT ISZERO PUSH2 0xBEE JUMPI PUSH1 0x8 DUP5 ADD DUP1 SLOAD PUSH1 0xFF NOT AND PUSH1 0x5 OR SWAP1 SSTORE PUSH1 0x1 PUSH1 0x1 PUSH1 0x60 SHL SUB AND SWAP3 PUSH32 0xB559D285C87E4FA0F561388264310703FF0C6C454A39AE52D0AE94032FF0DB70 SWAP2 PUSH2 0xBA0 SWAP2 DUP6 DUP1 PUSH2 0xBB1 JUMPI JUMPDEST POP POP PUSH2 0x2A60 JUMP JUMPDEST SWAP2 PUSH1 0x40 MLOAD SWAP4 DUP5 MSTORE CALLER SWAP4 LOG3 PUSH1 0x1 DUP2 SSTORE DUP1 RETURN JUMPDEST SWAP1 SLOAD PUSH2 0xBE7 SWAP2 SWAP1 PUSH1 0x1 PUSH1 0x1 PUSH1 0xA0 SHL SUB AND PUSH32 0x0 PUSH2 0x2BB4 JUMP JUMPDEST PUSH0 DUP6 PUSH2 0xB99 JUMP JUMPDEST PUSH1 0x40 MLOAD PUSH4 0x2EB3543 PUSH1 0xE4 SHL DUP2 MSTORE PUSH1 0x4 SWAP1 REVERT JUMPDEST PUSH4 0x4E487B71 PUSH1 0xE0 SHL DUP7 MSTORE PUSH1 0x21 PUSH1 0x4 MSTORE PUSH1 0x24 DUP7 REVERT JUMPDEST DUP4 DUP1 REVERT JUMPDEST POP CALLVALUE PUSH2 0x1C0 JUMPI DUP1 PUSH1 0x3 NOT CALLDATASIZE ADD SLT PUSH2 0x1C0 JUMPI PUSH1 0x40 MLOAD PUSH32 0x0 PUSH1 0x1 PUSH1 0x1 PUSH1 0xA0 SHL SUB AND DUP2 MSTORE PUSH1 0x20 SWAP1 RETURN JUMPDEST POP CALLVALUE PUSH2 0x1C0 JUMPI PUSH1 0x40 CALLDATASIZE PUSH1 0x3 NOT ADD SLT PUSH2 0x1C0 JUMPI PUSH2 0xC9B PUSH1 0x4 CALLDATALOAD PUSH2 0xC7D PUSH2 0x25B1 JUMP JUMPDEST SWAP1 DUP1 DUP5 MSTORE PUSH1 0x2 PUSH1 0x20 MSTORE PUSH2 0xC96 PUSH1 0x1 PUSH1 0x40 DUP7 KECCAK256 ADD SLOAD PUSH2 0x27B9 JUMP JUMPDEST PUSH2 0x2859 JUMP JUMPDEST POP DUP1 RETURN JUMPDEST POP CALLVALUE PUSH2 0x1C0 JUMPI PUSH1 0x20 DUP1 PUSH1 0x3 NOT CALLDATASIZE ADD SLT PUSH2 0x23F JUMPI PUSH1 0x1 PUSH1 0x1 PUSH1 0xA0 SHL SUB PUSH2 0xCC2 PUSH2 0x25C7 JUMP JUMPDEST AND DUP3 MSTORE PUSH1 0x6 DUP2 MSTORE PUSH1 0x40 DUP3 KECCAK256 DUP1 SLOAD SWAP1 PUSH2 0xCD9 DUP3 PUSH2 0x2CA2 JUMP JUMPDEST SWAP3 DUP1 DUP5 ADD SWAP2 DUP6 MSTORE DUP1 DUP6 KECCAK256 SWAP5 SWAP2 JUMPDEST DUP4 DUP4 LT PUSH2 0xCFB JUMPI PUSH1 0x40 MLOAD DUP1 PUSH2 0x21F DUP8 DUP3 PUSH2 0x26BE JUMP JUMPDEST PUSH1 0x1 DUP3 DUP2 SWAP3 PUSH2 0xD09 DUP10 PUSH2 0x2C03 JUMP JUMPDEST DUP2 MSTORE ADD SWAP7 ADD SWAP3 ADD SWAP2 SWAP5 PUSH2 0xCE6 JUMP JUMPDEST POP CALLVALUE PUSH2 0x1C0 JUMPI DUP1 PUSH1 0x3 NOT CALLDATASIZE ADD SLT PUSH2 0x1C0 JUMPI PUSH1 0x20 SWAP1 PUSH1 0x40 MLOAD SWAP1 DUP2 MSTORE RETURN JUMPDEST POP CALLVALUE PUSH2 0x1C0 JUMPI PUSH1 0x20 CALLDATASIZE PUSH1 0x3 NOT ADD SLT PUSH2 0x1C0 JUMPI PUSH1 0x4 CALLDATALOAD PUSH1 0x1 PUSH1 0x1 PUSH1 0x40 SHL SUB DUP2 GT PUSH2 0x23F JUMPI PUSH1 0x20 PUSH2 0xD69 PUSH2 0xDEE SWAP3 CALLDATASIZE SWAP1 PUSH1 0x4 ADD PUSH2 0x255C JUMP JUMPDEST DUP4 PUSH2 0x1E0 PUSH1 0x40 MLOAD PUSH2 0xD79 DUP2 PUSH2 0x251F JUMP JUMPDEST DUP3 DUP2 MSTORE DUP3 DUP6 DUP3 ADD MSTORE PUSH1 0x60 PUSH1 0x40 DUP3 ADD MSTORE PUSH1 0x60 DUP1 DUP3 ADD MSTORE PUSH1 0x60 PUSH1 0x80 DUP3 ADD MSTORE PUSH1 0x60 PUSH1 0xA0 DUP3 ADD MSTORE DUP3 PUSH1 0xC0 DUP3 ADD MSTORE DUP3 PUSH1 0xE0 DUP3 ADD MSTORE DUP3 PUSH2 0x100 DUP3 ADD MSTORE DUP3 PUSH2 0x120 DUP3 ADD MSTORE DUP3 PUSH2 0x140 DUP3 ADD MSTORE DUP3 PUSH2 0x160 DUP3 ADD MSTORE DUP3 PUSH2 0x180 DUP3 ADD MSTORE DUP3 PUSH2 0x1A0 DUP3 ADD MSTORE DUP3 PUSH2 0x1C0 DUP3 ADD MSTORE ADD MSTORE DUP2 PUSH1 0x40 MLOAD SWAP4 DUP3 DUP6 DUP1 SWAP5 MLOAD SWAP4 DUP5 SWAP3 ADD PUSH2 0x2678 JUMP JUMPDEST DUP2 ADD PUSH1 0x4 DUP2 MSTORE SUB ADD SWAP1 KECCAK256 SWAP1 PUSH1 0x8 PUSH1 0x40 MLOAD SWAP3 PUSH2 0xE08 DUP5 PUSH2 0x251F JUMP JUMPDEST DUP1 SLOAD PUSH1 0x1 PUSH1 0x1 PUSH1 0xA0 SHL SUB SWAP1 DUP2 AND DUP6 MSTORE PUSH1 0x1 DUP3 ADD SLOAD AND PUSH1 0x20 DUP6 ADD MSTORE PUSH2 0xE2E PUSH1 0x2 DUP3 ADD PUSH2 0x2C03 JUMP JUMPDEST PUSH1 0x40 DUP6 ADD MSTORE PUSH2 0xE3F PUSH1 0x3 DUP3 ADD PUSH2 0x2C03 JUMP JUMPDEST PUSH1 0x60 DUP6 ADD MSTORE PUSH2 0xE50 PUSH1 0x4 DUP3 ADD PUSH2 0x2C03 JUMP JUMPDEST PUSH1 0x80 DUP6 ADD MSTORE PUSH2 0xE61 PUSH1 0x5 DUP3 ADD PUSH2 0x2C03 JUMP JUMPDEST PUSH1 0xA0 DUP6 ADD MSTORE PUSH1 0x1 PUSH1 0x1 PUSH1 0x40 SHL SUB PUSH1 0x6 DUP3 ADD SLOAD PUSH1 0x1 PUSH1 0x1 PUSH1 0x60 SHL SUB DUP2 AND PUSH1 0xC0 DUP8 ADD MSTORE DUP2 DUP2 PUSH1 0x60 SHR AND PUSH1 0xE0 DUP8 ADD MSTORE PUSH1 0xA0 SHR AND PUSH2 0x100 DUP6 ADD MSTORE PUSH1 0x7 DUP2 ADD SLOAD PUSH1 0x1 PUSH1 0x1 PUSH1 0x40 SHL SUB DUP2 AND PUSH2 0x120 DUP7 ADD MSTORE PUSH1 0x1 PUSH1 0x1 PUSH1 0x40 SHL SUB DUP2 PUSH1 0x40 SHR AND PUSH2 0x140 DUP7 ADD MSTORE PUSH1 0x1 PUSH1 0x1 PUSH1 0x40 SHL SUB DUP2 PUSH1 0x80 SHR AND PUSH2 0x160 DUP7 ADD MSTORE PUSH1 0xC0 SHR PUSH2 0x180 DUP6 ADD MSTORE ADD SLOAD SWAP1 PUSH1 0x6 PUSH1 0xFF DUP4 AND LT ISZERO PUSH2 0x1063 JUMPI POP DUP1 PUSH1 0xFF DUP1 SWAP3 AND PUSH2 0x1A0 DUP5 ADD MSTORE DUP2 DUP2 PUSH1 0x8 SHR AND ISZERO ISZERO PUSH2 0x1C0 DUP5 ADD MSTORE PUSH1 0x10 SHR AND ISZERO ISZERO PUSH2 0x1E0 DUP3 ADD MSTORE PUSH1 0x40 MLOAD DUP1 SWAP2 PUSH1 0x20 DUP3 MSTORE PUSH1 0x1 DUP1 PUSH1 0xA0 SHL SUB DUP2 MLOAD AND PUSH1 0x20 DUP4 ADD MSTORE PUSH1 0x1 DUP1 PUSH1 0xA0 SHL SUB PUSH1 0x20 DUP3 ADD MLOAD AND PUSH1 0x40 DUP4 ADD MSTORE PUSH2 0x1E0 PUSH2 0xFA4 PUSH2 0xF5C PUSH1 0x40 DUP5 ADD MLOAD PUSH2 0x200 PUSH1 0x60 DUP8 ADD MSTORE PUSH2 0x220 DUP7 ADD SWAP1 PUSH2 0x2699 JUMP JUMPDEST PUSH2 0xF8F PUSH2 0xF7B PUSH1 0x60 DUP7 ADD MLOAD SWAP3 PUSH1 0x1F NOT SWAP4 DUP5 DUP10 DUP4 SUB ADD PUSH1 0x80 DUP11 ADD MSTORE PUSH2 0x2699 JUMP JUMPDEST PUSH1 0x80 DUP7 ADD MLOAD DUP4 DUP9 DUP4 SUB ADD PUSH1 0xA0 DUP10 ADD MSTORE PUSH2 0x2699 JUMP JUMPDEST SWAP1 PUSH1 0xA0 DUP6 ADD MLOAD SWAP1 DUP7 DUP4 SUB ADD PUSH1 0xC0 DUP8 ADD MSTORE PUSH2 0x2699 JUMP JUMPDEST SWAP2 PUSH1 0x1 PUSH1 0x1 PUSH1 0x60 SHL SUB PUSH1 0xC0 DUP3 ADD MLOAD AND PUSH1 0xE0 DUP6 ADD MSTORE PUSH1 0x1 PUSH1 0x1 PUSH1 0x40 SHL SUB PUSH1 0xE0 DUP3 ADD MLOAD AND PUSH2 0x100 DUP6 ADD MSTORE PUSH1 0x1 PUSH1 0x1 PUSH1 0x40 SHL SUB PUSH2 0x100 DUP3 ADD MLOAD AND PUSH2 0x120 DUP6 ADD MSTORE PUSH1 0x1 PUSH1 0x1 PUSH1 0x40 SHL SUB PUSH2 0x120 DUP3 ADD MLOAD AND PUSH2 0x140 DUP6 ADD MSTORE PUSH1 0x1 PUSH1 0x1 PUSH1 0x40 SHL SUB PUSH2 0x140 DUP3 ADD MLOAD AND PUSH2 0x160 DUP6 ADD MSTORE PUSH1 0x1 PUSH1 0x1 PUSH1 0x40 SHL SUB PUSH2 0x160 DUP3 ADD MLOAD AND PUSH2 0x180 DUP6 ADD MSTORE PUSH1 0x1 PUSH1 0x1 PUSH1 0x40 SHL SUB PUSH2 0x180 DUP3 ADD MLOAD AND PUSH2 0x1A0 DUP6 ADD MSTORE PUSH2 0x1049 PUSH2 0x1A0 DUP3 ADD MLOAD PUSH2 0x1C0 DUP7 ADD SWAP1 PUSH2 0x271F JUMP JUMPDEST PUSH2 0x1C0 DUP2 ADD MLOAD ISZERO ISZERO DUP3 DUP6 ADD MSTORE ADD MLOAD ISZERO ISZERO PUSH2 0x200 DUP4 ADD MSTORE SUB SWAP1 RETURN JUMPDEST PUSH4 0x4E487B71 PUSH1 0xE0 SHL DUP2 MSTORE PUSH1 0x21 PUSH1 0x4 MSTORE PUSH1 0x24 SWAP1 REVERT JUMPDEST POP CALLVALUE PUSH2 0x1C0 JUMPI PUSH1 0x40 CALLDATASIZE PUSH1 0x3 NOT ADD SLT PUSH2 0x1C0 JUMPI PUSH2 0x1091 PUSH2 0x25C7 JUMP JUMPDEST PUSH1 0x24 CALLDATALOAD DUP1 ISZERO ISZERO DUP2 SUB PUSH2 0x5D2 JUMPI ISZERO PUSH2 0x1101 JUMPI PUSH1 0x1 PUSH1 0x1 PUSH1 0xA0 SHL SUB AND DUP2 MSTORE PUSH1 0x5 PUSH1 0x20 MSTORE PUSH1 0x40 DUP2 KECCAK256 JUMPDEST DUP1 SLOAD PUSH2 0x10C2 DUP2 PUSH2 0x2CA2 JUMP JUMPDEST SWAP2 DUP4 MSTORE PUSH1 0x20 DUP1 DUP5 KECCAK256 SWAP4 SWAP1 DUP1 DUP5 ADD JUMPDEST DUP4 DUP4 LT PUSH2 0x10E5 JUMPI PUSH1 0x40 MLOAD DUP1 PUSH2 0x21F DUP8 DUP3 PUSH2 0x26BE JUMP JUMPDEST PUSH1 0x1 DUP3 DUP2 SWAP3 PUSH2 0x10F3 DUP10 PUSH2 0x2C03 JUMP JUMPDEST DUP2 MSTORE ADD SWAP7 ADD SWAP3 ADD SWAP2 SWAP5 PUSH2 0x10D0 JUMP JUMPDEST PUSH1 0x1 PUSH1 0x1 PUSH1 0xA0 SHL SUB AND DUP2 MSTORE PUSH1 0x6 PUSH1 0x20 MSTORE PUSH1 0x40 DUP2 KECCAK256 PUSH2 0x10B7 JUMP JUMPDEST POP CALLVALUE PUSH2 0x1C0 JUMPI PUSH1 0xE0 CALLDATASIZE PUSH1 0x3 NOT ADD SLT PUSH2 0x1C0 JUMPI PUSH1 0x1 PUSH1 0x1 PUSH1 0x40 SHL SUB PUSH1 0x4 CALLDATALOAD DUP2 DUP2 GT PUSH2 0xA6D JUMPI PUSH2 0x114C SWAP1 CALLDATASIZE SWAP1 PUSH1 0x4 ADD PUSH2 0x255C JUMP JUMPDEST SWAP1 PUSH2 0x1155 PUSH2 0x25B1 JUMP JUMPDEST SWAP1 PUSH1 0x44 CALLDATALOAD SWAP2 PUSH1 0x1 PUSH1 0x1 PUSH1 0x60 SHL SUB DUP4 AND DUP1 SWAP4 SUB PUSH2 0x15F1 JUMPI PUSH1 0x84 CALLDATALOAD PUSH1 0xFF DUP2 AND DUP1 SWAP2 SUB PUSH2 0xA69 JUMPI PUSH2 0x1181 PUSH2 0x2AC4 JUMP JUMPDEST PUSH2 0x1189 PUSH2 0x2740 JUMP JUMPDEST PUSH2 0x1191 PUSH2 0x2A80 JUMP JUMPDEST PUSH1 0x40 MLOAD SWAP5 DUP6 SWAP3 PUSH1 0xFF PUSH1 0x8 DUP6 DUP5 MLOAD PUSH1 0x20 SWAP8 DUP2 PUSH2 0x11B1 DUP11 SWAP4 DUP5 DUP11 ADD SWAP15 DUP16 PUSH2 0x2678 JUMP JUMPDEST DUP2 ADD PUSH1 0x4 DUP2 MSTORE SUB ADD SWAP1 KECCAK256 ADD SLOAD PUSH1 0x10 SHR AND ISZERO PUSH2 0x5C0 JUMPI PUSH1 0x40 MLOAD SWAP3 DUP3 MLOAD PUSH2 0x11D7 DUP2 DUP7 DUP12 PUSH2 0x2678 JUMP JUMPDEST DUP5 ADD PUSH1 0x4 DUP2 MSTORE DUP5 DUP7 PUSH1 0x1 DUP1 PUSH1 0xA0 SHL SUB SWAP7 DUP8 SWAP4 SUB ADD SWAP1 KECCAK256 SLOAD AND SWAP8 DUP5 DUP4 AND DUP1 SWAP10 SUB PUSH2 0x5AE JUMPI PUSH1 0xFF PUSH1 0x8 PUSH1 0x40 MLOAD DUP9 DUP2 DUP9 MLOAD PUSH2 0x1210 DUP2 DUP4 DUP10 PUSH2 0x2678 JUMP JUMPDEST DUP2 ADD PUSH1 0x4 DUP2 MSTORE SUB ADD SWAP1 KECCAK256 ADD SLOAD AND PUSH1 0x6 DUP2 LT ISZERO PUSH2 0x15DD JUMPI PUSH2 0x588 JUMPI DUP4 MLOAD ISZERO PUSH2 0x15CB JUMPI DUP8 ISZERO PUSH2 0x15B9 JUMPI PUSH2 0x124F DUP7 PUSH1 0x6 SWAP3 PUSH1 0x40 MLOAD DUP1 SWAP4 DUP2 SWAP3 DUP10 MLOAD SWAP3 DUP4 SWAP2 PUSH2 0x2678 JUMP JUMPDEST DUP2 ADD PUSH1 0x4 DUP2 MSTORE SUB ADD SWAP1 KECCAK256 ADD SWAP2 DUP7 DUP4 SLOAD PUSH1 0xA0 SHR AND PUSH2 0x15A7 JUMPI PUSH32 0x0 SWAP5 DUP6 AND SWAP1 PUSH1 0x40 MLOAD PUSH4 0x70A08231 PUSH1 0xE0 SHL DUP2 MSTORE DUP11 PUSH1 0x4 DUP3 ADD MSTORE DUP8 DUP2 PUSH1 0x24 DUP2 DUP7 GAS STATICCALL DUP1 ISZERO PUSH2 0x159C JUMPI DUP11 SWAP2 DUP14 SWAP2 PUSH2 0x1567 JUMPI JUMPDEST POP LT PUSH2 0x1555 JUMPI DUP7 SWAP2 DUP4 ISZERO DUP1 ISZERO SWAP1 PUSH2 0x154A JUMPI JUMPDEST DUP1 ISZERO PUSH2 0x153F JUMPI JUMPDEST PUSH2 0x141D JUMPI JUMPDEST PUSH1 0x40 MLOAD PUSH4 0x6EB1769F PUSH1 0xE1 SHL DUP2 MSTORE PUSH1 0x1 PUSH1 0x1 PUSH1 0xA0 SHL SUB SWAP1 SWAP3 AND PUSH1 0x4 DUP4 ADD MSTORE ADDRESS PUSH1 0x24 DUP4 ADD MSTORE SWAP1 SWAP3 POP DUP3 SWAP1 DUP2 DUP1 PUSH1 0x44 DUP2 ADD JUMPDEST SUB SWAP2 GAS STATICCALL DUP1 ISZERO PUSH2 0x1412 JUMPI DUP8 SWAP2 DUP11 SWAP2 PUSH2 0x13E1 JUMPI JUMPDEST POP LT PUSH2 0x13CF JUMPI PUSH1 0x40 MLOAD PUSH4 0x23B872DD PUSH1 0xE0 SHL DUP6 DUP3 ADD MSTORE PUSH1 0x24 DUP2 ADD DUP9 SWAP1 MSTORE ADDRESS PUSH1 0x44 DUP3 ADD MSTORE PUSH1 0x64 DUP1 DUP3 ADD DUP9 SWAP1 MSTORE DUP2 MSTORE SWAP5 PUSH1 0xA0 DUP7 ADD SWAP1 DUP2 GT DUP7 DUP3 LT OR PUSH2 0x13BB JUMPI PUSH32 0x2C138F65913CD3B9CA6F36E4B59E26830A033A978CA69F935781972E6DF1F61D SWAP6 PUSH2 0x13AC SWAP5 PUSH2 0x1383 SWAP3 PUSH1 0x40 MSTORE PUSH2 0x2B18 JUMP JUMPDEST DUP1 SLOAD PUSH8 0xFFFFFFFFFFFFFFFF PUSH1 0xA0 SHL NOT AND TIMESTAMP PUSH1 0xA0 SHL PUSH8 0xFFFFFFFFFFFFFFFF PUSH1 0xA0 SHL AND OR SWAP1 SSTORE PUSH2 0x2A60 JUMP JUMPDEST SWAP3 PUSH1 0x40 MLOAD SWAP1 DUP2 MSTORE LOG3 PUSH1 0x1 DUP2 SSTORE DUP1 RETURN JUMPDEST PUSH4 0x4E487B71 PUSH1 0xE0 SHL PUSH0 MSTORE PUSH1 0x41 PUSH1 0x4 MSTORE PUSH1 0x24 PUSH0 REVERT JUMPDEST PUSH1 0x40 MLOAD PUSH4 0x13BE252B PUSH1 0xE0 SHL DUP2 MSTORE PUSH1 0x4 SWAP1 REVERT JUMPDEST DUP1 SWAP3 POP DUP7 DUP1 SWAP3 POP RETURNDATASIZE DUP4 GT PUSH2 0x140B JUMPI JUMPDEST PUSH2 0x13FA DUP2 DUP4 PUSH2 0x253B JUMP JUMPDEST DUP2 ADD SUB SLT PUSH2 0x5D2 JUMPI DUP7 SWAP1 MLOAD PUSH0 PUSH2 0x1315 JUMP JUMPDEST POP RETURNDATASIZE PUSH2 0x13F0 JUMP JUMPDEST PUSH1 0x40 MLOAD RETURNDATASIZE DUP12 DUP3 RETURNDATACOPY RETURNDATASIZE SWAP1 REVERT JUMPDEST DUP1 SWAP3 POP SWAP3 SWAP1 SWAP3 EXTCODESIZE ISZERO PUSH2 0x153B JUMPI PUSH1 0x40 MLOAD SWAP1 PUSH4 0xD505ACCF PUSH1 0xE0 SHL DUP3 MSTORE DUP11 PUSH1 0x4 DUP4 ADD MSTORE ADDRESS PUSH1 0x24 DUP4 ADD MSTORE DUP10 PUSH1 0x44 DUP4 ADD MSTORE PUSH1 0x64 CALLDATALOAD PUSH1 0x64 DUP4 ADD MSTORE PUSH1 0x84 DUP3 ADD MSTORE PUSH1 0xA4 CALLDATALOAD PUSH1 0xA4 DUP3 ADD MSTORE PUSH1 0xC4 CALLDATALOAD PUSH1 0xC4 DUP3 ADD MSTORE DUP11 DUP2 PUSH1 0xE4 DUP2 DUP4 DUP7 GAS CALL SWAP1 DUP2 PUSH2 0x1513 JUMPI JUMPDEST POP PUSH2 0x148D JUMPI PUSH1 0x40 MLOAD PUSH4 0xB78CB0DD PUSH1 0xE0 SHL DUP2 MSTORE PUSH1 0x4 SWAP1 REVERT JUMPDEST PUSH1 0x40 MLOAD PUSH4 0x6EB1769F PUSH1 0xE1 SHL DUP2 MSTORE PUSH1 0x1 PUSH1 0x1 PUSH1 0xA0 SHL SUB DUP4 AND PUSH1 0x4 DUP3 ADD MSTORE ADDRESS PUSH1 0x24 DUP3 ADD MSTORE DUP7 DUP2 PUSH1 0x44 DUP2 DUP6 GAS STATICCALL DUP1 ISZERO PUSH2 0x1508 JUMPI DUP10 SWAP2 DUP13 SWAP2 PUSH2 0x14D7 JUMPI JUMPDEST POP LT PUSH2 0x13CF JUMPI PUSH2 0x1302 SWAP2 DUP7 SWAP2 PUSH2 0x12D3 JUMP JUMPDEST DUP1 SWAP3 POP DUP9 DUP1 SWAP3 POP RETURNDATASIZE DUP4 GT PUSH2 0x1501 JUMPI JUMPDEST PUSH2 0x14F0 DUP2 DUP4 PUSH2 0x253B JUMP JUMPDEST DUP2 ADD SUB SLT PUSH2 0x5D2 JUMPI DUP9 SWAP1 MLOAD PUSH0 PUSH2 0x14C6 JUMP JUMPDEST POP RETURNDATASIZE PUSH2 0x14E6 JUMP JUMPDEST PUSH1 0x40 MLOAD RETURNDATASIZE DUP14 DUP3 RETURNDATACOPY RETURNDATASIZE SWAP1 REVERT JUMPDEST DUP9 DUP2 SWAP13 SWAP3 SWAP13 GT PUSH2 0x1527 JUMPI PUSH1 0x40 MSTORE SWAP10 PUSH0 PUSH2 0x1476 JUMP JUMPDEST PUSH4 0x4E487B71 PUSH1 0xE0 SHL DUP3 MSTORE PUSH1 0x41 PUSH1 0x4 MSTORE PUSH1 0x24 DUP3 REVERT JUMPDEST DUP11 DUP1 REVERT JUMPDEST POP PUSH1 0xC4 CALLDATALOAD ISZERO ISZERO PUSH2 0x12CE JUMP JUMPDEST POP PUSH1 0xA4 CALLDATALOAD ISZERO ISZERO PUSH2 0x12C7 JUMP JUMPDEST PUSH1 0x40 MLOAD PUSH4 0x1E9ACF17 PUSH1 0xE3 SHL DUP2 MSTORE PUSH1 0x4 SWAP1 REVERT JUMPDEST DUP1 SWAP3 POP DUP10 DUP1 SWAP3 POP RETURNDATASIZE DUP4 GT PUSH2 0x1595 JUMPI JUMPDEST PUSH2 0x1580 DUP2 DUP4 PUSH2 0x253B JUMP JUMPDEST DUP2 ADD SUB SLT PUSH2 0x1591 JUMPI DUP10 SWAP1 MLOAD PUSH0 PUSH2 0x12B5 JUMP JUMPDEST DUP12 DUP1 REVERT JUMPDEST POP RETURNDATASIZE PUSH2 0x1576 JUMP JUMPDEST PUSH1 0x40 MLOAD RETURNDATASIZE DUP15 DUP3 RETURNDATACOPY RETURNDATASIZE SWAP1 REVERT JUMPDEST PUSH1 0x40 MLOAD PUSH4 0x1924FCEB PUSH1 0xE3 SHL DUP2 MSTORE PUSH1 0x4 SWAP1 REVERT JUMPDEST PUSH1 0x40 MLOAD PUSH4 0x162908E3 PUSH1 0xE1 SHL DUP2 MSTORE PUSH1 0x4 SWAP1 REVERT JUMPDEST PUSH1 0x40 MLOAD PUSH4 0x5F0BE7AF PUSH1 0xE0 SHL DUP2 MSTORE PUSH1 0x4 SWAP1 REVERT JUMPDEST PUSH4 0x4E487B71 PUSH1 0xE0 SHL DUP12 MSTORE PUSH1 0x21 PUSH1 0x4 MSTORE PUSH1 0x24 DUP12 REVERT JUMPDEST DUP5 DUP1 REVERT JUMPDEST POP CALLVALUE PUSH2 0x1C0 JUMPI PUSH2 0x1604 CALLDATASIZE PUSH2 0x25DD JUMP JUMPDEST SWAP1 PUSH2 0x160D PUSH2 0x2740 JUMP JUMPDEST PUSH2 0x1615 PUSH2 0x2A80 JUMP JUMPDEST PUSH1 0x40 MLOAD PUSH1 0xFF PUSH1 0x8 DUP4 MLOAD SWAP3 PUSH1 0x20 DUP2 DUP2 DUP8 ADD SWAP6 PUSH2 0x1631 DUP2 DUP4 DUP10 PUSH2 0x2678 JUMP JUMPDEST DUP2 ADD PUSH1 0x4 DUP2 MSTORE SUB ADD SWAP1 KECCAK256 ADD SLOAD PUSH1 0x10 SHR AND ISZERO PUSH2 0x5C0 JUMPI PUSH1 0x40 MLOAD DUP3 MLOAD PUSH2 0x1656 DUP2 DUP4 DUP6 PUSH2 0x2678 JUMP JUMPDEST PUSH1 0x4 SWAP1 DUP3 ADD SWAP1 DUP2 MSTORE DUP2 SWAP1 SUB PUSH1 0x20 ADD SWAP1 KECCAK256 PUSH1 0x1 ADD SLOAD PUSH1 0x1 PUSH1 0x1 PUSH1 0xA0 SHL SUB SWAP4 DUP5 AND SWAP4 AND DUP4 SWAP1 SUB PUSH2 0x5AE JUMPI PUSH1 0xFF PUSH1 0x8 PUSH1 0x40 MLOAD PUSH1 0x20 DUP2 DUP7 MLOAD PUSH2 0x1695 DUP2 DUP4 DUP10 PUSH2 0x2678 JUMP JUMPDEST DUP2 ADD PUSH1 0x4 DUP2 MSTORE SUB ADD SWAP1 KECCAK256 ADD SLOAD AND PUSH1 0x6 DUP2 LT ISZERO PUSH2 0x1736 JUMPI PUSH2 0x588 JUMPI PUSH1 0x20 PUSH2 0x16C6 SWAP2 PUSH1 0x40 MLOAD DUP1 SWAP4 DUP2 SWAP3 DUP7 MLOAD SWAP3 DUP4 SWAP2 PUSH2 0x2678 JUMP JUMPDEST DUP2 ADD PUSH1 0x4 DUP2 MSTORE SUB ADD SWAP1 KECCAK256 SWAP1 PUSH1 0x1 PUSH1 0x1 PUSH1 0x40 SHL SUB PUSH1 0x6 DUP4 ADD SLOAD PUSH1 0xA0 SHR AND ISZERO PUSH2 0x1724 JUMPI PUSH1 0x8 PUSH2 0x16FE SWAP3 ADD PUSH1 0x1 PUSH1 0xFF NOT DUP3 SLOAD AND OR SWAP1 SSTORE PUSH2 0x2A60 JUMP JUMPDEST PUSH31 0xCAEC7345D2EB04A42197AC2A2CD7CD74A00B2991B69BB53E23465D4092FDFB DUP4 DUP1 LOG3 DUP1 RETURN JUMPDEST PUSH1 0x40 MLOAD PUSH4 0x47510BBD PUSH1 0xE1 SHL DUP2 MSTORE PUSH1 0x4 SWAP1 REVERT JUMPDEST PUSH4 0x4E487B71 PUSH1 0xE0 SHL DUP6 MSTORE PUSH1 0x21 PUSH1 0x4 MSTORE PUSH1 0x24 DUP6 REVERT JUMPDEST POP CALLVALUE PUSH2 0x1C0 JUMPI PUSH1 0x40 CALLDATASIZE PUSH1 0x3 NOT ADD SLT PUSH2 0x1C0 JUMPI PUSH2 0x1764 PUSH2 0x25C7 JUMP JUMPDEST PUSH1 0x24 CALLDATALOAD PUSH2 0x176F PUSH2 0x2740 JUMP JUMPDEST PUSH1 0x1 PUSH1 0x1 PUSH1 0xA0 SHL SUB SWAP2 DUP3 AND SWAP2 PUSH32 0x0 AND DUP3 EQ PUSH2 0x17B4 JUMPI DUP1 ISZERO PUSH2 0x15B9 JUMPI PUSH2 0x1BD SWAP2 CALLER SWAP1 PUSH2 0x2BB4 JUMP JUMPDEST PUSH1 0x40 MLOAD PUSH4 0x18BA2FC1 PUSH1 0xE3 SHL DUP2 MSTORE PUSH1 0x4 SWAP1 REVERT JUMPDEST POP CALLVALUE PUSH2 0x1C0 JUMPI PUSH1 0x40 CALLDATASIZE PUSH1 0x3 NOT ADD SLT PUSH2 0x1C0 JUMPI PUSH1 0xFF PUSH1 0x40 PUSH1 0x20 SWAP3 PUSH2 0x17E7 PUSH2 0x25B1 JUMP JUMPDEST PUSH1 0x4 CALLDATALOAD DUP3 MSTORE PUSH1 0x2 DUP6 MSTORE DUP3 DUP3 KECCAK256 PUSH1 0x1 PUSH1 0x1 PUSH1 0xA0 SHL SUB SWAP1 SWAP2 AND DUP3 MSTORE DUP5 MSTORE KECCAK256 SLOAD PUSH1 0x40 MLOAD SWAP2 AND ISZERO ISZERO DUP2 MSTORE RETURN JUMPDEST POP CALLVALUE PUSH2 0x1C0 JUMPI DUP1 PUSH1 0x3 NOT CALLDATASIZE ADD SLT PUSH2 0x1C0 JUMPI PUSH2 0x1828 PUSH2 0x2740 JUMP JUMPDEST PUSH2 0x1830 PUSH2 0x2A80 JUMP JUMPDEST PUSH1 0x1 PUSH1 0xFF NOT DUP2 SLOAD AND OR PUSH1 0x1 SSTORE PUSH32 0x62E78CEA01BEE320CD4E420270B5EA74000D11B0C9F74754EBDBFC544B05A258 PUSH1 0x20 PUSH1 0x40 MLOAD CALLER DUP2 MSTORE LOG1 DUP1 RETURN JUMPDEST POP CALLVALUE PUSH2 0x1C0 JUMPI PUSH1 0x20 CALLDATASIZE PUSH1 0x3 NOT ADD SLT PUSH2 0x1C0 JUMPI PUSH1 0x1 PUSH1 0x1 PUSH1 0x40 SHL SUB PUSH1 0x4 CALLDATALOAD DUP2 DUP2 GT PUSH2 0xA6D JUMPI PUSH1 0x20 PUSH2 0x60C PUSH2 0x18A0 SWAP3 CALLDATASIZE SWAP1 PUSH1 0x4 ADD PUSH2 0x255C JUMP JUMPDEST DUP2 ADD PUSH1 0x4 DUP2 MSTORE SUB ADD SWAP1 KECCAK256 SWAP1 PUSH1 0x8 DUP3 ADD SLOAD SWAP2 PUSH1 0xFF DUP4 PUSH1 0x10 SHR AND SWAP3 DUP4 PUSH2 0x18EA JUMPI JUMPDEST POP PUSH1 0x20 SWAP4 POP DUP3 PUSH2 0x18D6 JUMPI JUMPDEST POP POP PUSH1 0x40 MLOAD SWAP1 ISZERO ISZERO DUP2 MSTORE RETURN JUMPDEST PUSH1 0x7 ADD SLOAD PUSH1 0x40 SHR AND TIMESTAMP LT ISZERO SWAP1 POP PUSH0 DUP1 PUSH2 0x18CA JUMP JUMPDEST PUSH1 0xFF SWAP2 SWAP4 POP AND SWAP3 PUSH1 0x6 DUP5 LT ISZERO PUSH2 0x1063 JUMPI POP PUSH1 0x2 PUSH1 0x20 SWAP4 EQ SWAP2 PUSH0 PUSH2 0x18BF JUMP JUMPDEST POP CALLVALUE PUSH2 0x1C0 JUMPI DUP1 PUSH1 0x3 NOT CALLDATASIZE ADD SLT PUSH2 0x1C0 JUMPI PUSH1 0x20 PUSH1 0xFF PUSH1 0x1 SLOAD AND PUSH1 0x40 MLOAD SWAP1 ISZERO ISZERO DUP2 MSTORE RETURN JUMPDEST POP CALLVALUE PUSH2 0x1C0 JUMPI PUSH2 0x193A CALLDATASIZE PUSH2 0x261E JUMP JUMPDEST PUSH2 0x1945 SWAP3 SWAP2 SWAP3 PUSH2 0x2740 JUMP JUMPDEST PUSH2 0x194D PUSH2 0x2A80 JUMP JUMPDEST PUSH1 0x40 MLOAD DUP3 MLOAD PUSH1 0xFF PUSH1 0x8 PUSH1 0x20 SWAP4 DUP5 DUP2 DUP2 DUP10 ADD SWAP6 PUSH2 0x196A DUP2 DUP4 DUP10 PUSH2 0x2678 JUMP JUMPDEST DUP2 ADD PUSH1 0x4 DUP2 MSTORE SUB ADD SWAP1 KECCAK256 ADD SLOAD PUSH1 0x10 SHR AND ISZERO PUSH2 0x5C0 JUMPI PUSH1 0x40 MLOAD DUP5 MLOAD PUSH2 0x198F DUP2 DUP4 DUP6 PUSH2 0x2678 JUMP JUMPDEST PUSH1 0x4 SWAP1 DUP3 ADD SWAP1 DUP2 MSTORE DUP2 SWAP1 SUB DUP4 ADD SWAP1 KECCAK256 PUSH1 0x1 ADD SLOAD PUSH1 0x1 PUSH1 0x1 PUSH1 0xA0 SHL SUB SWAP6 DUP7 AND SWAP6 AND DUP6 SWAP1 SUB PUSH2 0x5AE JUMPI PUSH1 0xFF PUSH1 0x8 PUSH1 0x40 MLOAD DUP5 DUP2 DUP9 MLOAD PUSH2 0x19CC DUP2 DUP4 DUP10 PUSH2 0x2678 JUMP JUMPDEST DUP2 ADD PUSH1 0x4 DUP2 MSTORE SUB ADD SWAP1 KECCAK256 ADD SLOAD AND PUSH1 0x6 DUP2 LT ISZERO PUSH2 0x59A JUMPI PUSH1 0x1 SUB PUSH2 0x588 JUMPI DUP2 PUSH2 0x19FF SWAP2 PUSH1 0x40 MLOAD DUP1 SWAP4 DUP2 SWAP3 DUP9 MLOAD SWAP3 DUP4 SWAP2 PUSH2 0x2678 JUMP JUMPDEST DUP2 ADD PUSH1 0x4 DUP2 MSTORE SUB ADD SWAP1 KECCAK256 PUSH1 0x1 PUSH1 0x1 PUSH1 0x40 SHL SUB SWAP1 DUP2 PUSH1 0x6 DUP3 ADD SLOAD PUSH1 0x60 SHR AND TIMESTAMP GT PUSH2 0x1B07 JUMPI DUP4 MLOAD ISZERO PUSH2 0x1AF5 JUMPI PUSH1 0x8 DUP2 ADD PUSH1 0x2 PUSH1 0xFF NOT DUP3 SLOAD AND OR SWAP1 SSTORE PUSH1 0x7 DUP2 ADD SWAP1 DUP2 SLOAD PUSH3 0x3F480 TIMESTAMP ADD DUP1 TIMESTAMP GT PUSH2 0x1AE1 JUMPI SWAP3 PUSH2 0x1AB7 DUP8 PUSH1 0x4 PUSH2 0x1AC2 SWAP6 PUSH32 0x934109F661B65DBCCFFCAE4F7EE04261EB7B36E5136E1CA86DDE1B00598CB031 SWAP11 SWAP9 SWAP6 PUSH16 0xFFFFFFFFFFFFFFFF0000000000000000 PUSH2 0x1AD7 SWAP12 SWAP10 PUSH1 0x40 SHL AND SWAP1 DUP8 TIMESTAMP AND SWAP1 PUSH16 0xFFFFFFFFFFFFFFFFFFFFFFFFFFFFFFFF NOT AND OR OR DUP6 SSTORE ADD PUSH2 0x291C JUMP JUMPDEST SLOAD PUSH1 0x40 SHR AND SWAP6 PUSH2 0x2A60 JUMP JUMPDEST SWAP5 PUSH1 0x40 MLOAD SWAP4 DUP5 SWAP4 PUSH1 0x40 DUP6 MSTORE PUSH1 0x40 DUP6 ADD SWAP1 PUSH2 0x2699 JUMP JUMPDEST SWAP2 DUP4 ADD MSTORE SUB SWAP1 LOG3 DUP1 RETURN JUMPDEST PUSH4 0x4E487B71 PUSH1 0xE0 SHL DUP11 MSTORE PUSH1 0x11 PUSH1 0x4 MSTORE PUSH1 0x24 DUP11 REVERT JUMPDEST PUSH1 0x40 MLOAD PUSH4 0x361178C7 PUSH1 0xE0 SHL DUP2 MSTORE PUSH1 0x4 SWAP1 REVERT JUMPDEST PUSH1 0x40 MLOAD PUSH4 0x764B8E33 PUSH1 0xE1 SHL DUP2 MSTORE PUSH1 0x4 SWAP1 REVERT JUMPDEST POP CALLVALUE PUSH2 0x1C0 JUMPI DUP1 PUSH1 0x3 NOT CALLDATASIZE ADD SLT PUSH2 0x1C0 JUMPI PUSH1 0x20 PUSH1 0x3 SLOAD PUSH1 0x60 SHR PUSH1 0x40 MLOAD SWAP1 DUP2 MSTORE RETURN JUMPDEST POP CALLVALUE PUSH2 0x1C0 JUMPI DUP1 PUSH1 0x3 NOT CALLDATASIZE ADD SLT PUSH2 0x1C0 JUMPI PUSH2 0x1B53 PUSH2 0x2740 JUMP JUMPDEST PUSH1 0x1 SLOAD PUSH1 0xFF DUP2 AND ISZERO PUSH2 0x1B93 JUMPI PUSH1 0xFF NOT AND PUSH1 0x1 SSTORE PUSH32 0x5DB9EE0A495BF2E6FF9C91A7834C1BA4FDD244A5E8AA4E537BD38AEAE4B073AA PUSH1 0x20 PUSH1 0x40 MLOAD CALLER DUP2 MSTORE LOG1 DUP1 RETURN JUMPDEST PUSH1 0x40 MLOAD PUSH3 0x461BCD PUSH1 0xE5 SHL DUP2 MSTORE PUSH1 0x20 PUSH1 0x4 DUP3 ADD MSTORE PUSH1 0x14 PUSH1 0x24 DUP3 ADD MSTORE PUSH20 0x14185D5CD8589B194E881B9BDD081C185D5CD959 PUSH1 0x62 SHL PUSH1 0x44 DUP3 ADD MSTORE PUSH1 0x64 SWAP1 REVERT JUMPDEST POP CALLVALUE PUSH2 0x1C0 JUMPI PUSH1 0x20 CALLDATASIZE PUSH1 0x3 NOT ADD SLT PUSH2 0x1C0 JUMPI PUSH1 0x1 PUSH1 0x1 PUSH1 0x40 SHL SUB PUSH1 0x4 CALLDATALOAD DUP2 DUP2 GT PUSH2 0xA6D JUMPI PUSH2 0x1C01 SWAP1 CALLDATASIZE SWAP1 PUSH1 0x4 ADD PUSH2 0x255C JUMP JUMPDEST SWAP1 PUSH2 0x1C0A PUSH2 0x2AC4 JUMP JUMPDEST PUSH2 0x1C12 PUSH2 0x2740 JUMP JUMPDEST PUSH2 0x1C1A PUSH2 0x2A80 JUMP JUMPDEST PUSH1 0x40 MLOAD PUSH1 0xFF PUSH1 0x8 DUP5 MLOAD SWAP3 PUSH1 0x20 DUP2 DUP2 DUP9 ADD SWAP6 PUSH2 0x1C36 DUP2 DUP4 DUP10 PUSH2 0x2678 JUMP JUMPDEST DUP2 ADD PUSH1 0x4 DUP2 MSTORE SUB ADD SWAP1 KECCAK256 ADD SLOAD PUSH1 0x10 SHR AND ISZERO PUSH2 0x5C0 JUMPI PUSH1 0xFF PUSH1 0x8 PUSH1 0x40 MLOAD PUSH1 0x20 DUP2 DUP8 MLOAD PUSH2 0x1C62 DUP2 DUP4 DUP10 PUSH2 0x2678 JUMP JUMPDEST DUP2 ADD PUSH1 0x4 DUP2 MSTORE SUB ADD SWAP1 KECCAK256 ADD SLOAD AND PUSH1 0x6 DUP2 LT ISZERO PUSH2 0x1736 JUMPI PUSH1 0x2 SUB PUSH2 0x588 JUMPI PUSH1 0x20 PUSH2 0x1C96 SWAP2 PUSH1 0x40 MLOAD DUP1 SWAP4 DUP2 SWAP3 DUP8 MLOAD SWAP3 DUP4 SWAP2 PUSH2 0x2678 JUMP JUMPDEST DUP2 ADD PUSH1 0x4 DUP2 MSTORE SUB ADD SWAP1 KECCAK256 SWAP1 PUSH1 0x7 DUP3 ADD SLOAD PUSH1 0x40 SHR AND TIMESTAMP LT PUSH2 0x1D7F JUMPI PUSH0 DUP1 MLOAD PUSH1 0x20 PUSH2 0x2DF1 DUP4 CODECOPY DUP2 MLOAD SWAP2 MSTORE PUSH1 0x1 PUSH1 0x1 PUSH1 0x60 SHL SUB SWAP2 PUSH2 0x4BB DUP4 PUSH1 0x6 DUP4 ADD SLOAD AND SWAP2 PUSH2 0x1CF0 PUSH2 0x2710 DUP7 PUSH2 0x1CE7 DUP2 PUSH1 0x3 SLOAD AND DUP8 PUSH2 0x2B7D JUMP JUMPDEST AND DIV DUP1 SWAP5 PUSH2 0x2B9B JUMP JUMPDEST PUSH1 0x8 DUP3 ADD DUP1 SLOAD PUSH1 0xFF NOT AND PUSH1 0x4 OR SWAP1 SSTORE SWAP5 PUSH32 0x0 SWAP1 DUP1 DUP8 AND DUP1 PUSH2 0x1D60 JUMPI JUMPDEST POP DUP5 AND DUP1 PUSH2 0x1D49 JUMPI JUMPDEST POP POP PUSH1 0x1 ADD SLOAD PUSH1 0x1 PUSH1 0x1 PUSH1 0xA0 SHL SUB AND SWAP5 PUSH2 0x2A60 JUMP JUMPDEST PUSH2 0x1D59 SWAP2 PUSH1 0x3 SLOAD PUSH1 0x60 SHR SWAP1 PUSH2 0x2BB4 JUMP JUMPDEST PUSH0 DUP1 PUSH2 0x1D34 JUMP JUMPDEST PUSH1 0x1 DUP5 ADD SLOAD PUSH2 0x1D79 SWAP2 SWAP1 PUSH1 0x1 PUSH1 0x1 PUSH1 0xA0 SHL SUB AND DUP5 PUSH2 0x2BB4 JUMP JUMPDEST PUSH0 PUSH2 0x1D2B JUMP JUMPDEST PUSH1 0x40 MLOAD PUSH4 0x2D6BF645 PUSH1 0xE0 SHL DUP2 MSTORE PUSH1 0x4 SWAP1 REVERT JUMPDEST POP CALLVALUE PUSH2 0x1C0 JUMPI PUSH1 0x40 CALLDATASIZE PUSH1 0x3 NOT ADD SLT PUSH2 0x1C0 JUMPI PUSH2 0x1DAB PUSH2 0x25B1 JUMP JUMPDEST CALLER PUSH1 0x1 PUSH1 0x1 PUSH1 0xA0 SHL SUB DUP3 AND SUB PUSH2 0x1DC7 JUMPI PUSH2 0xC9B SWAP1 PUSH1 0x4 CALLDATALOAD PUSH2 0x2859 JUMP JUMPDEST PUSH1 0x40 MLOAD PUSH4 0x334BD919 PUSH1 0xE1 SHL DUP2 MSTORE PUSH1 0x4 SWAP1 REVERT JUMPDEST POP CALLVALUE PUSH2 0x1C0 JUMPI PUSH1 0x20 CALLDATASIZE PUSH1 0x3 NOT ADD SLT PUSH2 0x1C0 JUMPI PUSH1 0x4 CALLDATALOAD PUSH1 0x1 PUSH1 0x1 PUSH1 0x60 SHL SUB DUP2 AND DUP2 SUB PUSH2 0x23F JUMPI PUSH2 0x1BD SWAP1 PUSH2 0x1E0A PUSH2 0x2740 JUMP JUMPDEST PUSH2 0x2CC9 JUMP JUMPDEST POP CALLVALUE PUSH2 0x1C0 JUMPI PUSH1 0x40 CALLDATASIZE PUSH1 0x3 NOT ADD SLT PUSH2 0x1C0 JUMPI PUSH2 0xC9B PUSH1 0x4 CALLDATALOAD PUSH2 0x1E2F PUSH2 0x25B1 JUMP JUMPDEST SWAP1 DUP1 DUP5 MSTORE PUSH1 0x2 PUSH1 0x20 MSTORE PUSH2 0x1E48 PUSH1 0x1 PUSH1 0x40 DUP7 KECCAK256 ADD SLOAD PUSH2 0x27B9 JUMP JUMPDEST PUSH2 0x27DB JUMP JUMPDEST POP CALLVALUE PUSH2 0x1C0 JUMPI PUSH2 0x1E5C CALLDATASIZE PUSH2 0x25DD JUMP JUMPDEST PUSH2 0x1E64 PUSH2 0x2AC4 JUMP JUMPDEST PUSH2 0x1E6C PUSH2 0x2740 JUMP JUMPDEST PUSH2 0x1E74 PUSH2 0x2A80 JUMP JUMPDEST PUSH1 0x40 MLOAD PUSH1 0xFF PUSH1 0x8 DUP5 MLOAD SWAP3 PUSH1 0x20 DUP2 DUP2 DUP9 ADD SWAP6 PUSH2 0x1E90 DUP2 DUP4 DUP10 PUSH2 0x2678 JUMP JUMPDEST DUP2 ADD PUSH1 0x4 DUP2 MSTORE SUB ADD SWAP1 KECCAK256 ADD SLOAD PUSH1 0x10 SHR AND ISZERO PUSH2 0x5C0 JUMPI PUSH1 0x20 PUSH1 0x40 MLOAD DUP5 MLOAD PUSH2 0x1EB7 DUP2 DUP4 DUP7 PUSH2 0x2678 JUMP JUMPDEST DUP2 ADD PUSH1 0x4 DUP2 MSTORE DUP2 PUSH1 0x1 DUP1 PUSH1 0xA0 SHL SUB SWAP4 DUP5 SWAP4 DUP5 SWAP4 SUB ADD SWAP1 KECCAK256 SLOAD AND SWAP4 AND DUP1 SWAP4 SUB PUSH2 0x5AE JUMPI PUSH1 0xFF PUSH1 0x8 PUSH1 0x40 MLOAD PUSH1 0x20 DUP2 DUP9 MLOAD PUSH2 0x1EF0 DUP2 DUP4 DUP11 PUSH2 0x2678 JUMP JUMPDEST DUP2 ADD PUSH1 0x4 DUP2 MSTORE SUB ADD SWAP1 KECCAK256 ADD SLOAD AND PUSH1 0x6 DUP2 LT ISZERO PUSH2 0xC00 JUMPI PUSH1 0x2 SUB PUSH2 0x588 JUMPI PUSH2 0x4BB PUSH2 0x1F35 PUSH1 0x20 PUSH0 DUP1 MLOAD PUSH1 0x20 PUSH2 0x2DF1 DUP4 CODECOPY DUP2 MLOAD SWAP2 MSTORE SWAP5 PUSH1 0x40 MLOAD DUP1 SWAP4 DUP2 SWAP3 DUP11 MLOAD SWAP3 DUP4 SWAP2 PUSH2 0x2678 JUMP JUMPDEST DUP2 ADD PUSH1 0x4 DUP2 MSTORE SUB ADD SWAP1 KECCAK256 SWAP2 PUSH1 0x1 PUSH1 0x1 PUSH1 0x1 PUSH1 0x60 SHL SUB SWAP4 DUP5 PUSH1 0x6 DUP3 ADD SLOAD AND SWAP5 PUSH2 0x1F71 PUSH2 0x2710 DUP3 PUSH2 0x1F68 DUP2 PUSH1 0x3 SLOAD AND DUP11 PUSH2 0x2B7D JUMP JUMPDEST AND DIV DUP1 SWAP8 PUSH2 0x2B9B JUMP JUMPDEST PUSH1 0x8 DUP4 ADD DUP1 SLOAD PUSH1 0xFF NOT AND PUSH1 0x4 OR SWAP1 SSTORE SWAP8 PUSH2 0x1F8A DUP11 PUSH2 0x2A60 JUMP JUMPDEST PUSH31 0xCAEC7345D2EB04A42197AC2A2CD7CD74A00B2991B69BB53E23465D4092FDFB DUP13 DUP1 LOG3 PUSH32 0x0 SWAP1 DUP1 DUP10 AND DUP1 PUSH2 0x2003 JUMPI JUMPDEST POP DUP7 AND DUP1 PUSH2 0x1FEC JUMPI JUMPDEST POP POP ADD SLOAD AND SWAP5 PUSH2 0x2A60 JUMP JUMPDEST PUSH2 0x1FFC SWAP2 PUSH1 0x3 SLOAD PUSH1 0x60 SHR SWAP1 PUSH2 0x2BB4 JUMP JUMPDEST PUSH0 DUP1 PUSH2 0x1FE1 JUMP JUMPDEST PUSH2 0x2013 SWAP1 DUP7 DUP7 DUP7 ADD SLOAD AND DUP5 PUSH2 0x2BB4 JUMP JUMPDEST PUSH0 PUSH2 0x1FD8 JUMP JUMPDEST POP CALLVALUE PUSH2 0x1C0 JUMPI PUSH1 0x20 CALLDATASIZE PUSH1 0x3 NOT ADD SLT PUSH2 0x1C0 JUMPI PUSH1 0x1 PUSH1 0x40 PUSH1 0x20 SWAP3 PUSH1 0x4 CALLDATALOAD DUP2 MSTORE PUSH1 0x2 DUP5 MSTORE KECCAK256 ADD SLOAD PUSH1 0x40 MLOAD SWAP1 DUP2 MSTORE RETURN JUMPDEST POP CALLVALUE PUSH2 0x1C0 JUMPI DUP1 PUSH1 0x3 NOT CALLDATASIZE ADD SLT PUSH2 0x1C0 JUMPI PUSH1 0x20 PUSH1 0x1 PUSH1 0x1 PUSH1 0x60 SHL SUB PUSH1 0x3 SLOAD AND PUSH1 0x40 MLOAD SWAP1 DUP2 MSTORE RETURN JUMPDEST POP CALLVALUE PUSH2 0x1C0 JUMPI PUSH1 0x20 CALLDATASIZE PUSH1 0x3 NOT ADD SLT PUSH2 0x1C0 JUMPI PUSH1 0x4 CALLDATALOAD PUSH1 0x1 PUSH1 0x1 PUSH1 0x40 SHL SUB DUP2 GT PUSH2 0x23F JUMPI PUSH2 0x209E SWAP1 CALLDATASIZE SWAP1 PUSH1 0x4 ADD PUSH2 0x255C JUMP JUMPDEST PUSH2 0x20A6 PUSH2 0x2AC4 JUMP JUMPDEST PUSH2 0x20AE PUSH2 0x2740 JUMP JUMPDEST PUSH1 0x40 MLOAD PUSH1 0xFF PUSH1 0x8 DUP4 MLOAD SWAP3 PUSH1 0x20 DUP2 DUP2 DUP8 ADD SWAP6 PUSH2 0x20CA DUP2 DUP4 DUP10 PUSH2 0x2678 JUMP JUMPDEST DUP2 ADD PUSH1 0x4 DUP2 MSTORE SUB ADD SWAP1 KECCAK256 ADD SLOAD PUSH1 0x10 SHR AND ISZERO PUSH2 0x5C0 JUMPI PUSH1 0x20 PUSH2 0x20F6 SWAP2 PUSH1 0x40 MLOAD DUP1 SWAP4 DUP2 SWAP3 DUP7 MLOAD SWAP3 DUP4 SWAP2 PUSH2 0x2678 JUMP JUMPDEST DUP2 ADD PUSH1 0x4 DUP2 MSTORE SUB ADD SWAP1 KECCAK256 SWAP1 PUSH1 0x8 DUP3 ADD SWAP1 DUP2 SLOAD SWAP3 PUSH1 0xFF DUP5 AND PUSH1 0x6 DUP2 LT ISZERO PUSH2 0xC00 JUMPI PUSH1 0x1 DUP2 SUB PUSH2 0x21B9 JUMPI JUMPDEST POP PUSH2 0x2149 SWAP3 PUSH1 0x5 PUSH1 0x1 PUSH1 0x1 PUSH1 0x60 SHL SUB PUSH1 0x6 DUP5 ADD SLOAD AND SWAP6 PUSH1 0xFF NOT AND OR SWAP1 SSTORE DUP4 DUP1 PUSH2 0x217C JUMPI POP POP PUSH2 0x2A60 JUMP JUMPDEST PUSH1 0x40 MLOAD SWAP2 DUP3 MSTORE PUSH32 0xB559D285C87E4FA0F561388264310703FF0C6C454A39AE52D0AE94032FF0DB70 PUSH1 0x20 CALLER SWAP4 LOG3 PUSH1 0x1 DUP2 SSTORE DUP1 RETURN JUMPDEST SWAP1 SLOAD PUSH2 0x21B2 SWAP2 SWAP1 PUSH1 0x1 PUSH1 0x1 PUSH1 0xA0 SHL SUB AND PUSH32 0x0 PUSH2 0x2BB4 JUMP JUMPDEST PUSH0 DUP4 PUSH2 0xB99 JUMP JUMPDEST PUSH1 0x2 SUB PUSH2 0x21C6 JUMPI PUSH0 PUSH2 0x211F JUMP JUMPDEST PUSH1 0x40 MLOAD PUSH4 0x4DF0CAD PUSH1 0xE3 SHL DUP2 MSTORE PUSH1 0x4 SWAP1 REVERT JUMPDEST POP CALLVALUE PUSH2 0x1C0 JUMPI DUP1 PUSH1 0x3 NOT CALLDATASIZE ADD SLT PUSH2 0x1C0 JUMPI PUSH1 0x20 PUSH1 0x40 MLOAD PUSH32 0xA8A7BC421F721CB936EA99EFDAD79237E6EE0B871A2A08CF648691F9584CDC77 DUP2 MSTORE RETURN JUMPDEST POP CALLVALUE PUSH2 0x1C0 JUMPI PUSH2 0x2222 CALLDATASIZE PUSH2 0x261E JUMP JUMPDEST SWAP1 SWAP2 PUSH2 0x222C PUSH2 0x2740 JUMP JUMPDEST PUSH2 0x2234 PUSH2 0x2A80 JUMP JUMPDEST PUSH1 0x40 MLOAD SWAP2 DUP2 MLOAD PUSH1 0xFF PUSH1 0x8 PUSH1 0x20 SWAP6 DUP7 DUP2 DUP2 DUP9 ADD SWAP6 PUSH2 0x2252 DUP2 DUP4 DUP10 PUSH2 0x2678 JUMP JUMPDEST DUP2 ADD PUSH1 0x4 DUP2 MSTORE SUB ADD SWAP1 KECCAK256 ADD SLOAD PUSH1 0x10 SHR AND ISZERO PUSH2 0x5C0 JUMPI PUSH1 0x40 MLOAD DUP4 MLOAD PUSH2 0x2277 DUP2 DUP4 DUP6 PUSH2 0x2678 JUMP JUMPDEST PUSH1 0x4 SWAP1 DUP3 ADD SWAP1 DUP2 MSTORE DUP2 SWAP1 SUB DUP6 ADD SWAP1 KECCAK256 SLOAD PUSH1 0x1 PUSH1 0x1 PUSH1 0xA0 SHL SUB SWAP6 DUP7 AND SWAP6 AND DUP6 SWAP1 SUB PUSH2 0x5AE JUMPI PUSH1 0xFF PUSH1 0x8 PUSH1 0x40 MLOAD DUP7 DUP2 DUP8 MLOAD PUSH2 0x22B1 DUP2 DUP4 DUP10 PUSH2 0x2678 JUMP JUMPDEST DUP2 ADD PUSH1 0x4 DUP2 MSTORE SUB ADD SWAP1 KECCAK256 ADD SLOAD AND PUSH1 0x6 DUP2 LT ISZERO PUSH2 0x59A JUMPI PUSH1 0x2 SUB PUSH2 0x588 JUMPI DUP4 PUSH2 0x22E4 SWAP2 PUSH1 0x40 MLOAD DUP1 SWAP4 DUP2 SWAP3 DUP8 MLOAD SWAP3 DUP4 SWAP2 PUSH2 0x2678 JUMP JUMPDEST DUP2 ADD PUSH1 0x4 DUP2 MSTORE SUB ADD SWAP1 KECCAK256 PUSH1 0x7 DUP2 ADD SWAP3 PUSH1 0x1 PUSH1 0x1 PUSH1 0x40 SHL SUB DUP5 SLOAD PUSH1 0x40 SHR AND TIMESTAMP LT ISZERO PUSH2 0x23A6 JUMPI DUP3 MLOAD ISZERO PUSH2 0x2394 JUMPI PUSH32 0xDE7B01BEF0884582CE204F7F920E57F99DD569F93867450872F436BE5A03C755 SWAP4 PUSH2 0x2350 DUP5 PUSH1 0x5 DUP6 PUSH1 0x8 PUSH2 0x2379 SWAP8 ADD PUSH1 0x3 PUSH1 0xFF NOT DUP3 SLOAD AND OR SWAP1 SSTORE ADD PUSH2 0x291C JUMP JUMPDEST DUP1 SLOAD PUSH8 0xFFFFFFFFFFFFFFFF PUSH1 0x80 SHL NOT AND TIMESTAMP PUSH1 0x80 SHL PUSH8 0xFFFFFFFFFFFFFFFF PUSH1 0x80 SHL AND OR SWAP1 SSTORE PUSH2 0x2A60 JUMP JUMPDEST SWAP3 PUSH2 0x238E PUSH1 0x40 MLOAD SWAP3 DUP3 DUP5 SWAP4 DUP5 MSTORE DUP4 ADD SWAP1 PUSH2 0x2699 JUMP JUMPDEST SUB SWAP1 LOG3 DUP1 RETURN JUMPDEST PUSH1 0x40 MLOAD PUSH4 0xBC7FD331 PUSH1 0xE0 SHL DUP2 MSTORE PUSH1 0x4 SWAP1 REVERT JUMPDEST PUSH1 0x40 MLOAD PUSH4 0x2D0F572D PUSH1 0xE1 SHL DUP2 MSTORE PUSH1 0x4 SWAP1 REVERT JUMPDEST POP CALLVALUE PUSH2 0x1C0 JUMPI PUSH2 0x23C7 CALLDATASIZE PUSH2 0x25DD JUMP JUMPDEST SWAP1 PUSH2 0x23D0 PUSH2 0x2740 JUMP JUMPDEST PUSH1 0x40 MLOAD SWAP1 DUP1 MLOAD PUSH1 0xFF PUSH1 0x8 PUSH1 0x20 SWAP5 DUP6 DUP2 DUP2 DUP8 ADD SWAP6 PUSH2 0x23EE DUP2 DUP4 DUP10 PUSH2 0x2678 JUMP JUMPDEST DUP2 ADD PUSH1 0x4 DUP2 MSTORE SUB ADD SWAP1 KECCAK256 ADD SLOAD PUSH1 0x10 SHR AND ISZERO PUSH2 0x5C0 JUMPI PUSH1 0x40 MLOAD DUP3 MLOAD PUSH2 0x2413 DUP2 DUP4 DUP6 PUSH2 0x2678 JUMP JUMPDEST PUSH1 0x4 SWAP1 DUP3 ADD SWAP1 DUP2 MSTORE DUP2 SWAP1 SUB DUP5 ADD SWAP1 KECCAK256 SLOAD PUSH1 0x1 PUSH1 0x1 PUSH1 0xA0 SHL SUB SWAP5 DUP6 AND SWAP5 AND DUP5 SWAP1 SUB PUSH2 0x5AE JUMPI PUSH1 0xFF PUSH1 0x8 PUSH1 0x40 MLOAD DUP6 DUP2 DUP7 MLOAD PUSH2 0x244D DUP2 DUP4 DUP10 PUSH2 0x2678 JUMP JUMPDEST DUP2 ADD PUSH1 0x4 DUP2 MSTORE SUB ADD SWAP1 KECCAK256 ADD SLOAD AND PUSH1 0x6 DUP2 LT ISZERO PUSH2 0xC00 JUMPI PUSH2 0x588 JUMPI PUSH32 0xB559D285C87E4FA0F561388264310703FF0C6C454A39AE52D0AE94032FF0DB70 SWAP2 PUSH1 0x8 PUSH2 0x24A4 DUP6 PUSH2 0x24BF SWAP5 PUSH1 0x40 MLOAD DUP1 SWAP4 DUP2 SWAP3 DUP8 MLOAD SWAP3 DUP4 SWAP2 PUSH2 0x2678 JUMP JUMPDEST DUP2 ADD PUSH1 0x4 DUP2 MSTORE SUB ADD SWAP1 KECCAK256 ADD PUSH1 0x5 PUSH1 0xFF NOT DUP3 SLOAD AND OR SWAP1 SSTORE PUSH2 0x2A60 JUMP JUMPDEST SWAP2 PUSH1 0x40 MLOAD DUP6 DUP2 MSTORE LOG3 DUP1 RETURN JUMPDEST SWAP1 POP CALLVALUE PUSH2 0x23F JUMPI PUSH1 0x20 CALLDATASIZE PUSH1 0x3 NOT ADD SLT PUSH2 0x23F JUMPI PUSH1 0x4 CALLDATALOAD PUSH4 0xFFFFFFFF PUSH1 0xE0 SHL DUP2 AND DUP1 SWAP2 SUB PUSH2 0xA6D JUMPI PUSH1 0x20 SWAP3 POP PUSH4 0x7965DB0B PUSH1 0xE0 SHL DUP2 EQ SWAP1 DUP2 ISZERO PUSH2 0x250E JUMPI JUMPDEST POP ISZERO ISZERO DUP2 MSTORE RETURN JUMPDEST PUSH4 0x1FFC9A7 PUSH1 0xE0 SHL EQ SWAP1 POP PUSH0 PUSH2 0x2507 JUMP JUMPDEST PUSH2 0x200 DUP2 ADD SWAP1 DUP2 LT PUSH1 0x1 PUSH1 0x1 PUSH1 0x40 SHL SUB DUP3 GT OR PUSH2 0x13BB JUMPI PUSH1 0x40 MSTORE JUMP JUMPDEST SWAP1 PUSH1 0x1F DUP1 NOT SWAP2 ADD AND DUP2 ADD SWAP1 DUP2 LT PUSH1 0x1 PUSH1 0x1 PUSH1 0x40 SHL SUB DUP3 GT OR PUSH2 0x13BB JUMPI PUSH1 0x40 MSTORE JUMP JUMPDEST DUP2 PUSH1 0x1F DUP3 ADD SLT ISZERO PUSH2 0x5D2 JUMPI DUP1 CALLDATALOAD SWAP1 PUSH1 0x1 PUSH1 0x1 PUSH1 0x40 SHL SUB DUP3 GT PUSH2 0x13BB JUMPI PUSH1 0x40 MLOAD SWAP3 PUSH2 0x2590 PUSH1 0x1F DUP5 ADD PUSH1 0x1F NOT AND PUSH1 0x20 ADD DUP6 PUSH2 0x253B JUMP JUMPDEST DUP3 DUP5 MSTORE PUSH1 0x20 DUP4 DUP4 ADD ADD GT PUSH2 0x5D2 JUMPI DUP2 PUSH0 SWAP3 PUSH1 0x20 DUP1 SWAP4 ADD DUP4 DUP7 ADD CALLDATACOPY DUP4 ADD ADD MSTORE SWAP1 JUMP JUMPDEST PUSH1 0x24 CALLDATALOAD SWAP1 PUSH1 0x1 PUSH1 0x1 PUSH1 0xA0 SHL SUB DUP3 AND DUP3 SUB PUSH2 0x5D2 JUMPI JUMP JUMPDEST PUSH1 0x4 CALLDATALOAD SWAP1 PUSH1 0x1 PUSH1 0x1 PUSH1 0xA0 SHL SUB DUP3 AND DUP3 SUB PUSH2 0x5D2 JUMPI JUMP JUMPDEST PUSH1 0x40 PUSH1 0x3 NOT DUP3 ADD SLT PUSH2 0x5D2 JUMPI PUSH1 0x4 CALLDATALOAD SWAP1 PUSH1 0x1 PUSH1 0x1 PUSH1 0x40 SHL SUB DUP3 GT PUSH2 0x5D2 JUMPI PUSH2 0x2607 SWAP2 PUSH1 0x4 ADD PUSH2 0x255C JUMP JUMPDEST SWAP1 PUSH1 0x24 CALLDATALOAD PUSH1 0x1 PUSH1 0x1 PUSH1 0xA0 SHL SUB DUP2 AND DUP2 SUB PUSH2 0x5D2 JUMPI SWAP1 JUMP JUMPDEST PUSH1 0x60 PUSH1 0x3 NOT DUP3 ADD SLT PUSH2 0x5D2 JUMPI PUSH1 0x1 PUSH1 0x1 PUSH1 0x40 SHL SUB SWAP2 PUSH1 0x4 CALLDATALOAD DUP4 DUP2 GT PUSH2 0x5D2 JUMPI DUP3 PUSH2 0x264A SWAP2 PUSH1 0x4 ADD PUSH2 0x255C JUMP JUMPDEST SWAP3 PUSH1 0x24 CALLDATALOAD PUSH1 0x1 PUSH1 0x1 PUSH1 0xA0 SHL SUB DUP2 AND DUP2 SUB PUSH2 0x5D2 JUMPI SWAP3 PUSH1 0x44 CALLDATALOAD SWAP2 DUP3 GT PUSH2 0x5D2 JUMPI PUSH2 0x2675 SWAP2 PUSH1 0x4 ADD PUSH2 0x255C JUMP JUMPDEST SWAP1 JUMP JUMPDEST PUSH0 JUMPDEST DUP4 DUP2 LT PUSH2 0x2689 JUMPI POP POP PUSH0 SWAP2 ADD MSTORE JUMP JUMPDEST DUP2 DUP2 ADD MLOAD DUP4 DUP3 ADD MSTORE PUSH1 0x20 ADD PUSH2 0x267A JUMP JUMPDEST SWAP1 PUSH1 0x20 SWAP2 PUSH2 0x26B2 DUP2 MLOAD DUP1 SWAP3 DUP2 DUP6 MSTORE DUP6 DUP1 DUP7 ADD SWAP2 ADD PUSH2 0x2678 JUMP JUMPDEST PUSH1 0x1F ADD PUSH1 0x1F NOT AND ADD ADD SWAP1 JUMP JUMPDEST PUSH1 0x20 DUP1 DUP3 ADD SWAP1 DUP1 DUP4 MSTORE DUP4 MLOAD DUP1 SWAP3 MSTORE PUSH1 0x40 DUP4 ADD SWAP3 DUP2 PUSH1 0x40 DUP5 PUSH1 0x5 SHL DUP4 ADD ADD SWAP6 ADD SWAP4 PUSH0 SWAP2 JUMPDEST DUP5 DUP4 LT PUSH2 0x26F1 JUMPI POP POP POP POP POP POP SWAP1 JUMP JUMPDEST SWAP1 SWAP2 SWAP3 SWAP4 SWAP5 SWAP6 DUP5 DUP1 PUSH2 0x270F PUSH1 0x1 SWAP4 PUSH1 0x3F NOT DUP7 DUP3 SUB ADD DUP8 MSTORE DUP11 MLOAD PUSH2 0x2699 JUMP JUMPDEST SWAP9 ADD SWAP4 ADD SWAP4 ADD SWAP2 SWAP5 SWAP4 SWAP3 SWAP1 PUSH2 0x26E1 JUMP JUMPDEST SWAP1 PUSH1 0x6 DUP3 LT ISZERO PUSH2 0x272C JUMPI MSTORE JUMP JUMPDEST PUSH4 0x4E487B71 PUSH1 0xE0 SHL PUSH0 MSTORE PUSH1 0x21 PUSH1 0x4 MSTORE PUSH1 0x24 PUSH0 REVERT JUMPDEST CALLER PUSH0 SWAP1 DUP2 MSTORE PUSH32 0xEF73BF2AC44F84561B5498839AB1C8C5A4DD99305D838AEA0D76C5961778535C PUSH1 0x20 MSTORE PUSH1 0x40 SWAP1 KECCAK256 SLOAD PUSH32 0xA8A7BC421F721CB936EA99EFDAD79237E6EE0B871A2A08CF648691F9584CDC77 SWAP1 PUSH1 0xFF AND ISZERO PUSH2 0x279B JUMPI POP JUMP JUMPDEST PUSH1 0x44 SWAP1 PUSH1 0x40 MLOAD SWAP1 PUSH4 0xE2517D3F PUSH1 0xE0 SHL DUP3 MSTORE CALLER PUSH1 0x4 DUP4 ADD MSTORE PUSH1 0x24 DUP3 ADD MSTORE REVERT JUMPDEST DUP1 PUSH0 MSTORE PUSH1 0x2 PUSH1 0x20 MSTORE PUSH1 0x40 PUSH0 KECCAK256 CALLER PUSH0 MSTORE PUSH1 0x20 MSTORE PUSH1 0xFF PUSH1 0x40 PUSH0 KECCAK256 SLOAD AND ISZERO PUSH2 0x279B JUMPI POP JUMP JUMPDEST SWAP1 PUSH0 SWAP2 DUP1 DUP4 MSTORE PUSH1 0x2 PUSH1 0x20 MSTORE PUSH1 0x40 DUP4 KECCAK256 SWAP2 PUSH1 0x1 DUP1 PUSH1 0xA0 SHL SUB AND SWAP2 DUP3 DUP5 MSTORE PUSH1 0x20 MSTORE PUSH1 0xFF PUSH1 0x40 DUP5 KECCAK256 SLOAD AND ISZERO PUSH0 EQ PUSH2 0x2854 JUMPI DUP1 DUP4 MSTORE PUSH1 0x2 PUSH1 0x20 MSTORE PUSH1 0x40 DUP4 KECCAK256 DUP3 DUP5 MSTORE PUSH1 0x20 MSTORE PUSH1 0x40 DUP4 KECCAK256 PUSH1 0x1 PUSH1 0xFF NOT DUP3 SLOAD AND OR SWAP1 SSTORE PUSH32 0x2F8788117E7EFF1D82E926EC794901D17C78024A50270940304540A733656F0D CALLER SWAP4 DUP1 LOG4 PUSH1 0x1 SWAP1 JUMP JUMPDEST POP POP SWAP1 JUMP JUMPDEST SWAP1 PUSH0 SWAP2 DUP1 DUP4 MSTORE PUSH1 0x2 PUSH1 0x20 MSTORE PUSH1 0x40 DUP4 KECCAK256 SWAP2 PUSH1 0x1 DUP1 PUSH1 0xA0 SHL SUB AND SWAP2 DUP3 DUP5 MSTORE PUSH1 0x20 MSTORE PUSH1 0xFF PUSH1 0x40 DUP5 KECCAK256 SLOAD AND PUSH0 EQ PUSH2 0x2854 JUMPI DUP1 DUP4 MSTORE PUSH1 0x2 PUSH1 0x20 MSTORE PUSH1 0x40 DUP4 KECCAK256 DUP3 DUP5 MSTORE PUSH1 0x20 MSTORE PUSH1 0x40 DUP4 KECCAK256 PUSH1 0xFF NOT DUP2 SLOAD AND SWAP1 SSTORE PUSH32 0xF6391F5C32D9C69D2A47EA670B442974B53935D1EDC7FD64EB21E047A839171B CALLER SWAP4 DUP1 LOG4 PUSH1 0x1 SWAP1 JUMP JUMPDEST SWAP1 PUSH1 0x1 DUP3 DUP2 SHR SWAP3 AND DUP1 ISZERO PUSH2 0x28FC JUMPI JUMPDEST PUSH1 0x20 DUP4 LT EQ PUSH2 0x28E8 JUMPI JUMP JUMPDEST PUSH4 0x4E487B71 PUSH1 0xE0 SHL PUSH0 MSTORE PUSH1 0x22 PUSH1 0x4 MSTORE PUSH1 0x24 PUSH0 REVERT JUMPDEST SWAP2 PUSH1 0x7F AND SWAP2 PUSH2 0x28DD JUMP JUMPDEST DUP2 DUP2 LT PUSH2 0x2911 JUMPI POP POP JUMP JUMPDEST PUSH0 DUP2 SSTORE PUSH1 0x1 ADD PUSH2 0x2906 JUMP JUMPDEST SWAP2 SWAP1 SWAP2 DUP3 MLOAD PUSH1 0x1 PUSH1 0x1 PUSH1 0x40 SHL SUB DUP2 GT PUSH2 0x13BB JUMPI PUSH2 0x2939 DUP3 SLOAD PUSH2 0x28CE JUMP JUMPDEST PUSH1 0x1F DUP2 GT PUSH2 0x29DD JUMPI JUMPDEST POP PUSH1 0x20 DUP1 PUSH1 0x1F DUP4 GT PUSH1 0x1 EQ PUSH2 0x297D JUMPI POP DUP2 SWAP3 SWAP4 SWAP5 PUSH0 SWAP3 PUSH2 0x2972 JUMPI JUMPDEST POP POP DUP2 PUSH1 0x1 SHL SWAP2 PUSH0 NOT SWAP1 PUSH1 0x3 SHL SHR NOT AND OR SWAP1 SSTORE JUMP JUMPDEST ADD MLOAD SWAP1 POP PUSH0 DUP1 PUSH2 0x295D JUMP JUMPDEST SWAP1 PUSH1 0x1F NOT DUP4 AND SWAP6 DUP5 PUSH0 MSTORE DUP3 PUSH0 KECCAK256 SWAP3 PUSH0 SWAP1 JUMPDEST DUP9 DUP3 LT PUSH2 0x29C5 JUMPI POP POP DUP4 PUSH1 0x1 SWAP6 SWAP7 SWAP8 LT PUSH2 0x29AD JUMPI JUMPDEST POP POP POP DUP2 SHL ADD SWAP1 SSTORE JUMP JUMPDEST ADD MLOAD PUSH0 NOT PUSH1 0xF8 DUP5 PUSH1 0x3 SHL AND SHR NOT AND SWAP1 SSTORE PUSH0 DUP1 DUP1 PUSH2 0x29A3 JUMP JUMPDEST DUP1 PUSH1 0x1 DUP6 SWAP7 DUP3 SWAP5 SWAP7 DUP7 ADD MLOAD DUP2 SSTORE ADD SWAP6 ADD SWAP4 ADD SWAP1 PUSH2 0x298E JUMP JUMPDEST PUSH2 0x2A08 SWAP1 DUP4 PUSH0 MSTORE PUSH1 0x20 PUSH0 KECCAK256 PUSH1 0x1F DUP5 ADD PUSH1 0x5 SHR DUP2 ADD SWAP2 PUSH1 0x20 DUP6 LT PUSH2 0x2A0E JUMPI JUMPDEST PUSH1 0x1F ADD PUSH1 0x5 SHR ADD SWAP1 PUSH2 0x2906 JUMP JUMPDEST PUSH0 PUSH2 0x2942 JUMP JUMPDEST SWAP1 SWAP2 POP DUP2 SWAP1 PUSH2 0x29FB JUMP JUMPDEST SWAP1 DUP2 SLOAD PUSH9 0x10000000000000000 DUP2 LT ISZERO PUSH2 0x13BB JUMPI PUSH1 0x1 DUP2 ADD DUP1 DUP5 SSTORE DUP2 LT ISZERO PUSH2 0x2A4C JUMPI PUSH2 0x2A4A SWAP3 PUSH0 MSTORE PUSH1 0x20 PUSH0 KECCAK256 ADD PUSH2 0x291C JUMP JUMPDEST JUMP JUMPDEST PUSH4 0x4E487B71 PUSH1 0xE0 SHL PUSH0 MSTORE PUSH1 0x32 PUSH1 0x4 MSTORE PUSH1 0x24 PUSH0 REVERT JUMPDEST PUSH2 0x2A78 SWAP1 PUSH1 0x20 PUSH1 0x40 MLOAD SWAP3 DUP3 DUP5 DUP1 SWAP5 MLOAD SWAP4 DUP5 SWAP3 ADD PUSH2 0x2678 JUMP JUMPDEST DUP2 ADD SUB SWAP1 KECCAK256 SWAP1 JUMP JUMPDEST PUSH1 0xFF PUSH1 0x1 SLOAD AND PUSH2 0x2A8C JUMPI JUMP JUMPDEST PUSH1 0x40 MLOAD PUSH3 0x461BCD PUSH1 0xE5 SHL DUP2 MSTORE PUSH1 0x20 PUSH1 0x4 DUP3 ADD MSTORE PUSH1 0x10 PUSH1 0x24 DUP3 ADD MSTORE PUSH16 0x14185D5CD8589B194E881C185D5CD959 PUSH1 0x82 SHL PUSH1 0x44 DUP3 ADD MSTORE PUSH1 0x64 SWAP1 REVERT JUMPDEST PUSH1 0x2 PUSH0 SLOAD EQ PUSH2 0x2AD3 JUMPI PUSH1 0x2 PUSH0 SSTORE JUMP JUMPDEST PUSH1 0x40 MLOAD PUSH3 0x461BCD PUSH1 0xE5 SHL DUP2 MSTORE PUSH1 0x20 PUSH1 0x4 DUP3 ADD MSTORE PUSH1 0x1F PUSH1 0x24 DUP3 ADD MSTORE PUSH32 0x5265656E7472616E637947756172643A207265656E7472616E742063616C6C00 PUSH1 0x44 DUP3 ADD MSTORE PUSH1 0x64 SWAP1 REVERT JUMPDEST SWAP1 PUSH0 PUSH1 0x20 SWAP2 DUP3 DUP2 MLOAD SWAP2 ADD DUP3 DUP6 GAS CALL ISZERO PUSH2 0x2B72 JUMPI PUSH0 MLOAD RETURNDATASIZE PUSH2 0x2B69 JUMPI POP PUSH1 0x1 PUSH1 0x1 PUSH1 0xA0 SHL SUB DUP2 AND EXTCODESIZE ISZERO JUMPDEST PUSH2 0x2B47 JUMPI POP JUMP JUMPDEST PUSH1 0x40 MLOAD PUSH4 0x5274AFE7 PUSH1 0xE0 SHL DUP2 MSTORE PUSH1 0x1 PUSH1 0x1 PUSH1 0xA0 SHL SUB SWAP1 SWAP2 AND PUSH1 0x4 DUP3 ADD MSTORE PUSH1 0x24 SWAP1 REVERT JUMPDEST PUSH1 0x1 EQ ISZERO PUSH2 0x2B40 JUMP JUMPDEST PUSH1 0x40 MLOAD RETURNDATASIZE PUSH0 DUP3 RETURNDATACOPY RETURNDATASIZE SWAP1 REVERT JUMPDEST SWAP2 SWAP1 SWAP2 PUSH1 0x1 PUSH1 0x1 PUSH1 0x60 SHL SUB DUP1 DUP1 SWAP5 AND SWAP2 AND MUL SWAP2 DUP3 AND SWAP2 DUP3 SUB PUSH2 0x515 JUMPI JUMP JUMPDEST PUSH1 0x1 PUSH1 0x1 PUSH1 0x60 SHL SUB SWAP2 DUP3 AND SWAP1 DUP3 AND SUB SWAP2 SWAP1 DUP3 GT PUSH2 0x515 JUMPI JUMP JUMPDEST PUSH1 0x40 MLOAD PUSH4 0xA9059CBB PUSH1 0xE0 SHL PUSH1 0x20 DUP3 ADD MSTORE PUSH1 0x1 PUSH1 0x1 PUSH1 0xA0 SHL SUB SWAP1 SWAP3 AND PUSH1 0x24 DUP4 ADD MSTORE PUSH1 0x44 DUP1 DUP4 ADD SWAP4 SWAP1 SWAP4 MSTORE SWAP2 DUP2 MSTORE PUSH1 0x80 DUP2 ADD SWAP2 PUSH1 0x1 PUSH1 0x1 PUSH1 0x40 SHL SUB DUP4 GT DUP3 DUP5 LT OR PUSH2 0x13BB JUMPI PUSH2 0x2A4A SWAP3 PUSH1 0x40 MSTORE PUSH2 0x2B18 JUMP JUMPDEST SWAP1 PUSH1 0x40 MLOAD SWAP2 DUP3 PUSH0 DUP3 SLOAD SWAP3 PUSH2 0x2C16 DUP5 PUSH2 0x28CE JUMP JUMPDEST SWAP1 DUP2 DUP5 MSTORE PUSH1 0x1 SWAP5 DUP6 DUP2 AND SWAP1 DUP2 PUSH0 EQ PUSH2 0x2C7F JUMPI POP PUSH1 0x1 EQ PUSH2 0x2C3F JUMPI JUMPDEST POP POP PUSH2 0x2A4A SWAP3 POP SUB DUP4 PUSH2 0x253B JUMP JUMPDEST SWAP1 SWAP4 SWAP2 POP PUSH0 MSTORE PUSH1 0x20 SWAP1 DUP2 PUSH0 KECCAK256 SWAP4 PUSH0 SWAP2 JUMPDEST DUP2 DUP4 LT PUSH2 0x2C67 JUMPI POP POP PUSH2 0x2A4A SWAP4 POP DUP3 ADD ADD PUSH0 DUP1 PUSH2 0x2C31 JUMP JUMPDEST DUP6 SLOAD DUP9 DUP5 ADD DUP6 ADD MSTORE SWAP5 DUP6 ADD SWAP5 DUP8 SWAP5 POP SWAP2 DUP4 ADD SWAP2 PUSH2 0x2C4F JUMP JUMPDEST SWAP2 POP POP PUSH2 0x2A4A SWAP5 POP PUSH1 0x20 SWAP3 POP PUSH1 0xFF NOT AND DUP3 DUP5 ADD MSTORE ISZERO ISZERO PUSH1 0x5 SHL DUP3 ADD ADD PUSH0 DUP1 PUSH2 0x2C31 JUMP JUMPDEST SWAP1 PUSH1 0x1 PUSH1 0x1 PUSH1 0x40 SHL SUB DUP3 GT PUSH2 0x13BB JUMPI PUSH1 0x40 MLOAD SWAP2 PUSH2 0x2CC5 PUSH1 0x20 DUP3 PUSH1 0x5 SHL ADD DUP5 PUSH2 0x253B JUMP JUMPDEST DUP3 MSTORE JUMP JUMPDEST PUSH1 0x1 PUSH1 0x1 PUSH1 0x60 SHL SUB SWAP1 DUP2 DUP2 AND PUSH2 0x3E8 DUP2 GT PUSH2 0x2D50 JUMPI PUSH1 0x3 SLOAD SWAP3 DUP4 AND SWAP1 DUP1 DUP3 EQ PUSH2 0x2D4A JUMPI PUSH12 0xFFFFFFFFFFFFFFFFFFFFFFFF NOT SWAP1 SWAP4 AND SWAP3 SWAP1 SWAP3 OR PUSH1 0x3 SSTORE PUSH1 0x40 DUP1 MLOAD PUSH1 0x1 PUSH1 0x1 PUSH1 0x60 SHL SUB SWAP4 DUP5 AND DUP2 MSTORE SWAP2 SWAP1 SWAP3 AND PUSH1 0x20 DUP3 ADD MSTORE PUSH32 0xFEEDDF72B7EE4210B769104CB8B071E5706232AC7F671FB292AF429FFD58B587 SWAP2 DUP2 SWAP1 DUP2 ADD JUMPDEST SUB SWAP1 LOG1 JUMP JUMPDEST POP POP POP POP JUMP JUMPDEST PUSH1 0x40 MLOAD PUSH4 0xCD4E6167 PUSH1 0xE0 SHL DUP2 MSTORE PUSH1 0x4 SWAP1 REVERT JUMPDEST PUSH1 0x1 PUSH1 0x1 PUSH1 0xA0 SHL SUB DUP2 AND SWAP1 DUP2 ISZERO PUSH2 0xA41 JUMPI PUSH1 0x3 SLOAD SWAP2 DUP3 PUSH1 0x60 SHR SWAP1 DUP2 EQ PUSH2 0x2DEB JUMPI PUSH1 0x1 PUSH1 0x1 PUSH1 0x60 SHL SUB SWAP1 SWAP3 AND PUSH1 0x60 DUP3 SWAP1 SHL PUSH12 0xFFFFFFFFFFFFFFFFFFFFFFFF NOT AND OR PUSH1 0x3 SSTORE PUSH1 0x40 DUP1 MLOAD PUSH1 0x1 PUSH1 0x1 PUSH1 0xA0 SHL SUB SWAP4 DUP5 AND DUP2 MSTORE SWAP3 SWAP1 SWAP2 AND PUSH1 0x20 DUP4 ADD MSTORE PUSH32 0xAAEBCF1BFA00580E41D966056B48521FA9F202645C86D4DDF28113E617C1B1D3 SWAP2 SWAP1 DUP2 SWAP1 DUP2 ADD PUSH2 0x2D45 JUMP JUMPDEST POP POP POP JUMP INVALID DUP6 BALANCE NOT DUP15 0x5D SWAP5 PUSH11 0xF9A770D2EEBA00258645E1 PUSH4 0x142D835F 0xE1 0xB0 0x4E GASLIMIT DELEGATECALL 0xDB PUSH19 0xF8BA26469706673582212207996F3802A9983 PUSH28 0x66F96BCA2C1BF39D08D41087916E0A6643891459FC86E06264736F6C PUSH4 0x43000814 STOP CALLER 0xA8 0xA7 0xBC TIMESTAMP 0x1F PUSH19 0x1CB936EA99EFDAD79237E6EE0B871A2A08CF64 DUP7 SWAP2 0xF9 PC 0x4C 0xDC PUSH24 0x0 "
		},
		"gasEstimates": {
			"creation": {
				"codeDepositCost": "2369200",
				"executionCost": "infinite",
				"totalCost": "infinite"
			},
			"external": {
				"DEFAULT_ADMIN_ROLE()": "693",
				"SERVER_ROLE()": "228",
				"acceptDeal(string,address)": "infinite",
				"approveDeal(string,address)": "infinite",
				"autoRefundAfterDeadline(string)": "infinite",
				"autoReleasePayment(string)": "infinite",
				"brandDeals(address)": "infinite",
				"canAutoRelease(string)": "infinite",
				"cancelDeal(string,address)": "infinite",
				"createDeal(string,address,address,uint96,uint64,string)": "infinite",
				"creatorDeals(address)": "infinite",
				"deals(string)": "infinite",
				"emergencyCancelDeal(string)": "infinite",
				"emergencyWithdraw(address,uint256)": "infinite",
				"feeRecipient()": "2557",
				"fundDeal(string,address,uint96,uint256,uint8,bytes32,bytes32)": "infinite",
				"getDeal(string)": "infinite",
				"getDeals(address,bool)": "infinite",
				"getRoleAdmin(bytes32)": "2469",
				"grantRole(bytes32,address)": "33399",
				"hasRole(bytes32,address)": "2896",
				"idrxToken()": "infinite",
				"initiateDispute(string,address,string)": "infinite",
				"pause()": "30138",
				"paused()": "2607",
				"platformFeeBps()": "2393",
				"renounceRole(bytes32,address)": "29029",
				"resolveDispute(string,address,bool)": "infinite",
				"revokeRole(bytes32,address)": "33786",
				"submitContent(string,address,string)": "infinite",
				"supportsInterface(bytes4)": "279",
				"unpause()": "27901",
				"updateFeeRecipient(address)": "28887",
				"updatePlatformFee(uint96)": "28311"
			},
			"internal": {
				"_executePermit(address,address,uint256,uint256,uint8,bytes32,bytes32)": "infinite"
			}
		},
		"methodIdentifiers": {
			"DEFAULT_ADMIN_ROLE()": "a217fddf",
			"SERVER_ROLE()": "18cf2834",
			"acceptDeal(string,address)": "9b1221ab",
			"approveDeal(string,address)": "24d956c8",
			"autoRefundAfterDeadline(string)": "e39fff38",
			"autoReleasePayment(string)": "38a13287",
			"brandDeals(address)": "f0c3cd20",
			"canAutoRelease(string)": "76492d3f",
			"cancelDeal(string,address)": "03f715da",
			"createDeal(string,address,address,uint96,uint64,string)": "e4abd4cb",
			"creatorDeals(address)": "aed1505d",
			"deals(string)": "a0a57dac",
			"emergencyCancelDeal(string)": "1a1aaeed",
			"emergencyWithdraw(address,uint256)": "95ccea67",
			"feeRecipient()": "46904840",
			"fundDeal(string,address,uint96,uint256,uint8,bytes32,bytes32)": "9f1cf42d",
			"getDeal(string)": "e7079180",
			"getDeals(address,bool)": "9fad59b4",
			"getRoleAdmin(bytes32)": "248a9ca3",
			"grantRole(bytes32,address)": "2f2ff15d",
			"hasRole(bytes32,address)": "91d14854",
			"idrxToken()": "d6bc7c63",
			"initiateDispute(string,address,string)": "0e59a395",
			"pause()": "8456cb59",
			"paused()": "5c975abb",
			"platformFeeBps()": "22dcd13e",
			"renounceRole(bytes32,address)": "36568abe",
			"resolveDispute(string,address,bool)": "ef03c10e",
			"revokeRole(bytes32,address)": "d547741f",
			"submitContent(string,address,string)": "4971716f",
			"supportsInterface(bytes4)": "01ffc9a7",
			"unpause()": "3f4ba83a",
			"updateFeeRecipient(address)": "f160d369",
			"updatePlatformFee(uint96)": "317b8c5b"
		}
	},
	"abi": [
		{
			"inputs": [
				{
					"internalType": "address",
					"name": "idrxToken_",
					"type": "address"
				},
				{
					"internalType": "address",
					"name": "feeRecipient_",
					"type": "address"
				},
				{
					"internalType": "address",
					"name": "initialOwner_",
					"type": "address"
				}
			],
			"stateMutability": "payable",
			"type": "constructor"
		},
		{
			"inputs": [],
			"name": "AccessControlBadConfirmation",
			"type": "error"
		},
		{
			"inputs": [
				{
					"internalType": "address",
					"name": "account",
					"type": "address"
				},
				{
					"internalType": "bytes32",
					"name": "neededRole",
					"type": "bytes32"
				}
			],
			"name": "AccessControlUnauthorizedAccount",
			"type": "error"
		},
		{
			"inputs": [],
			"name": "AmountMustBeGreaterThanZero",
			"type": "error"
		},
		{
			"inputs": [],
			"name": "BriefHashRequired",
			"type": "error"
		},
		{
			"inputs": [],
			"name": "CannotCancelThisDeal",
			"type": "error"
		},
		{
			"inputs": [],
			"name": "CannotWithdrawIDRX",
			"type": "error"
		},
		{
			"inputs": [],
			"name": "ContentUrlRequired",
			"type": "error"
		},
		{
			"inputs": [],
			"name": "CreatorCannotBeBrand",
			"type": "error"
		},
		{
			"inputs": [],
			"name": "DeadlineMustBeInFuture",
			"type": "error"
		},
		{
			"inputs": [],
			"name": "DeadlineNotPassed",
			"type": "error"
		},
		{
			"inputs": [],
			"name": "DealAlreadyExists",
			"type": "error"
		},
		{
			"inputs": [],
			"name": "DealAlreadyFunded",
			"type": "error"
		},
		{
			"inputs": [],
			"name": "DealNotFound",
			"type": "error"
		},
		{
			"inputs": [],
			"name": "DealNotFunded",
			"type": "error"
		},
		{
			"inputs": [],
			"name": "FeeTooHigh",
			"type": "error"
		},
		{
			"inputs": [],
			"name": "InsufficientAllowance",
			"type": "error"
		},
		{
			"inputs": [],
			"name": "InsufficientBalance",
			"type": "error"
		},
		{
			"inputs": [],
			"name": "InvalidAddress",
			"type": "error"
		},
		{
			"inputs": [],
			"name": "InvalidAmount",
			"type": "error"
		},
		{
			"inputs": [],
			"name": "InvalidDealID",
			"type": "error"
		},
		{
			"inputs": [],
			"name": "InvalidDealStatus",
			"type": "error"
		},
		{
			"inputs": [],
			"name": "NotAuthorized",
			"type": "error"
		},
		{
			"inputs": [],
			"name": "PermitFailed",
			"type": "error"
		},
		{
			"inputs": [],
			"name": "ReasonRequired",
			"type": "error"
		},
		{
			"inputs": [],
			"name": "ReviewPeriodEnded",
			"type": "error"
		},
		{
			"inputs": [],
			"name": "ReviewPeriodNotEnded",
			"type": "error"
		},
		{
			"inputs": [
				{
					"internalType": "address",
					"name": "token",
					"type": "address"
				}
			],
			"name": "SafeERC20FailedOperation",
			"type": "error"
		},
		{
			"inputs": [],
			"name": "SubmissionDeadlinePassed",
			"type": "error"
		},
		{
			"anonymous": false,
			"inputs": [
				{
					"indexed": true,
					"internalType": "string",
					"name": "dealId",
					"type": "string"
				},
				{
					"indexed": true,
					"internalType": "address",
					"name": "creator",
					"type": "address"
				},
				{
					"indexed": false,
					"internalType": "string",
					"name": "contentUrl",
					"type": "string"
				},
				{
					"indexed": false,
					"internalType": "uint64",
					"name": "reviewDeadline",
					"type": "uint64"
				}
			],
			"name": "ContentSubmitted",
			"type": "event"
		},
		{
			"anonymous": false,
			"inputs": [
				{
					"indexed": true,
					"internalType": "string",
					"name": "dealId",
					"type": "string"
				},
				{
					"indexed": true,
					"internalType": "address",
					"name": "brand",
					"type": "address"
				}
			],
			"name": "DealApproved",
			"type": "event"
		},
		{
			"anonymous": false,
			"inputs": [
				{
					"indexed": true,
					"internalType": "string",
					"name": "dealId",
					"type": "string"
				},
				{
					"indexed": true,
					"internalType": "address",
					"name": "initiator",
					"type": "address"
				},
				{
					"indexed": false,
					"internalType": "uint96",
					"name": "refundAmount",
					"type": "uint96"
				}
			],
			"name": "DealCancelled",
			"type": "event"
		},
		{
			"anonymous": false,
			"inputs": [
				{
					"indexed": true,
					"internalType": "string",
					"name": "dealId",
					"type": "string"
				},
				{
					"indexed": true,
					"internalType": "address",
					"name": "brand",
					"type": "address"
				},
				{
					"indexed": true,
					"internalType": "address",
					"name": "creator",
					"type": "address"
				},
				{
					"indexed": false,
					"internalType": "uint96",
					"name": "amount",
					"type": "uint96"
				},
				{
					"indexed": false,
					"internalType": "uint64",
					"name": "deadline",
					"type": "uint64"
				}
			],
			"name": "DealCreated",
			"type": "event"
		},
		{
			"anonymous": false,
			"inputs": [
				{
					"indexed": true,
					"internalType": "string",
					"name": "dealId",
					"type": "string"
				},
				{
					"indexed": true,
					"internalType": "address",
					"name": "brand",
					"type": "address"
				},
				{
					"indexed": false,
					"internalType": "uint96",
					"name": "amount",
					"type": "uint96"
				}
			],
			"name": "DealFunded",
			"type": "event"
		},
		{
			"anonymous": false,
			"inputs": [
				{
					"indexed": true,
					"internalType": "string",
					"name": "dealId",
					"type": "string"
				},
				{
					"indexed": true,
					"internalType": "address",
					"name": "brand",
					"type": "address"
				},
				{
					"indexed": false,
					"internalType": "string",
					"name": "reason",
					"type": "string"
				}
			],
			"name": "DisputeInitiated",
			"type": "event"
		},
		{
			"anonymous": false,
			"inputs": [
				{
					"indexed": true,
					"internalType": "string",
					"name": "dealId",
					"type": "string"
				},
				{
					"indexed": true,
					"internalType": "address",
					"name": "creator",
					"type": "address"
				},
				{
					"indexed": false,
					"internalType": "bool",
					"name": "acceptedDispute",
					"type": "bool"
				},
				{
					"indexed": false,
					"internalType": "uint96",
					"name": "creatorAmount",
					"type": "uint96"
				},
				{
					"indexed": false,
					"internalType": "uint96",
					"name": "brandRefund",
					"type": "uint96"
				}
			],
			"name": "DisputeResolved",
			"type": "event"
		},
		{
			"anonymous": false,
			"inputs": [
				{
					"indexed": false,
					"internalType": "address",
					"name": "oldRecipient",
					"type": "address"
				},
				{
					"indexed": false,
					"internalType": "address",
					"name": "newRecipient",
					"type": "address"
				}
			],
			"name": "FeeRecipientUpdated",
			"type": "event"
		},
		{
			"anonymous": false,
			"inputs": [
				{
					"indexed": false,
					"internalType": "address",
					"name": "account",
					"type": "address"
				}
			],
			"name": "Paused",
			"type": "event"
		},
		{
			"anonymous": false,
			"inputs": [
				{
					"indexed": true,
					"internalType": "string",
					"name": "dealId",
					"type": "string"
				},
				{
					"indexed": true,
					"internalType": "address",
					"name": "creator",
					"type": "address"
				},
				{
					"indexed": false,
					"internalType": "uint96",
					"name": "amount",
					"type": "uint96"
				},
				{
					"indexed": false,
					"internalType": "uint96",
					"name": "platformFee",
					"type": "uint96"
				}
			],
			"name": "PaymentReleased",
			"type": "event"
		},
		{
			"anonymous": false,
			"inputs": [
				{
					"indexed": false,
					"internalType": "uint96",
					"name": "oldFee",
					"type": "uint96"
				},
				{
					"indexed": false,
					"internalType": "uint96",
					"name": "newFee",
					"type": "uint96"
				}
			],
			"name": "PlatformFeeUpdated",
			"type": "event"
		},
		{
			"anonymous": false,
			"inputs": [
				{
					"indexed": true,
					"internalType": "bytes32",
					"name": "role",
					"type": "bytes32"
				},
				{
					"indexed": true,
					"internalType": "bytes32",
					"name": "previousAdminRole",
					"type": "bytes32"
				},
				{
					"indexed": true,
					"internalType": "bytes32",
					"name": "newAdminRole",
					"type": "bytes32"
				}
			],
			"name": "RoleAdminChanged",
			"type": "event"
		},
		{
			"anonymous": false,
			"inputs": [
				{
					"indexed": true,
					"internalType": "bytes32",
					"name": "role",
					"type": "bytes32"
				},
				{
					"indexed": true,
					"internalType": "address",
					"name": "account",
					"type": "address"
				},
				{
					"indexed": true,
					"internalType": "address",
					"name": "sender",
					"type": "address"
				}
			],
			"name": "RoleGranted",
			"type": "event"
		},
		{
			"anonymous": false,
			"inputs": [
				{
					"indexed": true,
					"internalType": "bytes32",
					"name": "role",
					"type": "bytes32"
				},
				{
					"indexed": true,
					"internalType": "address",
					"name": "account",
					"type": "address"
				},
				{
					"indexed": true,
					"internalType": "address",
					"name": "sender",
					"type": "address"
				}
			],
			"name": "RoleRevoked",
			"type": "event"
		},
		{
			"anonymous": false,
			"inputs": [
				{
					"indexed": false,
					"internalType": "address",
					"name": "account",
					"type": "address"
				}
			],
			"name": "Unpaused",
			"type": "event"
		},
		{
			"inputs": [],
			"name": "DEFAULT_ADMIN_ROLE",
			"outputs": [
				{
					"internalType": "bytes32",
					"name": "",
					"type": "bytes32"
				}
			],
			"stateMutability": "view",
			"type": "function"
		},
		{
			"inputs": [],
			"name": "SERVER_ROLE",
			"outputs": [
				{
					"internalType": "bytes32",
					"name": "",
					"type": "bytes32"
				}
			],
			"stateMutability": "view",
			"type": "function"
		},
		{
			"inputs": [
				{
					"internalType": "string",
					"name": "_dealId",
					"type": "string"
				},
				{
					"internalType": "address",
					"name": "_creatorAddress",
					"type": "address"
				}
			],
			"name": "acceptDeal",
			"outputs": [],
			"stateMutability": "nonpayable",
			"type": "function"
		},
		{
			"inputs": [
				{
					"internalType": "string",
					"name": "_dealId",
					"type": "string"
				},
				{
					"internalType": "address",
					"name": "_brandAddress",
					"type": "address"
				}
			],
			"name": "approveDeal",
			"outputs": [],
			"stateMutability": "nonpayable",
			"type": "function"
		},
		{
			"inputs": [
				{
					"internalType": "string",
					"name": "_dealId",
					"type": "string"
				}
			],
			"name": "autoRefundAfterDeadline",
			"outputs": [],
			"stateMutability": "nonpayable",
			"type": "function"
		},
		{
			"inputs": [
				{
					"internalType": "string",
					"name": "_dealId",
					"type": "string"
				}
			],
			"name": "autoReleasePayment",
			"outputs": [],
			"stateMutability": "nonpayable",
			"type": "function"
		},
		{
			"inputs": [
				{
					"internalType": "address",
					"name": "_brand",
					"type": "address"
				}
			],
			"name": "brandDeals",
			"outputs": [
				{
					"internalType": "string[]",
					"name": "",
					"type": "string[]"
				}
			],
			"stateMutability": "view",
			"type": "function"
		},
		{
			"inputs": [
				{
					"internalType": "string",
					"name": "_dealId",
					"type": "string"
				}
			],
			"name": "canAutoRelease",
			"outputs": [
				{
					"internalType": "bool",
					"name": "",
					"type": "bool"
				}
			],
			"stateMutability": "view",
			"type": "function"
		},
		{
			"inputs": [
				{
					"internalType": "string",
					"name": "_dealId",
					"type": "string"
				},
				{
					"internalType": "address",
					"name": "_brandAddress",
					"type": "address"
				}
			],
			"name": "cancelDeal",
			"outputs": [],
			"stateMutability": "nonpayable",
			"type": "function"
		},
		{
			"inputs": [
				{
					"internalType": "string",
					"name": "_dealId",
					"type": "string"
				},
				{
					"internalType": "address",
					"name": "_brandAddress",
					"type": "address"
				},
				{
					"internalType": "address",
					"name": "_creatorAddress",
					"type": "address"
				},
				{
					"internalType": "uint96",
					"name": "_amount",
					"type": "uint96"
				},
				{
					"internalType": "uint64",
					"name": "_deadline",
					"type": "uint64"
				},
				{
					"internalType": "string",
					"name": "_briefHash",
					"type": "string"
				}
			],
			"name": "createDeal",
			"outputs": [],
			"stateMutability": "nonpayable",
			"type": "function"
		},
		{
			"inputs": [
				{
					"internalType": "address",
					"name": "_creator",
					"type": "address"
				}
			],
			"name": "creatorDeals",
			"outputs": [
				{
					"internalType": "string[]",
					"name": "",
					"type": "string[]"
				}
			],
			"stateMutability": "view",
			"type": "function"
		},
		{
			"inputs": [
				{
					"internalType": "string",
					"name": "_dealId",
					"type": "string"
				}
			],
			"name": "deals",
			"outputs": [
				{
					"components": [
						{
							"internalType": "address",
							"name": "brand",
							"type": "address"
						},
						{
							"internalType": "address",
							"name": "creator",
							"type": "address"
						},
						{
							"internalType": "string",
							"name": "dealId",
							"type": "string"
						},
						{
							"internalType": "string",
							"name": "briefHash",
							"type": "string"
						},
						{
							"internalType": "string",
							"name": "contentUrl",
							"type": "string"
						},
						{
							"internalType": "string",
							"name": "disputeReason",
							"type": "string"
						},
						{
							"internalType": "uint96",
							"name": "amount",
							"type": "uint96"
						},
						{
							"internalType": "uint64",
							"name": "deadline",
							"type": "uint64"
						},
						{
							"internalType": "uint64",
							"name": "fundedAt",
							"type": "uint64"
						},
						{
							"internalType": "uint64",
							"name": "submittedAt",
							"type": "uint64"
						},
						{
							"internalType": "uint64",
							"name": "reviewDeadline",
							"type": "uint64"
						},
						{
							"internalType": "uint64",
							"name": "disputedAt",
							"type": "uint64"
						},
						{
							"internalType": "uint64",
							"name": "createdAt",
							"type": "uint64"
						},
						{
							"internalType": "enum EtharisEscrow.ContractStatus",
							"name": "status",
							"type": "uint8"
						},
						{
							"internalType": "bool",
							"name": "acceptedDispute",
							"type": "bool"
						},
						{
							"internalType": "bool",
							"name": "exists",
							"type": "bool"
						}
					],
					"internalType": "struct EtharisEscrow.Deal",
					"name": "",
					"type": "tuple"
				}
			],
			"stateMutability": "view",
			"type": "function"
		},
		{
			"inputs": [
				{
					"internalType": "string",
					"name": "_dealId",
					"type": "string"
				}
			],
			"name": "emergencyCancelDeal",
			"outputs": [],
			"stateMutability": "nonpayable",
			"type": "function"
		},
		{
			"inputs": [
				{
					"internalType": "address",
					"name": "_token",
					"type": "address"
				},
				{
					"internalType": "uint256",
					"name": "_amount",
					"type": "uint256"
				}
			],
			"name": "emergencyWithdraw",
			"outputs": [],
			"stateMutability": "nonpayable",
			"type": "function"
		},
		{
			"inputs": [],
			"name": "feeRecipient",
			"outputs": [
				{
					"internalType": "address",
					"name": "",
					"type": "address"
				}
			],
			"stateMutability": "view",
			"type": "function"
		},
		{
			"inputs": [
				{
					"internalType": "string",
					"name": "_dealId",
					"type": "string"
				},
				{
					"internalType": "address",
					"name": "_brandAddress",
					"type": "address"
				},
				{
					"internalType": "uint96",
					"name": "_amount",
					"type": "uint96"
				},
				{
					"internalType": "uint256",
					"name": "_deadline",
					"type": "uint256"
				},
				{
					"internalType": "uint8",
					"name": "_v",
					"type": "uint8"
				},
				{
					"internalType": "bytes32",
					"name": "_r",
					"type": "bytes32"
				},
				{
					"internalType": "bytes32",
					"name": "_s",
					"type": "bytes32"
				}
			],
			"name": "fundDeal",
			"outputs": [],
			"stateMutability": "nonpayable",
			"type": "function"
		},
		{
			"inputs": [
				{
					"internalType": "string",
					"name": "_dealId",
					"type": "string"
				}
			],
			"name": "getDeal",
			"outputs": [
				{
					"internalType": "string",
					"name": "dealId",
					"type": "string"
				},
				{
					"internalType": "address",
					"name": "brand",
					"type": "address"
				},
				{
					"internalType": "address",
					"name": "creator",
					"type": "address"
				},
				{
					"internalType": "uint96",
					"name": "amount",
					"type": "uint96"
				},
				{
					"internalType": "uint64",
					"name": "deadline",
					"type": "uint64"
				},
				{
					"internalType": "enum EtharisEscrow.ContractStatus",
					"name": "status",
					"type": "uint8"
				},
				{
					"internalType": "string",
					"name": "briefHash",
					"type": "string"
				},
				{
					"internalType": "string",
					"name": "contentUrl",
					"type": "string"
				},
				{
					"internalType": "string",
					"name": "disputeReason",
					"type": "string"
				},
				{
					"internalType": "uint64",
					"name": "reviewDeadline",
					"type": "uint64"
				},
				{
					"internalType": "uint64",
					"name": "fundedAt",
					"type": "uint64"
				},
				{
					"internalType": "uint64",
					"name": "submittedAt",
					"type": "uint64"
				},
				{
					"internalType": "uint64",
					"name": "disputedAt",
					"type": "uint64"
				},
				{
					"internalType": "uint64",
					"name": "createdAt",
					"type": "uint64"
				},
				{
					"internalType": "bool",
					"name": "acceptedDispute",
					"type": "bool"
				},
				{
					"internalType": "bool",
					"name": "exists",
					"type": "bool"
				}
			],
			"stateMutability": "view",
			"type": "function"
		},
		{
			"inputs": [
				{
					"internalType": "address",
					"name": "_userAddress",
					"type": "address"
				},
				{
					"internalType": "bool",
					"name": "_isBrand",
					"type": "bool"
				}
			],
			"name": "getDeals",
			"outputs": [
				{
					"internalType": "string[]",
					"name": "",
					"type": "string[]"
				}
			],
			"stateMutability": "view",
			"type": "function"
		},
		{
			"inputs": [
				{
					"internalType": "bytes32",
					"name": "role",
					"type": "bytes32"
				}
			],
			"name": "getRoleAdmin",
			"outputs": [
				{
					"internalType": "bytes32",
					"name": "",
					"type": "bytes32"
				}
			],
			"stateMutability": "view",
			"type": "function"
		},
		{
			"inputs": [
				{
					"internalType": "bytes32",
					"name": "role",
					"type": "bytes32"
				},
				{
					"internalType": "address",
					"name": "account",
					"type": "address"
				}
			],
			"name": "grantRole",
			"outputs": [],
			"stateMutability": "nonpayable",
			"type": "function"
		},
		{
			"inputs": [
				{
					"internalType": "bytes32",
					"name": "role",
					"type": "bytes32"
				},
				{
					"internalType": "address",
					"name": "account",
					"type": "address"
				}
			],
			"name": "hasRole",
			"outputs": [
				{
					"internalType": "bool",
					"name": "",
					"type": "bool"
				}
			],
			"stateMutability": "view",
			"type": "function"
		},
		{
			"inputs": [],
			"name": "idrxToken",
			"outputs": [
				{
					"internalType": "address",
					"name": "",
					"type": "address"
				}
			],
			"stateMutability": "view",
			"type": "function"
		},
		{
			"inputs": [
				{
					"internalType": "string",
					"name": "_dealId",
					"type": "string"
				},
				{
					"internalType": "address",
					"name": "_brandAddress",
					"type": "address"
				},
				{
					"internalType": "string",
					"name": "_reason",
					"type": "string"
				}
			],
			"name": "initiateDispute",
			"outputs": [],
			"stateMutability": "nonpayable",
			"type": "function"
		},
		{
			"inputs": [],
			"name": "pause",
			"outputs": [],
			"stateMutability": "nonpayable",
			"type": "function"
		},
		{
			"inputs": [],
			"name": "paused",
			"outputs": [
				{
					"internalType": "bool",
					"name": "",
					"type": "bool"
				}
			],
			"stateMutability": "view",
			"type": "function"
		},
		{
			"inputs": [],
			"name": "platformFeeBps",
			"outputs": [
				{
					"internalType": "uint96",
					"name": "",
					"type": "uint96"
				}
			],
			"stateMutability": "view",
			"type": "function"
		},
		{
			"inputs": [
				{
					"internalType": "bytes32",
					"name": "role",
					"type": "bytes32"
				},
				{
					"internalType": "address",
					"name": "callerConfirmation",
					"type": "address"
				}
			],
			"name": "renounceRole",
			"outputs": [],
			"stateMutability": "nonpayable",
			"type": "function"
		},
		{
			"inputs": [
				{
					"internalType": "string",
					"name": "_dealId",
					"type": "string"
				},
				{
					"internalType": "address",
					"name": "_creatorAddress",
					"type": "address"
				},
				{
					"internalType": "bool",
					"name": "_acceptDispute",
					"type": "bool"
				}
			],
			"name": "resolveDispute",
			"outputs": [],
			"stateMutability": "nonpayable",
			"type": "function"
		},
		{
			"inputs": [
				{
					"internalType": "bytes32",
					"name": "role",
					"type": "bytes32"
				},
				{
					"internalType": "address",
					"name": "account",
					"type": "address"
				}
			],
			"name": "revokeRole",
			"outputs": [],
			"stateMutability": "nonpayable",
			"type": "function"
		},
		{
			"inputs": [
				{
					"internalType": "string",
					"name": "_dealId",
					"type": "string"
				},
				{
					"internalType": "address",
					"name": "_creatorAddress",
					"type": "address"
				},
				{
					"internalType": "string",
					"name": "_contentUrl",
					"type": "string"
				}
			],
			"name": "submitContent",
			"outputs": [],
			"stateMutability": "nonpayable",
			"type": "function"
		},
		{
			"inputs": [
				{
					"internalType": "bytes4",
					"name": "interfaceId",
					"type": "bytes4"
				}
			],
			"name": "supportsInterface",
			"outputs": [
				{
					"internalType": "bool",
					"name": "",
					"type": "bool"
				}
			],
			"stateMutability": "view",
			"type": "function"
		},
		{
			"inputs": [],
			"name": "unpause",
			"outputs": [],
			"stateMutability": "nonpayable",
			"type": "function"
		},
		{
			"inputs": [
				{
					"internalType": "address",
					"name": "_newRecipient",
					"type": "address"
				}
			],
			"name": "updateFeeRecipient",
			"outputs": [],
			"stateMutability": "nonpayable",
			"type": "function"
		},
		{
			"inputs": [
				{
					"internalType": "uint96",
					"name": "_newFeeBps",
					"type": "uint96"
				}
			],
			"name": "updatePlatformFee",
			"outputs": [],
			"stateMutability": "nonpayable",
			"type": "function"
		}
	]
}