{
	"data": {
		"bytecode": {
			"linkReferences": {},
			"object": "608060405260fa60035534801562000015575f80fd5b506040516200587e3803806200587e83398181016040528101906200003b9190620003e6565b8060015f819055505f73ffffffffffffffffffffffffffffffffffffffff168173ffffffffffffffffffffffffffffffffffffffff1603620000b6575f6040517f1e4fbdf7000000000000000000000000000000000000000000000000000000008152600401620000ad919062000450565b60405180910390fd5b620000c781620002be60201b60201c565b505f600160146101000a81548160ff0219169083151502179055505f73ffffffffffffffffffffffffffffffffffffffff168373ffffffffffffffffffffffffffffffffffffffff160362000153576040517f08c379a00000000000000000000000000000000000000000000000000000000081526004016200014a90620004c9565b60405180910390fd5b5f73ffffffffffffffffffffffffffffffffffffffff168273ffffffffffffffffffffffffffffffffffffffff1603620001c4576040517f08c379a0000000000000000000000000000000000000000000000000000000008152600401620001bb9062000537565b60405180910390fd5b5f73ffffffffffffffffffffffffffffffffffffffff168173ffffffffffffffffffffffffffffffffffffffff160362000235576040517f08c379a00000000000000000000000000000000000000000000000000000000081526004016200022c90620005a5565b60405180910390fd5b8260025f6101000a81548173ffffffffffffffffffffffffffffffffffffffff021916908373ffffffffffffffffffffffffffffffffffffffff1602179055508160045f6101000a81548173ffffffffffffffffffffffffffffffffffffffff021916908373ffffffffffffffffffffffffffffffffffffffff160217905550505050620005c5565b5f60015f9054906101000a900473ffffffffffffffffffffffffffffffffffffffff1690508160015f6101000a81548173ffffffffffffffffffffffffffffffffffffffff021916908373ffffffffffffffffffffffffffffffffffffffff1602179055508173ffffffffffffffffffffffffffffffffffffffff168173ffffffffffffffffffffffffffffffffffffffff167f8be0079c531659141344cd1fd0a4f28419497f9722a3daafe3b4186f6b6457e060405160405180910390a35050565b5f80fd5b5f73ffffffffffffffffffffffffffffffffffffffff82169050919050565b5f620003b08262000385565b9050919050565b620003c281620003a4565b8114620003cd575f80fd5b50565b5f81519050620003e081620003b7565b92915050565b5f805f606084860312156200040057620003ff62000381565b5b5f6200040f86828701620003d0565b93505060206200042286828701620003d0565b92505060406200043586828701620003d0565b9150509250925092565b6200044a81620003a4565b82525050565b5f602082019050620004655f8301846200043f565b92915050565b5f82825260208201905092915050565b7f496e76616c6964204944525820746f6b656e20616464726573730000000000005f82015250565b5f620004b1601a836200046b565b9150620004be826200047b565b602082019050919050565b5f6020820190508181035f830152620004e281620004a3565b9050919050565b7f496e76616c69642066656520726563697069656e7400000000000000000000005f82015250565b5f6200051f6015836200046b565b91506200052c82620004e9565b602082019050919050565b5f6020820190508181035f830152620005508162000511565b9050919050565b7f496e76616c6964206f776e6572206164647265737300000000000000000000005f82015250565b5f6200058d6015836200046b565b91506200059a8262000557565b602082019050919050565b5f6020820190508181035f830152620005be816200057f565b9050919050565b6152ab80620005d35f395ff3fe608060405234801561000f575f80fd5b50600436106101d8575f3560e01c806376492d3f11610102578063d46597e3116100a0578063e70791801161006f578063e7079180146104fb578063ef03c10e14610536578063f160d36914610552578063f2fde38b1461056e576101d8565b8063d46597e314610473578063d6bc7c63146104a3578063e1a45218146104c1578063e39fff38146104df576101d8565b806395ccea67116100dc57806395ccea67146103d05780639fad59b4146103ec578063a0a57dac1461041c578063aa0b598814610457576101d8565b806376492d3f146103785780638456cb59146103a85780638da5cb5b146103b2576101d8565b806338a132871161017a5780634971716f116101495780634971716f1461030457806353a140ac146103205780635c975abb14610350578063715018a61461036e576101d8565b806338a13287146102a25780633f4ba83a146102be57806342bcf75c146102c857806346904840146102e6576101d8565b80630e59a395116101b65780630e59a395146102305780631a1aaeed1461024c57806322dcd13e1461026857806324d956c814610286576101d8565b806303f502ae146101dc57806303f715da146101f85780630a40f15f14610214575b5f80fd5b6101f660048036038101906101f19190613adc565b61058a565b005b610212600480360381019061020d9190613b9d565b610b8a565b005b61022e60048036038101906102299190613b9d565b610e00565b005b61024a60048036038101906102459190613bf7565b6110ed565b005b61026660048036038101906102619190613c7f565b6113f6565b005b610270611667565b60405161027d9190613cd5565b60405180910390f35b6102a0600480360381019061029b9190613b9d565b61166d565b005b6102bc60048036038101906102b79190613c7f565b6118ab565b005b6102c6611a3f565b005b6102d0611a51565b6040516102dd9190613cd5565b60405180910390f35b6102ee611a58565b6040516102fb9190613cfd565b60405180910390f35b61031e60048036038101906103199190613bf7565b611a7d565b005b61033a60048036038101906103359190613d16565b611dbf565b6040516103479190613dce565b60405180910390f35b610358611e70565b6040516103659190613e08565b60405180910390f35b610376611e86565b005b610392600480360381019061038d9190613c7f565b611e99565b60405161039f9190613e08565b60405180910390f35b6103b0611f24565b005b6103ba611f36565b6040516103c79190613cfd565b60405180910390f35b6103ea60048036038101906103e59190613d16565b611f5e565b005b61040660048036038101906104019190613e4b565b61202b565b6040516104139190613f8c565b60405180910390f35b61043660048036038101906104319190613c7f565b612253565b60405161044e9c9b9a9998979695949392919061401f565b60405180910390f35b610471600480360381019061046c91906140ec565b6124af565b005b61048d60048036038101906104889190613d16565b612546565b60405161049a9190613dce565b60405180910390f35b6104ab6125f7565b6040516104b89190614172565b60405180910390f35b6104c961261c565b6040516104d69190613cd5565b60405180910390f35b6104f960048036038101906104f49190613c7f565b612622565b005b61051560048036038101906105109190613c7f565b6128b4565b60405161052d9c9b9a9998979695949392919061418b565b60405180910390f35b610550600480360381019061054b9190614258565b612b87565b005b61056c600480360381019061056791906142c4565b6130df565b005b610588600480360381019061058391906142c4565b6131f7565b005b61059261327b565b61059a613302565b6005866040516105aa9190614329565b9081526020016040518091039020600b015f9054906101000a900460ff1615610608576040517f08c379a00000000000000000000000000000000000000000000000000000000081526004016105ff90614389565b60405180910390fd5b5f73ffffffffffffffffffffffffffffffffffffffff168473ffffffffffffffffffffffffffffffffffffffff1603610676576040517f08c379a000000000000000000000000000000000000000000000000000000000815260040161066d906143f1565b60405180910390fd5b5f73ffffffffffffffffffffffffffffffffffffffff168573ffffffffffffffffffffffffffffffffffffffff16036106e4576040517f08c379a00000000000000000000000000000000000000000000000000000000081526004016106db90614459565b60405180910390fd5b8373ffffffffffffffffffffffffffffffffffffffff168573ffffffffffffffffffffffffffffffffffffffff1603610752576040517f08c379a0000000000000000000000000000000000000000000000000000000008152600401610749906144c1565b60405180910390fd5b5f8303610794576040517f08c379a000000000000000000000000000000000000000000000000000000000815260040161078b90614529565b60405180910390fd5b4282116107d6576040517f08c379a00000000000000000000000000000000000000000000000000000000081526004016107cd90614591565b60405180910390fd5b5f815103610819576040517f08c379a0000000000000000000000000000000000000000000000000000000008152600401610810906145f9565b60405180910390fd5b6040518061018001604052808781526020018673ffffffffffffffffffffffffffffffffffffffff1681526020018573ffffffffffffffffffffffffffffffffffffffff1681526020018481526020018381526020018281526020015f600581111561088857610887613fac565b5b81526020015f81526020015f81526020015f815260200160405180602001604052805f8152508152602001600115158152506005876040516108ca9190614329565b90815260200160405180910390205f820151815f0190816108eb9190614808565b506020820151816001015f6101000a81548173ffffffffffffffffffffffffffffffffffffffff021916908373ffffffffffffffffffffffffffffffffffffffff1602179055506040820151816002015f6101000a81548173ffffffffffffffffffffffffffffffffffffffff021916908373ffffffffffffffffffffffffffffffffffffffff160217905550606082015181600301556080820151816004015560a08201518160050190816109a19190614808565b5060c0820151816006015f6101000a81548160ff021916908360058111156109cc576109cb613fac565b5b021790555060e082015181600701556101008201518160080155610120820151816009015561014082015181600a019081610a079190614808565b5061016082015181600b015f6101000a81548160ff02191690831515021790555090505060065f8673ffffffffffffffffffffffffffffffffffffffff1673ffffffffffffffffffffffffffffffffffffffff1681526020019081526020015f2086908060018154018082558091505060019003905f5260205f20015f909190919091509081610a979190614808565b5060075f8573ffffffffffffffffffffffffffffffffffffffff1673ffffffffffffffffffffffffffffffffffffffff1681526020019081526020015f2086908060018154018082558091505060019003905f5260205f20015f909190919091509081610b049190614808565b508373ffffffffffffffffffffffffffffffffffffffff168573ffffffffffffffffffffffffffffffffffffffff1687604051610b419190614329565b60405180910390207f4dfa2d4e433a4e1fe0aa3a98eef56517737c0ef61b1476caa443106551d802ee8686604051610b7a9291906148d7565b60405180910390a4505050505050565b610b9261327b565b81600581604051610ba39190614329565b9081526020016040518091039020600b015f9054906101000a900460ff16610c00576040517f08c379a0000000000000000000000000000000000000000000000000000000008152600401610bf790614948565b60405180910390fd5b82828073ffffffffffffffffffffffffffffffffffffffff16600583604051610c299190614329565b90815260200160405180910390206001015f9054906101000a900473ffffffffffffffffffffffffffffffffffffffff1673ffffffffffffffffffffffffffffffffffffffff1614610cb0576040517f08c379a0000000000000000000000000000000000000000000000000000000008152600401610ca7906149b0565b60405180910390fd5b845f806005811115610cc557610cc4613fac565b5b600583604051610cd59190614329565b90815260200160405180910390206006015f9054906101000a900460ff166005811115610d0557610d04613fac565b5b14610d45576040517f08c379a0000000000000000000000000000000000000000000000000000000008152600401610d3c90614a18565b60405180910390fd5b5f600588604051610d569190614329565b908152602001604051809103902090506005816006015f6101000a81548160ff02191690836005811115610d8d57610d8c613fac565b5b02179055508673ffffffffffffffffffffffffffffffffffffffff1688604051610db79190614329565b60405180910390207f19a500c76afe03a03914754f26a2766147bdcb90320371467b02ae014c0f10cb5f604051610dee9190614a6f565b60405180910390a35050505050505050565b610e0861334c565b610e1061327b565b610e18613302565b81600581604051610e299190614329565b9081526020016040518091039020600b015f9054906101000a900460ff16610e86576040517f08c379a0000000000000000000000000000000000000000000000000000000008152600401610e7d90614948565b60405180910390fd5b82828073ffffffffffffffffffffffffffffffffffffffff16600583604051610eaf9190614329565b90815260200160405180910390206001015f9054906101000a900473ffffffffffffffffffffffffffffffffffffffff1673ffffffffffffffffffffffffffffffffffffffff1614610f36576040517f08c379a0000000000000000000000000000000000000000000000000000000008152600401610f2d906149b0565b60405180910390fd5b845f806005811115610f4b57610f4a613fac565b5b600583604051610f5b9190614329565b90815260200160405180910390206006015f9054906101000a900460ff166005811115610f8b57610f8a613fac565b5b14610fcb576040517f08c379a0000000000000000000000000000000000000000000000000000000008152600401610fc290614a18565b60405180910390fd5b5f600588604051610fdc9190614329565b9081526020016040518091039020905061103e8730836003015460025f9054906101000a900473ffffffffffffffffffffffffffffffffffffffff1673ffffffffffffffffffffffffffffffffffffffff16613399909392919063ffffffff16565b6001816006015f6101000a81548160ff0219169083600581111561106557611064613fac565b5b02179055504281600701819055508673ffffffffffffffffffffffffffffffffffffffff16886040516110989190614329565b60405180910390207feddc0be5f09ce2d9286942052f4d5a1bb2dbe8a87bf038bf0c59c60fa9cc6acc83600301546040516110d39190613cd5565b60405180910390a35050505050506110e961341b565b5050565b6110f561327b565b6110fd613302565b8260058160405161110e9190614329565b9081526020016040518091039020600b015f9054906101000a900460ff1661116b576040517f08c379a000000000000000000000000000000000000000000000000000000000815260040161116290614948565b60405180910390fd5b83838073ffffffffffffffffffffffffffffffffffffffff166005836040516111949190614329565b90815260200160405180910390206001015f9054906101000a900473ffffffffffffffffffffffffffffffffffffffff1673ffffffffffffffffffffffffffffffffffffffff161461121b576040517f08c379a0000000000000000000000000000000000000000000000000000000008152600401611212906149b0565b60405180910390fd5b85600280600581111561123157611230613fac565b5b6005836040516112419190614329565b90815260200160405180910390206006015f9054906101000a900460ff16600581111561127157611270613fac565b5b146112b1576040517f08c379a00000000000000000000000000000000000000000000000000000000081526004016112a890614a18565b60405180910390fd5b5f6005896040516112c29190614329565b9081526020016040518091039020905080600901544210611318576040517f08c379a000000000000000000000000000000000000000000000000000000000815260040161130f90614ad2565b60405180910390fd5b5f87510361135b576040517f08c379a000000000000000000000000000000000000000000000000000000000815260040161135290614b3a565b60405180910390fd5b6003816006015f6101000a81548160ff0219169083600581111561138257611381613fac565b5b02179055508773ffffffffffffffffffffffffffffffffffffffff16896040516113ac9190614329565b60405180910390207fde7b01bef0884582ce204f7f920e57f99dd569f93867450872f436be5a03c755896040516113e39190613dce565b60405180910390a3505050505050505050565b6113fe61334c565b61140661327b565b806005816040516114179190614329565b9081526020016040518091039020600b015f9054906101000a900460ff16611474576040517f08c379a000000000000000000000000000000000000000000000000000000000815260040161146b90614948565b60405180910390fd5b5f6005836040516114859190614329565b90815260200160405180910390209050600160058111156114a9576114a8613fac565b5b816006015f9054906101000a900460ff1660058111156114cc576114cb613fac565b5b148061150c5750600260058111156114e7576114e6613fac565b5b816006015f9054906101000a900460ff16600581111561150a57611509613fac565b5b145b61154b576040517f08c379a000000000000000000000000000000000000000000000000000000000815260040161154290614ba2565b60405180910390fd5b5f816003015490506005826006015f6101000a81548160ff0219169083600581111561157a57611579613fac565b5b02179055506115ee826001015f9054906101000a900473ffffffffffffffffffffffffffffffffffffffff168260025f9054906101000a900473ffffffffffffffffffffffffffffffffffffffff1673ffffffffffffffffffffffffffffffffffffffff166134249092919063ffffffff16565b6115f6611f36565b73ffffffffffffffffffffffffffffffffffffffff168460405161161a9190614329565b60405180910390207f19a500c76afe03a03914754f26a2766147bdcb90320371467b02ae014c0f10cb836040516116519190613cd5565b60405180910390a350505061166461341b565b50565b60035481565b61167561334c565b61167d61327b565b611685613302565b816005816040516116969190614329565b9081526020016040518091039020600b015f9054906101000a900460ff166116f3576040517f08c379a00000000000000000000000000000000000000000000000000000000081526004016116ea90614948565b60405180910390fd5b82828073ffffffffffffffffffffffffffffffffffffffff1660058360405161171c9190614329565b90815260200160405180910390206001015f9054906101000a900473ffffffffffffffffffffffffffffffffffffffff1673ffffffffffffffffffffffffffffffffffffffff16146117a3576040517f08c379a000000000000000000000000000000000000000000000000000000000815260040161179a906149b0565b60405180910390fd5b8460028060058111156117b9576117b8613fac565b5b6005836040516117c99190614329565b90815260200160405180910390206006015f9054906101000a900460ff1660058111156117f9576117f8613fac565b5b14611839576040517f08c379a000000000000000000000000000000000000000000000000000000000815260040161183090614a18565b60405180910390fd5b8573ffffffffffffffffffffffffffffffffffffffff168760405161185e9190614329565b60405180910390207ecaec7345d2eb04a42197ac2a2cd7cd74a00b2991b69bb53e23465d4092fdfb60405160405180910390a361189a876134a3565b50505050506118a761341b565b5050565b6118b361334c565b6118bb613302565b806005816040516118cc9190614329565b9081526020016040518091039020600b015f9054906101000a900460ff16611929576040517f08c379a000000000000000000000000000000000000000000000000000000000815260040161192090614948565b60405180910390fd5b81600280600581111561193f5761193e613fac565b5b60058360405161194f9190614329565b90815260200160405180910390206006015f9054906101000a900460ff16600581111561197f5761197e613fac565b5b146119bf576040517f08c379a00000000000000000000000000000000000000000000000000000000081526004016119b690614a18565b60405180910390fd5b5f6005856040516119d09190614329565b908152602001604051809103902090508060090154421015611a27576040517f08c379a0000000000000000000000000000000000000000000000000000000008152600401611a1e90614c0a565b60405180910390fd5b611a30856134a3565b50505050611a3c61341b565b50565b611a4761327b565b611a4f613690565b565b6203f48081565b60045f9054906101000a900473ffffffffffffffffffffffffffffffffffffffff1681565b611a8561327b565b611a8d613302565b82600581604051611a9e9190614329565b9081526020016040518091039020600b015f9054906101000a900460ff16611afb576040517f08c379a0000000000000000000000000000000000000000000000000000000008152600401611af290614948565b60405180910390fd5b83838073ffffffffffffffffffffffffffffffffffffffff16600583604051611b249190614329565b90815260200160405180910390206002015f9054906101000a900473ffffffffffffffffffffffffffffffffffffffff1673ffffffffffffffffffffffffffffffffffffffff1614611bab576040517f08c379a0000000000000000000000000000000000000000000000000000000008152600401611ba290614c72565b60405180910390fd5b856001806005811115611bc157611bc0613fac565b5b600583604051611bd19190614329565b90815260200160405180910390206006015f9054906101000a900460ff166005811115611c0157611c00613fac565b5b14611c41576040517f08c379a0000000000000000000000000000000000000000000000000000000008152600401611c3890614a18565b60405180910390fd5b5f600589604051611c529190614329565b908152602001604051809103902090508060040154421115611ca9576040517f08c379a0000000000000000000000000000000000000000000000000000000008152600401611ca090614d00565b60405180910390fd5b5f875103611cec576040517f08c379a0000000000000000000000000000000000000000000000000000000008152600401611ce390614d68565b60405180910390fd5b6002816006015f6101000a81548160ff02191690836005811115611d1357611d12613fac565b5b02179055504281600801819055506203f48042611d309190614db3565b81600901819055508681600a019081611d499190614808565b508773ffffffffffffffffffffffffffffffffffffffff1689604051611d6f9190614329565b60405180910390207fe08cb3bd9d9b1de1d57bafa49f6b0db920edea2d41724c78255b2c4ca2c9123f898460090154604051611dac929190614de6565b60405180910390a3505050505050505050565b6007602052815f5260405f208181548110611dd8575f80fd5b905f5260205f20015f91509150508054611df190614644565b80601f0160208091040260200160405190810160405280929190818152602001828054611e1d90614644565b8015611e685780601f10611e3f57610100808354040283529160200191611e68565b820191905f5260205f20905b815481529060010190602001808311611e4b57829003601f168201915b505050505081565b5f600160149054906101000a900460ff16905090565b611e8e61327b565b611e975f6136f2565b565b5f80600583604051611eab9190614329565b9081526020016040518091039020905080600b015f9054906101000a900460ff168015611f0c575060026005811115611ee757611ee6613fac565b5b816006015f9054906101000a900460ff166005811115611f0a57611f09613fac565b5b145b8015611f1c575080600901544210155b915050919050565b611f2c61327b565b611f346137b5565b565b5f60015f9054906101000a900473ffffffffffffffffffffffffffffffffffffffff16905090565b611f6661327b565b60025f9054906101000a900473ffffffffffffffffffffffffffffffffffffffff1673ffffffffffffffffffffffffffffffffffffffff168273ffffffffffffffffffffffffffffffffffffffff1603611ff5576040517f08c379a0000000000000000000000000000000000000000000000000000000008152600401611fec90614e5e565b60405180910390fd5b612027612000611f36565b828473ffffffffffffffffffffffffffffffffffffffff166134249092919063ffffffff16565b5050565b606081156121425760065f8473ffffffffffffffffffffffffffffffffffffffff1673ffffffffffffffffffffffffffffffffffffffff1681526020019081526020015f20805480602002602001604051908101604052809291908181526020015f905b82821015612137578382905f5260205f200180546120ac90614644565b80601f01602080910402602001604051908101604052809291908181526020018280546120d890614644565b80156121235780601f106120fa57610100808354040283529160200191612123565b820191905f5260205f20905b81548152906001019060200180831161210657829003601f168201915b50505050508152602001906001019061208f565b50505050905061224d565b60075f8473ffffffffffffffffffffffffffffffffffffffff1673ffffffffffffffffffffffffffffffffffffffff1681526020019081526020015f20805480602002602001604051908101604052809291908181526020015f905b82821015612246578382905f5260205f200180546121bb90614644565b80601f01602080910402602001604051908101604052809291908181526020018280546121e790614644565b80156122325780601f1061220957610100808354040283529160200191612232565b820191905f5260205f20905b81548152906001019060200180831161221557829003601f168201915b50505050508152602001906001019061219e565b5050505090505b92915050565b6005818051602081018201805184825260208301602085012081835280955050505050505f91509050805f01805461228a90614644565b80601f01602080910402602001604051908101604052809291908181526020018280546122b690614644565b80156123015780601f106122d857610100808354040283529160200191612301565b820191905f5260205f20905b8154815290600101906020018083116122e457829003601f168201915b505050505090806001015f9054906101000a900473ffffffffffffffffffffffffffffffffffffffff1690806002015f9054906101000a900473ffffffffffffffffffffffffffffffffffffffff169080600301549080600401549080600501805461236c90614644565b80601f016020809104026020016040519081016040528092919081815260200182805461239890614644565b80156123e35780601f106123ba576101008083540402835291602001916123e3565b820191905f5260205f20905b8154815290600101906020018083116123c657829003601f168201915b505050505090806006015f9054906101000a900460ff169080600701549080600801549080600901549080600a01805461241c90614644565b80601f016020809104026020016040519081016040528092919081815260200182805461244890614644565b80156124935780601f1061246a57610100808354040283529160200191612493565b820191905f5260205f20905b81548152906001019060200180831161247657829003601f168201915b50505050509080600b015f9054906101000a900460ff1690508c565b6124b761327b565b6103e88111156124fc576040517f08c379a00000000000000000000000000000000000000000000000000000000081526004016124f390614ec6565b60405180910390fd5b5f6003549050816003819055507fd347e206f25a89b917fc9482f1a2d294d749baa4dc9bde7fb495ee11fe491643818360405161253a9291906148d7565b60405180910390a15050565b6006602052815f5260405f20818154811061255f575f80fd5b905f5260205f20015f9150915050805461257890614644565b80601f01602080910402602001604051908101604052809291908181526020018280546125a490614644565b80156125ef5780601f106125c6576101008083540402835291602001916125ef565b820191905f5260205f20905b8154815290600101906020018083116125d257829003601f168201915b505050505081565b60025f9054906101000a900473ffffffffffffffffffffffffffffffffffffffff1681565b61271081565b61262a61334c565b612632613302565b806005816040516126439190614329565b9081526020016040518091039020600b015f9054906101000a900460ff166126a0576040517f08c379a000000000000000000000000000000000000000000000000000000000815260040161269790614948565b60405180910390fd5b8160018060058111156126b6576126b5613fac565b5b6005836040516126c69190614329565b90815260200160405180910390206006015f9054906101000a900460ff1660058111156126f6576126f5613fac565b5b14612736576040517f08c379a000000000000000000000000000000000000000000000000000000000815260040161272d90614a18565b60405180910390fd5b5f6005856040516127479190614329565b908152602001604051809103902090508060040154421161279d576040517f08c379a000000000000000000000000000000000000000000000000000000000815260040161279490614f2e565b60405180910390fd5b5f81600301549050612814826001015f9054906101000a900473ffffffffffffffffffffffffffffffffffffffff168260025f9054906101000a900473ffffffffffffffffffffffffffffffffffffffff1673ffffffffffffffffffffffffffffffffffffffff166134249092919063ffffffff16565b6005826006015f6101000a81548160ff0219169083600581111561283b5761283a613fac565b5b02179055503373ffffffffffffffffffffffffffffffffffffffff16866040516128659190614329565b60405180910390207f19a500c76afe03a03914754f26a2766147bdcb90320371467b02ae014c0f10cb8360405161289c9190613cd5565b60405180910390a350505050506128b161341b565b50565b60605f805f805f6060805f805f805f60058e6040516128d39190614329565b9081526020016040518091039020905080600b015f9054906101000a900460ff16612933576040517f08c379a000000000000000000000000000000000000000000000000000000000815260040161292a90614948565b60405180910390fd5b805f01816001015f9054906101000a900473ffffffffffffffffffffffffffffffffffffffff16826002015f9054906101000a900473ffffffffffffffffffffffffffffffffffffffff1683600301548460040154856006015f9054906101000a900460ff168660050187600a01886009015489600701548a600801548b600b015f9054906101000a900460ff168b80546129cd90614644565b80601f01602080910402602001604051908101604052809291908181526020018280546129f990614644565b8015612a445780601f10612a1b57610100808354040283529160200191612a44565b820191905f5260205f20905b815481529060010190602001808311612a2757829003601f168201915b50505050509b50858054612a5790614644565b80601f0160208091040260200160405190810160405280929190818152602001828054612a8390614644565b8015612ace5780601f10612aa557610100808354040283529160200191612ace565b820191905f5260205f20905b815481529060010190602001808311612ab157829003601f168201915b50505050509550848054612ae190614644565b80601f0160208091040260200160405190810160405280929190818152602001828054612b0d90614644565b8015612b585780601f10612b2f57610100808354040283529160200191612b58565b820191905f5260205f20905b815481529060010190602001808311612b3b57829003601f168201915b505050505094509c509c509c509c509c509c509c509c509c509c509c509c505091939597999b5091939597999b565b612b8f61334c565b612b9761327b565b612b9f613302565b82600581604051612bb09190614329565b9081526020016040518091039020600b015f9054906101000a900460ff16612c0d576040517f08c379a0000000000000000000000000000000000000000000000000000000008152600401612c0490614948565b60405180910390fd5b83838073ffffffffffffffffffffffffffffffffffffffff16600583604051612c369190614329565b90815260200160405180910390206002015f9054906101000a900473ffffffffffffffffffffffffffffffffffffffff1673ffffffffffffffffffffffffffffffffffffffff1614612cbd576040517f08c379a0000000000000000000000000000000000000000000000000000000008152600401612cb490614c72565b60405180910390fd5b856003806005811115612cd357612cd2613fac565b5b600583604051612ce39190614329565b90815260200160405180910390206006015f9054906101000a900460ff166005811115612d1357612d12613fac565b5b14612d53576040517f08c379a0000000000000000000000000000000000000000000000000000000008152600401612d4a90614a18565b60405180910390fd5b5f600589604051612d649190614329565b908152602001604051809103902090506004816006015f6101000a81548160ff02191690836005811115612d9b57612d9a613fac565b5b02179055505f816003015490505f805f8a15612f5e575f612710611f4086612dc39190614f4c565b612dcd9190614fba565b90508085612ddb9190614fea565b925061271060035482612dee9190614f4c565b612df89190614fba565b91505f8282612e079190614fea565b9050809450612e7b876002015f9054906101000a900473ffffffffffffffffffffffffffffffffffffffff168260025f9054906101000a900473ffffffffffffffffffffffffffffffffffffffff1673ffffffffffffffffffffffffffffffffffffffff166134249092919063ffffffff16565b612eea876001015f9054906101000a900473ffffffffffffffffffffffffffffffffffffffff168560025f9054906101000a900473ffffffffffffffffffffffffffffffffffffffff1673ffffffffffffffffffffffffffffffffffffffff166134249092919063ffffffff16565b612f5760045f9054906101000a900473ffffffffffffffffffffffffffffffffffffffff168460025f9054906101000a900473ffffffffffffffffffffffffffffffffffffffff1673ffffffffffffffffffffffffffffffffffffffff166134249092919063ffffffff16565b5050612fd7565b5f92508391505f9050612fd6856001015f9054906101000a900473ffffffffffffffffffffffffffffffffffffffff168360025f9054906101000a900473ffffffffffffffffffffffffffffffffffffffff1673ffffffffffffffffffffffffffffffffffffffff166134249092919063ffffffff16565b5b8b73ffffffffffffffffffffffffffffffffffffffff168d604051612ffc9190614329565b60405180910390207f4626adb85b7c97ab5f8491dda1ebffb1904773cc2fdcd7e5ddbadd473843fd168d86866040516130379392919061501d565b60405180910390a3846002015f9054906101000a900473ffffffffffffffffffffffffffffffffffffffff1673ffffffffffffffffffffffffffffffffffffffff168d6040516130879190614329565b60405180910390207fa4b9aff2e7bd4815fd0c77044b1652a3cdc9d61c082a9a75510dd9d30d1c100985846040516130c09291906148d7565b60405180910390a3505050505050505050506130da61341b565b505050565b6130e761327b565b5f73ffffffffffffffffffffffffffffffffffffffff168173ffffffffffffffffffffffffffffffffffffffff1603613155576040517f08c379a000000000000000000000000000000000000000000000000000000000815260040161314c9061509c565b60405180910390fd5b5f60045f9054906101000a900473ffffffffffffffffffffffffffffffffffffffff1690508160045f6101000a81548173ffffffffffffffffffffffffffffffffffffffff021916908373ffffffffffffffffffffffffffffffffffffffff1602179055507faaebcf1bfa00580e41d966056b48521fa9f202645c86d4ddf28113e617c1b1d381836040516131eb9291906150ba565b60405180910390a15050565b6131ff61327b565b5f73ffffffffffffffffffffffffffffffffffffffff168173ffffffffffffffffffffffffffffffffffffffff160361326f575f6040517f1e4fbdf70000000000000000000000000000000000000000000000000000000081526004016132669190613cfd565b60405180910390fd5b613278816136f2565b50565b613283613817565b73ffffffffffffffffffffffffffffffffffffffff166132a1611f36565b73ffffffffffffffffffffffffffffffffffffffff1614613300576132c4613817565b6040517f118cdaa70000000000000000000000000000000000000000000000000000000081526004016132f79190613cfd565b60405180910390fd5b565b61330a611e70565b1561334a576040517f08c379a00000000000000000000000000000000000000000000000000000000081526004016133419061512b565b60405180910390fd5b565b60025f5403613390576040517f08c379a000000000000000000000000000000000000000000000000000000000815260040161338790615193565b60405180910390fd5b60025f81905550565b613415848573ffffffffffffffffffffffffffffffffffffffff166323b872dd8686866040516024016133ce939291906151b1565b604051602081830303815290604052915060e01b6020820180517bffffffffffffffffffffffffffffffffffffffffffffffffffffffff838183161783525050505061381e565b50505050565b60015f81905550565b61349e838473ffffffffffffffffffffffffffffffffffffffff1663a9059cbb85856040516024016134579291906151e6565b604051602081830303815290604052915060e01b6020820180517bffffffffffffffffffffffffffffffffffffffffffffffffffffffff838183161783525050505061381e565b505050565b5f6005826040516134b49190614329565b908152602001604051809103902090505f61271060035483600301546134da9190614f4c565b6134e49190614fba565b90505f8183600301546134f79190614fea565b90506004836006015f6101000a81548160ff021916908360058111156135205761351f613fac565b5b0217905550613594836002015f9054906101000a900473ffffffffffffffffffffffffffffffffffffffff168260025f9054906101000a900473ffffffffffffffffffffffffffffffffffffffff1673ffffffffffffffffffffffffffffffffffffffff166134249092919063ffffffff16565b61360160045f9054906101000a900473ffffffffffffffffffffffffffffffffffffffff168360025f9054906101000a900473ffffffffffffffffffffffffffffffffffffffff1673ffffffffffffffffffffffffffffffffffffffff166134249092919063ffffffff16565b826002015f9054906101000a900473ffffffffffffffffffffffffffffffffffffffff1673ffffffffffffffffffffffffffffffffffffffff16846040516136499190614329565b60405180910390207fa4b9aff2e7bd4815fd0c77044b1652a3cdc9d61c082a9a75510dd9d30d1c100983856040516136829291906148d7565b60405180910390a350505050565b6136986138b9565b5f600160146101000a81548160ff0219169083151502179055507f5db9ee0a495bf2e6ff9c91a7834c1ba4fdd244a5e8aa4e537bd38aeae4b073aa6136db613817565b6040516136e89190613cfd565b60405180910390a1565b5f60015f9054906101000a900473ffffffffffffffffffffffffffffffffffffffff1690508160015f6101000a81548173ffffffffffffffffffffffffffffffffffffffff021916908373ffffffffffffffffffffffffffffffffffffffff1602179055508173ffffffffffffffffffffffffffffffffffffffff168173ffffffffffffffffffffffffffffffffffffffff167f8be0079c531659141344cd1fd0a4f28419497f9722a3daafe3b4186f6b6457e060405160405180910390a35050565b6137bd613302565b60018060146101000a81548160ff0219169083151502179055507f62e78cea01bee320cd4e420270b5ea74000d11b0c9f74754ebdbfc544b05a258613800613817565b60405161380d9190613cfd565b60405180910390a1565b5f33905090565b5f8060205f8451602086015f885af18061383d576040513d5f823e3d81fd5b3d92505f519150505f8214613856576001811415613871565b5f8473ffffffffffffffffffffffffffffffffffffffff163b145b156138b357836040517f5274afe70000000000000000000000000000000000000000000000000000000081526004016138aa9190613cfd565b60405180910390fd5b50505050565b6138c1611e70565b613900576040517f08c379a00000000000000000000000000000000000000000000000000000000081526004016138f790615257565b60405180910390fd5b565b5f604051905090565b5f80fd5b5f80fd5b5f80fd5b5f80fd5b5f601f19601f8301169050919050565b7f4e487b71000000000000000000000000000000000000000000000000000000005f52604160045260245ffd5b6139618261391b565b810181811067ffffffffffffffff821117156139805761397f61392b565b5b80604052505050565b5f613992613902565b905061399e8282613958565b919050565b5f67ffffffffffffffff8211156139bd576139bc61392b565b5b6139c68261391b565b9050602081019050919050565b828183375f83830152505050565b5f6139f36139ee846139a3565b613989565b905082815260208101848484011115613a0f57613a0e613917565b5b613a1a8482856139d3565b509392505050565b5f82601f830112613a3657613a35613913565b5b8135613a468482602086016139e1565b91505092915050565b5f73ffffffffffffffffffffffffffffffffffffffff82169050919050565b5f613a7882613a4f565b9050919050565b613a8881613a6e565b8114613a92575f80fd5b50565b5f81359050613aa381613a7f565b92915050565b5f819050919050565b613abb81613aa9565b8114613ac5575f80fd5b50565b5f81359050613ad681613ab2565b92915050565b5f805f805f8060c08789031215613af657613af561390b565b5b5f87013567ffffffffffffffff811115613b1357613b1261390f565b5b613b1f89828a01613a22565b9650506020613b3089828a01613a95565b9550506040613b4189828a01613a95565b9450506060613b5289828a01613ac8565b9350506080613b6389828a01613ac8565b92505060a087013567ffffffffffffffff811115613b8457613b8361390f565b5b613b9089828a01613a22565b9150509295509295509295565b5f8060408385031215613bb357613bb261390b565b5b5f83013567ffffffffffffffff811115613bd057613bcf61390f565b5b613bdc85828601613a22565b9250506020613bed85828601613a95565b9150509250929050565b5f805f60608486031215613c0e57613c0d61390b565b5b5f84013567ffffffffffffffff811115613c2b57613c2a61390f565b5b613c3786828701613a22565b9350506020613c4886828701613a95565b925050604084013567ffffffffffffffff811115613c6957613c6861390f565b5b613c7586828701613a22565b9150509250925092565b5f60208284031215613c9457613c9361390b565b5b5f82013567ffffffffffffffff811115613cb157613cb061390f565b5b613cbd84828501613a22565b91505092915050565b613ccf81613aa9565b82525050565b5f602082019050613ce85f830184613cc6565b92915050565b613cf781613a6e565b82525050565b5f602082019050613d105f830184613cee565b92915050565b5f8060408385031215613d2c57613d2b61390b565b5b5f613d3985828601613a95565b9250506020613d4a85828601613ac8565b9150509250929050565b5f81519050919050565b5f82825260208201905092915050565b5f5b83811015613d8b578082015181840152602081019050613d70565b5f8484015250505050565b5f613da082613d54565b613daa8185613d5e565b9350613dba818560208601613d6e565b613dc38161391b565b840191505092915050565b5f6020820190508181035f830152613de68184613d96565b905092915050565b5f8115159050919050565b613e0281613dee565b82525050565b5f602082019050613e1b5f830184613df9565b92915050565b613e2a81613dee565b8114613e34575f80fd5b50565b5f81359050613e4581613e21565b92915050565b5f8060408385031215613e6157613e6061390b565b5b5f613e6e85828601613a95565b9250506020613e7f85828601613e37565b9150509250929050565b5f81519050919050565b5f82825260208201905092915050565b5f819050602082019050919050565b5f82825260208201905092915050565b5f613ecc82613d54565b613ed68185613eb2565b9350613ee6818560208601613d6e565b613eef8161391b565b840191505092915050565b5f613f058383613ec2565b905092915050565b5f602082019050919050565b5f613f2382613e89565b613f2d8185613e93565b935083602082028501613f3f85613ea3565b805f5b85811015613f7a5784840389528151613f5b8582613efa565b9450613f6683613f0d565b925060208a01995050600181019050613f42565b50829750879550505050505092915050565b5f6020820190508181035f830152613fa48184613f19565b905092915050565b7f4e487b71000000000000000000000000000000000000000000000000000000005f52602160045260245ffd5b60068110613fea57613fe9613fac565b5b50565b5f819050613ffa82613fd9565b919050565b5f61400982613fed565b9050919050565b61401981613fff565b82525050565b5f610180820190508181035f830152614038818f613d96565b9050614047602083018e613cee565b614054604083018d613cee565b614061606083018c613cc6565b61406e608083018b613cc6565b81810360a0830152614080818a613d96565b905061408f60c0830189614010565b61409c60e0830188613cc6565b6140aa610100830187613cc6565b6140b8610120830186613cc6565b8181036101408301526140cb8185613d96565b90506140db610160830184613df9565b9d9c50505050505050505050505050565b5f602082840312156141015761410061390b565b5b5f61410e84828501613ac8565b91505092915050565b5f819050919050565b5f61413a61413561413084613a4f565b614117565b613a4f565b9050919050565b5f61414b82614120565b9050919050565b5f61415c82614141565b9050919050565b61416c81614152565b82525050565b5f6020820190506141855f830184614163565b92915050565b5f610180820190508181035f8301526141a4818f613d96565b90506141b3602083018e613cee565b6141c0604083018d613cee565b6141cd606083018c613cc6565b6141da608083018b613cc6565b6141e760a083018a614010565b81810360c08301526141f98189613d96565b905081810360e083015261420d8188613d96565b905061421d610100830187613cc6565b61422b610120830186613cc6565b614239610140830185613cc6565b614247610160830184613df9565b9d9c50505050505050505050505050565b5f805f6060848603121561426f5761426e61390b565b5b5f84013567ffffffffffffffff81111561428c5761428b61390f565b5b61429886828701613a22565b93505060206142a986828701613a95565b92505060406142ba86828701613e37565b9150509250925092565b5f602082840312156142d9576142d861390b565b5b5f6142e684828501613a95565b91505092915050565b5f81905092915050565b5f61430382613d54565b61430d81856142ef565b935061431d818560208601613d6e565b80840191505092915050565b5f61433482846142f9565b915081905092915050565b7f4465616c20494420616c726561647920657869737473000000000000000000005f82015250565b5f614373601683613d5e565b915061437e8261433f565b602082019050919050565b5f6020820190508181035f8301526143a081614367565b9050919050565b7f496e76616c69642063726561746f7220616464726573730000000000000000005f82015250565b5f6143db601783613d5e565b91506143e6826143a7565b602082019050919050565b5f6020820190508181035f830152614408816143cf565b9050919050565b7f496e76616c6964206272616e64206164647265737300000000000000000000005f82015250565b5f614443601583613d5e565b915061444e8261440f565b602082019050919050565b5f6020820190508181035f83015261447081614437565b9050919050565b7f43726561746f722063616e6e6f74206265206272616e640000000000000000005f82015250565b5f6144ab601783613d5e565b91506144b682614477565b602082019050919050565b5f6020820190508181035f8301526144d88161449f565b9050919050565b7f416d6f756e74206d7573742062652067726561746572207468616e20300000005f82015250565b5f614513601d83613d5e565b915061451e826144df565b602082019050919050565b5f6020820190508181035f83015261454081614507565b9050919050565b7f446561646c696e65206d75737420626520696e206675747572650000000000005f82015250565b5f61457b601a83613d5e565b915061458682614547565b602082019050919050565b5f6020820190508181035f8301526145a88161456f565b9050919050565b7f42726965662068617368207265717569726564000000000000000000000000005f82015250565b5f6145e3601383613d5e565b91506145ee826145af565b602082019050919050565b5f6020820190508181035f830152614610816145d7565b9050919050565b7f4e487b71000000000000000000000000000000000000000000000000000000005f52602260045260245ffd5b5f600282049050600182168061465b57607f821691505b60208210810361466e5761466d614617565b5b50919050565b5f819050815f5260205f209050919050565b5f6020601f8301049050919050565b5f82821b905092915050565b5f600883026146d07fffffffffffffffffffffffffffffffffffffffffffffffffffffffffffffffff82614695565b6146da8683614695565b95508019841693508086168417925050509392505050565b5f61470c61470761470284613aa9565b614117565b613aa9565b9050919050565b5f819050919050565b614725836146f2565b61473961473182614713565b8484546146a1565b825550505050565b5f90565b61474d614741565b61475881848461471c565b505050565b5b8181101561477b576147705f82614745565b60018101905061475e565b5050565b601f8211156147c05761479181614674565b61479a84614686565b810160208510156147a9578190505b6147bd6147b585614686565b83018261475d565b50505b505050565b5f82821c905092915050565b5f6147e05f19846008026147c5565b1980831691505092915050565b5f6147f883836147d1565b9150826002028217905092915050565b61481182613d54565b67ffffffffffffffff81111561482a5761482961392b565b5b6148348254614644565b61483f82828561477f565b5f60209050601f831160018114614870575f841561485e578287015190505b61486885826147ed565b8655506148cf565b601f19841661487e86614674565b5f5b828110156148a557848901518255600182019150602085019450602081019050614880565b868310156148c257848901516148be601f8916826147d1565b8355505b6001600288020188555050505b505050505050565b5f6040820190506148ea5f830185613cc6565b6148f76020830184613cc6565b9392505050565b7f4465616c20646f6573206e6f74206578697374000000000000000000000000005f82015250565b5f614932601383613d5e565b915061493d826148fe565b602082019050919050565b5f6020820190508181035f83015261495f81614926565b9050919050565b7f496e76616c6964206272616e64206164647265737320666f72206465616c00005f82015250565b5f61499a601e83613d5e565b91506149a582614966565b602082019050919050565b5f6020820190508181035f8301526149c78161498e565b9050919050565b7f496e76616c6964206465616c20737461747573000000000000000000000000005f82015250565b5f614a02601383613d5e565b9150614a0d826149ce565b602082019050919050565b5f6020820190508181035f830152614a2f816149f6565b9050919050565b5f819050919050565b5f614a59614a54614a4f84614a36565b614117565b613aa9565b9050919050565b614a6981614a3f565b82525050565b5f602082019050614a825f830184614a60565b92915050565b7f52657669657720706572696f6420656e646564000000000000000000000000005f82015250565b5f614abc601383613d5e565b9150614ac782614a88565b602082019050919050565b5f6020820190508181035f830152614ae981614ab0565b9050919050565b7f526561736f6e20726571756972656400000000000000000000000000000000005f82015250565b5f614b24600f83613d5e565b9150614b2f82614af0565b602082019050919050565b5f6020820190508181035f830152614b5181614b18565b9050919050565b7f43616e6e6f742063616e63656c2074686973206465616c0000000000000000005f82015250565b5f614b8c601783613d5e565b9150614b9782614b58565b602082019050919050565b5f6020820190508181035f830152614bb981614b80565b9050919050565b7f52657669657720706572696f64206e6f7420656e6465640000000000000000005f82015250565b5f614bf4601783613d5e565b9150614bff82614bc0565b602082019050919050565b5f6020820190508181035f830152614c2181614be8565b9050919050565b7f496e76616c69642063726561746f72206164647265737320666f72206465616c5f82015250565b5f614c5c602083613d5e565b9150614c6782614c28565b602082019050919050565b5f6020820190508181035f830152614c8981614c50565b9050919050565b7f5375626d697373696f6e20646561646c696e6520686173207061737365642e205f8201527f4465616c206973206175746f2d63616e63656c6c65642e000000000000000000602082015250565b5f614cea603783613d5e565b9150614cf582614c90565b604082019050919050565b5f6020820190508181035f830152614d1781614cde565b9050919050565b7f436f6e74656e742055524c2072657175697265640000000000000000000000005f82015250565b5f614d52601483613d5e565b9150614d5d82614d1e565b602082019050919050565b5f6020820190508181035f830152614d7f81614d46565b9050919050565b7f4e487b71000000000000000000000000000000000000000000000000000000005f52601160045260245ffd5b5f614dbd82613aa9565b9150614dc883613aa9565b9250828201905080821115614de057614ddf614d86565b5b92915050565b5f6040820190508181035f830152614dfe8185613d96565b9050614e0d6020830184613cc6565b9392505050565b7f43616e6e6f7420776974686472617720494452580000000000000000000000005f82015250565b5f614e48601483613d5e565b9150614e5382614e14565b602082019050919050565b5f6020820190508181035f830152614e7581614e3c565b9050919050565b7f46656520746f6f206869676820286d61782031302529000000000000000000005f82015250565b5f614eb0601683613d5e565b9150614ebb82614e7c565b602082019050919050565b5f6020820190508181035f830152614edd81614ea4565b9050919050565b7f446561646c696e6520686173206e6f7420796574207061737365642e000000005f82015250565b5f614f18601c83613d5e565b9150614f2382614ee4565b602082019050919050565b5f6020820190508181035f830152614f4581614f0c565b9050919050565b5f614f5682613aa9565b9150614f6183613aa9565b9250828202614f6f81613aa9565b91508282048414831517614f8657614f85614d86565b5b5092915050565b7f4e487b71000000000000000000000000000000000000000000000000000000005f52601260045260245ffd5b5f614fc482613aa9565b9150614fcf83613aa9565b925082614fdf57614fde614f8d565b5b828204905092915050565b5f614ff482613aa9565b9150614fff83613aa9565b925082820390508181111561501757615016614d86565b5b92915050565b5f6060820190506150305f830186613df9565b61503d6020830185613cc6565b61504a6040830184613cc6565b949350505050565b7f496e76616c6964206164647265737300000000000000000000000000000000005f82015250565b5f615086600f83613d5e565b915061509182615052565b602082019050919050565b5f6020820190508181035f8301526150b38161507a565b9050919050565b5f6040820190506150cd5f830185613cee565b6150da6020830184613cee565b9392505050565b7f5061757361626c653a20706175736564000000000000000000000000000000005f82015250565b5f615115601083613d5e565b9150615120826150e1565b602082019050919050565b5f6020820190508181035f83015261514281615109565b9050919050565b7f5265656e7472616e637947756172643a207265656e7472616e742063616c6c005f82015250565b5f61517d601f83613d5e565b915061518882615149565b602082019050919050565b5f6020820190508181035f8301526151aa81615171565b9050919050565b5f6060820190506151c45f830186613cee565b6151d16020830185613cee565b6151de6040830184613cc6565b949350505050565b5f6040820190506151f95f830185613cee565b6152066020830184613cc6565b9392505050565b7f5061757361626c653a206e6f74207061757365640000000000000000000000005f82015250565b5f615241601483613d5e565b915061524c8261520d565b602082019050919050565b5f6020820190508181035f83015261526e81615235565b905091905056fea264697066735822122043c3fc83ba686b181f57402519b6490e545ea61d63a2f31ec0a197501ef9494964736f6c63430008140033",
			"opcodes": "PUSH1 0x80 PUSH1 0x40 MSTORE PUSH1 0xFA PUSH1 0x3 SSTORE CALLVALUE DUP1 ISZERO PUSH3 0x15 JUMPI PUSH0 DUP1 REVERT JUMPDEST POP PUSH1 0x40 MLOAD PUSH3 0x587E CODESIZE SUB DUP1 PUSH3 0x587E DUP4 CODECOPY DUP2 DUP2 ADD PUSH1 0x40 MSTORE DUP2 ADD SWAP1 PUSH3 0x3B SWAP2 SWAP1 PUSH3 0x3E6 JUMP JUMPDEST DUP1 PUSH1 0x1 PUSH0 DUP2 SWAP1 SSTORE POP PUSH0 PUSH20 0xFFFFFFFFFFFFFFFFFFFFFFFFFFFFFFFFFFFFFFFF AND DUP2 PUSH20 0xFFFFFFFFFFFFFFFFFFFFFFFFFFFFFFFFFFFFFFFF AND SUB PUSH3 0xB6 JUMPI PUSH0 PUSH1 0x40 MLOAD PUSH32 0x1E4FBDF700000000000000000000000000000000000000000000000000000000 DUP2 MSTORE PUSH1 0x4 ADD PUSH3 0xAD SWAP2 SWAP1 PUSH3 0x450 JUMP JUMPDEST PUSH1 0x40 MLOAD DUP1 SWAP2 SUB SWAP1 REVERT JUMPDEST PUSH3 0xC7 DUP2 PUSH3 0x2BE PUSH1 0x20 SHL PUSH1 0x20 SHR JUMP JUMPDEST POP PUSH0 PUSH1 0x1 PUSH1 0x14 PUSH2 0x100 EXP DUP2 SLOAD DUP2 PUSH1 0xFF MUL NOT AND SWAP1 DUP4 ISZERO ISZERO MUL OR SWAP1 SSTORE POP PUSH0 PUSH20 0xFFFFFFFFFFFFFFFFFFFFFFFFFFFFFFFFFFFFFFFF AND DUP4 PUSH20 0xFFFFFFFFFFFFFFFFFFFFFFFFFFFFFFFFFFFFFFFF AND SUB PUSH3 0x153 JUMPI PUSH1 0x40 MLOAD PUSH32 0x8C379A000000000000000000000000000000000000000000000000000000000 DUP2 MSTORE PUSH1 0x4 ADD PUSH3 0x14A SWAP1 PUSH3 0x4C9 JUMP JUMPDEST PUSH1 0x40 MLOAD DUP1 SWAP2 SUB SWAP1 REVERT JUMPDEST PUSH0 PUSH20 0xFFFFFFFFFFFFFFFFFFFFFFFFFFFFFFFFFFFFFFFF AND DUP3 PUSH20 0xFFFFFFFFFFFFFFFFFFFFFFFFFFFFFFFFFFFFFFFF AND SUB PUSH3 0x1C4 JUMPI PUSH1 0x40 MLOAD PUSH32 0x8C379A000000000000000000000000000000000000000000000000000000000 DUP2 MSTORE PUSH1 0x4 ADD PUSH3 0x1BB SWAP1 PUSH3 0x537 JUMP JUMPDEST PUSH1 0x40 MLOAD DUP1 SWAP2 SUB SWAP1 REVERT JUMPDEST PUSH0 PUSH20 0xFFFFFFFFFFFFFFFFFFFFFFFFFFFFFFFFFFFFFFFF AND DUP2 PUSH20 0xFFFFFFFFFFFFFFFFFFFFFFFFFFFFFFFFFFFFFFFF AND SUB PUSH3 0x235 JUMPI PUSH1 0x40 MLOAD PUSH32 0x8C379A000000000000000000000000000000000000000000000000000000000 DUP2 MSTORE PUSH1 0x4 ADD PUSH3 0x22C SWAP1 PUSH3 0x5A5 JUMP JUMPDEST PUSH1 0x40 MLOAD DUP1 SWAP2 SUB SWAP1 REVERT JUMPDEST DUP3 PUSH1 0x2 PUSH0 PUSH2 0x100 EXP DUP2 SLOAD DUP2 PUSH20 0xFFFFFFFFFFFFFFFFFFFFFFFFFFFFFFFFFFFFFFFF MUL NOT AND SWAP1 DUP4 PUSH20 0xFFFFFFFFFFFFFFFFFFFFFFFFFFFFFFFFFFFFFFFF AND MUL OR SWAP1 SSTORE POP DUP2 PUSH1 0x4 PUSH0 PUSH2 0x100 EXP DUP2 SLOAD DUP2 PUSH20 0xFFFFFFFFFFFFFFFFFFFFFFFFFFFFFFFFFFFFFFFF MUL NOT AND SWAP1 DUP4 PUSH20 0xFFFFFFFFFFFFFFFFFFFFFFFFFFFFFFFFFFFFFFFF AND MUL OR SWAP1 SSTORE POP POP POP POP PUSH3 0x5C5 JUMP JUMPDEST PUSH0 PUSH1 0x1 PUSH0 SWAP1 SLOAD SWAP1 PUSH2 0x100 EXP SWAP1 DIV PUSH20 0xFFFFFFFFFFFFFFFFFFFFFFFFFFFFFFFFFFFFFFFF AND SWAP1 POP DUP2 PUSH1 0x1 PUSH0 PUSH2 0x100 EXP DUP2 SLOAD DUP2 PUSH20 0xFFFFFFFFFFFFFFFFFFFFFFFFFFFFFFFFFFFFFFFF MUL NOT AND SWAP1 DUP4 PUSH20 0xFFFFFFFFFFFFFFFFFFFFFFFFFFFFFFFFFFFFFFFF AND MUL OR SWAP1 SSTORE POP DUP2 PUSH20 0xFFFFFFFFFFFFFFFFFFFFFFFFFFFFFFFFFFFFFFFF AND DUP2 PUSH20 0xFFFFFFFFFFFFFFFFFFFFFFFFFFFFFFFFFFFFFFFF AND PUSH32 0x8BE0079C531659141344CD1FD0A4F28419497F9722A3DAAFE3B4186F6B6457E0 PUSH1 0x40 MLOAD PUSH1 0x40 MLOAD DUP1 SWAP2 SUB SWAP1 LOG3 POP POP JUMP JUMPDEST PUSH0 DUP1 REVERT JUMPDEST PUSH0 PUSH20 0xFFFFFFFFFFFFFFFFFFFFFFFFFFFFFFFFFFFFFFFF DUP3 AND SWAP1 POP SWAP2 SWAP1 POP JUMP JUMPDEST PUSH0 PUSH3 0x3B0 DUP3 PUSH3 0x385 JUMP JUMPDEST SWAP1 POP SWAP2 SWAP1 POP JUMP JUMPDEST PUSH3 0x3C2 DUP2 PUSH3 0x3A4 JUMP JUMPDEST DUP2 EQ PUSH3 0x3CD JUMPI PUSH0 DUP1 REVERT JUMPDEST POP JUMP JUMPDEST PUSH0 DUP2 MLOAD SWAP1 POP PUSH3 0x3E0 DUP2 PUSH3 0x3B7 JUMP JUMPDEST SWAP3 SWAP2 POP POP JUMP JUMPDEST PUSH0 DUP1 PUSH0 PUSH1 0x60 DUP5 DUP7 SUB SLT ISZERO PUSH3 0x400 JUMPI PUSH3 0x3FF PUSH3 0x381 JUMP JUMPDEST JUMPDEST PUSH0 PUSH3 0x40F DUP7 DUP3 DUP8 ADD PUSH3 0x3D0 JUMP JUMPDEST SWAP4 POP POP PUSH1 0x20 PUSH3 0x422 DUP7 DUP3 DUP8 ADD PUSH3 0x3D0 JUMP JUMPDEST SWAP3 POP POP PUSH1 0x40 PUSH3 0x435 DUP7 DUP3 DUP8 ADD PUSH3 0x3D0 JUMP JUMPDEST SWAP2 POP POP SWAP3 POP SWAP3 POP SWAP3 JUMP JUMPDEST PUSH3 0x44A DUP2 PUSH3 0x3A4 JUMP JUMPDEST DUP3 MSTORE POP POP JUMP JUMPDEST PUSH0 PUSH1 0x20 DUP3 ADD SWAP1 POP PUSH3 0x465 PUSH0 DUP4 ADD DUP5 PUSH3 0x43F JUMP JUMPDEST SWAP3 SWAP2 POP POP JUMP JUMPDEST PUSH0 DUP3 DUP3 MSTORE PUSH1 0x20 DUP3 ADD SWAP1 POP SWAP3 SWAP2 POP POP JUMP JUMPDEST PUSH32 0x496E76616C6964204944525820746F6B656E2061646472657373000000000000 PUSH0 DUP3 ADD MSTORE POP JUMP JUMPDEST PUSH0 PUSH3 0x4B1 PUSH1 0x1A DUP4 PUSH3 0x46B JUMP JUMPDEST SWAP2 POP PUSH3 0x4BE DUP3 PUSH3 0x47B JUMP JUMPDEST PUSH1 0x20 DUP3 ADD SWAP1 POP SWAP2 SWAP1 POP JUMP JUMPDEST PUSH0 PUSH1 0x20 DUP3 ADD SWAP1 POP DUP2 DUP2 SUB PUSH0 DUP4 ADD MSTORE PUSH3 0x4E2 DUP2 PUSH3 0x4A3 JUMP JUMPDEST SWAP1 POP SWAP2 SWAP1 POP JUMP JUMPDEST PUSH32 0x496E76616C69642066656520726563697069656E740000000000000000000000 PUSH0 DUP3 ADD MSTORE POP JUMP JUMPDEST PUSH0 PUSH3 0x51F PUSH1 0x15 DUP4 PUSH3 0x46B JUMP JUMPDEST SWAP2 POP PUSH3 0x52C DUP3 PUSH3 0x4E9 JUMP JUMPDEST PUSH1 0x20 DUP3 ADD SWAP1 POP SWAP2 SWAP1 POP JUMP JUMPDEST PUSH0 PUSH1 0x20 DUP3 ADD SWAP1 POP DUP2 DUP2 SUB PUSH0 DUP4 ADD MSTORE PUSH3 0x550 DUP2 PUSH3 0x511 JUMP JUMPDEST SWAP1 POP SWAP2 SWAP1 POP JUMP JUMPDEST PUSH32 0x496E76616C6964206F776E657220616464726573730000000000000000000000 PUSH0 DUP3 ADD MSTORE POP JUMP JUMPDEST PUSH0 PUSH3 0x58D PUSH1 0x15 DUP4 PUSH3 0x46B JUMP JUMPDEST SWAP2 POP PUSH3 0x59A DUP3 PUSH3 0x557 JUMP JUMPDEST PUSH1 0x20 DUP3 ADD SWAP1 POP SWAP2 SWAP1 POP JUMP JUMPDEST PUSH0 PUSH1 0x20 DUP3 ADD SWAP1 POP DUP2 DUP2 SUB PUSH0 DUP4 ADD MSTORE PUSH3 0x5BE DUP2 PUSH3 0x57F JUMP JUMPDEST SWAP1 POP SWAP2 SWAP1 POP JUMP JUMPDEST PUSH2 0x52AB DUP1 PUSH3 0x5D3 PUSH0 CODECOPY PUSH0 RETURN INVALID PUSH1 0x80 PUSH1 0x40 MSTORE CALLVALUE DUP1 ISZERO PUSH2 0xF JUMPI PUSH0 DUP1 REVERT JUMPDEST POP PUSH1 0x4 CALLDATASIZE LT PUSH2 0x1D8 JUMPI PUSH0 CALLDATALOAD PUSH1 0xE0 SHR DUP1 PUSH4 0x76492D3F GT PUSH2 0x102 JUMPI DUP1 PUSH4 0xD46597E3 GT PUSH2 0xA0 JUMPI DUP1 PUSH4 0xE7079180 GT PUSH2 0x6F JUMPI DUP1 PUSH4 0xE7079180 EQ PUSH2 0x4FB JUMPI DUP1 PUSH4 0xEF03C10E EQ PUSH2 0x536 JUMPI DUP1 PUSH4 0xF160D369 EQ PUSH2 0x552 JUMPI DUP1 PUSH4 0xF2FDE38B EQ PUSH2 0x56E JUMPI PUSH2 0x1D8 JUMP JUMPDEST DUP1 PUSH4 0xD46597E3 EQ PUSH2 0x473 JUMPI DUP1 PUSH4 0xD6BC7C63 EQ PUSH2 0x4A3 JUMPI DUP1 PUSH4 0xE1A45218 EQ PUSH2 0x4C1 JUMPI DUP1 PUSH4 0xE39FFF38 EQ PUSH2 0x4DF JUMPI PUSH2 0x1D8 JUMP JUMPDEST DUP1 PUSH4 0x95CCEA67 GT PUSH2 0xDC JUMPI DUP1 PUSH4 0x95CCEA67 EQ PUSH2 0x3D0 JUMPI DUP1 PUSH4 0x9FAD59B4 EQ PUSH2 0x3EC JUMPI DUP1 PUSH4 0xA0A57DAC EQ PUSH2 0x41C JUMPI DUP1 PUSH4 0xAA0B5988 EQ PUSH2 0x457 JUMPI PUSH2 0x1D8 JUMP JUMPDEST DUP1 PUSH4 0x76492D3F EQ PUSH2 0x378 JUMPI DUP1 PUSH4 0x8456CB59 EQ PUSH2 0x3A8 JUMPI DUP1 PUSH4 0x8DA5CB5B EQ PUSH2 0x3B2 JUMPI PUSH2 0x1D8 JUMP JUMPDEST DUP1 PUSH4 0x38A13287 GT PUSH2 0x17A JUMPI DUP1 PUSH4 0x4971716F GT PUSH2 0x149 JUMPI DUP1 PUSH4 0x4971716F EQ PUSH2 0x304 JUMPI DUP1 PUSH4 0x53A140AC EQ PUSH2 0x320 JUMPI DUP1 PUSH4 0x5C975ABB EQ PUSH2 0x350 JUMPI DUP1 PUSH4 0x715018A6 EQ PUSH2 0x36E JUMPI PUSH2 0x1D8 JUMP JUMPDEST DUP1 PUSH4 0x38A13287 EQ PUSH2 0x2A2 JUMPI DUP1 PUSH4 0x3F4BA83A EQ PUSH2 0x2BE JUMPI DUP1 PUSH4 0x42BCF75C EQ PUSH2 0x2C8 JUMPI DUP1 PUSH4 0x46904840 EQ PUSH2 0x2E6 JUMPI PUSH2 0x1D8 JUMP JUMPDEST DUP1 PUSH4 0xE59A395 GT PUSH2 0x1B6 JUMPI DUP1 PUSH4 0xE59A395 EQ PUSH2 0x230 JUMPI DUP1 PUSH4 0x1A1AAEED EQ PUSH2 0x24C JUMPI DUP1 PUSH4 0x22DCD13E EQ PUSH2 0x268 JUMPI DUP1 PUSH4 0x24D956C8 EQ PUSH2 0x286 JUMPI PUSH2 0x1D8 JUMP JUMPDEST DUP1 PUSH4 0x3F502AE EQ PUSH2 0x1DC JUMPI DUP1 PUSH4 0x3F715DA EQ PUSH2 0x1F8 JUMPI DUP1 PUSH4 0xA40F15F EQ PUSH2 0x214 JUMPI JUMPDEST PUSH0 DUP1 REVERT JUMPDEST PUSH2 0x1F6 PUSH1 0x4 DUP1 CALLDATASIZE SUB DUP2 ADD SWAP1 PUSH2 0x1F1 SWAP2 SWAP1 PUSH2 0x3ADC JUMP JUMPDEST PUSH2 0x58A JUMP JUMPDEST STOP JUMPDEST PUSH2 0x212 PUSH1 0x4 DUP1 CALLDATASIZE SUB DUP2 ADD SWAP1 PUSH2 0x20D SWAP2 SWAP1 PUSH2 0x3B9D JUMP JUMPDEST PUSH2 0xB8A JUMP JUMPDEST STOP JUMPDEST PUSH2 0x22E PUSH1 0x4 DUP1 CALLDATASIZE SUB DUP2 ADD SWAP1 PUSH2 0x229 SWAP2 SWAP1 PUSH2 0x3B9D JUMP JUMPDEST PUSH2 0xE00 JUMP JUMPDEST STOP JUMPDEST PUSH2 0x24A PUSH1 0x4 DUP1 CALLDATASIZE SUB DUP2 ADD SWAP1 PUSH2 0x245 SWAP2 SWAP1 PUSH2 0x3BF7 JUMP JUMPDEST PUSH2 0x10ED JUMP JUMPDEST STOP JUMPDEST PUSH2 0x266 PUSH1 0x4 DUP1 CALLDATASIZE SUB DUP2 ADD SWAP1 PUSH2 0x261 SWAP2 SWAP1 PUSH2 0x3C7F JUMP JUMPDEST PUSH2 0x13F6 JUMP JUMPDEST STOP JUMPDEST PUSH2 0x270 PUSH2 0x1667 JUMP JUMPDEST PUSH1 0x40 MLOAD PUSH2 0x27D SWAP2 SWAP1 PUSH2 0x3CD5 JUMP JUMPDEST PUSH1 0x40 MLOAD DUP1 SWAP2 SUB SWAP1 RETURN JUMPDEST PUSH2 0x2A0 PUSH1 0x4 DUP1 CALLDATASIZE SUB DUP2 ADD SWAP1 PUSH2 0x29B SWAP2 SWAP1 PUSH2 0x3B9D JUMP JUMPDEST PUSH2 0x166D JUMP JUMPDEST STOP JUMPDEST PUSH2 0x2BC PUSH1 0x4 DUP1 CALLDATASIZE SUB DUP2 ADD SWAP1 PUSH2 0x2B7 SWAP2 SWAP1 PUSH2 0x3C7F JUMP JUMPDEST PUSH2 0x18AB JUMP JUMPDEST STOP JUMPDEST PUSH2 0x2C6 PUSH2 0x1A3F JUMP JUMPDEST STOP JUMPDEST PUSH2 0x2D0 PUSH2 0x1A51 JUMP JUMPDEST PUSH1 0x40 MLOAD PUSH2 0x2DD SWAP2 SWAP1 PUSH2 0x3CD5 JUMP JUMPDEST PUSH1 0x40 MLOAD DUP1 SWAP2 SUB SWAP1 RETURN JUMPDEST PUSH2 0x2EE PUSH2 0x1A58 JUMP JUMPDEST PUSH1 0x40 MLOAD PUSH2 0x2FB SWAP2 SWAP1 PUSH2 0x3CFD JUMP JUMPDEST PUSH1 0x40 MLOAD DUP1 SWAP2 SUB SWAP1 RETURN JUMPDEST PUSH2 0x31E PUSH1 0x4 DUP1 CALLDATASIZE SUB DUP2 ADD SWAP1 PUSH2 0x319 SWAP2 SWAP1 PUSH2 0x3BF7 JUMP JUMPDEST PUSH2 0x1A7D JUMP JUMPDEST STOP JUMPDEST PUSH2 0x33A PUSH1 0x4 DUP1 CALLDATASIZE SUB DUP2 ADD SWAP1 PUSH2 0x335 SWAP2 SWAP1 PUSH2 0x3D16 JUMP JUMPDEST PUSH2 0x1DBF JUMP JUMPDEST PUSH1 0x40 MLOAD PUSH2 0x347 SWAP2 SWAP1 PUSH2 0x3DCE JUMP JUMPDEST PUSH1 0x40 MLOAD DUP1 SWAP2 SUB SWAP1 RETURN JUMPDEST PUSH2 0x358 PUSH2 0x1E70 JUMP JUMPDEST PUSH1 0x40 MLOAD PUSH2 0x365 SWAP2 SWAP1 PUSH2 0x3E08 JUMP JUMPDEST PUSH1 0x40 MLOAD DUP1 SWAP2 SUB SWAP1 RETURN JUMPDEST PUSH2 0x376 PUSH2 0x1E86 JUMP JUMPDEST STOP JUMPDEST PUSH2 0x392 PUSH1 0x4 DUP1 CALLDATASIZE SUB DUP2 ADD SWAP1 PUSH2 0x38D SWAP2 SWAP1 PUSH2 0x3C7F JUMP JUMPDEST PUSH2 0x1E99 JUMP JUMPDEST PUSH1 0x40 MLOAD PUSH2 0x39F SWAP2 SWAP1 PUSH2 0x3E08 JUMP JUMPDEST PUSH1 0x40 MLOAD DUP1 SWAP2 SUB SWAP1 RETURN JUMPDEST PUSH2 0x3B0 PUSH2 0x1F24 JUMP JUMPDEST STOP JUMPDEST PUSH2 0x3BA PUSH2 0x1F36 JUMP JUMPDEST PUSH1 0x40 MLOAD PUSH2 0x3C7 SWAP2 SWAP1 PUSH2 0x3CFD JUMP JUMPDEST PUSH1 0x40 MLOAD DUP1 SWAP2 SUB SWAP1 RETURN JUMPDEST PUSH2 0x3EA PUSH1 0x4 DUP1 CALLDATASIZE SUB DUP2 ADD SWAP1 PUSH2 0x3E5 SWAP2 SWAP1 PUSH2 0x3D16 JUMP JUMPDEST PUSH2 0x1F5E JUMP JUMPDEST STOP JUMPDEST PUSH2 0x406 PUSH1 0x4 DUP1 CALLDATASIZE SUB DUP2 ADD SWAP1 PUSH2 0x401 SWAP2 SWAP1 PUSH2 0x3E4B JUMP JUMPDEST PUSH2 0x202B JUMP JUMPDEST PUSH1 0x40 MLOAD PUSH2 0x413 SWAP2 SWAP1 PUSH2 0x3F8C JUMP JUMPDEST PUSH1 0x40 MLOAD DUP1 SWAP2 SUB SWAP1 RETURN JUMPDEST PUSH2 0x436 PUSH1 0x4 DUP1 CALLDATASIZE SUB DUP2 ADD SWAP1 PUSH2 0x431 SWAP2 SWAP1 PUSH2 0x3C7F JUMP JUMPDEST PUSH2 0x2253 JUMP JUMPDEST PUSH1 0x40 MLOAD PUSH2 0x44E SWAP13 SWAP12 SWAP11 SWAP10 SWAP9 SWAP8 SWAP7 SWAP6 SWAP5 SWAP4 SWAP3 SWAP2 SWAP1 PUSH2 0x401F JUMP JUMPDEST PUSH1 0x40 MLOAD DUP1 SWAP2 SUB SWAP1 RETURN JUMPDEST PUSH2 0x471 PUSH1 0x4 DUP1 CALLDATASIZE SUB DUP2 ADD SWAP1 PUSH2 0x46C SWAP2 SWAP1 PUSH2 0x40EC JUMP JUMPDEST PUSH2 0x24AF JUMP JUMPDEST STOP JUMPDEST PUSH2 0x48D PUSH1 0x4 DUP1 CALLDATASIZE SUB DUP2 ADD SWAP1 PUSH2 0x488 SWAP2 SWAP1 PUSH2 0x3D16 JUMP JUMPDEST PUSH2 0x2546 JUMP JUMPDEST PUSH1 0x40 MLOAD PUSH2 0x49A SWAP2 SWAP1 PUSH2 0x3DCE JUMP JUMPDEST PUSH1 0x40 MLOAD DUP1 SWAP2 SUB SWAP1 RETURN JUMPDEST PUSH2 0x4AB PUSH2 0x25F7 JUMP JUMPDEST PUSH1 0x40 MLOAD PUSH2 0x4B8 SWAP2 SWAP1 PUSH2 0x4172 JUMP JUMPDEST PUSH1 0x40 MLOAD DUP1 SWAP2 SUB SWAP1 RETURN JUMPDEST PUSH2 0x4C9 PUSH2 0x261C JUMP JUMPDEST PUSH1 0x40 MLOAD PUSH2 0x4D6 SWAP2 SWAP1 PUSH2 0x3CD5 JUMP JUMPDEST PUSH1 0x40 MLOAD DUP1 SWAP2 SUB SWAP1 RETURN JUMPDEST PUSH2 0x4F9 PUSH1 0x4 DUP1 CALLDATASIZE SUB DUP2 ADD SWAP1 PUSH2 0x4F4 SWAP2 SWAP1 PUSH2 0x3C7F JUMP JUMPDEST PUSH2 0x2622 JUMP JUMPDEST STOP JUMPDEST PUSH2 0x515 PUSH1 0x4 DUP1 CALLDATASIZE SUB DUP2 ADD SWAP1 PUSH2 0x510 SWAP2 SWAP1 PUSH2 0x3C7F JUMP JUMPDEST PUSH2 0x28B4 JUMP JUMPDEST PUSH1 0x40 MLOAD PUSH2 0x52D SWAP13 SWAP12 SWAP11 SWAP10 SWAP9 SWAP8 SWAP7 SWAP6 SWAP5 SWAP4 SWAP3 SWAP2 SWAP1 PUSH2 0x418B JUMP JUMPDEST PUSH1 0x40 MLOAD DUP1 SWAP2 SUB SWAP1 RETURN JUMPDEST PUSH2 0x550 PUSH1 0x4 DUP1 CALLDATASIZE SUB DUP2 ADD SWAP1 PUSH2 0x54B SWAP2 SWAP1 PUSH2 0x4258 JUMP JUMPDEST PUSH2 0x2B87 JUMP JUMPDEST STOP JUMPDEST PUSH2 0x56C PUSH1 0x4 DUP1 CALLDATASIZE SUB DUP2 ADD SWAP1 PUSH2 0x567 SWAP2 SWAP1 PUSH2 0x42C4 JUMP JUMPDEST PUSH2 0x30DF JUMP JUMPDEST STOP JUMPDEST PUSH2 0x588 PUSH1 0x4 DUP1 CALLDATASIZE SUB DUP2 ADD SWAP1 PUSH2 0x583 SWAP2 SWAP1 PUSH2 0x42C4 JUMP JUMPDEST PUSH2 0x31F7 JUMP JUMPDEST STOP JUMPDEST PUSH2 0x592 PUSH2 0x327B JUMP JUMPDEST PUSH2 0x59A PUSH2 0x3302 JUMP JUMPDEST PUSH1 0x5 DUP7 PUSH1 0x40 MLOAD PUSH2 0x5AA SWAP2 SWAP1 PUSH2 0x4329 JUMP JUMPDEST SWAP1 DUP2 MSTORE PUSH1 0x20 ADD PUSH1 0x40 MLOAD DUP1 SWAP2 SUB SWAP1 KECCAK256 PUSH1 0xB ADD PUSH0 SWAP1 SLOAD SWAP1 PUSH2 0x100 EXP SWAP1 DIV PUSH1 0xFF AND ISZERO PUSH2 0x608 JUMPI PUSH1 0x40 MLOAD PUSH32 0x8C379A000000000000000000000000000000000000000000000000000000000 DUP2 MSTORE PUSH1 0x4 ADD PUSH2 0x5FF SWAP1 PUSH2 0x4389 JUMP JUMPDEST PUSH1 0x40 MLOAD DUP1 SWAP2 SUB SWAP1 REVERT JUMPDEST PUSH0 PUSH20 0xFFFFFFFFFFFFFFFFFFFFFFFFFFFFFFFFFFFFFFFF AND DUP5 PUSH20 0xFFFFFFFFFFFFFFFFFFFFFFFFFFFFFFFFFFFFFFFF AND SUB PUSH2 0x676 JUMPI PUSH1 0x40 MLOAD PUSH32 0x8C379A000000000000000000000000000000000000000000000000000000000 DUP2 MSTORE PUSH1 0x4 ADD PUSH2 0x66D SWAP1 PUSH2 0x43F1 JUMP JUMPDEST PUSH1 0x40 MLOAD DUP1 SWAP2 SUB SWAP1 REVERT JUMPDEST PUSH0 PUSH20 0xFFFFFFFFFFFFFFFFFFFFFFFFFFFFFFFFFFFFFFFF AND DUP6 PUSH20 0xFFFFFFFFFFFFFFFFFFFFFFFFFFFFFFFFFFFFFFFF AND SUB PUSH2 0x6E4 JUMPI PUSH1 0x40 MLOAD PUSH32 0x8C379A000000000000000000000000000000000000000000000000000000000 DUP2 MSTORE PUSH1 0x4 ADD PUSH2 0x6DB SWAP1 PUSH2 0x4459 JUMP JUMPDEST PUSH1 0x40 MLOAD DUP1 SWAP2 SUB SWAP1 REVERT JUMPDEST DUP4 PUSH20 0xFFFFFFFFFFFFFFFFFFFFFFFFFFFFFFFFFFFFFFFF AND DUP6 PUSH20 0xFFFFFFFFFFFFFFFFFFFFFFFFFFFFFFFFFFFFFFFF AND SUB PUSH2 0x752 JUMPI PUSH1 0x40 MLOAD PUSH32 0x8C379A000000000000000000000000000000000000000000000000000000000 DUP2 MSTORE PUSH1 0x4 ADD PUSH2 0x749 SWAP1 PUSH2 0x44C1 JUMP JUMPDEST PUSH1 0x40 MLOAD DUP1 SWAP2 SUB SWAP1 REVERT JUMPDEST PUSH0 DUP4 SUB PUSH2 0x794 JUMPI PUSH1 0x40 MLOAD PUSH32 0x8C379A000000000000000000000000000000000000000000000000000000000 DUP2 MSTORE PUSH1 0x4 ADD PUSH2 0x78B SWAP1 PUSH2 0x4529 JUMP JUMPDEST PUSH1 0x40 MLOAD DUP1 SWAP2 SUB SWAP1 REVERT JUMPDEST TIMESTAMP DUP3 GT PUSH2 0x7D6 JUMPI PUSH1 0x40 MLOAD PUSH32 0x8C379A000000000000000000000000000000000000000000000000000000000 DUP2 MSTORE PUSH1 0x4 ADD PUSH2 0x7CD SWAP1 PUSH2 0x4591 JUMP JUMPDEST PUSH1 0x40 MLOAD DUP1 SWAP2 SUB SWAP1 REVERT JUMPDEST PUSH0 DUP2 MLOAD SUB PUSH2 0x819 JUMPI PUSH1 0x40 MLOAD PUSH32 0x8C379A000000000000000000000000000000000000000000000000000000000 DUP2 MSTORE PUSH1 0x4 ADD PUSH2 0x810 SWAP1 PUSH2 0x45F9 JUMP JUMPDEST PUSH1 0x40 MLOAD DUP1 SWAP2 SUB SWAP1 REVERT JUMPDEST PUSH1 0x40 MLOAD DUP1 PUSH2 0x180 ADD PUSH1 0x40 MSTORE DUP1 DUP8 DUP2 MSTORE PUSH1 0x20 ADD DUP7 PUSH20 0xFFFFFFFFFFFFFFFFFFFFFFFFFFFFFFFFFFFFFFFF AND DUP2 MSTORE PUSH1 0x20 ADD DUP6 PUSH20 0xFFFFFFFFFFFFFFFFFFFFFFFFFFFFFFFFFFFFFFFF AND DUP2 MSTORE PUSH1 0x20 ADD DUP5 DUP2 MSTORE PUSH1 0x20 ADD DUP4 DUP2 MSTORE PUSH1 0x20 ADD DUP3 DUP2 MSTORE PUSH1 0x20 ADD PUSH0 PUSH1 0x5 DUP2 GT ISZERO PUSH2 0x888 JUMPI PUSH2 0x887 PUSH2 0x3FAC JUMP JUMPDEST JUMPDEST DUP2 MSTORE PUSH1 0x20 ADD PUSH0 DUP2 MSTORE PUSH1 0x20 ADD PUSH0 DUP2 MSTORE PUSH1 0x20 ADD PUSH0 DUP2 MSTORE PUSH1 0x20 ADD PUSH1 0x40 MLOAD DUP1 PUSH1 0x20 ADD PUSH1 0x40 MSTORE DUP1 PUSH0 DUP2 MSTORE POP DUP2 MSTORE PUSH1 0x20 ADD PUSH1 0x1 ISZERO ISZERO DUP2 MSTORE POP PUSH1 0x5 DUP8 PUSH1 0x40 MLOAD PUSH2 0x8CA SWAP2 SWAP1 PUSH2 0x4329 JUMP JUMPDEST SWAP1 DUP2 MSTORE PUSH1 0x20 ADD PUSH1 0x40 MLOAD DUP1 SWAP2 SUB SWAP1 KECCAK256 PUSH0 DUP3 ADD MLOAD DUP2 PUSH0 ADD SWAP1 DUP2 PUSH2 0x8EB SWAP2 SWAP1 PUSH2 0x4808 JUMP JUMPDEST POP PUSH1 0x20 DUP3 ADD MLOAD DUP2 PUSH1 0x1 ADD PUSH0 PUSH2 0x100 EXP DUP2 SLOAD DUP2 PUSH20 0xFFFFFFFFFFFFFFFFFFFFFFFFFFFFFFFFFFFFFFFF MUL NOT AND SWAP1 DUP4 PUSH20 0xFFFFFFFFFFFFFFFFFFFFFFFFFFFFFFFFFFFFFFFF AND MUL OR SWAP1 SSTORE POP PUSH1 0x40 DUP3 ADD MLOAD DUP2 PUSH1 0x2 ADD PUSH0 PUSH2 0x100 EXP DUP2 SLOAD DUP2 PUSH20 0xFFFFFFFFFFFFFFFFFFFFFFFFFFFFFFFFFFFFFFFF MUL NOT AND SWAP1 DUP4 PUSH20 0xFFFFFFFFFFFFFFFFFFFFFFFFFFFFFFFFFFFFFFFF AND MUL OR SWAP1 SSTORE POP PUSH1 0x60 DUP3 ADD MLOAD DUP2 PUSH1 0x3 ADD SSTORE PUSH1 0x80 DUP3 ADD MLOAD DUP2 PUSH1 0x4 ADD SSTORE PUSH1 0xA0 DUP3 ADD MLOAD DUP2 PUSH1 0x5 ADD SWAP1 DUP2 PUSH2 0x9A1 SWAP2 SWAP1 PUSH2 0x4808 JUMP JUMPDEST POP PUSH1 0xC0 DUP3 ADD MLOAD DUP2 PUSH1 0x6 ADD PUSH0 PUSH2 0x100 EXP DUP2 SLOAD DUP2 PUSH1 0xFF MUL NOT AND SWAP1 DUP4 PUSH1 0x5 DUP2 GT ISZERO PUSH2 0x9CC JUMPI PUSH2 0x9CB PUSH2 0x3FAC JUMP JUMPDEST JUMPDEST MUL OR SWAP1 SSTORE POP PUSH1 0xE0 DUP3 ADD MLOAD DUP2 PUSH1 0x7 ADD SSTORE PUSH2 0x100 DUP3 ADD MLOAD DUP2 PUSH1 0x8 ADD SSTORE PUSH2 0x120 DUP3 ADD MLOAD DUP2 PUSH1 0x9 ADD SSTORE PUSH2 0x140 DUP3 ADD MLOAD DUP2 PUSH1 0xA ADD SWAP1 DUP2 PUSH2 0xA07 SWAP2 SWAP1 PUSH2 0x4808 JUMP JUMPDEST POP PUSH2 0x160 DUP3 ADD MLOAD DUP2 PUSH1 0xB ADD PUSH0 PUSH2 0x100 EXP DUP2 SLOAD DUP2 PUSH1 0xFF MUL NOT AND SWAP1 DUP4 ISZERO ISZERO MUL OR SWAP1 SSTORE POP SWAP1 POP POP PUSH1 0x6 PUSH0 DUP7 PUSH20 0xFFFFFFFFFFFFFFFFFFFFFFFFFFFFFFFFFFFFFFFF AND PUSH20 0xFFFFFFFFFFFFFFFFFFFFFFFFFFFFFFFFFFFFFFFF AND DUP2 MSTORE PUSH1 0x20 ADD SWAP1 DUP2 MSTORE PUSH1 0x20 ADD PUSH0 KECCAK256 DUP7 SWAP1 DUP1 PUSH1 0x1 DUP2 SLOAD ADD DUP1 DUP3 SSTORE DUP1 SWAP2 POP POP PUSH1 0x1 SWAP1 SUB SWAP1 PUSH0 MSTORE PUSH1 0x20 PUSH0 KECCAK256 ADD PUSH0 SWAP1 SWAP2 SWAP1 SWAP2 SWAP1 SWAP2 POP SWAP1 DUP2 PUSH2 0xA97 SWAP2 SWAP1 PUSH2 0x4808 JUMP JUMPDEST POP PUSH1 0x7 PUSH0 DUP6 PUSH20 0xFFFFFFFFFFFFFFFFFFFFFFFFFFFFFFFFFFFFFFFF AND PUSH20 0xFFFFFFFFFFFFFFFFFFFFFFFFFFFFFFFFFFFFFFFF AND DUP2 MSTORE PUSH1 0x20 ADD SWAP1 DUP2 MSTORE PUSH1 0x20 ADD PUSH0 KECCAK256 DUP7 SWAP1 DUP1 PUSH1 0x1 DUP2 SLOAD ADD DUP1 DUP3 SSTORE DUP1 SWAP2 POP POP PUSH1 0x1 SWAP1 SUB SWAP1 PUSH0 MSTORE PUSH1 0x20 PUSH0 KECCAK256 ADD PUSH0 SWAP1 SWAP2 SWAP1 SWAP2 SWAP1 SWAP2 POP SWAP1 DUP2 PUSH2 0xB04 SWAP2 SWAP1 PUSH2 0x4808 JUMP JUMPDEST POP DUP4 PUSH20 0xFFFFFFFFFFFFFFFFFFFFFFFFFFFFFFFFFFFFFFFF AND DUP6 PUSH20 0xFFFFFFFFFFFFFFFFFFFFFFFFFFFFFFFFFFFFFFFF AND DUP8 PUSH1 0x40 MLOAD PUSH2 0xB41 SWAP2 SWAP1 PUSH2 0x4329 JUMP JUMPDEST PUSH1 0x40 MLOAD DUP1 SWAP2 SUB SWAP1 KECCAK256 PUSH32 0x4DFA2D4E433A4E1FE0AA3A98EEF56517737C0EF61B1476CAA443106551D802EE DUP7 DUP7 PUSH1 0x40 MLOAD PUSH2 0xB7A SWAP3 SWAP2 SWAP1 PUSH2 0x48D7 JUMP JUMPDEST PUSH1 0x40 MLOAD DUP1 SWAP2 SUB SWAP1 LOG4 POP POP POP POP POP POP JUMP JUMPDEST PUSH2 0xB92 PUSH2 0x327B JUMP JUMPDEST DUP2 PUSH1 0x5 DUP2 PUSH1 0x40 MLOAD PUSH2 0xBA3 SWAP2 SWAP1 PUSH2 0x4329 JUMP JUMPDEST SWAP1 DUP2 MSTORE PUSH1 0x20 ADD PUSH1 0x40 MLOAD DUP1 SWAP2 SUB SWAP1 KECCAK256 PUSH1 0xB ADD PUSH0 SWAP1 SLOAD SWAP1 PUSH2 0x100 EXP SWAP1 DIV PUSH1 0xFF AND PUSH2 0xC00 JUMPI PUSH1 0x40 MLOAD PUSH32 0x8C379A000000000000000000000000000000000000000000000000000000000 DUP2 MSTORE PUSH1 0x4 ADD PUSH2 0xBF7 SWAP1 PUSH2 0x4948 JUMP JUMPDEST PUSH1 0x40 MLOAD DUP1 SWAP2 SUB SWAP1 REVERT JUMPDEST DUP3 DUP3 DUP1 PUSH20 0xFFFFFFFFFFFFFFFFFFFFFFFFFFFFFFFFFFFFFFFF AND PUSH1 0x5 DUP4 PUSH1 0x40 MLOAD PUSH2 0xC29 SWAP2 SWAP1 PUSH2 0x4329 JUMP JUMPDEST SWAP1 DUP2 MSTORE PUSH1 0x20 ADD PUSH1 0x40 MLOAD DUP1 SWAP2 SUB SWAP1 KECCAK256 PUSH1 0x1 ADD PUSH0 SWAP1 SLOAD SWAP1 PUSH2 0x100 EXP SWAP1 DIV PUSH20 0xFFFFFFFFFFFFFFFFFFFFFFFFFFFFFFFFFFFFFFFF AND PUSH20 0xFFFFFFFFFFFFFFFFFFFFFFFFFFFFFFFFFFFFFFFF AND EQ PUSH2 0xCB0 JUMPI PUSH1 0x40 MLOAD PUSH32 0x8C379A000000000000000000000000000000000000000000000000000000000 DUP2 MSTORE PUSH1 0x4 ADD PUSH2 0xCA7 SWAP1 PUSH2 0x49B0 JUMP JUMPDEST PUSH1 0x40 MLOAD DUP1 SWAP2 SUB SWAP1 REVERT JUMPDEST DUP5 PUSH0 DUP1 PUSH1 0x5 DUP2 GT ISZERO PUSH2 0xCC5 JUMPI PUSH2 0xCC4 PUSH2 0x3FAC JUMP JUMPDEST JUMPDEST PUSH1 0x5 DUP4 PUSH1 0x40 MLOAD PUSH2 0xCD5 SWAP2 SWAP1 PUSH2 0x4329 JUMP JUMPDEST SWAP1 DUP2 MSTORE PUSH1 0x20 ADD PUSH1 0x40 MLOAD DUP1 SWAP2 SUB SWAP1 KECCAK256 PUSH1 0x6 ADD PUSH0 SWAP1 SLOAD SWAP1 PUSH2 0x100 EXP SWAP1 DIV PUSH1 0xFF AND PUSH1 0x5 DUP2 GT ISZERO PUSH2 0xD05 JUMPI PUSH2 0xD04 PUSH2 0x3FAC JUMP JUMPDEST JUMPDEST EQ PUSH2 0xD45 JUMPI PUSH1 0x40 MLOAD PUSH32 0x8C379A000000000000000000000000000000000000000000000000000000000 DUP2 MSTORE PUSH1 0x4 ADD PUSH2 0xD3C SWAP1 PUSH2 0x4A18 JUMP JUMPDEST PUSH1 0x40 MLOAD DUP1 SWAP2 SUB SWAP1 REVERT JUMPDEST PUSH0 PUSH1 0x5 DUP9 PUSH1 0x40 MLOAD PUSH2 0xD56 SWAP2 SWAP1 PUSH2 0x4329 JUMP JUMPDEST SWAP1 DUP2 MSTORE PUSH1 0x20 ADD PUSH1 0x40 MLOAD DUP1 SWAP2 SUB SWAP1 KECCAK256 SWAP1 POP PUSH1 0x5 DUP2 PUSH1 0x6 ADD PUSH0 PUSH2 0x100 EXP DUP2 SLOAD DUP2 PUSH1 0xFF MUL NOT AND SWAP1 DUP4 PUSH1 0x5 DUP2 GT ISZERO PUSH2 0xD8D JUMPI PUSH2 0xD8C PUSH2 0x3FAC JUMP JUMPDEST JUMPDEST MUL OR SWAP1 SSTORE POP DUP7 PUSH20 0xFFFFFFFFFFFFFFFFFFFFFFFFFFFFFFFFFFFFFFFF AND DUP9 PUSH1 0x40 MLOAD PUSH2 0xDB7 SWAP2 SWAP1 PUSH2 0x4329 JUMP JUMPDEST PUSH1 0x40 MLOAD DUP1 SWAP2 SUB SWAP1 KECCAK256 PUSH32 0x19A500C76AFE03A03914754F26A2766147BDCB90320371467B02AE014C0F10CB PUSH0 PUSH1 0x40 MLOAD PUSH2 0xDEE SWAP2 SWAP1 PUSH2 0x4A6F JUMP JUMPDEST PUSH1 0x40 MLOAD DUP1 SWAP2 SUB SWAP1 LOG3 POP POP POP POP POP POP POP POP JUMP JUMPDEST PUSH2 0xE08 PUSH2 0x334C JUMP JUMPDEST PUSH2 0xE10 PUSH2 0x327B JUMP JUMPDEST PUSH2 0xE18 PUSH2 0x3302 JUMP JUMPDEST DUP2 PUSH1 0x5 DUP2 PUSH1 0x40 MLOAD PUSH2 0xE29 SWAP2 SWAP1 PUSH2 0x4329 JUMP JUMPDEST SWAP1 DUP2 MSTORE PUSH1 0x20 ADD PUSH1 0x40 MLOAD DUP1 SWAP2 SUB SWAP1 KECCAK256 PUSH1 0xB ADD PUSH0 SWAP1 SLOAD SWAP1 PUSH2 0x100 EXP SWAP1 DIV PUSH1 0xFF AND PUSH2 0xE86 JUMPI PUSH1 0x40 MLOAD PUSH32 0x8C379A000000000000000000000000000000000000000000000000000000000 DUP2 MSTORE PUSH1 0x4 ADD PUSH2 0xE7D SWAP1 PUSH2 0x4948 JUMP JUMPDEST PUSH1 0x40 MLOAD DUP1 SWAP2 SUB SWAP1 REVERT JUMPDEST DUP3 DUP3 DUP1 PUSH20 0xFFFFFFFFFFFFFFFFFFFFFFFFFFFFFFFFFFFFFFFF AND PUSH1 0x5 DUP4 PUSH1 0x40 MLOAD PUSH2 0xEAF SWAP2 SWAP1 PUSH2 0x4329 JUMP JUMPDEST SWAP1 DUP2 MSTORE PUSH1 0x20 ADD PUSH1 0x40 MLOAD DUP1 SWAP2 SUB SWAP1 KECCAK256 PUSH1 0x1 ADD PUSH0 SWAP1 SLOAD SWAP1 PUSH2 0x100 EXP SWAP1 DIV PUSH20 0xFFFFFFFFFFFFFFFFFFFFFFFFFFFFFFFFFFFFFFFF AND PUSH20 0xFFFFFFFFFFFFFFFFFFFFFFFFFFFFFFFFFFFFFFFF AND EQ PUSH2 0xF36 JUMPI PUSH1 0x40 MLOAD PUSH32 0x8C379A000000000000000000000000000000000000000000000000000000000 DUP2 MSTORE PUSH1 0x4 ADD PUSH2 0xF2D SWAP1 PUSH2 0x49B0 JUMP JUMPDEST PUSH1 0x40 MLOAD DUP1 SWAP2 SUB SWAP1 REVERT JUMPDEST DUP5 PUSH0 DUP1 PUSH1 0x5 DUP2 GT ISZERO PUSH2 0xF4B JUMPI PUSH2 0xF4A PUSH2 0x3FAC JUMP JUMPDEST JUMPDEST PUSH1 0x5 DUP4 PUSH1 0x40 MLOAD PUSH2 0xF5B SWAP2 SWAP1 PUSH2 0x4329 JUMP JUMPDEST SWAP1 DUP2 MSTORE PUSH1 0x20 ADD PUSH1 0x40 MLOAD DUP1 SWAP2 SUB SWAP1 KECCAK256 PUSH1 0x6 ADD PUSH0 SWAP1 SLOAD SWAP1 PUSH2 0x100 EXP SWAP1 DIV PUSH1 0xFF AND PUSH1 0x5 DUP2 GT ISZERO PUSH2 0xF8B JUMPI PUSH2 0xF8A PUSH2 0x3FAC JUMP JUMPDEST JUMPDEST EQ PUSH2 0xFCB JUMPI PUSH1 0x40 MLOAD PUSH32 0x8C379A000000000000000000000000000000000000000000000000000000000 DUP2 MSTORE PUSH1 0x4 ADD PUSH2 0xFC2 SWAP1 PUSH2 0x4A18 JUMP JUMPDEST PUSH1 0x40 MLOAD DUP1 SWAP2 SUB SWAP1 REVERT JUMPDEST PUSH0 PUSH1 0x5 DUP9 PUSH1 0x40 MLOAD PUSH2 0xFDC SWAP2 SWAP1 PUSH2 0x4329 JUMP JUMPDEST SWAP1 DUP2 MSTORE PUSH1 0x20 ADD PUSH1 0x40 MLOAD DUP1 SWAP2 SUB SWAP1 KECCAK256 SWAP1 POP PUSH2 0x103E DUP8 ADDRESS DUP4 PUSH1 0x3 ADD SLOAD PUSH1 0x2 PUSH0 SWAP1 SLOAD SWAP1 PUSH2 0x100 EXP SWAP1 DIV PUSH20 0xFFFFFFFFFFFFFFFFFFFFFFFFFFFFFFFFFFFFFFFF AND PUSH20 0xFFFFFFFFFFFFFFFFFFFFFFFFFFFFFFFFFFFFFFFF AND PUSH2 0x3399 SWAP1 SWAP4 SWAP3 SWAP2 SWAP1 PUSH4 0xFFFFFFFF AND JUMP JUMPDEST PUSH1 0x1 DUP2 PUSH1 0x6 ADD PUSH0 PUSH2 0x100 EXP DUP2 SLOAD DUP2 PUSH1 0xFF MUL NOT AND SWAP1 DUP4 PUSH1 0x5 DUP2 GT ISZERO PUSH2 0x1065 JUMPI PUSH2 0x1064 PUSH2 0x3FAC JUMP JUMPDEST JUMPDEST MUL OR SWAP1 SSTORE POP TIMESTAMP DUP2 PUSH1 0x7 ADD DUP2 SWAP1 SSTORE POP DUP7 PUSH20 0xFFFFFFFFFFFFFFFFFFFFFFFFFFFFFFFFFFFFFFFF AND DUP9 PUSH1 0x40 MLOAD PUSH2 0x1098 SWAP2 SWAP1 PUSH2 0x4329 JUMP JUMPDEST PUSH1 0x40 MLOAD DUP1 SWAP2 SUB SWAP1 KECCAK256 PUSH32 0xEDDC0BE5F09CE2D9286942052F4D5A1BB2DBE8A87BF038BF0C59C60FA9CC6ACC DUP4 PUSH1 0x3 ADD SLOAD PUSH1 0x40 MLOAD PUSH2 0x10D3 SWAP2 SWAP1 PUSH2 0x3CD5 JUMP JUMPDEST PUSH1 0x40 MLOAD DUP1 SWAP2 SUB SWAP1 LOG3 POP POP POP POP POP POP PUSH2 0x10E9 PUSH2 0x341B JUMP JUMPDEST POP POP JUMP JUMPDEST PUSH2 0x10F5 PUSH2 0x327B JUMP JUMPDEST PUSH2 0x10FD PUSH2 0x3302 JUMP JUMPDEST DUP3 PUSH1 0x5 DUP2 PUSH1 0x40 MLOAD PUSH2 0x110E SWAP2 SWAP1 PUSH2 0x4329 JUMP JUMPDEST SWAP1 DUP2 MSTORE PUSH1 0x20 ADD PUSH1 0x40 MLOAD DUP1 SWAP2 SUB SWAP1 KECCAK256 PUSH1 0xB ADD PUSH0 SWAP1 SLOAD SWAP1 PUSH2 0x100 EXP SWAP1 DIV PUSH1 0xFF AND PUSH2 0x116B JUMPI PUSH1 0x40 MLOAD PUSH32 0x8C379A000000000000000000000000000000000000000000000000000000000 DUP2 MSTORE PUSH1 0x4 ADD PUSH2 0x1162 SWAP1 PUSH2 0x4948 JUMP JUMPDEST PUSH1 0x40 MLOAD DUP1 SWAP2 SUB SWAP1 REVERT JUMPDEST DUP4 DUP4 DUP1 PUSH20 0xFFFFFFFFFFFFFFFFFFFFFFFFFFFFFFFFFFFFFFFF AND PUSH1 0x5 DUP4 PUSH1 0x40 MLOAD PUSH2 0x1194 SWAP2 SWAP1 PUSH2 0x4329 JUMP JUMPDEST SWAP1 DUP2 MSTORE PUSH1 0x20 ADD PUSH1 0x40 MLOAD DUP1 SWAP2 SUB SWAP1 KECCAK256 PUSH1 0x1 ADD PUSH0 SWAP1 SLOAD SWAP1 PUSH2 0x100 EXP SWAP1 DIV PUSH20 0xFFFFFFFFFFFFFFFFFFFFFFFFFFFFFFFFFFFFFFFF AND PUSH20 0xFFFFFFFFFFFFFFFFFFFFFFFFFFFFFFFFFFFFFFFF AND EQ PUSH2 0x121B JUMPI PUSH1 0x40 MLOAD PUSH32 0x8C379A000000000000000000000000000000000000000000000000000000000 DUP2 MSTORE PUSH1 0x4 ADD PUSH2 0x1212 SWAP1 PUSH2 0x49B0 JUMP JUMPDEST PUSH1 0x40 MLOAD DUP1 SWAP2 SUB SWAP1 REVERT JUMPDEST DUP6 PUSH1 0x2 DUP1 PUSH1 0x5 DUP2 GT ISZERO PUSH2 0x1231 JUMPI PUSH2 0x1230 PUSH2 0x3FAC JUMP JUMPDEST JUMPDEST PUSH1 0x5 DUP4 PUSH1 0x40 MLOAD PUSH2 0x1241 SWAP2 SWAP1 PUSH2 0x4329 JUMP JUMPDEST SWAP1 DUP2 MSTORE PUSH1 0x20 ADD PUSH1 0x40 MLOAD DUP1 SWAP2 SUB SWAP1 KECCAK256 PUSH1 0x6 ADD PUSH0 SWAP1 SLOAD SWAP1 PUSH2 0x100 EXP SWAP1 DIV PUSH1 0xFF AND PUSH1 0x5 DUP2 GT ISZERO PUSH2 0x1271 JUMPI PUSH2 0x1270 PUSH2 0x3FAC JUMP JUMPDEST JUMPDEST EQ PUSH2 0x12B1 JUMPI PUSH1 0x40 MLOAD PUSH32 0x8C379A000000000000000000000000000000000000000000000000000000000 DUP2 MSTORE PUSH1 0x4 ADD PUSH2 0x12A8 SWAP1 PUSH2 0x4A18 JUMP JUMPDEST PUSH1 0x40 MLOAD DUP1 SWAP2 SUB SWAP1 REVERT JUMPDEST PUSH0 PUSH1 0x5 DUP10 PUSH1 0x40 MLOAD PUSH2 0x12C2 SWAP2 SWAP1 PUSH2 0x4329 JUMP JUMPDEST SWAP1 DUP2 MSTORE PUSH1 0x20 ADD PUSH1 0x40 MLOAD DUP1 SWAP2 SUB SWAP1 KECCAK256 SWAP1 POP DUP1 PUSH1 0x9 ADD SLOAD TIMESTAMP LT PUSH2 0x1318 JUMPI PUSH1 0x40 MLOAD PUSH32 0x8C379A000000000000000000000000000000000000000000000000000000000 DUP2 MSTORE PUSH1 0x4 ADD PUSH2 0x130F SWAP1 PUSH2 0x4AD2 JUMP JUMPDEST PUSH1 0x40 MLOAD DUP1 SWAP2 SUB SWAP1 REVERT JUMPDEST PUSH0 DUP8 MLOAD SUB PUSH2 0x135B JUMPI PUSH1 0x40 MLOAD PUSH32 0x8C379A000000000000000000000000000000000000000000000000000000000 DUP2 MSTORE PUSH1 0x4 ADD PUSH2 0x1352 SWAP1 PUSH2 0x4B3A JUMP JUMPDEST PUSH1 0x40 MLOAD DUP1 SWAP2 SUB SWAP1 REVERT JUMPDEST PUSH1 0x3 DUP2 PUSH1 0x6 ADD PUSH0 PUSH2 0x100 EXP DUP2 SLOAD DUP2 PUSH1 0xFF MUL NOT AND SWAP1 DUP4 PUSH1 0x5 DUP2 GT ISZERO PUSH2 0x1382 JUMPI PUSH2 0x1381 PUSH2 0x3FAC JUMP JUMPDEST JUMPDEST MUL OR SWAP1 SSTORE POP DUP8 PUSH20 0xFFFFFFFFFFFFFFFFFFFFFFFFFFFFFFFFFFFFFFFF AND DUP10 PUSH1 0x40 MLOAD PUSH2 0x13AC SWAP2 SWAP1 PUSH2 0x4329 JUMP JUMPDEST PUSH1 0x40 MLOAD DUP1 SWAP2 SUB SWAP1 KECCAK256 PUSH32 0xDE7B01BEF0884582CE204F7F920E57F99DD569F93867450872F436BE5A03C755 DUP10 PUSH1 0x40 MLOAD PUSH2 0x13E3 SWAP2 SWAP1 PUSH2 0x3DCE JUMP JUMPDEST PUSH1 0x40 MLOAD DUP1 SWAP2 SUB SWAP1 LOG3 POP POP POP POP POP POP POP POP POP JUMP JUMPDEST PUSH2 0x13FE PUSH2 0x334C JUMP JUMPDEST PUSH2 0x1406 PUSH2 0x327B JUMP JUMPDEST DUP1 PUSH1 0x5 DUP2 PUSH1 0x40 MLOAD PUSH2 0x1417 SWAP2 SWAP1 PUSH2 0x4329 JUMP JUMPDEST SWAP1 DUP2 MSTORE PUSH1 0x20 ADD PUSH1 0x40 MLOAD DUP1 SWAP2 SUB SWAP1 KECCAK256 PUSH1 0xB ADD PUSH0 SWAP1 SLOAD SWAP1 PUSH2 0x100 EXP SWAP1 DIV PUSH1 0xFF AND PUSH2 0x1474 JUMPI PUSH1 0x40 MLOAD PUSH32 0x8C379A000000000000000000000000000000000000000000000000000000000 DUP2 MSTORE PUSH1 0x4 ADD PUSH2 0x146B SWAP1 PUSH2 0x4948 JUMP JUMPDEST PUSH1 0x40 MLOAD DUP1 SWAP2 SUB SWAP1 REVERT JUMPDEST PUSH0 PUSH1 0x5 DUP4 PUSH1 0x40 MLOAD PUSH2 0x1485 SWAP2 SWAP1 PUSH2 0x4329 JUMP JUMPDEST SWAP1 DUP2 MSTORE PUSH1 0x20 ADD PUSH1 0x40 MLOAD DUP1 SWAP2 SUB SWAP1 KECCAK256 SWAP1 POP PUSH1 0x1 PUSH1 0x5 DUP2 GT ISZERO PUSH2 0x14A9 JUMPI PUSH2 0x14A8 PUSH2 0x3FAC JUMP JUMPDEST JUMPDEST DUP2 PUSH1 0x6 ADD PUSH0 SWAP1 SLOAD SWAP1 PUSH2 0x100 EXP SWAP1 DIV PUSH1 0xFF AND PUSH1 0x5 DUP2 GT ISZERO PUSH2 0x14CC JUMPI PUSH2 0x14CB PUSH2 0x3FAC JUMP JUMPDEST JUMPDEST EQ DUP1 PUSH2 0x150C JUMPI POP PUSH1 0x2 PUSH1 0x5 DUP2 GT ISZERO PUSH2 0x14E7 JUMPI PUSH2 0x14E6 PUSH2 0x3FAC JUMP JUMPDEST JUMPDEST DUP2 PUSH1 0x6 ADD PUSH0 SWAP1 SLOAD SWAP1 PUSH2 0x100 EXP SWAP1 DIV PUSH1 0xFF AND PUSH1 0x5 DUP2 GT ISZERO PUSH2 0x150A JUMPI PUSH2 0x1509 PUSH2 0x3FAC JUMP JUMPDEST JUMPDEST EQ JUMPDEST PUSH2 0x154B JUMPI PUSH1 0x40 MLOAD PUSH32 0x8C379A000000000000000000000000000000000000000000000000000000000 DUP2 MSTORE PUSH1 0x4 ADD PUSH2 0x1542 SWAP1 PUSH2 0x4BA2 JUMP JUMPDEST PUSH1 0x40 MLOAD DUP1 SWAP2 SUB SWAP1 REVERT JUMPDEST PUSH0 DUP2 PUSH1 0x3 ADD SLOAD SWAP1 POP PUSH1 0x5 DUP3 PUSH1 0x6 ADD PUSH0 PUSH2 0x100 EXP DUP2 SLOAD DUP2 PUSH1 0xFF MUL NOT AND SWAP1 DUP4 PUSH1 0x5 DUP2 GT ISZERO PUSH2 0x157A JUMPI PUSH2 0x1579 PUSH2 0x3FAC JUMP JUMPDEST JUMPDEST MUL OR SWAP1 SSTORE POP PUSH2 0x15EE DUP3 PUSH1 0x1 ADD PUSH0 SWAP1 SLOAD SWAP1 PUSH2 0x100 EXP SWAP1 DIV PUSH20 0xFFFFFFFFFFFFFFFFFFFFFFFFFFFFFFFFFFFFFFFF AND DUP3 PUSH1 0x2 PUSH0 SWAP1 SLOAD SWAP1 PUSH2 0x100 EXP SWAP1 DIV PUSH20 0xFFFFFFFFFFFFFFFFFFFFFFFFFFFFFFFFFFFFFFFF AND PUSH20 0xFFFFFFFFFFFFFFFFFFFFFFFFFFFFFFFFFFFFFFFF AND PUSH2 0x3424 SWAP1 SWAP3 SWAP2 SWAP1 PUSH4 0xFFFFFFFF AND JUMP JUMPDEST PUSH2 0x15F6 PUSH2 0x1F36 JUMP JUMPDEST PUSH20 0xFFFFFFFFFFFFFFFFFFFFFFFFFFFFFFFFFFFFFFFF AND DUP5 PUSH1 0x40 MLOAD PUSH2 0x161A SWAP2 SWAP1 PUSH2 0x4329 JUMP JUMPDEST PUSH1 0x40 MLOAD DUP1 SWAP2 SUB SWAP1 KECCAK256 PUSH32 0x19A500C76AFE03A03914754F26A2766147BDCB90320371467B02AE014C0F10CB DUP4 PUSH1 0x40 MLOAD PUSH2 0x1651 SWAP2 SWAP1 PUSH2 0x3CD5 JUMP JUMPDEST PUSH1 0x40 MLOAD DUP1 SWAP2 SUB SWAP1 LOG3 POP POP POP PUSH2 0x1664 PUSH2 0x341B JUMP JUMPDEST POP JUMP JUMPDEST PUSH1 0x3 SLOAD DUP2 JUMP JUMPDEST PUSH2 0x1675 PUSH2 0x334C JUMP JUMPDEST PUSH2 0x167D PUSH2 0x327B JUMP JUMPDEST PUSH2 0x1685 PUSH2 0x3302 JUMP JUMPDEST DUP2 PUSH1 0x5 DUP2 PUSH1 0x40 MLOAD PUSH2 0x1696 SWAP2 SWAP1 PUSH2 0x4329 JUMP JUMPDEST SWAP1 DUP2 MSTORE PUSH1 0x20 ADD PUSH1 0x40 MLOAD DUP1 SWAP2 SUB SWAP1 KECCAK256 PUSH1 0xB ADD PUSH0 SWAP1 SLOAD SWAP1 PUSH2 0x100 EXP SWAP1 DIV PUSH1 0xFF AND PUSH2 0x16F3 JUMPI PUSH1 0x40 MLOAD PUSH32 0x8C379A000000000000000000000000000000000000000000000000000000000 DUP2 MSTORE PUSH1 0x4 ADD PUSH2 0x16EA SWAP1 PUSH2 0x4948 JUMP JUMPDEST PUSH1 0x40 MLOAD DUP1 SWAP2 SUB SWAP1 REVERT JUMPDEST DUP3 DUP3 DUP1 PUSH20 0xFFFFFFFFFFFFFFFFFFFFFFFFFFFFFFFFFFFFFFFF AND PUSH1 0x5 DUP4 PUSH1 0x40 MLOAD PUSH2 0x171C SWAP2 SWAP1 PUSH2 0x4329 JUMP JUMPDEST SWAP1 DUP2 MSTORE PUSH1 0x20 ADD PUSH1 0x40 MLOAD DUP1 SWAP2 SUB SWAP1 KECCAK256 PUSH1 0x1 ADD PUSH0 SWAP1 SLOAD SWAP1 PUSH2 0x100 EXP SWAP1 DIV PUSH20 0xFFFFFFFFFFFFFFFFFFFFFFFFFFFFFFFFFFFFFFFF AND PUSH20 0xFFFFFFFFFFFFFFFFFFFFFFFFFFFFFFFFFFFFFFFF AND EQ PUSH2 0x17A3 JUMPI PUSH1 0x40 MLOAD PUSH32 0x8C379A000000000000000000000000000000000000000000000000000000000 DUP2 MSTORE PUSH1 0x4 ADD PUSH2 0x179A SWAP1 PUSH2 0x49B0 JUMP JUMPDEST PUSH1 0x40 MLOAD DUP1 SWAP2 SUB SWAP1 REVERT JUMPDEST DUP5 PUSH1 0x2 DUP1 PUSH1 0x5 DUP2 GT ISZERO PUSH2 0x17B9 JUMPI PUSH2 0x17B8 PUSH2 0x3FAC JUMP JUMPDEST JUMPDEST PUSH1 0x5 DUP4 PUSH1 0x40 MLOAD PUSH2 0x17C9 SWAP2 SWAP1 PUSH2 0x4329 JUMP JUMPDEST SWAP1 DUP2 MSTORE PUSH1 0x20 ADD PUSH1 0x40 MLOAD DUP1 SWAP2 SUB SWAP1 KECCAK256 PUSH1 0x6 ADD PUSH0 SWAP1 SLOAD SWAP1 PUSH2 0x100 EXP SWAP1 DIV PUSH1 0xFF AND PUSH1 0x5 DUP2 GT ISZERO PUSH2 0x17F9 JUMPI PUSH2 0x17F8 PUSH2 0x3FAC JUMP JUMPDEST JUMPDEST EQ PUSH2 0x1839 JUMPI PUSH1 0x40 MLOAD PUSH32 0x8C379A000000000000000000000000000000000000000000000000000000000 DUP2 MSTORE PUSH1 0x4 ADD PUSH2 0x1830 SWAP1 PUSH2 0x4A18 JUMP JUMPDEST PUSH1 0x40 MLOAD DUP1 SWAP2 SUB SWAP1 REVERT JUMPDEST DUP6 PUSH20 0xFFFFFFFFFFFFFFFFFFFFFFFFFFFFFFFFFFFFFFFF AND DUP8 PUSH1 0x40 MLOAD PUSH2 0x185E SWAP2 SWAP1 PUSH2 0x4329 JUMP JUMPDEST PUSH1 0x40 MLOAD DUP1 SWAP2 SUB SWAP1 KECCAK256 PUSH31 0xCAEC7345D2EB04A42197AC2A2CD7CD74A00B2991B69BB53E23465D4092FDFB PUSH1 0x40 MLOAD PUSH1 0x40 MLOAD DUP1 SWAP2 SUB SWAP1 LOG3 PUSH2 0x189A DUP8 PUSH2 0x34A3 JUMP JUMPDEST POP POP POP POP POP PUSH2 0x18A7 PUSH2 0x341B JUMP JUMPDEST POP POP JUMP JUMPDEST PUSH2 0x18B3 PUSH2 0x334C JUMP JUMPDEST PUSH2 0x18BB PUSH2 0x3302 JUMP JUMPDEST DUP1 PUSH1 0x5 DUP2 PUSH1 0x40 MLOAD PUSH2 0x18CC SWAP2 SWAP1 PUSH2 0x4329 JUMP JUMPDEST SWAP1 DUP2 MSTORE PUSH1 0x20 ADD PUSH1 0x40 MLOAD DUP1 SWAP2 SUB SWAP1 KECCAK256 PUSH1 0xB ADD PUSH0 SWAP1 SLOAD SWAP1 PUSH2 0x100 EXP SWAP1 DIV PUSH1 0xFF AND PUSH2 0x1929 JUMPI PUSH1 0x40 MLOAD PUSH32 0x8C379A000000000000000000000000000000000000000000000000000000000 DUP2 MSTORE PUSH1 0x4 ADD PUSH2 0x1920 SWAP1 PUSH2 0x4948 JUMP JUMPDEST PUSH1 0x40 MLOAD DUP1 SWAP2 SUB SWAP1 REVERT JUMPDEST DUP2 PUSH1 0x2 DUP1 PUSH1 0x5 DUP2 GT ISZERO PUSH2 0x193F JUMPI PUSH2 0x193E PUSH2 0x3FAC JUMP JUMPDEST JUMPDEST PUSH1 0x5 DUP4 PUSH1 0x40 MLOAD PUSH2 0x194F SWAP2 SWAP1 PUSH2 0x4329 JUMP JUMPDEST SWAP1 DUP2 MSTORE PUSH1 0x20 ADD PUSH1 0x40 MLOAD DUP1 SWAP2 SUB SWAP1 KECCAK256 PUSH1 0x6 ADD PUSH0 SWAP1 SLOAD SWAP1 PUSH2 0x100 EXP SWAP1 DIV PUSH1 0xFF AND PUSH1 0x5 DUP2 GT ISZERO PUSH2 0x197F JUMPI PUSH2 0x197E PUSH2 0x3FAC JUMP JUMPDEST JUMPDEST EQ PUSH2 0x19BF JUMPI PUSH1 0x40 MLOAD PUSH32 0x8C379A000000000000000000000000000000000000000000000000000000000 DUP2 MSTORE PUSH1 0x4 ADD PUSH2 0x19B6 SWAP1 PUSH2 0x4A18 JUMP JUMPDEST PUSH1 0x40 MLOAD DUP1 SWAP2 SUB SWAP1 REVERT JUMPDEST PUSH0 PUSH1 0x5 DUP6 PUSH1 0x40 MLOAD PUSH2 0x19D0 SWAP2 SWAP1 PUSH2 0x4329 JUMP JUMPDEST SWAP1 DUP2 MSTORE PUSH1 0x20 ADD PUSH1 0x40 MLOAD DUP1 SWAP2 SUB SWAP1 KECCAK256 SWAP1 POP DUP1 PUSH1 0x9 ADD SLOAD TIMESTAMP LT ISZERO PUSH2 0x1A27 JUMPI PUSH1 0x40 MLOAD PUSH32 0x8C379A000000000000000000000000000000000000000000000000000000000 DUP2 MSTORE PUSH1 0x4 ADD PUSH2 0x1A1E SWAP1 PUSH2 0x4C0A JUMP JUMPDEST PUSH1 0x40 MLOAD DUP1 SWAP2 SUB SWAP1 REVERT JUMPDEST PUSH2 0x1A30 DUP6 PUSH2 0x34A3 JUMP JUMPDEST POP POP POP POP PUSH2 0x1A3C PUSH2 0x341B JUMP JUMPDEST POP JUMP JUMPDEST PUSH2 0x1A47 PUSH2 0x327B JUMP JUMPDEST PUSH2 0x1A4F PUSH2 0x3690 JUMP JUMPDEST JUMP JUMPDEST PUSH3 0x3F480 DUP2 JUMP JUMPDEST PUSH1 0x4 PUSH0 SWAP1 SLOAD SWAP1 PUSH2 0x100 EXP SWAP1 DIV PUSH20 0xFFFFFFFFFFFFFFFFFFFFFFFFFFFFFFFFFFFFFFFF AND DUP2 JUMP JUMPDEST PUSH2 0x1A85 PUSH2 0x327B JUMP JUMPDEST PUSH2 0x1A8D PUSH2 0x3302 JUMP JUMPDEST DUP3 PUSH1 0x5 DUP2 PUSH1 0x40 MLOAD PUSH2 0x1A9E SWAP2 SWAP1 PUSH2 0x4329 JUMP JUMPDEST SWAP1 DUP2 MSTORE PUSH1 0x20 ADD PUSH1 0x40 MLOAD DUP1 SWAP2 SUB SWAP1 KECCAK256 PUSH1 0xB ADD PUSH0 SWAP1 SLOAD SWAP1 PUSH2 0x100 EXP SWAP1 DIV PUSH1 0xFF AND PUSH2 0x1AFB JUMPI PUSH1 0x40 MLOAD PUSH32 0x8C379A000000000000000000000000000000000000000000000000000000000 DUP2 MSTORE PUSH1 0x4 ADD PUSH2 0x1AF2 SWAP1 PUSH2 0x4948 JUMP JUMPDEST PUSH1 0x40 MLOAD DUP1 SWAP2 SUB SWAP1 REVERT JUMPDEST DUP4 DUP4 DUP1 PUSH20 0xFFFFFFFFFFFFFFFFFFFFFFFFFFFFFFFFFFFFFFFF AND PUSH1 0x5 DUP4 PUSH1 0x40 MLOAD PUSH2 0x1B24 SWAP2 SWAP1 PUSH2 0x4329 JUMP JUMPDEST SWAP1 DUP2 MSTORE PUSH1 0x20 ADD PUSH1 0x40 MLOAD DUP1 SWAP2 SUB SWAP1 KECCAK256 PUSH1 0x2 ADD PUSH0 SWAP1 SLOAD SWAP1 PUSH2 0x100 EXP SWAP1 DIV PUSH20 0xFFFFFFFFFFFFFFFFFFFFFFFFFFFFFFFFFFFFFFFF AND PUSH20 0xFFFFFFFFFFFFFFFFFFFFFFFFFFFFFFFFFFFFFFFF AND EQ PUSH2 0x1BAB JUMPI PUSH1 0x40 MLOAD PUSH32 0x8C379A000000000000000000000000000000000000000000000000000000000 DUP2 MSTORE PUSH1 0x4 ADD PUSH2 0x1BA2 SWAP1 PUSH2 0x4C72 JUMP JUMPDEST PUSH1 0x40 MLOAD DUP1 SWAP2 SUB SWAP1 REVERT JUMPDEST DUP6 PUSH1 0x1 DUP1 PUSH1 0x5 DUP2 GT ISZERO PUSH2 0x1BC1 JUMPI PUSH2 0x1BC0 PUSH2 0x3FAC JUMP JUMPDEST JUMPDEST PUSH1 0x5 DUP4 PUSH1 0x40 MLOAD PUSH2 0x1BD1 SWAP2 SWAP1 PUSH2 0x4329 JUMP JUMPDEST SWAP1 DUP2 MSTORE PUSH1 0x20 ADD PUSH1 0x40 MLOAD DUP1 SWAP2 SUB SWAP1 KECCAK256 PUSH1 0x6 ADD PUSH0 SWAP1 SLOAD SWAP1 PUSH2 0x100 EXP SWAP1 DIV PUSH1 0xFF AND PUSH1 0x5 DUP2 GT ISZERO PUSH2 0x1C01 JUMPI PUSH2 0x1C00 PUSH2 0x3FAC JUMP JUMPDEST JUMPDEST EQ PUSH2 0x1C41 JUMPI PUSH1 0x40 MLOAD PUSH32 0x8C379A000000000000000000000000000000000000000000000000000000000 DUP2 MSTORE PUSH1 0x4 ADD PUSH2 0x1C38 SWAP1 PUSH2 0x4A18 JUMP JUMPDEST PUSH1 0x40 MLOAD DUP1 SWAP2 SUB SWAP1 REVERT JUMPDEST PUSH0 PUSH1 0x5 DUP10 PUSH1 0x40 MLOAD PUSH2 0x1C52 SWAP2 SWAP1 PUSH2 0x4329 JUMP JUMPDEST SWAP1 DUP2 MSTORE PUSH1 0x20 ADD PUSH1 0x40 MLOAD DUP1 SWAP2 SUB SWAP1 KECCAK256 SWAP1 POP DUP1 PUSH1 0x4 ADD SLOAD TIMESTAMP GT ISZERO PUSH2 0x1CA9 JUMPI PUSH1 0x40 MLOAD PUSH32 0x8C379A000000000000000000000000000000000000000000000000000000000 DUP2 MSTORE PUSH1 0x4 ADD PUSH2 0x1CA0 SWAP1 PUSH2 0x4D00 JUMP JUMPDEST PUSH1 0x40 MLOAD DUP1 SWAP2 SUB SWAP1 REVERT JUMPDEST PUSH0 DUP8 MLOAD SUB PUSH2 0x1CEC JUMPI PUSH1 0x40 MLOAD PUSH32 0x8C379A000000000000000000000000000000000000000000000000000000000 DUP2 MSTORE PUSH1 0x4 ADD PUSH2 0x1CE3 SWAP1 PUSH2 0x4D68 JUMP JUMPDEST PUSH1 0x40 MLOAD DUP1 SWAP2 SUB SWAP1 REVERT JUMPDEST PUSH1 0x2 DUP2 PUSH1 0x6 ADD PUSH0 PUSH2 0x100 EXP DUP2 SLOAD DUP2 PUSH1 0xFF MUL NOT AND SWAP1 DUP4 PUSH1 0x5 DUP2 GT ISZERO PUSH2 0x1D13 JUMPI PUSH2 0x1D12 PUSH2 0x3FAC JUMP JUMPDEST JUMPDEST MUL OR SWAP1 SSTORE POP TIMESTAMP DUP2 PUSH1 0x8 ADD DUP2 SWAP1 SSTORE POP PUSH3 0x3F480 TIMESTAMP PUSH2 0x1D30 SWAP2 SWAP1 PUSH2 0x4DB3 JUMP JUMPDEST DUP2 PUSH1 0x9 ADD DUP2 SWAP1 SSTORE POP DUP7 DUP2 PUSH1 0xA ADD SWAP1 DUP2 PUSH2 0x1D49 SWAP2 SWAP1 PUSH2 0x4808 JUMP JUMPDEST POP DUP8 PUSH20 0xFFFFFFFFFFFFFFFFFFFFFFFFFFFFFFFFFFFFFFFF AND DUP10 PUSH1 0x40 MLOAD PUSH2 0x1D6F SWAP2 SWAP1 PUSH2 0x4329 JUMP JUMPDEST PUSH1 0x40 MLOAD DUP1 SWAP2 SUB SWAP1 KECCAK256 PUSH32 0xE08CB3BD9D9B1DE1D57BAFA49F6B0DB920EDEA2D41724C78255B2C4CA2C9123F DUP10 DUP5 PUSH1 0x9 ADD SLOAD PUSH1 0x40 MLOAD PUSH2 0x1DAC SWAP3 SWAP2 SWAP1 PUSH2 0x4DE6 JUMP JUMPDEST PUSH1 0x40 MLOAD DUP1 SWAP2 SUB SWAP1 LOG3 POP POP POP POP POP POP POP POP POP JUMP JUMPDEST PUSH1 0x7 PUSH1 0x20 MSTORE DUP2 PUSH0 MSTORE PUSH1 0x40 PUSH0 KECCAK256 DUP2 DUP2 SLOAD DUP2 LT PUSH2 0x1DD8 JUMPI PUSH0 DUP1 REVERT JUMPDEST SWAP1 PUSH0 MSTORE PUSH1 0x20 PUSH0 KECCAK256 ADD PUSH0 SWAP2 POP SWAP2 POP POP DUP1 SLOAD PUSH2 0x1DF1 SWAP1 PUSH2 0x4644 JUMP JUMPDEST DUP1 PUSH1 0x1F ADD PUSH1 0x20 DUP1 SWAP2 DIV MUL PUSH1 0x20 ADD PUSH1 0x40 MLOAD SWAP1 DUP2 ADD PUSH1 0x40 MSTORE DUP1 SWAP3 SWAP2 SWAP1 DUP2 DUP2 MSTORE PUSH1 0x20 ADD DUP3 DUP1 SLOAD PUSH2 0x1E1D SWAP1 PUSH2 0x4644 JUMP JUMPDEST DUP1 ISZERO PUSH2 0x1E68 JUMPI DUP1 PUSH1 0x1F LT PUSH2 0x1E3F JUMPI PUSH2 0x100 DUP1 DUP4 SLOAD DIV MUL DUP4 MSTORE SWAP2 PUSH1 0x20 ADD SWAP2 PUSH2 0x1E68 JUMP JUMPDEST DUP3 ADD SWAP2 SWAP1 PUSH0 MSTORE PUSH1 0x20 PUSH0 KECCAK256 SWAP1 JUMPDEST DUP2 SLOAD DUP2 MSTORE SWAP1 PUSH1 0x1 ADD SWAP1 PUSH1 0x20 ADD DUP1 DUP4 GT PUSH2 0x1E4B JUMPI DUP3 SWAP1 SUB PUSH1 0x1F AND DUP3 ADD SWAP2 JUMPDEST POP POP POP POP POP DUP2 JUMP JUMPDEST PUSH0 PUSH1 0x1 PUSH1 0x14 SWAP1 SLOAD SWAP1 PUSH2 0x100 EXP SWAP1 DIV PUSH1 0xFF AND SWAP1 POP SWAP1 JUMP JUMPDEST PUSH2 0x1E8E PUSH2 0x327B JUMP JUMPDEST PUSH2 0x1E97 PUSH0 PUSH2 0x36F2 JUMP JUMPDEST JUMP JUMPDEST PUSH0 DUP1 PUSH1 0x5 DUP4 PUSH1 0x40 MLOAD PUSH2 0x1EAB SWAP2 SWAP1 PUSH2 0x4329 JUMP JUMPDEST SWAP1 DUP2 MSTORE PUSH1 0x20 ADD PUSH1 0x40 MLOAD DUP1 SWAP2 SUB SWAP1 KECCAK256 SWAP1 POP DUP1 PUSH1 0xB ADD PUSH0 SWAP1 SLOAD SWAP1 PUSH2 0x100 EXP SWAP1 DIV PUSH1 0xFF AND DUP1 ISZERO PUSH2 0x1F0C JUMPI POP PUSH1 0x2 PUSH1 0x5 DUP2 GT ISZERO PUSH2 0x1EE7 JUMPI PUSH2 0x1EE6 PUSH2 0x3FAC JUMP JUMPDEST JUMPDEST DUP2 PUSH1 0x6 ADD PUSH0 SWAP1 SLOAD SWAP1 PUSH2 0x100 EXP SWAP1 DIV PUSH1 0xFF AND PUSH1 0x5 DUP2 GT ISZERO PUSH2 0x1F0A JUMPI PUSH2 0x1F09 PUSH2 0x3FAC JUMP JUMPDEST JUMPDEST EQ JUMPDEST DUP1 ISZERO PUSH2 0x1F1C JUMPI POP DUP1 PUSH1 0x9 ADD SLOAD TIMESTAMP LT ISZERO JUMPDEST SWAP2 POP POP SWAP2 SWAP1 POP JUMP JUMPDEST PUSH2 0x1F2C PUSH2 0x327B JUMP JUMPDEST PUSH2 0x1F34 PUSH2 0x37B5 JUMP JUMPDEST JUMP JUMPDEST PUSH0 PUSH1 0x1 PUSH0 SWAP1 SLOAD SWAP1 PUSH2 0x100 EXP SWAP1 DIV PUSH20 0xFFFFFFFFFFFFFFFFFFFFFFFFFFFFFFFFFFFFFFFF AND SWAP1 POP SWAP1 JUMP JUMPDEST PUSH2 0x1F66 PUSH2 0x327B JUMP JUMPDEST PUSH1 0x2 PUSH0 SWAP1 SLOAD SWAP1 PUSH2 0x100 EXP SWAP1 DIV PUSH20 0xFFFFFFFFFFFFFFFFFFFFFFFFFFFFFFFFFFFFFFFF AND PUSH20 0xFFFFFFFFFFFFFFFFFFFFFFFFFFFFFFFFFFFFFFFF AND DUP3 PUSH20 0xFFFFFFFFFFFFFFFFFFFFFFFFFFFFFFFFFFFFFFFF AND SUB PUSH2 0x1FF5 JUMPI PUSH1 0x40 MLOAD PUSH32 0x8C379A000000000000000000000000000000000000000000000000000000000 DUP2 MSTORE PUSH1 0x4 ADD PUSH2 0x1FEC SWAP1 PUSH2 0x4E5E JUMP JUMPDEST PUSH1 0x40 MLOAD DUP1 SWAP2 SUB SWAP1 REVERT JUMPDEST PUSH2 0x2027 PUSH2 0x2000 PUSH2 0x1F36 JUMP JUMPDEST DUP3 DUP5 PUSH20 0xFFFFFFFFFFFFFFFFFFFFFFFFFFFFFFFFFFFFFFFF AND PUSH2 0x3424 SWAP1 SWAP3 SWAP2 SWAP1 PUSH4 0xFFFFFFFF AND JUMP JUMPDEST POP POP JUMP JUMPDEST PUSH1 0x60 DUP2 ISZERO PUSH2 0x2142 JUMPI PUSH1 0x6 PUSH0 DUP5 PUSH20 0xFFFFFFFFFFFFFFFFFFFFFFFFFFFFFFFFFFFFFFFF AND PUSH20 0xFFFFFFFFFFFFFFFFFFFFFFFFFFFFFFFFFFFFFFFF AND DUP2 MSTORE PUSH1 0x20 ADD SWAP1 DUP2 MSTORE PUSH1 0x20 ADD PUSH0 KECCAK256 DUP1 SLOAD DUP1 PUSH1 0x20 MUL PUSH1 0x20 ADD PUSH1 0x40 MLOAD SWAP1 DUP2 ADD PUSH1 0x40 MSTORE DUP1 SWAP3 SWAP2 SWAP1 DUP2 DUP2 MSTORE PUSH1 0x20 ADD PUSH0 SWAP1 JUMPDEST DUP3 DUP3 LT ISZERO PUSH2 0x2137 JUMPI DUP4 DUP3 SWAP1 PUSH0 MSTORE PUSH1 0x20 PUSH0 KECCAK256 ADD DUP1 SLOAD PUSH2 0x20AC SWAP1 PUSH2 0x4644 JUMP JUMPDEST DUP1 PUSH1 0x1F ADD PUSH1 0x20 DUP1 SWAP2 DIV MUL PUSH1 0x20 ADD PUSH1 0x40 MLOAD SWAP1 DUP2 ADD PUSH1 0x40 MSTORE DUP1 SWAP3 SWAP2 SWAP1 DUP2 DUP2 MSTORE PUSH1 0x20 ADD DUP3 DUP1 SLOAD PUSH2 0x20D8 SWAP1 PUSH2 0x4644 JUMP JUMPDEST DUP1 ISZERO PUSH2 0x2123 JUMPI DUP1 PUSH1 0x1F LT PUSH2 0x20FA JUMPI PUSH2 0x100 DUP1 DUP4 SLOAD DIV MUL DUP4 MSTORE SWAP2 PUSH1 0x20 ADD SWAP2 PUSH2 0x2123 JUMP JUMPDEST DUP3 ADD SWAP2 SWAP1 PUSH0 MSTORE PUSH1 0x20 PUSH0 KECCAK256 SWAP1 JUMPDEST DUP2 SLOAD DUP2 MSTORE SWAP1 PUSH1 0x1 ADD SWAP1 PUSH1 0x20 ADD DUP1 DUP4 GT PUSH2 0x2106 JUMPI DUP3 SWAP1 SUB PUSH1 0x1F AND DUP3 ADD SWAP2 JUMPDEST POP POP POP POP POP DUP2 MSTORE PUSH1 0x20 ADD SWAP1 PUSH1 0x1 ADD SWAP1 PUSH2 0x208F JUMP JUMPDEST POP POP POP POP SWAP1 POP PUSH2 0x224D JUMP JUMPDEST PUSH1 0x7 PUSH0 DUP5 PUSH20 0xFFFFFFFFFFFFFFFFFFFFFFFFFFFFFFFFFFFFFFFF AND PUSH20 0xFFFFFFFFFFFFFFFFFFFFFFFFFFFFFFFFFFFFFFFF AND DUP2 MSTORE PUSH1 0x20 ADD SWAP1 DUP2 MSTORE PUSH1 0x20 ADD PUSH0 KECCAK256 DUP1 SLOAD DUP1 PUSH1 0x20 MUL PUSH1 0x20 ADD PUSH1 0x40 MLOAD SWAP1 DUP2 ADD PUSH1 0x40 MSTORE DUP1 SWAP3 SWAP2 SWAP1 DUP2 DUP2 MSTORE PUSH1 0x20 ADD PUSH0 SWAP1 JUMPDEST DUP3 DUP3 LT ISZERO PUSH2 0x2246 JUMPI DUP4 DUP3 SWAP1 PUSH0 MSTORE PUSH1 0x20 PUSH0 KECCAK256 ADD DUP1 SLOAD PUSH2 0x21BB SWAP1 PUSH2 0x4644 JUMP JUMPDEST DUP1 PUSH1 0x1F ADD PUSH1 0x20 DUP1 SWAP2 DIV MUL PUSH1 0x20 ADD PUSH1 0x40 MLOAD SWAP1 DUP2 ADD PUSH1 0x40 MSTORE DUP1 SWAP3 SWAP2 SWAP1 DUP2 DUP2 MSTORE PUSH1 0x20 ADD DUP3 DUP1 SLOAD PUSH2 0x21E7 SWAP1 PUSH2 0x4644 JUMP JUMPDEST DUP1 ISZERO PUSH2 0x2232 JUMPI DUP1 PUSH1 0x1F LT PUSH2 0x2209 JUMPI PUSH2 0x100 DUP1 DUP4 SLOAD DIV MUL DUP4 MSTORE SWAP2 PUSH1 0x20 ADD SWAP2 PUSH2 0x2232 JUMP JUMPDEST DUP3 ADD SWAP2 SWAP1 PUSH0 MSTORE PUSH1 0x20 PUSH0 KECCAK256 SWAP1 JUMPDEST DUP2 SLOAD DUP2 MSTORE SWAP1 PUSH1 0x1 ADD SWAP1 PUSH1 0x20 ADD DUP1 DUP4 GT PUSH2 0x2215 JUMPI DUP3 SWAP1 SUB PUSH1 0x1F AND DUP3 ADD SWAP2 JUMPDEST POP POP POP POP POP DUP2 MSTORE PUSH1 0x20 ADD SWAP1 PUSH1 0x1 ADD SWAP1 PUSH2 0x219E JUMP JUMPDEST POP POP POP POP SWAP1 POP JUMPDEST SWAP3 SWAP2 POP POP JUMP JUMPDEST PUSH1 0x5 DUP2 DUP1 MLOAD PUSH1 0x20 DUP2 ADD DUP3 ADD DUP1 MLOAD DUP5 DUP3 MSTORE PUSH1 0x20 DUP4 ADD PUSH1 0x20 DUP6 ADD KECCAK256 DUP2 DUP4 MSTORE DUP1 SWAP6 POP POP POP POP POP POP PUSH0 SWAP2 POP SWAP1 POP DUP1 PUSH0 ADD DUP1 SLOAD PUSH2 0x228A SWAP1 PUSH2 0x4644 JUMP JUMPDEST DUP1 PUSH1 0x1F ADD PUSH1 0x20 DUP1 SWAP2 DIV MUL PUSH1 0x20 ADD PUSH1 0x40 MLOAD SWAP1 DUP2 ADD PUSH1 0x40 MSTORE DUP1 SWAP3 SWAP2 SWAP1 DUP2 DUP2 MSTORE PUSH1 0x20 ADD DUP3 DUP1 SLOAD PUSH2 0x22B6 SWAP1 PUSH2 0x4644 JUMP JUMPDEST DUP1 ISZERO PUSH2 0x2301 JUMPI DUP1 PUSH1 0x1F LT PUSH2 0x22D8 JUMPI PUSH2 0x100 DUP1 DUP4 SLOAD DIV MUL DUP4 MSTORE SWAP2 PUSH1 0x20 ADD SWAP2 PUSH2 0x2301 JUMP JUMPDEST DUP3 ADD SWAP2 SWAP1 PUSH0 MSTORE PUSH1 0x20 PUSH0 KECCAK256 SWAP1 JUMPDEST DUP2 SLOAD DUP2 MSTORE SWAP1 PUSH1 0x1 ADD SWAP1 PUSH1 0x20 ADD DUP1 DUP4 GT PUSH2 0x22E4 JUMPI DUP3 SWAP1 SUB PUSH1 0x1F AND DUP3 ADD SWAP2 JUMPDEST POP POP POP POP POP SWAP1 DUP1 PUSH1 0x1 ADD PUSH0 SWAP1 SLOAD SWAP1 PUSH2 0x100 EXP SWAP1 DIV PUSH20 0xFFFFFFFFFFFFFFFFFFFFFFFFFFFFFFFFFFFFFFFF AND SWAP1 DUP1 PUSH1 0x2 ADD PUSH0 SWAP1 SLOAD SWAP1 PUSH2 0x100 EXP SWAP1 DIV PUSH20 0xFFFFFFFFFFFFFFFFFFFFFFFFFFFFFFFFFFFFFFFF AND SWAP1 DUP1 PUSH1 0x3 ADD SLOAD SWAP1 DUP1 PUSH1 0x4 ADD SLOAD SWAP1 DUP1 PUSH1 0x5 ADD DUP1 SLOAD PUSH2 0x236C SWAP1 PUSH2 0x4644 JUMP JUMPDEST DUP1 PUSH1 0x1F ADD PUSH1 0x20 DUP1 SWAP2 DIV MUL PUSH1 0x20 ADD PUSH1 0x40 MLOAD SWAP1 DUP2 ADD PUSH1 0x40 MSTORE DUP1 SWAP3 SWAP2 SWAP1 DUP2 DUP2 MSTORE PUSH1 0x20 ADD DUP3 DUP1 SLOAD PUSH2 0x2398 SWAP1 PUSH2 0x4644 JUMP JUMPDEST DUP1 ISZERO PUSH2 0x23E3 JUMPI DUP1 PUSH1 0x1F LT PUSH2 0x23BA JUMPI PUSH2 0x100 DUP1 DUP4 SLOAD DIV MUL DUP4 MSTORE SWAP2 PUSH1 0x20 ADD SWAP2 PUSH2 0x23E3 JUMP JUMPDEST DUP3 ADD SWAP2 SWAP1 PUSH0 MSTORE PUSH1 0x20 PUSH0 KECCAK256 SWAP1 JUMPDEST DUP2 SLOAD DUP2 MSTORE SWAP1 PUSH1 0x1 ADD SWAP1 PUSH1 0x20 ADD DUP1 DUP4 GT PUSH2 0x23C6 JUMPI DUP3 SWAP1 SUB PUSH1 0x1F AND DUP3 ADD SWAP2 JUMPDEST POP POP POP POP POP SWAP1 DUP1 PUSH1 0x6 ADD PUSH0 SWAP1 SLOAD SWAP1 PUSH2 0x100 EXP SWAP1 DIV PUSH1 0xFF AND SWAP1 DUP1 PUSH1 0x7 ADD SLOAD SWAP1 DUP1 PUSH1 0x8 ADD SLOAD SWAP1 DUP1 PUSH1 0x9 ADD SLOAD SWAP1 DUP1 PUSH1 0xA ADD DUP1 SLOAD PUSH2 0x241C SWAP1 PUSH2 0x4644 JUMP JUMPDEST DUP1 PUSH1 0x1F ADD PUSH1 0x20 DUP1 SWAP2 DIV MUL PUSH1 0x20 ADD PUSH1 0x40 MLOAD SWAP1 DUP2 ADD PUSH1 0x40 MSTORE DUP1 SWAP3 SWAP2 SWAP1 DUP2 DUP2 MSTORE PUSH1 0x20 ADD DUP3 DUP1 SLOAD PUSH2 0x2448 SWAP1 PUSH2 0x4644 JUMP JUMPDEST DUP1 ISZERO PUSH2 0x2493 JUMPI DUP1 PUSH1 0x1F LT PUSH2 0x246A JUMPI PUSH2 0x100 DUP1 DUP4 SLOAD DIV MUL DUP4 MSTORE SWAP2 PUSH1 0x20 ADD SWAP2 PUSH2 0x2493 JUMP JUMPDEST DUP3 ADD SWAP2 SWAP1 PUSH0 MSTORE PUSH1 0x20 PUSH0 KECCAK256 SWAP1 JUMPDEST DUP2 SLOAD DUP2 MSTORE SWAP1 PUSH1 0x1 ADD SWAP1 PUSH1 0x20 ADD DUP1 DUP4 GT PUSH2 0x2476 JUMPI DUP3 SWAP1 SUB PUSH1 0x1F AND DUP3 ADD SWAP2 JUMPDEST POP POP POP POP POP SWAP1 DUP1 PUSH1 0xB ADD PUSH0 SWAP1 SLOAD SWAP1 PUSH2 0x100 EXP SWAP1 DIV PUSH1 0xFF AND SWAP1 POP DUP13 JUMP JUMPDEST PUSH2 0x24B7 PUSH2 0x327B JUMP JUMPDEST PUSH2 0x3E8 DUP2 GT ISZERO PUSH2 0x24FC JUMPI PUSH1 0x40 MLOAD PUSH32 0x8C379A000000000000000000000000000000000000000000000000000000000 DUP2 MSTORE PUSH1 0x4 ADD PUSH2 0x24F3 SWAP1 PUSH2 0x4EC6 JUMP JUMPDEST PUSH1 0x40 MLOAD DUP1 SWAP2 SUB SWAP1 REVERT JUMPDEST PUSH0 PUSH1 0x3 SLOAD SWAP1 POP DUP2 PUSH1 0x3 DUP2 SWAP1 SSTORE POP PUSH32 0xD347E206F25A89B917FC9482F1A2D294D749BAA4DC9BDE7FB495EE11FE491643 DUP2 DUP4 PUSH1 0x40 MLOAD PUSH2 0x253A SWAP3 SWAP2 SWAP1 PUSH2 0x48D7 JUMP JUMPDEST PUSH1 0x40 MLOAD DUP1 SWAP2 SUB SWAP1 LOG1 POP POP JUMP JUMPDEST PUSH1 0x6 PUSH1 0x20 MSTORE DUP2 PUSH0 MSTORE PUSH1 0x40 PUSH0 KECCAK256 DUP2 DUP2 SLOAD DUP2 LT PUSH2 0x255F JUMPI PUSH0 DUP1 REVERT JUMPDEST SWAP1 PUSH0 MSTORE PUSH1 0x20 PUSH0 KECCAK256 ADD PUSH0 SWAP2 POP SWAP2 POP POP DUP1 SLOAD PUSH2 0x2578 SWAP1 PUSH2 0x4644 JUMP JUMPDEST DUP1 PUSH1 0x1F ADD PUSH1 0x20 DUP1 SWAP2 DIV MUL PUSH1 0x20 ADD PUSH1 0x40 MLOAD SWAP1 DUP2 ADD PUSH1 0x40 MSTORE DUP1 SWAP3 SWAP2 SWAP1 DUP2 DUP2 MSTORE PUSH1 0x20 ADD DUP3 DUP1 SLOAD PUSH2 0x25A4 SWAP1 PUSH2 0x4644 JUMP JUMPDEST DUP1 ISZERO PUSH2 0x25EF JUMPI DUP1 PUSH1 0x1F LT PUSH2 0x25C6 JUMPI PUSH2 0x100 DUP1 DUP4 SLOAD DIV MUL DUP4 MSTORE SWAP2 PUSH1 0x20 ADD SWAP2 PUSH2 0x25EF JUMP JUMPDEST DUP3 ADD SWAP2 SWAP1 PUSH0 MSTORE PUSH1 0x20 PUSH0 KECCAK256 SWAP1 JUMPDEST DUP2 SLOAD DUP2 MSTORE SWAP1 PUSH1 0x1 ADD SWAP1 PUSH1 0x20 ADD DUP1 DUP4 GT PUSH2 0x25D2 JUMPI DUP3 SWAP1 SUB PUSH1 0x1F AND DUP3 ADD SWAP2 JUMPDEST POP POP POP POP POP DUP2 JUMP JUMPDEST PUSH1 0x2 PUSH0 SWAP1 SLOAD SWAP1 PUSH2 0x100 EXP SWAP1 DIV PUSH20 0xFFFFFFFFFFFFFFFFFFFFFFFFFFFFFFFFFFFFFFFF AND DUP2 JUMP JUMPDEST PUSH2 0x2710 DUP2 JUMP JUMPDEST PUSH2 0x262A PUSH2 0x334C JUMP JUMPDEST PUSH2 0x2632 PUSH2 0x3302 JUMP JUMPDEST DUP1 PUSH1 0x5 DUP2 PUSH1 0x40 MLOAD PUSH2 0x2643 SWAP2 SWAP1 PUSH2 0x4329 JUMP JUMPDEST SWAP1 DUP2 MSTORE PUSH1 0x20 ADD PUSH1 0x40 MLOAD DUP1 SWAP2 SUB SWAP1 KECCAK256 PUSH1 0xB ADD PUSH0 SWAP1 SLOAD SWAP1 PUSH2 0x100 EXP SWAP1 DIV PUSH1 0xFF AND PUSH2 0x26A0 JUMPI PUSH1 0x40 MLOAD PUSH32 0x8C379A000000000000000000000000000000000000000000000000000000000 DUP2 MSTORE PUSH1 0x4 ADD PUSH2 0x2697 SWAP1 PUSH2 0x4948 JUMP JUMPDEST PUSH1 0x40 MLOAD DUP1 SWAP2 SUB SWAP1 REVERT JUMPDEST DUP2 PUSH1 0x1 DUP1 PUSH1 0x5 DUP2 GT ISZERO PUSH2 0x26B6 JUMPI PUSH2 0x26B5 PUSH2 0x3FAC JUMP JUMPDEST JUMPDEST PUSH1 0x5 DUP4 PUSH1 0x40 MLOAD PUSH2 0x26C6 SWAP2 SWAP1 PUSH2 0x4329 JUMP JUMPDEST SWAP1 DUP2 MSTORE PUSH1 0x20 ADD PUSH1 0x40 MLOAD DUP1 SWAP2 SUB SWAP1 KECCAK256 PUSH1 0x6 ADD PUSH0 SWAP1 SLOAD SWAP1 PUSH2 0x100 EXP SWAP1 DIV PUSH1 0xFF AND PUSH1 0x5 DUP2 GT ISZERO PUSH2 0x26F6 JUMPI PUSH2 0x26F5 PUSH2 0x3FAC JUMP JUMPDEST JUMPDEST EQ PUSH2 0x2736 JUMPI PUSH1 0x40 MLOAD PUSH32 0x8C379A000000000000000000000000000000000000000000000000000000000 DUP2 MSTORE PUSH1 0x4 ADD PUSH2 0x272D SWAP1 PUSH2 0x4A18 JUMP JUMPDEST PUSH1 0x40 MLOAD DUP1 SWAP2 SUB SWAP1 REVERT JUMPDEST PUSH0 PUSH1 0x5 DUP6 PUSH1 0x40 MLOAD PUSH2 0x2747 SWAP2 SWAP1 PUSH2 0x4329 JUMP JUMPDEST SWAP1 DUP2 MSTORE PUSH1 0x20 ADD PUSH1 0x40 MLOAD DUP1 SWAP2 SUB SWAP1 KECCAK256 SWAP1 POP DUP1 PUSH1 0x4 ADD SLOAD TIMESTAMP GT PUSH2 0x279D JUMPI PUSH1 0x40 MLOAD PUSH32 0x8C379A000000000000000000000000000000000000000000000000000000000 DUP2 MSTORE PUSH1 0x4 ADD PUSH2 0x2794 SWAP1 PUSH2 0x4F2E JUMP JUMPDEST PUSH1 0x40 MLOAD DUP1 SWAP2 SUB SWAP1 REVERT JUMPDEST PUSH0 DUP2 PUSH1 0x3 ADD SLOAD SWAP1 POP PUSH2 0x2814 DUP3 PUSH1 0x1 ADD PUSH0 SWAP1 SLOAD SWAP1 PUSH2 0x100 EXP SWAP1 DIV PUSH20 0xFFFFFFFFFFFFFFFFFFFFFFFFFFFFFFFFFFFFFFFF AND DUP3 PUSH1 0x2 PUSH0 SWAP1 SLOAD SWAP1 PUSH2 0x100 EXP SWAP1 DIV PUSH20 0xFFFFFFFFFFFFFFFFFFFFFFFFFFFFFFFFFFFFFFFF AND PUSH20 0xFFFFFFFFFFFFFFFFFFFFFFFFFFFFFFFFFFFFFFFF AND PUSH2 0x3424 SWAP1 SWAP3 SWAP2 SWAP1 PUSH4 0xFFFFFFFF AND JUMP JUMPDEST PUSH1 0x5 DUP3 PUSH1 0x6 ADD PUSH0 PUSH2 0x100 EXP DUP2 SLOAD DUP2 PUSH1 0xFF MUL NOT AND SWAP1 DUP4 PUSH1 0x5 DUP2 GT ISZERO PUSH2 0x283B JUMPI PUSH2 0x283A PUSH2 0x3FAC JUMP JUMPDEST JUMPDEST MUL OR SWAP1 SSTORE POP CALLER PUSH20 0xFFFFFFFFFFFFFFFFFFFFFFFFFFFFFFFFFFFFFFFF AND DUP7 PUSH1 0x40 MLOAD PUSH2 0x2865 SWAP2 SWAP1 PUSH2 0x4329 JUMP JUMPDEST PUSH1 0x40 MLOAD DUP1 SWAP2 SUB SWAP1 KECCAK256 PUSH32 0x19A500C76AFE03A03914754F26A2766147BDCB90320371467B02AE014C0F10CB DUP4 PUSH1 0x40 MLOAD PUSH2 0x289C SWAP2 SWAP1 PUSH2 0x3CD5 JUMP JUMPDEST PUSH1 0x40 MLOAD DUP1 SWAP2 SUB SWAP1 LOG3 POP POP POP POP POP PUSH2 0x28B1 PUSH2 0x341B JUMP JUMPDEST POP JUMP JUMPDEST PUSH1 0x60 PUSH0 DUP1 PUSH0 DUP1 PUSH0 PUSH1 0x60 DUP1 PUSH0 DUP1 PUSH0 DUP1 PUSH0 PUSH1 0x5 DUP15 PUSH1 0x40 MLOAD PUSH2 0x28D3 SWAP2 SWAP1 PUSH2 0x4329 JUMP JUMPDEST SWAP1 DUP2 MSTORE PUSH1 0x20 ADD PUSH1 0x40 MLOAD DUP1 SWAP2 SUB SWAP1 KECCAK256 SWAP1 POP DUP1 PUSH1 0xB ADD PUSH0 SWAP1 SLOAD SWAP1 PUSH2 0x100 EXP SWAP1 DIV PUSH1 0xFF AND PUSH2 0x2933 JUMPI PUSH1 0x40 MLOAD PUSH32 0x8C379A000000000000000000000000000000000000000000000000000000000 DUP2 MSTORE PUSH1 0x4 ADD PUSH2 0x292A SWAP1 PUSH2 0x4948 JUMP JUMPDEST PUSH1 0x40 MLOAD DUP1 SWAP2 SUB SWAP1 REVERT JUMPDEST DUP1 PUSH0 ADD DUP2 PUSH1 0x1 ADD PUSH0 SWAP1 SLOAD SWAP1 PUSH2 0x100 EXP SWAP1 DIV PUSH20 0xFFFFFFFFFFFFFFFFFFFFFFFFFFFFFFFFFFFFFFFF AND DUP3 PUSH1 0x2 ADD PUSH0 SWAP1 SLOAD SWAP1 PUSH2 0x100 EXP SWAP1 DIV PUSH20 0xFFFFFFFFFFFFFFFFFFFFFFFFFFFFFFFFFFFFFFFF AND DUP4 PUSH1 0x3 ADD SLOAD DUP5 PUSH1 0x4 ADD SLOAD DUP6 PUSH1 0x6 ADD PUSH0 SWAP1 SLOAD SWAP1 PUSH2 0x100 EXP SWAP1 DIV PUSH1 0xFF AND DUP7 PUSH1 0x5 ADD DUP8 PUSH1 0xA ADD DUP9 PUSH1 0x9 ADD SLOAD DUP10 PUSH1 0x7 ADD SLOAD DUP11 PUSH1 0x8 ADD SLOAD DUP12 PUSH1 0xB ADD PUSH0 SWAP1 SLOAD SWAP1 PUSH2 0x100 EXP SWAP1 DIV PUSH1 0xFF AND DUP12 DUP1 SLOAD PUSH2 0x29CD SWAP1 PUSH2 0x4644 JUMP JUMPDEST DUP1 PUSH1 0x1F ADD PUSH1 0x20 DUP1 SWAP2 DIV MUL PUSH1 0x20 ADD PUSH1 0x40 MLOAD SWAP1 DUP2 ADD PUSH1 0x40 MSTORE DUP1 SWAP3 SWAP2 SWAP1 DUP2 DUP2 MSTORE PUSH1 0x20 ADD DUP3 DUP1 SLOAD PUSH2 0x29F9 SWAP1 PUSH2 0x4644 JUMP JUMPDEST DUP1 ISZERO PUSH2 0x2A44 JUMPI DUP1 PUSH1 0x1F LT PUSH2 0x2A1B JUMPI PUSH2 0x100 DUP1 DUP4 SLOAD DIV MUL DUP4 MSTORE SWAP2 PUSH1 0x20 ADD SWAP2 PUSH2 0x2A44 JUMP JUMPDEST DUP3 ADD SWAP2 SWAP1 PUSH0 MSTORE PUSH1 0x20 PUSH0 KECCAK256 SWAP1 JUMPDEST DUP2 SLOAD DUP2 MSTORE SWAP1 PUSH1 0x1 ADD SWAP1 PUSH1 0x20 ADD DUP1 DUP4 GT PUSH2 0x2A27 JUMPI DUP3 SWAP1 SUB PUSH1 0x1F AND DUP3 ADD SWAP2 JUMPDEST POP POP POP POP POP SWAP12 POP DUP6 DUP1 SLOAD PUSH2 0x2A57 SWAP1 PUSH2 0x4644 JUMP JUMPDEST DUP1 PUSH1 0x1F ADD PUSH1 0x20 DUP1 SWAP2 DIV MUL PUSH1 0x20 ADD PUSH1 0x40 MLOAD SWAP1 DUP2 ADD PUSH1 0x40 MSTORE DUP1 SWAP3 SWAP2 SWAP1 DUP2 DUP2 MSTORE PUSH1 0x20 ADD DUP3 DUP1 SLOAD PUSH2 0x2A83 SWAP1 PUSH2 0x4644 JUMP JUMPDEST DUP1 ISZERO PUSH2 0x2ACE JUMPI DUP1 PUSH1 0x1F LT PUSH2 0x2AA5 JUMPI PUSH2 0x100 DUP1 DUP4 SLOAD DIV MUL DUP4 MSTORE SWAP2 PUSH1 0x20 ADD SWAP2 PUSH2 0x2ACE JUMP JUMPDEST DUP3 ADD SWAP2 SWAP1 PUSH0 MSTORE PUSH1 0x20 PUSH0 KECCAK256 SWAP1 JUMPDEST DUP2 SLOAD DUP2 MSTORE SWAP1 PUSH1 0x1 ADD SWAP1 PUSH1 0x20 ADD DUP1 DUP4 GT PUSH2 0x2AB1 JUMPI DUP3 SWAP1 SUB PUSH1 0x1F AND DUP3 ADD SWAP2 JUMPDEST POP POP POP POP POP SWAP6 POP DUP5 DUP1 SLOAD PUSH2 0x2AE1 SWAP1 PUSH2 0x4644 JUMP JUMPDEST DUP1 PUSH1 0x1F ADD PUSH1 0x20 DUP1 SWAP2 DIV MUL PUSH1 0x20 ADD PUSH1 0x40 MLOAD SWAP1 DUP2 ADD PUSH1 0x40 MSTORE DUP1 SWAP3 SWAP2 SWAP1 DUP2 DUP2 MSTORE PUSH1 0x20 ADD DUP3 DUP1 SLOAD PUSH2 0x2B0D SWAP1 PUSH2 0x4644 JUMP JUMPDEST DUP1 ISZERO PUSH2 0x2B58 JUMPI DUP1 PUSH1 0x1F LT PUSH2 0x2B2F JUMPI PUSH2 0x100 DUP1 DUP4 SLOAD DIV MUL DUP4 MSTORE SWAP2 PUSH1 0x20 ADD SWAP2 PUSH2 0x2B58 JUMP JUMPDEST DUP3 ADD SWAP2 SWAP1 PUSH0 MSTORE PUSH1 0x20 PUSH0 KECCAK256 SWAP1 JUMPDEST DUP2 SLOAD DUP2 MSTORE SWAP1 PUSH1 0x1 ADD SWAP1 PUSH1 0x20 ADD DUP1 DUP4 GT PUSH2 0x2B3B JUMPI DUP3 SWAP1 SUB PUSH1 0x1F AND DUP3 ADD SWAP2 JUMPDEST POP POP POP POP POP SWAP5 POP SWAP13 POP SWAP13 POP SWAP13 POP SWAP13 POP SWAP13 POP SWAP13 POP SWAP13 POP SWAP13 POP SWAP13 POP SWAP13 POP SWAP13 POP SWAP13 POP POP SWAP2 SWAP4 SWAP6 SWAP8 SWAP10 SWAP12 POP SWAP2 SWAP4 SWAP6 SWAP8 SWAP10 SWAP12 JUMP JUMPDEST PUSH2 0x2B8F PUSH2 0x334C JUMP JUMPDEST PUSH2 0x2B97 PUSH2 0x327B JUMP JUMPDEST PUSH2 0x2B9F PUSH2 0x3302 JUMP JUMPDEST DUP3 PUSH1 0x5 DUP2 PUSH1 0x40 MLOAD PUSH2 0x2BB0 SWAP2 SWAP1 PUSH2 0x4329 JUMP JUMPDEST SWAP1 DUP2 MSTORE PUSH1 0x20 ADD PUSH1 0x40 MLOAD DUP1 SWAP2 SUB SWAP1 KECCAK256 PUSH1 0xB ADD PUSH0 SWAP1 SLOAD SWAP1 PUSH2 0x100 EXP SWAP1 DIV PUSH1 0xFF AND PUSH2 0x2C0D JUMPI PUSH1 0x40 MLOAD PUSH32 0x8C379A000000000000000000000000000000000000000000000000000000000 DUP2 MSTORE PUSH1 0x4 ADD PUSH2 0x2C04 SWAP1 PUSH2 0x4948 JUMP JUMPDEST PUSH1 0x40 MLOAD DUP1 SWAP2 SUB SWAP1 REVERT JUMPDEST DUP4 DUP4 DUP1 PUSH20 0xFFFFFFFFFFFFFFFFFFFFFFFFFFFFFFFFFFFFFFFF AND PUSH1 0x5 DUP4 PUSH1 0x40 MLOAD PUSH2 0x2C36 SWAP2 SWAP1 PUSH2 0x4329 JUMP JUMPDEST SWAP1 DUP2 MSTORE PUSH1 0x20 ADD PUSH1 0x40 MLOAD DUP1 SWAP2 SUB SWAP1 KECCAK256 PUSH1 0x2 ADD PUSH0 SWAP1 SLOAD SWAP1 PUSH2 0x100 EXP SWAP1 DIV PUSH20 0xFFFFFFFFFFFFFFFFFFFFFFFFFFFFFFFFFFFFFFFF AND PUSH20 0xFFFFFFFFFFFFFFFFFFFFFFFFFFFFFFFFFFFFFFFF AND EQ PUSH2 0x2CBD JUMPI PUSH1 0x40 MLOAD PUSH32 0x8C379A000000000000000000000000000000000000000000000000000000000 DUP2 MSTORE PUSH1 0x4 ADD PUSH2 0x2CB4 SWAP1 PUSH2 0x4C72 JUMP JUMPDEST PUSH1 0x40 MLOAD DUP1 SWAP2 SUB SWAP1 REVERT JUMPDEST DUP6 PUSH1 0x3 DUP1 PUSH1 0x5 DUP2 GT ISZERO PUSH2 0x2CD3 JUMPI PUSH2 0x2CD2 PUSH2 0x3FAC JUMP JUMPDEST JUMPDEST PUSH1 0x5 DUP4 PUSH1 0x40 MLOAD PUSH2 0x2CE3 SWAP2 SWAP1 PUSH2 0x4329 JUMP JUMPDEST SWAP1 DUP2 MSTORE PUSH1 0x20 ADD PUSH1 0x40 MLOAD DUP1 SWAP2 SUB SWAP1 KECCAK256 PUSH1 0x6 ADD PUSH0 SWAP1 SLOAD SWAP1 PUSH2 0x100 EXP SWAP1 DIV PUSH1 0xFF AND PUSH1 0x5 DUP2 GT ISZERO PUSH2 0x2D13 JUMPI PUSH2 0x2D12 PUSH2 0x3FAC JUMP JUMPDEST JUMPDEST EQ PUSH2 0x2D53 JUMPI PUSH1 0x40 MLOAD PUSH32 0x8C379A000000000000000000000000000000000000000000000000000000000 DUP2 MSTORE PUSH1 0x4 ADD PUSH2 0x2D4A SWAP1 PUSH2 0x4A18 JUMP JUMPDEST PUSH1 0x40 MLOAD DUP1 SWAP2 SUB SWAP1 REVERT JUMPDEST PUSH0 PUSH1 0x5 DUP10 PUSH1 0x40 MLOAD PUSH2 0x2D64 SWAP2 SWAP1 PUSH2 0x4329 JUMP JUMPDEST SWAP1 DUP2 MSTORE PUSH1 0x20 ADD PUSH1 0x40 MLOAD DUP1 SWAP2 SUB SWAP1 KECCAK256 SWAP1 POP PUSH1 0x4 DUP2 PUSH1 0x6 ADD PUSH0 PUSH2 0x100 EXP DUP2 SLOAD DUP2 PUSH1 0xFF MUL NOT AND SWAP1 DUP4 PUSH1 0x5 DUP2 GT ISZERO PUSH2 0x2D9B JUMPI PUSH2 0x2D9A PUSH2 0x3FAC JUMP JUMPDEST JUMPDEST MUL OR SWAP1 SSTORE POP PUSH0 DUP2 PUSH1 0x3 ADD SLOAD SWAP1 POP PUSH0 DUP1 PUSH0 DUP11 ISZERO PUSH2 0x2F5E JUMPI PUSH0 PUSH2 0x2710 PUSH2 0x1F40 DUP7 PUSH2 0x2DC3 SWAP2 SWAP1 PUSH2 0x4F4C JUMP JUMPDEST PUSH2 0x2DCD SWAP2 SWAP1 PUSH2 0x4FBA JUMP JUMPDEST SWAP1 POP DUP1 DUP6 PUSH2 0x2DDB SWAP2 SWAP1 PUSH2 0x4FEA JUMP JUMPDEST SWAP3 POP PUSH2 0x2710 PUSH1 0x3 SLOAD DUP3 PUSH2 0x2DEE SWAP2 SWAP1 PUSH2 0x4F4C JUMP JUMPDEST PUSH2 0x2DF8 SWAP2 SWAP1 PUSH2 0x4FBA JUMP JUMPDEST SWAP2 POP PUSH0 DUP3 DUP3 PUSH2 0x2E07 SWAP2 SWAP1 PUSH2 0x4FEA JUMP JUMPDEST SWAP1 POP DUP1 SWAP5 POP PUSH2 0x2E7B DUP8 PUSH1 0x2 ADD PUSH0 SWAP1 SLOAD SWAP1 PUSH2 0x100 EXP SWAP1 DIV PUSH20 0xFFFFFFFFFFFFFFFFFFFFFFFFFFFFFFFFFFFFFFFF AND DUP3 PUSH1 0x2 PUSH0 SWAP1 SLOAD SWAP1 PUSH2 0x100 EXP SWAP1 DIV PUSH20 0xFFFFFFFFFFFFFFFFFFFFFFFFFFFFFFFFFFFFFFFF AND PUSH20 0xFFFFFFFFFFFFFFFFFFFFFFFFFFFFFFFFFFFFFFFF AND PUSH2 0x3424 SWAP1 SWAP3 SWAP2 SWAP1 PUSH4 0xFFFFFFFF AND JUMP JUMPDEST PUSH2 0x2EEA DUP8 PUSH1 0x1 ADD PUSH0 SWAP1 SLOAD SWAP1 PUSH2 0x100 EXP SWAP1 DIV PUSH20 0xFFFFFFFFFFFFFFFFFFFFFFFFFFFFFFFFFFFFFFFF AND DUP6 PUSH1 0x2 PUSH0 SWAP1 SLOAD SWAP1 PUSH2 0x100 EXP SWAP1 DIV PUSH20 0xFFFFFFFFFFFFFFFFFFFFFFFFFFFFFFFFFFFFFFFF AND PUSH20 0xFFFFFFFFFFFFFFFFFFFFFFFFFFFFFFFFFFFFFFFF AND PUSH2 0x3424 SWAP1 SWAP3 SWAP2 SWAP1 PUSH4 0xFFFFFFFF AND JUMP JUMPDEST PUSH2 0x2F57 PUSH1 0x4 PUSH0 SWAP1 SLOAD SWAP1 PUSH2 0x100 EXP SWAP1 DIV PUSH20 0xFFFFFFFFFFFFFFFFFFFFFFFFFFFFFFFFFFFFFFFF AND DUP5 PUSH1 0x2 PUSH0 SWAP1 SLOAD SWAP1 PUSH2 0x100 EXP SWAP1 DIV PUSH20 0xFFFFFFFFFFFFFFFFFFFFFFFFFFFFFFFFFFFFFFFF AND PUSH20 0xFFFFFFFFFFFFFFFFFFFFFFFFFFFFFFFFFFFFFFFF AND PUSH2 0x3424 SWAP1 SWAP3 SWAP2 SWAP1 PUSH4 0xFFFFFFFF AND JUMP JUMPDEST POP POP PUSH2 0x2FD7 JUMP JUMPDEST PUSH0 SWAP3 POP DUP4 SWAP2 POP PUSH0 SWAP1 POP PUSH2 0x2FD6 DUP6 PUSH1 0x1 ADD PUSH0 SWAP1 SLOAD SWAP1 PUSH2 0x100 EXP SWAP1 DIV PUSH20 0xFFFFFFFFFFFFFFFFFFFFFFFFFFFFFFFFFFFFFFFF AND DUP4 PUSH1 0x2 PUSH0 SWAP1 SLOAD SWAP1 PUSH2 0x100 EXP SWAP1 DIV PUSH20 0xFFFFFFFFFFFFFFFFFFFFFFFFFFFFFFFFFFFFFFFF AND PUSH20 0xFFFFFFFFFFFFFFFFFFFFFFFFFFFFFFFFFFFFFFFF AND PUSH2 0x3424 SWAP1 SWAP3 SWAP2 SWAP1 PUSH4 0xFFFFFFFF AND JUMP JUMPDEST JUMPDEST DUP12 PUSH20 0xFFFFFFFFFFFFFFFFFFFFFFFFFFFFFFFFFFFFFFFF AND DUP14 PUSH1 0x40 MLOAD PUSH2 0x2FFC SWAP2 SWAP1 PUSH2 0x4329 JUMP JUMPDEST PUSH1 0x40 MLOAD DUP1 SWAP2 SUB SWAP1 KECCAK256 PUSH32 0x4626ADB85B7C97AB5F8491DDA1EBFFB1904773CC2FDCD7E5DDBADD473843FD16 DUP14 DUP7 DUP7 PUSH1 0x40 MLOAD PUSH2 0x3037 SWAP4 SWAP3 SWAP2 SWAP1 PUSH2 0x501D JUMP JUMPDEST PUSH1 0x40 MLOAD DUP1 SWAP2 SUB SWAP1 LOG3 DUP5 PUSH1 0x2 ADD PUSH0 SWAP1 SLOAD SWAP1 PUSH2 0x100 EXP SWAP1 DIV PUSH20 0xFFFFFFFFFFFFFFFFFFFFFFFFFFFFFFFFFFFFFFFF AND PUSH20 0xFFFFFFFFFFFFFFFFFFFFFFFFFFFFFFFFFFFFFFFF AND DUP14 PUSH1 0x40 MLOAD PUSH2 0x3087 SWAP2 SWAP1 PUSH2 0x4329 JUMP JUMPDEST PUSH1 0x40 MLOAD DUP1 SWAP2 SUB SWAP1 KECCAK256 PUSH32 0xA4B9AFF2E7BD4815FD0C77044B1652A3CDC9D61C082A9A75510DD9D30D1C1009 DUP6 DUP5 PUSH1 0x40 MLOAD PUSH2 0x30C0 SWAP3 SWAP2 SWAP1 PUSH2 0x48D7 JUMP JUMPDEST PUSH1 0x40 MLOAD DUP1 SWAP2 SUB SWAP1 LOG3 POP POP POP POP POP POP POP POP POP POP PUSH2 0x30DA PUSH2 0x341B JUMP JUMPDEST POP POP POP JUMP JUMPDEST PUSH2 0x30E7 PUSH2 0x327B JUMP JUMPDEST PUSH0 PUSH20 0xFFFFFFFFFFFFFFFFFFFFFFFFFFFFFFFFFFFFFFFF AND DUP2 PUSH20 0xFFFFFFFFFFFFFFFFFFFFFFFFFFFFFFFFFFFFFFFF AND SUB PUSH2 0x3155 JUMPI PUSH1 0x40 MLOAD PUSH32 0x8C379A000000000000000000000000000000000000000000000000000000000 DUP2 MSTORE PUSH1 0x4 ADD PUSH2 0x314C SWAP1 PUSH2 0x509C JUMP JUMPDEST PUSH1 0x40 MLOAD DUP1 SWAP2 SUB SWAP1 REVERT JUMPDEST PUSH0 PUSH1 0x4 PUSH0 SWAP1 SLOAD SWAP1 PUSH2 0x100 EXP SWAP1 DIV PUSH20 0xFFFFFFFFFFFFFFFFFFFFFFFFFFFFFFFFFFFFFFFF AND SWAP1 POP DUP2 PUSH1 0x4 PUSH0 PUSH2 0x100 EXP DUP2 SLOAD DUP2 PUSH20 0xFFFFFFFFFFFFFFFFFFFFFFFFFFFFFFFFFFFFFFFF MUL NOT AND SWAP1 DUP4 PUSH20 0xFFFFFFFFFFFFFFFFFFFFFFFFFFFFFFFFFFFFFFFF AND MUL OR SWAP1 SSTORE POP PUSH32 0xAAEBCF1BFA00580E41D966056B48521FA9F202645C86D4DDF28113E617C1B1D3 DUP2 DUP4 PUSH1 0x40 MLOAD PUSH2 0x31EB SWAP3 SWAP2 SWAP1 PUSH2 0x50BA JUMP JUMPDEST PUSH1 0x40 MLOAD DUP1 SWAP2 SUB SWAP1 LOG1 POP POP JUMP JUMPDEST PUSH2 0x31FF PUSH2 0x327B JUMP JUMPDEST PUSH0 PUSH20 0xFFFFFFFFFFFFFFFFFFFFFFFFFFFFFFFFFFFFFFFF AND DUP2 PUSH20 0xFFFFFFFFFFFFFFFFFFFFFFFFFFFFFFFFFFFFFFFF AND SUB PUSH2 0x326F JUMPI PUSH0 PUSH1 0x40 MLOAD PUSH32 0x1E4FBDF700000000000000000000000000000000000000000000000000000000 DUP2 MSTORE PUSH1 0x4 ADD PUSH2 0x3266 SWAP2 SWAP1 PUSH2 0x3CFD JUMP JUMPDEST PUSH1 0x40 MLOAD DUP1 SWAP2 SUB SWAP1 REVERT JUMPDEST PUSH2 0x3278 DUP2 PUSH2 0x36F2 JUMP JUMPDEST POP JUMP JUMPDEST PUSH2 0x3283 PUSH2 0x3817 JUMP JUMPDEST PUSH20 0xFFFFFFFFFFFFFFFFFFFFFFFFFFFFFFFFFFFFFFFF AND PUSH2 0x32A1 PUSH2 0x1F36 JUMP JUMPDEST PUSH20 0xFFFFFFFFFFFFFFFFFFFFFFFFFFFFFFFFFFFFFFFF AND EQ PUSH2 0x3300 JUMPI PUSH2 0x32C4 PUSH2 0x3817 JUMP JUMPDEST PUSH1 0x40 MLOAD PUSH32 0x118CDAA700000000000000000000000000000000000000000000000000000000 DUP2 MSTORE PUSH1 0x4 ADD PUSH2 0x32F7 SWAP2 SWAP1 PUSH2 0x3CFD JUMP JUMPDEST PUSH1 0x40 MLOAD DUP1 SWAP2 SUB SWAP1 REVERT JUMPDEST JUMP JUMPDEST PUSH2 0x330A PUSH2 0x1E70 JUMP JUMPDEST ISZERO PUSH2 0x334A JUMPI PUSH1 0x40 MLOAD PUSH32 0x8C379A000000000000000000000000000000000000000000000000000000000 DUP2 MSTORE PUSH1 0x4 ADD PUSH2 0x3341 SWAP1 PUSH2 0x512B JUMP JUMPDEST PUSH1 0x40 MLOAD DUP1 SWAP2 SUB SWAP1 REVERT JUMPDEST JUMP JUMPDEST PUSH1 0x2 PUSH0 SLOAD SUB PUSH2 0x3390 JUMPI PUSH1 0x40 MLOAD PUSH32 0x8C379A000000000000000000000000000000000000000000000000000000000 DUP2 MSTORE PUSH1 0x4 ADD PUSH2 0x3387 SWAP1 PUSH2 0x5193 JUMP JUMPDEST PUSH1 0x40 MLOAD DUP1 SWAP2 SUB SWAP1 REVERT JUMPDEST PUSH1 0x2 PUSH0 DUP2 SWAP1 SSTORE POP JUMP JUMPDEST PUSH2 0x3415 DUP5 DUP6 PUSH20 0xFFFFFFFFFFFFFFFFFFFFFFFFFFFFFFFFFFFFFFFF AND PUSH4 0x23B872DD DUP7 DUP7 DUP7 PUSH1 0x40 MLOAD PUSH1 0x24 ADD PUSH2 0x33CE SWAP4 SWAP3 SWAP2 SWAP1 PUSH2 0x51B1 JUMP JUMPDEST PUSH1 0x40 MLOAD PUSH1 0x20 DUP2 DUP4 SUB SUB DUP2 MSTORE SWAP1 PUSH1 0x40 MSTORE SWAP2 POP PUSH1 0xE0 SHL PUSH1 0x20 DUP3 ADD DUP1 MLOAD PUSH28 0xFFFFFFFFFFFFFFFFFFFFFFFFFFFFFFFFFFFFFFFFFFFFFFFFFFFFFFFF DUP4 DUP2 DUP4 AND OR DUP4 MSTORE POP POP POP POP PUSH2 0x381E JUMP JUMPDEST POP POP POP POP JUMP JUMPDEST PUSH1 0x1 PUSH0 DUP2 SWAP1 SSTORE POP JUMP JUMPDEST PUSH2 0x349E DUP4 DUP5 PUSH20 0xFFFFFFFFFFFFFFFFFFFFFFFFFFFFFFFFFFFFFFFF AND PUSH4 0xA9059CBB DUP6 DUP6 PUSH1 0x40 MLOAD PUSH1 0x24 ADD PUSH2 0x3457 SWAP3 SWAP2 SWAP1 PUSH2 0x51E6 JUMP JUMPDEST PUSH1 0x40 MLOAD PUSH1 0x20 DUP2 DUP4 SUB SUB DUP2 MSTORE SWAP1 PUSH1 0x40 MSTORE SWAP2 POP PUSH1 0xE0 SHL PUSH1 0x20 DUP3 ADD DUP1 MLOAD PUSH28 0xFFFFFFFFFFFFFFFFFFFFFFFFFFFFFFFFFFFFFFFFFFFFFFFFFFFFFFFF DUP4 DUP2 DUP4 AND OR DUP4 MSTORE POP POP POP POP PUSH2 0x381E JUMP JUMPDEST POP POP POP JUMP JUMPDEST PUSH0 PUSH1 0x5 DUP3 PUSH1 0x40 MLOAD PUSH2 0x34B4 SWAP2 SWAP1 PUSH2 0x4329 JUMP JUMPDEST SWAP1 DUP2 MSTORE PUSH1 0x20 ADD PUSH1 0x40 MLOAD DUP1 SWAP2 SUB SWAP1 KECCAK256 SWAP1 POP PUSH0 PUSH2 0x2710 PUSH1 0x3 SLOAD DUP4 PUSH1 0x3 ADD SLOAD PUSH2 0x34DA SWAP2 SWAP1 PUSH2 0x4F4C JUMP JUMPDEST PUSH2 0x34E4 SWAP2 SWAP1 PUSH2 0x4FBA JUMP JUMPDEST SWAP1 POP PUSH0 DUP2 DUP4 PUSH1 0x3 ADD SLOAD PUSH2 0x34F7 SWAP2 SWAP1 PUSH2 0x4FEA JUMP JUMPDEST SWAP1 POP PUSH1 0x4 DUP4 PUSH1 0x6 ADD PUSH0 PUSH2 0x100 EXP DUP2 SLOAD DUP2 PUSH1 0xFF MUL NOT AND SWAP1 DUP4 PUSH1 0x5 DUP2 GT ISZERO PUSH2 0x3520 JUMPI PUSH2 0x351F PUSH2 0x3FAC JUMP JUMPDEST JUMPDEST MUL OR SWAP1 SSTORE POP PUSH2 0x3594 DUP4 PUSH1 0x2 ADD PUSH0 SWAP1 SLOAD SWAP1 PUSH2 0x100 EXP SWAP1 DIV PUSH20 0xFFFFFFFFFFFFFFFFFFFFFFFFFFFFFFFFFFFFFFFF AND DUP3 PUSH1 0x2 PUSH0 SWAP1 SLOAD SWAP1 PUSH2 0x100 EXP SWAP1 DIV PUSH20 0xFFFFFFFFFFFFFFFFFFFFFFFFFFFFFFFFFFFFFFFF AND PUSH20 0xFFFFFFFFFFFFFFFFFFFFFFFFFFFFFFFFFFFFFFFF AND PUSH2 0x3424 SWAP1 SWAP3 SWAP2 SWAP1 PUSH4 0xFFFFFFFF AND JUMP JUMPDEST PUSH2 0x3601 PUSH1 0x4 PUSH0 SWAP1 SLOAD SWAP1 PUSH2 0x100 EXP SWAP1 DIV PUSH20 0xFFFFFFFFFFFFFFFFFFFFFFFFFFFFFFFFFFFFFFFF AND DUP4 PUSH1 0x2 PUSH0 SWAP1 SLOAD SWAP1 PUSH2 0x100 EXP SWAP1 DIV PUSH20 0xFFFFFFFFFFFFFFFFFFFFFFFFFFFFFFFFFFFFFFFF AND PUSH20 0xFFFFFFFFFFFFFFFFFFFFFFFFFFFFFFFFFFFFFFFF AND PUSH2 0x3424 SWAP1 SWAP3 SWAP2 SWAP1 PUSH4 0xFFFFFFFF AND JUMP JUMPDEST DUP3 PUSH1 0x2 ADD PUSH0 SWAP1 SLOAD SWAP1 PUSH2 0x100 EXP SWAP1 DIV PUSH20 0xFFFFFFFFFFFFFFFFFFFFFFFFFFFFFFFFFFFFFFFF AND PUSH20 0xFFFFFFFFFFFFFFFFFFFFFFFFFFFFFFFFFFFFFFFF AND DUP5 PUSH1 0x40 MLOAD PUSH2 0x3649 SWAP2 SWAP1 PUSH2 0x4329 JUMP JUMPDEST PUSH1 0x40 MLOAD DUP1 SWAP2 SUB SWAP1 KECCAK256 PUSH32 0xA4B9AFF2E7BD4815FD0C77044B1652A3CDC9D61C082A9A75510DD9D30D1C1009 DUP4 DUP6 PUSH1 0x40 MLOAD PUSH2 0x3682 SWAP3 SWAP2 SWAP1 PUSH2 0x48D7 JUMP JUMPDEST PUSH1 0x40 MLOAD DUP1 SWAP2 SUB SWAP1 LOG3 POP POP POP POP JUMP JUMPDEST PUSH2 0x3698 PUSH2 0x38B9 JUMP JUMPDEST PUSH0 PUSH1 0x1 PUSH1 0x14 PUSH2 0x100 EXP DUP2 SLOAD DUP2 PUSH1 0xFF MUL NOT AND SWAP1 DUP4 ISZERO ISZERO MUL OR SWAP1 SSTORE POP PUSH32 0x5DB9EE0A495BF2E6FF9C91A7834C1BA4FDD244A5E8AA4E537BD38AEAE4B073AA PUSH2 0x36DB PUSH2 0x3817 JUMP JUMPDEST PUSH1 0x40 MLOAD PUSH2 0x36E8 SWAP2 SWAP1 PUSH2 0x3CFD JUMP JUMPDEST PUSH1 0x40 MLOAD DUP1 SWAP2 SUB SWAP1 LOG1 JUMP JUMPDEST PUSH0 PUSH1 0x1 PUSH0 SWAP1 SLOAD SWAP1 PUSH2 0x100 EXP SWAP1 DIV PUSH20 0xFFFFFFFFFFFFFFFFFFFFFFFFFFFFFFFFFFFFFFFF AND SWAP1 POP DUP2 PUSH1 0x1 PUSH0 PUSH2 0x100 EXP DUP2 SLOAD DUP2 PUSH20 0xFFFFFFFFFFFFFFFFFFFFFFFFFFFFFFFFFFFFFFFF MUL NOT AND SWAP1 DUP4 PUSH20 0xFFFFFFFFFFFFFFFFFFFFFFFFFFFFFFFFFFFFFFFF AND MUL OR SWAP1 SSTORE POP DUP2 PUSH20 0xFFFFFFFFFFFFFFFFFFFFFFFFFFFFFFFFFFFFFFFF AND DUP2 PUSH20 0xFFFFFFFFFFFFFFFFFFFFFFFFFFFFFFFFFFFFFFFF AND PUSH32 0x8BE0079C531659141344CD1FD0A4F28419497F9722A3DAAFE3B4186F6B6457E0 PUSH1 0x40 MLOAD PUSH1 0x40 MLOAD DUP1 SWAP2 SUB SWAP1 LOG3 POP POP JUMP JUMPDEST PUSH2 0x37BD PUSH2 0x3302 JUMP JUMPDEST PUSH1 0x1 DUP1 PUSH1 0x14 PUSH2 0x100 EXP DUP2 SLOAD DUP2 PUSH1 0xFF MUL NOT AND SWAP1 DUP4 ISZERO ISZERO MUL OR SWAP1 SSTORE POP PUSH32 0x62E78CEA01BEE320CD4E420270B5EA74000D11B0C9F74754EBDBFC544B05A258 PUSH2 0x3800 PUSH2 0x3817 JUMP JUMPDEST PUSH1 0x40 MLOAD PUSH2 0x380D SWAP2 SWAP1 PUSH2 0x3CFD JUMP JUMPDEST PUSH1 0x40 MLOAD DUP1 SWAP2 SUB SWAP1 LOG1 JUMP JUMPDEST PUSH0 CALLER SWAP1 POP SWAP1 JUMP JUMPDEST PUSH0 DUP1 PUSH1 0x20 PUSH0 DUP5 MLOAD PUSH1 0x20 DUP7 ADD PUSH0 DUP9 GAS CALL DUP1 PUSH2 0x383D JUMPI PUSH1 0x40 MLOAD RETURNDATASIZE PUSH0 DUP3 RETURNDATACOPY RETURNDATASIZE DUP2 REVERT JUMPDEST RETURNDATASIZE SWAP3 POP PUSH0 MLOAD SWAP2 POP POP PUSH0 DUP3 EQ PUSH2 0x3856 JUMPI PUSH1 0x1 DUP2 EQ ISZERO PUSH2 0x3871 JUMP JUMPDEST PUSH0 DUP5 PUSH20 0xFFFFFFFFFFFFFFFFFFFFFFFFFFFFFFFFFFFFFFFF AND EXTCODESIZE EQ JUMPDEST ISZERO PUSH2 0x38B3 JUMPI DUP4 PUSH1 0x40 MLOAD PUSH32 0x5274AFE700000000000000000000000000000000000000000000000000000000 DUP2 MSTORE PUSH1 0x4 ADD PUSH2 0x38AA SWAP2 SWAP1 PUSH2 0x3CFD JUMP JUMPDEST PUSH1 0x40 MLOAD DUP1 SWAP2 SUB SWAP1 REVERT JUMPDEST POP POP POP POP JUMP JUMPDEST PUSH2 0x38C1 PUSH2 0x1E70 JUMP JUMPDEST PUSH2 0x3900 JUMPI PUSH1 0x40 MLOAD PUSH32 0x8C379A000000000000000000000000000000000000000000000000000000000 DUP2 MSTORE PUSH1 0x4 ADD PUSH2 0x38F7 SWAP1 PUSH2 0x5257 JUMP JUMPDEST PUSH1 0x40 MLOAD DUP1 SWAP2 SUB SWAP1 REVERT JUMPDEST JUMP JUMPDEST PUSH0 PUSH1 0x40 MLOAD SWAP1 POP SWAP1 JUMP JUMPDEST PUSH0 DUP1 REVERT JUMPDEST PUSH0 DUP1 REVERT JUMPDEST PUSH0 DUP1 REVERT JUMPDEST PUSH0 DUP1 REVERT JUMPDEST PUSH0 PUSH1 0x1F NOT PUSH1 0x1F DUP4 ADD AND SWAP1 POP SWAP2 SWAP1 POP JUMP JUMPDEST PUSH32 0x4E487B7100000000000000000000000000000000000000000000000000000000 PUSH0 MSTORE PUSH1 0x41 PUSH1 0x4 MSTORE PUSH1 0x24 PUSH0 REVERT JUMPDEST PUSH2 0x3961 DUP3 PUSH2 0x391B JUMP JUMPDEST DUP2 ADD DUP2 DUP2 LT PUSH8 0xFFFFFFFFFFFFFFFF DUP3 GT OR ISZERO PUSH2 0x3980 JUMPI PUSH2 0x397F PUSH2 0x392B JUMP JUMPDEST JUMPDEST DUP1 PUSH1 0x40 MSTORE POP POP POP JUMP JUMPDEST PUSH0 PUSH2 0x3992 PUSH2 0x3902 JUMP JUMPDEST SWAP1 POP PUSH2 0x399E DUP3 DUP3 PUSH2 0x3958 JUMP JUMPDEST SWAP2 SWAP1 POP JUMP JUMPDEST PUSH0 PUSH8 0xFFFFFFFFFFFFFFFF DUP3 GT ISZERO PUSH2 0x39BD JUMPI PUSH2 0x39BC PUSH2 0x392B JUMP JUMPDEST JUMPDEST PUSH2 0x39C6 DUP3 PUSH2 0x391B JUMP JUMPDEST SWAP1 POP PUSH1 0x20 DUP2 ADD SWAP1 POP SWAP2 SWAP1 POP JUMP JUMPDEST DUP3 DUP2 DUP4 CALLDATACOPY PUSH0 DUP4 DUP4 ADD MSTORE POP POP POP JUMP JUMPDEST PUSH0 PUSH2 0x39F3 PUSH2 0x39EE DUP5 PUSH2 0x39A3 JUMP JUMPDEST PUSH2 0x3989 JUMP JUMPDEST SWAP1 POP DUP3 DUP2 MSTORE PUSH1 0x20 DUP2 ADD DUP5 DUP5 DUP5 ADD GT ISZERO PUSH2 0x3A0F JUMPI PUSH2 0x3A0E PUSH2 0x3917 JUMP JUMPDEST JUMPDEST PUSH2 0x3A1A DUP5 DUP3 DUP6 PUSH2 0x39D3 JUMP JUMPDEST POP SWAP4 SWAP3 POP POP POP JUMP JUMPDEST PUSH0 DUP3 PUSH1 0x1F DUP4 ADD SLT PUSH2 0x3A36 JUMPI PUSH2 0x3A35 PUSH2 0x3913 JUMP JUMPDEST JUMPDEST DUP2 CALLDATALOAD PUSH2 0x3A46 DUP5 DUP3 PUSH1 0x20 DUP7 ADD PUSH2 0x39E1 JUMP JUMPDEST SWAP2 POP POP SWAP3 SWAP2 POP POP JUMP JUMPDEST PUSH0 PUSH20 0xFFFFFFFFFFFFFFFFFFFFFFFFFFFFFFFFFFFFFFFF DUP3 AND SWAP1 POP SWAP2 SWAP1 POP JUMP JUMPDEST PUSH0 PUSH2 0x3A78 DUP3 PUSH2 0x3A4F JUMP JUMPDEST SWAP1 POP SWAP2 SWAP1 POP JUMP JUMPDEST PUSH2 0x3A88 DUP2 PUSH2 0x3A6E JUMP JUMPDEST DUP2 EQ PUSH2 0x3A92 JUMPI PUSH0 DUP1 REVERT JUMPDEST POP JUMP JUMPDEST PUSH0 DUP2 CALLDATALOAD SWAP1 POP PUSH2 0x3AA3 DUP2 PUSH2 0x3A7F JUMP JUMPDEST SWAP3 SWAP2 POP POP JUMP JUMPDEST PUSH0 DUP2 SWAP1 POP SWAP2 SWAP1 POP JUMP JUMPDEST PUSH2 0x3ABB DUP2 PUSH2 0x3AA9 JUMP JUMPDEST DUP2 EQ PUSH2 0x3AC5 JUMPI PUSH0 DUP1 REVERT JUMPDEST POP JUMP JUMPDEST PUSH0 DUP2 CALLDATALOAD SWAP1 POP PUSH2 0x3AD6 DUP2 PUSH2 0x3AB2 JUMP JUMPDEST SWAP3 SWAP2 POP POP JUMP JUMPDEST PUSH0 DUP1 PUSH0 DUP1 PUSH0 DUP1 PUSH1 0xC0 DUP8 DUP10 SUB SLT ISZERO PUSH2 0x3AF6 JUMPI PUSH2 0x3AF5 PUSH2 0x390B JUMP JUMPDEST JUMPDEST PUSH0 DUP8 ADD CALLDATALOAD PUSH8 0xFFFFFFFFFFFFFFFF DUP2 GT ISZERO PUSH2 0x3B13 JUMPI PUSH2 0x3B12 PUSH2 0x390F JUMP JUMPDEST JUMPDEST PUSH2 0x3B1F DUP10 DUP3 DUP11 ADD PUSH2 0x3A22 JUMP JUMPDEST SWAP7 POP POP PUSH1 0x20 PUSH2 0x3B30 DUP10 DUP3 DUP11 ADD PUSH2 0x3A95 JUMP JUMPDEST SWAP6 POP POP PUSH1 0x40 PUSH2 0x3B41 DUP10 DUP3 DUP11 ADD PUSH2 0x3A95 JUMP JUMPDEST SWAP5 POP POP PUSH1 0x60 PUSH2 0x3B52 DUP10 DUP3 DUP11 ADD PUSH2 0x3AC8 JUMP JUMPDEST SWAP4 POP POP PUSH1 0x80 PUSH2 0x3B63 DUP10 DUP3 DUP11 ADD PUSH2 0x3AC8 JUMP JUMPDEST SWAP3 POP POP PUSH1 0xA0 DUP8 ADD CALLDATALOAD PUSH8 0xFFFFFFFFFFFFFFFF DUP2 GT ISZERO PUSH2 0x3B84 JUMPI PUSH2 0x3B83 PUSH2 0x390F JUMP JUMPDEST JUMPDEST PUSH2 0x3B90 DUP10 DUP3 DUP11 ADD PUSH2 0x3A22 JUMP JUMPDEST SWAP2 POP POP SWAP3 SWAP6 POP SWAP3 SWAP6 POP SWAP3 SWAP6 JUMP JUMPDEST PUSH0 DUP1 PUSH1 0x40 DUP4 DUP6 SUB SLT ISZERO PUSH2 0x3BB3 JUMPI PUSH2 0x3BB2 PUSH2 0x390B JUMP JUMPDEST JUMPDEST PUSH0 DUP4 ADD CALLDATALOAD PUSH8 0xFFFFFFFFFFFFFFFF DUP2 GT ISZERO PUSH2 0x3BD0 JUMPI PUSH2 0x3BCF PUSH2 0x390F JUMP JUMPDEST JUMPDEST PUSH2 0x3BDC DUP6 DUP3 DUP7 ADD PUSH2 0x3A22 JUMP JUMPDEST SWAP3 POP POP PUSH1 0x20 PUSH2 0x3BED DUP6 DUP3 DUP7 ADD PUSH2 0x3A95 JUMP JUMPDEST SWAP2 POP POP SWAP3 POP SWAP3 SWAP1 POP JUMP JUMPDEST PUSH0 DUP1 PUSH0 PUSH1 0x60 DUP5 DUP7 SUB SLT ISZERO PUSH2 0x3C0E JUMPI PUSH2 0x3C0D PUSH2 0x390B JUMP JUMPDEST JUMPDEST PUSH0 DUP5 ADD CALLDATALOAD PUSH8 0xFFFFFFFFFFFFFFFF DUP2 GT ISZERO PUSH2 0x3C2B JUMPI PUSH2 0x3C2A PUSH2 0x390F JUMP JUMPDEST JUMPDEST PUSH2 0x3C37 DUP7 DUP3 DUP8 ADD PUSH2 0x3A22 JUMP JUMPDEST SWAP4 POP POP PUSH1 0x20 PUSH2 0x3C48 DUP7 DUP3 DUP8 ADD PUSH2 0x3A95 JUMP JUMPDEST SWAP3 POP POP PUSH1 0x40 DUP5 ADD CALLDATALOAD PUSH8 0xFFFFFFFFFFFFFFFF DUP2 GT ISZERO PUSH2 0x3C69 JUMPI PUSH2 0x3C68 PUSH2 0x390F JUMP JUMPDEST JUMPDEST PUSH2 0x3C75 DUP7 DUP3 DUP8 ADD PUSH2 0x3A22 JUMP JUMPDEST SWAP2 POP POP SWAP3 POP SWAP3 POP SWAP3 JUMP JUMPDEST PUSH0 PUSH1 0x20 DUP3 DUP5 SUB SLT ISZERO PUSH2 0x3C94 JUMPI PUSH2 0x3C93 PUSH2 0x390B JUMP JUMPDEST JUMPDEST PUSH0 DUP3 ADD CALLDATALOAD PUSH8 0xFFFFFFFFFFFFFFFF DUP2 GT ISZERO PUSH2 0x3CB1 JUMPI PUSH2 0x3CB0 PUSH2 0x390F JUMP JUMPDEST JUMPDEST PUSH2 0x3CBD DUP5 DUP3 DUP6 ADD PUSH2 0x3A22 JUMP JUMPDEST SWAP2 POP POP SWAP3 SWAP2 POP POP JUMP JUMPDEST PUSH2 0x3CCF DUP2 PUSH2 0x3AA9 JUMP JUMPDEST DUP3 MSTORE POP POP JUMP JUMPDEST PUSH0 PUSH1 0x20 DUP3 ADD SWAP1 POP PUSH2 0x3CE8 PUSH0 DUP4 ADD DUP5 PUSH2 0x3CC6 JUMP JUMPDEST SWAP3 SWAP2 POP POP JUMP JUMPDEST PUSH2 0x3CF7 DUP2 PUSH2 0x3A6E JUMP JUMPDEST DUP3 MSTORE POP POP JUMP JUMPDEST PUSH0 PUSH1 0x20 DUP3 ADD SWAP1 POP PUSH2 0x3D10 PUSH0 DUP4 ADD DUP5 PUSH2 0x3CEE JUMP JUMPDEST SWAP3 SWAP2 POP POP JUMP JUMPDEST PUSH0 DUP1 PUSH1 0x40 DUP4 DUP6 SUB SLT ISZERO PUSH2 0x3D2C JUMPI PUSH2 0x3D2B PUSH2 0x390B JUMP JUMPDEST JUMPDEST PUSH0 PUSH2 0x3D39 DUP6 DUP3 DUP7 ADD PUSH2 0x3A95 JUMP JUMPDEST SWAP3 POP POP PUSH1 0x20 PUSH2 0x3D4A DUP6 DUP3 DUP7 ADD PUSH2 0x3AC8 JUMP JUMPDEST SWAP2 POP POP SWAP3 POP SWAP3 SWAP1 POP JUMP JUMPDEST PUSH0 DUP2 MLOAD SWAP1 POP SWAP2 SWAP1 POP JUMP JUMPDEST PUSH0 DUP3 DUP3 MSTORE PUSH1 0x20 DUP3 ADD SWAP1 POP SWAP3 SWAP2 POP POP JUMP JUMPDEST PUSH0 JUMPDEST DUP4 DUP2 LT ISZERO PUSH2 0x3D8B JUMPI DUP1 DUP3 ADD MLOAD DUP2 DUP5 ADD MSTORE PUSH1 0x20 DUP2 ADD SWAP1 POP PUSH2 0x3D70 JUMP JUMPDEST PUSH0 DUP5 DUP5 ADD MSTORE POP POP POP POP JUMP JUMPDEST PUSH0 PUSH2 0x3DA0 DUP3 PUSH2 0x3D54 JUMP JUMPDEST PUSH2 0x3DAA DUP2 DUP6 PUSH2 0x3D5E JUMP JUMPDEST SWAP4 POP PUSH2 0x3DBA DUP2 DUP6 PUSH1 0x20 DUP7 ADD PUSH2 0x3D6E JUMP JUMPDEST PUSH2 0x3DC3 DUP2 PUSH2 0x391B JUMP JUMPDEST DUP5 ADD SWAP2 POP POP SWAP3 SWAP2 POP POP JUMP JUMPDEST PUSH0 PUSH1 0x20 DUP3 ADD SWAP1 POP DUP2 DUP2 SUB PUSH0 DUP4 ADD MSTORE PUSH2 0x3DE6 DUP2 DUP5 PUSH2 0x3D96 JUMP JUMPDEST SWAP1 POP SWAP3 SWAP2 POP POP JUMP JUMPDEST PUSH0 DUP2 ISZERO ISZERO SWAP1 POP SWAP2 SWAP1 POP JUMP JUMPDEST PUSH2 0x3E02 DUP2 PUSH2 0x3DEE JUMP JUMPDEST DUP3 MSTORE POP POP JUMP JUMPDEST PUSH0 PUSH1 0x20 DUP3 ADD SWAP1 POP PUSH2 0x3E1B PUSH0 DUP4 ADD DUP5 PUSH2 0x3DF9 JUMP JUMPDEST SWAP3 SWAP2 POP POP JUMP JUMPDEST PUSH2 0x3E2A DUP2 PUSH2 0x3DEE JUMP JUMPDEST DUP2 EQ PUSH2 0x3E34 JUMPI PUSH0 DUP1 REVERT JUMPDEST POP JUMP JUMPDEST PUSH0 DUP2 CALLDATALOAD SWAP1 POP PUSH2 0x3E45 DUP2 PUSH2 0x3E21 JUMP JUMPDEST SWAP3 SWAP2 POP POP JUMP JUMPDEST PUSH0 DUP1 PUSH1 0x40 DUP4 DUP6 SUB SLT ISZERO PUSH2 0x3E61 JUMPI PUSH2 0x3E60 PUSH2 0x390B JUMP JUMPDEST JUMPDEST PUSH0 PUSH2 0x3E6E DUP6 DUP3 DUP7 ADD PUSH2 0x3A95 JUMP JUMPDEST SWAP3 POP POP PUSH1 0x20 PUSH2 0x3E7F DUP6 DUP3 DUP7 ADD PUSH2 0x3E37 JUMP JUMPDEST SWAP2 POP POP SWAP3 POP SWAP3 SWAP1 POP JUMP JUMPDEST PUSH0 DUP2 MLOAD SWAP1 POP SWAP2 SWAP1 POP JUMP JUMPDEST PUSH0 DUP3 DUP3 MSTORE PUSH1 0x20 DUP3 ADD SWAP1 POP SWAP3 SWAP2 POP POP JUMP JUMPDEST PUSH0 DUP2 SWAP1 POP PUSH1 0x20 DUP3 ADD SWAP1 POP SWAP2 SWAP1 POP JUMP JUMPDEST PUSH0 DUP3 DUP3 MSTORE PUSH1 0x20 DUP3 ADD SWAP1 POP SWAP3 SWAP2 POP POP JUMP JUMPDEST PUSH0 PUSH2 0x3ECC DUP3 PUSH2 0x3D54 JUMP JUMPDEST PUSH2 0x3ED6 DUP2 DUP6 PUSH2 0x3EB2 JUMP JUMPDEST SWAP4 POP PUSH2 0x3EE6 DUP2 DUP6 PUSH1 0x20 DUP7 ADD PUSH2 0x3D6E JUMP JUMPDEST PUSH2 0x3EEF DUP2 PUSH2 0x391B JUMP JUMPDEST DUP5 ADD SWAP2 POP POP SWAP3 SWAP2 POP POP JUMP JUMPDEST PUSH0 PUSH2 0x3F05 DUP4 DUP4 PUSH2 0x3EC2 JUMP JUMPDEST SWAP1 POP SWAP3 SWAP2 POP POP JUMP JUMPDEST PUSH0 PUSH1 0x20 DUP3 ADD SWAP1 POP SWAP2 SWAP1 POP JUMP JUMPDEST PUSH0 PUSH2 0x3F23 DUP3 PUSH2 0x3E89 JUMP JUMPDEST PUSH2 0x3F2D DUP2 DUP6 PUSH2 0x3E93 JUMP JUMPDEST SWAP4 POP DUP4 PUSH1 0x20 DUP3 MUL DUP6 ADD PUSH2 0x3F3F DUP6 PUSH2 0x3EA3 JUMP JUMPDEST DUP1 PUSH0 JUMPDEST DUP6 DUP2 LT ISZERO PUSH2 0x3F7A JUMPI DUP5 DUP5 SUB DUP10 MSTORE DUP2 MLOAD PUSH2 0x3F5B DUP6 DUP3 PUSH2 0x3EFA JUMP JUMPDEST SWAP5 POP PUSH2 0x3F66 DUP4 PUSH2 0x3F0D JUMP JUMPDEST SWAP3 POP PUSH1 0x20 DUP11 ADD SWAP10 POP POP PUSH1 0x1 DUP2 ADD SWAP1 POP PUSH2 0x3F42 JUMP JUMPDEST POP DUP3 SWAP8 POP DUP8 SWAP6 POP POP POP POP POP POP SWAP3 SWAP2 POP POP JUMP JUMPDEST PUSH0 PUSH1 0x20 DUP3 ADD SWAP1 POP DUP2 DUP2 SUB PUSH0 DUP4 ADD MSTORE PUSH2 0x3FA4 DUP2 DUP5 PUSH2 0x3F19 JUMP JUMPDEST SWAP1 POP SWAP3 SWAP2 POP POP JUMP JUMPDEST PUSH32 0x4E487B7100000000000000000000000000000000000000000000000000000000 PUSH0 MSTORE PUSH1 0x21 PUSH1 0x4 MSTORE PUSH1 0x24 PUSH0 REVERT JUMPDEST PUSH1 0x6 DUP2 LT PUSH2 0x3FEA JUMPI PUSH2 0x3FE9 PUSH2 0x3FAC JUMP JUMPDEST JUMPDEST POP JUMP JUMPDEST PUSH0 DUP2 SWAP1 POP PUSH2 0x3FFA DUP3 PUSH2 0x3FD9 JUMP JUMPDEST SWAP2 SWAP1 POP JUMP JUMPDEST PUSH0 PUSH2 0x4009 DUP3 PUSH2 0x3FED JUMP JUMPDEST SWAP1 POP SWAP2 SWAP1 POP JUMP JUMPDEST PUSH2 0x4019 DUP2 PUSH2 0x3FFF JUMP JUMPDEST DUP3 MSTORE POP POP JUMP JUMPDEST PUSH0 PUSH2 0x180 DUP3 ADD SWAP1 POP DUP2 DUP2 SUB PUSH0 DUP4 ADD MSTORE PUSH2 0x4038 DUP2 DUP16 PUSH2 0x3D96 JUMP JUMPDEST SWAP1 POP PUSH2 0x4047 PUSH1 0x20 DUP4 ADD DUP15 PUSH2 0x3CEE JUMP JUMPDEST PUSH2 0x4054 PUSH1 0x40 DUP4 ADD DUP14 PUSH2 0x3CEE JUMP JUMPDEST PUSH2 0x4061 PUSH1 0x60 DUP4 ADD DUP13 PUSH2 0x3CC6 JUMP JUMPDEST PUSH2 0x406E PUSH1 0x80 DUP4 ADD DUP12 PUSH2 0x3CC6 JUMP JUMPDEST DUP2 DUP2 SUB PUSH1 0xA0 DUP4 ADD MSTORE PUSH2 0x4080 DUP2 DUP11 PUSH2 0x3D96 JUMP JUMPDEST SWAP1 POP PUSH2 0x408F PUSH1 0xC0 DUP4 ADD DUP10 PUSH2 0x4010 JUMP JUMPDEST PUSH2 0x409C PUSH1 0xE0 DUP4 ADD DUP9 PUSH2 0x3CC6 JUMP JUMPDEST PUSH2 0x40AA PUSH2 0x100 DUP4 ADD DUP8 PUSH2 0x3CC6 JUMP JUMPDEST PUSH2 0x40B8 PUSH2 0x120 DUP4 ADD DUP7 PUSH2 0x3CC6 JUMP JUMPDEST DUP2 DUP2 SUB PUSH2 0x140 DUP4 ADD MSTORE PUSH2 0x40CB DUP2 DUP6 PUSH2 0x3D96 JUMP JUMPDEST SWAP1 POP PUSH2 0x40DB PUSH2 0x160 DUP4 ADD DUP5 PUSH2 0x3DF9 JUMP JUMPDEST SWAP14 SWAP13 POP POP POP POP POP POP POP POP POP POP POP POP POP JUMP JUMPDEST PUSH0 PUSH1 0x20 DUP3 DUP5 SUB SLT ISZERO PUSH2 0x4101 JUMPI PUSH2 0x4100 PUSH2 0x390B JUMP JUMPDEST JUMPDEST PUSH0 PUSH2 0x410E DUP5 DUP3 DUP6 ADD PUSH2 0x3AC8 JUMP JUMPDEST SWAP2 POP POP SWAP3 SWAP2 POP POP JUMP JUMPDEST PUSH0 DUP2 SWAP1 POP SWAP2 SWAP1 POP JUMP JUMPDEST PUSH0 PUSH2 0x413A PUSH2 0x4135 PUSH2 0x4130 DUP5 PUSH2 0x3A4F JUMP JUMPDEST PUSH2 0x4117 JUMP JUMPDEST PUSH2 0x3A4F JUMP JUMPDEST SWAP1 POP SWAP2 SWAP1 POP JUMP JUMPDEST PUSH0 PUSH2 0x414B DUP3 PUSH2 0x4120 JUMP JUMPDEST SWAP1 POP SWAP2 SWAP1 POP JUMP JUMPDEST PUSH0 PUSH2 0x415C DUP3 PUSH2 0x4141 JUMP JUMPDEST SWAP1 POP SWAP2 SWAP1 POP JUMP JUMPDEST PUSH2 0x416C DUP2 PUSH2 0x4152 JUMP JUMPDEST DUP3 MSTORE POP POP JUMP JUMPDEST PUSH0 PUSH1 0x20 DUP3 ADD SWAP1 POP PUSH2 0x4185 PUSH0 DUP4 ADD DUP5 PUSH2 0x4163 JUMP JUMPDEST SWAP3 SWAP2 POP POP JUMP JUMPDEST PUSH0 PUSH2 0x180 DUP3 ADD SWAP1 POP DUP2 DUP2 SUB PUSH0 DUP4 ADD MSTORE PUSH2 0x41A4 DUP2 DUP16 PUSH2 0x3D96 JUMP JUMPDEST SWAP1 POP PUSH2 0x41B3 PUSH1 0x20 DUP4 ADD DUP15 PUSH2 0x3CEE JUMP JUMPDEST PUSH2 0x41C0 PUSH1 0x40 DUP4 ADD DUP14 PUSH2 0x3CEE JUMP JUMPDEST PUSH2 0x41CD PUSH1 0x60 DUP4 ADD DUP13 PUSH2 0x3CC6 JUMP JUMPDEST PUSH2 0x41DA PUSH1 0x80 DUP4 ADD DUP12 PUSH2 0x3CC6 JUMP JUMPDEST PUSH2 0x41E7 PUSH1 0xA0 DUP4 ADD DUP11 PUSH2 0x4010 JUMP JUMPDEST DUP2 DUP2 SUB PUSH1 0xC0 DUP4 ADD MSTORE PUSH2 0x41F9 DUP2 DUP10 PUSH2 0x3D96 JUMP JUMPDEST SWAP1 POP DUP2 DUP2 SUB PUSH1 0xE0 DUP4 ADD MSTORE PUSH2 0x420D DUP2 DUP9 PUSH2 0x3D96 JUMP JUMPDEST SWAP1 POP PUSH2 0x421D PUSH2 0x100 DUP4 ADD DUP8 PUSH2 0x3CC6 JUMP JUMPDEST PUSH2 0x422B PUSH2 0x120 DUP4 ADD DUP7 PUSH2 0x3CC6 JUMP JUMPDEST PUSH2 0x4239 PUSH2 0x140 DUP4 ADD DUP6 PUSH2 0x3CC6 JUMP JUMPDEST PUSH2 0x4247 PUSH2 0x160 DUP4 ADD DUP5 PUSH2 0x3DF9 JUMP JUMPDEST SWAP14 SWAP13 POP POP POP POP POP POP POP POP POP POP POP POP POP JUMP JUMPDEST PUSH0 DUP1 PUSH0 PUSH1 0x60 DUP5 DUP7 SUB SLT ISZERO PUSH2 0x426F JUMPI PUSH2 0x426E PUSH2 0x390B JUMP JUMPDEST JUMPDEST PUSH0 DUP5 ADD CALLDATALOAD PUSH8 0xFFFFFFFFFFFFFFFF DUP2 GT ISZERO PUSH2 0x428C JUMPI PUSH2 0x428B PUSH2 0x390F JUMP JUMPDEST JUMPDEST PUSH2 0x4298 DUP7 DUP3 DUP8 ADD PUSH2 0x3A22 JUMP JUMPDEST SWAP4 POP POP PUSH1 0x20 PUSH2 0x42A9 DUP7 DUP3 DUP8 ADD PUSH2 0x3A95 JUMP JUMPDEST SWAP3 POP POP PUSH1 0x40 PUSH2 0x42BA DUP7 DUP3 DUP8 ADD PUSH2 0x3E37 JUMP JUMPDEST SWAP2 POP POP SWAP3 POP SWAP3 POP SWAP3 JUMP JUMPDEST PUSH0 PUSH1 0x20 DUP3 DUP5 SUB SLT ISZERO PUSH2 0x42D9 JUMPI PUSH2 0x42D8 PUSH2 0x390B JUMP JUMPDEST JUMPDEST PUSH0 PUSH2 0x42E6 DUP5 DUP3 DUP6 ADD PUSH2 0x3A95 JUMP JUMPDEST SWAP2 POP POP SWAP3 SWAP2 POP POP JUMP JUMPDEST PUSH0 DUP2 SWAP1 POP SWAP3 SWAP2 POP POP JUMP JUMPDEST PUSH0 PUSH2 0x4303 DUP3 PUSH2 0x3D54 JUMP JUMPDEST PUSH2 0x430D DUP2 DUP6 PUSH2 0x42EF JUMP JUMPDEST SWAP4 POP PUSH2 0x431D DUP2 DUP6 PUSH1 0x20 DUP7 ADD PUSH2 0x3D6E JUMP JUMPDEST DUP1 DUP5 ADD SWAP2 POP POP SWAP3 SWAP2 POP POP JUMP JUMPDEST PUSH0 PUSH2 0x4334 DUP3 DUP5 PUSH2 0x42F9 JUMP JUMPDEST SWAP2 POP DUP2 SWAP1 POP SWAP3 SWAP2 POP POP JUMP JUMPDEST PUSH32 0x4465616C20494420616C72656164792065786973747300000000000000000000 PUSH0 DUP3 ADD MSTORE POP JUMP JUMPDEST PUSH0 PUSH2 0x4373 PUSH1 0x16 DUP4 PUSH2 0x3D5E JUMP JUMPDEST SWAP2 POP PUSH2 0x437E DUP3 PUSH2 0x433F JUMP JUMPDEST PUSH1 0x20 DUP3 ADD SWAP1 POP SWAP2 SWAP1 POP JUMP JUMPDEST PUSH0 PUSH1 0x20 DUP3 ADD SWAP1 POP DUP2 DUP2 SUB PUSH0 DUP4 ADD MSTORE PUSH2 0x43A0 DUP2 PUSH2 0x4367 JUMP JUMPDEST SWAP1 POP SWAP2 SWAP1 POP JUMP JUMPDEST PUSH32 0x496E76616C69642063726561746F722061646472657373000000000000000000 PUSH0 DUP3 ADD MSTORE POP JUMP JUMPDEST PUSH0 PUSH2 0x43DB PUSH1 0x17 DUP4 PUSH2 0x3D5E JUMP JUMPDEST SWAP2 POP PUSH2 0x43E6 DUP3 PUSH2 0x43A7 JUMP JUMPDEST PUSH1 0x20 DUP3 ADD SWAP1 POP SWAP2 SWAP1 POP JUMP JUMPDEST PUSH0 PUSH1 0x20 DUP3 ADD SWAP1 POP DUP2 DUP2 SUB PUSH0 DUP4 ADD MSTORE PUSH2 0x4408 DUP2 PUSH2 0x43CF JUMP JUMPDEST SWAP1 POP SWAP2 SWAP1 POP JUMP JUMPDEST PUSH32 0x496E76616C6964206272616E6420616464726573730000000000000000000000 PUSH0 DUP3 ADD MSTORE POP JUMP JUMPDEST PUSH0 PUSH2 0x4443 PUSH1 0x15 DUP4 PUSH2 0x3D5E JUMP JUMPDEST SWAP2 POP PUSH2 0x444E DUP3 PUSH2 0x440F JUMP JUMPDEST PUSH1 0x20 DUP3 ADD SWAP1 POP SWAP2 SWAP1 POP JUMP JUMPDEST PUSH0 PUSH1 0x20 DUP3 ADD SWAP1 POP DUP2 DUP2 SUB PUSH0 DUP4 ADD MSTORE PUSH2 0x4470 DUP2 PUSH2 0x4437 JUMP JUMPDEST SWAP1 POP SWAP2 SWAP1 POP JUMP JUMPDEST PUSH32 0x43726561746F722063616E6E6F74206265206272616E64000000000000000000 PUSH0 DUP3 ADD MSTORE POP JUMP JUMPDEST PUSH0 PUSH2 0x44AB PUSH1 0x17 DUP4 PUSH2 0x3D5E JUMP JUMPDEST SWAP2 POP PUSH2 0x44B6 DUP3 PUSH2 0x4477 JUMP JUMPDEST PUSH1 0x20 DUP3 ADD SWAP1 POP SWAP2 SWAP1 POP JUMP JUMPDEST PUSH0 PUSH1 0x20 DUP3 ADD SWAP1 POP DUP2 DUP2 SUB PUSH0 DUP4 ADD MSTORE PUSH2 0x44D8 DUP2 PUSH2 0x449F JUMP JUMPDEST SWAP1 POP SWAP2 SWAP1 POP JUMP JUMPDEST PUSH32 0x416D6F756E74206D7573742062652067726561746572207468616E2030000000 PUSH0 DUP3 ADD MSTORE POP JUMP JUMPDEST PUSH0 PUSH2 0x4513 PUSH1 0x1D DUP4 PUSH2 0x3D5E JUMP JUMPDEST SWAP2 POP PUSH2 0x451E DUP3 PUSH2 0x44DF JUMP JUMPDEST PUSH1 0x20 DUP3 ADD SWAP1 POP SWAP2 SWAP1 POP JUMP JUMPDEST PUSH0 PUSH1 0x20 DUP3 ADD SWAP1 POP DUP2 DUP2 SUB PUSH0 DUP4 ADD MSTORE PUSH2 0x4540 DUP2 PUSH2 0x4507 JUMP JUMPDEST SWAP1 POP SWAP2 SWAP1 POP JUMP JUMPDEST PUSH32 0x446561646C696E65206D75737420626520696E20667574757265000000000000 PUSH0 DUP3 ADD MSTORE POP JUMP JUMPDEST PUSH0 PUSH2 0x457B PUSH1 0x1A DUP4 PUSH2 0x3D5E JUMP JUMPDEST SWAP2 POP PUSH2 0x4586 DUP3 PUSH2 0x4547 JUMP JUMPDEST PUSH1 0x20 DUP3 ADD SWAP1 POP SWAP2 SWAP1 POP JUMP JUMPDEST PUSH0 PUSH1 0x20 DUP3 ADD SWAP1 POP DUP2 DUP2 SUB PUSH0 DUP4 ADD MSTORE PUSH2 0x45A8 DUP2 PUSH2 0x456F JUMP JUMPDEST SWAP1 POP SWAP2 SWAP1 POP JUMP JUMPDEST PUSH32 0x4272696566206861736820726571756972656400000000000000000000000000 PUSH0 DUP3 ADD MSTORE POP JUMP JUMPDEST PUSH0 PUSH2 0x45E3 PUSH1 0x13 DUP4 PUSH2 0x3D5E JUMP JUMPDEST SWAP2 POP PUSH2 0x45EE DUP3 PUSH2 0x45AF JUMP JUMPDEST PUSH1 0x20 DUP3 ADD SWAP1 POP SWAP2 SWAP1 POP JUMP JUMPDEST PUSH0 PUSH1 0x20 DUP3 ADD SWAP1 POP DUP2 DUP2 SUB PUSH0 DUP4 ADD MSTORE PUSH2 0x4610 DUP2 PUSH2 0x45D7 JUMP JUMPDEST SWAP1 POP SWAP2 SWAP1 POP JUMP JUMPDEST PUSH32 0x4E487B7100000000000000000000000000000000000000000000000000000000 PUSH0 MSTORE PUSH1 0x22 PUSH1 0x4 MSTORE PUSH1 0x24 PUSH0 REVERT JUMPDEST PUSH0 PUSH1 0x2 DUP3 DIV SWAP1 POP PUSH1 0x1 DUP3 AND DUP1 PUSH2 0x465B JUMPI PUSH1 0x7F DUP3 AND SWAP2 POP JUMPDEST PUSH1 0x20 DUP3 LT DUP2 SUB PUSH2 0x466E JUMPI PUSH2 0x466D PUSH2 0x4617 JUMP JUMPDEST JUMPDEST POP SWAP2 SWAP1 POP JUMP JUMPDEST PUSH0 DUP2 SWAP1 POP DUP2 PUSH0 MSTORE PUSH1 0x20 PUSH0 KECCAK256 SWAP1 POP SWAP2 SWAP1 POP JUMP JUMPDEST PUSH0 PUSH1 0x20 PUSH1 0x1F DUP4 ADD DIV SWAP1 POP SWAP2 SWAP1 POP JUMP JUMPDEST PUSH0 DUP3 DUP3 SHL SWAP1 POP SWAP3 SWAP2 POP POP JUMP JUMPDEST PUSH0 PUSH1 0x8 DUP4 MUL PUSH2 0x46D0 PUSH32 0xFFFFFFFFFFFFFFFFFFFFFFFFFFFFFFFFFFFFFFFFFFFFFFFFFFFFFFFFFFFFFFFF DUP3 PUSH2 0x4695 JUMP JUMPDEST PUSH2 0x46DA DUP7 DUP4 PUSH2 0x4695 JUMP JUMPDEST SWAP6 POP DUP1 NOT DUP5 AND SWAP4 POP DUP1 DUP7 AND DUP5 OR SWAP3 POP POP POP SWAP4 SWAP3 POP POP POP JUMP JUMPDEST PUSH0 PUSH2 0x470C PUSH2 0x4707 PUSH2 0x4702 DUP5 PUSH2 0x3AA9 JUMP JUMPDEST PUSH2 0x4117 JUMP JUMPDEST PUSH2 0x3AA9 JUMP JUMPDEST SWAP1 POP SWAP2 SWAP1 POP JUMP JUMPDEST PUSH0 DUP2 SWAP1 POP SWAP2 SWAP1 POP JUMP JUMPDEST PUSH2 0x4725 DUP4 PUSH2 0x46F2 JUMP JUMPDEST PUSH2 0x4739 PUSH2 0x4731 DUP3 PUSH2 0x4713 JUMP JUMPDEST DUP5 DUP5 SLOAD PUSH2 0x46A1 JUMP JUMPDEST DUP3 SSTORE POP POP POP POP JUMP JUMPDEST PUSH0 SWAP1 JUMP JUMPDEST PUSH2 0x474D PUSH2 0x4741 JUMP JUMPDEST PUSH2 0x4758 DUP2 DUP5 DUP5 PUSH2 0x471C JUMP JUMPDEST POP POP POP JUMP JUMPDEST JUMPDEST DUP2 DUP2 LT ISZERO PUSH2 0x477B JUMPI PUSH2 0x4770 PUSH0 DUP3 PUSH2 0x4745 JUMP JUMPDEST PUSH1 0x1 DUP2 ADD SWAP1 POP PUSH2 0x475E JUMP JUMPDEST POP POP JUMP JUMPDEST PUSH1 0x1F DUP3 GT ISZERO PUSH2 0x47C0 JUMPI PUSH2 0x4791 DUP2 PUSH2 0x4674 JUMP JUMPDEST PUSH2 0x479A DUP5 PUSH2 0x4686 JUMP JUMPDEST DUP2 ADD PUSH1 0x20 DUP6 LT ISZERO PUSH2 0x47A9 JUMPI DUP2 SWAP1 POP JUMPDEST PUSH2 0x47BD PUSH2 0x47B5 DUP6 PUSH2 0x4686 JUMP JUMPDEST DUP4 ADD DUP3 PUSH2 0x475D JUMP JUMPDEST POP POP JUMPDEST POP POP POP JUMP JUMPDEST PUSH0 DUP3 DUP3 SHR SWAP1 POP SWAP3 SWAP2 POP POP JUMP JUMPDEST PUSH0 PUSH2 0x47E0 PUSH0 NOT DUP5 PUSH1 0x8 MUL PUSH2 0x47C5 JUMP JUMPDEST NOT DUP1 DUP4 AND SWAP2 POP POP SWAP3 SWAP2 POP POP JUMP JUMPDEST PUSH0 PUSH2 0x47F8 DUP4 DUP4 PUSH2 0x47D1 JUMP JUMPDEST SWAP2 POP DUP3 PUSH1 0x2 MUL DUP3 OR SWAP1 POP SWAP3 SWAP2 POP POP JUMP JUMPDEST PUSH2 0x4811 DUP3 PUSH2 0x3D54 JUMP JUMPDEST PUSH8 0xFFFFFFFFFFFFFFFF DUP2 GT ISZERO PUSH2 0x482A JUMPI PUSH2 0x4829 PUSH2 0x392B JUMP JUMPDEST JUMPDEST PUSH2 0x4834 DUP3 SLOAD PUSH2 0x4644 JUMP JUMPDEST PUSH2 0x483F DUP3 DUP3 DUP6 PUSH2 0x477F JUMP JUMPDEST PUSH0 PUSH1 0x20 SWAP1 POP PUSH1 0x1F DUP4 GT PUSH1 0x1 DUP2 EQ PUSH2 0x4870 JUMPI PUSH0 DUP5 ISZERO PUSH2 0x485E JUMPI DUP3 DUP8 ADD MLOAD SWAP1 POP JUMPDEST PUSH2 0x4868 DUP6 DUP3 PUSH2 0x47ED JUMP JUMPDEST DUP7 SSTORE POP PUSH2 0x48CF JUMP JUMPDEST PUSH1 0x1F NOT DUP5 AND PUSH2 0x487E DUP7 PUSH2 0x4674 JUMP JUMPDEST PUSH0 JUMPDEST DUP3 DUP2 LT ISZERO PUSH2 0x48A5 JUMPI DUP5 DUP10 ADD MLOAD DUP3 SSTORE PUSH1 0x1 DUP3 ADD SWAP2 POP PUSH1 0x20 DUP6 ADD SWAP5 POP PUSH1 0x20 DUP2 ADD SWAP1 POP PUSH2 0x4880 JUMP JUMPDEST DUP7 DUP4 LT ISZERO PUSH2 0x48C2 JUMPI DUP5 DUP10 ADD MLOAD PUSH2 0x48BE PUSH1 0x1F DUP10 AND DUP3 PUSH2 0x47D1 JUMP JUMPDEST DUP4 SSTORE POP JUMPDEST PUSH1 0x1 PUSH1 0x2 DUP9 MUL ADD DUP9 SSTORE POP POP POP JUMPDEST POP POP POP POP POP POP JUMP JUMPDEST PUSH0 PUSH1 0x40 DUP3 ADD SWAP1 POP PUSH2 0x48EA PUSH0 DUP4 ADD DUP6 PUSH2 0x3CC6 JUMP JUMPDEST PUSH2 0x48F7 PUSH1 0x20 DUP4 ADD DUP5 PUSH2 0x3CC6 JUMP JUMPDEST SWAP4 SWAP3 POP POP POP JUMP JUMPDEST PUSH32 0x4465616C20646F6573206E6F7420657869737400000000000000000000000000 PUSH0 DUP3 ADD MSTORE POP JUMP JUMPDEST PUSH0 PUSH2 0x4932 PUSH1 0x13 DUP4 PUSH2 0x3D5E JUMP JUMPDEST SWAP2 POP PUSH2 0x493D DUP3 PUSH2 0x48FE JUMP JUMPDEST PUSH1 0x20 DUP3 ADD SWAP1 POP SWAP2 SWAP1 POP JUMP JUMPDEST PUSH0 PUSH1 0x20 DUP3 ADD SWAP1 POP DUP2 DUP2 SUB PUSH0 DUP4 ADD MSTORE PUSH2 0x495F DUP2 PUSH2 0x4926 JUMP JUMPDEST SWAP1 POP SWAP2 SWAP1 POP JUMP JUMPDEST PUSH32 0x496E76616C6964206272616E64206164647265737320666F72206465616C0000 PUSH0 DUP3 ADD MSTORE POP JUMP JUMPDEST PUSH0 PUSH2 0x499A PUSH1 0x1E DUP4 PUSH2 0x3D5E JUMP JUMPDEST SWAP2 POP PUSH2 0x49A5 DUP3 PUSH2 0x4966 JUMP JUMPDEST PUSH1 0x20 DUP3 ADD SWAP1 POP SWAP2 SWAP1 POP JUMP JUMPDEST PUSH0 PUSH1 0x20 DUP3 ADD SWAP1 POP DUP2 DUP2 SUB PUSH0 DUP4 ADD MSTORE PUSH2 0x49C7 DUP2 PUSH2 0x498E JUMP JUMPDEST SWAP1 POP SWAP2 SWAP1 POP JUMP JUMPDEST PUSH32 0x496E76616C6964206465616C2073746174757300000000000000000000000000 PUSH0 DUP3 ADD MSTORE POP JUMP JUMPDEST PUSH0 PUSH2 0x4A02 PUSH1 0x13 DUP4 PUSH2 0x3D5E JUMP JUMPDEST SWAP2 POP PUSH2 0x4A0D DUP3 PUSH2 0x49CE JUMP JUMPDEST PUSH1 0x20 DUP3 ADD SWAP1 POP SWAP2 SWAP1 POP JUMP JUMPDEST PUSH0 PUSH1 0x20 DUP3 ADD SWAP1 POP DUP2 DUP2 SUB PUSH0 DUP4 ADD MSTORE PUSH2 0x4A2F DUP2 PUSH2 0x49F6 JUMP JUMPDEST SWAP1 POP SWAP2 SWAP1 POP JUMP JUMPDEST PUSH0 DUP2 SWAP1 POP SWAP2 SWAP1 POP JUMP JUMPDEST PUSH0 PUSH2 0x4A59 PUSH2 0x4A54 PUSH2 0x4A4F DUP5 PUSH2 0x4A36 JUMP JUMPDEST PUSH2 0x4117 JUMP JUMPDEST PUSH2 0x3AA9 JUMP JUMPDEST SWAP1 POP SWAP2 SWAP1 POP JUMP JUMPDEST PUSH2 0x4A69 DUP2 PUSH2 0x4A3F JUMP JUMPDEST DUP3 MSTORE POP POP JUMP JUMPDEST PUSH0 PUSH1 0x20 DUP3 ADD SWAP1 POP PUSH2 0x4A82 PUSH0 DUP4 ADD DUP5 PUSH2 0x4A60 JUMP JUMPDEST SWAP3 SWAP2 POP POP JUMP JUMPDEST PUSH32 0x52657669657720706572696F6420656E64656400000000000000000000000000 PUSH0 DUP3 ADD MSTORE POP JUMP JUMPDEST PUSH0 PUSH2 0x4ABC PUSH1 0x13 DUP4 PUSH2 0x3D5E JUMP JUMPDEST SWAP2 POP PUSH2 0x4AC7 DUP3 PUSH2 0x4A88 JUMP JUMPDEST PUSH1 0x20 DUP3 ADD SWAP1 POP SWAP2 SWAP1 POP JUMP JUMPDEST PUSH0 PUSH1 0x20 DUP3 ADD SWAP1 POP DUP2 DUP2 SUB PUSH0 DUP4 ADD MSTORE PUSH2 0x4AE9 DUP2 PUSH2 0x4AB0 JUMP JUMPDEST SWAP1 POP SWAP2 SWAP1 POP JUMP JUMPDEST PUSH32 0x526561736F6E2072657175697265640000000000000000000000000000000000 PUSH0 DUP3 ADD MSTORE POP JUMP JUMPDEST PUSH0 PUSH2 0x4B24 PUSH1 0xF DUP4 PUSH2 0x3D5E JUMP JUMPDEST SWAP2 POP PUSH2 0x4B2F DUP3 PUSH2 0x4AF0 JUMP JUMPDEST PUSH1 0x20 DUP3 ADD SWAP1 POP SWAP2 SWAP1 POP JUMP JUMPDEST PUSH0 PUSH1 0x20 DUP3 ADD SWAP1 POP DUP2 DUP2 SUB PUSH0 DUP4 ADD MSTORE PUSH2 0x4B51 DUP2 PUSH2 0x4B18 JUMP JUMPDEST SWAP1 POP SWAP2 SWAP1 POP JUMP JUMPDEST PUSH32 0x43616E6E6F742063616E63656C2074686973206465616C000000000000000000 PUSH0 DUP3 ADD MSTORE POP JUMP JUMPDEST PUSH0 PUSH2 0x4B8C PUSH1 0x17 DUP4 PUSH2 0x3D5E JUMP JUMPDEST SWAP2 POP PUSH2 0x4B97 DUP3 PUSH2 0x4B58 JUMP JUMPDEST PUSH1 0x20 DUP3 ADD SWAP1 POP SWAP2 SWAP1 POP JUMP JUMPDEST PUSH0 PUSH1 0x20 DUP3 ADD SWAP1 POP DUP2 DUP2 SUB PUSH0 DUP4 ADD MSTORE PUSH2 0x4BB9 DUP2 PUSH2 0x4B80 JUMP JUMPDEST SWAP1 POP SWAP2 SWAP1 POP JUMP JUMPDEST PUSH32 0x52657669657720706572696F64206E6F7420656E646564000000000000000000 PUSH0 DUP3 ADD MSTORE POP JUMP JUMPDEST PUSH0 PUSH2 0x4BF4 PUSH1 0x17 DUP4 PUSH2 0x3D5E JUMP JUMPDEST SWAP2 POP PUSH2 0x4BFF DUP3 PUSH2 0x4BC0 JUMP JUMPDEST PUSH1 0x20 DUP3 ADD SWAP1 POP SWAP2 SWAP1 POP JUMP JUMPDEST PUSH0 PUSH1 0x20 DUP3 ADD SWAP1 POP DUP2 DUP2 SUB PUSH0 DUP4 ADD MSTORE PUSH2 0x4C21 DUP2 PUSH2 0x4BE8 JUMP JUMPDEST SWAP1 POP SWAP2 SWAP1 POP JUMP JUMPDEST PUSH32 0x496E76616C69642063726561746F72206164647265737320666F72206465616C PUSH0 DUP3 ADD MSTORE POP JUMP JUMPDEST PUSH0 PUSH2 0x4C5C PUSH1 0x20 DUP4 PUSH2 0x3D5E JUMP JUMPDEST SWAP2 POP PUSH2 0x4C67 DUP3 PUSH2 0x4C28 JUMP JUMPDEST PUSH1 0x20 DUP3 ADD SWAP1 POP SWAP2 SWAP1 POP JUMP JUMPDEST PUSH0 PUSH1 0x20 DUP3 ADD SWAP1 POP DUP2 DUP2 SUB PUSH0 DUP4 ADD MSTORE PUSH2 0x4C89 DUP2 PUSH2 0x4C50 JUMP JUMPDEST SWAP1 POP SWAP2 SWAP1 POP JUMP JUMPDEST PUSH32 0x5375626D697373696F6E20646561646C696E6520686173207061737365642E20 PUSH0 DUP3 ADD MSTORE PUSH32 0x4465616C206973206175746F2D63616E63656C6C65642E000000000000000000 PUSH1 0x20 DUP3 ADD MSTORE POP JUMP JUMPDEST PUSH0 PUSH2 0x4CEA PUSH1 0x37 DUP4 PUSH2 0x3D5E JUMP JUMPDEST SWAP2 POP PUSH2 0x4CF5 DUP3 PUSH2 0x4C90 JUMP JUMPDEST PUSH1 0x40 DUP3 ADD SWAP1 POP SWAP2 SWAP1 POP JUMP JUMPDEST PUSH0 PUSH1 0x20 DUP3 ADD SWAP1 POP DUP2 DUP2 SUB PUSH0 DUP4 ADD MSTORE PUSH2 0x4D17 DUP2 PUSH2 0x4CDE JUMP JUMPDEST SWAP1 POP SWAP2 SWAP1 POP JUMP JUMPDEST PUSH32 0x436F6E74656E742055524C207265717569726564000000000000000000000000 PUSH0 DUP3 ADD MSTORE POP JUMP JUMPDEST PUSH0 PUSH2 0x4D52 PUSH1 0x14 DUP4 PUSH2 0x3D5E JUMP JUMPDEST SWAP2 POP PUSH2 0x4D5D DUP3 PUSH2 0x4D1E JUMP JUMPDEST PUSH1 0x20 DUP3 ADD SWAP1 POP SWAP2 SWAP1 POP JUMP JUMPDEST PUSH0 PUSH1 0x20 DUP3 ADD SWAP1 POP DUP2 DUP2 SUB PUSH0 DUP4 ADD MSTORE PUSH2 0x4D7F DUP2 PUSH2 0x4D46 JUMP JUMPDEST SWAP1 POP SWAP2 SWAP1 POP JUMP JUMPDEST PUSH32 0x4E487B7100000000000000000000000000000000000000000000000000000000 PUSH0 MSTORE PUSH1 0x11 PUSH1 0x4 MSTORE PUSH1 0x24 PUSH0 REVERT JUMPDEST PUSH0 PUSH2 0x4DBD DUP3 PUSH2 0x3AA9 JUMP JUMPDEST SWAP2 POP PUSH2 0x4DC8 DUP4 PUSH2 0x3AA9 JUMP JUMPDEST SWAP3 POP DUP3 DUP3 ADD SWAP1 POP DUP1 DUP3 GT ISZERO PUSH2 0x4DE0 JUMPI PUSH2 0x4DDF PUSH2 0x4D86 JUMP JUMPDEST JUMPDEST SWAP3 SWAP2 POP POP JUMP JUMPDEST PUSH0 PUSH1 0x40 DUP3 ADD SWAP1 POP DUP2 DUP2 SUB PUSH0 DUP4 ADD MSTORE PUSH2 0x4DFE DUP2 DUP6 PUSH2 0x3D96 JUMP JUMPDEST SWAP1 POP PUSH2 0x4E0D PUSH1 0x20 DUP4 ADD DUP5 PUSH2 0x3CC6 JUMP JUMPDEST SWAP4 SWAP3 POP POP POP JUMP JUMPDEST PUSH32 0x43616E6E6F742077697468647261772049445258000000000000000000000000 PUSH0 DUP3 ADD MSTORE POP JUMP JUMPDEST PUSH0 PUSH2 0x4E48 PUSH1 0x14 DUP4 PUSH2 0x3D5E JUMP JUMPDEST SWAP2 POP PUSH2 0x4E53 DUP3 PUSH2 0x4E14 JUMP JUMPDEST PUSH1 0x20 DUP3 ADD SWAP1 POP SWAP2 SWAP1 POP JUMP JUMPDEST PUSH0 PUSH1 0x20 DUP3 ADD SWAP1 POP DUP2 DUP2 SUB PUSH0 DUP4 ADD MSTORE PUSH2 0x4E75 DUP2 PUSH2 0x4E3C JUMP JUMPDEST SWAP1 POP SWAP2 SWAP1 POP JUMP JUMPDEST PUSH32 0x46656520746F6F206869676820286D6178203130252900000000000000000000 PUSH0 DUP3 ADD MSTORE POP JUMP JUMPDEST PUSH0 PUSH2 0x4EB0 PUSH1 0x16 DUP4 PUSH2 0x3D5E JUMP JUMPDEST SWAP2 POP PUSH2 0x4EBB DUP3 PUSH2 0x4E7C JUMP JUMPDEST PUSH1 0x20 DUP3 ADD SWAP1 POP SWAP2 SWAP1 POP JUMP JUMPDEST PUSH0 PUSH1 0x20 DUP3 ADD SWAP1 POP DUP2 DUP2 SUB PUSH0 DUP4 ADD MSTORE PUSH2 0x4EDD DUP2 PUSH2 0x4EA4 JUMP JUMPDEST SWAP1 POP SWAP2 SWAP1 POP JUMP JUMPDEST PUSH32 0x446561646C696E6520686173206E6F7420796574207061737365642E00000000 PUSH0 DUP3 ADD MSTORE POP JUMP JUMPDEST PUSH0 PUSH2 0x4F18 PUSH1 0x1C DUP4 PUSH2 0x3D5E JUMP JUMPDEST SWAP2 POP PUSH2 0x4F23 DUP3 PUSH2 0x4EE4 JUMP JUMPDEST PUSH1 0x20 DUP3 ADD SWAP1 POP SWAP2 SWAP1 POP JUMP JUMPDEST PUSH0 PUSH1 0x20 DUP3 ADD SWAP1 POP DUP2 DUP2 SUB PUSH0 DUP4 ADD MSTORE PUSH2 0x4F45 DUP2 PUSH2 0x4F0C JUMP JUMPDEST SWAP1 POP SWAP2 SWAP1 POP JUMP JUMPDEST PUSH0 PUSH2 0x4F56 DUP3 PUSH2 0x3AA9 JUMP JUMPDEST SWAP2 POP PUSH2 0x4F61 DUP4 PUSH2 0x3AA9 JUMP JUMPDEST SWAP3 POP DUP3 DUP3 MUL PUSH2 0x4F6F DUP2 PUSH2 0x3AA9 JUMP JUMPDEST SWAP2 POP DUP3 DUP3 DIV DUP5 EQ DUP4 ISZERO OR PUSH2 0x4F86 JUMPI PUSH2 0x4F85 PUSH2 0x4D86 JUMP JUMPDEST JUMPDEST POP SWAP3 SWAP2 POP POP JUMP JUMPDEST PUSH32 0x4E487B7100000000000000000000000000000000000000000000000000000000 PUSH0 MSTORE PUSH1 0x12 PUSH1 0x4 MSTORE PUSH1 0x24 PUSH0 REVERT JUMPDEST PUSH0 PUSH2 0x4FC4 DUP3 PUSH2 0x3AA9 JUMP JUMPDEST SWAP2 POP PUSH2 0x4FCF DUP4 PUSH2 0x3AA9 JUMP JUMPDEST SWAP3 POP DUP3 PUSH2 0x4FDF JUMPI PUSH2 0x4FDE PUSH2 0x4F8D JUMP JUMPDEST JUMPDEST DUP3 DUP3 DIV SWAP1 POP SWAP3 SWAP2 POP POP JUMP JUMPDEST PUSH0 PUSH2 0x4FF4 DUP3 PUSH2 0x3AA9 JUMP JUMPDEST SWAP2 POP PUSH2 0x4FFF DUP4 PUSH2 0x3AA9 JUMP JUMPDEST SWAP3 POP DUP3 DUP3 SUB SWAP1 POP DUP2 DUP2 GT ISZERO PUSH2 0x5017 JUMPI PUSH2 0x5016 PUSH2 0x4D86 JUMP JUMPDEST JUMPDEST SWAP3 SWAP2 POP POP JUMP JUMPDEST PUSH0 PUSH1 0x60 DUP3 ADD SWAP1 POP PUSH2 0x5030 PUSH0 DUP4 ADD DUP7 PUSH2 0x3DF9 JUMP JUMPDEST PUSH2 0x503D PUSH1 0x20 DUP4 ADD DUP6 PUSH2 0x3CC6 JUMP JUMPDEST PUSH2 0x504A PUSH1 0x40 DUP4 ADD DUP5 PUSH2 0x3CC6 JUMP JUMPDEST SWAP5 SWAP4 POP POP POP POP JUMP JUMPDEST PUSH32 0x496E76616C696420616464726573730000000000000000000000000000000000 PUSH0 DUP3 ADD MSTORE POP JUMP JUMPDEST PUSH0 PUSH2 0x5086 PUSH1 0xF DUP4 PUSH2 0x3D5E JUMP JUMPDEST SWAP2 POP PUSH2 0x5091 DUP3 PUSH2 0x5052 JUMP JUMPDEST PUSH1 0x20 DUP3 ADD SWAP1 POP SWAP2 SWAP1 POP JUMP JUMPDEST PUSH0 PUSH1 0x20 DUP3 ADD SWAP1 POP DUP2 DUP2 SUB PUSH0 DUP4 ADD MSTORE PUSH2 0x50B3 DUP2 PUSH2 0x507A JUMP JUMPDEST SWAP1 POP SWAP2 SWAP1 POP JUMP JUMPDEST PUSH0 PUSH1 0x40 DUP3 ADD SWAP1 POP PUSH2 0x50CD PUSH0 DUP4 ADD DUP6 PUSH2 0x3CEE JUMP JUMPDEST PUSH2 0x50DA PUSH1 0x20 DUP4 ADD DUP5 PUSH2 0x3CEE JUMP JUMPDEST SWAP4 SWAP3 POP POP POP JUMP JUMPDEST PUSH32 0x5061757361626C653A2070617573656400000000000000000000000000000000 PUSH0 DUP3 ADD MSTORE POP JUMP JUMPDEST PUSH0 PUSH2 0x5115 PUSH1 0x10 DUP4 PUSH2 0x3D5E JUMP JUMPDEST SWAP2 POP PUSH2 0x5120 DUP3 PUSH2 0x50E1 JUMP JUMPDEST PUSH1 0x20 DUP3 ADD SWAP1 POP SWAP2 SWAP1 POP JUMP JUMPDEST PUSH0 PUSH1 0x20 DUP3 ADD SWAP1 POP DUP2 DUP2 SUB PUSH0 DUP4 ADD MSTORE PUSH2 0x5142 DUP2 PUSH2 0x5109 JUMP JUMPDEST SWAP1 POP SWAP2 SWAP1 POP JUMP JUMPDEST PUSH32 0x5265656E7472616E637947756172643A207265656E7472616E742063616C6C00 PUSH0 DUP3 ADD MSTORE POP JUMP JUMPDEST PUSH0 PUSH2 0x517D PUSH1 0x1F DUP4 PUSH2 0x3D5E JUMP JUMPDEST SWAP2 POP PUSH2 0x5188 DUP3 PUSH2 0x5149 JUMP JUMPDEST PUSH1 0x20 DUP3 ADD SWAP1 POP SWAP2 SWAP1 POP JUMP JUMPDEST PUSH0 PUSH1 0x20 DUP3 ADD SWAP1 POP DUP2 DUP2 SUB PUSH0 DUP4 ADD MSTORE PUSH2 0x51AA DUP2 PUSH2 0x5171 JUMP JUMPDEST SWAP1 POP SWAP2 SWAP1 POP JUMP JUMPDEST PUSH0 PUSH1 0x60 DUP3 ADD SWAP1 POP PUSH2 0x51C4 PUSH0 DUP4 ADD DUP7 PUSH2 0x3CEE JUMP JUMPDEST PUSH2 0x51D1 PUSH1 0x20 DUP4 ADD DUP6 PUSH2 0x3CEE JUMP JUMPDEST PUSH2 0x51DE PUSH1 0x40 DUP4 ADD DUP5 PUSH2 0x3CC6 JUMP JUMPDEST SWAP5 SWAP4 POP POP POP POP JUMP JUMPDEST PUSH0 PUSH1 0x40 DUP3 ADD SWAP1 POP PUSH2 0x51F9 PUSH0 DUP4 ADD DUP6 PUSH2 0x3CEE JUMP JUMPDEST PUSH2 0x5206 PUSH1 0x20 DUP4 ADD DUP5 PUSH2 0x3CC6 JUMP JUMPDEST SWAP4 SWAP3 POP POP POP JUMP JUMPDEST PUSH32 0x5061757361626C653A206E6F7420706175736564000000000000000000000000 PUSH0 DUP3 ADD MSTORE POP JUMP JUMPDEST PUSH0 PUSH2 0x5241 PUSH1 0x14 DUP4 PUSH2 0x3D5E JUMP JUMPDEST SWAP2 POP PUSH2 0x524C DUP3 PUSH2 0x520D JUMP JUMPDEST PUSH1 0x20 DUP3 ADD SWAP1 POP SWAP2 SWAP1 POP JUMP JUMPDEST PUSH0 PUSH1 0x20 DUP3 ADD SWAP1 POP DUP2 DUP2 SUB PUSH0 DUP4 ADD MSTORE PUSH2 0x526E DUP2 PUSH2 0x5235 JUMP JUMPDEST SWAP1 POP SWAP2 SWAP1 POP JUMP INVALID LOG2 PUSH5 0x6970667358 0x22 SLT KECCAK256 NUMBER 0xC3 0xFC DUP4 0xBA PUSH9 0x6B181F57402519B649 0xE SLOAD 0x5E 0xA6 SAR PUSH4 0xA2F31EC0 LOG1 SWAP8 POP 0x1E 0xF9 0x49 0x49 PUSH5 0x736F6C6343 STOP ADDMOD EQ STOP CALLER "
		},
		"gasEstimates": {
			"creation": {
				"codeDepositCost": "4232600",
				"executionCost": "infinite",
				"totalCost": "infinite"
			},
			"external": {
				"BPS_DENOMINATOR()": "414",
				"REVIEW_PERIOD()": "415",
				"approveDeal(string,address)": "infinite",
				"autoRefundAfterDeadline(string)": "infinite",
				"autoReleasePayment(string)": "infinite",
				"brandDeals(address,uint256)": "infinite",
				"canAutoRelease(string)": "infinite",
				"cancelDeal(string,address)": "infinite",
				"createDeal(string,address,address,uint256,uint256,string)": "infinite",
				"creatorDeals(address,uint256)": "infinite",
				"deals(string)": "infinite",
				"emergencyCancelDeal(string)": "infinite",
				"emergencyWithdraw(address,uint256)": "infinite",
				"feeRecipient()": "2620",
				"fundDeal(string,address)": "infinite",
				"getDeal(string)": "infinite",
				"getDeals(address,bool)": "infinite",
				"idrxToken()": "infinite",
				"initiateDispute(string,address,string)": "infinite",
				"owner()": "2605",
				"pause()": "infinite",
				"paused()": "2613",
				"platformFeeBps()": "2515",
				"renounceOwnership()": "infinite",
				"resolveDispute(string,address,bool)": "infinite",
				"submitContent(string,address,string)": "infinite",
				"transferOwnership(address)": "infinite",
				"unpause()": "infinite",
				"updateFeeRecipient(address)": "infinite",
				"updatePlatformFee(uint256)": "infinite"
			},
			"internal": {
				"_releasePayment(string memory)": "infinite"
			}
		},
		"methodIdentifiers": {
			"BPS_DENOMINATOR()": "e1a45218",
			"REVIEW_PERIOD()": "42bcf75c",
			"approveDeal(string,address)": "24d956c8",
			"autoRefundAfterDeadline(string)": "e39fff38",
			"autoReleasePayment(string)": "38a13287",
			"brandDeals(address,uint256)": "d46597e3",
			"canAutoRelease(string)": "76492d3f",
			"cancelDeal(string,address)": "03f715da",
			"createDeal(string,address,address,uint256,uint256,string)": "03f502ae",
			"creatorDeals(address,uint256)": "53a140ac",
			"deals(string)": "a0a57dac",
			"emergencyCancelDeal(string)": "1a1aaeed",
			"emergencyWithdraw(address,uint256)": "95ccea67",
			"feeRecipient()": "46904840",
			"fundDeal(string,address)": "0a40f15f",
			"getDeal(string)": "e7079180",
			"getDeals(address,bool)": "9fad59b4",
			"idrxToken()": "d6bc7c63",
			"initiateDispute(string,address,string)": "0e59a395",
			"owner()": "8da5cb5b",
			"pause()": "8456cb59",
			"paused()": "5c975abb",
			"platformFeeBps()": "22dcd13e",
			"renounceOwnership()": "715018a6",
			"resolveDispute(string,address,bool)": "ef03c10e",
			"submitContent(string,address,string)": "4971716f",
			"transferOwnership(address)": "f2fde38b",
			"unpause()": "3f4ba83a",
			"updateFeeRecipient(address)": "f160d369",
			"updatePlatformFee(uint256)": "aa0b5988"
		}
	},
	"abi": [
		{
			"inputs": [
				{
					"internalType": "address",
					"name": "_idrxToken",
					"type": "address"
				},
				{
					"internalType": "address",
					"name": "_feeRecipient",
					"type": "address"
				},
				{
					"internalType": "address",
					"name": "_initialOwner",
					"type": "address"
				}
			],
			"stateMutability": "nonpayable",
			"type": "constructor"
		},
		{
			"inputs": [
				{
					"internalType": "address",
					"name": "owner",
					"type": "address"
				}
			],
			"name": "OwnableInvalidOwner",
			"type": "error"
		},
		{
			"inputs": [
				{
					"internalType": "address",
					"name": "account",
					"type": "address"
				}
			],
			"name": "OwnableUnauthorizedAccount",
			"type": "error"
		},
		{
			"inputs": [
				{
					"internalType": "address",
					"name": "token",
					"type": "address"
				}
			],
			"name": "SafeERC20FailedOperation",
			"type": "error"
		},
		{
			"anonymous": false,
			"inputs": [
				{
					"indexed": true,
					"internalType": "string",
					"name": "dealId",
					"type": "string"
				},
				{
					"indexed": true,
					"internalType": "address",
					"name": "creator",
					"type": "address"
				},
				{
					"indexed": false,
					"internalType": "string",
					"name": "contentUrl",
					"type": "string"
				},
				{
					"indexed": false,
					"internalType": "uint256",
					"name": "reviewDeadline",
					"type": "uint256"
				}
			],
			"name": "ContentSubmitted",
			"type": "event"
		},
		{
			"anonymous": false,
			"inputs": [
				{
					"indexed": true,
					"internalType": "string",
					"name": "dealId",
					"type": "string"
				},
				{
					"indexed": true,
					"internalType": "address",
					"name": "brand",
					"type": "address"
				}
			],
			"name": "DealApproved",
			"type": "event"
		},
		{
			"anonymous": false,
			"inputs": [
				{
					"indexed": true,
					"internalType": "string",
					"name": "dealId",
					"type": "string"
				},
				{
					"indexed": true,
					"internalType": "address",
					"name": "initiator",
					"type": "address"
				},
				{
					"indexed": false,
					"internalType": "uint256",
					"name": "refundAmount",
					"type": "uint256"
				}
			],
			"name": "DealCancelled",
			"type": "event"
		},
		{
			"anonymous": false,
			"inputs": [
				{
					"indexed": true,
					"internalType": "string",
					"name": "dealId",
					"type": "string"
				},
				{
					"indexed": true,
					"internalType": "address",
					"name": "brand",
					"type": "address"
				},
				{
					"indexed": true,
					"internalType": "address",
					"name": "creator",
					"type": "address"
				},
				{
					"indexed": false,
					"internalType": "uint256",
					"name": "amount",
					"type": "uint256"
				},
				{
					"indexed": false,
					"internalType": "uint256",
					"name": "deadline",
					"type": "uint256"
				}
			],
			"name": "DealCreated",
			"type": "event"
		},
		{
			"anonymous": false,
			"inputs": [
				{
					"indexed": true,
					"internalType": "string",
					"name": "dealId",
					"type": "string"
				},
				{
					"indexed": true,
					"internalType": "address",
					"name": "brand",
					"type": "address"
				},
				{
					"indexed": false,
					"internalType": "uint256",
					"name": "amount",
					"type": "uint256"
				}
			],
			"name": "DealFunded",
			"type": "event"
		},
		{
			"anonymous": false,
			"inputs": [
				{
					"indexed": true,
					"internalType": "string",
					"name": "dealId",
					"type": "string"
				},
				{
					"indexed": true,
					"internalType": "address",
					"name": "brand",
					"type": "address"
				},
				{
					"indexed": false,
					"internalType": "string",
					"name": "reason",
					"type": "string"
				}
			],
			"name": "DisputeInitiated",
			"type": "event"
		},
		{
			"anonymous": false,
			"inputs": [
				{
					"indexed": true,
					"internalType": "string",
					"name": "dealId",
					"type": "string"
				},
				{
					"indexed": true,
					"internalType": "address",
					"name": "creator",
					"type": "address"
				},
				{
					"indexed": false,
					"internalType": "bool",
					"name": "accepted8020",
					"type": "bool"
				},
				{
					"indexed": false,
					"internalType": "uint256",
					"name": "creatorAmount",
					"type": "uint256"
				},
				{
					"indexed": false,
					"internalType": "uint256",
					"name": "brandRefund",
					"type": "uint256"
				}
			],
			"name": "DisputeResolved",
			"type": "event"
		},
		{
			"anonymous": false,
			"inputs": [
				{
					"indexed": false,
					"internalType": "address",
					"name": "oldRecipient",
					"type": "address"
				},
				{
					"indexed": false,
					"internalType": "address",
					"name": "newRecipient",
					"type": "address"
				}
			],
			"name": "FeeRecipientUpdated",
			"type": "event"
		},
		{
			"anonymous": false,
			"inputs": [
				{
					"indexed": true,
					"internalType": "address",
					"name": "previousOwner",
					"type": "address"
				},
				{
					"indexed": true,
					"internalType": "address",
					"name": "newOwner",
					"type": "address"
				}
			],
			"name": "OwnershipTransferred",
			"type": "event"
		},
		{
			"anonymous": false,
			"inputs": [
				{
					"indexed": false,
					"internalType": "address",
					"name": "account",
					"type": "address"
				}
			],
			"name": "Paused",
			"type": "event"
		},
		{
			"anonymous": false,
			"inputs": [
				{
					"indexed": true,
					"internalType": "string",
					"name": "dealId",
					"type": "string"
				},
				{
					"indexed": true,
					"internalType": "address",
					"name": "creator",
					"type": "address"
				},
				{
					"indexed": false,
					"internalType": "uint256",
					"name": "amount",
					"type": "uint256"
				},
				{
					"indexed": false,
					"internalType": "uint256",
					"name": "platformFee",
					"type": "uint256"
				}
			],
			"name": "PaymentReleased",
			"type": "event"
		},
		{
			"anonymous": false,
			"inputs": [
				{
					"indexed": false,
					"internalType": "uint256",
					"name": "oldFee",
					"type": "uint256"
				},
				{
					"indexed": false,
					"internalType": "uint256",
					"name": "newFee",
					"type": "uint256"
				}
			],
			"name": "PlatformFeeUpdated",
			"type": "event"
		},
		{
			"anonymous": false,
			"inputs": [
				{
					"indexed": false,
					"internalType": "address",
					"name": "account",
					"type": "address"
				}
			],
			"name": "Unpaused",
			"type": "event"
		},
		{
			"inputs": [],
			"name": "BPS_DENOMINATOR",
			"outputs": [
				{
					"internalType": "uint256",
					"name": "",
					"type": "uint256"
				}
			],
			"stateMutability": "view",
			"type": "function"
		},
		{
			"inputs": [],
			"name": "REVIEW_PERIOD",
			"outputs": [
				{
					"internalType": "uint256",
					"name": "",
					"type": "uint256"
				}
			],
			"stateMutability": "view",
			"type": "function"
		},
		{
			"inputs": [
				{
					"internalType": "string",
					"name": "_dealId",
					"type": "string"
				},
				{
					"internalType": "address",
					"name": "_brandAddress",
					"type": "address"
				}
			],
			"name": "approveDeal",
			"outputs": [],
			"stateMutability": "nonpayable",
			"type": "function"
		},
		{
			"inputs": [
				{
					"internalType": "string",
					"name": "_dealId",
					"type": "string"
				}
			],
			"name": "autoRefundAfterDeadline",
			"outputs": [],
			"stateMutability": "nonpayable",
			"type": "function"
		},
		{
			"inputs": [
				{
					"internalType": "string",
					"name": "_dealId",
					"type": "string"
				}
			],
			"name": "autoReleasePayment",
			"outputs": [],
			"stateMutability": "nonpayable",
			"type": "function"
		},
		{
			"inputs": [
				{
					"internalType": "address",
					"name": "",
					"type": "address"
				},
				{
					"internalType": "uint256",
					"name": "",
					"type": "uint256"
				}
			],
			"name": "brandDeals",
			"outputs": [
				{
					"internalType": "string",
					"name": "",
					"type": "string"
				}
			],
			"stateMutability": "view",
			"type": "function"
		},
		{
			"inputs": [
				{
					"internalType": "string",
					"name": "_dealId",
					"type": "string"
				}
			],
			"name": "canAutoRelease",
			"outputs": [
				{
					"internalType": "bool",
					"name": "",
					"type": "bool"
				}
			],
			"stateMutability": "view",
			"type": "function"
		},
		{
			"inputs": [
				{
					"internalType": "string",
					"name": "_dealId",
					"type": "string"
				},
				{
					"internalType": "address",
					"name": "_brandAddress",
					"type": "address"
				}
			],
			"name": "cancelDeal",
			"outputs": [],
			"stateMutability": "nonpayable",
			"type": "function"
		},
		{
			"inputs": [
				{
					"internalType": "string",
					"name": "_dealId",
					"type": "string"
				},
				{
					"internalType": "address",
					"name": "_brandAddress",
					"type": "address"
				},
				{
					"internalType": "address",
					"name": "_creatorAddress",
					"type": "address"
				},
				{
					"internalType": "uint256",
					"name": "_amount",
					"type": "uint256"
				},
				{
					"internalType": "uint256",
					"name": "_deadline",
					"type": "uint256"
				},
				{
					"internalType": "string",
					"name": "_briefHash",
					"type": "string"
				}
			],
			"name": "createDeal",
			"outputs": [],
			"stateMutability": "nonpayable",
			"type": "function"
		},
		{
			"inputs": [
				{
					"internalType": "address",
					"name": "",
					"type": "address"
				},
				{
					"internalType": "uint256",
					"name": "",
					"type": "uint256"
				}
			],
			"name": "creatorDeals",
			"outputs": [
				{
					"internalType": "string",
					"name": "",
					"type": "string"
				}
			],
			"stateMutability": "view",
			"type": "function"
		},
		{
			"inputs": [
				{
					"internalType": "string",
					"name": "",
					"type": "string"
				}
			],
			"name": "deals",
			"outputs": [
				{
					"internalType": "string",
					"name": "dealId",
					"type": "string"
				},
				{
					"internalType": "address",
					"name": "brand",
					"type": "address"
				},
				{
					"internalType": "address",
					"name": "creator",
					"type": "address"
				},
				{
					"internalType": "uint256",
					"name": "amount",
					"type": "uint256"
				},
				{
					"internalType": "uint256",
					"name": "deadline",
					"type": "uint256"
				},
				{
					"internalType": "string",
					"name": "briefHash",
					"type": "string"
				},
				{
					"internalType": "enum EtharisEscrow.ContractStatus",
					"name": "status",
					"type": "uint8"
				},
				{
					"internalType": "uint256",
					"name": "fundedAt",
					"type": "uint256"
				},
				{
					"internalType": "uint256",
					"name": "submittedAt",
					"type": "uint256"
				},
				{
					"internalType": "uint256",
					"name": "reviewDeadline",
					"type": "uint256"
				},
				{
					"internalType": "string",
					"name": "contentUrl",
					"type": "string"
				},
				{
					"internalType": "bool",
					"name": "exists",
					"type": "bool"
				}
			],
			"stateMutability": "view",
			"type": "function"
		},
		{
			"inputs": [
				{
					"internalType": "string",
					"name": "_dealId",
					"type": "string"
				}
			],
			"name": "emergencyCancelDeal",
			"outputs": [],
			"stateMutability": "nonpayable",
			"type": "function"
		},
		{
			"inputs": [
				{
					"internalType": "address",
					"name": "_token",
					"type": "address"
				},
				{
					"internalType": "uint256",
					"name": "_amount",
					"type": "uint256"
				}
			],
			"name": "emergencyWithdraw",
			"outputs": [],
			"stateMutability": "nonpayable",
			"type": "function"
		},
		{
			"inputs": [],
			"name": "feeRecipient",
			"outputs": [
				{
					"internalType": "address",
					"name": "",
					"type": "address"
				}
			],
			"stateMutability": "view",
			"type": "function"
		},
		{
			"inputs": [
				{
					"internalType": "string",
					"name": "_dealId",
					"type": "string"
				},
				{
					"internalType": "address",
					"name": "_brandAddress",
					"type": "address"
				}
			],
			"name": "fundDeal",
			"outputs": [],
			"stateMutability": "nonpayable",
			"type": "function"
		},
		{
			"inputs": [
				{
					"internalType": "string",
					"name": "_dealId",
					"type": "string"
				}
			],
			"name": "getDeal",
			"outputs": [
				{
					"internalType": "string",
					"name": "dealId",
					"type": "string"
				},
				{
					"internalType": "address",
					"name": "brand",
					"type": "address"
				},
				{
					"internalType": "address",
					"name": "creator",
					"type": "address"
				},
				{
					"internalType": "uint256",
					"name": "amount",
					"type": "uint256"
				},
				{
					"internalType": "uint256",
					"name": "deadline",
					"type": "uint256"
				},
				{
					"internalType": "enum EtharisEscrow.ContractStatus",
					"name": "status",
					"type": "uint8"
				},
				{
					"internalType": "string",
					"name": "briefHash",
					"type": "string"
				},
				{
					"internalType": "string",
					"name": "contentUrl",
					"type": "string"
				},
				{
					"internalType": "uint256",
					"name": "reviewDeadline",
					"type": "uint256"
				},
				{
					"internalType": "uint256",
					"name": "fundedAt",
					"type": "uint256"
				},
				{
					"internalType": "uint256",
					"name": "submittedAt",
					"type": "uint256"
				},
				{
					"internalType": "bool",
					"name": "exists",
					"type": "bool"
				}
			],
			"stateMutability": "view",
			"type": "function"
		},
		{
			"inputs": [
				{
					"internalType": "address",
					"name": "_userAddress",
					"type": "address"
				},
				{
					"internalType": "bool",
					"name": "_isBrand",
					"type": "bool"
				}
			],
			"name": "getDeals",
			"outputs": [
				{
					"internalType": "string[]",
					"name": "",
					"type": "string[]"
				}
			],
			"stateMutability": "view",
			"type": "function"
		},
		{
			"inputs": [],
			"name": "idrxToken",
			"outputs": [
				{
					"internalType": "contract IERC20",
					"name": "",
					"type": "address"
				}
			],
			"stateMutability": "view",
			"type": "function"
		},
		{
			"inputs": [
				{
					"internalType": "string",
					"name": "_dealId",
					"type": "string"
				},
				{
					"internalType": "address",
					"name": "_brandAddress",
					"type": "address"
				},
				{
					"internalType": "string",
					"name": "_reason",
					"type": "string"
				}
			],
			"name": "initiateDispute",
			"outputs": [],
			"stateMutability": "nonpayable",
			"type": "function"
		},
		{
			"inputs": [],
			"name": "owner",
			"outputs": [
				{
					"internalType": "address",
					"name": "",
					"type": "address"
				}
			],
			"stateMutability": "view",
			"type": "function"
		},
		{
			"inputs": [],
			"name": "pause",
			"outputs": [],
			"stateMutability": "nonpayable",
			"type": "function"
		},
		{
			"inputs": [],
			"name": "paused",
			"outputs": [
				{
					"internalType": "bool",
					"name": "",
					"type": "bool"
				}
			],
			"stateMutability": "view",
			"type": "function"
		},
		{
			"inputs": [],
			"name": "platformFeeBps",
			"outputs": [
				{
					"internalType": "uint256",
					"name": "",
					"type": "uint256"
				}
			],
			"stateMutability": "view",
			"type": "function"
		},
		{
			"inputs": [],
			"name": "renounceOwnership",
			"outputs": [],
			"stateMutability": "nonpayable",
			"type": "function"
		},
		{
			"inputs": [
				{
					"internalType": "string",
					"name": "_dealId",
					"type": "string"
				},
				{
					"internalType": "address",
					"name": "_creatorAddress",
					"type": "address"
				},
				{
					"internalType": "bool",
					"name": "_accept8020",
					"type": "bool"
				}
			],
			"name": "resolveDispute",
			"outputs": [],
			"stateMutability": "nonpayable",
			"type": "function"
		},
		{
			"inputs": [
				{
					"internalType": "string",
					"name": "_dealId",
					"type": "string"
				},
				{
					"internalType": "address",
					"name": "_creatorAddress",
					"type": "address"
				},
				{
					"internalType": "string",
					"name": "_contentUrl",
					"type": "string"
				}
			],
			"name": "submitContent",
			"outputs": [],
			"stateMutability": "nonpayable",
			"type": "function"
		},
		{
			"inputs": [
				{
					"internalType": "address",
					"name": "newOwner",
					"type": "address"
				}
			],
			"name": "transferOwnership",
			"outputs": [],
			"stateMutability": "nonpayable",
			"type": "function"
		},
		{
			"inputs": [],
			"name": "unpause",
			"outputs": [],
			"stateMutability": "nonpayable",
			"type": "function"
		},
		{
			"inputs": [
				{
					"internalType": "address",
					"name": "_newRecipient",
					"type": "address"
				}
			],
			"name": "updateFeeRecipient",
			"outputs": [],
			"stateMutability": "nonpayable",
			"type": "function"
		},
		{
			"inputs": [
				{
					"internalType": "uint256",
					"name": "_newFeeBps",
					"type": "uint256"
				}
			],
			"name": "updatePlatformFee",
			"outputs": [],
			"stateMutability": "nonpayable",
			"type": "function"
		}
	]
}