{
	"data": {
		"bytecode": {
			"linkReferences": {},
			"object": "60a0601f62002fdb38819003918201601f1916830191906001600160401b038311848410176200017557816060928592604095865283398101031262000171576200004a8262000189565b9162000066826200005e6020840162000189565b920162000189565b60015f819055805460ff191690556001600160a01b0393841693909190841562000160578082161562000160578216156200014f57620000bd929360805260018060601b03199060601b1660fa176003556200019e565b505f8051602062002fbb833981519152805f5260026020526001825f20019181835493555191817fbd79b86ffe0ab8e8776151514217cd7cacd52c909f66475c3af44e129f0b00ff5f80a4612d7b908162000240823960805181818161039501528181610b6601528181610bd101528181611194015281816116b501528181611c4201528181611ef801526120e10152f35b825163e6c4247b60e01b8152600490fd5b835163e6c4247b60e01b8152600490fd5b5f80fd5b634e487b7160e01b5f52604160045260245ffd5b51906001600160a01b03821682036200017157565b6001600160a01b03165f8181527fef73bf2ac44f84561b5498839ab1c8c5a4dd99305d838aea0d76c5961778535c60205260408120549091905f8051602062002fbb8339815191529060ff166200023a5780835260026020526040832082845260205260408320600160ff198254161790557f2f8788117e7eff1d82e926ec794901d17c78024a50270940304540a733656f0d339380a4600190565b50509056fe6080806040526004361015610012575f80fd5b5f90813560e01c90816301ffc9a7146123ff5750806303f715da146122e25780630e59a3951461216657806318cf28341461212b5780631a1aaeed14611fb657806322dcd13e14611f8f578063248a9ca314611f6257806324d956c814611d8d5780632f2ff15d14611d4f578063317b8c5b14611d1957806336568abe14611cd157806338a1328714611b095780633f4ba83a14611a745780634690484014611a535780634971716f1461185e5780635c975abb1461183b57806376492d3f146117a15780638456cb591461174757806391d14854146116fe57806395ccea67146116825780639b1221ab146115215780639f1cf42d146110435780639fad59b414610fa0578063a0a57dac14610cd6578063a217fddf14610cba578063aed1505d14610c42578063d547741f14610c00578063d6bc7c6314610bbb578063e39fff3814610a0b578063e4abd4cb14610721578063e7079180146105d2578063ef03c10e14610243578063f0c3cd20146101c35763f160d36914610194575f80fd5b346101c05760203660031901126101c0576101bd6101b06124fc565b6101b8612675565b612c97565b80f35b80fd5b50346101c05760208060031936011261023f576001600160a01b036101e66124fc565b16825260058152604082208054906101fd82612bd7565b9280840191855280852094915b838310610223576040518061021f87826125f3565b0390f35b600182819261023189612b38565b81520196019201919461020a565b5080fd5b50346101c05760603660031901126101c0576004356001600160401b03811161023f57610274903690600401612491565b61027c6124e6565b6044359182151583036105ce576102916129f9565b610299612675565b6102a16129b5565b6040519060ff6006825193602081818601966102be81838a6125ad565b81016004815203019020015460c81c16156105bc576040519181516102e48185846125ad565b8301600481526001846020828060a01b0396879403019020015416838516036105aa5760ff6006604051602081865161031e8183896125ad565b81016004815203019020015460c01c16600681101561059657600303610584576020610355916040518093819286519283916125ad565b810160048152030190206001600160601b03600582015416918360018301541695848354169260066003549101600160c21b60ff60c01b198254161790557f00000000000000000000000000000000000000000000000000000000000000009589835f1461052557506113888602916001600160601b03831692830361051157899161271080940497886103e891612ad0565b936103fc6001600160601b0384168a612ab2565b6001600160601b031604978861041191612ad0565b996001600160601b038b16928315159a6104b7997fea4ea4b4229888eeba3eb2772df89c52af23c7fe3d530b0c1f2ca146f32c12ba966060965f80516020612d268339815191529e610500575b50506001600160601b038816806104ef575b50506001600160601b038b1690816104db575b5050505b6001600160601b0361049888612995565b956040519715158852818d1660208901521660408701521693a3612995565b604080516001600160601b0395861681529290941660208301529290a36001815580f35b6104e792861c90612ae9565b5f8080610483565b6104f99183612ae9565b5f80610470565b61050a9184612ae9565b8e5f61045e565b634e487b7160e01b5f52601160045260245ffd5b915060607fea4ea4b4229888eeba3eb2772df89c52af23c7fe3d530b0c1f2ca146f32c12ba916104b79697995f80516020612d2683398151915299859b80969a81610573575b505050610487565b61057c92612ae9565b5f808061056b565b604051635e40b94f60e01b8152600490fd5b634e487b7160e01b87526021600452602487fd5b60405163ea8e4eb560e01b8152600490fd5b60405163223da47360e21b8152600490fd5b5f80fd5b50346101c05760203660031901126101c0576004356001600160401b03918282116101c05750602061060b61061e923690600401612491565b81604051938285809451938492016125ad565b81016004815203019020600681015460ff8160c81c16156105bc576106989260018060a01b0391816106eb84865416946001870154166106dd60058801549661066960028a01612b38565b98610682600461067b60038401612b38565b9201612b38565b936040519b8c9b8c6101a08091528d01906125ce565b9260208c015260408b01526001600160601b03891660608b0152858960601c1660808b01526106d060a08b0160ff8960c01c16612654565b89820360c08b01526125ce565b9087820360e08901526125ce565b93818360401c1661010087015260a01c1661012085015281811661014085015260801c1661016083015260016101808301520390f35b50346101c05760c03660031901126101c0576001600160401b03600435818111610a0757610753903690600401612491565b61075b6124e6565b6044356001600160a01b0381169391908490036105ce57606435926001600160601b03841684036105ce57826084351660843503610a035760a4358381116109ff576107ab903690600401612491565b916107b4612675565b6107bc6129b5565b60ff600660405160208186516107d58183858b016125ad565b81016004815203019020015460c81c166109ed5785156109db576001600160a01b03169384156109db578585146109c9576001600160601b038116156109b75742846084351611156109a557825115610993576109586040927fceb1a488be98b2739817f21e7d3b0a343434519cd0fe4db3ef5fc27a96e8d295946108d0855160208185516108678183858a016125ad565b810160048152030190209161087f8460028501612851565b82546001600160a01b03199081168b17845560018401805482168d1790556005840180549091166001600160601b0388161760843560601b67ffffffffffffffff60601b1617905560038301612851565b60068101805468ffffffffffffffffff60801b19164260801b67ffffffffffffffff60801b1617815560049190910180545f919061090d90612803565b601f8111610974575b5055805460ff60c81b1916600160c81b179055868952600560205283892061093f90829061294d565b878952600660205261095381858b2061294d565b612995565b936001600160601b03835192168252608435166020820152a480f35b8183526020832061098d91601f0160051c81019061283b565b5f610916565b6040516307e4dd0160e31b8152600490fd5b604051630642ce7760e01b8152600490fd5b604051635e85ae7360e01b8152600490fd5b6040516324da034560e21b8152600490fd5b60405163e6c4247b60e01b8152600490fd5b6040516338a6a80760e11b8152600490fd5b8680fd5b8580fd5b8280fd5b50346101c05760208060031936011261023f576001600160401b0390600435828111610bb757610a3f903690600401612491565b610a476129f9565b610a4f612675565b610a576129b5565b60405160ff6006835192858181870195610a728183896125ad565b81016004815203019020015460c81c16156105bc5760ff600660405185818651610a9d8183896125ad565b81016004815203019020015460c01c166006811015610ba3576001036105845782610ad3916040518093819286519283916125ad565b81016004815203019020926005840154908160601c16421115610b915760068401805460ff60c01b1916600560c01b1790556001600160601b0316927fb559d285c87e4fa0f561388264310703ff0c6c454a39ae52d0ae94032ff0db7091610b43918580610b54575b5050612995565b916040519384523393a36001815580f35b9054610b8a91906001600160a01b03167f0000000000000000000000000000000000000000000000000000000000000000612ae9565b5f85610b3c565b6040516302eb354360e41b8152600490fd5b634e487b7160e01b86526021600452602486fd5b8380fd5b50346101c057806003193601126101c0576040517f00000000000000000000000000000000000000000000000000000000000000006001600160a01b03168152602090f35b50346101c05760403660031901126101c057610c3e600435610c206124e6565b908084526002602052610c3960016040862001546126ee565b61278e565b5080f35b50346101c05760208060031936011261023f576001600160a01b03610c656124fc565b1682526006815260408220805490610c7c82612bd7565b9280840191855280852094915b838310610c9e576040518061021f87826125f3565b6001828192610cac89612b38565b815201960192019194610c89565b50346101c057806003193601126101c057602090604051908152f35b50346101c05760203660031901126101c0576004356001600160401b03811161023f576020610d0c610d7b923690600401612491565b83610180604051610d1c81612454565b828152828582015260606040820152606080820152606060808201528260a08201528260c08201528260e082015282610100820152826101208201528261014082015282610160820152015281604051938285809451938492016125ad565b8101600481520301902090600660405192610d9584612454565b80546001600160a01b0390811685526001820154166020850152610dbb60028201612b38565b6040850152610dcc60038201612b38565b6060850152610ddd60048201612b38565b60808501526001600160401b0360058201546001600160601b03811660a0870152818160601c1660c087015260a01c1660e08501520154906001600160401b0382166101008401526001600160401b038260401c166101208401526001600160401b038260801c16610140840152600660ff8360c01c161015610f8c57508060ff809260c01c1661016084015260c81c16151561018082015260405180916020825260018060a01b03815116602083015260018060a01b036020820151166040830152610180610ef2610ec160408401516101a060608701526101c08601906125ce565b610edd606085015191601f1992838883030160808901526125ce565b906080850151908683030160a08701526125ce565b916001600160601b0360a08201511660c08501526001600160401b0360c08201511660e08501526001600160401b0360e0820151166101008501526001600160401b03610100820151166101208501526001600160401b03610120820151166101408501526001600160401b0361014082015116610160850152610f7e61016082015183860190612654565b015115156101a08301520390f35b634e487b7160e01b81526021600452602490fd5b50346101c05760403660031901126101c057610fba6124fc565b60243580151581036105ce571561102a576001600160a01b031681526005602052604081205b8054610feb81612bd7565b918352602080842093908084015b83831061100e576040518061021f87826125f3565b600182819261101c89612b38565b815201960192019194610ff9565b6001600160a01b03168152600660205260408120610fe0565b50346101c05760e03660031901126101c0576001600160401b03600435818111610a0757611075903690600401612491565b9061107e6124e6565b90604435916001600160601b03831680930361151d5760843560ff8116809103610a03576110aa6129f9565b6110b2612675565b6110ba6129b5565b60405194859260ff6006858451602097816110da8a93848a019e8f6125ad565b81016004815203019020015460c81c16156105bc5760405192825161110081868b6125ad565b840160048152848660018060a01b03968793030190205416978483168099036105aa5760ff6006604051888188516111398183896125ad565b81016004815203019020015460c01c16600681101561150957610584578351156114f75787156114e55761117b866005926040518093819289519283916125ad565b81016004815203019020019186835460a01c166114d3577f0000000000000000000000000000000000000000000000000000000000000000948516906040516370a0823160e01b81528a60048201528781602481865afa80156114c8578a918d91611493575b50106114815786918315801590611476575b801561146b575b611349575b604051636eb1769f60e11b81526001600160a01b03909216600483015230602483015290925082908180604481015b03915afa801561133e5787918a9161130d575b50106112fb576040516323b872dd60e01b8582015260248101889052306044820152606480820188905281529460a08601908111868210176112e7577f2c138f65913cd3b9ca6f36e4b59e26830a033a978ca69f935781972e6df1f61d956112d8946112af92604052612a4d565b805467ffffffffffffffff60a01b19164260a01b67ffffffffffffffff60a01b16179055612995565b92604051908152a36001815580f35b634e487b7160e01b5f52604160045260245ffd5b6040516313be252b60e01b8152600490fd5b809250868092503d8311611337575b6113268183612470565b810103126105ce578690515f611241565b503d61131c565b6040513d8b823e3d90fd5b8092509290923b15611467576040519063d505accf60e01b82528a60048301523060248301528960448301526064356064830152608482015260a43560a482015260c43560c48201528a8160e48183865af1908161143f575b506113b95760405163b78cb0dd60e01b8152600490fd5b604051636eb1769f60e11b81526001600160a01b03831660048201523060248201528681604481855afa80156114345789918c91611403575b50106112fb5761122e9186916111ff565b809250888092503d831161142d575b61141c8183612470565b810103126105ce578890515f6113f2565b503d611412565b6040513d8d823e3d90fd5b88819c929c1161145357604052995f6113a2565b634e487b7160e01b82526041600452602482fd5b8a80fd5b5060c43515156111fa565b5060a43515156111f3565b604051631e9acf1760e31b8152600490fd5b809250898092503d83116114c1575b6114ac8183612470565b810103126114bd578990515f6111e1565b8b80fd5b503d6114a2565b6040513d8e823e3d90fd5b604051631924fceb60e31b8152600490fd5b60405163162908e360e11b8152600490fd5b604051635f0be7af60e01b8152600490fd5b634e487b7160e01b8b52602160045260248bfd5b8480fd5b50346101c05761153036612512565b90611539612675565b6115416129b5565b60405160ff60068351926020818187019561155d8183896125ad565b81016004815203019020015460c81c16156105bc5760405182516115828183856125ad565b60049082019081528190036020019020600101546001600160a01b0393841693168390036105aa5760ff600660405160208186516115c18183896125ad565b81016004815203019020015460c01c16600681101561166e576105845760206115f5916040518093819286519283916125ad565b81016004815203019020906001600160401b03600583015460a01c161561165c57600691909101805460ff60c01b1916600160c01b17905561163690612995565b7ecaec7345d2eb04a42197ac2a2cd7cd74a00b2991b69bb53e23465d4092fdfb8380a380f35b6040516347510bbd60e11b8152600490fd5b634e487b7160e01b85526021600452602485fd5b50346101c05760403660031901126101c05761169c6124fc565b6024356116a7612675565b6001600160a01b03918216917f00000000000000000000000000000000000000000000000000000000000000001682146116ec5780156114e5576101bd913390612ae9565b6040516318ba2fc160e31b8152600490fd5b50346101c05760403660031901126101c05760ff604060209261171f6124e6565b6004358252600285528282206001600160a01b03909116825284522054604051911615158152f35b50346101c057806003193601126101c057611760612675565b6117686129b5565b600160ff19815416176001557f62e78cea01bee320cd4e420270b5ea74000d11b0c9f74754ebdbfc544b05a2586020604051338152a180f35b50346101c05760203660031901126101c0576001600160401b03600435818111610a07576117da602061060b6006933690600401612491565b8101600481520301902001549060ff8260c81c16918261181b575b602093508261180b575b50506040519015158152f35b60401c1642101590505f806117ff565b915060ff8260c01c16926006841015610f8c5750600260209314916117f5565b50346101c057806003193601126101c057602060ff600154166040519015158152f35b50346101c05761186d36612553565b611878929192612675565b6118806129b5565b604051825160ff600660209384818189019561189d8183896125ad565b81016004815203019020015460c81c16156105bc5760405184516118c28183856125ad565b600490820190815281900383019020600101546001600160a01b0395861695168590036105aa5760ff6006604051848188516118ff8183896125ad565b81016004815203019020015460c01c166006811015610596576001036105845781611935916040518093819288519283916125ad565b810160048152030190206001600160401b039081600582015460601c164211611a4157835115611a2f57600681019081546203f480420190814211611a1b5778ff0000000000000000ffffffffffffffffffffffffffffffff19164285161760409190911b6fffffffffffffffff00000000000000001617600160c11b1782557f934109f661b65dbccffcae4f7ee04261eb7b36e5136e1ca86dde1b00598cb03194611a1194909390926119fc926119f1908690600401612851565b5460401c1695612995565b946040519384936040855260408501906125ce565b918301520390a380f35b634e487b7160e01b8a52601160045260248afd5b60405163361178c760e01b8152600490fd5b60405163764b8e3360e11b8152600490fd5b50346101c057806003193601126101c057602060035460601c604051908152f35b50346101c057806003193601126101c057611a8d612675565b60015460ff811615611acd5760ff19166001557f5db9ee0a495bf2e6ff9c91a7834c1ba4fdd244a5e8aa4e537bd38aeae4b073aa6020604051338152a180f35b60405162461bcd60e51b815260206004820152601460248201527314185d5cd8589b194e881b9bdd081c185d5cd95960621b6044820152606490fd5b50346101c05760203660031901126101c0576001600160401b03600435818111610a0757611b3b903690600401612491565b90611b446129f9565b611b4c612675565b611b546129b5565b60405160ff600684519260208181880195611b708183896125ad565b81016004815203019020015460c81c16156105bc5760ff60066040516020818751611b9c8183896125ad565b81016004815203019020015460c01c16600681101561166e57600203610584576020611bd3916040518093819287519283916125ad565b81016004815203019020600681018054928360401c164210611cbf576104b75f80516020612d26833981519152926001600160601b038060058301541693611c2f61271083611c26816003541689612ab2565b16048096612ad0565b60ff60c01b19909716600160c21b1790557f00000000000000000000000000000000000000000000000000000000000000009080871680611ca0575b50841680611c89575b5050600101546001600160a01b031694612995565b611c999160035460601c90612ae9565b5f80611c74565b6001840154611cb991906001600160a01b031684612ae9565b5f611c6b565b604051632d6bf64560e01b8152600490fd5b50346101c05760403660031901126101c057611ceb6124e6565b336001600160a01b03821603611d0757610c3e9060043561278e565b60405163334bd91960e11b8152600490fd5b50346101c05760203660031901126101c0576004356001600160601b038116810361023f576101bd90611d4a612675565b612bfe565b50346101c05760403660031901126101c057610c3e600435611d6f6124e6565b908084526002602052611d8860016040862001546126ee565b612710565b50346101c057611d9c36612512565b611da46129f9565b611dac612675565b611db46129b5565b60405160ff600684519260208181880195611dd08183896125ad565b81016004815203019020015460c81c16156105bc5760206040518451611df78183866125ad565b8101600481528160018060a01b03938493849303019020541693168093036105aa5760ff60066040516020818851611e3081838a6125ad565b81016004815203019020015460c01c166006811015610ba357600203610584576104b7611e7860205f80516020612d2683398151915294604051809381928a519283916125ad565b810160048152030190209160016001600160601b03938460058201541694611eb461271082611eab81600354168a612ab2565b16048097612ad0565b60068301805460ff60c01b191660c286901b17905597611ed38a612995565b7ecaec7345d2eb04a42197ac2a2cd7cd74a00b2991b69bb53e23465d4092fdfb8c80a37f00000000000000000000000000000000000000000000000000000000000000009080891680611f4c575b50861680611f35575b505001541694612995565b611f459160035460601c90612ae9565b5f80611f2a565b611f5c9086868601541684612ae9565b5f611f21565b50346101c05760203660031901126101c05760016040602092600435815260028452200154604051908152f35b50346101c057806003193601126101c05760206001600160601b0360035416604051908152f35b50346101c05760203660031901126101c0576004356001600160401b03811161023f57611fe7903690600401612491565b611fef6129f9565b611ff7612675565b60405160ff6006835192602081818701956120138183896125ad565b81016004815203019020015460c81c16156105bc57602061203f916040518093819286519283916125ad565b8101600481520301902090600682019081549260ff8460c01c166006811015610ba3576001810361210c575b5061209c926001600160601b0360058301541694600560c01b9060ff60c01b191617905583806120cf575050612995565b6040519182527fb559d285c87e4fa0f561388264310703ff0c6c454a39ae52d0ae94032ff0db7060203393a36001815580f35b905461210591906001600160a01b03167f0000000000000000000000000000000000000000000000000000000000000000612ae9565b5f83610b3c565b600203612119575f61206b565b6040516304df0cad60e31b8152600490fd5b50346101c057806003193601126101c05760206040517fa8a7bc421f721cb936ea99efdad79237e6ee0b871a2a08cf648691f9584cdc778152f35b50346101c05761217536612553565b909161217f612675565b6121876129b5565b60405191815160ff60066020958681818801956121a58183896125ad565b81016004815203019020015460c81c16156105bc5760405183516121ca8183856125ad565b600490820190815281900385019020546001600160a01b0395861695168590036105aa5760ff6006604051868187516122048183896125ad565b81016004815203019020015460c01c166006811015610596576002036105845761223c846006926040518093819288519283916125ad565b8101600481520301902001918254906001600160401b038260401c164210156122d0578251156122be5760ff60c01b19909116600360c01b179092557fde7b01bef0884582ce204f7f920e57f99dd569f93867450872f436be5a03c755916122a390612995565b926122b86040519282849384528301906125ce565b0390a380f35b60405163bc7fd33160e01b8152600490fd5b604051632d0f572d60e11b8152600490fd5b50346101c0576122f136612512565b906122fa612675565b60405190805160ff60066020948581818701956123188183896125ad565b81016004815203019020015460c81c16156105bc57604051825161233d8183856125ad565b600490820190815281900384019020546001600160a01b0394851694168490036105aa5760ff6006604051858186516123778183896125ad565b81016004815203019020015460c01c166006811015610ba357610584577fb559d285c87e4fa0f561388264310703ff0c6c454a39ae52d0ae94032ff0db709160066123d1856123f4946040518093819287519283916125ad565b60049082019081520301902001805460ff60c01b1916600560c01b179055612995565b91604051858152a380f35b90503461023f57602036600319011261023f5760043563ffffffff60e01b8116809103610a075760209250637965db0b60e01b8114908115612443575b5015158152f35b6301ffc9a760e01b1490505f61243c565b6101a081019081106001600160401b038211176112e757604052565b90601f801991011681019081106001600160401b038211176112e757604052565b81601f820112156105ce578035906001600160401b0382116112e757604051926124c5601f8401601f191660200185612470565b828452602083830101116105ce57815f926020809301838601378301015290565b602435906001600160a01b03821682036105ce57565b600435906001600160a01b03821682036105ce57565b60406003198201126105ce57600435906001600160401b0382116105ce5761253c91600401612491565b906024356001600160a01b03811681036105ce5790565b60606003198201126105ce576001600160401b03916004358381116105ce578261257f91600401612491565b926024356001600160a01b03811681036105ce57926044359182116105ce576125aa91600401612491565b90565b5f5b8381106125be5750505f910152565b81810151838201526020016125af565b906020916125e7815180928185528580860191016125ad565b601f01601f1916010190565b602080820190808352835180925260408301928160408460051b8301019501935f915b8483106126265750505050505090565b9091929394958480612644600193603f198682030187528a516125ce565b9801930193019194939290612616565b9060068210156126615752565b634e487b7160e01b5f52602160045260245ffd5b335f9081527fef73bf2ac44f84561b5498839ab1c8c5a4dd99305d838aea0d76c5961778535c60205260409020547fa8a7bc421f721cb936ea99efdad79237e6ee0b871a2a08cf648691f9584cdc779060ff16156126d05750565b6044906040519063e2517d3f60e01b82523360048301526024820152fd5b805f52600260205260405f20335f5260205260ff60405f205416156126d05750565b905f918083526002602052604083209160018060a01b03169182845260205260ff604084205416155f146127895780835260026020526040832082845260205260408320600160ff198254161790557f2f8788117e7eff1d82e926ec794901d17c78024a50270940304540a733656f0d339380a4600190565b505090565b905f918083526002602052604083209160018060a01b03169182845260205260ff6040842054165f14612789578083526002602052604083208284526020526040832060ff1981541690557ff6391f5c32d9c69d2a47ea670b442974b53935d1edc7fd64eb21e047a839171b339380a4600190565b90600182811c92168015612831575b602083101461281d57565b634e487b7160e01b5f52602260045260245ffd5b91607f1691612812565b818110612846575050565b5f815560010161283b565b91909182516001600160401b0381116112e75761286e8254612803565b601f8111612912575b50602080601f83116001146128b25750819293945f926128a7575b50508160011b915f199060031b1c1916179055565b015190505f80612892565b90601f19831695845f52825f20925f905b8882106128fa575050836001959697106128e2575b505050811b019055565b01515f1960f88460031b161c191690555f80806128d8565b806001859682949686015181550195019301906128c3565b61293d90835f5260205f20601f840160051c81019160208510612943575b601f0160051c019061283b565b5f612877565b9091508190612930565b908154680100000000000000008110156112e757600181018084558110156129815761297f925f5260205f2001612851565b565b634e487b7160e01b5f52603260045260245ffd5b6129ad906020604051928284809451938492016125ad565b810103902090565b60ff600154166129c157565b60405162461bcd60e51b815260206004820152601060248201526f14185d5cd8589b194e881c185d5cd95960821b6044820152606490fd5b60025f5414612a085760025f55565b60405162461bcd60e51b815260206004820152601f60248201527f5265656e7472616e637947756172643a207265656e7472616e742063616c6c006044820152606490fd5b905f602091828151910182855af115612aa7575f513d612a9e57506001600160a01b0381163b155b612a7c5750565b604051635274afe760e01b81526001600160a01b039091166004820152602490fd5b60011415612a75565b6040513d5f823e3d90fd5b9190916001600160601b038080941691160291821691820361051157565b6001600160601b03918216908216039190821161051157565b60405163a9059cbb60e01b60208201526001600160a01b03909216602483015260448083019390935291815260808101916001600160401b038311828410176112e75761297f92604052612a4d565b9060405191825f825492612b4b84612803565b9081845260019485811690815f14612bb45750600114612b74575b505061297f92500383612470565b909391505f52602090815f20935f915b818310612b9c57505061297f93508201015f80612b66565b85548884018501529485019487945091830191612b84565b91505061297f94506020925060ff191682840152151560051b8201015f80612b66565b906001600160401b0382116112e75760405191612bfa60208260051b0184612470565b8252565b6001600160601b03908181166103e88111612c855760035492831690808214612c7f576bffffffffffffffffffffffff1990931692909217600355604080516001600160601b0393841681529190921660208201527ffeeddf72b7ee4210b769104cb8b071e5706232ac7f671fb292af429ffd58b58791819081015b0390a1565b50505050565b60405163cd4e616760e01b8152600490fd5b6001600160a01b0381169081156109db57600354918260601c908114612d20576001600160601b03909216606082901b6bffffffffffffffffffffffff191617600355604080516001600160a01b0393841681529290911660208301527faaebcf1bfa00580e41d966056b48521fa9f202645c86d4ddf28113e617c1b1d3919081908101612c7a565b50505056fe8531198e5d946af9a770d2eeba00258645e163142d835fe1b04e45f4db720f8ba2646970667358221220aee6a9a9faa7802ae1c0b46c20752fb372e8dbb1b84175ecbbb135a8f956725064736f6c63430008140033a8a7bc421f721cb936ea99efdad79237e6ee0b871a2a08cf648691f9584cdc77",
			"opcodes": "PUSH1 0xA0 PUSH1 0x1F PUSH3 0x2FDB CODESIZE DUP2 SWAP1 SUB SWAP2 DUP3 ADD PUSH1 0x1F NOT AND DUP4 ADD SWAP2 SWAP1 PUSH1 0x1 PUSH1 0x1 PUSH1 0x40 SHL SUB DUP4 GT DUP5 DUP5 LT OR PUSH3 0x175 JUMPI DUP2 PUSH1 0x60 SWAP3 DUP6 SWAP3 PUSH1 0x40 SWAP6 DUP7 MSTORE DUP4 CODECOPY DUP2 ADD SUB SLT PUSH3 0x171 JUMPI PUSH3 0x4A DUP3 PUSH3 0x189 JUMP JUMPDEST SWAP2 PUSH3 0x66 DUP3 PUSH3 0x5E PUSH1 0x20 DUP5 ADD PUSH3 0x189 JUMP JUMPDEST SWAP3 ADD PUSH3 0x189 JUMP JUMPDEST PUSH1 0x1 PUSH0 DUP2 SWAP1 SSTORE DUP1 SLOAD PUSH1 0xFF NOT AND SWAP1 SSTORE PUSH1 0x1 PUSH1 0x1 PUSH1 0xA0 SHL SUB SWAP4 DUP5 AND SWAP4 SWAP1 SWAP2 SWAP1 DUP5 ISZERO PUSH3 0x160 JUMPI DUP1 DUP3 AND ISZERO PUSH3 0x160 JUMPI DUP3 AND ISZERO PUSH3 0x14F JUMPI PUSH3 0xBD SWAP3 SWAP4 PUSH1 0x80 MSTORE PUSH1 0x1 DUP1 PUSH1 0x60 SHL SUB NOT SWAP1 PUSH1 0x60 SHL AND PUSH1 0xFA OR PUSH1 0x3 SSTORE PUSH3 0x19E JUMP JUMPDEST POP PUSH0 DUP1 MLOAD PUSH1 0x20 PUSH3 0x2FBB DUP4 CODECOPY DUP2 MLOAD SWAP2 MSTORE DUP1 PUSH0 MSTORE PUSH1 0x2 PUSH1 0x20 MSTORE PUSH1 0x1 DUP3 PUSH0 KECCAK256 ADD SWAP2 DUP2 DUP4 SLOAD SWAP4 SSTORE MLOAD SWAP2 DUP2 PUSH32 0xBD79B86FFE0AB8E8776151514217CD7CACD52C909F66475C3AF44E129F0B00FF PUSH0 DUP1 LOG4 PUSH2 0x2D7B SWAP1 DUP2 PUSH3 0x240 DUP3 CODECOPY PUSH1 0x80 MLOAD DUP2 DUP2 DUP2 PUSH2 0x395 ADD MSTORE DUP2 DUP2 PUSH2 0xB66 ADD MSTORE DUP2 DUP2 PUSH2 0xBD1 ADD MSTORE DUP2 DUP2 PUSH2 0x1194 ADD MSTORE DUP2 DUP2 PUSH2 0x16B5 ADD MSTORE DUP2 DUP2 PUSH2 0x1C42 ADD MSTORE DUP2 DUP2 PUSH2 0x1EF8 ADD MSTORE PUSH2 0x20E1 ADD MSTORE RETURN JUMPDEST DUP3 MLOAD PUSH4 0xE6C4247B PUSH1 0xE0 SHL DUP2 MSTORE PUSH1 0x4 SWAP1 REVERT JUMPDEST DUP4 MLOAD PUSH4 0xE6C4247B PUSH1 0xE0 SHL DUP2 MSTORE PUSH1 0x4 SWAP1 REVERT JUMPDEST PUSH0 DUP1 REVERT JUMPDEST PUSH4 0x4E487B71 PUSH1 0xE0 SHL PUSH0 MSTORE PUSH1 0x41 PUSH1 0x4 MSTORE PUSH1 0x24 PUSH0 REVERT JUMPDEST MLOAD SWAP1 PUSH1 0x1 PUSH1 0x1 PUSH1 0xA0 SHL SUB DUP3 AND DUP3 SUB PUSH3 0x171 JUMPI JUMP JUMPDEST PUSH1 0x1 PUSH1 0x1 PUSH1 0xA0 SHL SUB AND PUSH0 DUP2 DUP2 MSTORE PUSH32 0xEF73BF2AC44F84561B5498839AB1C8C5A4DD99305D838AEA0D76C5961778535C PUSH1 0x20 MSTORE PUSH1 0x40 DUP2 KECCAK256 SLOAD SWAP1 SWAP2 SWAP1 PUSH0 DUP1 MLOAD PUSH1 0x20 PUSH3 0x2FBB DUP4 CODECOPY DUP2 MLOAD SWAP2 MSTORE SWAP1 PUSH1 0xFF AND PUSH3 0x23A JUMPI DUP1 DUP4 MSTORE PUSH1 0x2 PUSH1 0x20 MSTORE PUSH1 0x40 DUP4 KECCAK256 DUP3 DUP5 MSTORE PUSH1 0x20 MSTORE PUSH1 0x40 DUP4 KECCAK256 PUSH1 0x1 PUSH1 0xFF NOT DUP3 SLOAD AND OR SWAP1 SSTORE PUSH32 0x2F8788117E7EFF1D82E926EC794901D17C78024A50270940304540A733656F0D CALLER SWAP4 DUP1 LOG4 PUSH1 0x1 SWAP1 JUMP JUMPDEST POP POP SWAP1 JUMP INVALID PUSH1 0x80 DUP1 PUSH1 0x40 MSTORE PUSH1 0x4 CALLDATASIZE LT ISZERO PUSH2 0x12 JUMPI PUSH0 DUP1 REVERT JUMPDEST PUSH0 SWAP1 DUP2 CALLDATALOAD PUSH1 0xE0 SHR SWAP1 DUP2 PUSH4 0x1FFC9A7 EQ PUSH2 0x23FF JUMPI POP DUP1 PUSH4 0x3F715DA EQ PUSH2 0x22E2 JUMPI DUP1 PUSH4 0xE59A395 EQ PUSH2 0x2166 JUMPI DUP1 PUSH4 0x18CF2834 EQ PUSH2 0x212B JUMPI DUP1 PUSH4 0x1A1AAEED EQ PUSH2 0x1FB6 JUMPI DUP1 PUSH4 0x22DCD13E EQ PUSH2 0x1F8F JUMPI DUP1 PUSH4 0x248A9CA3 EQ PUSH2 0x1F62 JUMPI DUP1 PUSH4 0x24D956C8 EQ PUSH2 0x1D8D JUMPI DUP1 PUSH4 0x2F2FF15D EQ PUSH2 0x1D4F JUMPI DUP1 PUSH4 0x317B8C5B EQ PUSH2 0x1D19 JUMPI DUP1 PUSH4 0x36568ABE EQ PUSH2 0x1CD1 JUMPI DUP1 PUSH4 0x38A13287 EQ PUSH2 0x1B09 JUMPI DUP1 PUSH4 0x3F4BA83A EQ PUSH2 0x1A74 JUMPI DUP1 PUSH4 0x46904840 EQ PUSH2 0x1A53 JUMPI DUP1 PUSH4 0x4971716F EQ PUSH2 0x185E JUMPI DUP1 PUSH4 0x5C975ABB EQ PUSH2 0x183B JUMPI DUP1 PUSH4 0x76492D3F EQ PUSH2 0x17A1 JUMPI DUP1 PUSH4 0x8456CB59 EQ PUSH2 0x1747 JUMPI DUP1 PUSH4 0x91D14854 EQ PUSH2 0x16FE JUMPI DUP1 PUSH4 0x95CCEA67 EQ PUSH2 0x1682 JUMPI DUP1 PUSH4 0x9B1221AB EQ PUSH2 0x1521 JUMPI DUP1 PUSH4 0x9F1CF42D EQ PUSH2 0x1043 JUMPI DUP1 PUSH4 0x9FAD59B4 EQ PUSH2 0xFA0 JUMPI DUP1 PUSH4 0xA0A57DAC EQ PUSH2 0xCD6 JUMPI DUP1 PUSH4 0xA217FDDF EQ PUSH2 0xCBA JUMPI DUP1 PUSH4 0xAED1505D EQ PUSH2 0xC42 JUMPI DUP1 PUSH4 0xD547741F EQ PUSH2 0xC00 JUMPI DUP1 PUSH4 0xD6BC7C63 EQ PUSH2 0xBBB JUMPI DUP1 PUSH4 0xE39FFF38 EQ PUSH2 0xA0B JUMPI DUP1 PUSH4 0xE4ABD4CB EQ PUSH2 0x721 JUMPI DUP1 PUSH4 0xE7079180 EQ PUSH2 0x5D2 JUMPI DUP1 PUSH4 0xEF03C10E EQ PUSH2 0x243 JUMPI DUP1 PUSH4 0xF0C3CD20 EQ PUSH2 0x1C3 JUMPI PUSH4 0xF160D369 EQ PUSH2 0x194 JUMPI PUSH0 DUP1 REVERT JUMPDEST CALLVALUE PUSH2 0x1C0 JUMPI PUSH1 0x20 CALLDATASIZE PUSH1 0x3 NOT ADD SLT PUSH2 0x1C0 JUMPI PUSH2 0x1BD PUSH2 0x1B0 PUSH2 0x24FC JUMP JUMPDEST PUSH2 0x1B8 PUSH2 0x2675 JUMP JUMPDEST PUSH2 0x2C97 JUMP JUMPDEST DUP1 RETURN JUMPDEST DUP1 REVERT JUMPDEST POP CALLVALUE PUSH2 0x1C0 JUMPI PUSH1 0x20 DUP1 PUSH1 0x3 NOT CALLDATASIZE ADD SLT PUSH2 0x23F JUMPI PUSH1 0x1 PUSH1 0x1 PUSH1 0xA0 SHL SUB PUSH2 0x1E6 PUSH2 0x24FC JUMP JUMPDEST AND DUP3 MSTORE PUSH1 0x5 DUP2 MSTORE PUSH1 0x40 DUP3 KECCAK256 DUP1 SLOAD SWAP1 PUSH2 0x1FD DUP3 PUSH2 0x2BD7 JUMP JUMPDEST SWAP3 DUP1 DUP5 ADD SWAP2 DUP6 MSTORE DUP1 DUP6 KECCAK256 SWAP5 SWAP2 JUMPDEST DUP4 DUP4 LT PUSH2 0x223 JUMPI PUSH1 0x40 MLOAD DUP1 PUSH2 0x21F DUP8 DUP3 PUSH2 0x25F3 JUMP JUMPDEST SUB SWAP1 RETURN JUMPDEST PUSH1 0x1 DUP3 DUP2 SWAP3 PUSH2 0x231 DUP10 PUSH2 0x2B38 JUMP JUMPDEST DUP2 MSTORE ADD SWAP7 ADD SWAP3 ADD SWAP2 SWAP5 PUSH2 0x20A JUMP JUMPDEST POP DUP1 REVERT JUMPDEST POP CALLVALUE PUSH2 0x1C0 JUMPI PUSH1 0x60 CALLDATASIZE PUSH1 0x3 NOT ADD SLT PUSH2 0x1C0 JUMPI PUSH1 0x4 CALLDATALOAD PUSH1 0x1 PUSH1 0x1 PUSH1 0x40 SHL SUB DUP2 GT PUSH2 0x23F JUMPI PUSH2 0x274 SWAP1 CALLDATASIZE SWAP1 PUSH1 0x4 ADD PUSH2 0x2491 JUMP JUMPDEST PUSH2 0x27C PUSH2 0x24E6 JUMP JUMPDEST PUSH1 0x44 CALLDATALOAD SWAP2 DUP3 ISZERO ISZERO DUP4 SUB PUSH2 0x5CE JUMPI PUSH2 0x291 PUSH2 0x29F9 JUMP JUMPDEST PUSH2 0x299 PUSH2 0x2675 JUMP JUMPDEST PUSH2 0x2A1 PUSH2 0x29B5 JUMP JUMPDEST PUSH1 0x40 MLOAD SWAP1 PUSH1 0xFF PUSH1 0x6 DUP3 MLOAD SWAP4 PUSH1 0x20 DUP2 DUP2 DUP7 ADD SWAP7 PUSH2 0x2BE DUP2 DUP4 DUP11 PUSH2 0x25AD JUMP JUMPDEST DUP2 ADD PUSH1 0x4 DUP2 MSTORE SUB ADD SWAP1 KECCAK256 ADD SLOAD PUSH1 0xC8 SHR AND ISZERO PUSH2 0x5BC JUMPI PUSH1 0x40 MLOAD SWAP2 DUP2 MLOAD PUSH2 0x2E4 DUP2 DUP6 DUP5 PUSH2 0x25AD JUMP JUMPDEST DUP4 ADD PUSH1 0x4 DUP2 MSTORE PUSH1 0x1 DUP5 PUSH1 0x20 DUP3 DUP1 PUSH1 0xA0 SHL SUB SWAP7 DUP8 SWAP5 SUB ADD SWAP1 KECCAK256 ADD SLOAD AND DUP4 DUP6 AND SUB PUSH2 0x5AA JUMPI PUSH1 0xFF PUSH1 0x6 PUSH1 0x40 MLOAD PUSH1 0x20 DUP2 DUP7 MLOAD PUSH2 0x31E DUP2 DUP4 DUP10 PUSH2 0x25AD JUMP JUMPDEST DUP2 ADD PUSH1 0x4 DUP2 MSTORE SUB ADD SWAP1 KECCAK256 ADD SLOAD PUSH1 0xC0 SHR AND PUSH1 0x6 DUP2 LT ISZERO PUSH2 0x596 JUMPI PUSH1 0x3 SUB PUSH2 0x584 JUMPI PUSH1 0x20 PUSH2 0x355 SWAP2 PUSH1 0x40 MLOAD DUP1 SWAP4 DUP2 SWAP3 DUP7 MLOAD SWAP3 DUP4 SWAP2 PUSH2 0x25AD JUMP JUMPDEST DUP2 ADD PUSH1 0x4 DUP2 MSTORE SUB ADD SWAP1 KECCAK256 PUSH1 0x1 PUSH1 0x1 PUSH1 0x60 SHL SUB PUSH1 0x5 DUP3 ADD SLOAD AND SWAP2 DUP4 PUSH1 0x1 DUP4 ADD SLOAD AND SWAP6 DUP5 DUP4 SLOAD AND SWAP3 PUSH1 0x6 PUSH1 0x3 SLOAD SWAP2 ADD PUSH1 0x1 PUSH1 0xC2 SHL PUSH1 0xFF PUSH1 0xC0 SHL NOT DUP3 SLOAD AND OR SWAP1 SSTORE PUSH32 0x0 SWAP6 DUP10 DUP4 PUSH0 EQ PUSH2 0x525 JUMPI POP PUSH2 0x1388 DUP7 MUL SWAP2 PUSH1 0x1 PUSH1 0x1 PUSH1 0x60 SHL SUB DUP4 AND SWAP3 DUP4 SUB PUSH2 0x511 JUMPI DUP10 SWAP2 PUSH2 0x2710 DUP1 SWAP5 DIV SWAP8 DUP9 PUSH2 0x3E8 SWAP2 PUSH2 0x2AD0 JUMP JUMPDEST SWAP4 PUSH2 0x3FC PUSH1 0x1 PUSH1 0x1 PUSH1 0x60 SHL SUB DUP5 AND DUP11 PUSH2 0x2AB2 JUMP JUMPDEST PUSH1 0x1 PUSH1 0x1 PUSH1 0x60 SHL SUB AND DIV SWAP8 DUP9 PUSH2 0x411 SWAP2 PUSH2 0x2AD0 JUMP JUMPDEST SWAP10 PUSH1 0x1 PUSH1 0x1 PUSH1 0x60 SHL SUB DUP12 AND SWAP3 DUP4 ISZERO ISZERO SWAP11 PUSH2 0x4B7 SWAP10 PUSH32 0xEA4EA4B4229888EEBA3EB2772DF89C52AF23C7FE3D530B0C1F2CA146F32C12BA SWAP7 PUSH1 0x60 SWAP7 PUSH0 DUP1 MLOAD PUSH1 0x20 PUSH2 0x2D26 DUP4 CODECOPY DUP2 MLOAD SWAP2 MSTORE SWAP15 PUSH2 0x500 JUMPI JUMPDEST POP POP PUSH1 0x1 PUSH1 0x1 PUSH1 0x60 SHL SUB DUP9 AND DUP1 PUSH2 0x4EF JUMPI JUMPDEST POP POP PUSH1 0x1 PUSH1 0x1 PUSH1 0x60 SHL SUB DUP12 AND SWAP1 DUP2 PUSH2 0x4DB JUMPI JUMPDEST POP POP POP JUMPDEST PUSH1 0x1 PUSH1 0x1 PUSH1 0x60 SHL SUB PUSH2 0x498 DUP9 PUSH2 0x2995 JUMP JUMPDEST SWAP6 PUSH1 0x40 MLOAD SWAP8 ISZERO ISZERO DUP9 MSTORE DUP2 DUP14 AND PUSH1 0x20 DUP10 ADD MSTORE AND PUSH1 0x40 DUP8 ADD MSTORE AND SWAP4 LOG3 PUSH2 0x2995 JUMP JUMPDEST PUSH1 0x40 DUP1 MLOAD PUSH1 0x1 PUSH1 0x1 PUSH1 0x60 SHL SUB SWAP6 DUP7 AND DUP2 MSTORE SWAP3 SWAP1 SWAP5 AND PUSH1 0x20 DUP4 ADD MSTORE SWAP3 SWAP1 LOG3 PUSH1 0x1 DUP2 SSTORE DUP1 RETURN JUMPDEST PUSH2 0x4E7 SWAP3 DUP7 SHR SWAP1 PUSH2 0x2AE9 JUMP JUMPDEST PUSH0 DUP1 DUP1 PUSH2 0x483 JUMP JUMPDEST PUSH2 0x4F9 SWAP2 DUP4 PUSH2 0x2AE9 JUMP JUMPDEST PUSH0 DUP1 PUSH2 0x470 JUMP JUMPDEST PUSH2 0x50A SWAP2 DUP5 PUSH2 0x2AE9 JUMP JUMPDEST DUP15 PUSH0 PUSH2 0x45E JUMP JUMPDEST PUSH4 0x4E487B71 PUSH1 0xE0 SHL PUSH0 MSTORE PUSH1 0x11 PUSH1 0x4 MSTORE PUSH1 0x24 PUSH0 REVERT JUMPDEST SWAP2 POP PUSH1 0x60 PUSH32 0xEA4EA4B4229888EEBA3EB2772DF89C52AF23C7FE3D530B0C1F2CA146F32C12BA SWAP2 PUSH2 0x4B7 SWAP7 SWAP8 SWAP10 PUSH0 DUP1 MLOAD PUSH1 0x20 PUSH2 0x2D26 DUP4 CODECOPY DUP2 MLOAD SWAP2 MSTORE SWAP10 DUP6 SWAP12 DUP1 SWAP7 SWAP11 DUP2 PUSH2 0x573 JUMPI JUMPDEST POP POP POP PUSH2 0x487 JUMP JUMPDEST PUSH2 0x57C SWAP3 PUSH2 0x2AE9 JUMP JUMPDEST PUSH0 DUP1 DUP1 PUSH2 0x56B JUMP JUMPDEST PUSH1 0x40 MLOAD PUSH4 0x5E40B94F PUSH1 0xE0 SHL DUP2 MSTORE PUSH1 0x4 SWAP1 REVERT JUMPDEST PUSH4 0x4E487B71 PUSH1 0xE0 SHL DUP8 MSTORE PUSH1 0x21 PUSH1 0x4 MSTORE PUSH1 0x24 DUP8 REVERT JUMPDEST PUSH1 0x40 MLOAD PUSH4 0xEA8E4EB5 PUSH1 0xE0 SHL DUP2 MSTORE PUSH1 0x4 SWAP1 REVERT JUMPDEST PUSH1 0x40 MLOAD PUSH4 0x223DA473 PUSH1 0xE2 SHL DUP2 MSTORE PUSH1 0x4 SWAP1 REVERT JUMPDEST PUSH0 DUP1 REVERT JUMPDEST POP CALLVALUE PUSH2 0x1C0 JUMPI PUSH1 0x20 CALLDATASIZE PUSH1 0x3 NOT ADD SLT PUSH2 0x1C0 JUMPI PUSH1 0x4 CALLDATALOAD PUSH1 0x1 PUSH1 0x1 PUSH1 0x40 SHL SUB SWAP2 DUP3 DUP3 GT PUSH2 0x1C0 JUMPI POP PUSH1 0x20 PUSH2 0x60B PUSH2 0x61E SWAP3 CALLDATASIZE SWAP1 PUSH1 0x4 ADD PUSH2 0x2491 JUMP JUMPDEST DUP2 PUSH1 0x40 MLOAD SWAP4 DUP3 DUP6 DUP1 SWAP5 MLOAD SWAP4 DUP5 SWAP3 ADD PUSH2 0x25AD JUMP JUMPDEST DUP2 ADD PUSH1 0x4 DUP2 MSTORE SUB ADD SWAP1 KECCAK256 PUSH1 0x6 DUP2 ADD SLOAD PUSH1 0xFF DUP2 PUSH1 0xC8 SHR AND ISZERO PUSH2 0x5BC JUMPI PUSH2 0x698 SWAP3 PUSH1 0x1 DUP1 PUSH1 0xA0 SHL SUB SWAP2 DUP2 PUSH2 0x6EB DUP5 DUP7 SLOAD AND SWAP5 PUSH1 0x1 DUP8 ADD SLOAD AND PUSH2 0x6DD PUSH1 0x5 DUP9 ADD SLOAD SWAP7 PUSH2 0x669 PUSH1 0x2 DUP11 ADD PUSH2 0x2B38 JUMP JUMPDEST SWAP9 PUSH2 0x682 PUSH1 0x4 PUSH2 0x67B PUSH1 0x3 DUP5 ADD PUSH2 0x2B38 JUMP JUMPDEST SWAP3 ADD PUSH2 0x2B38 JUMP JUMPDEST SWAP4 PUSH1 0x40 MLOAD SWAP12 DUP13 SWAP12 DUP13 PUSH2 0x1A0 DUP1 SWAP2 MSTORE DUP14 ADD SWAP1 PUSH2 0x25CE JUMP JUMPDEST SWAP3 PUSH1 0x20 DUP13 ADD MSTORE PUSH1 0x40 DUP12 ADD MSTORE PUSH1 0x1 PUSH1 0x1 PUSH1 0x60 SHL SUB DUP10 AND PUSH1 0x60 DUP12 ADD MSTORE DUP6 DUP10 PUSH1 0x60 SHR AND PUSH1 0x80 DUP12 ADD MSTORE PUSH2 0x6D0 PUSH1 0xA0 DUP12 ADD PUSH1 0xFF DUP10 PUSH1 0xC0 SHR AND PUSH2 0x2654 JUMP JUMPDEST DUP10 DUP3 SUB PUSH1 0xC0 DUP12 ADD MSTORE PUSH2 0x25CE JUMP JUMPDEST SWAP1 DUP8 DUP3 SUB PUSH1 0xE0 DUP10 ADD MSTORE PUSH2 0x25CE JUMP JUMPDEST SWAP4 DUP2 DUP4 PUSH1 0x40 SHR AND PUSH2 0x100 DUP8 ADD MSTORE PUSH1 0xA0 SHR AND PUSH2 0x120 DUP6 ADD MSTORE DUP2 DUP2 AND PUSH2 0x140 DUP6 ADD MSTORE PUSH1 0x80 SHR AND PUSH2 0x160 DUP4 ADD MSTORE PUSH1 0x1 PUSH2 0x180 DUP4 ADD MSTORE SUB SWAP1 RETURN JUMPDEST POP CALLVALUE PUSH2 0x1C0 JUMPI PUSH1 0xC0 CALLDATASIZE PUSH1 0x3 NOT ADD SLT PUSH2 0x1C0 JUMPI PUSH1 0x1 PUSH1 0x1 PUSH1 0x40 SHL SUB PUSH1 0x4 CALLDATALOAD DUP2 DUP2 GT PUSH2 0xA07 JUMPI PUSH2 0x753 SWAP1 CALLDATASIZE SWAP1 PUSH1 0x4 ADD PUSH2 0x2491 JUMP JUMPDEST PUSH2 0x75B PUSH2 0x24E6 JUMP JUMPDEST PUSH1 0x44 CALLDATALOAD PUSH1 0x1 PUSH1 0x1 PUSH1 0xA0 SHL SUB DUP2 AND SWAP4 SWAP2 SWAP1 DUP5 SWAP1 SUB PUSH2 0x5CE JUMPI PUSH1 0x64 CALLDATALOAD SWAP3 PUSH1 0x1 PUSH1 0x1 PUSH1 0x60 SHL SUB DUP5 AND DUP5 SUB PUSH2 0x5CE JUMPI DUP3 PUSH1 0x84 CALLDATALOAD AND PUSH1 0x84 CALLDATALOAD SUB PUSH2 0xA03 JUMPI PUSH1 0xA4 CALLDATALOAD DUP4 DUP2 GT PUSH2 0x9FF JUMPI PUSH2 0x7AB SWAP1 CALLDATASIZE SWAP1 PUSH1 0x4 ADD PUSH2 0x2491 JUMP JUMPDEST SWAP2 PUSH2 0x7B4 PUSH2 0x2675 JUMP JUMPDEST PUSH2 0x7BC PUSH2 0x29B5 JUMP JUMPDEST PUSH1 0xFF PUSH1 0x6 PUSH1 0x40 MLOAD PUSH1 0x20 DUP2 DUP7 MLOAD PUSH2 0x7D5 DUP2 DUP4 DUP6 DUP12 ADD PUSH2 0x25AD JUMP JUMPDEST DUP2 ADD PUSH1 0x4 DUP2 MSTORE SUB ADD SWAP1 KECCAK256 ADD SLOAD PUSH1 0xC8 SHR AND PUSH2 0x9ED JUMPI DUP6 ISZERO PUSH2 0x9DB JUMPI PUSH1 0x1 PUSH1 0x1 PUSH1 0xA0 SHL SUB AND SWAP4 DUP5 ISZERO PUSH2 0x9DB JUMPI DUP6 DUP6 EQ PUSH2 0x9C9 JUMPI PUSH1 0x1 PUSH1 0x1 PUSH1 0x60 SHL SUB DUP2 AND ISZERO PUSH2 0x9B7 JUMPI TIMESTAMP DUP5 PUSH1 0x84 CALLDATALOAD AND GT ISZERO PUSH2 0x9A5 JUMPI DUP3 MLOAD ISZERO PUSH2 0x993 JUMPI PUSH2 0x958 PUSH1 0x40 SWAP3 PUSH32 0xCEB1A488BE98B2739817F21E7D3B0A343434519CD0FE4DB3EF5FC27A96E8D295 SWAP5 PUSH2 0x8D0 DUP6 MLOAD PUSH1 0x20 DUP2 DUP6 MLOAD PUSH2 0x867 DUP2 DUP4 DUP6 DUP11 ADD PUSH2 0x25AD JUMP JUMPDEST DUP2 ADD PUSH1 0x4 DUP2 MSTORE SUB ADD SWAP1 KECCAK256 SWAP2 PUSH2 0x87F DUP5 PUSH1 0x2 DUP6 ADD PUSH2 0x2851 JUMP JUMPDEST DUP3 SLOAD PUSH1 0x1 PUSH1 0x1 PUSH1 0xA0 SHL SUB NOT SWAP1 DUP2 AND DUP12 OR DUP5 SSTORE PUSH1 0x1 DUP5 ADD DUP1 SLOAD DUP3 AND DUP14 OR SWAP1 SSTORE PUSH1 0x5 DUP5 ADD DUP1 SLOAD SWAP1 SWAP2 AND PUSH1 0x1 PUSH1 0x1 PUSH1 0x60 SHL SUB DUP9 AND OR PUSH1 0x84 CALLDATALOAD PUSH1 0x60 SHL PUSH8 0xFFFFFFFFFFFFFFFF PUSH1 0x60 SHL AND OR SWAP1 SSTORE PUSH1 0x3 DUP4 ADD PUSH2 0x2851 JUMP JUMPDEST PUSH1 0x6 DUP2 ADD DUP1 SLOAD PUSH9 0xFFFFFFFFFFFFFFFFFF PUSH1 0x80 SHL NOT AND TIMESTAMP PUSH1 0x80 SHL PUSH8 0xFFFFFFFFFFFFFFFF PUSH1 0x80 SHL AND OR DUP2 SSTORE PUSH1 0x4 SWAP2 SWAP1 SWAP2 ADD DUP1 SLOAD PUSH0 SWAP2 SWAP1 PUSH2 0x90D SWAP1 PUSH2 0x2803 JUMP JUMPDEST PUSH1 0x1F DUP2 GT PUSH2 0x974 JUMPI JUMPDEST POP SSTORE DUP1 SLOAD PUSH1 0xFF PUSH1 0xC8 SHL NOT AND PUSH1 0x1 PUSH1 0xC8 SHL OR SWAP1 SSTORE DUP7 DUP10 MSTORE PUSH1 0x5 PUSH1 0x20 MSTORE DUP4 DUP10 KECCAK256 PUSH2 0x93F SWAP1 DUP3 SWAP1 PUSH2 0x294D JUMP JUMPDEST DUP8 DUP10 MSTORE PUSH1 0x6 PUSH1 0x20 MSTORE PUSH2 0x953 DUP2 DUP6 DUP12 KECCAK256 PUSH2 0x294D JUMP JUMPDEST PUSH2 0x2995 JUMP JUMPDEST SWAP4 PUSH1 0x1 PUSH1 0x1 PUSH1 0x60 SHL SUB DUP4 MLOAD SWAP3 AND DUP3 MSTORE PUSH1 0x84 CALLDATALOAD AND PUSH1 0x20 DUP3 ADD MSTORE LOG4 DUP1 RETURN JUMPDEST DUP2 DUP4 MSTORE PUSH1 0x20 DUP4 KECCAK256 PUSH2 0x98D SWAP2 PUSH1 0x1F ADD PUSH1 0x5 SHR DUP2 ADD SWAP1 PUSH2 0x283B JUMP JUMPDEST PUSH0 PUSH2 0x916 JUMP JUMPDEST PUSH1 0x40 MLOAD PUSH4 0x7E4DD01 PUSH1 0xE3 SHL DUP2 MSTORE PUSH1 0x4 SWAP1 REVERT JUMPDEST PUSH1 0x40 MLOAD PUSH4 0x642CE77 PUSH1 0xE0 SHL DUP2 MSTORE PUSH1 0x4 SWAP1 REVERT JUMPDEST PUSH1 0x40 MLOAD PUSH4 0x5E85AE73 PUSH1 0xE0 SHL DUP2 MSTORE PUSH1 0x4 SWAP1 REVERT JUMPDEST PUSH1 0x40 MLOAD PUSH4 0x24DA0345 PUSH1 0xE2 SHL DUP2 MSTORE PUSH1 0x4 SWAP1 REVERT JUMPDEST PUSH1 0x40 MLOAD PUSH4 0xE6C4247B PUSH1 0xE0 SHL DUP2 MSTORE PUSH1 0x4 SWAP1 REVERT JUMPDEST PUSH1 0x40 MLOAD PUSH4 0x38A6A807 PUSH1 0xE1 SHL DUP2 MSTORE PUSH1 0x4 SWAP1 REVERT JUMPDEST DUP7 DUP1 REVERT JUMPDEST DUP6 DUP1 REVERT JUMPDEST DUP3 DUP1 REVERT JUMPDEST POP CALLVALUE PUSH2 0x1C0 JUMPI PUSH1 0x20 DUP1 PUSH1 0x3 NOT CALLDATASIZE ADD SLT PUSH2 0x23F JUMPI PUSH1 0x1 PUSH1 0x1 PUSH1 0x40 SHL SUB SWAP1 PUSH1 0x4 CALLDATALOAD DUP3 DUP2 GT PUSH2 0xBB7 JUMPI PUSH2 0xA3F SWAP1 CALLDATASIZE SWAP1 PUSH1 0x4 ADD PUSH2 0x2491 JUMP JUMPDEST PUSH2 0xA47 PUSH2 0x29F9 JUMP JUMPDEST PUSH2 0xA4F PUSH2 0x2675 JUMP JUMPDEST PUSH2 0xA57 PUSH2 0x29B5 JUMP JUMPDEST PUSH1 0x40 MLOAD PUSH1 0xFF PUSH1 0x6 DUP4 MLOAD SWAP3 DUP6 DUP2 DUP2 DUP8 ADD SWAP6 PUSH2 0xA72 DUP2 DUP4 DUP10 PUSH2 0x25AD JUMP JUMPDEST DUP2 ADD PUSH1 0x4 DUP2 MSTORE SUB ADD SWAP1 KECCAK256 ADD SLOAD PUSH1 0xC8 SHR AND ISZERO PUSH2 0x5BC JUMPI PUSH1 0xFF PUSH1 0x6 PUSH1 0x40 MLOAD DUP6 DUP2 DUP7 MLOAD PUSH2 0xA9D DUP2 DUP4 DUP10 PUSH2 0x25AD JUMP JUMPDEST DUP2 ADD PUSH1 0x4 DUP2 MSTORE SUB ADD SWAP1 KECCAK256 ADD SLOAD PUSH1 0xC0 SHR AND PUSH1 0x6 DUP2 LT ISZERO PUSH2 0xBA3 JUMPI PUSH1 0x1 SUB PUSH2 0x584 JUMPI DUP3 PUSH2 0xAD3 SWAP2 PUSH1 0x40 MLOAD DUP1 SWAP4 DUP2 SWAP3 DUP7 MLOAD SWAP3 DUP4 SWAP2 PUSH2 0x25AD JUMP JUMPDEST DUP2 ADD PUSH1 0x4 DUP2 MSTORE SUB ADD SWAP1 KECCAK256 SWAP3 PUSH1 0x5 DUP5 ADD SLOAD SWAP1 DUP2 PUSH1 0x60 SHR AND TIMESTAMP GT ISZERO PUSH2 0xB91 JUMPI PUSH1 0x6 DUP5 ADD DUP1 SLOAD PUSH1 0xFF PUSH1 0xC0 SHL NOT AND PUSH1 0x5 PUSH1 0xC0 SHL OR SWAP1 SSTORE PUSH1 0x1 PUSH1 0x1 PUSH1 0x60 SHL SUB AND SWAP3 PUSH32 0xB559D285C87E4FA0F561388264310703FF0C6C454A39AE52D0AE94032FF0DB70 SWAP2 PUSH2 0xB43 SWAP2 DUP6 DUP1 PUSH2 0xB54 JUMPI JUMPDEST POP POP PUSH2 0x2995 JUMP JUMPDEST SWAP2 PUSH1 0x40 MLOAD SWAP4 DUP5 MSTORE CALLER SWAP4 LOG3 PUSH1 0x1 DUP2 SSTORE DUP1 RETURN JUMPDEST SWAP1 SLOAD PUSH2 0xB8A SWAP2 SWAP1 PUSH1 0x1 PUSH1 0x1 PUSH1 0xA0 SHL SUB AND PUSH32 0x0 PUSH2 0x2AE9 JUMP JUMPDEST PUSH0 DUP6 PUSH2 0xB3C JUMP JUMPDEST PUSH1 0x40 MLOAD PUSH4 0x2EB3543 PUSH1 0xE4 SHL DUP2 MSTORE PUSH1 0x4 SWAP1 REVERT JUMPDEST PUSH4 0x4E487B71 PUSH1 0xE0 SHL DUP7 MSTORE PUSH1 0x21 PUSH1 0x4 MSTORE PUSH1 0x24 DUP7 REVERT JUMPDEST DUP4 DUP1 REVERT JUMPDEST POP CALLVALUE PUSH2 0x1C0 JUMPI DUP1 PUSH1 0x3 NOT CALLDATASIZE ADD SLT PUSH2 0x1C0 JUMPI PUSH1 0x40 MLOAD PUSH32 0x0 PUSH1 0x1 PUSH1 0x1 PUSH1 0xA0 SHL SUB AND DUP2 MSTORE PUSH1 0x20 SWAP1 RETURN JUMPDEST POP CALLVALUE PUSH2 0x1C0 JUMPI PUSH1 0x40 CALLDATASIZE PUSH1 0x3 NOT ADD SLT PUSH2 0x1C0 JUMPI PUSH2 0xC3E PUSH1 0x4 CALLDATALOAD PUSH2 0xC20 PUSH2 0x24E6 JUMP JUMPDEST SWAP1 DUP1 DUP5 MSTORE PUSH1 0x2 PUSH1 0x20 MSTORE PUSH2 0xC39 PUSH1 0x1 PUSH1 0x40 DUP7 KECCAK256 ADD SLOAD PUSH2 0x26EE JUMP JUMPDEST PUSH2 0x278E JUMP JUMPDEST POP DUP1 RETURN JUMPDEST POP CALLVALUE PUSH2 0x1C0 JUMPI PUSH1 0x20 DUP1 PUSH1 0x3 NOT CALLDATASIZE ADD SLT PUSH2 0x23F JUMPI PUSH1 0x1 PUSH1 0x1 PUSH1 0xA0 SHL SUB PUSH2 0xC65 PUSH2 0x24FC JUMP JUMPDEST AND DUP3 MSTORE PUSH1 0x6 DUP2 MSTORE PUSH1 0x40 DUP3 KECCAK256 DUP1 SLOAD SWAP1 PUSH2 0xC7C DUP3 PUSH2 0x2BD7 JUMP JUMPDEST SWAP3 DUP1 DUP5 ADD SWAP2 DUP6 MSTORE DUP1 DUP6 KECCAK256 SWAP5 SWAP2 JUMPDEST DUP4 DUP4 LT PUSH2 0xC9E JUMPI PUSH1 0x40 MLOAD DUP1 PUSH2 0x21F DUP8 DUP3 PUSH2 0x25F3 JUMP JUMPDEST PUSH1 0x1 DUP3 DUP2 SWAP3 PUSH2 0xCAC DUP10 PUSH2 0x2B38 JUMP JUMPDEST DUP2 MSTORE ADD SWAP7 ADD SWAP3 ADD SWAP2 SWAP5 PUSH2 0xC89 JUMP JUMPDEST POP CALLVALUE PUSH2 0x1C0 JUMPI DUP1 PUSH1 0x3 NOT CALLDATASIZE ADD SLT PUSH2 0x1C0 JUMPI PUSH1 0x20 SWAP1 PUSH1 0x40 MLOAD SWAP1 DUP2 MSTORE RETURN JUMPDEST POP CALLVALUE PUSH2 0x1C0 JUMPI PUSH1 0x20 CALLDATASIZE PUSH1 0x3 NOT ADD SLT PUSH2 0x1C0 JUMPI PUSH1 0x4 CALLDATALOAD PUSH1 0x1 PUSH1 0x1 PUSH1 0x40 SHL SUB DUP2 GT PUSH2 0x23F JUMPI PUSH1 0x20 PUSH2 0xD0C PUSH2 0xD7B SWAP3 CALLDATASIZE SWAP1 PUSH1 0x4 ADD PUSH2 0x2491 JUMP JUMPDEST DUP4 PUSH2 0x180 PUSH1 0x40 MLOAD PUSH2 0xD1C DUP2 PUSH2 0x2454 JUMP JUMPDEST DUP3 DUP2 MSTORE DUP3 DUP6 DUP3 ADD MSTORE PUSH1 0x60 PUSH1 0x40 DUP3 ADD MSTORE PUSH1 0x60 DUP1 DUP3 ADD MSTORE PUSH1 0x60 PUSH1 0x80 DUP3 ADD MSTORE DUP3 PUSH1 0xA0 DUP3 ADD MSTORE DUP3 PUSH1 0xC0 DUP3 ADD MSTORE DUP3 PUSH1 0xE0 DUP3 ADD MSTORE DUP3 PUSH2 0x100 DUP3 ADD MSTORE DUP3 PUSH2 0x120 DUP3 ADD MSTORE DUP3 PUSH2 0x140 DUP3 ADD MSTORE DUP3 PUSH2 0x160 DUP3 ADD MSTORE ADD MSTORE DUP2 PUSH1 0x40 MLOAD SWAP4 DUP3 DUP6 DUP1 SWAP5 MLOAD SWAP4 DUP5 SWAP3 ADD PUSH2 0x25AD JUMP JUMPDEST DUP2 ADD PUSH1 0x4 DUP2 MSTORE SUB ADD SWAP1 KECCAK256 SWAP1 PUSH1 0x6 PUSH1 0x40 MLOAD SWAP3 PUSH2 0xD95 DUP5 PUSH2 0x2454 JUMP JUMPDEST DUP1 SLOAD PUSH1 0x1 PUSH1 0x1 PUSH1 0xA0 SHL SUB SWAP1 DUP2 AND DUP6 MSTORE PUSH1 0x1 DUP3 ADD SLOAD AND PUSH1 0x20 DUP6 ADD MSTORE PUSH2 0xDBB PUSH1 0x2 DUP3 ADD PUSH2 0x2B38 JUMP JUMPDEST PUSH1 0x40 DUP6 ADD MSTORE PUSH2 0xDCC PUSH1 0x3 DUP3 ADD PUSH2 0x2B38 JUMP JUMPDEST PUSH1 0x60 DUP6 ADD MSTORE PUSH2 0xDDD PUSH1 0x4 DUP3 ADD PUSH2 0x2B38 JUMP JUMPDEST PUSH1 0x80 DUP6 ADD MSTORE PUSH1 0x1 PUSH1 0x1 PUSH1 0x40 SHL SUB PUSH1 0x5 DUP3 ADD SLOAD PUSH1 0x1 PUSH1 0x1 PUSH1 0x60 SHL SUB DUP2 AND PUSH1 0xA0 DUP8 ADD MSTORE DUP2 DUP2 PUSH1 0x60 SHR AND PUSH1 0xC0 DUP8 ADD MSTORE PUSH1 0xA0 SHR AND PUSH1 0xE0 DUP6 ADD MSTORE ADD SLOAD SWAP1 PUSH1 0x1 PUSH1 0x1 PUSH1 0x40 SHL SUB DUP3 AND PUSH2 0x100 DUP5 ADD MSTORE PUSH1 0x1 PUSH1 0x1 PUSH1 0x40 SHL SUB DUP3 PUSH1 0x40 SHR AND PUSH2 0x120 DUP5 ADD MSTORE PUSH1 0x1 PUSH1 0x1 PUSH1 0x40 SHL SUB DUP3 PUSH1 0x80 SHR AND PUSH2 0x140 DUP5 ADD MSTORE PUSH1 0x6 PUSH1 0xFF DUP4 PUSH1 0xC0 SHR AND LT ISZERO PUSH2 0xF8C JUMPI POP DUP1 PUSH1 0xFF DUP1 SWAP3 PUSH1 0xC0 SHR AND PUSH2 0x160 DUP5 ADD MSTORE PUSH1 0xC8 SHR AND ISZERO ISZERO PUSH2 0x180 DUP3 ADD MSTORE PUSH1 0x40 MLOAD DUP1 SWAP2 PUSH1 0x20 DUP3 MSTORE PUSH1 0x1 DUP1 PUSH1 0xA0 SHL SUB DUP2 MLOAD AND PUSH1 0x20 DUP4 ADD MSTORE PUSH1 0x1 DUP1 PUSH1 0xA0 SHL SUB PUSH1 0x20 DUP3 ADD MLOAD AND PUSH1 0x40 DUP4 ADD MSTORE PUSH2 0x180 PUSH2 0xEF2 PUSH2 0xEC1 PUSH1 0x40 DUP5 ADD MLOAD PUSH2 0x1A0 PUSH1 0x60 DUP8 ADD MSTORE PUSH2 0x1C0 DUP7 ADD SWAP1 PUSH2 0x25CE JUMP JUMPDEST PUSH2 0xEDD PUSH1 0x60 DUP6 ADD MLOAD SWAP2 PUSH1 0x1F NOT SWAP3 DUP4 DUP9 DUP4 SUB ADD PUSH1 0x80 DUP10 ADD MSTORE PUSH2 0x25CE JUMP JUMPDEST SWAP1 PUSH1 0x80 DUP6 ADD MLOAD SWAP1 DUP7 DUP4 SUB ADD PUSH1 0xA0 DUP8 ADD MSTORE PUSH2 0x25CE JUMP JUMPDEST SWAP2 PUSH1 0x1 PUSH1 0x1 PUSH1 0x60 SHL SUB PUSH1 0xA0 DUP3 ADD MLOAD AND PUSH1 0xC0 DUP6 ADD MSTORE PUSH1 0x1 PUSH1 0x1 PUSH1 0x40 SHL SUB PUSH1 0xC0 DUP3 ADD MLOAD AND PUSH1 0xE0 DUP6 ADD MSTORE PUSH1 0x1 PUSH1 0x1 PUSH1 0x40 SHL SUB PUSH1 0xE0 DUP3 ADD MLOAD AND PUSH2 0x100 DUP6 ADD MSTORE PUSH1 0x1 PUSH1 0x1 PUSH1 0x40 SHL SUB PUSH2 0x100 DUP3 ADD MLOAD AND PUSH2 0x120 DUP6 ADD MSTORE PUSH1 0x1 PUSH1 0x1 PUSH1 0x40 SHL SUB PUSH2 0x120 DUP3 ADD MLOAD AND PUSH2 0x140 DUP6 ADD MSTORE PUSH1 0x1 PUSH1 0x1 PUSH1 0x40 SHL SUB PUSH2 0x140 DUP3 ADD MLOAD AND PUSH2 0x160 DUP6 ADD MSTORE PUSH2 0xF7E PUSH2 0x160 DUP3 ADD MLOAD DUP4 DUP7 ADD SWAP1 PUSH2 0x2654 JUMP JUMPDEST ADD MLOAD ISZERO ISZERO PUSH2 0x1A0 DUP4 ADD MSTORE SUB SWAP1 RETURN JUMPDEST PUSH4 0x4E487B71 PUSH1 0xE0 SHL DUP2 MSTORE PUSH1 0x21 PUSH1 0x4 MSTORE PUSH1 0x24 SWAP1 REVERT JUMPDEST POP CALLVALUE PUSH2 0x1C0 JUMPI PUSH1 0x40 CALLDATASIZE PUSH1 0x3 NOT ADD SLT PUSH2 0x1C0 JUMPI PUSH2 0xFBA PUSH2 0x24FC JUMP JUMPDEST PUSH1 0x24 CALLDATALOAD DUP1 ISZERO ISZERO DUP2 SUB PUSH2 0x5CE JUMPI ISZERO PUSH2 0x102A JUMPI PUSH1 0x1 PUSH1 0x1 PUSH1 0xA0 SHL SUB AND DUP2 MSTORE PUSH1 0x5 PUSH1 0x20 MSTORE PUSH1 0x40 DUP2 KECCAK256 JUMPDEST DUP1 SLOAD PUSH2 0xFEB DUP2 PUSH2 0x2BD7 JUMP JUMPDEST SWAP2 DUP4 MSTORE PUSH1 0x20 DUP1 DUP5 KECCAK256 SWAP4 SWAP1 DUP1 DUP5 ADD JUMPDEST DUP4 DUP4 LT PUSH2 0x100E JUMPI PUSH1 0x40 MLOAD DUP1 PUSH2 0x21F DUP8 DUP3 PUSH2 0x25F3 JUMP JUMPDEST PUSH1 0x1 DUP3 DUP2 SWAP3 PUSH2 0x101C DUP10 PUSH2 0x2B38 JUMP JUMPDEST DUP2 MSTORE ADD SWAP7 ADD SWAP3 ADD SWAP2 SWAP5 PUSH2 0xFF9 JUMP JUMPDEST PUSH1 0x1 PUSH1 0x1 PUSH1 0xA0 SHL SUB AND DUP2 MSTORE PUSH1 0x6 PUSH1 0x20 MSTORE PUSH1 0x40 DUP2 KECCAK256 PUSH2 0xFE0 JUMP JUMPDEST POP CALLVALUE PUSH2 0x1C0 JUMPI PUSH1 0xE0 CALLDATASIZE PUSH1 0x3 NOT ADD SLT PUSH2 0x1C0 JUMPI PUSH1 0x1 PUSH1 0x1 PUSH1 0x40 SHL SUB PUSH1 0x4 CALLDATALOAD DUP2 DUP2 GT PUSH2 0xA07 JUMPI PUSH2 0x1075 SWAP1 CALLDATASIZE SWAP1 PUSH1 0x4 ADD PUSH2 0x2491 JUMP JUMPDEST SWAP1 PUSH2 0x107E PUSH2 0x24E6 JUMP JUMPDEST SWAP1 PUSH1 0x44 CALLDATALOAD SWAP2 PUSH1 0x1 PUSH1 0x1 PUSH1 0x60 SHL SUB DUP4 AND DUP1 SWAP4 SUB PUSH2 0x151D JUMPI PUSH1 0x84 CALLDATALOAD PUSH1 0xFF DUP2 AND DUP1 SWAP2 SUB PUSH2 0xA03 JUMPI PUSH2 0x10AA PUSH2 0x29F9 JUMP JUMPDEST PUSH2 0x10B2 PUSH2 0x2675 JUMP JUMPDEST PUSH2 0x10BA PUSH2 0x29B5 JUMP JUMPDEST PUSH1 0x40 MLOAD SWAP5 DUP6 SWAP3 PUSH1 0xFF PUSH1 0x6 DUP6 DUP5 MLOAD PUSH1 0x20 SWAP8 DUP2 PUSH2 0x10DA DUP11 SWAP4 DUP5 DUP11 ADD SWAP15 DUP16 PUSH2 0x25AD JUMP JUMPDEST DUP2 ADD PUSH1 0x4 DUP2 MSTORE SUB ADD SWAP1 KECCAK256 ADD SLOAD PUSH1 0xC8 SHR AND ISZERO PUSH2 0x5BC JUMPI PUSH1 0x40 MLOAD SWAP3 DUP3 MLOAD PUSH2 0x1100 DUP2 DUP7 DUP12 PUSH2 0x25AD JUMP JUMPDEST DUP5 ADD PUSH1 0x4 DUP2 MSTORE DUP5 DUP7 PUSH1 0x1 DUP1 PUSH1 0xA0 SHL SUB SWAP7 DUP8 SWAP4 SUB ADD SWAP1 KECCAK256 SLOAD AND SWAP8 DUP5 DUP4 AND DUP1 SWAP10 SUB PUSH2 0x5AA JUMPI PUSH1 0xFF PUSH1 0x6 PUSH1 0x40 MLOAD DUP9 DUP2 DUP9 MLOAD PUSH2 0x1139 DUP2 DUP4 DUP10 PUSH2 0x25AD JUMP JUMPDEST DUP2 ADD PUSH1 0x4 DUP2 MSTORE SUB ADD SWAP1 KECCAK256 ADD SLOAD PUSH1 0xC0 SHR AND PUSH1 0x6 DUP2 LT ISZERO PUSH2 0x1509 JUMPI PUSH2 0x584 JUMPI DUP4 MLOAD ISZERO PUSH2 0x14F7 JUMPI DUP8 ISZERO PUSH2 0x14E5 JUMPI PUSH2 0x117B DUP7 PUSH1 0x5 SWAP3 PUSH1 0x40 MLOAD DUP1 SWAP4 DUP2 SWAP3 DUP10 MLOAD SWAP3 DUP4 SWAP2 PUSH2 0x25AD JUMP JUMPDEST DUP2 ADD PUSH1 0x4 DUP2 MSTORE SUB ADD SWAP1 KECCAK256 ADD SWAP2 DUP7 DUP4 SLOAD PUSH1 0xA0 SHR AND PUSH2 0x14D3 JUMPI PUSH32 0x0 SWAP5 DUP6 AND SWAP1 PUSH1 0x40 MLOAD PUSH4 0x70A08231 PUSH1 0xE0 SHL DUP2 MSTORE DUP11 PUSH1 0x4 DUP3 ADD MSTORE DUP8 DUP2 PUSH1 0x24 DUP2 DUP7 GAS STATICCALL DUP1 ISZERO PUSH2 0x14C8 JUMPI DUP11 SWAP2 DUP14 SWAP2 PUSH2 0x1493 JUMPI JUMPDEST POP LT PUSH2 0x1481 JUMPI DUP7 SWAP2 DUP4 ISZERO DUP1 ISZERO SWAP1 PUSH2 0x1476 JUMPI JUMPDEST DUP1 ISZERO PUSH2 0x146B JUMPI JUMPDEST PUSH2 0x1349 JUMPI JUMPDEST PUSH1 0x40 MLOAD PUSH4 0x6EB1769F PUSH1 0xE1 SHL DUP2 MSTORE PUSH1 0x1 PUSH1 0x1 PUSH1 0xA0 SHL SUB SWAP1 SWAP3 AND PUSH1 0x4 DUP4 ADD MSTORE ADDRESS PUSH1 0x24 DUP4 ADD MSTORE SWAP1 SWAP3 POP DUP3 SWAP1 DUP2 DUP1 PUSH1 0x44 DUP2 ADD JUMPDEST SUB SWAP2 GAS STATICCALL DUP1 ISZERO PUSH2 0x133E JUMPI DUP8 SWAP2 DUP11 SWAP2 PUSH2 0x130D JUMPI JUMPDEST POP LT PUSH2 0x12FB JUMPI PUSH1 0x40 MLOAD PUSH4 0x23B872DD PUSH1 0xE0 SHL DUP6 DUP3 ADD MSTORE PUSH1 0x24 DUP2 ADD DUP9 SWAP1 MSTORE ADDRESS PUSH1 0x44 DUP3 ADD MSTORE PUSH1 0x64 DUP1 DUP3 ADD DUP9 SWAP1 MSTORE DUP2 MSTORE SWAP5 PUSH1 0xA0 DUP7 ADD SWAP1 DUP2 GT DUP7 DUP3 LT OR PUSH2 0x12E7 JUMPI PUSH32 0x2C138F65913CD3B9CA6F36E4B59E26830A033A978CA69F935781972E6DF1F61D SWAP6 PUSH2 0x12D8 SWAP5 PUSH2 0x12AF SWAP3 PUSH1 0x40 MSTORE PUSH2 0x2A4D JUMP JUMPDEST DUP1 SLOAD PUSH8 0xFFFFFFFFFFFFFFFF PUSH1 0xA0 SHL NOT AND TIMESTAMP PUSH1 0xA0 SHL PUSH8 0xFFFFFFFFFFFFFFFF PUSH1 0xA0 SHL AND OR SWAP1 SSTORE PUSH2 0x2995 JUMP JUMPDEST SWAP3 PUSH1 0x40 MLOAD SWAP1 DUP2 MSTORE LOG3 PUSH1 0x1 DUP2 SSTORE DUP1 RETURN JUMPDEST PUSH4 0x4E487B71 PUSH1 0xE0 SHL PUSH0 MSTORE PUSH1 0x41 PUSH1 0x4 MSTORE PUSH1 0x24 PUSH0 REVERT JUMPDEST PUSH1 0x40 MLOAD PUSH4 0x13BE252B PUSH1 0xE0 SHL DUP2 MSTORE PUSH1 0x4 SWAP1 REVERT JUMPDEST DUP1 SWAP3 POP DUP7 DUP1 SWAP3 POP RETURNDATASIZE DUP4 GT PUSH2 0x1337 JUMPI JUMPDEST PUSH2 0x1326 DUP2 DUP4 PUSH2 0x2470 JUMP JUMPDEST DUP2 ADD SUB SLT PUSH2 0x5CE JUMPI DUP7 SWAP1 MLOAD PUSH0 PUSH2 0x1241 JUMP JUMPDEST POP RETURNDATASIZE PUSH2 0x131C JUMP JUMPDEST PUSH1 0x40 MLOAD RETURNDATASIZE DUP12 DUP3 RETURNDATACOPY RETURNDATASIZE SWAP1 REVERT JUMPDEST DUP1 SWAP3 POP SWAP3 SWAP1 SWAP3 EXTCODESIZE ISZERO PUSH2 0x1467 JUMPI PUSH1 0x40 MLOAD SWAP1 PUSH4 0xD505ACCF PUSH1 0xE0 SHL DUP3 MSTORE DUP11 PUSH1 0x4 DUP4 ADD MSTORE ADDRESS PUSH1 0x24 DUP4 ADD MSTORE DUP10 PUSH1 0x44 DUP4 ADD MSTORE PUSH1 0x64 CALLDATALOAD PUSH1 0x64 DUP4 ADD MSTORE PUSH1 0x84 DUP3 ADD MSTORE PUSH1 0xA4 CALLDATALOAD PUSH1 0xA4 DUP3 ADD MSTORE PUSH1 0xC4 CALLDATALOAD PUSH1 0xC4 DUP3 ADD MSTORE DUP11 DUP2 PUSH1 0xE4 DUP2 DUP4 DUP7 GAS CALL SWAP1 DUP2 PUSH2 0x143F JUMPI JUMPDEST POP PUSH2 0x13B9 JUMPI PUSH1 0x40 MLOAD PUSH4 0xB78CB0DD PUSH1 0xE0 SHL DUP2 MSTORE PUSH1 0x4 SWAP1 REVERT JUMPDEST PUSH1 0x40 MLOAD PUSH4 0x6EB1769F PUSH1 0xE1 SHL DUP2 MSTORE PUSH1 0x1 PUSH1 0x1 PUSH1 0xA0 SHL SUB DUP4 AND PUSH1 0x4 DUP3 ADD MSTORE ADDRESS PUSH1 0x24 DUP3 ADD MSTORE DUP7 DUP2 PUSH1 0x44 DUP2 DUP6 GAS STATICCALL DUP1 ISZERO PUSH2 0x1434 JUMPI DUP10 SWAP2 DUP13 SWAP2 PUSH2 0x1403 JUMPI JUMPDEST POP LT PUSH2 0x12FB JUMPI PUSH2 0x122E SWAP2 DUP7 SWAP2 PUSH2 0x11FF JUMP JUMPDEST DUP1 SWAP3 POP DUP9 DUP1 SWAP3 POP RETURNDATASIZE DUP4 GT PUSH2 0x142D JUMPI JUMPDEST PUSH2 0x141C DUP2 DUP4 PUSH2 0x2470 JUMP JUMPDEST DUP2 ADD SUB SLT PUSH2 0x5CE JUMPI DUP9 SWAP1 MLOAD PUSH0 PUSH2 0x13F2 JUMP JUMPDEST POP RETURNDATASIZE PUSH2 0x1412 JUMP JUMPDEST PUSH1 0x40 MLOAD RETURNDATASIZE DUP14 DUP3 RETURNDATACOPY RETURNDATASIZE SWAP1 REVERT JUMPDEST DUP9 DUP2 SWAP13 SWAP3 SWAP13 GT PUSH2 0x1453 JUMPI PUSH1 0x40 MSTORE SWAP10 PUSH0 PUSH2 0x13A2 JUMP JUMPDEST PUSH4 0x4E487B71 PUSH1 0xE0 SHL DUP3 MSTORE PUSH1 0x41 PUSH1 0x4 MSTORE PUSH1 0x24 DUP3 REVERT JUMPDEST DUP11 DUP1 REVERT JUMPDEST POP PUSH1 0xC4 CALLDATALOAD ISZERO ISZERO PUSH2 0x11FA JUMP JUMPDEST POP PUSH1 0xA4 CALLDATALOAD ISZERO ISZERO PUSH2 0x11F3 JUMP JUMPDEST PUSH1 0x40 MLOAD PUSH4 0x1E9ACF17 PUSH1 0xE3 SHL DUP2 MSTORE PUSH1 0x4 SWAP1 REVERT JUMPDEST DUP1 SWAP3 POP DUP10 DUP1 SWAP3 POP RETURNDATASIZE DUP4 GT PUSH2 0x14C1 JUMPI JUMPDEST PUSH2 0x14AC DUP2 DUP4 PUSH2 0x2470 JUMP JUMPDEST DUP2 ADD SUB SLT PUSH2 0x14BD JUMPI DUP10 SWAP1 MLOAD PUSH0 PUSH2 0x11E1 JUMP JUMPDEST DUP12 DUP1 REVERT JUMPDEST POP RETURNDATASIZE PUSH2 0x14A2 JUMP JUMPDEST PUSH1 0x40 MLOAD RETURNDATASIZE DUP15 DUP3 RETURNDATACOPY RETURNDATASIZE SWAP1 REVERT JUMPDEST PUSH1 0x40 MLOAD PUSH4 0x1924FCEB PUSH1 0xE3 SHL DUP2 MSTORE PUSH1 0x4 SWAP1 REVERT JUMPDEST PUSH1 0x40 MLOAD PUSH4 0x162908E3 PUSH1 0xE1 SHL DUP2 MSTORE PUSH1 0x4 SWAP1 REVERT JUMPDEST PUSH1 0x40 MLOAD PUSH4 0x5F0BE7AF PUSH1 0xE0 SHL DUP2 MSTORE PUSH1 0x4 SWAP1 REVERT JUMPDEST PUSH4 0x4E487B71 PUSH1 0xE0 SHL DUP12 MSTORE PUSH1 0x21 PUSH1 0x4 MSTORE PUSH1 0x24 DUP12 REVERT JUMPDEST DUP5 DUP1 REVERT JUMPDEST POP CALLVALUE PUSH2 0x1C0 JUMPI PUSH2 0x1530 CALLDATASIZE PUSH2 0x2512 JUMP JUMPDEST SWAP1 PUSH2 0x1539 PUSH2 0x2675 JUMP JUMPDEST PUSH2 0x1541 PUSH2 0x29B5 JUMP JUMPDEST PUSH1 0x40 MLOAD PUSH1 0xFF PUSH1 0x6 DUP4 MLOAD SWAP3 PUSH1 0x20 DUP2 DUP2 DUP8 ADD SWAP6 PUSH2 0x155D DUP2 DUP4 DUP10 PUSH2 0x25AD JUMP JUMPDEST DUP2 ADD PUSH1 0x4 DUP2 MSTORE SUB ADD SWAP1 KECCAK256 ADD SLOAD PUSH1 0xC8 SHR AND ISZERO PUSH2 0x5BC JUMPI PUSH1 0x40 MLOAD DUP3 MLOAD PUSH2 0x1582 DUP2 DUP4 DUP6 PUSH2 0x25AD JUMP JUMPDEST PUSH1 0x4 SWAP1 DUP3 ADD SWAP1 DUP2 MSTORE DUP2 SWAP1 SUB PUSH1 0x20 ADD SWAP1 KECCAK256 PUSH1 0x1 ADD SLOAD PUSH1 0x1 PUSH1 0x1 PUSH1 0xA0 SHL SUB SWAP4 DUP5 AND SWAP4 AND DUP4 SWAP1 SUB PUSH2 0x5AA JUMPI PUSH1 0xFF PUSH1 0x6 PUSH1 0x40 MLOAD PUSH1 0x20 DUP2 DUP7 MLOAD PUSH2 0x15C1 DUP2 DUP4 DUP10 PUSH2 0x25AD JUMP JUMPDEST DUP2 ADD PUSH1 0x4 DUP2 MSTORE SUB ADD SWAP1 KECCAK256 ADD SLOAD PUSH1 0xC0 SHR AND PUSH1 0x6 DUP2 LT ISZERO PUSH2 0x166E JUMPI PUSH2 0x584 JUMPI PUSH1 0x20 PUSH2 0x15F5 SWAP2 PUSH1 0x40 MLOAD DUP1 SWAP4 DUP2 SWAP3 DUP7 MLOAD SWAP3 DUP4 SWAP2 PUSH2 0x25AD JUMP JUMPDEST DUP2 ADD PUSH1 0x4 DUP2 MSTORE SUB ADD SWAP1 KECCAK256 SWAP1 PUSH1 0x1 PUSH1 0x1 PUSH1 0x40 SHL SUB PUSH1 0x5 DUP4 ADD SLOAD PUSH1 0xA0 SHR AND ISZERO PUSH2 0x165C JUMPI PUSH1 0x6 SWAP2 SWAP1 SWAP2 ADD DUP1 SLOAD PUSH1 0xFF PUSH1 0xC0 SHL NOT AND PUSH1 0x1 PUSH1 0xC0 SHL OR SWAP1 SSTORE PUSH2 0x1636 SWAP1 PUSH2 0x2995 JUMP JUMPDEST PUSH31 0xCAEC7345D2EB04A42197AC2A2CD7CD74A00B2991B69BB53E23465D4092FDFB DUP4 DUP1 LOG3 DUP1 RETURN JUMPDEST PUSH1 0x40 MLOAD PUSH4 0x47510BBD PUSH1 0xE1 SHL DUP2 MSTORE PUSH1 0x4 SWAP1 REVERT JUMPDEST PUSH4 0x4E487B71 PUSH1 0xE0 SHL DUP6 MSTORE PUSH1 0x21 PUSH1 0x4 MSTORE PUSH1 0x24 DUP6 REVERT JUMPDEST POP CALLVALUE PUSH2 0x1C0 JUMPI PUSH1 0x40 CALLDATASIZE PUSH1 0x3 NOT ADD SLT PUSH2 0x1C0 JUMPI PUSH2 0x169C PUSH2 0x24FC JUMP JUMPDEST PUSH1 0x24 CALLDATALOAD PUSH2 0x16A7 PUSH2 0x2675 JUMP JUMPDEST PUSH1 0x1 PUSH1 0x1 PUSH1 0xA0 SHL SUB SWAP2 DUP3 AND SWAP2 PUSH32 0x0 AND DUP3 EQ PUSH2 0x16EC JUMPI DUP1 ISZERO PUSH2 0x14E5 JUMPI PUSH2 0x1BD SWAP2 CALLER SWAP1 PUSH2 0x2AE9 JUMP JUMPDEST PUSH1 0x40 MLOAD PUSH4 0x18BA2FC1 PUSH1 0xE3 SHL DUP2 MSTORE PUSH1 0x4 SWAP1 REVERT JUMPDEST POP CALLVALUE PUSH2 0x1C0 JUMPI PUSH1 0x40 CALLDATASIZE PUSH1 0x3 NOT ADD SLT PUSH2 0x1C0 JUMPI PUSH1 0xFF PUSH1 0x40 PUSH1 0x20 SWAP3 PUSH2 0x171F PUSH2 0x24E6 JUMP JUMPDEST PUSH1 0x4 CALLDATALOAD DUP3 MSTORE PUSH1 0x2 DUP6 MSTORE DUP3 DUP3 KECCAK256 PUSH1 0x1 PUSH1 0x1 PUSH1 0xA0 SHL SUB SWAP1 SWAP2 AND DUP3 MSTORE DUP5 MSTORE KECCAK256 SLOAD PUSH1 0x40 MLOAD SWAP2 AND ISZERO ISZERO DUP2 MSTORE RETURN JUMPDEST POP CALLVALUE PUSH2 0x1C0 JUMPI DUP1 PUSH1 0x3 NOT CALLDATASIZE ADD SLT PUSH2 0x1C0 JUMPI PUSH2 0x1760 PUSH2 0x2675 JUMP JUMPDEST PUSH2 0x1768 PUSH2 0x29B5 JUMP JUMPDEST PUSH1 0x1 PUSH1 0xFF NOT DUP2 SLOAD AND OR PUSH1 0x1 SSTORE PUSH32 0x62E78CEA01BEE320CD4E420270B5EA74000D11B0C9F74754EBDBFC544B05A258 PUSH1 0x20 PUSH1 0x40 MLOAD CALLER DUP2 MSTORE LOG1 DUP1 RETURN JUMPDEST POP CALLVALUE PUSH2 0x1C0 JUMPI PUSH1 0x20 CALLDATASIZE PUSH1 0x3 NOT ADD SLT PUSH2 0x1C0 JUMPI PUSH1 0x1 PUSH1 0x1 PUSH1 0x40 SHL SUB PUSH1 0x4 CALLDATALOAD DUP2 DUP2 GT PUSH2 0xA07 JUMPI PUSH2 0x17DA PUSH1 0x20 PUSH2 0x60B PUSH1 0x6 SWAP4 CALLDATASIZE SWAP1 PUSH1 0x4 ADD PUSH2 0x2491 JUMP JUMPDEST DUP2 ADD PUSH1 0x4 DUP2 MSTORE SUB ADD SWAP1 KECCAK256 ADD SLOAD SWAP1 PUSH1 0xFF DUP3 PUSH1 0xC8 SHR AND SWAP2 DUP3 PUSH2 0x181B JUMPI JUMPDEST PUSH1 0x20 SWAP4 POP DUP3 PUSH2 0x180B JUMPI JUMPDEST POP POP PUSH1 0x40 MLOAD SWAP1 ISZERO ISZERO DUP2 MSTORE RETURN JUMPDEST PUSH1 0x40 SHR AND TIMESTAMP LT ISZERO SWAP1 POP PUSH0 DUP1 PUSH2 0x17FF JUMP JUMPDEST SWAP2 POP PUSH1 0xFF DUP3 PUSH1 0xC0 SHR AND SWAP3 PUSH1 0x6 DUP5 LT ISZERO PUSH2 0xF8C JUMPI POP PUSH1 0x2 PUSH1 0x20 SWAP4 EQ SWAP2 PUSH2 0x17F5 JUMP JUMPDEST POP CALLVALUE PUSH2 0x1C0 JUMPI DUP1 PUSH1 0x3 NOT CALLDATASIZE ADD SLT PUSH2 0x1C0 JUMPI PUSH1 0x20 PUSH1 0xFF PUSH1 0x1 SLOAD AND PUSH1 0x40 MLOAD SWAP1 ISZERO ISZERO DUP2 MSTORE RETURN JUMPDEST POP CALLVALUE PUSH2 0x1C0 JUMPI PUSH2 0x186D CALLDATASIZE PUSH2 0x2553 JUMP JUMPDEST PUSH2 0x1878 SWAP3 SWAP2 SWAP3 PUSH2 0x2675 JUMP JUMPDEST PUSH2 0x1880 PUSH2 0x29B5 JUMP JUMPDEST PUSH1 0x40 MLOAD DUP3 MLOAD PUSH1 0xFF PUSH1 0x6 PUSH1 0x20 SWAP4 DUP5 DUP2 DUP2 DUP10 ADD SWAP6 PUSH2 0x189D DUP2 DUP4 DUP10 PUSH2 0x25AD JUMP JUMPDEST DUP2 ADD PUSH1 0x4 DUP2 MSTORE SUB ADD SWAP1 KECCAK256 ADD SLOAD PUSH1 0xC8 SHR AND ISZERO PUSH2 0x5BC JUMPI PUSH1 0x40 MLOAD DUP5 MLOAD PUSH2 0x18C2 DUP2 DUP4 DUP6 PUSH2 0x25AD JUMP JUMPDEST PUSH1 0x4 SWAP1 DUP3 ADD SWAP1 DUP2 MSTORE DUP2 SWAP1 SUB DUP4 ADD SWAP1 KECCAK256 PUSH1 0x1 ADD SLOAD PUSH1 0x1 PUSH1 0x1 PUSH1 0xA0 SHL SUB SWAP6 DUP7 AND SWAP6 AND DUP6 SWAP1 SUB PUSH2 0x5AA JUMPI PUSH1 0xFF PUSH1 0x6 PUSH1 0x40 MLOAD DUP5 DUP2 DUP9 MLOAD PUSH2 0x18FF DUP2 DUP4 DUP10 PUSH2 0x25AD JUMP JUMPDEST DUP2 ADD PUSH1 0x4 DUP2 MSTORE SUB ADD SWAP1 KECCAK256 ADD SLOAD PUSH1 0xC0 SHR AND PUSH1 0x6 DUP2 LT ISZERO PUSH2 0x596 JUMPI PUSH1 0x1 SUB PUSH2 0x584 JUMPI DUP2 PUSH2 0x1935 SWAP2 PUSH1 0x40 MLOAD DUP1 SWAP4 DUP2 SWAP3 DUP9 MLOAD SWAP3 DUP4 SWAP2 PUSH2 0x25AD JUMP JUMPDEST DUP2 ADD PUSH1 0x4 DUP2 MSTORE SUB ADD SWAP1 KECCAK256 PUSH1 0x1 PUSH1 0x1 PUSH1 0x40 SHL SUB SWAP1 DUP2 PUSH1 0x5 DUP3 ADD SLOAD PUSH1 0x60 SHR AND TIMESTAMP GT PUSH2 0x1A41 JUMPI DUP4 MLOAD ISZERO PUSH2 0x1A2F JUMPI PUSH1 0x6 DUP2 ADD SWAP1 DUP2 SLOAD PUSH3 0x3F480 TIMESTAMP ADD SWAP1 DUP2 TIMESTAMP GT PUSH2 0x1A1B JUMPI PUSH25 0xFF0000000000000000FFFFFFFFFFFFFFFFFFFFFFFFFFFFFFFF NOT AND TIMESTAMP DUP6 AND OR PUSH1 0x40 SWAP2 SWAP1 SWAP2 SHL PUSH16 0xFFFFFFFFFFFFFFFF0000000000000000 AND OR PUSH1 0x1 PUSH1 0xC1 SHL OR DUP3 SSTORE PUSH32 0x934109F661B65DBCCFFCAE4F7EE04261EB7B36E5136E1CA86DDE1B00598CB031 SWAP5 PUSH2 0x1A11 SWAP5 SWAP1 SWAP4 SWAP1 SWAP3 PUSH2 0x19FC SWAP3 PUSH2 0x19F1 SWAP1 DUP7 SWAP1 PUSH1 0x4 ADD PUSH2 0x2851 JUMP JUMPDEST SLOAD PUSH1 0x40 SHR AND SWAP6 PUSH2 0x2995 JUMP JUMPDEST SWAP5 PUSH1 0x40 MLOAD SWAP4 DUP5 SWAP4 PUSH1 0x40 DUP6 MSTORE PUSH1 0x40 DUP6 ADD SWAP1 PUSH2 0x25CE JUMP JUMPDEST SWAP2 DUP4 ADD MSTORE SUB SWAP1 LOG3 DUP1 RETURN JUMPDEST PUSH4 0x4E487B71 PUSH1 0xE0 SHL DUP11 MSTORE PUSH1 0x11 PUSH1 0x4 MSTORE PUSH1 0x24 DUP11 REVERT JUMPDEST PUSH1 0x40 MLOAD PUSH4 0x361178C7 PUSH1 0xE0 SHL DUP2 MSTORE PUSH1 0x4 SWAP1 REVERT JUMPDEST PUSH1 0x40 MLOAD PUSH4 0x764B8E33 PUSH1 0xE1 SHL DUP2 MSTORE PUSH1 0x4 SWAP1 REVERT JUMPDEST POP CALLVALUE PUSH2 0x1C0 JUMPI DUP1 PUSH1 0x3 NOT CALLDATASIZE ADD SLT PUSH2 0x1C0 JUMPI PUSH1 0x20 PUSH1 0x3 SLOAD PUSH1 0x60 SHR PUSH1 0x40 MLOAD SWAP1 DUP2 MSTORE RETURN JUMPDEST POP CALLVALUE PUSH2 0x1C0 JUMPI DUP1 PUSH1 0x3 NOT CALLDATASIZE ADD SLT PUSH2 0x1C0 JUMPI PUSH2 0x1A8D PUSH2 0x2675 JUMP JUMPDEST PUSH1 0x1 SLOAD PUSH1 0xFF DUP2 AND ISZERO PUSH2 0x1ACD JUMPI PUSH1 0xFF NOT AND PUSH1 0x1 SSTORE PUSH32 0x5DB9EE0A495BF2E6FF9C91A7834C1BA4FDD244A5E8AA4E537BD38AEAE4B073AA PUSH1 0x20 PUSH1 0x40 MLOAD CALLER DUP2 MSTORE LOG1 DUP1 RETURN JUMPDEST PUSH1 0x40 MLOAD PUSH3 0x461BCD PUSH1 0xE5 SHL DUP2 MSTORE PUSH1 0x20 PUSH1 0x4 DUP3 ADD MSTORE PUSH1 0x14 PUSH1 0x24 DUP3 ADD MSTORE PUSH20 0x14185D5CD8589B194E881B9BDD081C185D5CD959 PUSH1 0x62 SHL PUSH1 0x44 DUP3 ADD MSTORE PUSH1 0x64 SWAP1 REVERT JUMPDEST POP CALLVALUE PUSH2 0x1C0 JUMPI PUSH1 0x20 CALLDATASIZE PUSH1 0x3 NOT ADD SLT PUSH2 0x1C0 JUMPI PUSH1 0x1 PUSH1 0x1 PUSH1 0x40 SHL SUB PUSH1 0x4 CALLDATALOAD DUP2 DUP2 GT PUSH2 0xA07 JUMPI PUSH2 0x1B3B SWAP1 CALLDATASIZE SWAP1 PUSH1 0x4 ADD PUSH2 0x2491 JUMP JUMPDEST SWAP1 PUSH2 0x1B44 PUSH2 0x29F9 JUMP JUMPDEST PUSH2 0x1B4C PUSH2 0x2675 JUMP JUMPDEST PUSH2 0x1B54 PUSH2 0x29B5 JUMP JUMPDEST PUSH1 0x40 MLOAD PUSH1 0xFF PUSH1 0x6 DUP5 MLOAD SWAP3 PUSH1 0x20 DUP2 DUP2 DUP9 ADD SWAP6 PUSH2 0x1B70 DUP2 DUP4 DUP10 PUSH2 0x25AD JUMP JUMPDEST DUP2 ADD PUSH1 0x4 DUP2 MSTORE SUB ADD SWAP1 KECCAK256 ADD SLOAD PUSH1 0xC8 SHR AND ISZERO PUSH2 0x5BC JUMPI PUSH1 0xFF PUSH1 0x6 PUSH1 0x40 MLOAD PUSH1 0x20 DUP2 DUP8 MLOAD PUSH2 0x1B9C DUP2 DUP4 DUP10 PUSH2 0x25AD JUMP JUMPDEST DUP2 ADD PUSH1 0x4 DUP2 MSTORE SUB ADD SWAP1 KECCAK256 ADD SLOAD PUSH1 0xC0 SHR AND PUSH1 0x6 DUP2 LT ISZERO PUSH2 0x166E JUMPI PUSH1 0x2 SUB PUSH2 0x584 JUMPI PUSH1 0x20 PUSH2 0x1BD3 SWAP2 PUSH1 0x40 MLOAD DUP1 SWAP4 DUP2 SWAP3 DUP8 MLOAD SWAP3 DUP4 SWAP2 PUSH2 0x25AD JUMP JUMPDEST DUP2 ADD PUSH1 0x4 DUP2 MSTORE SUB ADD SWAP1 KECCAK256 PUSH1 0x6 DUP2 ADD DUP1 SLOAD SWAP3 DUP4 PUSH1 0x40 SHR AND TIMESTAMP LT PUSH2 0x1CBF JUMPI PUSH2 0x4B7 PUSH0 DUP1 MLOAD PUSH1 0x20 PUSH2 0x2D26 DUP4 CODECOPY DUP2 MLOAD SWAP2 MSTORE SWAP3 PUSH1 0x1 PUSH1 0x1 PUSH1 0x60 SHL SUB DUP1 PUSH1 0x5 DUP4 ADD SLOAD AND SWAP4 PUSH2 0x1C2F PUSH2 0x2710 DUP4 PUSH2 0x1C26 DUP2 PUSH1 0x3 SLOAD AND DUP10 PUSH2 0x2AB2 JUMP JUMPDEST AND DIV DUP1 SWAP7 PUSH2 0x2AD0 JUMP JUMPDEST PUSH1 0xFF PUSH1 0xC0 SHL NOT SWAP1 SWAP8 AND PUSH1 0x1 PUSH1 0xC2 SHL OR SWAP1 SSTORE PUSH32 0x0 SWAP1 DUP1 DUP8 AND DUP1 PUSH2 0x1CA0 JUMPI JUMPDEST POP DUP5 AND DUP1 PUSH2 0x1C89 JUMPI JUMPDEST POP POP PUSH1 0x1 ADD SLOAD PUSH1 0x1 PUSH1 0x1 PUSH1 0xA0 SHL SUB AND SWAP5 PUSH2 0x2995 JUMP JUMPDEST PUSH2 0x1C99 SWAP2 PUSH1 0x3 SLOAD PUSH1 0x60 SHR SWAP1 PUSH2 0x2AE9 JUMP JUMPDEST PUSH0 DUP1 PUSH2 0x1C74 JUMP JUMPDEST PUSH1 0x1 DUP5 ADD SLOAD PUSH2 0x1CB9 SWAP2 SWAP1 PUSH1 0x1 PUSH1 0x1 PUSH1 0xA0 SHL SUB AND DUP5 PUSH2 0x2AE9 JUMP JUMPDEST PUSH0 PUSH2 0x1C6B JUMP JUMPDEST PUSH1 0x40 MLOAD PUSH4 0x2D6BF645 PUSH1 0xE0 SHL DUP2 MSTORE PUSH1 0x4 SWAP1 REVERT JUMPDEST POP CALLVALUE PUSH2 0x1C0 JUMPI PUSH1 0x40 CALLDATASIZE PUSH1 0x3 NOT ADD SLT PUSH2 0x1C0 JUMPI PUSH2 0x1CEB PUSH2 0x24E6 JUMP JUMPDEST CALLER PUSH1 0x1 PUSH1 0x1 PUSH1 0xA0 SHL SUB DUP3 AND SUB PUSH2 0x1D07 JUMPI PUSH2 0xC3E SWAP1 PUSH1 0x4 CALLDATALOAD PUSH2 0x278E JUMP JUMPDEST PUSH1 0x40 MLOAD PUSH4 0x334BD919 PUSH1 0xE1 SHL DUP2 MSTORE PUSH1 0x4 SWAP1 REVERT JUMPDEST POP CALLVALUE PUSH2 0x1C0 JUMPI PUSH1 0x20 CALLDATASIZE PUSH1 0x3 NOT ADD SLT PUSH2 0x1C0 JUMPI PUSH1 0x4 CALLDATALOAD PUSH1 0x1 PUSH1 0x1 PUSH1 0x60 SHL SUB DUP2 AND DUP2 SUB PUSH2 0x23F JUMPI PUSH2 0x1BD SWAP1 PUSH2 0x1D4A PUSH2 0x2675 JUMP JUMPDEST PUSH2 0x2BFE JUMP JUMPDEST POP CALLVALUE PUSH2 0x1C0 JUMPI PUSH1 0x40 CALLDATASIZE PUSH1 0x3 NOT ADD SLT PUSH2 0x1C0 JUMPI PUSH2 0xC3E PUSH1 0x4 CALLDATALOAD PUSH2 0x1D6F PUSH2 0x24E6 JUMP JUMPDEST SWAP1 DUP1 DUP5 MSTORE PUSH1 0x2 PUSH1 0x20 MSTORE PUSH2 0x1D88 PUSH1 0x1 PUSH1 0x40 DUP7 KECCAK256 ADD SLOAD PUSH2 0x26EE JUMP JUMPDEST PUSH2 0x2710 JUMP JUMPDEST POP CALLVALUE PUSH2 0x1C0 JUMPI PUSH2 0x1D9C CALLDATASIZE PUSH2 0x2512 JUMP JUMPDEST PUSH2 0x1DA4 PUSH2 0x29F9 JUMP JUMPDEST PUSH2 0x1DAC PUSH2 0x2675 JUMP JUMPDEST PUSH2 0x1DB4 PUSH2 0x29B5 JUMP JUMPDEST PUSH1 0x40 MLOAD PUSH1 0xFF PUSH1 0x6 DUP5 MLOAD SWAP3 PUSH1 0x20 DUP2 DUP2 DUP9 ADD SWAP6 PUSH2 0x1DD0 DUP2 DUP4 DUP10 PUSH2 0x25AD JUMP JUMPDEST DUP2 ADD PUSH1 0x4 DUP2 MSTORE SUB ADD SWAP1 KECCAK256 ADD SLOAD PUSH1 0xC8 SHR AND ISZERO PUSH2 0x5BC JUMPI PUSH1 0x20 PUSH1 0x40 MLOAD DUP5 MLOAD PUSH2 0x1DF7 DUP2 DUP4 DUP7 PUSH2 0x25AD JUMP JUMPDEST DUP2 ADD PUSH1 0x4 DUP2 MSTORE DUP2 PUSH1 0x1 DUP1 PUSH1 0xA0 SHL SUB SWAP4 DUP5 SWAP4 DUP5 SWAP4 SUB ADD SWAP1 KECCAK256 SLOAD AND SWAP4 AND DUP1 SWAP4 SUB PUSH2 0x5AA JUMPI PUSH1 0xFF PUSH1 0x6 PUSH1 0x40 MLOAD PUSH1 0x20 DUP2 DUP9 MLOAD PUSH2 0x1E30 DUP2 DUP4 DUP11 PUSH2 0x25AD JUMP JUMPDEST DUP2 ADD PUSH1 0x4 DUP2 MSTORE SUB ADD SWAP1 KECCAK256 ADD SLOAD PUSH1 0xC0 SHR AND PUSH1 0x6 DUP2 LT ISZERO PUSH2 0xBA3 JUMPI PUSH1 0x2 SUB PUSH2 0x584 JUMPI PUSH2 0x4B7 PUSH2 0x1E78 PUSH1 0x20 PUSH0 DUP1 MLOAD PUSH1 0x20 PUSH2 0x2D26 DUP4 CODECOPY DUP2 MLOAD SWAP2 MSTORE SWAP5 PUSH1 0x40 MLOAD DUP1 SWAP4 DUP2 SWAP3 DUP11 MLOAD SWAP3 DUP4 SWAP2 PUSH2 0x25AD JUMP JUMPDEST DUP2 ADD PUSH1 0x4 DUP2 MSTORE SUB ADD SWAP1 KECCAK256 SWAP2 PUSH1 0x1 PUSH1 0x1 PUSH1 0x1 PUSH1 0x60 SHL SUB SWAP4 DUP5 PUSH1 0x5 DUP3 ADD SLOAD AND SWAP5 PUSH2 0x1EB4 PUSH2 0x2710 DUP3 PUSH2 0x1EAB DUP2 PUSH1 0x3 SLOAD AND DUP11 PUSH2 0x2AB2 JUMP JUMPDEST AND DIV DUP1 SWAP8 PUSH2 0x2AD0 JUMP JUMPDEST PUSH1 0x6 DUP4 ADD DUP1 SLOAD PUSH1 0xFF PUSH1 0xC0 SHL NOT AND PUSH1 0xC2 DUP7 SWAP1 SHL OR SWAP1 SSTORE SWAP8 PUSH2 0x1ED3 DUP11 PUSH2 0x2995 JUMP JUMPDEST PUSH31 0xCAEC7345D2EB04A42197AC2A2CD7CD74A00B2991B69BB53E23465D4092FDFB DUP13 DUP1 LOG3 PUSH32 0x0 SWAP1 DUP1 DUP10 AND DUP1 PUSH2 0x1F4C JUMPI JUMPDEST POP DUP7 AND DUP1 PUSH2 0x1F35 JUMPI JUMPDEST POP POP ADD SLOAD AND SWAP5 PUSH2 0x2995 JUMP JUMPDEST PUSH2 0x1F45 SWAP2 PUSH1 0x3 SLOAD PUSH1 0x60 SHR SWAP1 PUSH2 0x2AE9 JUMP JUMPDEST PUSH0 DUP1 PUSH2 0x1F2A JUMP JUMPDEST PUSH2 0x1F5C SWAP1 DUP7 DUP7 DUP7 ADD SLOAD AND DUP5 PUSH2 0x2AE9 JUMP JUMPDEST PUSH0 PUSH2 0x1F21 JUMP JUMPDEST POP CALLVALUE PUSH2 0x1C0 JUMPI PUSH1 0x20 CALLDATASIZE PUSH1 0x3 NOT ADD SLT PUSH2 0x1C0 JUMPI PUSH1 0x1 PUSH1 0x40 PUSH1 0x20 SWAP3 PUSH1 0x4 CALLDATALOAD DUP2 MSTORE PUSH1 0x2 DUP5 MSTORE KECCAK256 ADD SLOAD PUSH1 0x40 MLOAD SWAP1 DUP2 MSTORE RETURN JUMPDEST POP CALLVALUE PUSH2 0x1C0 JUMPI DUP1 PUSH1 0x3 NOT CALLDATASIZE ADD SLT PUSH2 0x1C0 JUMPI PUSH1 0x20 PUSH1 0x1 PUSH1 0x1 PUSH1 0x60 SHL SUB PUSH1 0x3 SLOAD AND PUSH1 0x40 MLOAD SWAP1 DUP2 MSTORE RETURN JUMPDEST POP CALLVALUE PUSH2 0x1C0 JUMPI PUSH1 0x20 CALLDATASIZE PUSH1 0x3 NOT ADD SLT PUSH2 0x1C0 JUMPI PUSH1 0x4 CALLDATALOAD PUSH1 0x1 PUSH1 0x1 PUSH1 0x40 SHL SUB DUP2 GT PUSH2 0x23F JUMPI PUSH2 0x1FE7 SWAP1 CALLDATASIZE SWAP1 PUSH1 0x4 ADD PUSH2 0x2491 JUMP JUMPDEST PUSH2 0x1FEF PUSH2 0x29F9 JUMP JUMPDEST PUSH2 0x1FF7 PUSH2 0x2675 JUMP JUMPDEST PUSH1 0x40 MLOAD PUSH1 0xFF PUSH1 0x6 DUP4 MLOAD SWAP3 PUSH1 0x20 DUP2 DUP2 DUP8 ADD SWAP6 PUSH2 0x2013 DUP2 DUP4 DUP10 PUSH2 0x25AD JUMP JUMPDEST DUP2 ADD PUSH1 0x4 DUP2 MSTORE SUB ADD SWAP1 KECCAK256 ADD SLOAD PUSH1 0xC8 SHR AND ISZERO PUSH2 0x5BC JUMPI PUSH1 0x20 PUSH2 0x203F SWAP2 PUSH1 0x40 MLOAD DUP1 SWAP4 DUP2 SWAP3 DUP7 MLOAD SWAP3 DUP4 SWAP2 PUSH2 0x25AD JUMP JUMPDEST DUP2 ADD PUSH1 0x4 DUP2 MSTORE SUB ADD SWAP1 KECCAK256 SWAP1 PUSH1 0x6 DUP3 ADD SWAP1 DUP2 SLOAD SWAP3 PUSH1 0xFF DUP5 PUSH1 0xC0 SHR AND PUSH1 0x6 DUP2 LT ISZERO PUSH2 0xBA3 JUMPI PUSH1 0x1 DUP2 SUB PUSH2 0x210C JUMPI JUMPDEST POP PUSH2 0x209C SWAP3 PUSH1 0x1 PUSH1 0x1 PUSH1 0x60 SHL SUB PUSH1 0x5 DUP4 ADD SLOAD AND SWAP5 PUSH1 0x5 PUSH1 0xC0 SHL SWAP1 PUSH1 0xFF PUSH1 0xC0 SHL NOT AND OR SWAP1 SSTORE DUP4 DUP1 PUSH2 0x20CF JUMPI POP POP PUSH2 0x2995 JUMP JUMPDEST PUSH1 0x40 MLOAD SWAP2 DUP3 MSTORE PUSH32 0xB559D285C87E4FA0F561388264310703FF0C6C454A39AE52D0AE94032FF0DB70 PUSH1 0x20 CALLER SWAP4 LOG3 PUSH1 0x1 DUP2 SSTORE DUP1 RETURN JUMPDEST SWAP1 SLOAD PUSH2 0x2105 SWAP2 SWAP1 PUSH1 0x1 PUSH1 0x1 PUSH1 0xA0 SHL SUB AND PUSH32 0x0 PUSH2 0x2AE9 JUMP JUMPDEST PUSH0 DUP4 PUSH2 0xB3C JUMP JUMPDEST PUSH1 0x2 SUB PUSH2 0x2119 JUMPI PUSH0 PUSH2 0x206B JUMP JUMPDEST PUSH1 0x40 MLOAD PUSH4 0x4DF0CAD PUSH1 0xE3 SHL DUP2 MSTORE PUSH1 0x4 SWAP1 REVERT JUMPDEST POP CALLVALUE PUSH2 0x1C0 JUMPI DUP1 PUSH1 0x3 NOT CALLDATASIZE ADD SLT PUSH2 0x1C0 JUMPI PUSH1 0x20 PUSH1 0x40 MLOAD PUSH32 0xA8A7BC421F721CB936EA99EFDAD79237E6EE0B871A2A08CF648691F9584CDC77 DUP2 MSTORE RETURN JUMPDEST POP CALLVALUE PUSH2 0x1C0 JUMPI PUSH2 0x2175 CALLDATASIZE PUSH2 0x2553 JUMP JUMPDEST SWAP1 SWAP2 PUSH2 0x217F PUSH2 0x2675 JUMP JUMPDEST PUSH2 0x2187 PUSH2 0x29B5 JUMP JUMPDEST PUSH1 0x40 MLOAD SWAP2 DUP2 MLOAD PUSH1 0xFF PUSH1 0x6 PUSH1 0x20 SWAP6 DUP7 DUP2 DUP2 DUP9 ADD SWAP6 PUSH2 0x21A5 DUP2 DUP4 DUP10 PUSH2 0x25AD JUMP JUMPDEST DUP2 ADD PUSH1 0x4 DUP2 MSTORE SUB ADD SWAP1 KECCAK256 ADD SLOAD PUSH1 0xC8 SHR AND ISZERO PUSH2 0x5BC JUMPI PUSH1 0x40 MLOAD DUP4 MLOAD PUSH2 0x21CA DUP2 DUP4 DUP6 PUSH2 0x25AD JUMP JUMPDEST PUSH1 0x4 SWAP1 DUP3 ADD SWAP1 DUP2 MSTORE DUP2 SWAP1 SUB DUP6 ADD SWAP1 KECCAK256 SLOAD PUSH1 0x1 PUSH1 0x1 PUSH1 0xA0 SHL SUB SWAP6 DUP7 AND SWAP6 AND DUP6 SWAP1 SUB PUSH2 0x5AA JUMPI PUSH1 0xFF PUSH1 0x6 PUSH1 0x40 MLOAD DUP7 DUP2 DUP8 MLOAD PUSH2 0x2204 DUP2 DUP4 DUP10 PUSH2 0x25AD JUMP JUMPDEST DUP2 ADD PUSH1 0x4 DUP2 MSTORE SUB ADD SWAP1 KECCAK256 ADD SLOAD PUSH1 0xC0 SHR AND PUSH1 0x6 DUP2 LT ISZERO PUSH2 0x596 JUMPI PUSH1 0x2 SUB PUSH2 0x584 JUMPI PUSH2 0x223C DUP5 PUSH1 0x6 SWAP3 PUSH1 0x40 MLOAD DUP1 SWAP4 DUP2 SWAP3 DUP9 MLOAD SWAP3 DUP4 SWAP2 PUSH2 0x25AD JUMP JUMPDEST DUP2 ADD PUSH1 0x4 DUP2 MSTORE SUB ADD SWAP1 KECCAK256 ADD SWAP2 DUP3 SLOAD SWAP1 PUSH1 0x1 PUSH1 0x1 PUSH1 0x40 SHL SUB DUP3 PUSH1 0x40 SHR AND TIMESTAMP LT ISZERO PUSH2 0x22D0 JUMPI DUP3 MLOAD ISZERO PUSH2 0x22BE JUMPI PUSH1 0xFF PUSH1 0xC0 SHL NOT SWAP1 SWAP2 AND PUSH1 0x3 PUSH1 0xC0 SHL OR SWAP1 SWAP3 SSTORE PUSH32 0xDE7B01BEF0884582CE204F7F920E57F99DD569F93867450872F436BE5A03C755 SWAP2 PUSH2 0x22A3 SWAP1 PUSH2 0x2995 JUMP JUMPDEST SWAP3 PUSH2 0x22B8 PUSH1 0x40 MLOAD SWAP3 DUP3 DUP5 SWAP4 DUP5 MSTORE DUP4 ADD SWAP1 PUSH2 0x25CE JUMP JUMPDEST SUB SWAP1 LOG3 DUP1 RETURN JUMPDEST PUSH1 0x40 MLOAD PUSH4 0xBC7FD331 PUSH1 0xE0 SHL DUP2 MSTORE PUSH1 0x4 SWAP1 REVERT JUMPDEST PUSH1 0x40 MLOAD PUSH4 0x2D0F572D PUSH1 0xE1 SHL DUP2 MSTORE PUSH1 0x4 SWAP1 REVERT JUMPDEST POP CALLVALUE PUSH2 0x1C0 JUMPI PUSH2 0x22F1 CALLDATASIZE PUSH2 0x2512 JUMP JUMPDEST SWAP1 PUSH2 0x22FA PUSH2 0x2675 JUMP JUMPDEST PUSH1 0x40 MLOAD SWAP1 DUP1 MLOAD PUSH1 0xFF PUSH1 0x6 PUSH1 0x20 SWAP5 DUP6 DUP2 DUP2 DUP8 ADD SWAP6 PUSH2 0x2318 DUP2 DUP4 DUP10 PUSH2 0x25AD JUMP JUMPDEST DUP2 ADD PUSH1 0x4 DUP2 MSTORE SUB ADD SWAP1 KECCAK256 ADD SLOAD PUSH1 0xC8 SHR AND ISZERO PUSH2 0x5BC JUMPI PUSH1 0x40 MLOAD DUP3 MLOAD PUSH2 0x233D DUP2 DUP4 DUP6 PUSH2 0x25AD JUMP JUMPDEST PUSH1 0x4 SWAP1 DUP3 ADD SWAP1 DUP2 MSTORE DUP2 SWAP1 SUB DUP5 ADD SWAP1 KECCAK256 SLOAD PUSH1 0x1 PUSH1 0x1 PUSH1 0xA0 SHL SUB SWAP5 DUP6 AND SWAP5 AND DUP5 SWAP1 SUB PUSH2 0x5AA JUMPI PUSH1 0xFF PUSH1 0x6 PUSH1 0x40 MLOAD DUP6 DUP2 DUP7 MLOAD PUSH2 0x2377 DUP2 DUP4 DUP10 PUSH2 0x25AD JUMP JUMPDEST DUP2 ADD PUSH1 0x4 DUP2 MSTORE SUB ADD SWAP1 KECCAK256 ADD SLOAD PUSH1 0xC0 SHR AND PUSH1 0x6 DUP2 LT ISZERO PUSH2 0xBA3 JUMPI PUSH2 0x584 JUMPI PUSH32 0xB559D285C87E4FA0F561388264310703FF0C6C454A39AE52D0AE94032FF0DB70 SWAP2 PUSH1 0x6 PUSH2 0x23D1 DUP6 PUSH2 0x23F4 SWAP5 PUSH1 0x40 MLOAD DUP1 SWAP4 DUP2 SWAP3 DUP8 MLOAD SWAP3 DUP4 SWAP2 PUSH2 0x25AD JUMP JUMPDEST PUSH1 0x4 SWAP1 DUP3 ADD SWAP1 DUP2 MSTORE SUB ADD SWAP1 KECCAK256 ADD DUP1 SLOAD PUSH1 0xFF PUSH1 0xC0 SHL NOT AND PUSH1 0x5 PUSH1 0xC0 SHL OR SWAP1 SSTORE PUSH2 0x2995 JUMP JUMPDEST SWAP2 PUSH1 0x40 MLOAD DUP6 DUP2 MSTORE LOG3 DUP1 RETURN JUMPDEST SWAP1 POP CALLVALUE PUSH2 0x23F JUMPI PUSH1 0x20 CALLDATASIZE PUSH1 0x3 NOT ADD SLT PUSH2 0x23F JUMPI PUSH1 0x4 CALLDATALOAD PUSH4 0xFFFFFFFF PUSH1 0xE0 SHL DUP2 AND DUP1 SWAP2 SUB PUSH2 0xA07 JUMPI PUSH1 0x20 SWAP3 POP PUSH4 0x7965DB0B PUSH1 0xE0 SHL DUP2 EQ SWAP1 DUP2 ISZERO PUSH2 0x2443 JUMPI JUMPDEST POP ISZERO ISZERO DUP2 MSTORE RETURN JUMPDEST PUSH4 0x1FFC9A7 PUSH1 0xE0 SHL EQ SWAP1 POP PUSH0 PUSH2 0x243C JUMP JUMPDEST PUSH2 0x1A0 DUP2 ADD SWAP1 DUP2 LT PUSH1 0x1 PUSH1 0x1 PUSH1 0x40 SHL SUB DUP3 GT OR PUSH2 0x12E7 JUMPI PUSH1 0x40 MSTORE JUMP JUMPDEST SWAP1 PUSH1 0x1F DUP1 NOT SWAP2 ADD AND DUP2 ADD SWAP1 DUP2 LT PUSH1 0x1 PUSH1 0x1 PUSH1 0x40 SHL SUB DUP3 GT OR PUSH2 0x12E7 JUMPI PUSH1 0x40 MSTORE JUMP JUMPDEST DUP2 PUSH1 0x1F DUP3 ADD SLT ISZERO PUSH2 0x5CE JUMPI DUP1 CALLDATALOAD SWAP1 PUSH1 0x1 PUSH1 0x1 PUSH1 0x40 SHL SUB DUP3 GT PUSH2 0x12E7 JUMPI PUSH1 0x40 MLOAD SWAP3 PUSH2 0x24C5 PUSH1 0x1F DUP5 ADD PUSH1 0x1F NOT AND PUSH1 0x20 ADD DUP6 PUSH2 0x2470 JUMP JUMPDEST DUP3 DUP5 MSTORE PUSH1 0x20 DUP4 DUP4 ADD ADD GT PUSH2 0x5CE JUMPI DUP2 PUSH0 SWAP3 PUSH1 0x20 DUP1 SWAP4 ADD DUP4 DUP7 ADD CALLDATACOPY DUP4 ADD ADD MSTORE SWAP1 JUMP JUMPDEST PUSH1 0x24 CALLDATALOAD SWAP1 PUSH1 0x1 PUSH1 0x1 PUSH1 0xA0 SHL SUB DUP3 AND DUP3 SUB PUSH2 0x5CE JUMPI JUMP JUMPDEST PUSH1 0x4 CALLDATALOAD SWAP1 PUSH1 0x1 PUSH1 0x1 PUSH1 0xA0 SHL SUB DUP3 AND DUP3 SUB PUSH2 0x5CE JUMPI JUMP JUMPDEST PUSH1 0x40 PUSH1 0x3 NOT DUP3 ADD SLT PUSH2 0x5CE JUMPI PUSH1 0x4 CALLDATALOAD SWAP1 PUSH1 0x1 PUSH1 0x1 PUSH1 0x40 SHL SUB DUP3 GT PUSH2 0x5CE JUMPI PUSH2 0x253C SWAP2 PUSH1 0x4 ADD PUSH2 0x2491 JUMP JUMPDEST SWAP1 PUSH1 0x24 CALLDATALOAD PUSH1 0x1 PUSH1 0x1 PUSH1 0xA0 SHL SUB DUP2 AND DUP2 SUB PUSH2 0x5CE JUMPI SWAP1 JUMP JUMPDEST PUSH1 0x60 PUSH1 0x3 NOT DUP3 ADD SLT PUSH2 0x5CE JUMPI PUSH1 0x1 PUSH1 0x1 PUSH1 0x40 SHL SUB SWAP2 PUSH1 0x4 CALLDATALOAD DUP4 DUP2 GT PUSH2 0x5CE JUMPI DUP3 PUSH2 0x257F SWAP2 PUSH1 0x4 ADD PUSH2 0x2491 JUMP JUMPDEST SWAP3 PUSH1 0x24 CALLDATALOAD PUSH1 0x1 PUSH1 0x1 PUSH1 0xA0 SHL SUB DUP2 AND DUP2 SUB PUSH2 0x5CE JUMPI SWAP3 PUSH1 0x44 CALLDATALOAD SWAP2 DUP3 GT PUSH2 0x5CE JUMPI PUSH2 0x25AA SWAP2 PUSH1 0x4 ADD PUSH2 0x2491 JUMP JUMPDEST SWAP1 JUMP JUMPDEST PUSH0 JUMPDEST DUP4 DUP2 LT PUSH2 0x25BE JUMPI POP POP PUSH0 SWAP2 ADD MSTORE JUMP JUMPDEST DUP2 DUP2 ADD MLOAD DUP4 DUP3 ADD MSTORE PUSH1 0x20 ADD PUSH2 0x25AF JUMP JUMPDEST SWAP1 PUSH1 0x20 SWAP2 PUSH2 0x25E7 DUP2 MLOAD DUP1 SWAP3 DUP2 DUP6 MSTORE DUP6 DUP1 DUP7 ADD SWAP2 ADD PUSH2 0x25AD JUMP JUMPDEST PUSH1 0x1F ADD PUSH1 0x1F NOT AND ADD ADD SWAP1 JUMP JUMPDEST PUSH1 0x20 DUP1 DUP3 ADD SWAP1 DUP1 DUP4 MSTORE DUP4 MLOAD DUP1 SWAP3 MSTORE PUSH1 0x40 DUP4 ADD SWAP3 DUP2 PUSH1 0x40 DUP5 PUSH1 0x5 SHL DUP4 ADD ADD SWAP6 ADD SWAP4 PUSH0 SWAP2 JUMPDEST DUP5 DUP4 LT PUSH2 0x2626 JUMPI POP POP POP POP POP POP SWAP1 JUMP JUMPDEST SWAP1 SWAP2 SWAP3 SWAP4 SWAP5 SWAP6 DUP5 DUP1 PUSH2 0x2644 PUSH1 0x1 SWAP4 PUSH1 0x3F NOT DUP7 DUP3 SUB ADD DUP8 MSTORE DUP11 MLOAD PUSH2 0x25CE JUMP JUMPDEST SWAP9 ADD SWAP4 ADD SWAP4 ADD SWAP2 SWAP5 SWAP4 SWAP3 SWAP1 PUSH2 0x2616 JUMP JUMPDEST SWAP1 PUSH1 0x6 DUP3 LT ISZERO PUSH2 0x2661 JUMPI MSTORE JUMP JUMPDEST PUSH4 0x4E487B71 PUSH1 0xE0 SHL PUSH0 MSTORE PUSH1 0x21 PUSH1 0x4 MSTORE PUSH1 0x24 PUSH0 REVERT JUMPDEST CALLER PUSH0 SWAP1 DUP2 MSTORE PUSH32 0xEF73BF2AC44F84561B5498839AB1C8C5A4DD99305D838AEA0D76C5961778535C PUSH1 0x20 MSTORE PUSH1 0x40 SWAP1 KECCAK256 SLOAD PUSH32 0xA8A7BC421F721CB936EA99EFDAD79237E6EE0B871A2A08CF648691F9584CDC77 SWAP1 PUSH1 0xFF AND ISZERO PUSH2 0x26D0 JUMPI POP JUMP JUMPDEST PUSH1 0x44 SWAP1 PUSH1 0x40 MLOAD SWAP1 PUSH4 0xE2517D3F PUSH1 0xE0 SHL DUP3 MSTORE CALLER PUSH1 0x4 DUP4 ADD MSTORE PUSH1 0x24 DUP3 ADD MSTORE REVERT JUMPDEST DUP1 PUSH0 MSTORE PUSH1 0x2 PUSH1 0x20 MSTORE PUSH1 0x40 PUSH0 KECCAK256 CALLER PUSH0 MSTORE PUSH1 0x20 MSTORE PUSH1 0xFF PUSH1 0x40 PUSH0 KECCAK256 SLOAD AND ISZERO PUSH2 0x26D0 JUMPI POP JUMP JUMPDEST SWAP1 PUSH0 SWAP2 DUP1 DUP4 MSTORE PUSH1 0x2 PUSH1 0x20 MSTORE PUSH1 0x40 DUP4 KECCAK256 SWAP2 PUSH1 0x1 DUP1 PUSH1 0xA0 SHL SUB AND SWAP2 DUP3 DUP5 MSTORE PUSH1 0x20 MSTORE PUSH1 0xFF PUSH1 0x40 DUP5 KECCAK256 SLOAD AND ISZERO PUSH0 EQ PUSH2 0x2789 JUMPI DUP1 DUP4 MSTORE PUSH1 0x2 PUSH1 0x20 MSTORE PUSH1 0x40 DUP4 KECCAK256 DUP3 DUP5 MSTORE PUSH1 0x20 MSTORE PUSH1 0x40 DUP4 KECCAK256 PUSH1 0x1 PUSH1 0xFF NOT DUP3 SLOAD AND OR SWAP1 SSTORE PUSH32 0x2F8788117E7EFF1D82E926EC794901D17C78024A50270940304540A733656F0D CALLER SWAP4 DUP1 LOG4 PUSH1 0x1 SWAP1 JUMP JUMPDEST POP POP SWAP1 JUMP JUMPDEST SWAP1 PUSH0 SWAP2 DUP1 DUP4 MSTORE PUSH1 0x2 PUSH1 0x20 MSTORE PUSH1 0x40 DUP4 KECCAK256 SWAP2 PUSH1 0x1 DUP1 PUSH1 0xA0 SHL SUB AND SWAP2 DUP3 DUP5 MSTORE PUSH1 0x20 MSTORE PUSH1 0xFF PUSH1 0x40 DUP5 KECCAK256 SLOAD AND PUSH0 EQ PUSH2 0x2789 JUMPI DUP1 DUP4 MSTORE PUSH1 0x2 PUSH1 0x20 MSTORE PUSH1 0x40 DUP4 KECCAK256 DUP3 DUP5 MSTORE PUSH1 0x20 MSTORE PUSH1 0x40 DUP4 KECCAK256 PUSH1 0xFF NOT DUP2 SLOAD AND SWAP1 SSTORE PUSH32 0xF6391F5C32D9C69D2A47EA670B442974B53935D1EDC7FD64EB21E047A839171B CALLER SWAP4 DUP1 LOG4 PUSH1 0x1 SWAP1 JUMP JUMPDEST SWAP1 PUSH1 0x1 DUP3 DUP2 SHR SWAP3 AND DUP1 ISZERO PUSH2 0x2831 JUMPI JUMPDEST PUSH1 0x20 DUP4 LT EQ PUSH2 0x281D JUMPI JUMP JUMPDEST PUSH4 0x4E487B71 PUSH1 0xE0 SHL PUSH0 MSTORE PUSH1 0x22 PUSH1 0x4 MSTORE PUSH1 0x24 PUSH0 REVERT JUMPDEST SWAP2 PUSH1 0x7F AND SWAP2 PUSH2 0x2812 JUMP JUMPDEST DUP2 DUP2 LT PUSH2 0x2846 JUMPI POP POP JUMP JUMPDEST PUSH0 DUP2 SSTORE PUSH1 0x1 ADD PUSH2 0x283B JUMP JUMPDEST SWAP2 SWAP1 SWAP2 DUP3 MLOAD PUSH1 0x1 PUSH1 0x1 PUSH1 0x40 SHL SUB DUP2 GT PUSH2 0x12E7 JUMPI PUSH2 0x286E DUP3 SLOAD PUSH2 0x2803 JUMP JUMPDEST PUSH1 0x1F DUP2 GT PUSH2 0x2912 JUMPI JUMPDEST POP PUSH1 0x20 DUP1 PUSH1 0x1F DUP4 GT PUSH1 0x1 EQ PUSH2 0x28B2 JUMPI POP DUP2 SWAP3 SWAP4 SWAP5 PUSH0 SWAP3 PUSH2 0x28A7 JUMPI JUMPDEST POP POP DUP2 PUSH1 0x1 SHL SWAP2 PUSH0 NOT SWAP1 PUSH1 0x3 SHL SHR NOT AND OR SWAP1 SSTORE JUMP JUMPDEST ADD MLOAD SWAP1 POP PUSH0 DUP1 PUSH2 0x2892 JUMP JUMPDEST SWAP1 PUSH1 0x1F NOT DUP4 AND SWAP6 DUP5 PUSH0 MSTORE DUP3 PUSH0 KECCAK256 SWAP3 PUSH0 SWAP1 JUMPDEST DUP9 DUP3 LT PUSH2 0x28FA JUMPI POP POP DUP4 PUSH1 0x1 SWAP6 SWAP7 SWAP8 LT PUSH2 0x28E2 JUMPI JUMPDEST POP POP POP DUP2 SHL ADD SWAP1 SSTORE JUMP JUMPDEST ADD MLOAD PUSH0 NOT PUSH1 0xF8 DUP5 PUSH1 0x3 SHL AND SHR NOT AND SWAP1 SSTORE PUSH0 DUP1 DUP1 PUSH2 0x28D8 JUMP JUMPDEST DUP1 PUSH1 0x1 DUP6 SWAP7 DUP3 SWAP5 SWAP7 DUP7 ADD MLOAD DUP2 SSTORE ADD SWAP6 ADD SWAP4 ADD SWAP1 PUSH2 0x28C3 JUMP JUMPDEST PUSH2 0x293D SWAP1 DUP4 PUSH0 MSTORE PUSH1 0x20 PUSH0 KECCAK256 PUSH1 0x1F DUP5 ADD PUSH1 0x5 SHR DUP2 ADD SWAP2 PUSH1 0x20 DUP6 LT PUSH2 0x2943 JUMPI JUMPDEST PUSH1 0x1F ADD PUSH1 0x5 SHR ADD SWAP1 PUSH2 0x283B JUMP JUMPDEST PUSH0 PUSH2 0x2877 JUMP JUMPDEST SWAP1 SWAP2 POP DUP2 SWAP1 PUSH2 0x2930 JUMP JUMPDEST SWAP1 DUP2 SLOAD PUSH9 0x10000000000000000 DUP2 LT ISZERO PUSH2 0x12E7 JUMPI PUSH1 0x1 DUP2 ADD DUP1 DUP5 SSTORE DUP2 LT ISZERO PUSH2 0x2981 JUMPI PUSH2 0x297F SWAP3 PUSH0 MSTORE PUSH1 0x20 PUSH0 KECCAK256 ADD PUSH2 0x2851 JUMP JUMPDEST JUMP JUMPDEST PUSH4 0x4E487B71 PUSH1 0xE0 SHL PUSH0 MSTORE PUSH1 0x32 PUSH1 0x4 MSTORE PUSH1 0x24 PUSH0 REVERT JUMPDEST PUSH2 0x29AD SWAP1 PUSH1 0x20 PUSH1 0x40 MLOAD SWAP3 DUP3 DUP5 DUP1 SWAP5 MLOAD SWAP4 DUP5 SWAP3 ADD PUSH2 0x25AD JUMP JUMPDEST DUP2 ADD SUB SWAP1 KECCAK256 SWAP1 JUMP JUMPDEST PUSH1 0xFF PUSH1 0x1 SLOAD AND PUSH2 0x29C1 JUMPI JUMP JUMPDEST PUSH1 0x40 MLOAD PUSH3 0x461BCD PUSH1 0xE5 SHL DUP2 MSTORE PUSH1 0x20 PUSH1 0x4 DUP3 ADD MSTORE PUSH1 0x10 PUSH1 0x24 DUP3 ADD MSTORE PUSH16 0x14185D5CD8589B194E881C185D5CD959 PUSH1 0x82 SHL PUSH1 0x44 DUP3 ADD MSTORE PUSH1 0x64 SWAP1 REVERT JUMPDEST PUSH1 0x2 PUSH0 SLOAD EQ PUSH2 0x2A08 JUMPI PUSH1 0x2 PUSH0 SSTORE JUMP JUMPDEST PUSH1 0x40 MLOAD PUSH3 0x461BCD PUSH1 0xE5 SHL DUP2 MSTORE PUSH1 0x20 PUSH1 0x4 DUP3 ADD MSTORE PUSH1 0x1F PUSH1 0x24 DUP3 ADD MSTORE PUSH32 0x5265656E7472616E637947756172643A207265656E7472616E742063616C6C00 PUSH1 0x44 DUP3 ADD MSTORE PUSH1 0x64 SWAP1 REVERT JUMPDEST SWAP1 PUSH0 PUSH1 0x20 SWAP2 DUP3 DUP2 MLOAD SWAP2 ADD DUP3 DUP6 GAS CALL ISZERO PUSH2 0x2AA7 JUMPI PUSH0 MLOAD RETURNDATASIZE PUSH2 0x2A9E JUMPI POP PUSH1 0x1 PUSH1 0x1 PUSH1 0xA0 SHL SUB DUP2 AND EXTCODESIZE ISZERO JUMPDEST PUSH2 0x2A7C JUMPI POP JUMP JUMPDEST PUSH1 0x40 MLOAD PUSH4 0x5274AFE7 PUSH1 0xE0 SHL DUP2 MSTORE PUSH1 0x1 PUSH1 0x1 PUSH1 0xA0 SHL SUB SWAP1 SWAP2 AND PUSH1 0x4 DUP3 ADD MSTORE PUSH1 0x24 SWAP1 REVERT JUMPDEST PUSH1 0x1 EQ ISZERO PUSH2 0x2A75 JUMP JUMPDEST PUSH1 0x40 MLOAD RETURNDATASIZE PUSH0 DUP3 RETURNDATACOPY RETURNDATASIZE SWAP1 REVERT JUMPDEST SWAP2 SWAP1 SWAP2 PUSH1 0x1 PUSH1 0x1 PUSH1 0x60 SHL SUB DUP1 DUP1 SWAP5 AND SWAP2 AND MUL SWAP2 DUP3 AND SWAP2 DUP3 SUB PUSH2 0x511 JUMPI JUMP JUMPDEST PUSH1 0x1 PUSH1 0x1 PUSH1 0x60 SHL SUB SWAP2 DUP3 AND SWAP1 DUP3 AND SUB SWAP2 SWAP1 DUP3 GT PUSH2 0x511 JUMPI JUMP JUMPDEST PUSH1 0x40 MLOAD PUSH4 0xA9059CBB PUSH1 0xE0 SHL PUSH1 0x20 DUP3 ADD MSTORE PUSH1 0x1 PUSH1 0x1 PUSH1 0xA0 SHL SUB SWAP1 SWAP3 AND PUSH1 0x24 DUP4 ADD MSTORE PUSH1 0x44 DUP1 DUP4 ADD SWAP4 SWAP1 SWAP4 MSTORE SWAP2 DUP2 MSTORE PUSH1 0x80 DUP2 ADD SWAP2 PUSH1 0x1 PUSH1 0x1 PUSH1 0x40 SHL SUB DUP4 GT DUP3 DUP5 LT OR PUSH2 0x12E7 JUMPI PUSH2 0x297F SWAP3 PUSH1 0x40 MSTORE PUSH2 0x2A4D JUMP JUMPDEST SWAP1 PUSH1 0x40 MLOAD SWAP2 DUP3 PUSH0 DUP3 SLOAD SWAP3 PUSH2 0x2B4B DUP5 PUSH2 0x2803 JUMP JUMPDEST SWAP1 DUP2 DUP5 MSTORE PUSH1 0x1 SWAP5 DUP6 DUP2 AND SWAP1 DUP2 PUSH0 EQ PUSH2 0x2BB4 JUMPI POP PUSH1 0x1 EQ PUSH2 0x2B74 JUMPI JUMPDEST POP POP PUSH2 0x297F SWAP3 POP SUB DUP4 PUSH2 0x2470 JUMP JUMPDEST SWAP1 SWAP4 SWAP2 POP PUSH0 MSTORE PUSH1 0x20 SWAP1 DUP2 PUSH0 KECCAK256 SWAP4 PUSH0 SWAP2 JUMPDEST DUP2 DUP4 LT PUSH2 0x2B9C JUMPI POP POP PUSH2 0x297F SWAP4 POP DUP3 ADD ADD PUSH0 DUP1 PUSH2 0x2B66 JUMP JUMPDEST DUP6 SLOAD DUP9 DUP5 ADD DUP6 ADD MSTORE SWAP5 DUP6 ADD SWAP5 DUP8 SWAP5 POP SWAP2 DUP4 ADD SWAP2 PUSH2 0x2B84 JUMP JUMPDEST SWAP2 POP POP PUSH2 0x297F SWAP5 POP PUSH1 0x20 SWAP3 POP PUSH1 0xFF NOT AND DUP3 DUP5 ADD MSTORE ISZERO ISZERO PUSH1 0x5 SHL DUP3 ADD ADD PUSH0 DUP1 PUSH2 0x2B66 JUMP JUMPDEST SWAP1 PUSH1 0x1 PUSH1 0x1 PUSH1 0x40 SHL SUB DUP3 GT PUSH2 0x12E7 JUMPI PUSH1 0x40 MLOAD SWAP2 PUSH2 0x2BFA PUSH1 0x20 DUP3 PUSH1 0x5 SHL ADD DUP5 PUSH2 0x2470 JUMP JUMPDEST DUP3 MSTORE JUMP JUMPDEST PUSH1 0x1 PUSH1 0x1 PUSH1 0x60 SHL SUB SWAP1 DUP2 DUP2 AND PUSH2 0x3E8 DUP2 GT PUSH2 0x2C85 JUMPI PUSH1 0x3 SLOAD SWAP3 DUP4 AND SWAP1 DUP1 DUP3 EQ PUSH2 0x2C7F JUMPI PUSH12 0xFFFFFFFFFFFFFFFFFFFFFFFF NOT SWAP1 SWAP4 AND SWAP3 SWAP1 SWAP3 OR PUSH1 0x3 SSTORE PUSH1 0x40 DUP1 MLOAD PUSH1 0x1 PUSH1 0x1 PUSH1 0x60 SHL SUB SWAP4 DUP5 AND DUP2 MSTORE SWAP2 SWAP1 SWAP3 AND PUSH1 0x20 DUP3 ADD MSTORE PUSH32 0xFEEDDF72B7EE4210B769104CB8B071E5706232AC7F671FB292AF429FFD58B587 SWAP2 DUP2 SWAP1 DUP2 ADD JUMPDEST SUB SWAP1 LOG1 JUMP JUMPDEST POP POP POP POP JUMP JUMPDEST PUSH1 0x40 MLOAD PUSH4 0xCD4E6167 PUSH1 0xE0 SHL DUP2 MSTORE PUSH1 0x4 SWAP1 REVERT JUMPDEST PUSH1 0x1 PUSH1 0x1 PUSH1 0xA0 SHL SUB DUP2 AND SWAP1 DUP2 ISZERO PUSH2 0x9DB JUMPI PUSH1 0x3 SLOAD SWAP2 DUP3 PUSH1 0x60 SHR SWAP1 DUP2 EQ PUSH2 0x2D20 JUMPI PUSH1 0x1 PUSH1 0x1 PUSH1 0x60 SHL SUB SWAP1 SWAP3 AND PUSH1 0x60 DUP3 SWAP1 SHL PUSH12 0xFFFFFFFFFFFFFFFFFFFFFFFF NOT AND OR PUSH1 0x3 SSTORE PUSH1 0x40 DUP1 MLOAD PUSH1 0x1 PUSH1 0x1 PUSH1 0xA0 SHL SUB SWAP4 DUP5 AND DUP2 MSTORE SWAP3 SWAP1 SWAP2 AND PUSH1 0x20 DUP4 ADD MSTORE PUSH32 0xAAEBCF1BFA00580E41D966056B48521FA9F202645C86D4DDF28113E617C1B1D3 SWAP2 SWAP1 DUP2 SWAP1 DUP2 ADD PUSH2 0x2C7A JUMP JUMPDEST POP POP POP JUMP INVALID DUP6 BALANCE NOT DUP15 0x5D SWAP5 PUSH11 0xF9A770D2EEBA00258645E1 PUSH4 0x142D835F 0xE1 0xB0 0x4E GASLIMIT DELEGATECALL 0xDB PUSH19 0xF8BA2646970667358221220AEE6A9A9FAA780 0x2A 0xE1 0xC0 0xB4 PUSH13 0x20752FB372E8DBB1B84175ECBB 0xB1 CALLDATALOAD 0xA8 0xF9 JUMP PUSH19 0x5064736F6C63430008140033A8A7BC421F721C 0xB9 CALLDATASIZE 0xEA SWAP10 0xEF 0xDA 0xD7 SWAP3 CALLDATACOPY 0xE6 0xEE SIGNEXTEND DUP8 BYTE 0x2A ADDMOD 0xCF PUSH5 0x8691F9584C 0xDC PUSH24 0x0 "
		},
		"gasEstimates": {
			"creation": {
				"codeDepositCost": "2328600",
				"executionCost": "infinite",
				"totalCost": "infinite"
			},
			"external": {
				"DEFAULT_ADMIN_ROLE()": "693",
				"SERVER_ROLE()": "228",
				"acceptDeal(string,address)": "infinite",
				"approveDeal(string,address)": "infinite",
				"autoRefundAfterDeadline(string)": "infinite",
				"autoReleasePayment(string)": "infinite",
				"brandDeals(address)": "infinite",
				"canAutoRelease(string)": "infinite",
				"cancelDeal(string,address)": "infinite",
				"createDeal(string,address,address,uint96,uint64,string)": "infinite",
				"creatorDeals(address)": "infinite",
				"deals(string)": "infinite",
				"emergencyCancelDeal(string)": "infinite",
				"emergencyWithdraw(address,uint256)": "infinite",
				"feeRecipient()": "2557",
				"fundDeal(string,address,uint96,uint256,uint8,bytes32,bytes32)": "infinite",
				"getDeal(string)": "infinite",
				"getDeals(address,bool)": "infinite",
				"getRoleAdmin(bytes32)": "2469",
				"grantRole(bytes32,address)": "33399",
				"hasRole(bytes32,address)": "2896",
				"idrxToken()": "infinite",
				"initiateDispute(string,address,string)": "infinite",
				"pause()": "30138",
				"paused()": "2607",
				"platformFeeBps()": "2393",
				"renounceRole(bytes32,address)": "29029",
				"resolveDispute(string,address,bool)": "infinite",
				"revokeRole(bytes32,address)": "33786",
				"submitContent(string,address,string)": "infinite",
				"supportsInterface(bytes4)": "279",
				"unpause()": "27901",
				"updateFeeRecipient(address)": "28887",
				"updatePlatformFee(uint96)": "28311"
			},
			"internal": {
				"_executePermit(address,address,uint256,uint256,uint8,bytes32,bytes32)": "infinite"
			}
		},
		"methodIdentifiers": {
			"DEFAULT_ADMIN_ROLE()": "a217fddf",
			"SERVER_ROLE()": "18cf2834",
			"acceptDeal(string,address)": "9b1221ab",
			"approveDeal(string,address)": "24d956c8",
			"autoRefundAfterDeadline(string)": "e39fff38",
			"autoReleasePayment(string)": "38a13287",
			"brandDeals(address)": "f0c3cd20",
			"canAutoRelease(string)": "76492d3f",
			"cancelDeal(string,address)": "03f715da",
			"createDeal(string,address,address,uint96,uint64,string)": "e4abd4cb",
			"creatorDeals(address)": "aed1505d",
			"deals(string)": "a0a57dac",
			"emergencyCancelDeal(string)": "1a1aaeed",
			"emergencyWithdraw(address,uint256)": "95ccea67",
			"feeRecipient()": "46904840",
			"fundDeal(string,address,uint96,uint256,uint8,bytes32,bytes32)": "9f1cf42d",
			"getDeal(string)": "e7079180",
			"getDeals(address,bool)": "9fad59b4",
			"getRoleAdmin(bytes32)": "248a9ca3",
			"grantRole(bytes32,address)": "2f2ff15d",
			"hasRole(bytes32,address)": "91d14854",
			"idrxToken()": "d6bc7c63",
			"initiateDispute(string,address,string)": "0e59a395",
			"pause()": "8456cb59",
			"paused()": "5c975abb",
			"platformFeeBps()": "22dcd13e",
			"renounceRole(bytes32,address)": "36568abe",
			"resolveDispute(string,address,bool)": "ef03c10e",
			"revokeRole(bytes32,address)": "d547741f",
			"submitContent(string,address,string)": "4971716f",
			"supportsInterface(bytes4)": "01ffc9a7",
			"unpause()": "3f4ba83a",
			"updateFeeRecipient(address)": "f160d369",
			"updatePlatformFee(uint96)": "317b8c5b"
		}
	},
	"abi": [
		{
			"inputs": [
				{
					"internalType": "address",
					"name": "idrxToken_",
					"type": "address"
				},
				{
					"internalType": "address",
					"name": "feeRecipient_",
					"type": "address"
				},
				{
					"internalType": "address",
					"name": "initialOwner_",
					"type": "address"
				}
			],
			"stateMutability": "payable",
			"type": "constructor"
		},
		{
			"inputs": [],
			"name": "AccessControlBadConfirmation",
			"type": "error"
		},
		{
			"inputs": [
				{
					"internalType": "address",
					"name": "account",
					"type": "address"
				},
				{
					"internalType": "bytes32",
					"name": "neededRole",
					"type": "bytes32"
				}
			],
			"name": "AccessControlUnauthorizedAccount",
			"type": "error"
		},
		{
			"inputs": [],
			"name": "AmountMustBeGreaterThanZero",
			"type": "error"
		},
		{
			"inputs": [],
			"name": "BriefHashRequired",
			"type": "error"
		},
		{
			"inputs": [],
			"name": "CannotCancelThisDeal",
			"type": "error"
		},
		{
			"inputs": [],
			"name": "CannotWithdrawIDRX",
			"type": "error"
		},
		{
			"inputs": [],
			"name": "ContentUrlRequired",
			"type": "error"
		},
		{
			"inputs": [],
			"name": "CreatorCannotBeBrand",
			"type": "error"
		},
		{
			"inputs": [],
			"name": "DeadlineMustBeInFuture",
			"type": "error"
		},
		{
			"inputs": [],
			"name": "DeadlineNotPassed",
			"type": "error"
		},
		{
			"inputs": [],
			"name": "DealAlreadyExists",
			"type": "error"
		},
		{
			"inputs": [],
			"name": "DealAlreadyFunded",
			"type": "error"
		},
		{
			"inputs": [],
			"name": "DealNotFound",
			"type": "error"
		},
		{
			"inputs": [],
			"name": "DealNotFunded",
			"type": "error"
		},
		{
			"inputs": [],
			"name": "FeeTooHigh",
			"type": "error"
		},
		{
			"inputs": [],
			"name": "InsufficientAllowance",
			"type": "error"
		},
		{
			"inputs": [],
			"name": "InsufficientBalance",
			"type": "error"
		},
		{
			"inputs": [],
			"name": "InvalidAddress",
			"type": "error"
		},
		{
			"inputs": [],
			"name": "InvalidAmount",
			"type": "error"
		},
		{
			"inputs": [],
			"name": "InvalidDealID",
			"type": "error"
		},
		{
			"inputs": [],
			"name": "InvalidDealStatus",
			"type": "error"
		},
		{
			"inputs": [],
			"name": "NotAuthorized",
			"type": "error"
		},
		{
			"inputs": [],
			"name": "PermitFailed",
			"type": "error"
		},
		{
			"inputs": [],
			"name": "ReasonRequired",
			"type": "error"
		},
		{
			"inputs": [],
			"name": "ReviewPeriodEnded",
			"type": "error"
		},
		{
			"inputs": [],
			"name": "ReviewPeriodNotEnded",
			"type": "error"
		},
		{
			"inputs": [
				{
					"internalType": "address",
					"name": "token",
					"type": "address"
				}
			],
			"name": "SafeERC20FailedOperation",
			"type": "error"
		},
		{
			"inputs": [],
			"name": "SubmissionDeadlinePassed",
			"type": "error"
		},
		{
			"anonymous": false,
			"inputs": [
				{
					"indexed": true,
					"internalType": "string",
					"name": "dealId",
					"type": "string"
				},
				{
					"indexed": true,
					"internalType": "address",
					"name": "creator",
					"type": "address"
				},
				{
					"indexed": false,
					"internalType": "string",
					"name": "contentUrl",
					"type": "string"
				},
				{
					"indexed": false,
					"internalType": "uint64",
					"name": "reviewDeadline",
					"type": "uint64"
				}
			],
			"name": "ContentSubmitted",
			"type": "event"
		},
		{
			"anonymous": false,
			"inputs": [
				{
					"indexed": true,
					"internalType": "string",
					"name": "dealId",
					"type": "string"
				},
				{
					"indexed": true,
					"internalType": "address",
					"name": "brand",
					"type": "address"
				}
			],
			"name": "DealApproved",
			"type": "event"
		},
		{
			"anonymous": false,
			"inputs": [
				{
					"indexed": true,
					"internalType": "string",
					"name": "dealId",
					"type": "string"
				},
				{
					"indexed": true,
					"internalType": "address",
					"name": "initiator",
					"type": "address"
				},
				{
					"indexed": false,
					"internalType": "uint96",
					"name": "refundAmount",
					"type": "uint96"
				}
			],
			"name": "DealCancelled",
			"type": "event"
		},
		{
			"anonymous": false,
			"inputs": [
				{
					"indexed": true,
					"internalType": "string",
					"name": "dealId",
					"type": "string"
				},
				{
					"indexed": true,
					"internalType": "address",
					"name": "brand",
					"type": "address"
				},
				{
					"indexed": true,
					"internalType": "address",
					"name": "creator",
					"type": "address"
				},
				{
					"indexed": false,
					"internalType": "uint96",
					"name": "amount",
					"type": "uint96"
				},
				{
					"indexed": false,
					"internalType": "uint64",
					"name": "deadline",
					"type": "uint64"
				}
			],
			"name": "DealCreated",
			"type": "event"
		},
		{
			"anonymous": false,
			"inputs": [
				{
					"indexed": true,
					"internalType": "string",
					"name": "dealId",
					"type": "string"
				},
				{
					"indexed": true,
					"internalType": "address",
					"name": "brand",
					"type": "address"
				},
				{
					"indexed": false,
					"internalType": "uint96",
					"name": "amount",
					"type": "uint96"
				}
			],
			"name": "DealFunded",
			"type": "event"
		},
		{
			"anonymous": false,
			"inputs": [
				{
					"indexed": true,
					"internalType": "string",
					"name": "dealId",
					"type": "string"
				},
				{
					"indexed": true,
					"internalType": "address",
					"name": "brand",
					"type": "address"
				},
				{
					"indexed": false,
					"internalType": "string",
					"name": "reason",
					"type": "string"
				}
			],
			"name": "DisputeInitiated",
			"type": "event"
		},
		{
			"anonymous": false,
			"inputs": [
				{
					"indexed": true,
					"internalType": "string",
					"name": "dealId",
					"type": "string"
				},
				{
					"indexed": true,
					"internalType": "address",
					"name": "creator",
					"type": "address"
				},
				{
					"indexed": false,
					"internalType": "bool",
					"name": "accepted5050",
					"type": "bool"
				},
				{
					"indexed": false,
					"internalType": "uint96",
					"name": "creatorAmount",
					"type": "uint96"
				},
				{
					"indexed": false,
					"internalType": "uint96",
					"name": "brandRefund",
					"type": "uint96"
				}
			],
			"name": "DisputeResolved",
			"type": "event"
		},
		{
			"anonymous": false,
			"inputs": [
				{
					"indexed": false,
					"internalType": "address",
					"name": "oldRecipient",
					"type": "address"
				},
				{
					"indexed": false,
					"internalType": "address",
					"name": "newRecipient",
					"type": "address"
				}
			],
			"name": "FeeRecipientUpdated",
			"type": "event"
		},
		{
			"anonymous": false,
			"inputs": [
				{
					"indexed": false,
					"internalType": "address",
					"name": "account",
					"type": "address"
				}
			],
			"name": "Paused",
			"type": "event"
		},
		{
			"anonymous": false,
			"inputs": [
				{
					"indexed": true,
					"internalType": "string",
					"name": "dealId",
					"type": "string"
				},
				{
					"indexed": true,
					"internalType": "address",
					"name": "creator",
					"type": "address"
				},
				{
					"indexed": false,
					"internalType": "uint96",
					"name": "amount",
					"type": "uint96"
				},
				{
					"indexed": false,
					"internalType": "uint96",
					"name": "platformFee",
					"type": "uint96"
				}
			],
			"name": "PaymentReleased",
			"type": "event"
		},
		{
			"anonymous": false,
			"inputs": [
				{
					"indexed": false,
					"internalType": "uint96",
					"name": "oldFee",
					"type": "uint96"
				},
				{
					"indexed": false,
					"internalType": "uint96",
					"name": "newFee",
					"type": "uint96"
				}
			],
			"name": "PlatformFeeUpdated",
			"type": "event"
		},
		{
			"anonymous": false,
			"inputs": [
				{
					"indexed": true,
					"internalType": "bytes32",
					"name": "role",
					"type": "bytes32"
				},
				{
					"indexed": true,
					"internalType": "bytes32",
					"name": "previousAdminRole",
					"type": "bytes32"
				},
				{
					"indexed": true,
					"internalType": "bytes32",
					"name": "newAdminRole",
					"type": "bytes32"
				}
			],
			"name": "RoleAdminChanged",
			"type": "event"
		},
		{
			"anonymous": false,
			"inputs": [
				{
					"indexed": true,
					"internalType": "bytes32",
					"name": "role",
					"type": "bytes32"
				},
				{
					"indexed": true,
					"internalType": "address",
					"name": "account",
					"type": "address"
				},
				{
					"indexed": true,
					"internalType": "address",
					"name": "sender",
					"type": "address"
				}
			],
			"name": "RoleGranted",
			"type": "event"
		},
		{
			"anonymous": false,
			"inputs": [
				{
					"indexed": true,
					"internalType": "bytes32",
					"name": "role",
					"type": "bytes32"
				},
				{
					"indexed": true,
					"internalType": "address",
					"name": "account",
					"type": "address"
				},
				{
					"indexed": true,
					"internalType": "address",
					"name": "sender",
					"type": "address"
				}
			],
			"name": "RoleRevoked",
			"type": "event"
		},
		{
			"anonymous": false,
			"inputs": [
				{
					"indexed": false,
					"internalType": "address",
					"name": "account",
					"type": "address"
				}
			],
			"name": "Unpaused",
			"type": "event"
		},
		{
			"inputs": [],
			"name": "DEFAULT_ADMIN_ROLE",
			"outputs": [
				{
					"internalType": "bytes32",
					"name": "",
					"type": "bytes32"
				}
			],
			"stateMutability": "view",
			"type": "function"
		},
		{
			"inputs": [],
			"name": "SERVER_ROLE",
			"outputs": [
				{
					"internalType": "bytes32",
					"name": "",
					"type": "bytes32"
				}
			],
			"stateMutability": "view",
			"type": "function"
		},
		{
			"inputs": [
				{
					"internalType": "string",
					"name": "_dealId",
					"type": "string"
				},
				{
					"internalType": "address",
					"name": "_creatorAddress",
					"type": "address"
				}
			],
			"name": "acceptDeal",
			"outputs": [],
			"stateMutability": "nonpayable",
			"type": "function"
		},
		{
			"inputs": [
				{
					"internalType": "string",
					"name": "_dealId",
					"type": "string"
				},
				{
					"internalType": "address",
					"name": "_brandAddress",
					"type": "address"
				}
			],
			"name": "approveDeal",
			"outputs": [],
			"stateMutability": "nonpayable",
			"type": "function"
		},
		{
			"inputs": [
				{
					"internalType": "string",
					"name": "_dealId",
					"type": "string"
				}
			],
			"name": "autoRefundAfterDeadline",
			"outputs": [],
			"stateMutability": "nonpayable",
			"type": "function"
		},
		{
			"inputs": [
				{
					"internalType": "string",
					"name": "_dealId",
					"type": "string"
				}
			],
			"name": "autoReleasePayment",
			"outputs": [],
			"stateMutability": "nonpayable",
			"type": "function"
		},
		{
			"inputs": [
				{
					"internalType": "address",
					"name": "_brand",
					"type": "address"
				}
			],
			"name": "brandDeals",
			"outputs": [
				{
					"internalType": "string[]",
					"name": "",
					"type": "string[]"
				}
			],
			"stateMutability": "view",
			"type": "function"
		},
		{
			"inputs": [
				{
					"internalType": "string",
					"name": "_dealId",
					"type": "string"
				}
			],
			"name": "canAutoRelease",
			"outputs": [
				{
					"internalType": "bool",
					"name": "",
					"type": "bool"
				}
			],
			"stateMutability": "view",
			"type": "function"
		},
		{
			"inputs": [
				{
					"internalType": "string",
					"name": "_dealId",
					"type": "string"
				},
				{
					"internalType": "address",
					"name": "_brandAddress",
					"type": "address"
				}
			],
			"name": "cancelDeal",
			"outputs": [],
			"stateMutability": "nonpayable",
			"type": "function"
		},
		{
			"inputs": [
				{
					"internalType": "string",
					"name": "_dealId",
					"type": "string"
				},
				{
					"internalType": "address",
					"name": "_brandAddress",
					"type": "address"
				},
				{
					"internalType": "address",
					"name": "_creatorAddress",
					"type": "address"
				},
				{
					"internalType": "uint96",
					"name": "_amount",
					"type": "uint96"
				},
				{
					"internalType": "uint64",
					"name": "_deadline",
					"type": "uint64"
				},
				{
					"internalType": "string",
					"name": "_briefHash",
					"type": "string"
				}
			],
			"name": "createDeal",
			"outputs": [],
			"stateMutability": "nonpayable",
			"type": "function"
		},
		{
			"inputs": [
				{
					"internalType": "address",
					"name": "_creator",
					"type": "address"
				}
			],
			"name": "creatorDeals",
			"outputs": [
				{
					"internalType": "string[]",
					"name": "",
					"type": "string[]"
				}
			],
			"stateMutability": "view",
			"type": "function"
		},
		{
			"inputs": [
				{
					"internalType": "string",
					"name": "_dealId",
					"type": "string"
				}
			],
			"name": "deals",
			"outputs": [
				{
					"components": [
						{
							"internalType": "address",
							"name": "brand",
							"type": "address"
						},
						{
							"internalType": "address",
							"name": "creator",
							"type": "address"
						},
						{
							"internalType": "string",
							"name": "dealId",
							"type": "string"
						},
						{
							"internalType": "string",
							"name": "briefHash",
							"type": "string"
						},
						{
							"internalType": "string",
							"name": "contentUrl",
							"type": "string"
						},
						{
							"internalType": "uint96",
							"name": "amount",
							"type": "uint96"
						},
						{
							"internalType": "uint64",
							"name": "deadline",
							"type": "uint64"
						},
						{
							"internalType": "uint64",
							"name": "fundedAt",
							"type": "uint64"
						},
						{
							"internalType": "uint64",
							"name": "submittedAt",
							"type": "uint64"
						},
						{
							"internalType": "uint64",
							"name": "reviewDeadline",
							"type": "uint64"
						},
						{
							"internalType": "uint64",
							"name": "createdAt",
							"type": "uint64"
						},
						{
							"internalType": "enum EtharisEscrow.ContractStatus",
							"name": "status",
							"type": "uint8"
						},
						{
							"internalType": "bool",
							"name": "exists",
							"type": "bool"
						}
					],
					"internalType": "struct EtharisEscrow.Deal",
					"name": "",
					"type": "tuple"
				}
			],
			"stateMutability": "view",
			"type": "function"
		},
		{
			"inputs": [
				{
					"internalType": "string",
					"name": "_dealId",
					"type": "string"
				}
			],
			"name": "emergencyCancelDeal",
			"outputs": [],
			"stateMutability": "nonpayable",
			"type": "function"
		},
		{
			"inputs": [
				{
					"internalType": "address",
					"name": "_token",
					"type": "address"
				},
				{
					"internalType": "uint256",
					"name": "_amount",
					"type": "uint256"
				}
			],
			"name": "emergencyWithdraw",
			"outputs": [],
			"stateMutability": "nonpayable",
			"type": "function"
		},
		{
			"inputs": [],
			"name": "feeRecipient",
			"outputs": [
				{
					"internalType": "address",
					"name": "",
					"type": "address"
				}
			],
			"stateMutability": "view",
			"type": "function"
		},
		{
			"inputs": [
				{
					"internalType": "string",
					"name": "_dealId",
					"type": "string"
				},
				{
					"internalType": "address",
					"name": "_brandAddress",
					"type": "address"
				},
				{
					"internalType": "uint96",
					"name": "_amount",
					"type": "uint96"
				},
				{
					"internalType": "uint256",
					"name": "_deadline",
					"type": "uint256"
				},
				{
					"internalType": "uint8",
					"name": "_v",
					"type": "uint8"
				},
				{
					"internalType": "bytes32",
					"name": "_r",
					"type": "bytes32"
				},
				{
					"internalType": "bytes32",
					"name": "_s",
					"type": "bytes32"
				}
			],
			"name": "fundDeal",
			"outputs": [],
			"stateMutability": "nonpayable",
			"type": "function"
		},
		{
			"inputs": [
				{
					"internalType": "string",
					"name": "_dealId",
					"type": "string"
				}
			],
			"name": "getDeal",
			"outputs": [
				{
					"internalType": "string",
					"name": "dealId",
					"type": "string"
				},
				{
					"internalType": "address",
					"name": "brand",
					"type": "address"
				},
				{
					"internalType": "address",
					"name": "creator",
					"type": "address"
				},
				{
					"internalType": "uint96",
					"name": "amount",
					"type": "uint96"
				},
				{
					"internalType": "uint64",
					"name": "deadline",
					"type": "uint64"
				},
				{
					"internalType": "enum EtharisEscrow.ContractStatus",
					"name": "status",
					"type": "uint8"
				},
				{
					"internalType": "string",
					"name": "briefHash",
					"type": "string"
				},
				{
					"internalType": "string",
					"name": "contentUrl",
					"type": "string"
				},
				{
					"internalType": "uint64",
					"name": "reviewDeadline",
					"type": "uint64"
				},
				{
					"internalType": "uint64",
					"name": "fundedAt",
					"type": "uint64"
				},
				{
					"internalType": "uint64",
					"name": "submittedAt",
					"type": "uint64"
				},
				{
					"internalType": "uint64",
					"name": "createdAt",
					"type": "uint64"
				},
				{
					"internalType": "bool",
					"name": "exists",
					"type": "bool"
				}
			],
			"stateMutability": "view",
			"type": "function"
		},
		{
			"inputs": [
				{
					"internalType": "address",
					"name": "_userAddress",
					"type": "address"
				},
				{
					"internalType": "bool",
					"name": "_isBrand",
					"type": "bool"
				}
			],
			"name": "getDeals",
			"outputs": [
				{
					"internalType": "string[]",
					"name": "",
					"type": "string[]"
				}
			],
			"stateMutability": "view",
			"type": "function"
		},
		{
			"inputs": [
				{
					"internalType": "bytes32",
					"name": "role",
					"type": "bytes32"
				}
			],
			"name": "getRoleAdmin",
			"outputs": [
				{
					"internalType": "bytes32",
					"name": "",
					"type": "bytes32"
				}
			],
			"stateMutability": "view",
			"type": "function"
		},
		{
			"inputs": [
				{
					"internalType": "bytes32",
					"name": "role",
					"type": "bytes32"
				},
				{
					"internalType": "address",
					"name": "account",
					"type": "address"
				}
			],
			"name": "grantRole",
			"outputs": [],
			"stateMutability": "nonpayable",
			"type": "function"
		},
		{
			"inputs": [
				{
					"internalType": "bytes32",
					"name": "role",
					"type": "bytes32"
				},
				{
					"internalType": "address",
					"name": "account",
					"type": "address"
				}
			],
			"name": "hasRole",
			"outputs": [
				{
					"internalType": "bool",
					"name": "",
					"type": "bool"
				}
			],
			"stateMutability": "view",
			"type": "function"
		},
		{
			"inputs": [],
			"name": "idrxToken",
			"outputs": [
				{
					"internalType": "address",
					"name": "",
					"type": "address"
				}
			],
			"stateMutability": "view",
			"type": "function"
		},
		{
			"inputs": [
				{
					"internalType": "string",
					"name": "_dealId",
					"type": "string"
				},
				{
					"internalType": "address",
					"name": "_brandAddress",
					"type": "address"
				},
				{
					"internalType": "string",
					"name": "_reason",
					"type": "string"
				}
			],
			"name": "initiateDispute",
			"outputs": [],
			"stateMutability": "nonpayable",
			"type": "function"
		},
		{
			"inputs": [],
			"name": "pause",
			"outputs": [],
			"stateMutability": "nonpayable",
			"type": "function"
		},
		{
			"inputs": [],
			"name": "paused",
			"outputs": [
				{
					"internalType": "bool",
					"name": "",
					"type": "bool"
				}
			],
			"stateMutability": "view",
			"type": "function"
		},
		{
			"inputs": [],
			"name": "platformFeeBps",
			"outputs": [
				{
					"internalType": "uint96",
					"name": "",
					"type": "uint96"
				}
			],
			"stateMutability": "view",
			"type": "function"
		},
		{
			"inputs": [
				{
					"internalType": "bytes32",
					"name": "role",
					"type": "bytes32"
				},
				{
					"internalType": "address",
					"name": "callerConfirmation",
					"type": "address"
				}
			],
			"name": "renounceRole",
			"outputs": [],
			"stateMutability": "nonpayable",
			"type": "function"
		},
		{
			"inputs": [
				{
					"internalType": "string",
					"name": "_dealId",
					"type": "string"
				},
				{
					"internalType": "address",
					"name": "_creatorAddress",
					"type": "address"
				},
				{
					"internalType": "bool",
					"name": "_accept5050",
					"type": "bool"
				}
			],
			"name": "resolveDispute",
			"outputs": [],
			"stateMutability": "nonpayable",
			"type": "function"
		},
		{
			"inputs": [
				{
					"internalType": "bytes32",
					"name": "role",
					"type": "bytes32"
				},
				{
					"internalType": "address",
					"name": "account",
					"type": "address"
				}
			],
			"name": "revokeRole",
			"outputs": [],
			"stateMutability": "nonpayable",
			"type": "function"
		},
		{
			"inputs": [
				{
					"internalType": "string",
					"name": "_dealId",
					"type": "string"
				},
				{
					"internalType": "address",
					"name": "_creatorAddress",
					"type": "address"
				},
				{
					"internalType": "string",
					"name": "_contentUrl",
					"type": "string"
				}
			],
			"name": "submitContent",
			"outputs": [],
			"stateMutability": "nonpayable",
			"type": "function"
		},
		{
			"inputs": [
				{
					"internalType": "bytes4",
					"name": "interfaceId",
					"type": "bytes4"
				}
			],
			"name": "supportsInterface",
			"outputs": [
				{
					"internalType": "bool",
					"name": "",
					"type": "bool"
				}
			],
			"stateMutability": "view",
			"type": "function"
		},
		{
			"inputs": [],
			"name": "unpause",
			"outputs": [],
			"stateMutability": "nonpayable",
			"type": "function"
		},
		{
			"inputs": [
				{
					"internalType": "address",
					"name": "_newRecipient",
					"type": "address"
				}
			],
			"name": "updateFeeRecipient",
			"outputs": [],
			"stateMutability": "nonpayable",
			"type": "function"
		},
		{
			"inputs": [
				{
					"internalType": "uint96",
					"name": "_newFeeBps",
					"type": "uint96"
				}
			],
			"name": "updatePlatformFee",
			"outputs": [],
			"stateMutability": "nonpayable",
			"type": "function"
		}
	]
}