{
	"data": {
		"bytecode": {
			"linkReferences": {},
			"object": "608060405260fa600355348015610014575f5ffd5b506040516154d13803806154d18339818101604052810190610036919061035d565b8060015f819055505f73ffffffffffffffffffffffffffffffffffffffff168173ffffffffffffffffffffffffffffffffffffffff16036100ae575f6040517f1e4fbdf70000000000000000000000000000000000000000000000000000000081526004016100a591906103bc565b60405180910390fd5b6100bd8161023c60201b60201c565b505f600160146101000a81548160ff0219169083151502179055505f73ffffffffffffffffffffffffffffffffffffffff168373ffffffffffffffffffffffffffffffffffffffff1603610146576040517f08c379a000000000000000000000000000000000000000000000000000000000815260040161013d9061042f565b60405180910390fd5b5f73ffffffffffffffffffffffffffffffffffffffff168273ffffffffffffffffffffffffffffffffffffffff16036101b4576040517f08c379a00000000000000000000000000000000000000000000000000000000081526004016101ab90610497565b60405180910390fd5b8260025f6101000a81548173ffffffffffffffffffffffffffffffffffffffff021916908373ffffffffffffffffffffffffffffffffffffffff1602179055508160045f6101000a81548173ffffffffffffffffffffffffffffffffffffffff021916908373ffffffffffffffffffffffffffffffffffffffff1602179055505050506104b5565b5f60015f9054906101000a900473ffffffffffffffffffffffffffffffffffffffff1690508160015f6101000a81548173ffffffffffffffffffffffffffffffffffffffff021916908373ffffffffffffffffffffffffffffffffffffffff1602179055508173ffffffffffffffffffffffffffffffffffffffff168173ffffffffffffffffffffffffffffffffffffffff167f8be0079c531659141344cd1fd0a4f28419497f9722a3daafe3b4186f6b6457e060405160405180910390a35050565b5f5ffd5b5f73ffffffffffffffffffffffffffffffffffffffff82169050919050565b5f61032c82610303565b9050919050565b61033c81610322565b8114610346575f5ffd5b50565b5f8151905061035781610333565b92915050565b5f5f5f60608486031215610374576103736102ff565b5b5f61038186828701610349565b935050602061039286828701610349565b92505060406103a386828701610349565b9150509250925092565b6103b681610322565b82525050565b5f6020820190506103cf5f8301846103ad565b92915050565b5f82825260208201905092915050565b7f496e76616c6964204944525820746f6b656e20616464726573730000000000005f82015250565b5f610419601a836103d5565b9150610424826103e5565b602082019050919050565b5f6020820190508181035f8301526104468161040d565b9050919050565b7f496e76616c69642066656520726563697069656e7400000000000000000000005f82015250565b5f6104816015836103d5565b915061048c8261044d565b602082019050919050565b5f6020820190508181035f8301526104ae81610475565b9050919050565b61500f806104c25f395ff3fe608060405234801561000f575f5ffd5b50600436106101cd575f3560e01c80638456cb5911610102578063ce422626116100a0578063e70791801161006f578063e7079180146104e6578063f160d3691461051d578063f2fde38b14610539578063f3227dc414610555576101cd565b8063ce4226261461045e578063d46597e31461047a578063d6bc7c63146104aa578063e1a45218146104c8576101cd565b806395ccea67116100dc57806395ccea67146103bb578063a0a57dac146103d7578063aa0b598814610412578063abb83b6f1461042e576101cd565b80638456cb59146103775780638cfbe8c3146103815780638da5cb5b1461039d576101cd565b8063469048401161016f5780635c975abb116101495780635c975abb14610303578063715018a61461032157806373e841201461032b57806376492d3f14610347576101cd565b8063469048401461029957806348f92ee8146102b757806353a140ac146102d3576101cd565b806322dcd13e116101ab57806322dcd13e14610225578063314e4e881461024357806338a13287146102735780633f4ba83a1461028f576101cd565b806302ce5074146101d15780631a1aaeed146101ed5780631f4709d814610209575b5f5ffd5b6101eb60048036038101906101e691906137f2565b610571565b005b610207600480360381019061020291906138a1565b610afa565b005b610223600480360381019061021e91906138a1565b610df5565b005b61022d611168565b60405161023a91906138f7565b60405180910390f35b61025d60048036038101906102589190613910565b61116e565b60405161026a9190613a56565b60405180910390f35b61028d600480360381019061028891906138a1565b61127f565b005b610297611413565b005b6102a1611425565b6040516102ae9190613a85565b60405180910390f35b6102d160048036038101906102cc91906138a1565b61144a565b005b6102ed60048036038101906102e89190613a9e565b611689565b6040516102fa9190613b24565b60405180910390f35b61030b61173a565b6040516103189190613b5e565b60405180910390f35b610329611750565b005b61034560048036038101906103409190613b77565b611763565b005b610361600480360381019061035c91906138a1565b611a55565b60405161036e9190613b5e565b60405180910390f35b61037f611ae0565b005b61039b60048036038101906103969190613b77565b611af2565b005b6103a5611df2565b6040516103b29190613a85565b60405180910390f35b6103d560048036038101906103d09190613a9e565b611e1a565b005b6103f160048036038101906103ec91906138a1565b611f38565b6040516104099c9b9a99989796959493929190613c60565b60405180910390f35b61042c60048036038101906104279190613d2d565b612194565b005b61044860048036038101906104439190613910565b61222b565b6040516104559190613a56565b60405180910390f35b61047860048036038101906104739190613d82565b61233c565b005b610494600480360381019061048f9190613a9e565b61290e565b6040516104a19190613b24565b60405180910390f35b6104b26129bf565b6040516104bf9190613e37565b60405180910390f35b6104d06129e4565b6040516104dd91906138f7565b60405180910390f35b61050060048036038101906104fb91906138a1565b6129ea565b604051610514989796959493929190613e50565b60405180910390f35b61053760048036038101906105329190613910565b612c04565b005b610553600480360381019061054e9190613910565b612d1c565b005b61056f600480360381019061056a91906138a1565b612da0565b005b61057961300d565b6005856040516105899190613f14565b9081526020016040518091039020600b015f9054906101000a900460ff16156105e7576040517f08c379a00000000000000000000000000000000000000000000000000000000081526004016105de90613f74565b60405180910390fd5b5f73ffffffffffffffffffffffffffffffffffffffff168473ffffffffffffffffffffffffffffffffffffffff1603610655576040517f08c379a000000000000000000000000000000000000000000000000000000000815260040161064c90613fdc565b60405180910390fd5b3373ffffffffffffffffffffffffffffffffffffffff168473ffffffffffffffffffffffffffffffffffffffff16036106c3576040517f08c379a00000000000000000000000000000000000000000000000000000000081526004016106ba90614044565b60405180910390fd5b5f8311610705576040517f08c379a00000000000000000000000000000000000000000000000000000000081526004016106fc906140ac565b60405180910390fd5b428211610747576040517f08c379a000000000000000000000000000000000000000000000000000000000815260040161073e90614114565b60405180910390fd5b5f81511161078a576040517f08c379a00000000000000000000000000000000000000000000000000000000081526004016107819061417c565b60405180910390fd5b6040518061018001604052808681526020013373ffffffffffffffffffffffffffffffffffffffff1681526020018573ffffffffffffffffffffffffffffffffffffffff1681526020018481526020018381526020018281526020015f60058111156107f9576107f8613bed565b5b81526020015f81526020015f81526020015f815260200160405180602001604052805f81525081526020016001151581525060058660405161083b9190613f14565b90815260200160405180910390205f820151815f01908161085c919061438e565b506020820151816001015f6101000a81548173ffffffffffffffffffffffffffffffffffffffff021916908373ffffffffffffffffffffffffffffffffffffffff1602179055506040820151816002015f6101000a81548173ffffffffffffffffffffffffffffffffffffffff021916908373ffffffffffffffffffffffffffffffffffffffff160217905550606082015181600301556080820151816004015560a0820151816005019081610912919061438e565b5060c0820151816006015f6101000a81548160ff0219169083600581111561093d5761093c613bed565b5b021790555060e082015181600701556101008201518160080155610120820151816009015561014082015181600a019081610978919061438e565b5061016082015181600b015f6101000a81548160ff02191690831515021790555090505060065f3373ffffffffffffffffffffffffffffffffffffffff1673ffffffffffffffffffffffffffffffffffffffff1681526020019081526020015f2085908060018154018082558091505060019003905f5260205f20015f909190919091509081610a08919061438e565b5060075f8573ffffffffffffffffffffffffffffffffffffffff1673ffffffffffffffffffffffffffffffffffffffff1681526020019081526020015f2085908060018154018082558091505060019003905f5260205f20015f909190919091509081610a75919061438e565b508373ffffffffffffffffffffffffffffffffffffffff163373ffffffffffffffffffffffffffffffffffffffff1686604051610ab29190613f14565b60405180910390207f4dfa2d4e433a4e1fe0aa3a98eef56517737c0ef61b1476caa443106551d802ee8686604051610aeb92919061445d565b60405180910390a45050505050565b610b02613057565b80600581604051610b139190613f14565b9081526020016040518091039020600b015f9054906101000a900460ff16610b70576040517f08c379a0000000000000000000000000000000000000000000000000000000008152600401610b67906144ce565b60405180910390fd5b610b786130de565b5f600583604051610b899190613f14565b9081526020016040518091039020905060016005811115610bad57610bac613bed565b5b816006015f9054906101000a900460ff166005811115610bd057610bcf613bed565b5b1480610c10575060026005811115610beb57610bea613bed565b5b816006015f9054906101000a900460ff166005811115610c0e57610c0d613bed565b5b145b610c4f576040517f08c379a0000000000000000000000000000000000000000000000000000000008152600401610c4690614536565b60405180910390fd5b5f816003015490506005826006015f6101000a81548160ff02191690836005811115610c7e57610c7d613bed565b5b021790555060025f9054906101000a900473ffffffffffffffffffffffffffffffffffffffff1673ffffffffffffffffffffffffffffffffffffffff1663a9059cbb836001015f9054906101000a900473ffffffffffffffffffffffffffffffffffffffff16836040518363ffffffff1660e01b8152600401610d02929190614554565b6020604051808303815f875af1158015610d1e573d5f5f3e3d5ffd5b505050506040513d601f19601f82011682018060405250810190610d42919061458f565b610d81576040517f08c379a0000000000000000000000000000000000000000000000000000000008152600401610d7890614604565b60405180910390fd5b3373ffffffffffffffffffffffffffffffffffffffff1684604051610da69190613f14565b60405180910390207fb5c5cbe36d1c39a7f7723fd013e345b60c0afedaeb3ef7285058266004063ff58342604051610ddf92919061445d565b60405180910390a35050610df161312b565b5050565b610dfd61300d565b80600581604051610e0e9190613f14565b9081526020016040518091039020600b015f9054906101000a900460ff16610e6b576040517f08c379a0000000000000000000000000000000000000000000000000000000008152600401610e62906144ce565b60405180910390fd5b813373ffffffffffffffffffffffffffffffffffffffff16600582604051610e939190613f14565b90815260200160405180910390206001015f9054906101000a900473ffffffffffffffffffffffffffffffffffffffff1673ffffffffffffffffffffffffffffffffffffffff1614610f1a576040517f08c379a0000000000000000000000000000000000000000000000000000000008152600401610f119061466c565b60405180910390fd5b825f806005811115610f2f57610f2e613bed565b5b600583604051610f3f9190613f14565b90815260200160405180910390206006015f9054906101000a900460ff166005811115610f6f57610f6e613bed565b5b14610faf576040517f08c379a0000000000000000000000000000000000000000000000000000000008152600401610fa6906146d4565b60405180910390fd5b610fb76130de565b5f600586604051610fc89190613f14565b9081526020016040518091039020905060025f9054906101000a900473ffffffffffffffffffffffffffffffffffffffff1673ffffffffffffffffffffffffffffffffffffffff166323b872dd333084600301546040518463ffffffff1660e01b815260040161103a939291906146f2565b6020604051808303815f875af1158015611056573d5f5f3e3d5ffd5b505050506040513d601f19601f8201168201806040525081019061107a919061458f565b6110b9576040517f08c379a00000000000000000000000000000000000000000000000000000000081526004016110b090614771565b60405180910390fd5b6001816006015f6101000a81548160ff021916908360058111156110e0576110df613bed565b5b02179055504281600701819055503373ffffffffffffffffffffffffffffffffffffffff16866040516111139190613f14565b60405180910390207f61f37b84008cef454d2bf9d44a9e57ad7224d5c7ce9d19c234404b9229dfe71e83600301544260405161115092919061445d565b60405180910390a35061116161312b565b5050505050565b60035481565b606060075f8373ffffffffffffffffffffffffffffffffffffffff1673ffffffffffffffffffffffffffffffffffffffff1681526020019081526020015f20805480602002602001604051908101604052809291908181526020015f905b82821015611274578382905f5260205f200180546111e9906141c7565b80601f0160208091040260200160405190810160405280929190818152602001828054611215906141c7565b80156112605780601f1061123757610100808354040283529160200191611260565b820191905f5260205f20905b81548152906001019060200180831161124357829003601f168201915b5050505050815260200190600101906111cc565b505050509050919050565b61128761300d565b806005816040516112989190613f14565b9081526020016040518091039020600b015f9054906101000a900460ff166112f5576040517f08c379a00000000000000000000000000000000000000000000000000000000081526004016112ec906144ce565b60405180910390fd5b81600280600581111561130b5761130a613bed565b5b60058360405161131b9190613f14565b90815260200160405180910390206006015f9054906101000a900460ff16600581111561134b5761134a613bed565b5b1461138b576040517f08c379a0000000000000000000000000000000000000000000000000000000008152600401611382906146d4565b60405180910390fd5b6113936130de565b5f6005856040516113a49190613f14565b9081526020016040518091039020905080600901544210156113fb576040517f08c379a00000000000000000000000000000000000000000000000000000000081526004016113f2906147d9565b60405180910390fd5b61140485613134565b5061140d61312b565b50505050565b61141b613057565b611423613441565b565b60045f9054906101000a900473ffffffffffffffffffffffffffffffffffffffff1681565b61145261300d565b806005816040516114639190613f14565b9081526020016040518091039020600b015f9054906101000a900460ff166114c0576040517f08c379a00000000000000000000000000000000000000000000000000000000081526004016114b7906144ce565b60405180910390fd5b813373ffffffffffffffffffffffffffffffffffffffff166005826040516114e89190613f14565b90815260200160405180910390206001015f9054906101000a900473ffffffffffffffffffffffffffffffffffffffff1673ffffffffffffffffffffffffffffffffffffffff161461156f576040517f08c379a00000000000000000000000000000000000000000000000000000000081526004016115669061466c565b60405180910390fd5b82600280600581111561158557611584613bed565b5b6005836040516115959190613f14565b90815260200160405180910390206006015f9054906101000a900460ff1660058111156115c5576115c4613bed565b5b14611605576040517f08c379a00000000000000000000000000000000000000000000000000000000081526004016115fc906146d4565b60405180910390fd5b61160d6130de565b3373ffffffffffffffffffffffffffffffffffffffff16856040516116329190613f14565b60405180910390207fdaf6a08416428adedb83fb1497254d7884d27de5282bf9d9ec91df26f32053254260405161166991906138f7565b60405180910390a361167a85613134565b61168261312b565b5050505050565b6007602052815f5260405f2081815481106116a2575f80fd5b905f5260205f20015f915091505080546116bb906141c7565b80601f01602080910402602001604051908101604052809291908181526020018280546116e7906141c7565b80156117325780601f1061170957610100808354040283529160200191611732565b820191905f5260205f20905b81548152906001019060200180831161171557829003601f168201915b505050505081565b5f600160149054906101000a900460ff16905090565b611758613057565b6117615f6134a3565b565b61176b61300d565b8160058160405161177c9190613f14565b9081526020016040518091039020600b015f9054906101000a900460ff166117d9576040517f08c379a00000000000000000000000000000000000000000000000000000000081526004016117d0906144ce565b60405180910390fd5b823373ffffffffffffffffffffffffffffffffffffffff166005826040516118019190613f14565b90815260200160405180910390206002015f9054906101000a900473ffffffffffffffffffffffffffffffffffffffff1673ffffffffffffffffffffffffffffffffffffffff1614611888576040517f08c379a000000000000000000000000000000000000000000000000000000000815260040161187f90614841565b60405180910390fd5b83600180600581111561189e5761189d613bed565b5b6005836040516118ae9190613f14565b90815260200160405180910390206006015f9054906101000a900460ff1660058111156118de576118dd613bed565b5b1461191e576040517f08c379a0000000000000000000000000000000000000000000000000000000008152600401611915906146d4565b60405180910390fd5b5f855111611961576040517f08c379a0000000000000000000000000000000000000000000000000000000008152600401611958906148a9565b60405180910390fd5b5f6005876040516119729190613f14565b908152602001604051809103902090506002816006015f6101000a81548160ff021916908360058111156119a9576119a8613bed565b5b02179055504281600801819055506203f480426119c691906148f4565b81600901819055508581600a0190816119df919061438e565b503373ffffffffffffffffffffffffffffffffffffffff1687604051611a059190613f14565b60405180910390207fe66f0eba692973ec25ddf9c2633c8ebfabc7fb166b090db26ddbdadba565338288428560090154604051611a4493929190614927565b60405180910390a350505050505050565b5f5f600583604051611a679190613f14565b9081526020016040518091039020905080600b015f9054906101000a900460ff168015611ac8575060026005811115611aa357611aa2613bed565b5b816006015f9054906101000a900460ff166005811115611ac657611ac5613bed565b5b145b8015611ad8575080600901544210155b915050919050565b611ae8613057565b611af0613566565b565b611afa61300d565b81600581604051611b0b9190613f14565b9081526020016040518091039020600b015f9054906101000a900460ff16611b68576040517f08c379a0000000000000000000000000000000000000000000000000000000008152600401611b5f906144ce565b60405180910390fd5b823373ffffffffffffffffffffffffffffffffffffffff16600582604051611b909190613f14565b90815260200160405180910390206001015f9054906101000a900473ffffffffffffffffffffffffffffffffffffffff1673ffffffffffffffffffffffffffffffffffffffff1614611c17576040517f08c379a0000000000000000000000000000000000000000000000000000000008152600401611c0e9061466c565b60405180910390fd5b836002806005811115611c2d57611c2c613bed565b5b600583604051611c3d9190613f14565b90815260200160405180910390206006015f9054906101000a900460ff166005811115611c6d57611c6c613bed565b5b14611cad576040517f08c379a0000000000000000000000000000000000000000000000000000000008152600401611ca4906146d4565b60405180910390fd5b5f600587604051611cbe9190613f14565b9081526020016040518091039020905080600901544210611d14576040517f08c379a0000000000000000000000000000000000000000000000000000000008152600401611d0b906149ad565b60405180910390fd5b5f865111611d57576040517f08c379a0000000000000000000000000000000000000000000000000000000008152600401611d4e90614a15565b60405180910390fd5b6003816006015f6101000a81548160ff02191690836005811115611d7e57611d7d613bed565b5b02179055503373ffffffffffffffffffffffffffffffffffffffff1687604051611da89190613f14565b60405180910390207f5f133162039e6b535d51d97375f17b82e0b791c8dbee12a49067b9b800d53a1d8842604051611de1929190614a33565b60405180910390a350505050505050565b5f60015f9054906101000a900473ffffffffffffffffffffffffffffffffffffffff16905090565b611e22613057565b60025f9054906101000a900473ffffffffffffffffffffffffffffffffffffffff1673ffffffffffffffffffffffffffffffffffffffff168273ffffffffffffffffffffffffffffffffffffffff1603611eb1576040517f08c379a0000000000000000000000000000000000000000000000000000000008152600401611ea890614aab565b60405180910390fd5b8173ffffffffffffffffffffffffffffffffffffffff1663a9059cbb611ed5611df2565b836040518363ffffffff1660e01b8152600401611ef3929190614554565b6020604051808303815f875af1158015611f0f573d5f5f3e3d5ffd5b505050506040513d601f19601f82011682018060405250810190611f33919061458f565b505050565b6005818051602081018201805184825260208301602085012081835280955050505050505f91509050805f018054611f6f906141c7565b80601f0160208091040260200160405190810160405280929190818152602001828054611f9b906141c7565b8015611fe65780601f10611fbd57610100808354040283529160200191611fe6565b820191905f5260205f20905b815481529060010190602001808311611fc957829003601f168201915b505050505090806001015f9054906101000a900473ffffffffffffffffffffffffffffffffffffffff1690806002015f9054906101000a900473ffffffffffffffffffffffffffffffffffffffff1690806003015490806004015490806005018054612051906141c7565b80601f016020809104026020016040519081016040528092919081815260200182805461207d906141c7565b80156120c85780601f1061209f576101008083540402835291602001916120c8565b820191905f5260205f20905b8154815290600101906020018083116120ab57829003601f168201915b505050505090806006015f9054906101000a900460ff169080600701549080600801549080600901549080600a018054612101906141c7565b80601f016020809104026020016040519081016040528092919081815260200182805461212d906141c7565b80156121785780601f1061214f57610100808354040283529160200191612178565b820191905f5260205f20905b81548152906001019060200180831161215b57829003601f168201915b50505050509080600b015f9054906101000a900460ff1690508c565b61219c613057565b6103e88111156121e1576040517f08c379a00000000000000000000000000000000000000000000000000000000081526004016121d890614b13565b60405180910390fd5b5f6003549050816003819055507fd347e206f25a89b917fc9482f1a2d294d749baa4dc9bde7fb495ee11fe491643818360405161221f92919061445d565b60405180910390a15050565b606060065f8373ffffffffffffffffffffffffffffffffffffffff1673ffffffffffffffffffffffffffffffffffffffff1681526020019081526020015f20805480602002602001604051908101604052809291908181526020015f905b82821015612331578382905f5260205f200180546122a6906141c7565b80601f01602080910402602001604051908101604052809291908181526020018280546122d2906141c7565b801561231d5780601f106122f45761010080835404028352916020019161231d565b820191905f5260205f20905b81548152906001019060200180831161230057829003601f168201915b505050505081526020019060010190612289565b505050509050919050565b61234461300d565b816005816040516123559190613f14565b9081526020016040518091039020600b015f9054906101000a900460ff166123b2576040517f08c379a00000000000000000000000000000000000000000000000000000000081526004016123a9906144ce565b60405180910390fd5b823373ffffffffffffffffffffffffffffffffffffffff166005826040516123da9190613f14565b90815260200160405180910390206002015f9054906101000a900473ffffffffffffffffffffffffffffffffffffffff1673ffffffffffffffffffffffffffffffffffffffff1614612461576040517f08c379a000000000000000000000000000000000000000000000000000000000815260040161245890614841565b60405180910390fd5b83600380600581111561247757612476613bed565b5b6005836040516124879190613f14565b90815260200160405180910390206006015f9054906101000a900460ff1660058111156124b7576124b6613bed565b5b146124f7576040517f08c379a00000000000000000000000000000000000000000000000000000000081526004016124ee906146d4565b60405180910390fd5b6124ff6130de565b5f6005876040516125109190613f14565b908152602001604051809103902090506004816006015f6101000a81548160ff0219169083600581111561254757612546613bed565b5b02179055505f5f871561278857612710611f4084600301546125699190614b31565b6125739190614b9f565b91508183600301546125859190614bcf565b905060025f9054906101000a900473ffffffffffffffffffffffffffffffffffffffff1673ffffffffffffffffffffffffffffffffffffffff1663a9059cbb846002015f9054906101000a900473ffffffffffffffffffffffffffffffffffffffff16846040518363ffffffff1660e01b8152600401612606929190614554565b6020604051808303815f875af1158015612622573d5f5f3e3d5ffd5b505050506040513d601f19601f82011682018060405250810190612646919061458f565b612685576040517f08c379a000000000000000000000000000000000000000000000000000000000815260040161267c90614c4c565b60405180910390fd5b60025f9054906101000a900473ffffffffffffffffffffffffffffffffffffffff1673ffffffffffffffffffffffffffffffffffffffff1663a9059cbb846001015f9054906101000a900473ffffffffffffffffffffffffffffffffffffffff16836040518363ffffffff1660e01b8152600401612704929190614554565b6020604051808303815f875af1158015612720573d5f5f3e3d5ffd5b505050506040513d601f19601f82011682018060405250810190612744919061458f565b612783576040517f08c379a000000000000000000000000000000000000000000000000000000000815260040161277a90614cb4565b60405180910390fd5b612891565b5f91508260030154905060025f9054906101000a900473ffffffffffffffffffffffffffffffffffffffff1673ffffffffffffffffffffffffffffffffffffffff1663a9059cbb846001015f9054906101000a900473ffffffffffffffffffffffffffffffffffffffff16836040518363ffffffff1660e01b8152600401612811929190614554565b6020604051808303815f875af115801561282d573d5f5f3e3d5ffd5b505050506040513d601f19601f82011682018060405250810190612851919061458f565b612890576040517f08c379a000000000000000000000000000000000000000000000000000000000815260040161288790614cb4565b60405180910390fd5b5b3373ffffffffffffffffffffffffffffffffffffffff16896040516128b69190613f14565b60405180910390207f89571b438a58807e22c9a5161205ef2e2ba784b6a7bd96b05871d4a84190b65f8a8585426040516128f39493929190614cd2565b60405180910390a350505061290661312b565b505050505050565b6006602052815f5260405f208181548110612927575f80fd5b905f5260205f20015f91509150508054612940906141c7565b80601f016020809104026020016040519081016040528092919081815260200182805461296c906141c7565b80156129b75780601f1061298e576101008083540402835291602001916129b7565b820191905f5260205f20905b81548152906001019060200180831161299a57829003601f168201915b505050505081565b60025f9054906101000a900473ffffffffffffffffffffffffffffffffffffffff1681565b61271081565b5f5f5f5f5f6060805f5f60058a604051612a049190613f14565b9081526020016040518091039020905080600b015f9054906101000a900460ff16612a64576040517f08c379a0000000000000000000000000000000000000000000000000000000008152600401612a5b906144ce565b60405180910390fd5b806001015f9054906101000a900473ffffffffffffffffffffffffffffffffffffffff16816002015f9054906101000a900473ffffffffffffffffffffffffffffffffffffffff1682600301548360040154846006015f9054906101000a900460ff168560050186600a018760090154828054612ae0906141c7565b80601f0160208091040260200160405190810160405280929190818152602001828054612b0c906141c7565b8015612b575780601f10612b2e57610100808354040283529160200191612b57565b820191905f5260205f20905b815481529060010190602001808311612b3a57829003601f168201915b50505050509250818054612b6a906141c7565b80601f0160208091040260200160405190810160405280929190818152602001828054612b96906141c7565b8015612be15780601f10612bb857610100808354040283529160200191612be1565b820191905f5260205f20905b815481529060010190602001808311612bc457829003601f168201915b505050505091509850985098509850985098509850985050919395975091939597565b612c0c613057565b5f73ffffffffffffffffffffffffffffffffffffffff168173ffffffffffffffffffffffffffffffffffffffff1603612c7a576040517f08c379a0000000000000000000000000000000000000000000000000000000008152600401612c7190614d5f565b60405180910390fd5b5f60045f9054906101000a900473ffffffffffffffffffffffffffffffffffffffff1690508160045f6101000a81548173ffffffffffffffffffffffffffffffffffffffff021916908373ffffffffffffffffffffffffffffffffffffffff1602179055507faaebcf1bfa00580e41d966056b48521fa9f202645c86d4ddf28113e617c1b1d38183604051612d10929190614d7d565b60405180910390a15050565b612d24613057565b5f73ffffffffffffffffffffffffffffffffffffffff168173ffffffffffffffffffffffffffffffffffffffff1603612d94575f6040517f1e4fbdf7000000000000000000000000000000000000000000000000000000008152600401612d8b9190613a85565b60405180910390fd5b612d9d816134a3565b50565b80600581604051612db19190613f14565b9081526020016040518091039020600b015f9054906101000a900460ff16612e0e576040517f08c379a0000000000000000000000000000000000000000000000000000000008152600401612e05906144ce565b60405180910390fd5b813373ffffffffffffffffffffffffffffffffffffffff16600582604051612e369190613f14565b90815260200160405180910390206001015f9054906101000a900473ffffffffffffffffffffffffffffffffffffffff1673ffffffffffffffffffffffffffffffffffffffff1614612ebd576040517f08c379a0000000000000000000000000000000000000000000000000000000008152600401612eb49061466c565b60405180910390fd5b825f806005811115612ed257612ed1613bed565b5b600583604051612ee29190613f14565b90815260200160405180910390206006015f9054906101000a900460ff166005811115612f1257612f11613bed565b5b14612f52576040517f08c379a0000000000000000000000000000000000000000000000000000000008152600401612f49906146d4565b60405180910390fd5b5f600586604051612f639190613f14565b908152602001604051809103902090506005816006015f6101000a81548160ff02191690836005811115612f9a57612f99613bed565b5b02179055503373ffffffffffffffffffffffffffffffffffffffff1686604051612fc49190613f14565b60405180910390207fb5c5cbe36d1c39a7f7723fd013e345b60c0afedaeb3ef7285058266004063ff55f42604051612ffd929190614ddd565b60405180910390a3505050505050565b61301561173a565b15613055576040517f08c379a000000000000000000000000000000000000000000000000000000000815260040161304c90614e4e565b60405180910390fd5b565b61305f6135c8565b73ffffffffffffffffffffffffffffffffffffffff1661307d611df2565b73ffffffffffffffffffffffffffffffffffffffff16146130dc576130a06135c8565b6040517f118cdaa70000000000000000000000000000000000000000000000000000000081526004016130d39190613a85565b60405180910390fd5b565b60025f5403613122576040517f08c379a000000000000000000000000000000000000000000000000000000000815260040161311990614eb6565b60405180910390fd5b60025f81905550565b60015f81905550565b5f6005826040516131459190613f14565b908152602001604051809103902090505f612710600354836003015461316b9190614b31565b6131759190614b9f565b90505f8183600301546131889190614bcf565b90506004836006015f6101000a81548160ff021916908360058111156131b1576131b0613bed565b5b021790555060025f9054906101000a900473ffffffffffffffffffffffffffffffffffffffff1673ffffffffffffffffffffffffffffffffffffffff1663a9059cbb846002015f9054906101000a900473ffffffffffffffffffffffffffffffffffffffff16836040518363ffffffff1660e01b8152600401613235929190614554565b6020604051808303815f875af1158015613251573d5f5f3e3d5ffd5b505050506040513d601f19601f82011682018060405250810190613275919061458f565b6132b4576040517f08c379a00000000000000000000000000000000000000000000000000000000081526004016132ab90614c4c565b60405180910390fd5b60025f9054906101000a900473ffffffffffffffffffffffffffffffffffffffff1673ffffffffffffffffffffffffffffffffffffffff1663a9059cbb60045f9054906101000a900473ffffffffffffffffffffffffffffffffffffffff16846040518363ffffffff1660e01b8152600401613331929190614554565b6020604051808303815f875af115801561334d573d5f5f3e3d5ffd5b505050506040513d601f19601f82011682018060405250810190613371919061458f565b6133b0576040517f08c379a00000000000000000000000000000000000000000000000000000000081526004016133a790614f1e565b60405180910390fd5b826002015f9054906101000a900473ffffffffffffffffffffffffffffffffffffffff1673ffffffffffffffffffffffffffffffffffffffff16846040516133f89190613f14565b60405180910390207f0560b3940c32ab1a6bdec774d53cfe132e1991d2b88c907101fe3575aa62f31e83854260405161343393929190614f3c565b60405180910390a350505050565b6134496135cf565b5f600160146101000a81548160ff0219169083151502179055507f5db9ee0a495bf2e6ff9c91a7834c1ba4fdd244a5e8aa4e537bd38aeae4b073aa61348c6135c8565b6040516134999190613a85565b60405180910390a1565b5f60015f9054906101000a900473ffffffffffffffffffffffffffffffffffffffff1690508160015f6101000a81548173ffffffffffffffffffffffffffffffffffffffff021916908373ffffffffffffffffffffffffffffffffffffffff1602179055508173ffffffffffffffffffffffffffffffffffffffff168173ffffffffffffffffffffffffffffffffffffffff167f8be0079c531659141344cd1fd0a4f28419497f9722a3daafe3b4186f6b6457e060405160405180910390a35050565b61356e61300d565b60018060146101000a81548160ff0219169083151502179055507f62e78cea01bee320cd4e420270b5ea74000d11b0c9f74754ebdbfc544b05a2586135b16135c8565b6040516135be9190613a85565b60405180910390a1565b5f33905090565b6135d761173a565b613616576040517f08c379a000000000000000000000000000000000000000000000000000000000815260040161360d90614fbb565b60405180910390fd5b565b5f604051905090565b5f5ffd5b5f5ffd5b5f5ffd5b5f5ffd5b5f601f19601f8301169050919050565b7f4e487b71000000000000000000000000000000000000000000000000000000005f52604160045260245ffd5b61367782613631565b810181811067ffffffffffffffff8211171561369657613695613641565b5b80604052505050565b5f6136a8613618565b90506136b4828261366e565b919050565b5f67ffffffffffffffff8211156136d3576136d2613641565b5b6136dc82613631565b9050602081019050919050565b828183375f83830152505050565b5f613709613704846136b9565b61369f565b9050828152602081018484840111156137255761372461362d565b5b6137308482856136e9565b509392505050565b5f82601f83011261374c5761374b613629565b5b813561375c8482602086016136f7565b91505092915050565b5f73ffffffffffffffffffffffffffffffffffffffff82169050919050565b5f61378e82613765565b9050919050565b61379e81613784565b81146137a8575f5ffd5b50565b5f813590506137b981613795565b92915050565b5f819050919050565b6137d1816137bf565b81146137db575f5ffd5b50565b5f813590506137ec816137c8565b92915050565b5f5f5f5f5f60a0868803121561380b5761380a613621565b5b5f86013567ffffffffffffffff81111561382857613827613625565b5b61383488828901613738565b9550506020613845888289016137ab565b9450506040613856888289016137de565b9350506060613867888289016137de565b925050608086013567ffffffffffffffff81111561388857613887613625565b5b61389488828901613738565b9150509295509295909350565b5f602082840312156138b6576138b5613621565b5b5f82013567ffffffffffffffff8111156138d3576138d2613625565b5b6138df84828501613738565b91505092915050565b6138f1816137bf565b82525050565b5f60208201905061390a5f8301846138e8565b92915050565b5f6020828403121561392557613924613621565b5b5f613932848285016137ab565b91505092915050565b5f81519050919050565b5f82825260208201905092915050565b5f819050602082019050919050565b5f81519050919050565b5f82825260208201905092915050565b8281835e5f83830152505050565b5f61399682613964565b6139a0818561396e565b93506139b081856020860161397e565b6139b981613631565b840191505092915050565b5f6139cf838361398c565b905092915050565b5f602082019050919050565b5f6139ed8261393b565b6139f78185613945565b935083602082028501613a0985613955565b805f5b85811015613a445784840389528151613a2585826139c4565b9450613a30836139d7565b925060208a01995050600181019050613a0c565b50829750879550505050505092915050565b5f6020820190508181035f830152613a6e81846139e3565b905092915050565b613a7f81613784565b82525050565b5f602082019050613a985f830184613a76565b92915050565b5f5f60408385031215613ab457613ab3613621565b5b5f613ac1858286016137ab565b9250506020613ad2858286016137de565b9150509250929050565b5f82825260208201905092915050565b5f613af682613964565b613b008185613adc565b9350613b1081856020860161397e565b613b1981613631565b840191505092915050565b5f6020820190508181035f830152613b3c8184613aec565b905092915050565b5f8115159050919050565b613b5881613b44565b82525050565b5f602082019050613b715f830184613b4f565b92915050565b5f5f60408385031215613b8d57613b8c613621565b5b5f83013567ffffffffffffffff811115613baa57613ba9613625565b5b613bb685828601613738565b925050602083013567ffffffffffffffff811115613bd757613bd6613625565b5b613be385828601613738565b9150509250929050565b7f4e487b71000000000000000000000000000000000000000000000000000000005f52602160045260245ffd5b60068110613c2b57613c2a613bed565b5b50565b5f819050613c3b82613c1a565b919050565b5f613c4a82613c2e565b9050919050565b613c5a81613c40565b82525050565b5f610180820190508181035f830152613c79818f613aec565b9050613c88602083018e613a76565b613c95604083018d613a76565b613ca2606083018c6138e8565b613caf608083018b6138e8565b81810360a0830152613cc1818a613aec565b9050613cd060c0830189613c51565b613cdd60e08301886138e8565b613ceb6101008301876138e8565b613cf96101208301866138e8565b818103610140830152613d0c8185613aec565b9050613d1c610160830184613b4f565b9d9c50505050505050505050505050565b5f60208284031215613d4257613d41613621565b5b5f613d4f848285016137de565b91505092915050565b613d6181613b44565b8114613d6b575f5ffd5b50565b5f81359050613d7c81613d58565b92915050565b5f5f60408385031215613d9857613d97613621565b5b5f83013567ffffffffffffffff811115613db557613db4613625565b5b613dc185828601613738565b9250506020613dd285828601613d6e565b9150509250929050565b5f819050919050565b5f613dff613dfa613df584613765565b613ddc565b613765565b9050919050565b5f613e1082613de5565b9050919050565b5f613e2182613e06565b9050919050565b613e3181613e17565b82525050565b5f602082019050613e4a5f830184613e28565b92915050565b5f61010082019050613e645f83018b613a76565b613e71602083018a613a76565b613e7e60408301896138e8565b613e8b60608301886138e8565b613e986080830187613c51565b81810360a0830152613eaa8186613aec565b905081810360c0830152613ebe8185613aec565b9050613ecd60e08301846138e8565b9998505050505050505050565b5f81905092915050565b5f613eee82613964565b613ef88185613eda565b9350613f0881856020860161397e565b80840191505092915050565b5f613f1f8284613ee4565b915081905092915050565b7f4465616c20494420616c726561647920657869737473000000000000000000005f82015250565b5f613f5e601683613adc565b9150613f6982613f2a565b602082019050919050565b5f6020820190508181035f830152613f8b81613f52565b9050919050565b7f496e76616c69642063726561746f7220616464726573730000000000000000005f82015250565b5f613fc6601783613adc565b9150613fd182613f92565b602082019050919050565b5f6020820190508181035f830152613ff381613fba565b9050919050565b7f43726561746f722063616e6e6f74206265206272616e640000000000000000005f82015250565b5f61402e601783613adc565b915061403982613ffa565b602082019050919050565b5f6020820190508181035f83015261405b81614022565b9050919050565b7f416d6f756e74206d7573742062652067726561746572207468616e20300000005f82015250565b5f614096601d83613adc565b91506140a182614062565b602082019050919050565b5f6020820190508181035f8301526140c38161408a565b9050919050565b7f446561646c696e65206d75737420626520696e206675747572650000000000005f82015250565b5f6140fe601a83613adc565b9150614109826140ca565b602082019050919050565b5f6020820190508181035f83015261412b816140f2565b9050919050565b7f42726965662068617368207265717569726564000000000000000000000000005f82015250565b5f614166601383613adc565b915061417182614132565b602082019050919050565b5f6020820190508181035f8301526141938161415a565b9050919050565b7f4e487b71000000000000000000000000000000000000000000000000000000005f52602260045260245ffd5b5f60028204905060018216806141de57607f821691505b6020821081036141f1576141f061419a565b5b50919050565b5f819050815f5260205f209050919050565b5f6020601f8301049050919050565b5f82821b905092915050565b5f600883026142537fffffffffffffffffffffffffffffffffffffffffffffffffffffffffffffffff82614218565b61425d8683614218565b95508019841693508086168417925050509392505050565b5f61428f61428a614285846137bf565b613ddc565b6137bf565b9050919050565b5f819050919050565b6142a883614275565b6142bc6142b482614296565b848454614224565b825550505050565b5f5f905090565b6142d36142c4565b6142de81848461429f565b505050565b5b81811015614301576142f65f826142cb565b6001810190506142e4565b5050565b601f82111561434657614317816141f7565b61432084614209565b8101602085101561432f578190505b61434361433b85614209565b8301826142e3565b50505b505050565b5f82821c905092915050565b5f6143665f198460080261434b565b1980831691505092915050565b5f61437e8383614357565b9150826002028217905092915050565b61439782613964565b67ffffffffffffffff8111156143b0576143af613641565b5b6143ba82546141c7565b6143c5828285614305565b5f60209050601f8311600181146143f6575f84156143e4578287015190505b6143ee8582614373565b865550614455565b601f198416614404866141f7565b5f5b8281101561442b57848901518255600182019150602085019450602081019050614406565b868310156144485784890151614444601f891682614357565b8355505b6001600288020188555050505b505050505050565b5f6040820190506144705f8301856138e8565b61447d60208301846138e8565b9392505050565b7f4465616c20646f6573206e6f74206578697374000000000000000000000000005f82015250565b5f6144b8601383613adc565b91506144c382614484565b602082019050919050565b5f6020820190508181035f8301526144e5816144ac565b9050919050565b7f43616e6e6f742063616e63656c2074686973206465616c0000000000000000005f82015250565b5f614520601783613adc565b915061452b826144ec565b602082019050919050565b5f6020820190508181035f83015261454d81614514565b9050919050565b5f6040820190506145675f830185613a76565b61457460208301846138e8565b9392505050565b5f8151905061458981613d58565b92915050565b5f602082840312156145a4576145a3613621565b5b5f6145b18482850161457b565b91505092915050565b7f526566756e64206661696c6564000000000000000000000000000000000000005f82015250565b5f6145ee600d83613adc565b91506145f9826145ba565b602082019050919050565b5f6020820190508181035f83015261461b816145e2565b9050919050565b7f4f6e6c79206272616e642063616e2063616c6c207468697300000000000000005f82015250565b5f614656601883613adc565b915061466182614622565b602082019050919050565b5f6020820190508181035f8301526146838161464a565b9050919050565b7f496e76616c6964206465616c20737461747573000000000000000000000000005f82015250565b5f6146be601383613adc565b91506146c98261468a565b602082019050919050565b5f6020820190508181035f8301526146eb816146b2565b9050919050565b5f6060820190506147055f830186613a76565b6147126020830185613a76565b61471f60408301846138e8565b949350505050565b7f49445258207472616e73666572206661696c65640000000000000000000000005f82015250565b5f61475b601483613adc565b915061476682614727565b602082019050919050565b5f6020820190508181035f8301526147888161474f565b9050919050565b7f52657669657720706572696f64206e6f7420656e6465640000000000000000005f82015250565b5f6147c3601783613adc565b91506147ce8261478f565b602082019050919050565b5f6020820190508181035f8301526147f0816147b7565b9050919050565b7f4f6e6c792063726561746f722063616e2063616c6c20746869730000000000005f82015250565b5f61482b601a83613adc565b9150614836826147f7565b602082019050919050565b5f6020820190508181035f8301526148588161481f565b9050919050565b7f436f6e74656e742055524c2072657175697265640000000000000000000000005f82015250565b5f614893601483613adc565b915061489e8261485f565b602082019050919050565b5f6020820190508181035f8301526148c081614887565b9050919050565b7f4e487b71000000000000000000000000000000000000000000000000000000005f52601160045260245ffd5b5f6148fe826137bf565b9150614909836137bf565b9250828201905080821115614921576149206148c7565b5b92915050565b5f6060820190508181035f83015261493f8186613aec565b905061494e60208301856138e8565b61495b60408301846138e8565b949350505050565b7f52657669657720706572696f6420656e646564000000000000000000000000005f82015250565b5f614997601383613adc565b91506149a282614963565b602082019050919050565b5f6020820190508181035f8301526149c48161498b565b9050919050565b7f526561736f6e20726571756972656400000000000000000000000000000000005f82015250565b5f6149ff600f83613adc565b9150614a0a826149cb565b602082019050919050565b5f6020820190508181035f830152614a2c816149f3565b9050919050565b5f6040820190508181035f830152614a4b8185613aec565b9050614a5a60208301846138e8565b9392505050565b7f43616e6e6f7420776974686472617720494452580000000000000000000000005f82015250565b5f614a95601483613adc565b9150614aa082614a61565b602082019050919050565b5f6020820190508181035f830152614ac281614a89565b9050919050565b7f46656520746f6f206869676820286d61782031302529000000000000000000005f82015250565b5f614afd601683613adc565b9150614b0882614ac9565b602082019050919050565b5f6020820190508181035f830152614b2a81614af1565b9050919050565b5f614b3b826137bf565b9150614b46836137bf565b9250828202614b54816137bf565b91508282048414831517614b6b57614b6a6148c7565b5b5092915050565b7f4e487b71000000000000000000000000000000000000000000000000000000005f52601260045260245ffd5b5f614ba9826137bf565b9150614bb4836137bf565b925082614bc457614bc3614b72565b5b828204905092915050565b5f614bd9826137bf565b9150614be4836137bf565b9250828203905081811115614bfc57614bfb6148c7565b5b92915050565b7f5472616e7366657220746f2063726561746f72206661696c65640000000000005f82015250565b5f614c36601a83613adc565b9150614c4182614c02565b602082019050919050565b5f6020820190508181035f830152614c6381614c2a565b9050919050565b7f526566756e6420746f206272616e64206661696c6564000000000000000000005f82015250565b5f614c9e601683613adc565b9150614ca982614c6a565b602082019050919050565b5f6020820190508181035f830152614ccb81614c92565b9050919050565b5f608082019050614ce55f830187613b4f565b614cf260208301866138e8565b614cff60408301856138e8565b614d0c60608301846138e8565b95945050505050565b7f496e76616c6964206164647265737300000000000000000000000000000000005f82015250565b5f614d49600f83613adc565b9150614d5482614d15565b602082019050919050565b5f6020820190508181035f830152614d7681614d3d565b9050919050565b5f604082019050614d905f830185613a76565b614d9d6020830184613a76565b9392505050565b5f819050919050565b5f614dc7614dc2614dbd84614da4565b613ddc565b6137bf565b9050919050565b614dd781614dad565b82525050565b5f604082019050614df05f830185614dce565b614dfd60208301846138e8565b9392505050565b7f5061757361626c653a20706175736564000000000000000000000000000000005f82015250565b5f614e38601083613adc565b9150614e4382614e04565b602082019050919050565b5f6020820190508181035f830152614e6581614e2c565b9050919050565b7f5265656e7472616e637947756172643a207265656e7472616e742063616c6c005f82015250565b5f614ea0601f83613adc565b9150614eab82614e6c565b602082019050919050565b5f6020820190508181035f830152614ecd81614e94565b9050919050565b7f5472616e7366657220666565206661696c6564000000000000000000000000005f82015250565b5f614f08601383613adc565b9150614f1382614ed4565b602082019050919050565b5f6020820190508181035f830152614f3581614efc565b9050919050565b5f606082019050614f4f5f8301866138e8565b614f5c60208301856138e8565b614f6960408301846138e8565b949350505050565b7f5061757361626c653a206e6f74207061757365640000000000000000000000005f82015250565b5f614fa5601483613adc565b9150614fb082614f71565b602082019050919050565b5f6020820190508181035f830152614fd281614f99565b905091905056fea2646970667358221220a3bdff0db663c818cb44b093f7bb40d2dfdc6c7491246c29a19f433b0384666764736f6c634300081e0033",
			"opcodes": "PUSH1 0x80 PUSH1 0x40 MSTORE PUSH1 0xFA PUSH1 0x3 SSTORE CALLVALUE DUP1 ISZERO PUSH2 0x14 JUMPI PUSH0 PUSH0 REVERT JUMPDEST POP PUSH1 0x40 MLOAD PUSH2 0x54D1 CODESIZE SUB DUP1 PUSH2 0x54D1 DUP4 CODECOPY DUP2 DUP2 ADD PUSH1 0x40 MSTORE DUP2 ADD SWAP1 PUSH2 0x36 SWAP2 SWAP1 PUSH2 0x35D JUMP JUMPDEST DUP1 PUSH1 0x1 PUSH0 DUP2 SWAP1 SSTORE POP PUSH0 PUSH20 0xFFFFFFFFFFFFFFFFFFFFFFFFFFFFFFFFFFFFFFFF AND DUP2 PUSH20 0xFFFFFFFFFFFFFFFFFFFFFFFFFFFFFFFFFFFFFFFF AND SUB PUSH2 0xAE JUMPI PUSH0 PUSH1 0x40 MLOAD PUSH32 0x1E4FBDF700000000000000000000000000000000000000000000000000000000 DUP2 MSTORE PUSH1 0x4 ADD PUSH2 0xA5 SWAP2 SWAP1 PUSH2 0x3BC JUMP JUMPDEST PUSH1 0x40 MLOAD DUP1 SWAP2 SUB SWAP1 REVERT JUMPDEST PUSH2 0xBD DUP2 PUSH2 0x23C PUSH1 0x20 SHL PUSH1 0x20 SHR JUMP JUMPDEST POP PUSH0 PUSH1 0x1 PUSH1 0x14 PUSH2 0x100 EXP DUP2 SLOAD DUP2 PUSH1 0xFF MUL NOT AND SWAP1 DUP4 ISZERO ISZERO MUL OR SWAP1 SSTORE POP PUSH0 PUSH20 0xFFFFFFFFFFFFFFFFFFFFFFFFFFFFFFFFFFFFFFFF AND DUP4 PUSH20 0xFFFFFFFFFFFFFFFFFFFFFFFFFFFFFFFFFFFFFFFF AND SUB PUSH2 0x146 JUMPI PUSH1 0x40 MLOAD PUSH32 0x8C379A000000000000000000000000000000000000000000000000000000000 DUP2 MSTORE PUSH1 0x4 ADD PUSH2 0x13D SWAP1 PUSH2 0x42F JUMP JUMPDEST PUSH1 0x40 MLOAD DUP1 SWAP2 SUB SWAP1 REVERT JUMPDEST PUSH0 PUSH20 0xFFFFFFFFFFFFFFFFFFFFFFFFFFFFFFFFFFFFFFFF AND DUP3 PUSH20 0xFFFFFFFFFFFFFFFFFFFFFFFFFFFFFFFFFFFFFFFF AND SUB PUSH2 0x1B4 JUMPI PUSH1 0x40 MLOAD PUSH32 0x8C379A000000000000000000000000000000000000000000000000000000000 DUP2 MSTORE PUSH1 0x4 ADD PUSH2 0x1AB SWAP1 PUSH2 0x497 JUMP JUMPDEST PUSH1 0x40 MLOAD DUP1 SWAP2 SUB SWAP1 REVERT JUMPDEST DUP3 PUSH1 0x2 PUSH0 PUSH2 0x100 EXP DUP2 SLOAD DUP2 PUSH20 0xFFFFFFFFFFFFFFFFFFFFFFFFFFFFFFFFFFFFFFFF MUL NOT AND SWAP1 DUP4 PUSH20 0xFFFFFFFFFFFFFFFFFFFFFFFFFFFFFFFFFFFFFFFF AND MUL OR SWAP1 SSTORE POP DUP2 PUSH1 0x4 PUSH0 PUSH2 0x100 EXP DUP2 SLOAD DUP2 PUSH20 0xFFFFFFFFFFFFFFFFFFFFFFFFFFFFFFFFFFFFFFFF MUL NOT AND SWAP1 DUP4 PUSH20 0xFFFFFFFFFFFFFFFFFFFFFFFFFFFFFFFFFFFFFFFF AND MUL OR SWAP1 SSTORE POP POP POP POP PUSH2 0x4B5 JUMP JUMPDEST PUSH0 PUSH1 0x1 PUSH0 SWAP1 SLOAD SWAP1 PUSH2 0x100 EXP SWAP1 DIV PUSH20 0xFFFFFFFFFFFFFFFFFFFFFFFFFFFFFFFFFFFFFFFF AND SWAP1 POP DUP2 PUSH1 0x1 PUSH0 PUSH2 0x100 EXP DUP2 SLOAD DUP2 PUSH20 0xFFFFFFFFFFFFFFFFFFFFFFFFFFFFFFFFFFFFFFFF MUL NOT AND SWAP1 DUP4 PUSH20 0xFFFFFFFFFFFFFFFFFFFFFFFFFFFFFFFFFFFFFFFF AND MUL OR SWAP1 SSTORE POP DUP2 PUSH20 0xFFFFFFFFFFFFFFFFFFFFFFFFFFFFFFFFFFFFFFFF AND DUP2 PUSH20 0xFFFFFFFFFFFFFFFFFFFFFFFFFFFFFFFFFFFFFFFF AND PUSH32 0x8BE0079C531659141344CD1FD0A4F28419497F9722A3DAAFE3B4186F6B6457E0 PUSH1 0x40 MLOAD PUSH1 0x40 MLOAD DUP1 SWAP2 SUB SWAP1 LOG3 POP POP JUMP JUMPDEST PUSH0 PUSH0 REVERT JUMPDEST PUSH0 PUSH20 0xFFFFFFFFFFFFFFFFFFFFFFFFFFFFFFFFFFFFFFFF DUP3 AND SWAP1 POP SWAP2 SWAP1 POP JUMP JUMPDEST PUSH0 PUSH2 0x32C DUP3 PUSH2 0x303 JUMP JUMPDEST SWAP1 POP SWAP2 SWAP1 POP JUMP JUMPDEST PUSH2 0x33C DUP2 PUSH2 0x322 JUMP JUMPDEST DUP2 EQ PUSH2 0x346 JUMPI PUSH0 PUSH0 REVERT JUMPDEST POP JUMP JUMPDEST PUSH0 DUP2 MLOAD SWAP1 POP PUSH2 0x357 DUP2 PUSH2 0x333 JUMP JUMPDEST SWAP3 SWAP2 POP POP JUMP JUMPDEST PUSH0 PUSH0 PUSH0 PUSH1 0x60 DUP5 DUP7 SUB SLT ISZERO PUSH2 0x374 JUMPI PUSH2 0x373 PUSH2 0x2FF JUMP JUMPDEST JUMPDEST PUSH0 PUSH2 0x381 DUP7 DUP3 DUP8 ADD PUSH2 0x349 JUMP JUMPDEST SWAP4 POP POP PUSH1 0x20 PUSH2 0x392 DUP7 DUP3 DUP8 ADD PUSH2 0x349 JUMP JUMPDEST SWAP3 POP POP PUSH1 0x40 PUSH2 0x3A3 DUP7 DUP3 DUP8 ADD PUSH2 0x349 JUMP JUMPDEST SWAP2 POP POP SWAP3 POP SWAP3 POP SWAP3 JUMP JUMPDEST PUSH2 0x3B6 DUP2 PUSH2 0x322 JUMP JUMPDEST DUP3 MSTORE POP POP JUMP JUMPDEST PUSH0 PUSH1 0x20 DUP3 ADD SWAP1 POP PUSH2 0x3CF PUSH0 DUP4 ADD DUP5 PUSH2 0x3AD JUMP JUMPDEST SWAP3 SWAP2 POP POP JUMP JUMPDEST PUSH0 DUP3 DUP3 MSTORE PUSH1 0x20 DUP3 ADD SWAP1 POP SWAP3 SWAP2 POP POP JUMP JUMPDEST PUSH32 0x496E76616C6964204944525820746F6B656E2061646472657373000000000000 PUSH0 DUP3 ADD MSTORE POP JUMP JUMPDEST PUSH0 PUSH2 0x419 PUSH1 0x1A DUP4 PUSH2 0x3D5 JUMP JUMPDEST SWAP2 POP PUSH2 0x424 DUP3 PUSH2 0x3E5 JUMP JUMPDEST PUSH1 0x20 DUP3 ADD SWAP1 POP SWAP2 SWAP1 POP JUMP JUMPDEST PUSH0 PUSH1 0x20 DUP3 ADD SWAP1 POP DUP2 DUP2 SUB PUSH0 DUP4 ADD MSTORE PUSH2 0x446 DUP2 PUSH2 0x40D JUMP JUMPDEST SWAP1 POP SWAP2 SWAP1 POP JUMP JUMPDEST PUSH32 0x496E76616C69642066656520726563697069656E740000000000000000000000 PUSH0 DUP3 ADD MSTORE POP JUMP JUMPDEST PUSH0 PUSH2 0x481 PUSH1 0x15 DUP4 PUSH2 0x3D5 JUMP JUMPDEST SWAP2 POP PUSH2 0x48C DUP3 PUSH2 0x44D JUMP JUMPDEST PUSH1 0x20 DUP3 ADD SWAP1 POP SWAP2 SWAP1 POP JUMP JUMPDEST PUSH0 PUSH1 0x20 DUP3 ADD SWAP1 POP DUP2 DUP2 SUB PUSH0 DUP4 ADD MSTORE PUSH2 0x4AE DUP2 PUSH2 0x475 JUMP JUMPDEST SWAP1 POP SWAP2 SWAP1 POP JUMP JUMPDEST PUSH2 0x500F DUP1 PUSH2 0x4C2 PUSH0 CODECOPY PUSH0 RETURN INVALID PUSH1 0x80 PUSH1 0x40 MSTORE CALLVALUE DUP1 ISZERO PUSH2 0xF JUMPI PUSH0 PUSH0 REVERT JUMPDEST POP PUSH1 0x4 CALLDATASIZE LT PUSH2 0x1CD JUMPI PUSH0 CALLDATALOAD PUSH1 0xE0 SHR DUP1 PUSH4 0x8456CB59 GT PUSH2 0x102 JUMPI DUP1 PUSH4 0xCE422626 GT PUSH2 0xA0 JUMPI DUP1 PUSH4 0xE7079180 GT PUSH2 0x6F JUMPI DUP1 PUSH4 0xE7079180 EQ PUSH2 0x4E6 JUMPI DUP1 PUSH4 0xF160D369 EQ PUSH2 0x51D JUMPI DUP1 PUSH4 0xF2FDE38B EQ PUSH2 0x539 JUMPI DUP1 PUSH4 0xF3227DC4 EQ PUSH2 0x555 JUMPI PUSH2 0x1CD JUMP JUMPDEST DUP1 PUSH4 0xCE422626 EQ PUSH2 0x45E JUMPI DUP1 PUSH4 0xD46597E3 EQ PUSH2 0x47A JUMPI DUP1 PUSH4 0xD6BC7C63 EQ PUSH2 0x4AA JUMPI DUP1 PUSH4 0xE1A45218 EQ PUSH2 0x4C8 JUMPI PUSH2 0x1CD JUMP JUMPDEST DUP1 PUSH4 0x95CCEA67 GT PUSH2 0xDC JUMPI DUP1 PUSH4 0x95CCEA67 EQ PUSH2 0x3BB JUMPI DUP1 PUSH4 0xA0A57DAC EQ PUSH2 0x3D7 JUMPI DUP1 PUSH4 0xAA0B5988 EQ PUSH2 0x412 JUMPI DUP1 PUSH4 0xABB83B6F EQ PUSH2 0x42E JUMPI PUSH2 0x1CD JUMP JUMPDEST DUP1 PUSH4 0x8456CB59 EQ PUSH2 0x377 JUMPI DUP1 PUSH4 0x8CFBE8C3 EQ PUSH2 0x381 JUMPI DUP1 PUSH4 0x8DA5CB5B EQ PUSH2 0x39D JUMPI PUSH2 0x1CD JUMP JUMPDEST DUP1 PUSH4 0x46904840 GT PUSH2 0x16F JUMPI DUP1 PUSH4 0x5C975ABB GT PUSH2 0x149 JUMPI DUP1 PUSH4 0x5C975ABB EQ PUSH2 0x303 JUMPI DUP1 PUSH4 0x715018A6 EQ PUSH2 0x321 JUMPI DUP1 PUSH4 0x73E84120 EQ PUSH2 0x32B JUMPI DUP1 PUSH4 0x76492D3F EQ PUSH2 0x347 JUMPI PUSH2 0x1CD JUMP JUMPDEST DUP1 PUSH4 0x46904840 EQ PUSH2 0x299 JUMPI DUP1 PUSH4 0x48F92EE8 EQ PUSH2 0x2B7 JUMPI DUP1 PUSH4 0x53A140AC EQ PUSH2 0x2D3 JUMPI PUSH2 0x1CD JUMP JUMPDEST DUP1 PUSH4 0x22DCD13E GT PUSH2 0x1AB JUMPI DUP1 PUSH4 0x22DCD13E EQ PUSH2 0x225 JUMPI DUP1 PUSH4 0x314E4E88 EQ PUSH2 0x243 JUMPI DUP1 PUSH4 0x38A13287 EQ PUSH2 0x273 JUMPI DUP1 PUSH4 0x3F4BA83A EQ PUSH2 0x28F JUMPI PUSH2 0x1CD JUMP JUMPDEST DUP1 PUSH4 0x2CE5074 EQ PUSH2 0x1D1 JUMPI DUP1 PUSH4 0x1A1AAEED EQ PUSH2 0x1ED JUMPI DUP1 PUSH4 0x1F4709D8 EQ PUSH2 0x209 JUMPI JUMPDEST PUSH0 PUSH0 REVERT JUMPDEST PUSH2 0x1EB PUSH1 0x4 DUP1 CALLDATASIZE SUB DUP2 ADD SWAP1 PUSH2 0x1E6 SWAP2 SWAP1 PUSH2 0x37F2 JUMP JUMPDEST PUSH2 0x571 JUMP JUMPDEST STOP JUMPDEST PUSH2 0x207 PUSH1 0x4 DUP1 CALLDATASIZE SUB DUP2 ADD SWAP1 PUSH2 0x202 SWAP2 SWAP1 PUSH2 0x38A1 JUMP JUMPDEST PUSH2 0xAFA JUMP JUMPDEST STOP JUMPDEST PUSH2 0x223 PUSH1 0x4 DUP1 CALLDATASIZE SUB DUP2 ADD SWAP1 PUSH2 0x21E SWAP2 SWAP1 PUSH2 0x38A1 JUMP JUMPDEST PUSH2 0xDF5 JUMP JUMPDEST STOP JUMPDEST PUSH2 0x22D PUSH2 0x1168 JUMP JUMPDEST PUSH1 0x40 MLOAD PUSH2 0x23A SWAP2 SWAP1 PUSH2 0x38F7 JUMP JUMPDEST PUSH1 0x40 MLOAD DUP1 SWAP2 SUB SWAP1 RETURN JUMPDEST PUSH2 0x25D PUSH1 0x4 DUP1 CALLDATASIZE SUB DUP2 ADD SWAP1 PUSH2 0x258 SWAP2 SWAP1 PUSH2 0x3910 JUMP JUMPDEST PUSH2 0x116E JUMP JUMPDEST PUSH1 0x40 MLOAD PUSH2 0x26A SWAP2 SWAP1 PUSH2 0x3A56 JUMP JUMPDEST PUSH1 0x40 MLOAD DUP1 SWAP2 SUB SWAP1 RETURN JUMPDEST PUSH2 0x28D PUSH1 0x4 DUP1 CALLDATASIZE SUB DUP2 ADD SWAP1 PUSH2 0x288 SWAP2 SWAP1 PUSH2 0x38A1 JUMP JUMPDEST PUSH2 0x127F JUMP JUMPDEST STOP JUMPDEST PUSH2 0x297 PUSH2 0x1413 JUMP JUMPDEST STOP JUMPDEST PUSH2 0x2A1 PUSH2 0x1425 JUMP JUMPDEST PUSH1 0x40 MLOAD PUSH2 0x2AE SWAP2 SWAP1 PUSH2 0x3A85 JUMP JUMPDEST PUSH1 0x40 MLOAD DUP1 SWAP2 SUB SWAP1 RETURN JUMPDEST PUSH2 0x2D1 PUSH1 0x4 DUP1 CALLDATASIZE SUB DUP2 ADD SWAP1 PUSH2 0x2CC SWAP2 SWAP1 PUSH2 0x38A1 JUMP JUMPDEST PUSH2 0x144A JUMP JUMPDEST STOP JUMPDEST PUSH2 0x2ED PUSH1 0x4 DUP1 CALLDATASIZE SUB DUP2 ADD SWAP1 PUSH2 0x2E8 SWAP2 SWAP1 PUSH2 0x3A9E JUMP JUMPDEST PUSH2 0x1689 JUMP JUMPDEST PUSH1 0x40 MLOAD PUSH2 0x2FA SWAP2 SWAP1 PUSH2 0x3B24 JUMP JUMPDEST PUSH1 0x40 MLOAD DUP1 SWAP2 SUB SWAP1 RETURN JUMPDEST PUSH2 0x30B PUSH2 0x173A JUMP JUMPDEST PUSH1 0x40 MLOAD PUSH2 0x318 SWAP2 SWAP1 PUSH2 0x3B5E JUMP JUMPDEST PUSH1 0x40 MLOAD DUP1 SWAP2 SUB SWAP1 RETURN JUMPDEST PUSH2 0x329 PUSH2 0x1750 JUMP JUMPDEST STOP JUMPDEST PUSH2 0x345 PUSH1 0x4 DUP1 CALLDATASIZE SUB DUP2 ADD SWAP1 PUSH2 0x340 SWAP2 SWAP1 PUSH2 0x3B77 JUMP JUMPDEST PUSH2 0x1763 JUMP JUMPDEST STOP JUMPDEST PUSH2 0x361 PUSH1 0x4 DUP1 CALLDATASIZE SUB DUP2 ADD SWAP1 PUSH2 0x35C SWAP2 SWAP1 PUSH2 0x38A1 JUMP JUMPDEST PUSH2 0x1A55 JUMP JUMPDEST PUSH1 0x40 MLOAD PUSH2 0x36E SWAP2 SWAP1 PUSH2 0x3B5E JUMP JUMPDEST PUSH1 0x40 MLOAD DUP1 SWAP2 SUB SWAP1 RETURN JUMPDEST PUSH2 0x37F PUSH2 0x1AE0 JUMP JUMPDEST STOP JUMPDEST PUSH2 0x39B PUSH1 0x4 DUP1 CALLDATASIZE SUB DUP2 ADD SWAP1 PUSH2 0x396 SWAP2 SWAP1 PUSH2 0x3B77 JUMP JUMPDEST PUSH2 0x1AF2 JUMP JUMPDEST STOP JUMPDEST PUSH2 0x3A5 PUSH2 0x1DF2 JUMP JUMPDEST PUSH1 0x40 MLOAD PUSH2 0x3B2 SWAP2 SWAP1 PUSH2 0x3A85 JUMP JUMPDEST PUSH1 0x40 MLOAD DUP1 SWAP2 SUB SWAP1 RETURN JUMPDEST PUSH2 0x3D5 PUSH1 0x4 DUP1 CALLDATASIZE SUB DUP2 ADD SWAP1 PUSH2 0x3D0 SWAP2 SWAP1 PUSH2 0x3A9E JUMP JUMPDEST PUSH2 0x1E1A JUMP JUMPDEST STOP JUMPDEST PUSH2 0x3F1 PUSH1 0x4 DUP1 CALLDATASIZE SUB DUP2 ADD SWAP1 PUSH2 0x3EC SWAP2 SWAP1 PUSH2 0x38A1 JUMP JUMPDEST PUSH2 0x1F38 JUMP JUMPDEST PUSH1 0x40 MLOAD PUSH2 0x409 SWAP13 SWAP12 SWAP11 SWAP10 SWAP9 SWAP8 SWAP7 SWAP6 SWAP5 SWAP4 SWAP3 SWAP2 SWAP1 PUSH2 0x3C60 JUMP JUMPDEST PUSH1 0x40 MLOAD DUP1 SWAP2 SUB SWAP1 RETURN JUMPDEST PUSH2 0x42C PUSH1 0x4 DUP1 CALLDATASIZE SUB DUP2 ADD SWAP1 PUSH2 0x427 SWAP2 SWAP1 PUSH2 0x3D2D JUMP JUMPDEST PUSH2 0x2194 JUMP JUMPDEST STOP JUMPDEST PUSH2 0x448 PUSH1 0x4 DUP1 CALLDATASIZE SUB DUP2 ADD SWAP1 PUSH2 0x443 SWAP2 SWAP1 PUSH2 0x3910 JUMP JUMPDEST PUSH2 0x222B JUMP JUMPDEST PUSH1 0x40 MLOAD PUSH2 0x455 SWAP2 SWAP1 PUSH2 0x3A56 JUMP JUMPDEST PUSH1 0x40 MLOAD DUP1 SWAP2 SUB SWAP1 RETURN JUMPDEST PUSH2 0x478 PUSH1 0x4 DUP1 CALLDATASIZE SUB DUP2 ADD SWAP1 PUSH2 0x473 SWAP2 SWAP1 PUSH2 0x3D82 JUMP JUMPDEST PUSH2 0x233C JUMP JUMPDEST STOP JUMPDEST PUSH2 0x494 PUSH1 0x4 DUP1 CALLDATASIZE SUB DUP2 ADD SWAP1 PUSH2 0x48F SWAP2 SWAP1 PUSH2 0x3A9E JUMP JUMPDEST PUSH2 0x290E JUMP JUMPDEST PUSH1 0x40 MLOAD PUSH2 0x4A1 SWAP2 SWAP1 PUSH2 0x3B24 JUMP JUMPDEST PUSH1 0x40 MLOAD DUP1 SWAP2 SUB SWAP1 RETURN JUMPDEST PUSH2 0x4B2 PUSH2 0x29BF JUMP JUMPDEST PUSH1 0x40 MLOAD PUSH2 0x4BF SWAP2 SWAP1 PUSH2 0x3E37 JUMP JUMPDEST PUSH1 0x40 MLOAD DUP1 SWAP2 SUB SWAP1 RETURN JUMPDEST PUSH2 0x4D0 PUSH2 0x29E4 JUMP JUMPDEST PUSH1 0x40 MLOAD PUSH2 0x4DD SWAP2 SWAP1 PUSH2 0x38F7 JUMP JUMPDEST PUSH1 0x40 MLOAD DUP1 SWAP2 SUB SWAP1 RETURN JUMPDEST PUSH2 0x500 PUSH1 0x4 DUP1 CALLDATASIZE SUB DUP2 ADD SWAP1 PUSH2 0x4FB SWAP2 SWAP1 PUSH2 0x38A1 JUMP JUMPDEST PUSH2 0x29EA JUMP JUMPDEST PUSH1 0x40 MLOAD PUSH2 0x514 SWAP9 SWAP8 SWAP7 SWAP6 SWAP5 SWAP4 SWAP3 SWAP2 SWAP1 PUSH2 0x3E50 JUMP JUMPDEST PUSH1 0x40 MLOAD DUP1 SWAP2 SUB SWAP1 RETURN JUMPDEST PUSH2 0x537 PUSH1 0x4 DUP1 CALLDATASIZE SUB DUP2 ADD SWAP1 PUSH2 0x532 SWAP2 SWAP1 PUSH2 0x3910 JUMP JUMPDEST PUSH2 0x2C04 JUMP JUMPDEST STOP JUMPDEST PUSH2 0x553 PUSH1 0x4 DUP1 CALLDATASIZE SUB DUP2 ADD SWAP1 PUSH2 0x54E SWAP2 SWAP1 PUSH2 0x3910 JUMP JUMPDEST PUSH2 0x2D1C JUMP JUMPDEST STOP JUMPDEST PUSH2 0x56F PUSH1 0x4 DUP1 CALLDATASIZE SUB DUP2 ADD SWAP1 PUSH2 0x56A SWAP2 SWAP1 PUSH2 0x38A1 JUMP JUMPDEST PUSH2 0x2DA0 JUMP JUMPDEST STOP JUMPDEST PUSH2 0x579 PUSH2 0x300D JUMP JUMPDEST PUSH1 0x5 DUP6 PUSH1 0x40 MLOAD PUSH2 0x589 SWAP2 SWAP1 PUSH2 0x3F14 JUMP JUMPDEST SWAP1 DUP2 MSTORE PUSH1 0x20 ADD PUSH1 0x40 MLOAD DUP1 SWAP2 SUB SWAP1 KECCAK256 PUSH1 0xB ADD PUSH0 SWAP1 SLOAD SWAP1 PUSH2 0x100 EXP SWAP1 DIV PUSH1 0xFF AND ISZERO PUSH2 0x5E7 JUMPI PUSH1 0x40 MLOAD PUSH32 0x8C379A000000000000000000000000000000000000000000000000000000000 DUP2 MSTORE PUSH1 0x4 ADD PUSH2 0x5DE SWAP1 PUSH2 0x3F74 JUMP JUMPDEST PUSH1 0x40 MLOAD DUP1 SWAP2 SUB SWAP1 REVERT JUMPDEST PUSH0 PUSH20 0xFFFFFFFFFFFFFFFFFFFFFFFFFFFFFFFFFFFFFFFF AND DUP5 PUSH20 0xFFFFFFFFFFFFFFFFFFFFFFFFFFFFFFFFFFFFFFFF AND SUB PUSH2 0x655 JUMPI PUSH1 0x40 MLOAD PUSH32 0x8C379A000000000000000000000000000000000000000000000000000000000 DUP2 MSTORE PUSH1 0x4 ADD PUSH2 0x64C SWAP1 PUSH2 0x3FDC JUMP JUMPDEST PUSH1 0x40 MLOAD DUP1 SWAP2 SUB SWAP1 REVERT JUMPDEST CALLER PUSH20 0xFFFFFFFFFFFFFFFFFFFFFFFFFFFFFFFFFFFFFFFF AND DUP5 PUSH20 0xFFFFFFFFFFFFFFFFFFFFFFFFFFFFFFFFFFFFFFFF AND SUB PUSH2 0x6C3 JUMPI PUSH1 0x40 MLOAD PUSH32 0x8C379A000000000000000000000000000000000000000000000000000000000 DUP2 MSTORE PUSH1 0x4 ADD PUSH2 0x6BA SWAP1 PUSH2 0x4044 JUMP JUMPDEST PUSH1 0x40 MLOAD DUP1 SWAP2 SUB SWAP1 REVERT JUMPDEST PUSH0 DUP4 GT PUSH2 0x705 JUMPI PUSH1 0x40 MLOAD PUSH32 0x8C379A000000000000000000000000000000000000000000000000000000000 DUP2 MSTORE PUSH1 0x4 ADD PUSH2 0x6FC SWAP1 PUSH2 0x40AC JUMP JUMPDEST PUSH1 0x40 MLOAD DUP1 SWAP2 SUB SWAP1 REVERT JUMPDEST TIMESTAMP DUP3 GT PUSH2 0x747 JUMPI PUSH1 0x40 MLOAD PUSH32 0x8C379A000000000000000000000000000000000000000000000000000000000 DUP2 MSTORE PUSH1 0x4 ADD PUSH2 0x73E SWAP1 PUSH2 0x4114 JUMP JUMPDEST PUSH1 0x40 MLOAD DUP1 SWAP2 SUB SWAP1 REVERT JUMPDEST PUSH0 DUP2 MLOAD GT PUSH2 0x78A JUMPI PUSH1 0x40 MLOAD PUSH32 0x8C379A000000000000000000000000000000000000000000000000000000000 DUP2 MSTORE PUSH1 0x4 ADD PUSH2 0x781 SWAP1 PUSH2 0x417C JUMP JUMPDEST PUSH1 0x40 MLOAD DUP1 SWAP2 SUB SWAP1 REVERT JUMPDEST PUSH1 0x40 MLOAD DUP1 PUSH2 0x180 ADD PUSH1 0x40 MSTORE DUP1 DUP7 DUP2 MSTORE PUSH1 0x20 ADD CALLER PUSH20 0xFFFFFFFFFFFFFFFFFFFFFFFFFFFFFFFFFFFFFFFF AND DUP2 MSTORE PUSH1 0x20 ADD DUP6 PUSH20 0xFFFFFFFFFFFFFFFFFFFFFFFFFFFFFFFFFFFFFFFF AND DUP2 MSTORE PUSH1 0x20 ADD DUP5 DUP2 MSTORE PUSH1 0x20 ADD DUP4 DUP2 MSTORE PUSH1 0x20 ADD DUP3 DUP2 MSTORE PUSH1 0x20 ADD PUSH0 PUSH1 0x5 DUP2 GT ISZERO PUSH2 0x7F9 JUMPI PUSH2 0x7F8 PUSH2 0x3BED JUMP JUMPDEST JUMPDEST DUP2 MSTORE PUSH1 0x20 ADD PUSH0 DUP2 MSTORE PUSH1 0x20 ADD PUSH0 DUP2 MSTORE PUSH1 0x20 ADD PUSH0 DUP2 MSTORE PUSH1 0x20 ADD PUSH1 0x40 MLOAD DUP1 PUSH1 0x20 ADD PUSH1 0x40 MSTORE DUP1 PUSH0 DUP2 MSTORE POP DUP2 MSTORE PUSH1 0x20 ADD PUSH1 0x1 ISZERO ISZERO DUP2 MSTORE POP PUSH1 0x5 DUP7 PUSH1 0x40 MLOAD PUSH2 0x83B SWAP2 SWAP1 PUSH2 0x3F14 JUMP JUMPDEST SWAP1 DUP2 MSTORE PUSH1 0x20 ADD PUSH1 0x40 MLOAD DUP1 SWAP2 SUB SWAP1 KECCAK256 PUSH0 DUP3 ADD MLOAD DUP2 PUSH0 ADD SWAP1 DUP2 PUSH2 0x85C SWAP2 SWAP1 PUSH2 0x438E JUMP JUMPDEST POP PUSH1 0x20 DUP3 ADD MLOAD DUP2 PUSH1 0x1 ADD PUSH0 PUSH2 0x100 EXP DUP2 SLOAD DUP2 PUSH20 0xFFFFFFFFFFFFFFFFFFFFFFFFFFFFFFFFFFFFFFFF MUL NOT AND SWAP1 DUP4 PUSH20 0xFFFFFFFFFFFFFFFFFFFFFFFFFFFFFFFFFFFFFFFF AND MUL OR SWAP1 SSTORE POP PUSH1 0x40 DUP3 ADD MLOAD DUP2 PUSH1 0x2 ADD PUSH0 PUSH2 0x100 EXP DUP2 SLOAD DUP2 PUSH20 0xFFFFFFFFFFFFFFFFFFFFFFFFFFFFFFFFFFFFFFFF MUL NOT AND SWAP1 DUP4 PUSH20 0xFFFFFFFFFFFFFFFFFFFFFFFFFFFFFFFFFFFFFFFF AND MUL OR SWAP1 SSTORE POP PUSH1 0x60 DUP3 ADD MLOAD DUP2 PUSH1 0x3 ADD SSTORE PUSH1 0x80 DUP3 ADD MLOAD DUP2 PUSH1 0x4 ADD SSTORE PUSH1 0xA0 DUP3 ADD MLOAD DUP2 PUSH1 0x5 ADD SWAP1 DUP2 PUSH2 0x912 SWAP2 SWAP1 PUSH2 0x438E JUMP JUMPDEST POP PUSH1 0xC0 DUP3 ADD MLOAD DUP2 PUSH1 0x6 ADD PUSH0 PUSH2 0x100 EXP DUP2 SLOAD DUP2 PUSH1 0xFF MUL NOT AND SWAP1 DUP4 PUSH1 0x5 DUP2 GT ISZERO PUSH2 0x93D JUMPI PUSH2 0x93C PUSH2 0x3BED JUMP JUMPDEST JUMPDEST MUL OR SWAP1 SSTORE POP PUSH1 0xE0 DUP3 ADD MLOAD DUP2 PUSH1 0x7 ADD SSTORE PUSH2 0x100 DUP3 ADD MLOAD DUP2 PUSH1 0x8 ADD SSTORE PUSH2 0x120 DUP3 ADD MLOAD DUP2 PUSH1 0x9 ADD SSTORE PUSH2 0x140 DUP3 ADD MLOAD DUP2 PUSH1 0xA ADD SWAP1 DUP2 PUSH2 0x978 SWAP2 SWAP1 PUSH2 0x438E JUMP JUMPDEST POP PUSH2 0x160 DUP3 ADD MLOAD DUP2 PUSH1 0xB ADD PUSH0 PUSH2 0x100 EXP DUP2 SLOAD DUP2 PUSH1 0xFF MUL NOT AND SWAP1 DUP4 ISZERO ISZERO MUL OR SWAP1 SSTORE POP SWAP1 POP POP PUSH1 0x6 PUSH0 CALLER PUSH20 0xFFFFFFFFFFFFFFFFFFFFFFFFFFFFFFFFFFFFFFFF AND PUSH20 0xFFFFFFFFFFFFFFFFFFFFFFFFFFFFFFFFFFFFFFFF AND DUP2 MSTORE PUSH1 0x20 ADD SWAP1 DUP2 MSTORE PUSH1 0x20 ADD PUSH0 KECCAK256 DUP6 SWAP1 DUP1 PUSH1 0x1 DUP2 SLOAD ADD DUP1 DUP3 SSTORE DUP1 SWAP2 POP POP PUSH1 0x1 SWAP1 SUB SWAP1 PUSH0 MSTORE PUSH1 0x20 PUSH0 KECCAK256 ADD PUSH0 SWAP1 SWAP2 SWAP1 SWAP2 SWAP1 SWAP2 POP SWAP1 DUP2 PUSH2 0xA08 SWAP2 SWAP1 PUSH2 0x438E JUMP JUMPDEST POP PUSH1 0x7 PUSH0 DUP6 PUSH20 0xFFFFFFFFFFFFFFFFFFFFFFFFFFFFFFFFFFFFFFFF AND PUSH20 0xFFFFFFFFFFFFFFFFFFFFFFFFFFFFFFFFFFFFFFFF AND DUP2 MSTORE PUSH1 0x20 ADD SWAP1 DUP2 MSTORE PUSH1 0x20 ADD PUSH0 KECCAK256 DUP6 SWAP1 DUP1 PUSH1 0x1 DUP2 SLOAD ADD DUP1 DUP3 SSTORE DUP1 SWAP2 POP POP PUSH1 0x1 SWAP1 SUB SWAP1 PUSH0 MSTORE PUSH1 0x20 PUSH0 KECCAK256 ADD PUSH0 SWAP1 SWAP2 SWAP1 SWAP2 SWAP1 SWAP2 POP SWAP1 DUP2 PUSH2 0xA75 SWAP2 SWAP1 PUSH2 0x438E JUMP JUMPDEST POP DUP4 PUSH20 0xFFFFFFFFFFFFFFFFFFFFFFFFFFFFFFFFFFFFFFFF AND CALLER PUSH20 0xFFFFFFFFFFFFFFFFFFFFFFFFFFFFFFFFFFFFFFFF AND DUP7 PUSH1 0x40 MLOAD PUSH2 0xAB2 SWAP2 SWAP1 PUSH2 0x3F14 JUMP JUMPDEST PUSH1 0x40 MLOAD DUP1 SWAP2 SUB SWAP1 KECCAK256 PUSH32 0x4DFA2D4E433A4E1FE0AA3A98EEF56517737C0EF61B1476CAA443106551D802EE DUP7 DUP7 PUSH1 0x40 MLOAD PUSH2 0xAEB SWAP3 SWAP2 SWAP1 PUSH2 0x445D JUMP JUMPDEST PUSH1 0x40 MLOAD DUP1 SWAP2 SUB SWAP1 LOG4 POP POP POP POP POP JUMP JUMPDEST PUSH2 0xB02 PUSH2 0x3057 JUMP JUMPDEST DUP1 PUSH1 0x5 DUP2 PUSH1 0x40 MLOAD PUSH2 0xB13 SWAP2 SWAP1 PUSH2 0x3F14 JUMP JUMPDEST SWAP1 DUP2 MSTORE PUSH1 0x20 ADD PUSH1 0x40 MLOAD DUP1 SWAP2 SUB SWAP1 KECCAK256 PUSH1 0xB ADD PUSH0 SWAP1 SLOAD SWAP1 PUSH2 0x100 EXP SWAP1 DIV PUSH1 0xFF AND PUSH2 0xB70 JUMPI PUSH1 0x40 MLOAD PUSH32 0x8C379A000000000000000000000000000000000000000000000000000000000 DUP2 MSTORE PUSH1 0x4 ADD PUSH2 0xB67 SWAP1 PUSH2 0x44CE JUMP JUMPDEST PUSH1 0x40 MLOAD DUP1 SWAP2 SUB SWAP1 REVERT JUMPDEST PUSH2 0xB78 PUSH2 0x30DE JUMP JUMPDEST PUSH0 PUSH1 0x5 DUP4 PUSH1 0x40 MLOAD PUSH2 0xB89 SWAP2 SWAP1 PUSH2 0x3F14 JUMP JUMPDEST SWAP1 DUP2 MSTORE PUSH1 0x20 ADD PUSH1 0x40 MLOAD DUP1 SWAP2 SUB SWAP1 KECCAK256 SWAP1 POP PUSH1 0x1 PUSH1 0x5 DUP2 GT ISZERO PUSH2 0xBAD JUMPI PUSH2 0xBAC PUSH2 0x3BED JUMP JUMPDEST JUMPDEST DUP2 PUSH1 0x6 ADD PUSH0 SWAP1 SLOAD SWAP1 PUSH2 0x100 EXP SWAP1 DIV PUSH1 0xFF AND PUSH1 0x5 DUP2 GT ISZERO PUSH2 0xBD0 JUMPI PUSH2 0xBCF PUSH2 0x3BED JUMP JUMPDEST JUMPDEST EQ DUP1 PUSH2 0xC10 JUMPI POP PUSH1 0x2 PUSH1 0x5 DUP2 GT ISZERO PUSH2 0xBEB JUMPI PUSH2 0xBEA PUSH2 0x3BED JUMP JUMPDEST JUMPDEST DUP2 PUSH1 0x6 ADD PUSH0 SWAP1 SLOAD SWAP1 PUSH2 0x100 EXP SWAP1 DIV PUSH1 0xFF AND PUSH1 0x5 DUP2 GT ISZERO PUSH2 0xC0E JUMPI PUSH2 0xC0D PUSH2 0x3BED JUMP JUMPDEST JUMPDEST EQ JUMPDEST PUSH2 0xC4F JUMPI PUSH1 0x40 MLOAD PUSH32 0x8C379A000000000000000000000000000000000000000000000000000000000 DUP2 MSTORE PUSH1 0x4 ADD PUSH2 0xC46 SWAP1 PUSH2 0x4536 JUMP JUMPDEST PUSH1 0x40 MLOAD DUP1 SWAP2 SUB SWAP1 REVERT JUMPDEST PUSH0 DUP2 PUSH1 0x3 ADD SLOAD SWAP1 POP PUSH1 0x5 DUP3 PUSH1 0x6 ADD PUSH0 PUSH2 0x100 EXP DUP2 SLOAD DUP2 PUSH1 0xFF MUL NOT AND SWAP1 DUP4 PUSH1 0x5 DUP2 GT ISZERO PUSH2 0xC7E JUMPI PUSH2 0xC7D PUSH2 0x3BED JUMP JUMPDEST JUMPDEST MUL OR SWAP1 SSTORE POP PUSH1 0x2 PUSH0 SWAP1 SLOAD SWAP1 PUSH2 0x100 EXP SWAP1 DIV PUSH20 0xFFFFFFFFFFFFFFFFFFFFFFFFFFFFFFFFFFFFFFFF AND PUSH20 0xFFFFFFFFFFFFFFFFFFFFFFFFFFFFFFFFFFFFFFFF AND PUSH4 0xA9059CBB DUP4 PUSH1 0x1 ADD PUSH0 SWAP1 SLOAD SWAP1 PUSH2 0x100 EXP SWAP1 DIV PUSH20 0xFFFFFFFFFFFFFFFFFFFFFFFFFFFFFFFFFFFFFFFF AND DUP4 PUSH1 0x40 MLOAD DUP4 PUSH4 0xFFFFFFFF AND PUSH1 0xE0 SHL DUP2 MSTORE PUSH1 0x4 ADD PUSH2 0xD02 SWAP3 SWAP2 SWAP1 PUSH2 0x4554 JUMP JUMPDEST PUSH1 0x20 PUSH1 0x40 MLOAD DUP1 DUP4 SUB DUP2 PUSH0 DUP8 GAS CALL ISZERO DUP1 ISZERO PUSH2 0xD1E JUMPI RETURNDATASIZE PUSH0 PUSH0 RETURNDATACOPY RETURNDATASIZE PUSH0 REVERT JUMPDEST POP POP POP POP PUSH1 0x40 MLOAD RETURNDATASIZE PUSH1 0x1F NOT PUSH1 0x1F DUP3 ADD AND DUP3 ADD DUP1 PUSH1 0x40 MSTORE POP DUP2 ADD SWAP1 PUSH2 0xD42 SWAP2 SWAP1 PUSH2 0x458F JUMP JUMPDEST PUSH2 0xD81 JUMPI PUSH1 0x40 MLOAD PUSH32 0x8C379A000000000000000000000000000000000000000000000000000000000 DUP2 MSTORE PUSH1 0x4 ADD PUSH2 0xD78 SWAP1 PUSH2 0x4604 JUMP JUMPDEST PUSH1 0x40 MLOAD DUP1 SWAP2 SUB SWAP1 REVERT JUMPDEST CALLER PUSH20 0xFFFFFFFFFFFFFFFFFFFFFFFFFFFFFFFFFFFFFFFF AND DUP5 PUSH1 0x40 MLOAD PUSH2 0xDA6 SWAP2 SWAP1 PUSH2 0x3F14 JUMP JUMPDEST PUSH1 0x40 MLOAD DUP1 SWAP2 SUB SWAP1 KECCAK256 PUSH32 0xB5C5CBE36D1C39A7F7723FD013E345B60C0AFEDAEB3EF7285058266004063FF5 DUP4 TIMESTAMP PUSH1 0x40 MLOAD PUSH2 0xDDF SWAP3 SWAP2 SWAP1 PUSH2 0x445D JUMP JUMPDEST PUSH1 0x40 MLOAD DUP1 SWAP2 SUB SWAP1 LOG3 POP POP PUSH2 0xDF1 PUSH2 0x312B JUMP JUMPDEST POP POP JUMP JUMPDEST PUSH2 0xDFD PUSH2 0x300D JUMP JUMPDEST DUP1 PUSH1 0x5 DUP2 PUSH1 0x40 MLOAD PUSH2 0xE0E SWAP2 SWAP1 PUSH2 0x3F14 JUMP JUMPDEST SWAP1 DUP2 MSTORE PUSH1 0x20 ADD PUSH1 0x40 MLOAD DUP1 SWAP2 SUB SWAP1 KECCAK256 PUSH1 0xB ADD PUSH0 SWAP1 SLOAD SWAP1 PUSH2 0x100 EXP SWAP1 DIV PUSH1 0xFF AND PUSH2 0xE6B JUMPI PUSH1 0x40 MLOAD PUSH32 0x8C379A000000000000000000000000000000000000000000000000000000000 DUP2 MSTORE PUSH1 0x4 ADD PUSH2 0xE62 SWAP1 PUSH2 0x44CE JUMP JUMPDEST PUSH1 0x40 MLOAD DUP1 SWAP2 SUB SWAP1 REVERT JUMPDEST DUP2 CALLER PUSH20 0xFFFFFFFFFFFFFFFFFFFFFFFFFFFFFFFFFFFFFFFF AND PUSH1 0x5 DUP3 PUSH1 0x40 MLOAD PUSH2 0xE93 SWAP2 SWAP1 PUSH2 0x3F14 JUMP JUMPDEST SWAP1 DUP2 MSTORE PUSH1 0x20 ADD PUSH1 0x40 MLOAD DUP1 SWAP2 SUB SWAP1 KECCAK256 PUSH1 0x1 ADD PUSH0 SWAP1 SLOAD SWAP1 PUSH2 0x100 EXP SWAP1 DIV PUSH20 0xFFFFFFFFFFFFFFFFFFFFFFFFFFFFFFFFFFFFFFFF AND PUSH20 0xFFFFFFFFFFFFFFFFFFFFFFFFFFFFFFFFFFFFFFFF AND EQ PUSH2 0xF1A JUMPI PUSH1 0x40 MLOAD PUSH32 0x8C379A000000000000000000000000000000000000000000000000000000000 DUP2 MSTORE PUSH1 0x4 ADD PUSH2 0xF11 SWAP1 PUSH2 0x466C JUMP JUMPDEST PUSH1 0x40 MLOAD DUP1 SWAP2 SUB SWAP1 REVERT JUMPDEST DUP3 PUSH0 DUP1 PUSH1 0x5 DUP2 GT ISZERO PUSH2 0xF2F JUMPI PUSH2 0xF2E PUSH2 0x3BED JUMP JUMPDEST JUMPDEST PUSH1 0x5 DUP4 PUSH1 0x40 MLOAD PUSH2 0xF3F SWAP2 SWAP1 PUSH2 0x3F14 JUMP JUMPDEST SWAP1 DUP2 MSTORE PUSH1 0x20 ADD PUSH1 0x40 MLOAD DUP1 SWAP2 SUB SWAP1 KECCAK256 PUSH1 0x6 ADD PUSH0 SWAP1 SLOAD SWAP1 PUSH2 0x100 EXP SWAP1 DIV PUSH1 0xFF AND PUSH1 0x5 DUP2 GT ISZERO PUSH2 0xF6F JUMPI PUSH2 0xF6E PUSH2 0x3BED JUMP JUMPDEST JUMPDEST EQ PUSH2 0xFAF JUMPI PUSH1 0x40 MLOAD PUSH32 0x8C379A000000000000000000000000000000000000000000000000000000000 DUP2 MSTORE PUSH1 0x4 ADD PUSH2 0xFA6 SWAP1 PUSH2 0x46D4 JUMP JUMPDEST PUSH1 0x40 MLOAD DUP1 SWAP2 SUB SWAP1 REVERT JUMPDEST PUSH2 0xFB7 PUSH2 0x30DE JUMP JUMPDEST PUSH0 PUSH1 0x5 DUP7 PUSH1 0x40 MLOAD PUSH2 0xFC8 SWAP2 SWAP1 PUSH2 0x3F14 JUMP JUMPDEST SWAP1 DUP2 MSTORE PUSH1 0x20 ADD PUSH1 0x40 MLOAD DUP1 SWAP2 SUB SWAP1 KECCAK256 SWAP1 POP PUSH1 0x2 PUSH0 SWAP1 SLOAD SWAP1 PUSH2 0x100 EXP SWAP1 DIV PUSH20 0xFFFFFFFFFFFFFFFFFFFFFFFFFFFFFFFFFFFFFFFF AND PUSH20 0xFFFFFFFFFFFFFFFFFFFFFFFFFFFFFFFFFFFFFFFF AND PUSH4 0x23B872DD CALLER ADDRESS DUP5 PUSH1 0x3 ADD SLOAD PUSH1 0x40 MLOAD DUP5 PUSH4 0xFFFFFFFF AND PUSH1 0xE0 SHL DUP2 MSTORE PUSH1 0x4 ADD PUSH2 0x103A SWAP4 SWAP3 SWAP2 SWAP1 PUSH2 0x46F2 JUMP JUMPDEST PUSH1 0x20 PUSH1 0x40 MLOAD DUP1 DUP4 SUB DUP2 PUSH0 DUP8 GAS CALL ISZERO DUP1 ISZERO PUSH2 0x1056 JUMPI RETURNDATASIZE PUSH0 PUSH0 RETURNDATACOPY RETURNDATASIZE PUSH0 REVERT JUMPDEST POP POP POP POP PUSH1 0x40 MLOAD RETURNDATASIZE PUSH1 0x1F NOT PUSH1 0x1F DUP3 ADD AND DUP3 ADD DUP1 PUSH1 0x40 MSTORE POP DUP2 ADD SWAP1 PUSH2 0x107A SWAP2 SWAP1 PUSH2 0x458F JUMP JUMPDEST PUSH2 0x10B9 JUMPI PUSH1 0x40 MLOAD PUSH32 0x8C379A000000000000000000000000000000000000000000000000000000000 DUP2 MSTORE PUSH1 0x4 ADD PUSH2 0x10B0 SWAP1 PUSH2 0x4771 JUMP JUMPDEST PUSH1 0x40 MLOAD DUP1 SWAP2 SUB SWAP1 REVERT JUMPDEST PUSH1 0x1 DUP2 PUSH1 0x6 ADD PUSH0 PUSH2 0x100 EXP DUP2 SLOAD DUP2 PUSH1 0xFF MUL NOT AND SWAP1 DUP4 PUSH1 0x5 DUP2 GT ISZERO PUSH2 0x10E0 JUMPI PUSH2 0x10DF PUSH2 0x3BED JUMP JUMPDEST JUMPDEST MUL OR SWAP1 SSTORE POP TIMESTAMP DUP2 PUSH1 0x7 ADD DUP2 SWAP1 SSTORE POP CALLER PUSH20 0xFFFFFFFFFFFFFFFFFFFFFFFFFFFFFFFFFFFFFFFF AND DUP7 PUSH1 0x40 MLOAD PUSH2 0x1113 SWAP2 SWAP1 PUSH2 0x3F14 JUMP JUMPDEST PUSH1 0x40 MLOAD DUP1 SWAP2 SUB SWAP1 KECCAK256 PUSH32 0x61F37B84008CEF454D2BF9D44A9E57AD7224D5C7CE9D19C234404B9229DFE71E DUP4 PUSH1 0x3 ADD SLOAD TIMESTAMP PUSH1 0x40 MLOAD PUSH2 0x1150 SWAP3 SWAP2 SWAP1 PUSH2 0x445D JUMP JUMPDEST PUSH1 0x40 MLOAD DUP1 SWAP2 SUB SWAP1 LOG3 POP PUSH2 0x1161 PUSH2 0x312B JUMP JUMPDEST POP POP POP POP POP JUMP JUMPDEST PUSH1 0x3 SLOAD DUP2 JUMP JUMPDEST PUSH1 0x60 PUSH1 0x7 PUSH0 DUP4 PUSH20 0xFFFFFFFFFFFFFFFFFFFFFFFFFFFFFFFFFFFFFFFF AND PUSH20 0xFFFFFFFFFFFFFFFFFFFFFFFFFFFFFFFFFFFFFFFF AND DUP2 MSTORE PUSH1 0x20 ADD SWAP1 DUP2 MSTORE PUSH1 0x20 ADD PUSH0 KECCAK256 DUP1 SLOAD DUP1 PUSH1 0x20 MUL PUSH1 0x20 ADD PUSH1 0x40 MLOAD SWAP1 DUP2 ADD PUSH1 0x40 MSTORE DUP1 SWAP3 SWAP2 SWAP1 DUP2 DUP2 MSTORE PUSH1 0x20 ADD PUSH0 SWAP1 JUMPDEST DUP3 DUP3 LT ISZERO PUSH2 0x1274 JUMPI DUP4 DUP3 SWAP1 PUSH0 MSTORE PUSH1 0x20 PUSH0 KECCAK256 ADD DUP1 SLOAD PUSH2 0x11E9 SWAP1 PUSH2 0x41C7 JUMP JUMPDEST DUP1 PUSH1 0x1F ADD PUSH1 0x20 DUP1 SWAP2 DIV MUL PUSH1 0x20 ADD PUSH1 0x40 MLOAD SWAP1 DUP2 ADD PUSH1 0x40 MSTORE DUP1 SWAP3 SWAP2 SWAP1 DUP2 DUP2 MSTORE PUSH1 0x20 ADD DUP3 DUP1 SLOAD PUSH2 0x1215 SWAP1 PUSH2 0x41C7 JUMP JUMPDEST DUP1 ISZERO PUSH2 0x1260 JUMPI DUP1 PUSH1 0x1F LT PUSH2 0x1237 JUMPI PUSH2 0x100 DUP1 DUP4 SLOAD DIV MUL DUP4 MSTORE SWAP2 PUSH1 0x20 ADD SWAP2 PUSH2 0x1260 JUMP JUMPDEST DUP3 ADD SWAP2 SWAP1 PUSH0 MSTORE PUSH1 0x20 PUSH0 KECCAK256 SWAP1 JUMPDEST DUP2 SLOAD DUP2 MSTORE SWAP1 PUSH1 0x1 ADD SWAP1 PUSH1 0x20 ADD DUP1 DUP4 GT PUSH2 0x1243 JUMPI DUP3 SWAP1 SUB PUSH1 0x1F AND DUP3 ADD SWAP2 JUMPDEST POP POP POP POP POP DUP2 MSTORE PUSH1 0x20 ADD SWAP1 PUSH1 0x1 ADD SWAP1 PUSH2 0x11CC JUMP JUMPDEST POP POP POP POP SWAP1 POP SWAP2 SWAP1 POP JUMP JUMPDEST PUSH2 0x1287 PUSH2 0x300D JUMP JUMPDEST DUP1 PUSH1 0x5 DUP2 PUSH1 0x40 MLOAD PUSH2 0x1298 SWAP2 SWAP1 PUSH2 0x3F14 JUMP JUMPDEST SWAP1 DUP2 MSTORE PUSH1 0x20 ADD PUSH1 0x40 MLOAD DUP1 SWAP2 SUB SWAP1 KECCAK256 PUSH1 0xB ADD PUSH0 SWAP1 SLOAD SWAP1 PUSH2 0x100 EXP SWAP1 DIV PUSH1 0xFF AND PUSH2 0x12F5 JUMPI PUSH1 0x40 MLOAD PUSH32 0x8C379A000000000000000000000000000000000000000000000000000000000 DUP2 MSTORE PUSH1 0x4 ADD PUSH2 0x12EC SWAP1 PUSH2 0x44CE JUMP JUMPDEST PUSH1 0x40 MLOAD DUP1 SWAP2 SUB SWAP1 REVERT JUMPDEST DUP2 PUSH1 0x2 DUP1 PUSH1 0x5 DUP2 GT ISZERO PUSH2 0x130B JUMPI PUSH2 0x130A PUSH2 0x3BED JUMP JUMPDEST JUMPDEST PUSH1 0x5 DUP4 PUSH1 0x40 MLOAD PUSH2 0x131B SWAP2 SWAP1 PUSH2 0x3F14 JUMP JUMPDEST SWAP1 DUP2 MSTORE PUSH1 0x20 ADD PUSH1 0x40 MLOAD DUP1 SWAP2 SUB SWAP1 KECCAK256 PUSH1 0x6 ADD PUSH0 SWAP1 SLOAD SWAP1 PUSH2 0x100 EXP SWAP1 DIV PUSH1 0xFF AND PUSH1 0x5 DUP2 GT ISZERO PUSH2 0x134B JUMPI PUSH2 0x134A PUSH2 0x3BED JUMP JUMPDEST JUMPDEST EQ PUSH2 0x138B JUMPI PUSH1 0x40 MLOAD PUSH32 0x8C379A000000000000000000000000000000000000000000000000000000000 DUP2 MSTORE PUSH1 0x4 ADD PUSH2 0x1382 SWAP1 PUSH2 0x46D4 JUMP JUMPDEST PUSH1 0x40 MLOAD DUP1 SWAP2 SUB SWAP1 REVERT JUMPDEST PUSH2 0x1393 PUSH2 0x30DE JUMP JUMPDEST PUSH0 PUSH1 0x5 DUP6 PUSH1 0x40 MLOAD PUSH2 0x13A4 SWAP2 SWAP1 PUSH2 0x3F14 JUMP JUMPDEST SWAP1 DUP2 MSTORE PUSH1 0x20 ADD PUSH1 0x40 MLOAD DUP1 SWAP2 SUB SWAP1 KECCAK256 SWAP1 POP DUP1 PUSH1 0x9 ADD SLOAD TIMESTAMP LT ISZERO PUSH2 0x13FB JUMPI PUSH1 0x40 MLOAD PUSH32 0x8C379A000000000000000000000000000000000000000000000000000000000 DUP2 MSTORE PUSH1 0x4 ADD PUSH2 0x13F2 SWAP1 PUSH2 0x47D9 JUMP JUMPDEST PUSH1 0x40 MLOAD DUP1 SWAP2 SUB SWAP1 REVERT JUMPDEST PUSH2 0x1404 DUP6 PUSH2 0x3134 JUMP JUMPDEST POP PUSH2 0x140D PUSH2 0x312B JUMP JUMPDEST POP POP POP POP JUMP JUMPDEST PUSH2 0x141B PUSH2 0x3057 JUMP JUMPDEST PUSH2 0x1423 PUSH2 0x3441 JUMP JUMPDEST JUMP JUMPDEST PUSH1 0x4 PUSH0 SWAP1 SLOAD SWAP1 PUSH2 0x100 EXP SWAP1 DIV PUSH20 0xFFFFFFFFFFFFFFFFFFFFFFFFFFFFFFFFFFFFFFFF AND DUP2 JUMP JUMPDEST PUSH2 0x1452 PUSH2 0x300D JUMP JUMPDEST DUP1 PUSH1 0x5 DUP2 PUSH1 0x40 MLOAD PUSH2 0x1463 SWAP2 SWAP1 PUSH2 0x3F14 JUMP JUMPDEST SWAP1 DUP2 MSTORE PUSH1 0x20 ADD PUSH1 0x40 MLOAD DUP1 SWAP2 SUB SWAP1 KECCAK256 PUSH1 0xB ADD PUSH0 SWAP1 SLOAD SWAP1 PUSH2 0x100 EXP SWAP1 DIV PUSH1 0xFF AND PUSH2 0x14C0 JUMPI PUSH1 0x40 MLOAD PUSH32 0x8C379A000000000000000000000000000000000000000000000000000000000 DUP2 MSTORE PUSH1 0x4 ADD PUSH2 0x14B7 SWAP1 PUSH2 0x44CE JUMP JUMPDEST PUSH1 0x40 MLOAD DUP1 SWAP2 SUB SWAP1 REVERT JUMPDEST DUP2 CALLER PUSH20 0xFFFFFFFFFFFFFFFFFFFFFFFFFFFFFFFFFFFFFFFF AND PUSH1 0x5 DUP3 PUSH1 0x40 MLOAD PUSH2 0x14E8 SWAP2 SWAP1 PUSH2 0x3F14 JUMP JUMPDEST SWAP1 DUP2 MSTORE PUSH1 0x20 ADD PUSH1 0x40 MLOAD DUP1 SWAP2 SUB SWAP1 KECCAK256 PUSH1 0x1 ADD PUSH0 SWAP1 SLOAD SWAP1 PUSH2 0x100 EXP SWAP1 DIV PUSH20 0xFFFFFFFFFFFFFFFFFFFFFFFFFFFFFFFFFFFFFFFF AND PUSH20 0xFFFFFFFFFFFFFFFFFFFFFFFFFFFFFFFFFFFFFFFF AND EQ PUSH2 0x156F JUMPI PUSH1 0x40 MLOAD PUSH32 0x8C379A000000000000000000000000000000000000000000000000000000000 DUP2 MSTORE PUSH1 0x4 ADD PUSH2 0x1566 SWAP1 PUSH2 0x466C JUMP JUMPDEST PUSH1 0x40 MLOAD DUP1 SWAP2 SUB SWAP1 REVERT JUMPDEST DUP3 PUSH1 0x2 DUP1 PUSH1 0x5 DUP2 GT ISZERO PUSH2 0x1585 JUMPI PUSH2 0x1584 PUSH2 0x3BED JUMP JUMPDEST JUMPDEST PUSH1 0x5 DUP4 PUSH1 0x40 MLOAD PUSH2 0x1595 SWAP2 SWAP1 PUSH2 0x3F14 JUMP JUMPDEST SWAP1 DUP2 MSTORE PUSH1 0x20 ADD PUSH1 0x40 MLOAD DUP1 SWAP2 SUB SWAP1 KECCAK256 PUSH1 0x6 ADD PUSH0 SWAP1 SLOAD SWAP1 PUSH2 0x100 EXP SWAP1 DIV PUSH1 0xFF AND PUSH1 0x5 DUP2 GT ISZERO PUSH2 0x15C5 JUMPI PUSH2 0x15C4 PUSH2 0x3BED JUMP JUMPDEST JUMPDEST EQ PUSH2 0x1605 JUMPI PUSH1 0x40 MLOAD PUSH32 0x8C379A000000000000000000000000000000000000000000000000000000000 DUP2 MSTORE PUSH1 0x4 ADD PUSH2 0x15FC SWAP1 PUSH2 0x46D4 JUMP JUMPDEST PUSH1 0x40 MLOAD DUP1 SWAP2 SUB SWAP1 REVERT JUMPDEST PUSH2 0x160D PUSH2 0x30DE JUMP JUMPDEST CALLER PUSH20 0xFFFFFFFFFFFFFFFFFFFFFFFFFFFFFFFFFFFFFFFF AND DUP6 PUSH1 0x40 MLOAD PUSH2 0x1632 SWAP2 SWAP1 PUSH2 0x3F14 JUMP JUMPDEST PUSH1 0x40 MLOAD DUP1 SWAP2 SUB SWAP1 KECCAK256 PUSH32 0xDAF6A08416428ADEDB83FB1497254D7884D27DE5282BF9D9EC91DF26F3205325 TIMESTAMP PUSH1 0x40 MLOAD PUSH2 0x1669 SWAP2 SWAP1 PUSH2 0x38F7 JUMP JUMPDEST PUSH1 0x40 MLOAD DUP1 SWAP2 SUB SWAP1 LOG3 PUSH2 0x167A DUP6 PUSH2 0x3134 JUMP JUMPDEST PUSH2 0x1682 PUSH2 0x312B JUMP JUMPDEST POP POP POP POP POP JUMP JUMPDEST PUSH1 0x7 PUSH1 0x20 MSTORE DUP2 PUSH0 MSTORE PUSH1 0x40 PUSH0 KECCAK256 DUP2 DUP2 SLOAD DUP2 LT PUSH2 0x16A2 JUMPI PUSH0 DUP1 REVERT JUMPDEST SWAP1 PUSH0 MSTORE PUSH1 0x20 PUSH0 KECCAK256 ADD PUSH0 SWAP2 POP SWAP2 POP POP DUP1 SLOAD PUSH2 0x16BB SWAP1 PUSH2 0x41C7 JUMP JUMPDEST DUP1 PUSH1 0x1F ADD PUSH1 0x20 DUP1 SWAP2 DIV MUL PUSH1 0x20 ADD PUSH1 0x40 MLOAD SWAP1 DUP2 ADD PUSH1 0x40 MSTORE DUP1 SWAP3 SWAP2 SWAP1 DUP2 DUP2 MSTORE PUSH1 0x20 ADD DUP3 DUP1 SLOAD PUSH2 0x16E7 SWAP1 PUSH2 0x41C7 JUMP JUMPDEST DUP1 ISZERO PUSH2 0x1732 JUMPI DUP1 PUSH1 0x1F LT PUSH2 0x1709 JUMPI PUSH2 0x100 DUP1 DUP4 SLOAD DIV MUL DUP4 MSTORE SWAP2 PUSH1 0x20 ADD SWAP2 PUSH2 0x1732 JUMP JUMPDEST DUP3 ADD SWAP2 SWAP1 PUSH0 MSTORE PUSH1 0x20 PUSH0 KECCAK256 SWAP1 JUMPDEST DUP2 SLOAD DUP2 MSTORE SWAP1 PUSH1 0x1 ADD SWAP1 PUSH1 0x20 ADD DUP1 DUP4 GT PUSH2 0x1715 JUMPI DUP3 SWAP1 SUB PUSH1 0x1F AND DUP3 ADD SWAP2 JUMPDEST POP POP POP POP POP DUP2 JUMP JUMPDEST PUSH0 PUSH1 0x1 PUSH1 0x14 SWAP1 SLOAD SWAP1 PUSH2 0x100 EXP SWAP1 DIV PUSH1 0xFF AND SWAP1 POP SWAP1 JUMP JUMPDEST PUSH2 0x1758 PUSH2 0x3057 JUMP JUMPDEST PUSH2 0x1761 PUSH0 PUSH2 0x34A3 JUMP JUMPDEST JUMP JUMPDEST PUSH2 0x176B PUSH2 0x300D JUMP JUMPDEST DUP2 PUSH1 0x5 DUP2 PUSH1 0x40 MLOAD PUSH2 0x177C SWAP2 SWAP1 PUSH2 0x3F14 JUMP JUMPDEST SWAP1 DUP2 MSTORE PUSH1 0x20 ADD PUSH1 0x40 MLOAD DUP1 SWAP2 SUB SWAP1 KECCAK256 PUSH1 0xB ADD PUSH0 SWAP1 SLOAD SWAP1 PUSH2 0x100 EXP SWAP1 DIV PUSH1 0xFF AND PUSH2 0x17D9 JUMPI PUSH1 0x40 MLOAD PUSH32 0x8C379A000000000000000000000000000000000000000000000000000000000 DUP2 MSTORE PUSH1 0x4 ADD PUSH2 0x17D0 SWAP1 PUSH2 0x44CE JUMP JUMPDEST PUSH1 0x40 MLOAD DUP1 SWAP2 SUB SWAP1 REVERT JUMPDEST DUP3 CALLER PUSH20 0xFFFFFFFFFFFFFFFFFFFFFFFFFFFFFFFFFFFFFFFF AND PUSH1 0x5 DUP3 PUSH1 0x40 MLOAD PUSH2 0x1801 SWAP2 SWAP1 PUSH2 0x3F14 JUMP JUMPDEST SWAP1 DUP2 MSTORE PUSH1 0x20 ADD PUSH1 0x40 MLOAD DUP1 SWAP2 SUB SWAP1 KECCAK256 PUSH1 0x2 ADD PUSH0 SWAP1 SLOAD SWAP1 PUSH2 0x100 EXP SWAP1 DIV PUSH20 0xFFFFFFFFFFFFFFFFFFFFFFFFFFFFFFFFFFFFFFFF AND PUSH20 0xFFFFFFFFFFFFFFFFFFFFFFFFFFFFFFFFFFFFFFFF AND EQ PUSH2 0x1888 JUMPI PUSH1 0x40 MLOAD PUSH32 0x8C379A000000000000000000000000000000000000000000000000000000000 DUP2 MSTORE PUSH1 0x4 ADD PUSH2 0x187F SWAP1 PUSH2 0x4841 JUMP JUMPDEST PUSH1 0x40 MLOAD DUP1 SWAP2 SUB SWAP1 REVERT JUMPDEST DUP4 PUSH1 0x1 DUP1 PUSH1 0x5 DUP2 GT ISZERO PUSH2 0x189E JUMPI PUSH2 0x189D PUSH2 0x3BED JUMP JUMPDEST JUMPDEST PUSH1 0x5 DUP4 PUSH1 0x40 MLOAD PUSH2 0x18AE SWAP2 SWAP1 PUSH2 0x3F14 JUMP JUMPDEST SWAP1 DUP2 MSTORE PUSH1 0x20 ADD PUSH1 0x40 MLOAD DUP1 SWAP2 SUB SWAP1 KECCAK256 PUSH1 0x6 ADD PUSH0 SWAP1 SLOAD SWAP1 PUSH2 0x100 EXP SWAP1 DIV PUSH1 0xFF AND PUSH1 0x5 DUP2 GT ISZERO PUSH2 0x18DE JUMPI PUSH2 0x18DD PUSH2 0x3BED JUMP JUMPDEST JUMPDEST EQ PUSH2 0x191E JUMPI PUSH1 0x40 MLOAD PUSH32 0x8C379A000000000000000000000000000000000000000000000000000000000 DUP2 MSTORE PUSH1 0x4 ADD PUSH2 0x1915 SWAP1 PUSH2 0x46D4 JUMP JUMPDEST PUSH1 0x40 MLOAD DUP1 SWAP2 SUB SWAP1 REVERT JUMPDEST PUSH0 DUP6 MLOAD GT PUSH2 0x1961 JUMPI PUSH1 0x40 MLOAD PUSH32 0x8C379A000000000000000000000000000000000000000000000000000000000 DUP2 MSTORE PUSH1 0x4 ADD PUSH2 0x1958 SWAP1 PUSH2 0x48A9 JUMP JUMPDEST PUSH1 0x40 MLOAD DUP1 SWAP2 SUB SWAP1 REVERT JUMPDEST PUSH0 PUSH1 0x5 DUP8 PUSH1 0x40 MLOAD PUSH2 0x1972 SWAP2 SWAP1 PUSH2 0x3F14 JUMP JUMPDEST SWAP1 DUP2 MSTORE PUSH1 0x20 ADD PUSH1 0x40 MLOAD DUP1 SWAP2 SUB SWAP1 KECCAK256 SWAP1 POP PUSH1 0x2 DUP2 PUSH1 0x6 ADD PUSH0 PUSH2 0x100 EXP DUP2 SLOAD DUP2 PUSH1 0xFF MUL NOT AND SWAP1 DUP4 PUSH1 0x5 DUP2 GT ISZERO PUSH2 0x19A9 JUMPI PUSH2 0x19A8 PUSH2 0x3BED JUMP JUMPDEST JUMPDEST MUL OR SWAP1 SSTORE POP TIMESTAMP DUP2 PUSH1 0x8 ADD DUP2 SWAP1 SSTORE POP PUSH3 0x3F480 TIMESTAMP PUSH2 0x19C6 SWAP2 SWAP1 PUSH2 0x48F4 JUMP JUMPDEST DUP2 PUSH1 0x9 ADD DUP2 SWAP1 SSTORE POP DUP6 DUP2 PUSH1 0xA ADD SWAP1 DUP2 PUSH2 0x19DF SWAP2 SWAP1 PUSH2 0x438E JUMP JUMPDEST POP CALLER PUSH20 0xFFFFFFFFFFFFFFFFFFFFFFFFFFFFFFFFFFFFFFFF AND DUP8 PUSH1 0x40 MLOAD PUSH2 0x1A05 SWAP2 SWAP1 PUSH2 0x3F14 JUMP JUMPDEST PUSH1 0x40 MLOAD DUP1 SWAP2 SUB SWAP1 KECCAK256 PUSH32 0xE66F0EBA692973EC25DDF9C2633C8EBFABC7FB166B090DB26DDBDADBA5653382 DUP9 TIMESTAMP DUP6 PUSH1 0x9 ADD SLOAD PUSH1 0x40 MLOAD PUSH2 0x1A44 SWAP4 SWAP3 SWAP2 SWAP1 PUSH2 0x4927 JUMP JUMPDEST PUSH1 0x40 MLOAD DUP1 SWAP2 SUB SWAP1 LOG3 POP POP POP POP POP POP POP JUMP JUMPDEST PUSH0 PUSH0 PUSH1 0x5 DUP4 PUSH1 0x40 MLOAD PUSH2 0x1A67 SWAP2 SWAP1 PUSH2 0x3F14 JUMP JUMPDEST SWAP1 DUP2 MSTORE PUSH1 0x20 ADD PUSH1 0x40 MLOAD DUP1 SWAP2 SUB SWAP1 KECCAK256 SWAP1 POP DUP1 PUSH1 0xB ADD PUSH0 SWAP1 SLOAD SWAP1 PUSH2 0x100 EXP SWAP1 DIV PUSH1 0xFF AND DUP1 ISZERO PUSH2 0x1AC8 JUMPI POP PUSH1 0x2 PUSH1 0x5 DUP2 GT ISZERO PUSH2 0x1AA3 JUMPI PUSH2 0x1AA2 PUSH2 0x3BED JUMP JUMPDEST JUMPDEST DUP2 PUSH1 0x6 ADD PUSH0 SWAP1 SLOAD SWAP1 PUSH2 0x100 EXP SWAP1 DIV PUSH1 0xFF AND PUSH1 0x5 DUP2 GT ISZERO PUSH2 0x1AC6 JUMPI PUSH2 0x1AC5 PUSH2 0x3BED JUMP JUMPDEST JUMPDEST EQ JUMPDEST DUP1 ISZERO PUSH2 0x1AD8 JUMPI POP DUP1 PUSH1 0x9 ADD SLOAD TIMESTAMP LT ISZERO JUMPDEST SWAP2 POP POP SWAP2 SWAP1 POP JUMP JUMPDEST PUSH2 0x1AE8 PUSH2 0x3057 JUMP JUMPDEST PUSH2 0x1AF0 PUSH2 0x3566 JUMP JUMPDEST JUMP JUMPDEST PUSH2 0x1AFA PUSH2 0x300D JUMP JUMPDEST DUP2 PUSH1 0x5 DUP2 PUSH1 0x40 MLOAD PUSH2 0x1B0B SWAP2 SWAP1 PUSH2 0x3F14 JUMP JUMPDEST SWAP1 DUP2 MSTORE PUSH1 0x20 ADD PUSH1 0x40 MLOAD DUP1 SWAP2 SUB SWAP1 KECCAK256 PUSH1 0xB ADD PUSH0 SWAP1 SLOAD SWAP1 PUSH2 0x100 EXP SWAP1 DIV PUSH1 0xFF AND PUSH2 0x1B68 JUMPI PUSH1 0x40 MLOAD PUSH32 0x8C379A000000000000000000000000000000000000000000000000000000000 DUP2 MSTORE PUSH1 0x4 ADD PUSH2 0x1B5F SWAP1 PUSH2 0x44CE JUMP JUMPDEST PUSH1 0x40 MLOAD DUP1 SWAP2 SUB SWAP1 REVERT JUMPDEST DUP3 CALLER PUSH20 0xFFFFFFFFFFFFFFFFFFFFFFFFFFFFFFFFFFFFFFFF AND PUSH1 0x5 DUP3 PUSH1 0x40 MLOAD PUSH2 0x1B90 SWAP2 SWAP1 PUSH2 0x3F14 JUMP JUMPDEST SWAP1 DUP2 MSTORE PUSH1 0x20 ADD PUSH1 0x40 MLOAD DUP1 SWAP2 SUB SWAP1 KECCAK256 PUSH1 0x1 ADD PUSH0 SWAP1 SLOAD SWAP1 PUSH2 0x100 EXP SWAP1 DIV PUSH20 0xFFFFFFFFFFFFFFFFFFFFFFFFFFFFFFFFFFFFFFFF AND PUSH20 0xFFFFFFFFFFFFFFFFFFFFFFFFFFFFFFFFFFFFFFFF AND EQ PUSH2 0x1C17 JUMPI PUSH1 0x40 MLOAD PUSH32 0x8C379A000000000000000000000000000000000000000000000000000000000 DUP2 MSTORE PUSH1 0x4 ADD PUSH2 0x1C0E SWAP1 PUSH2 0x466C JUMP JUMPDEST PUSH1 0x40 MLOAD DUP1 SWAP2 SUB SWAP1 REVERT JUMPDEST DUP4 PUSH1 0x2 DUP1 PUSH1 0x5 DUP2 GT ISZERO PUSH2 0x1C2D JUMPI PUSH2 0x1C2C PUSH2 0x3BED JUMP JUMPDEST JUMPDEST PUSH1 0x5 DUP4 PUSH1 0x40 MLOAD PUSH2 0x1C3D SWAP2 SWAP1 PUSH2 0x3F14 JUMP JUMPDEST SWAP1 DUP2 MSTORE PUSH1 0x20 ADD PUSH1 0x40 MLOAD DUP1 SWAP2 SUB SWAP1 KECCAK256 PUSH1 0x6 ADD PUSH0 SWAP1 SLOAD SWAP1 PUSH2 0x100 EXP SWAP1 DIV PUSH1 0xFF AND PUSH1 0x5 DUP2 GT ISZERO PUSH2 0x1C6D JUMPI PUSH2 0x1C6C PUSH2 0x3BED JUMP JUMPDEST JUMPDEST EQ PUSH2 0x1CAD JUMPI PUSH1 0x40 MLOAD PUSH32 0x8C379A000000000000000000000000000000000000000000000000000000000 DUP2 MSTORE PUSH1 0x4 ADD PUSH2 0x1CA4 SWAP1 PUSH2 0x46D4 JUMP JUMPDEST PUSH1 0x40 MLOAD DUP1 SWAP2 SUB SWAP1 REVERT JUMPDEST PUSH0 PUSH1 0x5 DUP8 PUSH1 0x40 MLOAD PUSH2 0x1CBE SWAP2 SWAP1 PUSH2 0x3F14 JUMP JUMPDEST SWAP1 DUP2 MSTORE PUSH1 0x20 ADD PUSH1 0x40 MLOAD DUP1 SWAP2 SUB SWAP1 KECCAK256 SWAP1 POP DUP1 PUSH1 0x9 ADD SLOAD TIMESTAMP LT PUSH2 0x1D14 JUMPI PUSH1 0x40 MLOAD PUSH32 0x8C379A000000000000000000000000000000000000000000000000000000000 DUP2 MSTORE PUSH1 0x4 ADD PUSH2 0x1D0B SWAP1 PUSH2 0x49AD JUMP JUMPDEST PUSH1 0x40 MLOAD DUP1 SWAP2 SUB SWAP1 REVERT JUMPDEST PUSH0 DUP7 MLOAD GT PUSH2 0x1D57 JUMPI PUSH1 0x40 MLOAD PUSH32 0x8C379A000000000000000000000000000000000000000000000000000000000 DUP2 MSTORE PUSH1 0x4 ADD PUSH2 0x1D4E SWAP1 PUSH2 0x4A15 JUMP JUMPDEST PUSH1 0x40 MLOAD DUP1 SWAP2 SUB SWAP1 REVERT JUMPDEST PUSH1 0x3 DUP2 PUSH1 0x6 ADD PUSH0 PUSH2 0x100 EXP DUP2 SLOAD DUP2 PUSH1 0xFF MUL NOT AND SWAP1 DUP4 PUSH1 0x5 DUP2 GT ISZERO PUSH2 0x1D7E JUMPI PUSH2 0x1D7D PUSH2 0x3BED JUMP JUMPDEST JUMPDEST MUL OR SWAP1 SSTORE POP CALLER PUSH20 0xFFFFFFFFFFFFFFFFFFFFFFFFFFFFFFFFFFFFFFFF AND DUP8 PUSH1 0x40 MLOAD PUSH2 0x1DA8 SWAP2 SWAP1 PUSH2 0x3F14 JUMP JUMPDEST PUSH1 0x40 MLOAD DUP1 SWAP2 SUB SWAP1 KECCAK256 PUSH32 0x5F133162039E6B535D51D97375F17B82E0B791C8DBEE12A49067B9B800D53A1D DUP9 TIMESTAMP PUSH1 0x40 MLOAD PUSH2 0x1DE1 SWAP3 SWAP2 SWAP1 PUSH2 0x4A33 JUMP JUMPDEST PUSH1 0x40 MLOAD DUP1 SWAP2 SUB SWAP1 LOG3 POP POP POP POP POP POP POP JUMP JUMPDEST PUSH0 PUSH1 0x1 PUSH0 SWAP1 SLOAD SWAP1 PUSH2 0x100 EXP SWAP1 DIV PUSH20 0xFFFFFFFFFFFFFFFFFFFFFFFFFFFFFFFFFFFFFFFF AND SWAP1 POP SWAP1 JUMP JUMPDEST PUSH2 0x1E22 PUSH2 0x3057 JUMP JUMPDEST PUSH1 0x2 PUSH0 SWAP1 SLOAD SWAP1 PUSH2 0x100 EXP SWAP1 DIV PUSH20 0xFFFFFFFFFFFFFFFFFFFFFFFFFFFFFFFFFFFFFFFF AND PUSH20 0xFFFFFFFFFFFFFFFFFFFFFFFFFFFFFFFFFFFFFFFF AND DUP3 PUSH20 0xFFFFFFFFFFFFFFFFFFFFFFFFFFFFFFFFFFFFFFFF AND SUB PUSH2 0x1EB1 JUMPI PUSH1 0x40 MLOAD PUSH32 0x8C379A000000000000000000000000000000000000000000000000000000000 DUP2 MSTORE PUSH1 0x4 ADD PUSH2 0x1EA8 SWAP1 PUSH2 0x4AAB JUMP JUMPDEST PUSH1 0x40 MLOAD DUP1 SWAP2 SUB SWAP1 REVERT JUMPDEST DUP2 PUSH20 0xFFFFFFFFFFFFFFFFFFFFFFFFFFFFFFFFFFFFFFFF AND PUSH4 0xA9059CBB PUSH2 0x1ED5 PUSH2 0x1DF2 JUMP JUMPDEST DUP4 PUSH1 0x40 MLOAD DUP4 PUSH4 0xFFFFFFFF AND PUSH1 0xE0 SHL DUP2 MSTORE PUSH1 0x4 ADD PUSH2 0x1EF3 SWAP3 SWAP2 SWAP1 PUSH2 0x4554 JUMP JUMPDEST PUSH1 0x20 PUSH1 0x40 MLOAD DUP1 DUP4 SUB DUP2 PUSH0 DUP8 GAS CALL ISZERO DUP1 ISZERO PUSH2 0x1F0F JUMPI RETURNDATASIZE PUSH0 PUSH0 RETURNDATACOPY RETURNDATASIZE PUSH0 REVERT JUMPDEST POP POP POP POP PUSH1 0x40 MLOAD RETURNDATASIZE PUSH1 0x1F NOT PUSH1 0x1F DUP3 ADD AND DUP3 ADD DUP1 PUSH1 0x40 MSTORE POP DUP2 ADD SWAP1 PUSH2 0x1F33 SWAP2 SWAP1 PUSH2 0x458F JUMP JUMPDEST POP POP POP JUMP JUMPDEST PUSH1 0x5 DUP2 DUP1 MLOAD PUSH1 0x20 DUP2 ADD DUP3 ADD DUP1 MLOAD DUP5 DUP3 MSTORE PUSH1 0x20 DUP4 ADD PUSH1 0x20 DUP6 ADD KECCAK256 DUP2 DUP4 MSTORE DUP1 SWAP6 POP POP POP POP POP POP PUSH0 SWAP2 POP SWAP1 POP DUP1 PUSH0 ADD DUP1 SLOAD PUSH2 0x1F6F SWAP1 PUSH2 0x41C7 JUMP JUMPDEST DUP1 PUSH1 0x1F ADD PUSH1 0x20 DUP1 SWAP2 DIV MUL PUSH1 0x20 ADD PUSH1 0x40 MLOAD SWAP1 DUP2 ADD PUSH1 0x40 MSTORE DUP1 SWAP3 SWAP2 SWAP1 DUP2 DUP2 MSTORE PUSH1 0x20 ADD DUP3 DUP1 SLOAD PUSH2 0x1F9B SWAP1 PUSH2 0x41C7 JUMP JUMPDEST DUP1 ISZERO PUSH2 0x1FE6 JUMPI DUP1 PUSH1 0x1F LT PUSH2 0x1FBD JUMPI PUSH2 0x100 DUP1 DUP4 SLOAD DIV MUL DUP4 MSTORE SWAP2 PUSH1 0x20 ADD SWAP2 PUSH2 0x1FE6 JUMP JUMPDEST DUP3 ADD SWAP2 SWAP1 PUSH0 MSTORE PUSH1 0x20 PUSH0 KECCAK256 SWAP1 JUMPDEST DUP2 SLOAD DUP2 MSTORE SWAP1 PUSH1 0x1 ADD SWAP1 PUSH1 0x20 ADD DUP1 DUP4 GT PUSH2 0x1FC9 JUMPI DUP3 SWAP1 SUB PUSH1 0x1F AND DUP3 ADD SWAP2 JUMPDEST POP POP POP POP POP SWAP1 DUP1 PUSH1 0x1 ADD PUSH0 SWAP1 SLOAD SWAP1 PUSH2 0x100 EXP SWAP1 DIV PUSH20 0xFFFFFFFFFFFFFFFFFFFFFFFFFFFFFFFFFFFFFFFF AND SWAP1 DUP1 PUSH1 0x2 ADD PUSH0 SWAP1 SLOAD SWAP1 PUSH2 0x100 EXP SWAP1 DIV PUSH20 0xFFFFFFFFFFFFFFFFFFFFFFFFFFFFFFFFFFFFFFFF AND SWAP1 DUP1 PUSH1 0x3 ADD SLOAD SWAP1 DUP1 PUSH1 0x4 ADD SLOAD SWAP1 DUP1 PUSH1 0x5 ADD DUP1 SLOAD PUSH2 0x2051 SWAP1 PUSH2 0x41C7 JUMP JUMPDEST DUP1 PUSH1 0x1F ADD PUSH1 0x20 DUP1 SWAP2 DIV MUL PUSH1 0x20 ADD PUSH1 0x40 MLOAD SWAP1 DUP2 ADD PUSH1 0x40 MSTORE DUP1 SWAP3 SWAP2 SWAP1 DUP2 DUP2 MSTORE PUSH1 0x20 ADD DUP3 DUP1 SLOAD PUSH2 0x207D SWAP1 PUSH2 0x41C7 JUMP JUMPDEST DUP1 ISZERO PUSH2 0x20C8 JUMPI DUP1 PUSH1 0x1F LT PUSH2 0x209F JUMPI PUSH2 0x100 DUP1 DUP4 SLOAD DIV MUL DUP4 MSTORE SWAP2 PUSH1 0x20 ADD SWAP2 PUSH2 0x20C8 JUMP JUMPDEST DUP3 ADD SWAP2 SWAP1 PUSH0 MSTORE PUSH1 0x20 PUSH0 KECCAK256 SWAP1 JUMPDEST DUP2 SLOAD DUP2 MSTORE SWAP1 PUSH1 0x1 ADD SWAP1 PUSH1 0x20 ADD DUP1 DUP4 GT PUSH2 0x20AB JUMPI DUP3 SWAP1 SUB PUSH1 0x1F AND DUP3 ADD SWAP2 JUMPDEST POP POP POP POP POP SWAP1 DUP1 PUSH1 0x6 ADD PUSH0 SWAP1 SLOAD SWAP1 PUSH2 0x100 EXP SWAP1 DIV PUSH1 0xFF AND SWAP1 DUP1 PUSH1 0x7 ADD SLOAD SWAP1 DUP1 PUSH1 0x8 ADD SLOAD SWAP1 DUP1 PUSH1 0x9 ADD SLOAD SWAP1 DUP1 PUSH1 0xA ADD DUP1 SLOAD PUSH2 0x2101 SWAP1 PUSH2 0x41C7 JUMP JUMPDEST DUP1 PUSH1 0x1F ADD PUSH1 0x20 DUP1 SWAP2 DIV MUL PUSH1 0x20 ADD PUSH1 0x40 MLOAD SWAP1 DUP2 ADD PUSH1 0x40 MSTORE DUP1 SWAP3 SWAP2 SWAP1 DUP2 DUP2 MSTORE PUSH1 0x20 ADD DUP3 DUP1 SLOAD PUSH2 0x212D SWAP1 PUSH2 0x41C7 JUMP JUMPDEST DUP1 ISZERO PUSH2 0x2178 JUMPI DUP1 PUSH1 0x1F LT PUSH2 0x214F JUMPI PUSH2 0x100 DUP1 DUP4 SLOAD DIV MUL DUP4 MSTORE SWAP2 PUSH1 0x20 ADD SWAP2 PUSH2 0x2178 JUMP JUMPDEST DUP3 ADD SWAP2 SWAP1 PUSH0 MSTORE PUSH1 0x20 PUSH0 KECCAK256 SWAP1 JUMPDEST DUP2 SLOAD DUP2 MSTORE SWAP1 PUSH1 0x1 ADD SWAP1 PUSH1 0x20 ADD DUP1 DUP4 GT PUSH2 0x215B JUMPI DUP3 SWAP1 SUB PUSH1 0x1F AND DUP3 ADD SWAP2 JUMPDEST POP POP POP POP POP SWAP1 DUP1 PUSH1 0xB ADD PUSH0 SWAP1 SLOAD SWAP1 PUSH2 0x100 EXP SWAP1 DIV PUSH1 0xFF AND SWAP1 POP DUP13 JUMP JUMPDEST PUSH2 0x219C PUSH2 0x3057 JUMP JUMPDEST PUSH2 0x3E8 DUP2 GT ISZERO PUSH2 0x21E1 JUMPI PUSH1 0x40 MLOAD PUSH32 0x8C379A000000000000000000000000000000000000000000000000000000000 DUP2 MSTORE PUSH1 0x4 ADD PUSH2 0x21D8 SWAP1 PUSH2 0x4B13 JUMP JUMPDEST PUSH1 0x40 MLOAD DUP1 SWAP2 SUB SWAP1 REVERT JUMPDEST PUSH0 PUSH1 0x3 SLOAD SWAP1 POP DUP2 PUSH1 0x3 DUP2 SWAP1 SSTORE POP PUSH32 0xD347E206F25A89B917FC9482F1A2D294D749BAA4DC9BDE7FB495EE11FE491643 DUP2 DUP4 PUSH1 0x40 MLOAD PUSH2 0x221F SWAP3 SWAP2 SWAP1 PUSH2 0x445D JUMP JUMPDEST PUSH1 0x40 MLOAD DUP1 SWAP2 SUB SWAP1 LOG1 POP POP JUMP JUMPDEST PUSH1 0x60 PUSH1 0x6 PUSH0 DUP4 PUSH20 0xFFFFFFFFFFFFFFFFFFFFFFFFFFFFFFFFFFFFFFFF AND PUSH20 0xFFFFFFFFFFFFFFFFFFFFFFFFFFFFFFFFFFFFFFFF AND DUP2 MSTORE PUSH1 0x20 ADD SWAP1 DUP2 MSTORE PUSH1 0x20 ADD PUSH0 KECCAK256 DUP1 SLOAD DUP1 PUSH1 0x20 MUL PUSH1 0x20 ADD PUSH1 0x40 MLOAD SWAP1 DUP2 ADD PUSH1 0x40 MSTORE DUP1 SWAP3 SWAP2 SWAP1 DUP2 DUP2 MSTORE PUSH1 0x20 ADD PUSH0 SWAP1 JUMPDEST DUP3 DUP3 LT ISZERO PUSH2 0x2331 JUMPI DUP4 DUP3 SWAP1 PUSH0 MSTORE PUSH1 0x20 PUSH0 KECCAK256 ADD DUP1 SLOAD PUSH2 0x22A6 SWAP1 PUSH2 0x41C7 JUMP JUMPDEST DUP1 PUSH1 0x1F ADD PUSH1 0x20 DUP1 SWAP2 DIV MUL PUSH1 0x20 ADD PUSH1 0x40 MLOAD SWAP1 DUP2 ADD PUSH1 0x40 MSTORE DUP1 SWAP3 SWAP2 SWAP1 DUP2 DUP2 MSTORE PUSH1 0x20 ADD DUP3 DUP1 SLOAD PUSH2 0x22D2 SWAP1 PUSH2 0x41C7 JUMP JUMPDEST DUP1 ISZERO PUSH2 0x231D JUMPI DUP1 PUSH1 0x1F LT PUSH2 0x22F4 JUMPI PUSH2 0x100 DUP1 DUP4 SLOAD DIV MUL DUP4 MSTORE SWAP2 PUSH1 0x20 ADD SWAP2 PUSH2 0x231D JUMP JUMPDEST DUP3 ADD SWAP2 SWAP1 PUSH0 MSTORE PUSH1 0x20 PUSH0 KECCAK256 SWAP1 JUMPDEST DUP2 SLOAD DUP2 MSTORE SWAP1 PUSH1 0x1 ADD SWAP1 PUSH1 0x20 ADD DUP1 DUP4 GT PUSH2 0x2300 JUMPI DUP3 SWAP1 SUB PUSH1 0x1F AND DUP3 ADD SWAP2 JUMPDEST POP POP POP POP POP DUP2 MSTORE PUSH1 0x20 ADD SWAP1 PUSH1 0x1 ADD SWAP1 PUSH2 0x2289 JUMP JUMPDEST POP POP POP POP SWAP1 POP SWAP2 SWAP1 POP JUMP JUMPDEST PUSH2 0x2344 PUSH2 0x300D JUMP JUMPDEST DUP2 PUSH1 0x5 DUP2 PUSH1 0x40 MLOAD PUSH2 0x2355 SWAP2 SWAP1 PUSH2 0x3F14 JUMP JUMPDEST SWAP1 DUP2 MSTORE PUSH1 0x20 ADD PUSH1 0x40 MLOAD DUP1 SWAP2 SUB SWAP1 KECCAK256 PUSH1 0xB ADD PUSH0 SWAP1 SLOAD SWAP1 PUSH2 0x100 EXP SWAP1 DIV PUSH1 0xFF AND PUSH2 0x23B2 JUMPI PUSH1 0x40 MLOAD PUSH32 0x8C379A000000000000000000000000000000000000000000000000000000000 DUP2 MSTORE PUSH1 0x4 ADD PUSH2 0x23A9 SWAP1 PUSH2 0x44CE JUMP JUMPDEST PUSH1 0x40 MLOAD DUP1 SWAP2 SUB SWAP1 REVERT JUMPDEST DUP3 CALLER PUSH20 0xFFFFFFFFFFFFFFFFFFFFFFFFFFFFFFFFFFFFFFFF AND PUSH1 0x5 DUP3 PUSH1 0x40 MLOAD PUSH2 0x23DA SWAP2 SWAP1 PUSH2 0x3F14 JUMP JUMPDEST SWAP1 DUP2 MSTORE PUSH1 0x20 ADD PUSH1 0x40 MLOAD DUP1 SWAP2 SUB SWAP1 KECCAK256 PUSH1 0x2 ADD PUSH0 SWAP1 SLOAD SWAP1 PUSH2 0x100 EXP SWAP1 DIV PUSH20 0xFFFFFFFFFFFFFFFFFFFFFFFFFFFFFFFFFFFFFFFF AND PUSH20 0xFFFFFFFFFFFFFFFFFFFFFFFFFFFFFFFFFFFFFFFF AND EQ PUSH2 0x2461 JUMPI PUSH1 0x40 MLOAD PUSH32 0x8C379A000000000000000000000000000000000000000000000000000000000 DUP2 MSTORE PUSH1 0x4 ADD PUSH2 0x2458 SWAP1 PUSH2 0x4841 JUMP JUMPDEST PUSH1 0x40 MLOAD DUP1 SWAP2 SUB SWAP1 REVERT JUMPDEST DUP4 PUSH1 0x3 DUP1 PUSH1 0x5 DUP2 GT ISZERO PUSH2 0x2477 JUMPI PUSH2 0x2476 PUSH2 0x3BED JUMP JUMPDEST JUMPDEST PUSH1 0x5 DUP4 PUSH1 0x40 MLOAD PUSH2 0x2487 SWAP2 SWAP1 PUSH2 0x3F14 JUMP JUMPDEST SWAP1 DUP2 MSTORE PUSH1 0x20 ADD PUSH1 0x40 MLOAD DUP1 SWAP2 SUB SWAP1 KECCAK256 PUSH1 0x6 ADD PUSH0 SWAP1 SLOAD SWAP1 PUSH2 0x100 EXP SWAP1 DIV PUSH1 0xFF AND PUSH1 0x5 DUP2 GT ISZERO PUSH2 0x24B7 JUMPI PUSH2 0x24B6 PUSH2 0x3BED JUMP JUMPDEST JUMPDEST EQ PUSH2 0x24F7 JUMPI PUSH1 0x40 MLOAD PUSH32 0x8C379A000000000000000000000000000000000000000000000000000000000 DUP2 MSTORE PUSH1 0x4 ADD PUSH2 0x24EE SWAP1 PUSH2 0x46D4 JUMP JUMPDEST PUSH1 0x40 MLOAD DUP1 SWAP2 SUB SWAP1 REVERT JUMPDEST PUSH2 0x24FF PUSH2 0x30DE JUMP JUMPDEST PUSH0 PUSH1 0x5 DUP8 PUSH1 0x40 MLOAD PUSH2 0x2510 SWAP2 SWAP1 PUSH2 0x3F14 JUMP JUMPDEST SWAP1 DUP2 MSTORE PUSH1 0x20 ADD PUSH1 0x40 MLOAD DUP1 SWAP2 SUB SWAP1 KECCAK256 SWAP1 POP PUSH1 0x4 DUP2 PUSH1 0x6 ADD PUSH0 PUSH2 0x100 EXP DUP2 SLOAD DUP2 PUSH1 0xFF MUL NOT AND SWAP1 DUP4 PUSH1 0x5 DUP2 GT ISZERO PUSH2 0x2547 JUMPI PUSH2 0x2546 PUSH2 0x3BED JUMP JUMPDEST JUMPDEST MUL OR SWAP1 SSTORE POP PUSH0 PUSH0 DUP8 ISZERO PUSH2 0x2788 JUMPI PUSH2 0x2710 PUSH2 0x1F40 DUP5 PUSH1 0x3 ADD SLOAD PUSH2 0x2569 SWAP2 SWAP1 PUSH2 0x4B31 JUMP JUMPDEST PUSH2 0x2573 SWAP2 SWAP1 PUSH2 0x4B9F JUMP JUMPDEST SWAP2 POP DUP2 DUP4 PUSH1 0x3 ADD SLOAD PUSH2 0x2585 SWAP2 SWAP1 PUSH2 0x4BCF JUMP JUMPDEST SWAP1 POP PUSH1 0x2 PUSH0 SWAP1 SLOAD SWAP1 PUSH2 0x100 EXP SWAP1 DIV PUSH20 0xFFFFFFFFFFFFFFFFFFFFFFFFFFFFFFFFFFFFFFFF AND PUSH20 0xFFFFFFFFFFFFFFFFFFFFFFFFFFFFFFFFFFFFFFFF AND PUSH4 0xA9059CBB DUP5 PUSH1 0x2 ADD PUSH0 SWAP1 SLOAD SWAP1 PUSH2 0x100 EXP SWAP1 DIV PUSH20 0xFFFFFFFFFFFFFFFFFFFFFFFFFFFFFFFFFFFFFFFF AND DUP5 PUSH1 0x40 MLOAD DUP4 PUSH4 0xFFFFFFFF AND PUSH1 0xE0 SHL DUP2 MSTORE PUSH1 0x4 ADD PUSH2 0x2606 SWAP3 SWAP2 SWAP1 PUSH2 0x4554 JUMP JUMPDEST PUSH1 0x20 PUSH1 0x40 MLOAD DUP1 DUP4 SUB DUP2 PUSH0 DUP8 GAS CALL ISZERO DUP1 ISZERO PUSH2 0x2622 JUMPI RETURNDATASIZE PUSH0 PUSH0 RETURNDATACOPY RETURNDATASIZE PUSH0 REVERT JUMPDEST POP POP POP POP PUSH1 0x40 MLOAD RETURNDATASIZE PUSH1 0x1F NOT PUSH1 0x1F DUP3 ADD AND DUP3 ADD DUP1 PUSH1 0x40 MSTORE POP DUP2 ADD SWAP1 PUSH2 0x2646 SWAP2 SWAP1 PUSH2 0x458F JUMP JUMPDEST PUSH2 0x2685 JUMPI PUSH1 0x40 MLOAD PUSH32 0x8C379A000000000000000000000000000000000000000000000000000000000 DUP2 MSTORE PUSH1 0x4 ADD PUSH2 0x267C SWAP1 PUSH2 0x4C4C JUMP JUMPDEST PUSH1 0x40 MLOAD DUP1 SWAP2 SUB SWAP1 REVERT JUMPDEST PUSH1 0x2 PUSH0 SWAP1 SLOAD SWAP1 PUSH2 0x100 EXP SWAP1 DIV PUSH20 0xFFFFFFFFFFFFFFFFFFFFFFFFFFFFFFFFFFFFFFFF AND PUSH20 0xFFFFFFFFFFFFFFFFFFFFFFFFFFFFFFFFFFFFFFFF AND PUSH4 0xA9059CBB DUP5 PUSH1 0x1 ADD PUSH0 SWAP1 SLOAD SWAP1 PUSH2 0x100 EXP SWAP1 DIV PUSH20 0xFFFFFFFFFFFFFFFFFFFFFFFFFFFFFFFFFFFFFFFF AND DUP4 PUSH1 0x40 MLOAD DUP4 PUSH4 0xFFFFFFFF AND PUSH1 0xE0 SHL DUP2 MSTORE PUSH1 0x4 ADD PUSH2 0x2704 SWAP3 SWAP2 SWAP1 PUSH2 0x4554 JUMP JUMPDEST PUSH1 0x20 PUSH1 0x40 MLOAD DUP1 DUP4 SUB DUP2 PUSH0 DUP8 GAS CALL ISZERO DUP1 ISZERO PUSH2 0x2720 JUMPI RETURNDATASIZE PUSH0 PUSH0 RETURNDATACOPY RETURNDATASIZE PUSH0 REVERT JUMPDEST POP POP POP POP PUSH1 0x40 MLOAD RETURNDATASIZE PUSH1 0x1F NOT PUSH1 0x1F DUP3 ADD AND DUP3 ADD DUP1 PUSH1 0x40 MSTORE POP DUP2 ADD SWAP1 PUSH2 0x2744 SWAP2 SWAP1 PUSH2 0x458F JUMP JUMPDEST PUSH2 0x2783 JUMPI PUSH1 0x40 MLOAD PUSH32 0x8C379A000000000000000000000000000000000000000000000000000000000 DUP2 MSTORE PUSH1 0x4 ADD PUSH2 0x277A SWAP1 PUSH2 0x4CB4 JUMP JUMPDEST PUSH1 0x40 MLOAD DUP1 SWAP2 SUB SWAP1 REVERT JUMPDEST PUSH2 0x2891 JUMP JUMPDEST PUSH0 SWAP2 POP DUP3 PUSH1 0x3 ADD SLOAD SWAP1 POP PUSH1 0x2 PUSH0 SWAP1 SLOAD SWAP1 PUSH2 0x100 EXP SWAP1 DIV PUSH20 0xFFFFFFFFFFFFFFFFFFFFFFFFFFFFFFFFFFFFFFFF AND PUSH20 0xFFFFFFFFFFFFFFFFFFFFFFFFFFFFFFFFFFFFFFFF AND PUSH4 0xA9059CBB DUP5 PUSH1 0x1 ADD PUSH0 SWAP1 SLOAD SWAP1 PUSH2 0x100 EXP SWAP1 DIV PUSH20 0xFFFFFFFFFFFFFFFFFFFFFFFFFFFFFFFFFFFFFFFF AND DUP4 PUSH1 0x40 MLOAD DUP4 PUSH4 0xFFFFFFFF AND PUSH1 0xE0 SHL DUP2 MSTORE PUSH1 0x4 ADD PUSH2 0x2811 SWAP3 SWAP2 SWAP1 PUSH2 0x4554 JUMP JUMPDEST PUSH1 0x20 PUSH1 0x40 MLOAD DUP1 DUP4 SUB DUP2 PUSH0 DUP8 GAS CALL ISZERO DUP1 ISZERO PUSH2 0x282D JUMPI RETURNDATASIZE PUSH0 PUSH0 RETURNDATACOPY RETURNDATASIZE PUSH0 REVERT JUMPDEST POP POP POP POP PUSH1 0x40 MLOAD RETURNDATASIZE PUSH1 0x1F NOT PUSH1 0x1F DUP3 ADD AND DUP3 ADD DUP1 PUSH1 0x40 MSTORE POP DUP2 ADD SWAP1 PUSH2 0x2851 SWAP2 SWAP1 PUSH2 0x458F JUMP JUMPDEST PUSH2 0x2890 JUMPI PUSH1 0x40 MLOAD PUSH32 0x8C379A000000000000000000000000000000000000000000000000000000000 DUP2 MSTORE PUSH1 0x4 ADD PUSH2 0x2887 SWAP1 PUSH2 0x4CB4 JUMP JUMPDEST PUSH1 0x40 MLOAD DUP1 SWAP2 SUB SWAP1 REVERT JUMPDEST JUMPDEST CALLER PUSH20 0xFFFFFFFFFFFFFFFFFFFFFFFFFFFFFFFFFFFFFFFF AND DUP10 PUSH1 0x40 MLOAD PUSH2 0x28B6 SWAP2 SWAP1 PUSH2 0x3F14 JUMP JUMPDEST PUSH1 0x40 MLOAD DUP1 SWAP2 SUB SWAP1 KECCAK256 PUSH32 0x89571B438A58807E22C9A5161205EF2E2BA784B6A7BD96B05871D4A84190B65F DUP11 DUP6 DUP6 TIMESTAMP PUSH1 0x40 MLOAD PUSH2 0x28F3 SWAP5 SWAP4 SWAP3 SWAP2 SWAP1 PUSH2 0x4CD2 JUMP JUMPDEST PUSH1 0x40 MLOAD DUP1 SWAP2 SUB SWAP1 LOG3 POP POP POP PUSH2 0x2906 PUSH2 0x312B JUMP JUMPDEST POP POP POP POP POP POP JUMP JUMPDEST PUSH1 0x6 PUSH1 0x20 MSTORE DUP2 PUSH0 MSTORE PUSH1 0x40 PUSH0 KECCAK256 DUP2 DUP2 SLOAD DUP2 LT PUSH2 0x2927 JUMPI PUSH0 DUP1 REVERT JUMPDEST SWAP1 PUSH0 MSTORE PUSH1 0x20 PUSH0 KECCAK256 ADD PUSH0 SWAP2 POP SWAP2 POP POP DUP1 SLOAD PUSH2 0x2940 SWAP1 PUSH2 0x41C7 JUMP JUMPDEST DUP1 PUSH1 0x1F ADD PUSH1 0x20 DUP1 SWAP2 DIV MUL PUSH1 0x20 ADD PUSH1 0x40 MLOAD SWAP1 DUP2 ADD PUSH1 0x40 MSTORE DUP1 SWAP3 SWAP2 SWAP1 DUP2 DUP2 MSTORE PUSH1 0x20 ADD DUP3 DUP1 SLOAD PUSH2 0x296C SWAP1 PUSH2 0x41C7 JUMP JUMPDEST DUP1 ISZERO PUSH2 0x29B7 JUMPI DUP1 PUSH1 0x1F LT PUSH2 0x298E JUMPI PUSH2 0x100 DUP1 DUP4 SLOAD DIV MUL DUP4 MSTORE SWAP2 PUSH1 0x20 ADD SWAP2 PUSH2 0x29B7 JUMP JUMPDEST DUP3 ADD SWAP2 SWAP1 PUSH0 MSTORE PUSH1 0x20 PUSH0 KECCAK256 SWAP1 JUMPDEST DUP2 SLOAD DUP2 MSTORE SWAP1 PUSH1 0x1 ADD SWAP1 PUSH1 0x20 ADD DUP1 DUP4 GT PUSH2 0x299A JUMPI DUP3 SWAP1 SUB PUSH1 0x1F AND DUP3 ADD SWAP2 JUMPDEST POP POP POP POP POP DUP2 JUMP JUMPDEST PUSH1 0x2 PUSH0 SWAP1 SLOAD SWAP1 PUSH2 0x100 EXP SWAP1 DIV PUSH20 0xFFFFFFFFFFFFFFFFFFFFFFFFFFFFFFFFFFFFFFFF AND DUP2 JUMP JUMPDEST PUSH2 0x2710 DUP2 JUMP JUMPDEST PUSH0 PUSH0 PUSH0 PUSH0 PUSH0 PUSH1 0x60 DUP1 PUSH0 PUSH0 PUSH1 0x5 DUP11 PUSH1 0x40 MLOAD PUSH2 0x2A04 SWAP2 SWAP1 PUSH2 0x3F14 JUMP JUMPDEST SWAP1 DUP2 MSTORE PUSH1 0x20 ADD PUSH1 0x40 MLOAD DUP1 SWAP2 SUB SWAP1 KECCAK256 SWAP1 POP DUP1 PUSH1 0xB ADD PUSH0 SWAP1 SLOAD SWAP1 PUSH2 0x100 EXP SWAP1 DIV PUSH1 0xFF AND PUSH2 0x2A64 JUMPI PUSH1 0x40 MLOAD PUSH32 0x8C379A000000000000000000000000000000000000000000000000000000000 DUP2 MSTORE PUSH1 0x4 ADD PUSH2 0x2A5B SWAP1 PUSH2 0x44CE JUMP JUMPDEST PUSH1 0x40 MLOAD DUP1 SWAP2 SUB SWAP1 REVERT JUMPDEST DUP1 PUSH1 0x1 ADD PUSH0 SWAP1 SLOAD SWAP1 PUSH2 0x100 EXP SWAP1 DIV PUSH20 0xFFFFFFFFFFFFFFFFFFFFFFFFFFFFFFFFFFFFFFFF AND DUP2 PUSH1 0x2 ADD PUSH0 SWAP1 SLOAD SWAP1 PUSH2 0x100 EXP SWAP1 DIV PUSH20 0xFFFFFFFFFFFFFFFFFFFFFFFFFFFFFFFFFFFFFFFF AND DUP3 PUSH1 0x3 ADD SLOAD DUP4 PUSH1 0x4 ADD SLOAD DUP5 PUSH1 0x6 ADD PUSH0 SWAP1 SLOAD SWAP1 PUSH2 0x100 EXP SWAP1 DIV PUSH1 0xFF AND DUP6 PUSH1 0x5 ADD DUP7 PUSH1 0xA ADD DUP8 PUSH1 0x9 ADD SLOAD DUP3 DUP1 SLOAD PUSH2 0x2AE0 SWAP1 PUSH2 0x41C7 JUMP JUMPDEST DUP1 PUSH1 0x1F ADD PUSH1 0x20 DUP1 SWAP2 DIV MUL PUSH1 0x20 ADD PUSH1 0x40 MLOAD SWAP1 DUP2 ADD PUSH1 0x40 MSTORE DUP1 SWAP3 SWAP2 SWAP1 DUP2 DUP2 MSTORE PUSH1 0x20 ADD DUP3 DUP1 SLOAD PUSH2 0x2B0C SWAP1 PUSH2 0x41C7 JUMP JUMPDEST DUP1 ISZERO PUSH2 0x2B57 JUMPI DUP1 PUSH1 0x1F LT PUSH2 0x2B2E JUMPI PUSH2 0x100 DUP1 DUP4 SLOAD DIV MUL DUP4 MSTORE SWAP2 PUSH1 0x20 ADD SWAP2 PUSH2 0x2B57 JUMP JUMPDEST DUP3 ADD SWAP2 SWAP1 PUSH0 MSTORE PUSH1 0x20 PUSH0 KECCAK256 SWAP1 JUMPDEST DUP2 SLOAD DUP2 MSTORE SWAP1 PUSH1 0x1 ADD SWAP1 PUSH1 0x20 ADD DUP1 DUP4 GT PUSH2 0x2B3A JUMPI DUP3 SWAP1 SUB PUSH1 0x1F AND DUP3 ADD SWAP2 JUMPDEST POP POP POP POP POP SWAP3 POP DUP2 DUP1 SLOAD PUSH2 0x2B6A SWAP1 PUSH2 0x41C7 JUMP JUMPDEST DUP1 PUSH1 0x1F ADD PUSH1 0x20 DUP1 SWAP2 DIV MUL PUSH1 0x20 ADD PUSH1 0x40 MLOAD SWAP1 DUP2 ADD PUSH1 0x40 MSTORE DUP1 SWAP3 SWAP2 SWAP1 DUP2 DUP2 MSTORE PUSH1 0x20 ADD DUP3 DUP1 SLOAD PUSH2 0x2B96 SWAP1 PUSH2 0x41C7 JUMP JUMPDEST DUP1 ISZERO PUSH2 0x2BE1 JUMPI DUP1 PUSH1 0x1F LT PUSH2 0x2BB8 JUMPI PUSH2 0x100 DUP1 DUP4 SLOAD DIV MUL DUP4 MSTORE SWAP2 PUSH1 0x20 ADD SWAP2 PUSH2 0x2BE1 JUMP JUMPDEST DUP3 ADD SWAP2 SWAP1 PUSH0 MSTORE PUSH1 0x20 PUSH0 KECCAK256 SWAP1 JUMPDEST DUP2 SLOAD DUP2 MSTORE SWAP1 PUSH1 0x1 ADD SWAP1 PUSH1 0x20 ADD DUP1 DUP4 GT PUSH2 0x2BC4 JUMPI DUP3 SWAP1 SUB PUSH1 0x1F AND DUP3 ADD SWAP2 JUMPDEST POP POP POP POP POP SWAP2 POP SWAP9 POP SWAP9 POP SWAP9 POP SWAP9 POP SWAP9 POP SWAP9 POP SWAP9 POP SWAP9 POP POP SWAP2 SWAP4 SWAP6 SWAP8 POP SWAP2 SWAP4 SWAP6 SWAP8 JUMP JUMPDEST PUSH2 0x2C0C PUSH2 0x3057 JUMP JUMPDEST PUSH0 PUSH20 0xFFFFFFFFFFFFFFFFFFFFFFFFFFFFFFFFFFFFFFFF AND DUP2 PUSH20 0xFFFFFFFFFFFFFFFFFFFFFFFFFFFFFFFFFFFFFFFF AND SUB PUSH2 0x2C7A JUMPI PUSH1 0x40 MLOAD PUSH32 0x8C379A000000000000000000000000000000000000000000000000000000000 DUP2 MSTORE PUSH1 0x4 ADD PUSH2 0x2C71 SWAP1 PUSH2 0x4D5F JUMP JUMPDEST PUSH1 0x40 MLOAD DUP1 SWAP2 SUB SWAP1 REVERT JUMPDEST PUSH0 PUSH1 0x4 PUSH0 SWAP1 SLOAD SWAP1 PUSH2 0x100 EXP SWAP1 DIV PUSH20 0xFFFFFFFFFFFFFFFFFFFFFFFFFFFFFFFFFFFFFFFF AND SWAP1 POP DUP2 PUSH1 0x4 PUSH0 PUSH2 0x100 EXP DUP2 SLOAD DUP2 PUSH20 0xFFFFFFFFFFFFFFFFFFFFFFFFFFFFFFFFFFFFFFFF MUL NOT AND SWAP1 DUP4 PUSH20 0xFFFFFFFFFFFFFFFFFFFFFFFFFFFFFFFFFFFFFFFF AND MUL OR SWAP1 SSTORE POP PUSH32 0xAAEBCF1BFA00580E41D966056B48521FA9F202645C86D4DDF28113E617C1B1D3 DUP2 DUP4 PUSH1 0x40 MLOAD PUSH2 0x2D10 SWAP3 SWAP2 SWAP1 PUSH2 0x4D7D JUMP JUMPDEST PUSH1 0x40 MLOAD DUP1 SWAP2 SUB SWAP1 LOG1 POP POP JUMP JUMPDEST PUSH2 0x2D24 PUSH2 0x3057 JUMP JUMPDEST PUSH0 PUSH20 0xFFFFFFFFFFFFFFFFFFFFFFFFFFFFFFFFFFFFFFFF AND DUP2 PUSH20 0xFFFFFFFFFFFFFFFFFFFFFFFFFFFFFFFFFFFFFFFF AND SUB PUSH2 0x2D94 JUMPI PUSH0 PUSH1 0x40 MLOAD PUSH32 0x1E4FBDF700000000000000000000000000000000000000000000000000000000 DUP2 MSTORE PUSH1 0x4 ADD PUSH2 0x2D8B SWAP2 SWAP1 PUSH2 0x3A85 JUMP JUMPDEST PUSH1 0x40 MLOAD DUP1 SWAP2 SUB SWAP1 REVERT JUMPDEST PUSH2 0x2D9D DUP2 PUSH2 0x34A3 JUMP JUMPDEST POP JUMP JUMPDEST DUP1 PUSH1 0x5 DUP2 PUSH1 0x40 MLOAD PUSH2 0x2DB1 SWAP2 SWAP1 PUSH2 0x3F14 JUMP JUMPDEST SWAP1 DUP2 MSTORE PUSH1 0x20 ADD PUSH1 0x40 MLOAD DUP1 SWAP2 SUB SWAP1 KECCAK256 PUSH1 0xB ADD PUSH0 SWAP1 SLOAD SWAP1 PUSH2 0x100 EXP SWAP1 DIV PUSH1 0xFF AND PUSH2 0x2E0E JUMPI PUSH1 0x40 MLOAD PUSH32 0x8C379A000000000000000000000000000000000000000000000000000000000 DUP2 MSTORE PUSH1 0x4 ADD PUSH2 0x2E05 SWAP1 PUSH2 0x44CE JUMP JUMPDEST PUSH1 0x40 MLOAD DUP1 SWAP2 SUB SWAP1 REVERT JUMPDEST DUP2 CALLER PUSH20 0xFFFFFFFFFFFFFFFFFFFFFFFFFFFFFFFFFFFFFFFF AND PUSH1 0x5 DUP3 PUSH1 0x40 MLOAD PUSH2 0x2E36 SWAP2 SWAP1 PUSH2 0x3F14 JUMP JUMPDEST SWAP1 DUP2 MSTORE PUSH1 0x20 ADD PUSH1 0x40 MLOAD DUP1 SWAP2 SUB SWAP1 KECCAK256 PUSH1 0x1 ADD PUSH0 SWAP1 SLOAD SWAP1 PUSH2 0x100 EXP SWAP1 DIV PUSH20 0xFFFFFFFFFFFFFFFFFFFFFFFFFFFFFFFFFFFFFFFF AND PUSH20 0xFFFFFFFFFFFFFFFFFFFFFFFFFFFFFFFFFFFFFFFF AND EQ PUSH2 0x2EBD JUMPI PUSH1 0x40 MLOAD PUSH32 0x8C379A000000000000000000000000000000000000000000000000000000000 DUP2 MSTORE PUSH1 0x4 ADD PUSH2 0x2EB4 SWAP1 PUSH2 0x466C JUMP JUMPDEST PUSH1 0x40 MLOAD DUP1 SWAP2 SUB SWAP1 REVERT JUMPDEST DUP3 PUSH0 DUP1 PUSH1 0x5 DUP2 GT ISZERO PUSH2 0x2ED2 JUMPI PUSH2 0x2ED1 PUSH2 0x3BED JUMP JUMPDEST JUMPDEST PUSH1 0x5 DUP4 PUSH1 0x40 MLOAD PUSH2 0x2EE2 SWAP2 SWAP1 PUSH2 0x3F14 JUMP JUMPDEST SWAP1 DUP2 MSTORE PUSH1 0x20 ADD PUSH1 0x40 MLOAD DUP1 SWAP2 SUB SWAP1 KECCAK256 PUSH1 0x6 ADD PUSH0 SWAP1 SLOAD SWAP1 PUSH2 0x100 EXP SWAP1 DIV PUSH1 0xFF AND PUSH1 0x5 DUP2 GT ISZERO PUSH2 0x2F12 JUMPI PUSH2 0x2F11 PUSH2 0x3BED JUMP JUMPDEST JUMPDEST EQ PUSH2 0x2F52 JUMPI PUSH1 0x40 MLOAD PUSH32 0x8C379A000000000000000000000000000000000000000000000000000000000 DUP2 MSTORE PUSH1 0x4 ADD PUSH2 0x2F49 SWAP1 PUSH2 0x46D4 JUMP JUMPDEST PUSH1 0x40 MLOAD DUP1 SWAP2 SUB SWAP1 REVERT JUMPDEST PUSH0 PUSH1 0x5 DUP7 PUSH1 0x40 MLOAD PUSH2 0x2F63 SWAP2 SWAP1 PUSH2 0x3F14 JUMP JUMPDEST SWAP1 DUP2 MSTORE PUSH1 0x20 ADD PUSH1 0x40 MLOAD DUP1 SWAP2 SUB SWAP1 KECCAK256 SWAP1 POP PUSH1 0x5 DUP2 PUSH1 0x6 ADD PUSH0 PUSH2 0x100 EXP DUP2 SLOAD DUP2 PUSH1 0xFF MUL NOT AND SWAP1 DUP4 PUSH1 0x5 DUP2 GT ISZERO PUSH2 0x2F9A JUMPI PUSH2 0x2F99 PUSH2 0x3BED JUMP JUMPDEST JUMPDEST MUL OR SWAP1 SSTORE POP CALLER PUSH20 0xFFFFFFFFFFFFFFFFFFFFFFFFFFFFFFFFFFFFFFFF AND DUP7 PUSH1 0x40 MLOAD PUSH2 0x2FC4 SWAP2 SWAP1 PUSH2 0x3F14 JUMP JUMPDEST PUSH1 0x40 MLOAD DUP1 SWAP2 SUB SWAP1 KECCAK256 PUSH32 0xB5C5CBE36D1C39A7F7723FD013E345B60C0AFEDAEB3EF7285058266004063FF5 PUSH0 TIMESTAMP PUSH1 0x40 MLOAD PUSH2 0x2FFD SWAP3 SWAP2 SWAP1 PUSH2 0x4DDD JUMP JUMPDEST PUSH1 0x40 MLOAD DUP1 SWAP2 SUB SWAP1 LOG3 POP POP POP POP POP POP JUMP JUMPDEST PUSH2 0x3015 PUSH2 0x173A JUMP JUMPDEST ISZERO PUSH2 0x3055 JUMPI PUSH1 0x40 MLOAD PUSH32 0x8C379A000000000000000000000000000000000000000000000000000000000 DUP2 MSTORE PUSH1 0x4 ADD PUSH2 0x304C SWAP1 PUSH2 0x4E4E JUMP JUMPDEST PUSH1 0x40 MLOAD DUP1 SWAP2 SUB SWAP1 REVERT JUMPDEST JUMP JUMPDEST PUSH2 0x305F PUSH2 0x35C8 JUMP JUMPDEST PUSH20 0xFFFFFFFFFFFFFFFFFFFFFFFFFFFFFFFFFFFFFFFF AND PUSH2 0x307D PUSH2 0x1DF2 JUMP JUMPDEST PUSH20 0xFFFFFFFFFFFFFFFFFFFFFFFFFFFFFFFFFFFFFFFF AND EQ PUSH2 0x30DC JUMPI PUSH2 0x30A0 PUSH2 0x35C8 JUMP JUMPDEST PUSH1 0x40 MLOAD PUSH32 0x118CDAA700000000000000000000000000000000000000000000000000000000 DUP2 MSTORE PUSH1 0x4 ADD PUSH2 0x30D3 SWAP2 SWAP1 PUSH2 0x3A85 JUMP JUMPDEST PUSH1 0x40 MLOAD DUP1 SWAP2 SUB SWAP1 REVERT JUMPDEST JUMP JUMPDEST PUSH1 0x2 PUSH0 SLOAD SUB PUSH2 0x3122 JUMPI PUSH1 0x40 MLOAD PUSH32 0x8C379A000000000000000000000000000000000000000000000000000000000 DUP2 MSTORE PUSH1 0x4 ADD PUSH2 0x3119 SWAP1 PUSH2 0x4EB6 JUMP JUMPDEST PUSH1 0x40 MLOAD DUP1 SWAP2 SUB SWAP1 REVERT JUMPDEST PUSH1 0x2 PUSH0 DUP2 SWAP1 SSTORE POP JUMP JUMPDEST PUSH1 0x1 PUSH0 DUP2 SWAP1 SSTORE POP JUMP JUMPDEST PUSH0 PUSH1 0x5 DUP3 PUSH1 0x40 MLOAD PUSH2 0x3145 SWAP2 SWAP1 PUSH2 0x3F14 JUMP JUMPDEST SWAP1 DUP2 MSTORE PUSH1 0x20 ADD PUSH1 0x40 MLOAD DUP1 SWAP2 SUB SWAP1 KECCAK256 SWAP1 POP PUSH0 PUSH2 0x2710 PUSH1 0x3 SLOAD DUP4 PUSH1 0x3 ADD SLOAD PUSH2 0x316B SWAP2 SWAP1 PUSH2 0x4B31 JUMP JUMPDEST PUSH2 0x3175 SWAP2 SWAP1 PUSH2 0x4B9F JUMP JUMPDEST SWAP1 POP PUSH0 DUP2 DUP4 PUSH1 0x3 ADD SLOAD PUSH2 0x3188 SWAP2 SWAP1 PUSH2 0x4BCF JUMP JUMPDEST SWAP1 POP PUSH1 0x4 DUP4 PUSH1 0x6 ADD PUSH0 PUSH2 0x100 EXP DUP2 SLOAD DUP2 PUSH1 0xFF MUL NOT AND SWAP1 DUP4 PUSH1 0x5 DUP2 GT ISZERO PUSH2 0x31B1 JUMPI PUSH2 0x31B0 PUSH2 0x3BED JUMP JUMPDEST JUMPDEST MUL OR SWAP1 SSTORE POP PUSH1 0x2 PUSH0 SWAP1 SLOAD SWAP1 PUSH2 0x100 EXP SWAP1 DIV PUSH20 0xFFFFFFFFFFFFFFFFFFFFFFFFFFFFFFFFFFFFFFFF AND PUSH20 0xFFFFFFFFFFFFFFFFFFFFFFFFFFFFFFFFFFFFFFFF AND PUSH4 0xA9059CBB DUP5 PUSH1 0x2 ADD PUSH0 SWAP1 SLOAD SWAP1 PUSH2 0x100 EXP SWAP1 DIV PUSH20 0xFFFFFFFFFFFFFFFFFFFFFFFFFFFFFFFFFFFFFFFF AND DUP4 PUSH1 0x40 MLOAD DUP4 PUSH4 0xFFFFFFFF AND PUSH1 0xE0 SHL DUP2 MSTORE PUSH1 0x4 ADD PUSH2 0x3235 SWAP3 SWAP2 SWAP1 PUSH2 0x4554 JUMP JUMPDEST PUSH1 0x20 PUSH1 0x40 MLOAD DUP1 DUP4 SUB DUP2 PUSH0 DUP8 GAS CALL ISZERO DUP1 ISZERO PUSH2 0x3251 JUMPI RETURNDATASIZE PUSH0 PUSH0 RETURNDATACOPY RETURNDATASIZE PUSH0 REVERT JUMPDEST POP POP POP POP PUSH1 0x40 MLOAD RETURNDATASIZE PUSH1 0x1F NOT PUSH1 0x1F DUP3 ADD AND DUP3 ADD DUP1 PUSH1 0x40 MSTORE POP DUP2 ADD SWAP1 PUSH2 0x3275 SWAP2 SWAP1 PUSH2 0x458F JUMP JUMPDEST PUSH2 0x32B4 JUMPI PUSH1 0x40 MLOAD PUSH32 0x8C379A000000000000000000000000000000000000000000000000000000000 DUP2 MSTORE PUSH1 0x4 ADD PUSH2 0x32AB SWAP1 PUSH2 0x4C4C JUMP JUMPDEST PUSH1 0x40 MLOAD DUP1 SWAP2 SUB SWAP1 REVERT JUMPDEST PUSH1 0x2 PUSH0 SWAP1 SLOAD SWAP1 PUSH2 0x100 EXP SWAP1 DIV PUSH20 0xFFFFFFFFFFFFFFFFFFFFFFFFFFFFFFFFFFFFFFFF AND PUSH20 0xFFFFFFFFFFFFFFFFFFFFFFFFFFFFFFFFFFFFFFFF AND PUSH4 0xA9059CBB PUSH1 0x4 PUSH0 SWAP1 SLOAD SWAP1 PUSH2 0x100 EXP SWAP1 DIV PUSH20 0xFFFFFFFFFFFFFFFFFFFFFFFFFFFFFFFFFFFFFFFF AND DUP5 PUSH1 0x40 MLOAD DUP4 PUSH4 0xFFFFFFFF AND PUSH1 0xE0 SHL DUP2 MSTORE PUSH1 0x4 ADD PUSH2 0x3331 SWAP3 SWAP2 SWAP1 PUSH2 0x4554 JUMP JUMPDEST PUSH1 0x20 PUSH1 0x40 MLOAD DUP1 DUP4 SUB DUP2 PUSH0 DUP8 GAS CALL ISZERO DUP1 ISZERO PUSH2 0x334D JUMPI RETURNDATASIZE PUSH0 PUSH0 RETURNDATACOPY RETURNDATASIZE PUSH0 REVERT JUMPDEST POP POP POP POP PUSH1 0x40 MLOAD RETURNDATASIZE PUSH1 0x1F NOT PUSH1 0x1F DUP3 ADD AND DUP3 ADD DUP1 PUSH1 0x40 MSTORE POP DUP2 ADD SWAP1 PUSH2 0x3371 SWAP2 SWAP1 PUSH2 0x458F JUMP JUMPDEST PUSH2 0x33B0 JUMPI PUSH1 0x40 MLOAD PUSH32 0x8C379A000000000000000000000000000000000000000000000000000000000 DUP2 MSTORE PUSH1 0x4 ADD PUSH2 0x33A7 SWAP1 PUSH2 0x4F1E JUMP JUMPDEST PUSH1 0x40 MLOAD DUP1 SWAP2 SUB SWAP1 REVERT JUMPDEST DUP3 PUSH1 0x2 ADD PUSH0 SWAP1 SLOAD SWAP1 PUSH2 0x100 EXP SWAP1 DIV PUSH20 0xFFFFFFFFFFFFFFFFFFFFFFFFFFFFFFFFFFFFFFFF AND PUSH20 0xFFFFFFFFFFFFFFFFFFFFFFFFFFFFFFFFFFFFFFFF AND DUP5 PUSH1 0x40 MLOAD PUSH2 0x33F8 SWAP2 SWAP1 PUSH2 0x3F14 JUMP JUMPDEST PUSH1 0x40 MLOAD DUP1 SWAP2 SUB SWAP1 KECCAK256 PUSH32 0x560B3940C32AB1A6BDEC774D53CFE132E1991D2B88C907101FE3575AA62F31E DUP4 DUP6 TIMESTAMP PUSH1 0x40 MLOAD PUSH2 0x3433 SWAP4 SWAP3 SWAP2 SWAP1 PUSH2 0x4F3C JUMP JUMPDEST PUSH1 0x40 MLOAD DUP1 SWAP2 SUB SWAP1 LOG3 POP POP POP POP JUMP JUMPDEST PUSH2 0x3449 PUSH2 0x35CF JUMP JUMPDEST PUSH0 PUSH1 0x1 PUSH1 0x14 PUSH2 0x100 EXP DUP2 SLOAD DUP2 PUSH1 0xFF MUL NOT AND SWAP1 DUP4 ISZERO ISZERO MUL OR SWAP1 SSTORE POP PUSH32 0x5DB9EE0A495BF2E6FF9C91A7834C1BA4FDD244A5E8AA4E537BD38AEAE4B073AA PUSH2 0x348C PUSH2 0x35C8 JUMP JUMPDEST PUSH1 0x40 MLOAD PUSH2 0x3499 SWAP2 SWAP1 PUSH2 0x3A85 JUMP JUMPDEST PUSH1 0x40 MLOAD DUP1 SWAP2 SUB SWAP1 LOG1 JUMP JUMPDEST PUSH0 PUSH1 0x1 PUSH0 SWAP1 SLOAD SWAP1 PUSH2 0x100 EXP SWAP1 DIV PUSH20 0xFFFFFFFFFFFFFFFFFFFFFFFFFFFFFFFFFFFFFFFF AND SWAP1 POP DUP2 PUSH1 0x1 PUSH0 PUSH2 0x100 EXP DUP2 SLOAD DUP2 PUSH20 0xFFFFFFFFFFFFFFFFFFFFFFFFFFFFFFFFFFFFFFFF MUL NOT AND SWAP1 DUP4 PUSH20 0xFFFFFFFFFFFFFFFFFFFFFFFFFFFFFFFFFFFFFFFF AND MUL OR SWAP1 SSTORE POP DUP2 PUSH20 0xFFFFFFFFFFFFFFFFFFFFFFFFFFFFFFFFFFFFFFFF AND DUP2 PUSH20 0xFFFFFFFFFFFFFFFFFFFFFFFFFFFFFFFFFFFFFFFF AND PUSH32 0x8BE0079C531659141344CD1FD0A4F28419497F9722A3DAAFE3B4186F6B6457E0 PUSH1 0x40 MLOAD PUSH1 0x40 MLOAD DUP1 SWAP2 SUB SWAP1 LOG3 POP POP JUMP JUMPDEST PUSH2 0x356E PUSH2 0x300D JUMP JUMPDEST PUSH1 0x1 DUP1 PUSH1 0x14 PUSH2 0x100 EXP DUP2 SLOAD DUP2 PUSH1 0xFF MUL NOT AND SWAP1 DUP4 ISZERO ISZERO MUL OR SWAP1 SSTORE POP PUSH32 0x62E78CEA01BEE320CD4E420270B5EA74000D11B0C9F74754EBDBFC544B05A258 PUSH2 0x35B1 PUSH2 0x35C8 JUMP JUMPDEST PUSH1 0x40 MLOAD PUSH2 0x35BE SWAP2 SWAP1 PUSH2 0x3A85 JUMP JUMPDEST PUSH1 0x40 MLOAD DUP1 SWAP2 SUB SWAP1 LOG1 JUMP JUMPDEST PUSH0 CALLER SWAP1 POP SWAP1 JUMP JUMPDEST PUSH2 0x35D7 PUSH2 0x173A JUMP JUMPDEST PUSH2 0x3616 JUMPI PUSH1 0x40 MLOAD PUSH32 0x8C379A000000000000000000000000000000000000000000000000000000000 DUP2 MSTORE PUSH1 0x4 ADD PUSH2 0x360D SWAP1 PUSH2 0x4FBB JUMP JUMPDEST PUSH1 0x40 MLOAD DUP1 SWAP2 SUB SWAP1 REVERT JUMPDEST JUMP JUMPDEST PUSH0 PUSH1 0x40 MLOAD SWAP1 POP SWAP1 JUMP JUMPDEST PUSH0 PUSH0 REVERT JUMPDEST PUSH0 PUSH0 REVERT JUMPDEST PUSH0 PUSH0 REVERT JUMPDEST PUSH0 PUSH0 REVERT JUMPDEST PUSH0 PUSH1 0x1F NOT PUSH1 0x1F DUP4 ADD AND SWAP1 POP SWAP2 SWAP1 POP JUMP JUMPDEST PUSH32 0x4E487B7100000000000000000000000000000000000000000000000000000000 PUSH0 MSTORE PUSH1 0x41 PUSH1 0x4 MSTORE PUSH1 0x24 PUSH0 REVERT JUMPDEST PUSH2 0x3677 DUP3 PUSH2 0x3631 JUMP JUMPDEST DUP2 ADD DUP2 DUP2 LT PUSH8 0xFFFFFFFFFFFFFFFF DUP3 GT OR ISZERO PUSH2 0x3696 JUMPI PUSH2 0x3695 PUSH2 0x3641 JUMP JUMPDEST JUMPDEST DUP1 PUSH1 0x40 MSTORE POP POP POP JUMP JUMPDEST PUSH0 PUSH2 0x36A8 PUSH2 0x3618 JUMP JUMPDEST SWAP1 POP PUSH2 0x36B4 DUP3 DUP3 PUSH2 0x366E JUMP JUMPDEST SWAP2 SWAP1 POP JUMP JUMPDEST PUSH0 PUSH8 0xFFFFFFFFFFFFFFFF DUP3 GT ISZERO PUSH2 0x36D3 JUMPI PUSH2 0x36D2 PUSH2 0x3641 JUMP JUMPDEST JUMPDEST PUSH2 0x36DC DUP3 PUSH2 0x3631 JUMP JUMPDEST SWAP1 POP PUSH1 0x20 DUP2 ADD SWAP1 POP SWAP2 SWAP1 POP JUMP JUMPDEST DUP3 DUP2 DUP4 CALLDATACOPY PUSH0 DUP4 DUP4 ADD MSTORE POP POP POP JUMP JUMPDEST PUSH0 PUSH2 0x3709 PUSH2 0x3704 DUP5 PUSH2 0x36B9 JUMP JUMPDEST PUSH2 0x369F JUMP JUMPDEST SWAP1 POP DUP3 DUP2 MSTORE PUSH1 0x20 DUP2 ADD DUP5 DUP5 DUP5 ADD GT ISZERO PUSH2 0x3725 JUMPI PUSH2 0x3724 PUSH2 0x362D JUMP JUMPDEST JUMPDEST PUSH2 0x3730 DUP5 DUP3 DUP6 PUSH2 0x36E9 JUMP JUMPDEST POP SWAP4 SWAP3 POP POP POP JUMP JUMPDEST PUSH0 DUP3 PUSH1 0x1F DUP4 ADD SLT PUSH2 0x374C JUMPI PUSH2 0x374B PUSH2 0x3629 JUMP JUMPDEST JUMPDEST DUP2 CALLDATALOAD PUSH2 0x375C DUP5 DUP3 PUSH1 0x20 DUP7 ADD PUSH2 0x36F7 JUMP JUMPDEST SWAP2 POP POP SWAP3 SWAP2 POP POP JUMP JUMPDEST PUSH0 PUSH20 0xFFFFFFFFFFFFFFFFFFFFFFFFFFFFFFFFFFFFFFFF DUP3 AND SWAP1 POP SWAP2 SWAP1 POP JUMP JUMPDEST PUSH0 PUSH2 0x378E DUP3 PUSH2 0x3765 JUMP JUMPDEST SWAP1 POP SWAP2 SWAP1 POP JUMP JUMPDEST PUSH2 0x379E DUP2 PUSH2 0x3784 JUMP JUMPDEST DUP2 EQ PUSH2 0x37A8 JUMPI PUSH0 PUSH0 REVERT JUMPDEST POP JUMP JUMPDEST PUSH0 DUP2 CALLDATALOAD SWAP1 POP PUSH2 0x37B9 DUP2 PUSH2 0x3795 JUMP JUMPDEST SWAP3 SWAP2 POP POP JUMP JUMPDEST PUSH0 DUP2 SWAP1 POP SWAP2 SWAP1 POP JUMP JUMPDEST PUSH2 0x37D1 DUP2 PUSH2 0x37BF JUMP JUMPDEST DUP2 EQ PUSH2 0x37DB JUMPI PUSH0 PUSH0 REVERT JUMPDEST POP JUMP JUMPDEST PUSH0 DUP2 CALLDATALOAD SWAP1 POP PUSH2 0x37EC DUP2 PUSH2 0x37C8 JUMP JUMPDEST SWAP3 SWAP2 POP POP JUMP JUMPDEST PUSH0 PUSH0 PUSH0 PUSH0 PUSH0 PUSH1 0xA0 DUP7 DUP9 SUB SLT ISZERO PUSH2 0x380B JUMPI PUSH2 0x380A PUSH2 0x3621 JUMP JUMPDEST JUMPDEST PUSH0 DUP7 ADD CALLDATALOAD PUSH8 0xFFFFFFFFFFFFFFFF DUP2 GT ISZERO PUSH2 0x3828 JUMPI PUSH2 0x3827 PUSH2 0x3625 JUMP JUMPDEST JUMPDEST PUSH2 0x3834 DUP9 DUP3 DUP10 ADD PUSH2 0x3738 JUMP JUMPDEST SWAP6 POP POP PUSH1 0x20 PUSH2 0x3845 DUP9 DUP3 DUP10 ADD PUSH2 0x37AB JUMP JUMPDEST SWAP5 POP POP PUSH1 0x40 PUSH2 0x3856 DUP9 DUP3 DUP10 ADD PUSH2 0x37DE JUMP JUMPDEST SWAP4 POP POP PUSH1 0x60 PUSH2 0x3867 DUP9 DUP3 DUP10 ADD PUSH2 0x37DE JUMP JUMPDEST SWAP3 POP POP PUSH1 0x80 DUP7 ADD CALLDATALOAD PUSH8 0xFFFFFFFFFFFFFFFF DUP2 GT ISZERO PUSH2 0x3888 JUMPI PUSH2 0x3887 PUSH2 0x3625 JUMP JUMPDEST JUMPDEST PUSH2 0x3894 DUP9 DUP3 DUP10 ADD PUSH2 0x3738 JUMP JUMPDEST SWAP2 POP POP SWAP3 SWAP6 POP SWAP3 SWAP6 SWAP1 SWAP4 POP JUMP JUMPDEST PUSH0 PUSH1 0x20 DUP3 DUP5 SUB SLT ISZERO PUSH2 0x38B6 JUMPI PUSH2 0x38B5 PUSH2 0x3621 JUMP JUMPDEST JUMPDEST PUSH0 DUP3 ADD CALLDATALOAD PUSH8 0xFFFFFFFFFFFFFFFF DUP2 GT ISZERO PUSH2 0x38D3 JUMPI PUSH2 0x38D2 PUSH2 0x3625 JUMP JUMPDEST JUMPDEST PUSH2 0x38DF DUP5 DUP3 DUP6 ADD PUSH2 0x3738 JUMP JUMPDEST SWAP2 POP POP SWAP3 SWAP2 POP POP JUMP JUMPDEST PUSH2 0x38F1 DUP2 PUSH2 0x37BF JUMP JUMPDEST DUP3 MSTORE POP POP JUMP JUMPDEST PUSH0 PUSH1 0x20 DUP3 ADD SWAP1 POP PUSH2 0x390A PUSH0 DUP4 ADD DUP5 PUSH2 0x38E8 JUMP JUMPDEST SWAP3 SWAP2 POP POP JUMP JUMPDEST PUSH0 PUSH1 0x20 DUP3 DUP5 SUB SLT ISZERO PUSH2 0x3925 JUMPI PUSH2 0x3924 PUSH2 0x3621 JUMP JUMPDEST JUMPDEST PUSH0 PUSH2 0x3932 DUP5 DUP3 DUP6 ADD PUSH2 0x37AB JUMP JUMPDEST SWAP2 POP POP SWAP3 SWAP2 POP POP JUMP JUMPDEST PUSH0 DUP2 MLOAD SWAP1 POP SWAP2 SWAP1 POP JUMP JUMPDEST PUSH0 DUP3 DUP3 MSTORE PUSH1 0x20 DUP3 ADD SWAP1 POP SWAP3 SWAP2 POP POP JUMP JUMPDEST PUSH0 DUP2 SWAP1 POP PUSH1 0x20 DUP3 ADD SWAP1 POP SWAP2 SWAP1 POP JUMP JUMPDEST PUSH0 DUP2 MLOAD SWAP1 POP SWAP2 SWAP1 POP JUMP JUMPDEST PUSH0 DUP3 DUP3 MSTORE PUSH1 0x20 DUP3 ADD SWAP1 POP SWAP3 SWAP2 POP POP JUMP JUMPDEST DUP3 DUP2 DUP4 MCOPY PUSH0 DUP4 DUP4 ADD MSTORE POP POP POP JUMP JUMPDEST PUSH0 PUSH2 0x3996 DUP3 PUSH2 0x3964 JUMP JUMPDEST PUSH2 0x39A0 DUP2 DUP6 PUSH2 0x396E JUMP JUMPDEST SWAP4 POP PUSH2 0x39B0 DUP2 DUP6 PUSH1 0x20 DUP7 ADD PUSH2 0x397E JUMP JUMPDEST PUSH2 0x39B9 DUP2 PUSH2 0x3631 JUMP JUMPDEST DUP5 ADD SWAP2 POP POP SWAP3 SWAP2 POP POP JUMP JUMPDEST PUSH0 PUSH2 0x39CF DUP4 DUP4 PUSH2 0x398C JUMP JUMPDEST SWAP1 POP SWAP3 SWAP2 POP POP JUMP JUMPDEST PUSH0 PUSH1 0x20 DUP3 ADD SWAP1 POP SWAP2 SWAP1 POP JUMP JUMPDEST PUSH0 PUSH2 0x39ED DUP3 PUSH2 0x393B JUMP JUMPDEST PUSH2 0x39F7 DUP2 DUP6 PUSH2 0x3945 JUMP JUMPDEST SWAP4 POP DUP4 PUSH1 0x20 DUP3 MUL DUP6 ADD PUSH2 0x3A09 DUP6 PUSH2 0x3955 JUMP JUMPDEST DUP1 PUSH0 JUMPDEST DUP6 DUP2 LT ISZERO PUSH2 0x3A44 JUMPI DUP5 DUP5 SUB DUP10 MSTORE DUP2 MLOAD PUSH2 0x3A25 DUP6 DUP3 PUSH2 0x39C4 JUMP JUMPDEST SWAP5 POP PUSH2 0x3A30 DUP4 PUSH2 0x39D7 JUMP JUMPDEST SWAP3 POP PUSH1 0x20 DUP11 ADD SWAP10 POP POP PUSH1 0x1 DUP2 ADD SWAP1 POP PUSH2 0x3A0C JUMP JUMPDEST POP DUP3 SWAP8 POP DUP8 SWAP6 POP POP POP POP POP POP SWAP3 SWAP2 POP POP JUMP JUMPDEST PUSH0 PUSH1 0x20 DUP3 ADD SWAP1 POP DUP2 DUP2 SUB PUSH0 DUP4 ADD MSTORE PUSH2 0x3A6E DUP2 DUP5 PUSH2 0x39E3 JUMP JUMPDEST SWAP1 POP SWAP3 SWAP2 POP POP JUMP JUMPDEST PUSH2 0x3A7F DUP2 PUSH2 0x3784 JUMP JUMPDEST DUP3 MSTORE POP POP JUMP JUMPDEST PUSH0 PUSH1 0x20 DUP3 ADD SWAP1 POP PUSH2 0x3A98 PUSH0 DUP4 ADD DUP5 PUSH2 0x3A76 JUMP JUMPDEST SWAP3 SWAP2 POP POP JUMP JUMPDEST PUSH0 PUSH0 PUSH1 0x40 DUP4 DUP6 SUB SLT ISZERO PUSH2 0x3AB4 JUMPI PUSH2 0x3AB3 PUSH2 0x3621 JUMP JUMPDEST JUMPDEST PUSH0 PUSH2 0x3AC1 DUP6 DUP3 DUP7 ADD PUSH2 0x37AB JUMP JUMPDEST SWAP3 POP POP PUSH1 0x20 PUSH2 0x3AD2 DUP6 DUP3 DUP7 ADD PUSH2 0x37DE JUMP JUMPDEST SWAP2 POP POP SWAP3 POP SWAP3 SWAP1 POP JUMP JUMPDEST PUSH0 DUP3 DUP3 MSTORE PUSH1 0x20 DUP3 ADD SWAP1 POP SWAP3 SWAP2 POP POP JUMP JUMPDEST PUSH0 PUSH2 0x3AF6 DUP3 PUSH2 0x3964 JUMP JUMPDEST PUSH2 0x3B00 DUP2 DUP6 PUSH2 0x3ADC JUMP JUMPDEST SWAP4 POP PUSH2 0x3B10 DUP2 DUP6 PUSH1 0x20 DUP7 ADD PUSH2 0x397E JUMP JUMPDEST PUSH2 0x3B19 DUP2 PUSH2 0x3631 JUMP JUMPDEST DUP5 ADD SWAP2 POP POP SWAP3 SWAP2 POP POP JUMP JUMPDEST PUSH0 PUSH1 0x20 DUP3 ADD SWAP1 POP DUP2 DUP2 SUB PUSH0 DUP4 ADD MSTORE PUSH2 0x3B3C DUP2 DUP5 PUSH2 0x3AEC JUMP JUMPDEST SWAP1 POP SWAP3 SWAP2 POP POP JUMP JUMPDEST PUSH0 DUP2 ISZERO ISZERO SWAP1 POP SWAP2 SWAP1 POP JUMP JUMPDEST PUSH2 0x3B58 DUP2 PUSH2 0x3B44 JUMP JUMPDEST DUP3 MSTORE POP POP JUMP JUMPDEST PUSH0 PUSH1 0x20 DUP3 ADD SWAP1 POP PUSH2 0x3B71 PUSH0 DUP4 ADD DUP5 PUSH2 0x3B4F JUMP JUMPDEST SWAP3 SWAP2 POP POP JUMP JUMPDEST PUSH0 PUSH0 PUSH1 0x40 DUP4 DUP6 SUB SLT ISZERO PUSH2 0x3B8D JUMPI PUSH2 0x3B8C PUSH2 0x3621 JUMP JUMPDEST JUMPDEST PUSH0 DUP4 ADD CALLDATALOAD PUSH8 0xFFFFFFFFFFFFFFFF DUP2 GT ISZERO PUSH2 0x3BAA JUMPI PUSH2 0x3BA9 PUSH2 0x3625 JUMP JUMPDEST JUMPDEST PUSH2 0x3BB6 DUP6 DUP3 DUP7 ADD PUSH2 0x3738 JUMP JUMPDEST SWAP3 POP POP PUSH1 0x20 DUP4 ADD CALLDATALOAD PUSH8 0xFFFFFFFFFFFFFFFF DUP2 GT ISZERO PUSH2 0x3BD7 JUMPI PUSH2 0x3BD6 PUSH2 0x3625 JUMP JUMPDEST JUMPDEST PUSH2 0x3BE3 DUP6 DUP3 DUP7 ADD PUSH2 0x3738 JUMP JUMPDEST SWAP2 POP POP SWAP3 POP SWAP3 SWAP1 POP JUMP JUMPDEST PUSH32 0x4E487B7100000000000000000000000000000000000000000000000000000000 PUSH0 MSTORE PUSH1 0x21 PUSH1 0x4 MSTORE PUSH1 0x24 PUSH0 REVERT JUMPDEST PUSH1 0x6 DUP2 LT PUSH2 0x3C2B JUMPI PUSH2 0x3C2A PUSH2 0x3BED JUMP JUMPDEST JUMPDEST POP JUMP JUMPDEST PUSH0 DUP2 SWAP1 POP PUSH2 0x3C3B DUP3 PUSH2 0x3C1A JUMP JUMPDEST SWAP2 SWAP1 POP JUMP JUMPDEST PUSH0 PUSH2 0x3C4A DUP3 PUSH2 0x3C2E JUMP JUMPDEST SWAP1 POP SWAP2 SWAP1 POP JUMP JUMPDEST PUSH2 0x3C5A DUP2 PUSH2 0x3C40 JUMP JUMPDEST DUP3 MSTORE POP POP JUMP JUMPDEST PUSH0 PUSH2 0x180 DUP3 ADD SWAP1 POP DUP2 DUP2 SUB PUSH0 DUP4 ADD MSTORE PUSH2 0x3C79 DUP2 DUP16 PUSH2 0x3AEC JUMP JUMPDEST SWAP1 POP PUSH2 0x3C88 PUSH1 0x20 DUP4 ADD DUP15 PUSH2 0x3A76 JUMP JUMPDEST PUSH2 0x3C95 PUSH1 0x40 DUP4 ADD DUP14 PUSH2 0x3A76 JUMP JUMPDEST PUSH2 0x3CA2 PUSH1 0x60 DUP4 ADD DUP13 PUSH2 0x38E8 JUMP JUMPDEST PUSH2 0x3CAF PUSH1 0x80 DUP4 ADD DUP12 PUSH2 0x38E8 JUMP JUMPDEST DUP2 DUP2 SUB PUSH1 0xA0 DUP4 ADD MSTORE PUSH2 0x3CC1 DUP2 DUP11 PUSH2 0x3AEC JUMP JUMPDEST SWAP1 POP PUSH2 0x3CD0 PUSH1 0xC0 DUP4 ADD DUP10 PUSH2 0x3C51 JUMP JUMPDEST PUSH2 0x3CDD PUSH1 0xE0 DUP4 ADD DUP9 PUSH2 0x38E8 JUMP JUMPDEST PUSH2 0x3CEB PUSH2 0x100 DUP4 ADD DUP8 PUSH2 0x38E8 JUMP JUMPDEST PUSH2 0x3CF9 PUSH2 0x120 DUP4 ADD DUP7 PUSH2 0x38E8 JUMP JUMPDEST DUP2 DUP2 SUB PUSH2 0x140 DUP4 ADD MSTORE PUSH2 0x3D0C DUP2 DUP6 PUSH2 0x3AEC JUMP JUMPDEST SWAP1 POP PUSH2 0x3D1C PUSH2 0x160 DUP4 ADD DUP5 PUSH2 0x3B4F JUMP JUMPDEST SWAP14 SWAP13 POP POP POP POP POP POP POP POP POP POP POP POP POP JUMP JUMPDEST PUSH0 PUSH1 0x20 DUP3 DUP5 SUB SLT ISZERO PUSH2 0x3D42 JUMPI PUSH2 0x3D41 PUSH2 0x3621 JUMP JUMPDEST JUMPDEST PUSH0 PUSH2 0x3D4F DUP5 DUP3 DUP6 ADD PUSH2 0x37DE JUMP JUMPDEST SWAP2 POP POP SWAP3 SWAP2 POP POP JUMP JUMPDEST PUSH2 0x3D61 DUP2 PUSH2 0x3B44 JUMP JUMPDEST DUP2 EQ PUSH2 0x3D6B JUMPI PUSH0 PUSH0 REVERT JUMPDEST POP JUMP JUMPDEST PUSH0 DUP2 CALLDATALOAD SWAP1 POP PUSH2 0x3D7C DUP2 PUSH2 0x3D58 JUMP JUMPDEST SWAP3 SWAP2 POP POP JUMP JUMPDEST PUSH0 PUSH0 PUSH1 0x40 DUP4 DUP6 SUB SLT ISZERO PUSH2 0x3D98 JUMPI PUSH2 0x3D97 PUSH2 0x3621 JUMP JUMPDEST JUMPDEST PUSH0 DUP4 ADD CALLDATALOAD PUSH8 0xFFFFFFFFFFFFFFFF DUP2 GT ISZERO PUSH2 0x3DB5 JUMPI PUSH2 0x3DB4 PUSH2 0x3625 JUMP JUMPDEST JUMPDEST PUSH2 0x3DC1 DUP6 DUP3 DUP7 ADD PUSH2 0x3738 JUMP JUMPDEST SWAP3 POP POP PUSH1 0x20 PUSH2 0x3DD2 DUP6 DUP3 DUP7 ADD PUSH2 0x3D6E JUMP JUMPDEST SWAP2 POP POP SWAP3 POP SWAP3 SWAP1 POP JUMP JUMPDEST PUSH0 DUP2 SWAP1 POP SWAP2 SWAP1 POP JUMP JUMPDEST PUSH0 PUSH2 0x3DFF PUSH2 0x3DFA PUSH2 0x3DF5 DUP5 PUSH2 0x3765 JUMP JUMPDEST PUSH2 0x3DDC JUMP JUMPDEST PUSH2 0x3765 JUMP JUMPDEST SWAP1 POP SWAP2 SWAP1 POP JUMP JUMPDEST PUSH0 PUSH2 0x3E10 DUP3 PUSH2 0x3DE5 JUMP JUMPDEST SWAP1 POP SWAP2 SWAP1 POP JUMP JUMPDEST PUSH0 PUSH2 0x3E21 DUP3 PUSH2 0x3E06 JUMP JUMPDEST SWAP1 POP SWAP2 SWAP1 POP JUMP JUMPDEST PUSH2 0x3E31 DUP2 PUSH2 0x3E17 JUMP JUMPDEST DUP3 MSTORE POP POP JUMP JUMPDEST PUSH0 PUSH1 0x20 DUP3 ADD SWAP1 POP PUSH2 0x3E4A PUSH0 DUP4 ADD DUP5 PUSH2 0x3E28 JUMP JUMPDEST SWAP3 SWAP2 POP POP JUMP JUMPDEST PUSH0 PUSH2 0x100 DUP3 ADD SWAP1 POP PUSH2 0x3E64 PUSH0 DUP4 ADD DUP12 PUSH2 0x3A76 JUMP JUMPDEST PUSH2 0x3E71 PUSH1 0x20 DUP4 ADD DUP11 PUSH2 0x3A76 JUMP JUMPDEST PUSH2 0x3E7E PUSH1 0x40 DUP4 ADD DUP10 PUSH2 0x38E8 JUMP JUMPDEST PUSH2 0x3E8B PUSH1 0x60 DUP4 ADD DUP9 PUSH2 0x38E8 JUMP JUMPDEST PUSH2 0x3E98 PUSH1 0x80 DUP4 ADD DUP8 PUSH2 0x3C51 JUMP JUMPDEST DUP2 DUP2 SUB PUSH1 0xA0 DUP4 ADD MSTORE PUSH2 0x3EAA DUP2 DUP7 PUSH2 0x3AEC JUMP JUMPDEST SWAP1 POP DUP2 DUP2 SUB PUSH1 0xC0 DUP4 ADD MSTORE PUSH2 0x3EBE DUP2 DUP6 PUSH2 0x3AEC JUMP JUMPDEST SWAP1 POP PUSH2 0x3ECD PUSH1 0xE0 DUP4 ADD DUP5 PUSH2 0x38E8 JUMP JUMPDEST SWAP10 SWAP9 POP POP POP POP POP POP POP POP POP JUMP JUMPDEST PUSH0 DUP2 SWAP1 POP SWAP3 SWAP2 POP POP JUMP JUMPDEST PUSH0 PUSH2 0x3EEE DUP3 PUSH2 0x3964 JUMP JUMPDEST PUSH2 0x3EF8 DUP2 DUP6 PUSH2 0x3EDA JUMP JUMPDEST SWAP4 POP PUSH2 0x3F08 DUP2 DUP6 PUSH1 0x20 DUP7 ADD PUSH2 0x397E JUMP JUMPDEST DUP1 DUP5 ADD SWAP2 POP POP SWAP3 SWAP2 POP POP JUMP JUMPDEST PUSH0 PUSH2 0x3F1F DUP3 DUP5 PUSH2 0x3EE4 JUMP JUMPDEST SWAP2 POP DUP2 SWAP1 POP SWAP3 SWAP2 POP POP JUMP JUMPDEST PUSH32 0x4465616C20494420616C72656164792065786973747300000000000000000000 PUSH0 DUP3 ADD MSTORE POP JUMP JUMPDEST PUSH0 PUSH2 0x3F5E PUSH1 0x16 DUP4 PUSH2 0x3ADC JUMP JUMPDEST SWAP2 POP PUSH2 0x3F69 DUP3 PUSH2 0x3F2A JUMP JUMPDEST PUSH1 0x20 DUP3 ADD SWAP1 POP SWAP2 SWAP1 POP JUMP JUMPDEST PUSH0 PUSH1 0x20 DUP3 ADD SWAP1 POP DUP2 DUP2 SUB PUSH0 DUP4 ADD MSTORE PUSH2 0x3F8B DUP2 PUSH2 0x3F52 JUMP JUMPDEST SWAP1 POP SWAP2 SWAP1 POP JUMP JUMPDEST PUSH32 0x496E76616C69642063726561746F722061646472657373000000000000000000 PUSH0 DUP3 ADD MSTORE POP JUMP JUMPDEST PUSH0 PUSH2 0x3FC6 PUSH1 0x17 DUP4 PUSH2 0x3ADC JUMP JUMPDEST SWAP2 POP PUSH2 0x3FD1 DUP3 PUSH2 0x3F92 JUMP JUMPDEST PUSH1 0x20 DUP3 ADD SWAP1 POP SWAP2 SWAP1 POP JUMP JUMPDEST PUSH0 PUSH1 0x20 DUP3 ADD SWAP1 POP DUP2 DUP2 SUB PUSH0 DUP4 ADD MSTORE PUSH2 0x3FF3 DUP2 PUSH2 0x3FBA JUMP JUMPDEST SWAP1 POP SWAP2 SWAP1 POP JUMP JUMPDEST PUSH32 0x43726561746F722063616E6E6F74206265206272616E64000000000000000000 PUSH0 DUP3 ADD MSTORE POP JUMP JUMPDEST PUSH0 PUSH2 0x402E PUSH1 0x17 DUP4 PUSH2 0x3ADC JUMP JUMPDEST SWAP2 POP PUSH2 0x4039 DUP3 PUSH2 0x3FFA JUMP JUMPDEST PUSH1 0x20 DUP3 ADD SWAP1 POP SWAP2 SWAP1 POP JUMP JUMPDEST PUSH0 PUSH1 0x20 DUP3 ADD SWAP1 POP DUP2 DUP2 SUB PUSH0 DUP4 ADD MSTORE PUSH2 0x405B DUP2 PUSH2 0x4022 JUMP JUMPDEST SWAP1 POP SWAP2 SWAP1 POP JUMP JUMPDEST PUSH32 0x416D6F756E74206D7573742062652067726561746572207468616E2030000000 PUSH0 DUP3 ADD MSTORE POP JUMP JUMPDEST PUSH0 PUSH2 0x4096 PUSH1 0x1D DUP4 PUSH2 0x3ADC JUMP JUMPDEST SWAP2 POP PUSH2 0x40A1 DUP3 PUSH2 0x4062 JUMP JUMPDEST PUSH1 0x20 DUP3 ADD SWAP1 POP SWAP2 SWAP1 POP JUMP JUMPDEST PUSH0 PUSH1 0x20 DUP3 ADD SWAP1 POP DUP2 DUP2 SUB PUSH0 DUP4 ADD MSTORE PUSH2 0x40C3 DUP2 PUSH2 0x408A JUMP JUMPDEST SWAP1 POP SWAP2 SWAP1 POP JUMP JUMPDEST PUSH32 0x446561646C696E65206D75737420626520696E20667574757265000000000000 PUSH0 DUP3 ADD MSTORE POP JUMP JUMPDEST PUSH0 PUSH2 0x40FE PUSH1 0x1A DUP4 PUSH2 0x3ADC JUMP JUMPDEST SWAP2 POP PUSH2 0x4109 DUP3 PUSH2 0x40CA JUMP JUMPDEST PUSH1 0x20 DUP3 ADD SWAP1 POP SWAP2 SWAP1 POP JUMP JUMPDEST PUSH0 PUSH1 0x20 DUP3 ADD SWAP1 POP DUP2 DUP2 SUB PUSH0 DUP4 ADD MSTORE PUSH2 0x412B DUP2 PUSH2 0x40F2 JUMP JUMPDEST SWAP1 POP SWAP2 SWAP1 POP JUMP JUMPDEST PUSH32 0x4272696566206861736820726571756972656400000000000000000000000000 PUSH0 DUP3 ADD MSTORE POP JUMP JUMPDEST PUSH0 PUSH2 0x4166 PUSH1 0x13 DUP4 PUSH2 0x3ADC JUMP JUMPDEST SWAP2 POP PUSH2 0x4171 DUP3 PUSH2 0x4132 JUMP JUMPDEST PUSH1 0x20 DUP3 ADD SWAP1 POP SWAP2 SWAP1 POP JUMP JUMPDEST PUSH0 PUSH1 0x20 DUP3 ADD SWAP1 POP DUP2 DUP2 SUB PUSH0 DUP4 ADD MSTORE PUSH2 0x4193 DUP2 PUSH2 0x415A JUMP JUMPDEST SWAP1 POP SWAP2 SWAP1 POP JUMP JUMPDEST PUSH32 0x4E487B7100000000000000000000000000000000000000000000000000000000 PUSH0 MSTORE PUSH1 0x22 PUSH1 0x4 MSTORE PUSH1 0x24 PUSH0 REVERT JUMPDEST PUSH0 PUSH1 0x2 DUP3 DIV SWAP1 POP PUSH1 0x1 DUP3 AND DUP1 PUSH2 0x41DE JUMPI PUSH1 0x7F DUP3 AND SWAP2 POP JUMPDEST PUSH1 0x20 DUP3 LT DUP2 SUB PUSH2 0x41F1 JUMPI PUSH2 0x41F0 PUSH2 0x419A JUMP JUMPDEST JUMPDEST POP SWAP2 SWAP1 POP JUMP JUMPDEST PUSH0 DUP2 SWAP1 POP DUP2 PUSH0 MSTORE PUSH1 0x20 PUSH0 KECCAK256 SWAP1 POP SWAP2 SWAP1 POP JUMP JUMPDEST PUSH0 PUSH1 0x20 PUSH1 0x1F DUP4 ADD DIV SWAP1 POP SWAP2 SWAP1 POP JUMP JUMPDEST PUSH0 DUP3 DUP3 SHL SWAP1 POP SWAP3 SWAP2 POP POP JUMP JUMPDEST PUSH0 PUSH1 0x8 DUP4 MUL PUSH2 0x4253 PUSH32 0xFFFFFFFFFFFFFFFFFFFFFFFFFFFFFFFFFFFFFFFFFFFFFFFFFFFFFFFFFFFFFFFF DUP3 PUSH2 0x4218 JUMP JUMPDEST PUSH2 0x425D DUP7 DUP4 PUSH2 0x4218 JUMP JUMPDEST SWAP6 POP DUP1 NOT DUP5 AND SWAP4 POP DUP1 DUP7 AND DUP5 OR SWAP3 POP POP POP SWAP4 SWAP3 POP POP POP JUMP JUMPDEST PUSH0 PUSH2 0x428F PUSH2 0x428A PUSH2 0x4285 DUP5 PUSH2 0x37BF JUMP JUMPDEST PUSH2 0x3DDC JUMP JUMPDEST PUSH2 0x37BF JUMP JUMPDEST SWAP1 POP SWAP2 SWAP1 POP JUMP JUMPDEST PUSH0 DUP2 SWAP1 POP SWAP2 SWAP1 POP JUMP JUMPDEST PUSH2 0x42A8 DUP4 PUSH2 0x4275 JUMP JUMPDEST PUSH2 0x42BC PUSH2 0x42B4 DUP3 PUSH2 0x4296 JUMP JUMPDEST DUP5 DUP5 SLOAD PUSH2 0x4224 JUMP JUMPDEST DUP3 SSTORE POP POP POP POP JUMP JUMPDEST PUSH0 PUSH0 SWAP1 POP SWAP1 JUMP JUMPDEST PUSH2 0x42D3 PUSH2 0x42C4 JUMP JUMPDEST PUSH2 0x42DE DUP2 DUP5 DUP5 PUSH2 0x429F JUMP JUMPDEST POP POP POP JUMP JUMPDEST JUMPDEST DUP2 DUP2 LT ISZERO PUSH2 0x4301 JUMPI PUSH2 0x42F6 PUSH0 DUP3 PUSH2 0x42CB JUMP JUMPDEST PUSH1 0x1 DUP2 ADD SWAP1 POP PUSH2 0x42E4 JUMP JUMPDEST POP POP JUMP JUMPDEST PUSH1 0x1F DUP3 GT ISZERO PUSH2 0x4346 JUMPI PUSH2 0x4317 DUP2 PUSH2 0x41F7 JUMP JUMPDEST PUSH2 0x4320 DUP5 PUSH2 0x4209 JUMP JUMPDEST DUP2 ADD PUSH1 0x20 DUP6 LT ISZERO PUSH2 0x432F JUMPI DUP2 SWAP1 POP JUMPDEST PUSH2 0x4343 PUSH2 0x433B DUP6 PUSH2 0x4209 JUMP JUMPDEST DUP4 ADD DUP3 PUSH2 0x42E3 JUMP JUMPDEST POP POP JUMPDEST POP POP POP JUMP JUMPDEST PUSH0 DUP3 DUP3 SHR SWAP1 POP SWAP3 SWAP2 POP POP JUMP JUMPDEST PUSH0 PUSH2 0x4366 PUSH0 NOT DUP5 PUSH1 0x8 MUL PUSH2 0x434B JUMP JUMPDEST NOT DUP1 DUP4 AND SWAP2 POP POP SWAP3 SWAP2 POP POP JUMP JUMPDEST PUSH0 PUSH2 0x437E DUP4 DUP4 PUSH2 0x4357 JUMP JUMPDEST SWAP2 POP DUP3 PUSH1 0x2 MUL DUP3 OR SWAP1 POP SWAP3 SWAP2 POP POP JUMP JUMPDEST PUSH2 0x4397 DUP3 PUSH2 0x3964 JUMP JUMPDEST PUSH8 0xFFFFFFFFFFFFFFFF DUP2 GT ISZERO PUSH2 0x43B0 JUMPI PUSH2 0x43AF PUSH2 0x3641 JUMP JUMPDEST JUMPDEST PUSH2 0x43BA DUP3 SLOAD PUSH2 0x41C7 JUMP JUMPDEST PUSH2 0x43C5 DUP3 DUP3 DUP6 PUSH2 0x4305 JUMP JUMPDEST PUSH0 PUSH1 0x20 SWAP1 POP PUSH1 0x1F DUP4 GT PUSH1 0x1 DUP2 EQ PUSH2 0x43F6 JUMPI PUSH0 DUP5 ISZERO PUSH2 0x43E4 JUMPI DUP3 DUP8 ADD MLOAD SWAP1 POP JUMPDEST PUSH2 0x43EE DUP6 DUP3 PUSH2 0x4373 JUMP JUMPDEST DUP7 SSTORE POP PUSH2 0x4455 JUMP JUMPDEST PUSH1 0x1F NOT DUP5 AND PUSH2 0x4404 DUP7 PUSH2 0x41F7 JUMP JUMPDEST PUSH0 JUMPDEST DUP3 DUP2 LT ISZERO PUSH2 0x442B JUMPI DUP5 DUP10 ADD MLOAD DUP3 SSTORE PUSH1 0x1 DUP3 ADD SWAP2 POP PUSH1 0x20 DUP6 ADD SWAP5 POP PUSH1 0x20 DUP2 ADD SWAP1 POP PUSH2 0x4406 JUMP JUMPDEST DUP7 DUP4 LT ISZERO PUSH2 0x4448 JUMPI DUP5 DUP10 ADD MLOAD PUSH2 0x4444 PUSH1 0x1F DUP10 AND DUP3 PUSH2 0x4357 JUMP JUMPDEST DUP4 SSTORE POP JUMPDEST PUSH1 0x1 PUSH1 0x2 DUP9 MUL ADD DUP9 SSTORE POP POP POP JUMPDEST POP POP POP POP POP POP JUMP JUMPDEST PUSH0 PUSH1 0x40 DUP3 ADD SWAP1 POP PUSH2 0x4470 PUSH0 DUP4 ADD DUP6 PUSH2 0x38E8 JUMP JUMPDEST PUSH2 0x447D PUSH1 0x20 DUP4 ADD DUP5 PUSH2 0x38E8 JUMP JUMPDEST SWAP4 SWAP3 POP POP POP JUMP JUMPDEST PUSH32 0x4465616C20646F6573206E6F7420657869737400000000000000000000000000 PUSH0 DUP3 ADD MSTORE POP JUMP JUMPDEST PUSH0 PUSH2 0x44B8 PUSH1 0x13 DUP4 PUSH2 0x3ADC JUMP JUMPDEST SWAP2 POP PUSH2 0x44C3 DUP3 PUSH2 0x4484 JUMP JUMPDEST PUSH1 0x20 DUP3 ADD SWAP1 POP SWAP2 SWAP1 POP JUMP JUMPDEST PUSH0 PUSH1 0x20 DUP3 ADD SWAP1 POP DUP2 DUP2 SUB PUSH0 DUP4 ADD MSTORE PUSH2 0x44E5 DUP2 PUSH2 0x44AC JUMP JUMPDEST SWAP1 POP SWAP2 SWAP1 POP JUMP JUMPDEST PUSH32 0x43616E6E6F742063616E63656C2074686973206465616C000000000000000000 PUSH0 DUP3 ADD MSTORE POP JUMP JUMPDEST PUSH0 PUSH2 0x4520 PUSH1 0x17 DUP4 PUSH2 0x3ADC JUMP JUMPDEST SWAP2 POP PUSH2 0x452B DUP3 PUSH2 0x44EC JUMP JUMPDEST PUSH1 0x20 DUP3 ADD SWAP1 POP SWAP2 SWAP1 POP JUMP JUMPDEST PUSH0 PUSH1 0x20 DUP3 ADD SWAP1 POP DUP2 DUP2 SUB PUSH0 DUP4 ADD MSTORE PUSH2 0x454D DUP2 PUSH2 0x4514 JUMP JUMPDEST SWAP1 POP SWAP2 SWAP1 POP JUMP JUMPDEST PUSH0 PUSH1 0x40 DUP3 ADD SWAP1 POP PUSH2 0x4567 PUSH0 DUP4 ADD DUP6 PUSH2 0x3A76 JUMP JUMPDEST PUSH2 0x4574 PUSH1 0x20 DUP4 ADD DUP5 PUSH2 0x38E8 JUMP JUMPDEST SWAP4 SWAP3 POP POP POP JUMP JUMPDEST PUSH0 DUP2 MLOAD SWAP1 POP PUSH2 0x4589 DUP2 PUSH2 0x3D58 JUMP JUMPDEST SWAP3 SWAP2 POP POP JUMP JUMPDEST PUSH0 PUSH1 0x20 DUP3 DUP5 SUB SLT ISZERO PUSH2 0x45A4 JUMPI PUSH2 0x45A3 PUSH2 0x3621 JUMP JUMPDEST JUMPDEST PUSH0 PUSH2 0x45B1 DUP5 DUP3 DUP6 ADD PUSH2 0x457B JUMP JUMPDEST SWAP2 POP POP SWAP3 SWAP2 POP POP JUMP JUMPDEST PUSH32 0x526566756E64206661696C656400000000000000000000000000000000000000 PUSH0 DUP3 ADD MSTORE POP JUMP JUMPDEST PUSH0 PUSH2 0x45EE PUSH1 0xD DUP4 PUSH2 0x3ADC JUMP JUMPDEST SWAP2 POP PUSH2 0x45F9 DUP3 PUSH2 0x45BA JUMP JUMPDEST PUSH1 0x20 DUP3 ADD SWAP1 POP SWAP2 SWAP1 POP JUMP JUMPDEST PUSH0 PUSH1 0x20 DUP3 ADD SWAP1 POP DUP2 DUP2 SUB PUSH0 DUP4 ADD MSTORE PUSH2 0x461B DUP2 PUSH2 0x45E2 JUMP JUMPDEST SWAP1 POP SWAP2 SWAP1 POP JUMP JUMPDEST PUSH32 0x4F6E6C79206272616E642063616E2063616C6C20746869730000000000000000 PUSH0 DUP3 ADD MSTORE POP JUMP JUMPDEST PUSH0 PUSH2 0x4656 PUSH1 0x18 DUP4 PUSH2 0x3ADC JUMP JUMPDEST SWAP2 POP PUSH2 0x4661 DUP3 PUSH2 0x4622 JUMP JUMPDEST PUSH1 0x20 DUP3 ADD SWAP1 POP SWAP2 SWAP1 POP JUMP JUMPDEST PUSH0 PUSH1 0x20 DUP3 ADD SWAP1 POP DUP2 DUP2 SUB PUSH0 DUP4 ADD MSTORE PUSH2 0x4683 DUP2 PUSH2 0x464A JUMP JUMPDEST SWAP1 POP SWAP2 SWAP1 POP JUMP JUMPDEST PUSH32 0x496E76616C6964206465616C2073746174757300000000000000000000000000 PUSH0 DUP3 ADD MSTORE POP JUMP JUMPDEST PUSH0 PUSH2 0x46BE PUSH1 0x13 DUP4 PUSH2 0x3ADC JUMP JUMPDEST SWAP2 POP PUSH2 0x46C9 DUP3 PUSH2 0x468A JUMP JUMPDEST PUSH1 0x20 DUP3 ADD SWAP1 POP SWAP2 SWAP1 POP JUMP JUMPDEST PUSH0 PUSH1 0x20 DUP3 ADD SWAP1 POP DUP2 DUP2 SUB PUSH0 DUP4 ADD MSTORE PUSH2 0x46EB DUP2 PUSH2 0x46B2 JUMP JUMPDEST SWAP1 POP SWAP2 SWAP1 POP JUMP JUMPDEST PUSH0 PUSH1 0x60 DUP3 ADD SWAP1 POP PUSH2 0x4705 PUSH0 DUP4 ADD DUP7 PUSH2 0x3A76 JUMP JUMPDEST PUSH2 0x4712 PUSH1 0x20 DUP4 ADD DUP6 PUSH2 0x3A76 JUMP JUMPDEST PUSH2 0x471F PUSH1 0x40 DUP4 ADD DUP5 PUSH2 0x38E8 JUMP JUMPDEST SWAP5 SWAP4 POP POP POP POP JUMP JUMPDEST PUSH32 0x49445258207472616E73666572206661696C6564000000000000000000000000 PUSH0 DUP3 ADD MSTORE POP JUMP JUMPDEST PUSH0 PUSH2 0x475B PUSH1 0x14 DUP4 PUSH2 0x3ADC JUMP JUMPDEST SWAP2 POP PUSH2 0x4766 DUP3 PUSH2 0x4727 JUMP JUMPDEST PUSH1 0x20 DUP3 ADD SWAP1 POP SWAP2 SWAP1 POP JUMP JUMPDEST PUSH0 PUSH1 0x20 DUP3 ADD SWAP1 POP DUP2 DUP2 SUB PUSH0 DUP4 ADD MSTORE PUSH2 0x4788 DUP2 PUSH2 0x474F JUMP JUMPDEST SWAP1 POP SWAP2 SWAP1 POP JUMP JUMPDEST PUSH32 0x52657669657720706572696F64206E6F7420656E646564000000000000000000 PUSH0 DUP3 ADD MSTORE POP JUMP JUMPDEST PUSH0 PUSH2 0x47C3 PUSH1 0x17 DUP4 PUSH2 0x3ADC JUMP JUMPDEST SWAP2 POP PUSH2 0x47CE DUP3 PUSH2 0x478F JUMP JUMPDEST PUSH1 0x20 DUP3 ADD SWAP1 POP SWAP2 SWAP1 POP JUMP JUMPDEST PUSH0 PUSH1 0x20 DUP3 ADD SWAP1 POP DUP2 DUP2 SUB PUSH0 DUP4 ADD MSTORE PUSH2 0x47F0 DUP2 PUSH2 0x47B7 JUMP JUMPDEST SWAP1 POP SWAP2 SWAP1 POP JUMP JUMPDEST PUSH32 0x4F6E6C792063726561746F722063616E2063616C6C2074686973000000000000 PUSH0 DUP3 ADD MSTORE POP JUMP JUMPDEST PUSH0 PUSH2 0x482B PUSH1 0x1A DUP4 PUSH2 0x3ADC JUMP JUMPDEST SWAP2 POP PUSH2 0x4836 DUP3 PUSH2 0x47F7 JUMP JUMPDEST PUSH1 0x20 DUP3 ADD SWAP1 POP SWAP2 SWAP1 POP JUMP JUMPDEST PUSH0 PUSH1 0x20 DUP3 ADD SWAP1 POP DUP2 DUP2 SUB PUSH0 DUP4 ADD MSTORE PUSH2 0x4858 DUP2 PUSH2 0x481F JUMP JUMPDEST SWAP1 POP SWAP2 SWAP1 POP JUMP JUMPDEST PUSH32 0x436F6E74656E742055524C207265717569726564000000000000000000000000 PUSH0 DUP3 ADD MSTORE POP JUMP JUMPDEST PUSH0 PUSH2 0x4893 PUSH1 0x14 DUP4 PUSH2 0x3ADC JUMP JUMPDEST SWAP2 POP PUSH2 0x489E DUP3 PUSH2 0x485F JUMP JUMPDEST PUSH1 0x20 DUP3 ADD SWAP1 POP SWAP2 SWAP1 POP JUMP JUMPDEST PUSH0 PUSH1 0x20 DUP3 ADD SWAP1 POP DUP2 DUP2 SUB PUSH0 DUP4 ADD MSTORE PUSH2 0x48C0 DUP2 PUSH2 0x4887 JUMP JUMPDEST SWAP1 POP SWAP2 SWAP1 POP JUMP JUMPDEST PUSH32 0x4E487B7100000000000000000000000000000000000000000000000000000000 PUSH0 MSTORE PUSH1 0x11 PUSH1 0x4 MSTORE PUSH1 0x24 PUSH0 REVERT JUMPDEST PUSH0 PUSH2 0x48FE DUP3 PUSH2 0x37BF JUMP JUMPDEST SWAP2 POP PUSH2 0x4909 DUP4 PUSH2 0x37BF JUMP JUMPDEST SWAP3 POP DUP3 DUP3 ADD SWAP1 POP DUP1 DUP3 GT ISZERO PUSH2 0x4921 JUMPI PUSH2 0x4920 PUSH2 0x48C7 JUMP JUMPDEST JUMPDEST SWAP3 SWAP2 POP POP JUMP JUMPDEST PUSH0 PUSH1 0x60 DUP3 ADD SWAP1 POP DUP2 DUP2 SUB PUSH0 DUP4 ADD MSTORE PUSH2 0x493F DUP2 DUP7 PUSH2 0x3AEC JUMP JUMPDEST SWAP1 POP PUSH2 0x494E PUSH1 0x20 DUP4 ADD DUP6 PUSH2 0x38E8 JUMP JUMPDEST PUSH2 0x495B PUSH1 0x40 DUP4 ADD DUP5 PUSH2 0x38E8 JUMP JUMPDEST SWAP5 SWAP4 POP POP POP POP JUMP JUMPDEST PUSH32 0x52657669657720706572696F6420656E64656400000000000000000000000000 PUSH0 DUP3 ADD MSTORE POP JUMP JUMPDEST PUSH0 PUSH2 0x4997 PUSH1 0x13 DUP4 PUSH2 0x3ADC JUMP JUMPDEST SWAP2 POP PUSH2 0x49A2 DUP3 PUSH2 0x4963 JUMP JUMPDEST PUSH1 0x20 DUP3 ADD SWAP1 POP SWAP2 SWAP1 POP JUMP JUMPDEST PUSH0 PUSH1 0x20 DUP3 ADD SWAP1 POP DUP2 DUP2 SUB PUSH0 DUP4 ADD MSTORE PUSH2 0x49C4 DUP2 PUSH2 0x498B JUMP JUMPDEST SWAP1 POP SWAP2 SWAP1 POP JUMP JUMPDEST PUSH32 0x526561736F6E2072657175697265640000000000000000000000000000000000 PUSH0 DUP3 ADD MSTORE POP JUMP JUMPDEST PUSH0 PUSH2 0x49FF PUSH1 0xF DUP4 PUSH2 0x3ADC JUMP JUMPDEST SWAP2 POP PUSH2 0x4A0A DUP3 PUSH2 0x49CB JUMP JUMPDEST PUSH1 0x20 DUP3 ADD SWAP1 POP SWAP2 SWAP1 POP JUMP JUMPDEST PUSH0 PUSH1 0x20 DUP3 ADD SWAP1 POP DUP2 DUP2 SUB PUSH0 DUP4 ADD MSTORE PUSH2 0x4A2C DUP2 PUSH2 0x49F3 JUMP JUMPDEST SWAP1 POP SWAP2 SWAP1 POP JUMP JUMPDEST PUSH0 PUSH1 0x40 DUP3 ADD SWAP1 POP DUP2 DUP2 SUB PUSH0 DUP4 ADD MSTORE PUSH2 0x4A4B DUP2 DUP6 PUSH2 0x3AEC JUMP JUMPDEST SWAP1 POP PUSH2 0x4A5A PUSH1 0x20 DUP4 ADD DUP5 PUSH2 0x38E8 JUMP JUMPDEST SWAP4 SWAP3 POP POP POP JUMP JUMPDEST PUSH32 0x43616E6E6F742077697468647261772049445258000000000000000000000000 PUSH0 DUP3 ADD MSTORE POP JUMP JUMPDEST PUSH0 PUSH2 0x4A95 PUSH1 0x14 DUP4 PUSH2 0x3ADC JUMP JUMPDEST SWAP2 POP PUSH2 0x4AA0 DUP3 PUSH2 0x4A61 JUMP JUMPDEST PUSH1 0x20 DUP3 ADD SWAP1 POP SWAP2 SWAP1 POP JUMP JUMPDEST PUSH0 PUSH1 0x20 DUP3 ADD SWAP1 POP DUP2 DUP2 SUB PUSH0 DUP4 ADD MSTORE PUSH2 0x4AC2 DUP2 PUSH2 0x4A89 JUMP JUMPDEST SWAP1 POP SWAP2 SWAP1 POP JUMP JUMPDEST PUSH32 0x46656520746F6F206869676820286D6178203130252900000000000000000000 PUSH0 DUP3 ADD MSTORE POP JUMP JUMPDEST PUSH0 PUSH2 0x4AFD PUSH1 0x16 DUP4 PUSH2 0x3ADC JUMP JUMPDEST SWAP2 POP PUSH2 0x4B08 DUP3 PUSH2 0x4AC9 JUMP JUMPDEST PUSH1 0x20 DUP3 ADD SWAP1 POP SWAP2 SWAP1 POP JUMP JUMPDEST PUSH0 PUSH1 0x20 DUP3 ADD SWAP1 POP DUP2 DUP2 SUB PUSH0 DUP4 ADD MSTORE PUSH2 0x4B2A DUP2 PUSH2 0x4AF1 JUMP JUMPDEST SWAP1 POP SWAP2 SWAP1 POP JUMP JUMPDEST PUSH0 PUSH2 0x4B3B DUP3 PUSH2 0x37BF JUMP JUMPDEST SWAP2 POP PUSH2 0x4B46 DUP4 PUSH2 0x37BF JUMP JUMPDEST SWAP3 POP DUP3 DUP3 MUL PUSH2 0x4B54 DUP2 PUSH2 0x37BF JUMP JUMPDEST SWAP2 POP DUP3 DUP3 DIV DUP5 EQ DUP4 ISZERO OR PUSH2 0x4B6B JUMPI PUSH2 0x4B6A PUSH2 0x48C7 JUMP JUMPDEST JUMPDEST POP SWAP3 SWAP2 POP POP JUMP JUMPDEST PUSH32 0x4E487B7100000000000000000000000000000000000000000000000000000000 PUSH0 MSTORE PUSH1 0x12 PUSH1 0x4 MSTORE PUSH1 0x24 PUSH0 REVERT JUMPDEST PUSH0 PUSH2 0x4BA9 DUP3 PUSH2 0x37BF JUMP JUMPDEST SWAP2 POP PUSH2 0x4BB4 DUP4 PUSH2 0x37BF JUMP JUMPDEST SWAP3 POP DUP3 PUSH2 0x4BC4 JUMPI PUSH2 0x4BC3 PUSH2 0x4B72 JUMP JUMPDEST JUMPDEST DUP3 DUP3 DIV SWAP1 POP SWAP3 SWAP2 POP POP JUMP JUMPDEST PUSH0 PUSH2 0x4BD9 DUP3 PUSH2 0x37BF JUMP JUMPDEST SWAP2 POP PUSH2 0x4BE4 DUP4 PUSH2 0x37BF JUMP JUMPDEST SWAP3 POP DUP3 DUP3 SUB SWAP1 POP DUP2 DUP2 GT ISZERO PUSH2 0x4BFC JUMPI PUSH2 0x4BFB PUSH2 0x48C7 JUMP JUMPDEST JUMPDEST SWAP3 SWAP2 POP POP JUMP JUMPDEST PUSH32 0x5472616E7366657220746F2063726561746F72206661696C6564000000000000 PUSH0 DUP3 ADD MSTORE POP JUMP JUMPDEST PUSH0 PUSH2 0x4C36 PUSH1 0x1A DUP4 PUSH2 0x3ADC JUMP JUMPDEST SWAP2 POP PUSH2 0x4C41 DUP3 PUSH2 0x4C02 JUMP JUMPDEST PUSH1 0x20 DUP3 ADD SWAP1 POP SWAP2 SWAP1 POP JUMP JUMPDEST PUSH0 PUSH1 0x20 DUP3 ADD SWAP1 POP DUP2 DUP2 SUB PUSH0 DUP4 ADD MSTORE PUSH2 0x4C63 DUP2 PUSH2 0x4C2A JUMP JUMPDEST SWAP1 POP SWAP2 SWAP1 POP JUMP JUMPDEST PUSH32 0x526566756E6420746F206272616E64206661696C656400000000000000000000 PUSH0 DUP3 ADD MSTORE POP JUMP JUMPDEST PUSH0 PUSH2 0x4C9E PUSH1 0x16 DUP4 PUSH2 0x3ADC JUMP JUMPDEST SWAP2 POP PUSH2 0x4CA9 DUP3 PUSH2 0x4C6A JUMP JUMPDEST PUSH1 0x20 DUP3 ADD SWAP1 POP SWAP2 SWAP1 POP JUMP JUMPDEST PUSH0 PUSH1 0x20 DUP3 ADD SWAP1 POP DUP2 DUP2 SUB PUSH0 DUP4 ADD MSTORE PUSH2 0x4CCB DUP2 PUSH2 0x4C92 JUMP JUMPDEST SWAP1 POP SWAP2 SWAP1 POP JUMP JUMPDEST PUSH0 PUSH1 0x80 DUP3 ADD SWAP1 POP PUSH2 0x4CE5 PUSH0 DUP4 ADD DUP8 PUSH2 0x3B4F JUMP JUMPDEST PUSH2 0x4CF2 PUSH1 0x20 DUP4 ADD DUP7 PUSH2 0x38E8 JUMP JUMPDEST PUSH2 0x4CFF PUSH1 0x40 DUP4 ADD DUP6 PUSH2 0x38E8 JUMP JUMPDEST PUSH2 0x4D0C PUSH1 0x60 DUP4 ADD DUP5 PUSH2 0x38E8 JUMP JUMPDEST SWAP6 SWAP5 POP POP POP POP POP JUMP JUMPDEST PUSH32 0x496E76616C696420616464726573730000000000000000000000000000000000 PUSH0 DUP3 ADD MSTORE POP JUMP JUMPDEST PUSH0 PUSH2 0x4D49 PUSH1 0xF DUP4 PUSH2 0x3ADC JUMP JUMPDEST SWAP2 POP PUSH2 0x4D54 DUP3 PUSH2 0x4D15 JUMP JUMPDEST PUSH1 0x20 DUP3 ADD SWAP1 POP SWAP2 SWAP1 POP JUMP JUMPDEST PUSH0 PUSH1 0x20 DUP3 ADD SWAP1 POP DUP2 DUP2 SUB PUSH0 DUP4 ADD MSTORE PUSH2 0x4D76 DUP2 PUSH2 0x4D3D JUMP JUMPDEST SWAP1 POP SWAP2 SWAP1 POP JUMP JUMPDEST PUSH0 PUSH1 0x40 DUP3 ADD SWAP1 POP PUSH2 0x4D90 PUSH0 DUP4 ADD DUP6 PUSH2 0x3A76 JUMP JUMPDEST PUSH2 0x4D9D PUSH1 0x20 DUP4 ADD DUP5 PUSH2 0x3A76 JUMP JUMPDEST SWAP4 SWAP3 POP POP POP JUMP JUMPDEST PUSH0 DUP2 SWAP1 POP SWAP2 SWAP1 POP JUMP JUMPDEST PUSH0 PUSH2 0x4DC7 PUSH2 0x4DC2 PUSH2 0x4DBD DUP5 PUSH2 0x4DA4 JUMP JUMPDEST PUSH2 0x3DDC JUMP JUMPDEST PUSH2 0x37BF JUMP JUMPDEST SWAP1 POP SWAP2 SWAP1 POP JUMP JUMPDEST PUSH2 0x4DD7 DUP2 PUSH2 0x4DAD JUMP JUMPDEST DUP3 MSTORE POP POP JUMP JUMPDEST PUSH0 PUSH1 0x40 DUP3 ADD SWAP1 POP PUSH2 0x4DF0 PUSH0 DUP4 ADD DUP6 PUSH2 0x4DCE JUMP JUMPDEST PUSH2 0x4DFD PUSH1 0x20 DUP4 ADD DUP5 PUSH2 0x38E8 JUMP JUMPDEST SWAP4 SWAP3 POP POP POP JUMP JUMPDEST PUSH32 0x5061757361626C653A2070617573656400000000000000000000000000000000 PUSH0 DUP3 ADD MSTORE POP JUMP JUMPDEST PUSH0 PUSH2 0x4E38 PUSH1 0x10 DUP4 PUSH2 0x3ADC JUMP JUMPDEST SWAP2 POP PUSH2 0x4E43 DUP3 PUSH2 0x4E04 JUMP JUMPDEST PUSH1 0x20 DUP3 ADD SWAP1 POP SWAP2 SWAP1 POP JUMP JUMPDEST PUSH0 PUSH1 0x20 DUP3 ADD SWAP1 POP DUP2 DUP2 SUB PUSH0 DUP4 ADD MSTORE PUSH2 0x4E65 DUP2 PUSH2 0x4E2C JUMP JUMPDEST SWAP1 POP SWAP2 SWAP1 POP JUMP JUMPDEST PUSH32 0x5265656E7472616E637947756172643A207265656E7472616E742063616C6C00 PUSH0 DUP3 ADD MSTORE POP JUMP JUMPDEST PUSH0 PUSH2 0x4EA0 PUSH1 0x1F DUP4 PUSH2 0x3ADC JUMP JUMPDEST SWAP2 POP PUSH2 0x4EAB DUP3 PUSH2 0x4E6C JUMP JUMPDEST PUSH1 0x20 DUP3 ADD SWAP1 POP SWAP2 SWAP1 POP JUMP JUMPDEST PUSH0 PUSH1 0x20 DUP3 ADD SWAP1 POP DUP2 DUP2 SUB PUSH0 DUP4 ADD MSTORE PUSH2 0x4ECD DUP2 PUSH2 0x4E94 JUMP JUMPDEST SWAP1 POP SWAP2 SWAP1 POP JUMP JUMPDEST PUSH32 0x5472616E7366657220666565206661696C656400000000000000000000000000 PUSH0 DUP3 ADD MSTORE POP JUMP JUMPDEST PUSH0 PUSH2 0x4F08 PUSH1 0x13 DUP4 PUSH2 0x3ADC JUMP JUMPDEST SWAP2 POP PUSH2 0x4F13 DUP3 PUSH2 0x4ED4 JUMP JUMPDEST PUSH1 0x20 DUP3 ADD SWAP1 POP SWAP2 SWAP1 POP JUMP JUMPDEST PUSH0 PUSH1 0x20 DUP3 ADD SWAP1 POP DUP2 DUP2 SUB PUSH0 DUP4 ADD MSTORE PUSH2 0x4F35 DUP2 PUSH2 0x4EFC JUMP JUMPDEST SWAP1 POP SWAP2 SWAP1 POP JUMP JUMPDEST PUSH0 PUSH1 0x60 DUP3 ADD SWAP1 POP PUSH2 0x4F4F PUSH0 DUP4 ADD DUP7 PUSH2 0x38E8 JUMP JUMPDEST PUSH2 0x4F5C PUSH1 0x20 DUP4 ADD DUP6 PUSH2 0x38E8 JUMP JUMPDEST PUSH2 0x4F69 PUSH1 0x40 DUP4 ADD DUP5 PUSH2 0x38E8 JUMP JUMPDEST SWAP5 SWAP4 POP POP POP POP JUMP JUMPDEST PUSH32 0x5061757361626C653A206E6F7420706175736564000000000000000000000000 PUSH0 DUP3 ADD MSTORE POP JUMP JUMPDEST PUSH0 PUSH2 0x4FA5 PUSH1 0x14 DUP4 PUSH2 0x3ADC JUMP JUMPDEST SWAP2 POP PUSH2 0x4FB0 DUP3 PUSH2 0x4F71 JUMP JUMPDEST PUSH1 0x20 DUP3 ADD SWAP1 POP SWAP2 SWAP1 POP JUMP JUMPDEST PUSH0 PUSH1 0x20 DUP3 ADD SWAP1 POP DUP2 DUP2 SUB PUSH0 DUP4 ADD MSTORE PUSH2 0x4FD2 DUP2 PUSH2 0x4F99 JUMP JUMPDEST SWAP1 POP SWAP2 SWAP1 POP JUMP INVALID LOG2 PUSH5 0x6970667358 0x22 SLT KECCAK256 LOG3 0xBD SELFDESTRUCT 0xD 0xB6 PUSH4 0xC818CB44 0xB0 SWAP4 0xF7 0xBB BLOCKHASH 0xD2 0xDF 0xDC PUSH13 0x7491246C29A19F433B03846667 PUSH5 0x736F6C6343 STOP ADDMOD 0x1E STOP CALLER "
		},
		"gasEstimates": {
			"creation": {
				"codeDepositCost": "4099000",
				"executionCost": "infinite",
				"totalCost": "infinite"
			},
			"external": {
				"BPS_DENOMINATOR()": "436",
				"approveDeal(string)": "infinite",
				"autoReleasePayment(string)": "infinite",
				"brandDeals(address,uint256)": "infinite",
				"canAutoRelease(string)": "infinite",
				"cancelDeal(string)": "infinite",
				"createDeal(string,address,uint256,uint256,string)": "infinite",
				"creatorDeals(address,uint256)": "infinite",
				"deals(string)": "infinite",
				"emergencyCancelDeal(string)": "infinite",
				"emergencyWithdraw(address,uint256)": "infinite",
				"feeRecipient()": "2554",
				"fundDeal(string)": "infinite",
				"getDeal(string)": "infinite",
				"getDealsByBrand(address)": "infinite",
				"getDealsByCreator(address)": "infinite",
				"idrxToken()": "infinite",
				"initiateDispute(string,string)": "infinite",
				"owner()": "2605",
				"pause()": "infinite",
				"paused()": "2569",
				"platformFeeBps()": "2471",
				"renounceOwnership()": "infinite",
				"resolveDispute(string,bool)": "infinite",
				"submitContent(string,string)": "infinite",
				"transferOwnership(address)": "infinite",
				"unpause()": "infinite",
				"updateFeeRecipient(address)": "infinite",
				"updatePlatformFee(uint256)": "infinite"
			},
			"internal": {
				"_releasePayment(string memory)": "infinite"
			}
		},
		"methodIdentifiers": {
			"BPS_DENOMINATOR()": "e1a45218",
			"approveDeal(string)": "48f92ee8",
			"autoReleasePayment(string)": "38a13287",
			"brandDeals(address,uint256)": "d46597e3",
			"canAutoRelease(string)": "76492d3f",
			"cancelDeal(string)": "f3227dc4",
			"createDeal(string,address,uint256,uint256,string)": "02ce5074",
			"creatorDeals(address,uint256)": "53a140ac",
			"deals(string)": "a0a57dac",
			"emergencyCancelDeal(string)": "1a1aaeed",
			"emergencyWithdraw(address,uint256)": "95ccea67",
			"feeRecipient()": "46904840",
			"fundDeal(string)": "1f4709d8",
			"getDeal(string)": "e7079180",
			"getDealsByBrand(address)": "abb83b6f",
			"getDealsByCreator(address)": "314e4e88",
			"idrxToken()": "d6bc7c63",
			"initiateDispute(string,string)": "8cfbe8c3",
			"owner()": "8da5cb5b",
			"pause()": "8456cb59",
			"paused()": "5c975abb",
			"platformFeeBps()": "22dcd13e",
			"renounceOwnership()": "715018a6",
			"resolveDispute(string,bool)": "ce422626",
			"submitContent(string,string)": "73e84120",
			"transferOwnership(address)": "f2fde38b",
			"unpause()": "3f4ba83a",
			"updateFeeRecipient(address)": "f160d369",
			"updatePlatformFee(uint256)": "aa0b5988"
		}
	},
	"abi": [
		{
			"inputs": [
				{
					"internalType": "address",
					"name": "_idrxToken",
					"type": "address"
				},
				{
					"internalType": "address",
					"name": "_feeRecipient",
					"type": "address"
				},
				{
					"internalType": "address",
					"name": "_initialOwner",
					"type": "address"
				}
			],
			"stateMutability": "nonpayable",
			"type": "constructor"
		},
		{
			"inputs": [
				{
					"internalType": "address",
					"name": "owner",
					"type": "address"
				}
			],
			"name": "OwnableInvalidOwner",
			"type": "error"
		},
		{
			"inputs": [
				{
					"internalType": "address",
					"name": "account",
					"type": "address"
				}
			],
			"name": "OwnableUnauthorizedAccount",
			"type": "error"
		},
		{
			"anonymous": false,
			"inputs": [
				{
					"indexed": true,
					"internalType": "string",
					"name": "dealId",
					"type": "string"
				},
				{
					"indexed": true,
					"internalType": "address",
					"name": "creator",
					"type": "address"
				},
				{
					"indexed": false,
					"internalType": "string",
					"name": "contentUrl",
					"type": "string"
				},
				{
					"indexed": false,
					"internalType": "uint256",
					"name": "timestamp",
					"type": "uint256"
				},
				{
					"indexed": false,
					"internalType": "uint256",
					"name": "reviewDeadline",
					"type": "uint256"
				}
			],
			"name": "ContentSubmitted",
			"type": "event"
		},
		{
			"anonymous": false,
			"inputs": [
				{
					"indexed": true,
					"internalType": "string",
					"name": "dealId",
					"type": "string"
				},
				{
					"indexed": true,
					"internalType": "address",
					"name": "brand",
					"type": "address"
				},
				{
					"indexed": false,
					"internalType": "uint256",
					"name": "timestamp",
					"type": "uint256"
				}
			],
			"name": "DealApproved",
			"type": "event"
		},
		{
			"anonymous": false,
			"inputs": [
				{
					"indexed": true,
					"internalType": "string",
					"name": "dealId",
					"type": "string"
				},
				{
					"indexed": true,
					"internalType": "address",
					"name": "initiator",
					"type": "address"
				},
				{
					"indexed": false,
					"internalType": "uint256",
					"name": "refundAmount",
					"type": "uint256"
				},
				{
					"indexed": false,
					"internalType": "uint256",
					"name": "timestamp",
					"type": "uint256"
				}
			],
			"name": "DealCancelled",
			"type": "event"
		},
		{
			"anonymous": false,
			"inputs": [
				{
					"indexed": true,
					"internalType": "string",
					"name": "dealId",
					"type": "string"
				},
				{
					"indexed": true,
					"internalType": "address",
					"name": "brand",
					"type": "address"
				},
				{
					"indexed": true,
					"internalType": "address",
					"name": "creator",
					"type": "address"
				},
				{
					"indexed": false,
					"internalType": "uint256",
					"name": "amount",
					"type": "uint256"
				},
				{
					"indexed": false,
					"internalType": "uint256",
					"name": "deadline",
					"type": "uint256"
				}
			],
			"name": "DealCreated",
			"type": "event"
		},
		{
			"anonymous": false,
			"inputs": [
				{
					"indexed": true,
					"internalType": "string",
					"name": "dealId",
					"type": "string"
				},
				{
					"indexed": true,
					"internalType": "address",
					"name": "brand",
					"type": "address"
				},
				{
					"indexed": false,
					"internalType": "uint256",
					"name": "amount",
					"type": "uint256"
				},
				{
					"indexed": false,
					"internalType": "uint256",
					"name": "timestamp",
					"type": "uint256"
				}
			],
			"name": "DealFunded",
			"type": "event"
		},
		{
			"anonymous": false,
			"inputs": [
				{
					"indexed": true,
					"internalType": "string",
					"name": "dealId",
					"type": "string"
				},
				{
					"indexed": true,
					"internalType": "address",
					"name": "brand",
					"type": "address"
				},
				{
					"indexed": false,
					"internalType": "string",
					"name": "reason",
					"type": "string"
				},
				{
					"indexed": false,
					"internalType": "uint256",
					"name": "timestamp",
					"type": "uint256"
				}
			],
			"name": "DisputeInitiated",
			"type": "event"
		},
		{
			"anonymous": false,
			"inputs": [
				{
					"indexed": true,
					"internalType": "string",
					"name": "dealId",
					"type": "string"
				},
				{
					"indexed": true,
					"internalType": "address",
					"name": "creator",
					"type": "address"
				},
				{
					"indexed": false,
					"internalType": "bool",
					"name": "accepted8020",
					"type": "bool"
				},
				{
					"indexed": false,
					"internalType": "uint256",
					"name": "creatorAmount",
					"type": "uint256"
				},
				{
					"indexed": false,
					"internalType": "uint256",
					"name": "brandRefund",
					"type": "uint256"
				},
				{
					"indexed": false,
					"internalType": "uint256",
					"name": "timestamp",
					"type": "uint256"
				}
			],
			"name": "DisputeResolved",
			"type": "event"
		},
		{
			"anonymous": false,
			"inputs": [
				{
					"indexed": false,
					"internalType": "address",
					"name": "oldRecipient",
					"type": "address"
				},
				{
					"indexed": false,
					"internalType": "address",
					"name": "newRecipient",
					"type": "address"
				}
			],
			"name": "FeeRecipientUpdated",
			"type": "event"
		},
		{
			"anonymous": false,
			"inputs": [
				{
					"indexed": true,
					"internalType": "address",
					"name": "previousOwner",
					"type": "address"
				},
				{
					"indexed": true,
					"internalType": "address",
					"name": "newOwner",
					"type": "address"
				}
			],
			"name": "OwnershipTransferred",
			"type": "event"
		},
		{
			"anonymous": false,
			"inputs": [
				{
					"indexed": false,
					"internalType": "address",
					"name": "account",
					"type": "address"
				}
			],
			"name": "Paused",
			"type": "event"
		},
		{
			"anonymous": false,
			"inputs": [
				{
					"indexed": true,
					"internalType": "string",
					"name": "dealId",
					"type": "string"
				},
				{
					"indexed": true,
					"internalType": "address",
					"name": "creator",
					"type": "address"
				},
				{
					"indexed": false,
					"internalType": "uint256",
					"name": "amount",
					"type": "uint256"
				},
				{
					"indexed": false,
					"internalType": "uint256",
					"name": "platformFee",
					"type": "uint256"
				},
				{
					"indexed": false,
					"internalType": "uint256",
					"name": "timestamp",
					"type": "uint256"
				}
			],
			"name": "PaymentReleased",
			"type": "event"
		},
		{
			"anonymous": false,
			"inputs": [
				{
					"indexed": false,
					"internalType": "uint256",
					"name": "oldFee",
					"type": "uint256"
				},
				{
					"indexed": false,
					"internalType": "uint256",
					"name": "newFee",
					"type": "uint256"
				}
			],
			"name": "PlatformFeeUpdated",
			"type": "event"
		},
		{
			"anonymous": false,
			"inputs": [
				{
					"indexed": false,
					"internalType": "address",
					"name": "account",
					"type": "address"
				}
			],
			"name": "Unpaused",
			"type": "event"
		},
		{
			"inputs": [],
			"name": "BPS_DENOMINATOR",
			"outputs": [
				{
					"internalType": "uint256",
					"name": "",
					"type": "uint256"
				}
			],
			"stateMutability": "view",
			"type": "function"
		},
		{
			"inputs": [
				{
					"internalType": "string",
					"name": "_dealId",
					"type": "string"
				}
			],
			"name": "approveDeal",
			"outputs": [],
			"stateMutability": "nonpayable",
			"type": "function"
		},
		{
			"inputs": [
				{
					"internalType": "string",
					"name": "_dealId",
					"type": "string"
				}
			],
			"name": "autoReleasePayment",
			"outputs": [],
			"stateMutability": "nonpayable",
			"type": "function"
		},
		{
			"inputs": [
				{
					"internalType": "address",
					"name": "",
					"type": "address"
				},
				{
					"internalType": "uint256",
					"name": "",
					"type": "uint256"
				}
			],
			"name": "brandDeals",
			"outputs": [
				{
					"internalType": "string",
					"name": "",
					"type": "string"
				}
			],
			"stateMutability": "view",
			"type": "function"
		},
		{
			"inputs": [
				{
					"internalType": "string",
					"name": "_dealId",
					"type": "string"
				}
			],
			"name": "canAutoRelease",
			"outputs": [
				{
					"internalType": "bool",
					"name": "",
					"type": "bool"
				}
			],
			"stateMutability": "view",
			"type": "function"
		},
		{
			"inputs": [
				{
					"internalType": "string",
					"name": "_dealId",
					"type": "string"
				}
			],
			"name": "cancelDeal",
			"outputs": [],
			"stateMutability": "nonpayable",
			"type": "function"
		},
		{
			"inputs": [
				{
					"internalType": "string",
					"name": "_dealId",
					"type": "string"
				},
				{
					"internalType": "address",
					"name": "_creator",
					"type": "address"
				},
				{
					"internalType": "uint256",
					"name": "_amount",
					"type": "uint256"
				},
				{
					"internalType": "uint256",
					"name": "_deadline",
					"type": "uint256"
				},
				{
					"internalType": "string",
					"name": "_briefHash",
					"type": "string"
				}
			],
			"name": "createDeal",
			"outputs": [],
			"stateMutability": "nonpayable",
			"type": "function"
		},
		{
			"inputs": [
				{
					"internalType": "address",
					"name": "",
					"type": "address"
				},
				{
					"internalType": "uint256",
					"name": "",
					"type": "uint256"
				}
			],
			"name": "creatorDeals",
			"outputs": [
				{
					"internalType": "string",
					"name": "",
					"type": "string"
				}
			],
			"stateMutability": "view",
			"type": "function"
		},
		{
			"inputs": [
				{
					"internalType": "string",
					"name": "",
					"type": "string"
				}
			],
			"name": "deals",
			"outputs": [
				{
					"internalType": "string",
					"name": "dealId",
					"type": "string"
				},
				{
					"internalType": "address",
					"name": "brand",
					"type": "address"
				},
				{
					"internalType": "address",
					"name": "creator",
					"type": "address"
				},
				{
					"internalType": "uint256",
					"name": "amount",
					"type": "uint256"
				},
				{
					"internalType": "uint256",
					"name": "deadline",
					"type": "uint256"
				},
				{
					"internalType": "string",
					"name": "briefHash",
					"type": "string"
				},
				{
					"internalType": "enum SponsorFiEscrow.ContractStatus",
					"name": "status",
					"type": "uint8"
				},
				{
					"internalType": "uint256",
					"name": "fundedAt",
					"type": "uint256"
				},
				{
					"internalType": "uint256",
					"name": "submittedAt",
					"type": "uint256"
				},
				{
					"internalType": "uint256",
					"name": "reviewDeadline",
					"type": "uint256"
				},
				{
					"internalType": "string",
					"name": "contentUrl",
					"type": "string"
				},
				{
					"internalType": "bool",
					"name": "exists",
					"type": "bool"
				}
			],
			"stateMutability": "view",
			"type": "function"
		},
		{
			"inputs": [
				{
					"internalType": "string",
					"name": "_dealId",
					"type": "string"
				}
			],
			"name": "emergencyCancelDeal",
			"outputs": [],
			"stateMutability": "nonpayable",
			"type": "function"
		},
		{
			"inputs": [
				{
					"internalType": "address",
					"name": "_token",
					"type": "address"
				},
				{
					"internalType": "uint256",
					"name": "_amount",
					"type": "uint256"
				}
			],
			"name": "emergencyWithdraw",
			"outputs": [],
			"stateMutability": "nonpayable",
			"type": "function"
		},
		{
			"inputs": [],
			"name": "feeRecipient",
			"outputs": [
				{
					"internalType": "address",
					"name": "",
					"type": "address"
				}
			],
			"stateMutability": "view",
			"type": "function"
		},
		{
			"inputs": [
				{
					"internalType": "string",
					"name": "_dealId",
					"type": "string"
				}
			],
			"name": "fundDeal",
			"outputs": [],
			"stateMutability": "nonpayable",
			"type": "function"
		},
		{
			"inputs": [
				{
					"internalType": "string",
					"name": "_dealId",
					"type": "string"
				}
			],
			"name": "getDeal",
			"outputs": [
				{
					"internalType": "address",
					"name": "brand",
					"type": "address"
				},
				{
					"internalType": "address",
					"name": "creator",
					"type": "address"
				},
				{
					"internalType": "uint256",
					"name": "amount",
					"type": "uint256"
				},
				{
					"internalType": "uint256",
					"name": "deadline",
					"type": "uint256"
				},
				{
					"internalType": "enum SponsorFiEscrow.ContractStatus",
					"name": "status",
					"type": "uint8"
				},
				{
					"internalType": "string",
					"name": "briefHash",
					"type": "string"
				},
				{
					"internalType": "string",
					"name": "contentUrl",
					"type": "string"
				},
				{
					"internalType": "uint256",
					"name": "reviewDeadline",
					"type": "uint256"
				}
			],
			"stateMutability": "view",
			"type": "function"
		},
		{
			"inputs": [
				{
					"internalType": "address",
					"name": "_brand",
					"type": "address"
				}
			],
			"name": "getDealsByBrand",
			"outputs": [
				{
					"internalType": "string[]",
					"name": "",
					"type": "string[]"
				}
			],
			"stateMutability": "view",
			"type": "function"
		},
		{
			"inputs": [
				{
					"internalType": "address",
					"name": "_creator",
					"type": "address"
				}
			],
			"name": "getDealsByCreator",
			"outputs": [
				{
					"internalType": "string[]",
					"name": "",
					"type": "string[]"
				}
			],
			"stateMutability": "view",
			"type": "function"
		},
		{
			"inputs": [],
			"name": "idrxToken",
			"outputs": [
				{
					"internalType": "contract IERC20",
					"name": "",
					"type": "address"
				}
			],
			"stateMutability": "view",
			"type": "function"
		},
		{
			"inputs": [
				{
					"internalType": "string",
					"name": "_dealId",
					"type": "string"
				},
				{
					"internalType": "string",
					"name": "_reason",
					"type": "string"
				}
			],
			"name": "initiateDispute",
			"outputs": [],
			"stateMutability": "nonpayable",
			"type": "function"
		},
		{
			"inputs": [],
			"name": "owner",
			"outputs": [
				{
					"internalType": "address",
					"name": "",
					"type": "address"
				}
			],
			"stateMutability": "view",
			"type": "function"
		},
		{
			"inputs": [],
			"name": "pause",
			"outputs": [],
			"stateMutability": "nonpayable",
			"type": "function"
		},
		{
			"inputs": [],
			"name": "paused",
			"outputs": [
				{
					"internalType": "bool",
					"name": "",
					"type": "bool"
				}
			],
			"stateMutability": "view",
			"type": "function"
		},
		{
			"inputs": [],
			"name": "platformFeeBps",
			"outputs": [
				{
					"internalType": "uint256",
					"name": "",
					"type": "uint256"
				}
			],
			"stateMutability": "view",
			"type": "function"
		},
		{
			"inputs": [],
			"name": "renounceOwnership",
			"outputs": [],
			"stateMutability": "nonpayable",
			"type": "function"
		},
		{
			"inputs": [
				{
					"internalType": "string",
					"name": "_dealId",
					"type": "string"
				},
				{
					"internalType": "bool",
					"name": "_accept8020",
					"type": "bool"
				}
			],
			"name": "resolveDispute",
			"outputs": [],
			"stateMutability": "nonpayable",
			"type": "function"
		},
		{
			"inputs": [
				{
					"internalType": "string",
					"name": "_dealId",
					"type": "string"
				},
				{
					"internalType": "string",
					"name": "_contentUrl",
					"type": "string"
				}
			],
			"name": "submitContent",
			"outputs": [],
			"stateMutability": "nonpayable",
			"type": "function"
		},
		{
			"inputs": [
				{
					"internalType": "address",
					"name": "newOwner",
					"type": "address"
				}
			],
			"name": "transferOwnership",
			"outputs": [],
			"stateMutability": "nonpayable",
			"type": "function"
		},
		{
			"inputs": [],
			"name": "unpause",
			"outputs": [],
			"stateMutability": "nonpayable",
			"type": "function"
		},
		{
			"inputs": [
				{
					"internalType": "address",
					"name": "_newRecipient",
					"type": "address"
				}
			],
			"name": "updateFeeRecipient",
			"outputs": [],
			"stateMutability": "nonpayable",
			"type": "function"
		},
		{
			"inputs": [
				{
					"internalType": "uint256",
					"name": "_newFeeBps",
					"type": "uint256"
				}
			],
			"name": "updatePlatformFee",
			"outputs": [],
			"stateMutability": "nonpayable",
			"type": "function"
		}
	]
}